:020000040800F2
:10400000C8300020854100083D49000835490008B6
:10401000394900082D490008197A000800000000FD
:10402000000000000000000000000000A16900087E
:1040300031490008000000001D4A0008A569000879
:104040009F4100089F4100089F4100089F410008D0
:104050009F4100089F4100089F4100089F410008C0
:104060009F4100089F4100089F4100089F410008B0
:104070009F4100089F4100089F4100089F410008A0
:104080009F4100089F4100089F4100089F41000890
:104090009F4100089F4100089F4100089F41000880
:1040A0009F4100089F4100089F4100089F41000870
:1040B000C1710008A97600089F4100089F410008CF
:1040C0009F4100089F4100089F4100089F41000850
:1040D0009F41000829780008CD7800087179000810
:1040E0009F4100089F4100089F4100080000000018
:1040F00000000000000000000000000000000000C0
:10410000000000009F4100089F41000800000000DF
:10411000D976000881770008000000000000000048
:104120009F4100089F4100089F4100089F410008EF
:10413000000000000000000000000000000000007F
:104140000000000000000000000000009F41000887
:1041500000000000000000009F4100089F4100088F
:104160000000000000000000000000009F41000867
:10417000DFF80CD000F032F9004800473D0C010890
:10418000C83000200648804706480047FEE7FEE7A3
:10419000FEE7FEE7FEE7FEE7FEE7FEE7FEE7FEE7F7
:1041A00019710008714100082DE9FE4F804681EA2F
:1041B0000300C00F0C46009021F0004123F00045A1
:1041C000B8EB0200A94105D24046214690461C4664
:1041D0000B46024623F00040104347D0270DC7F39B
:1041E0000A00C3F30A510290401A019040286BDA8A
:1041F000C3F3130040F4801B0098924620B10023C3
:10420000D2EB030A63EB0B0B01985946C0F1400255
:10421000504600F0FBF806460D4650465946019AB6
:1042200000F013F910EB08006141002487EA1152F5
:1042300084EAE7731A4340D0009A62B3019A012AD4
:104240004FEA075215DC001B61EB02014FF0004200
:1042500002EA0752CDE90042001C41F580113246C6
:104260002B4600F013F903B0BDE8F08F404621461D
:10427000F9E7001B61EB0201001C41F580130018F7
:104280005B412018A2F5001747EB030140EAD57007
:10429000B6196D4111E06D084FEA360645EAC07562
:1042A0004FEA0752001B61EB0201001C41F580112F
:1042B00049084FEA30000019514132462B4603B0FD
:1042C000BDE8F04F00F0D3B8009801224000002371
:1042D000D0EB020263EBE073009821464FEAE074F2
:1042E000B8EB000061EB0401E9E783F000435BE712
:1042F00081F0004158E72DE9FE4F81EA030404F004
:10430000004421F0004100944FF0000B23F00043E3
:1043100050EA01045ED052EA03045BD0C3F30A54AE
:10432000C1F30A552C44A4F2F3340194A0FB0254C7
:10433000C1F3130141F48011C3F3130343F4801359
:1043400001FB024400FB034E840A970A44EA8154AD
:1043500047EA8357A4FB076802958D0A05FB07858A
:104360004FEA932C04FB0C542705029D4FEA065894
:1043700047EA1637B5EB08056EEB070C870E920E71
:1043800047EA811742EA8312A7FB0201B6EB0B0151
:1043900064EB00042B0D43EA0C335E1844EB1C5015
:1043A000DA465146E7FB0201C5F313044FEA0B332B
:1043B00043EA14534FEA0432019C43EA0603A4F192
:1043C0000C040294009CCDE900B400F05FF803B047
:1043D000BDE8F08F00200146F9E700001CB5094850
:1043E0000090094801900546009C06E0E06840F016
:1043F000010394E8070098471034AC42F6D3FFF766
:10440000BBFE00002C5301084C530108202A04DB9A
:10441000203A00FA02F1002070479140C2F12003D7
:1044200020FA03F3194390407047202A04DB203A16
:1044300021FA02F00021704721FA02F3D040C2F1C4
:1044400020029140084319467047202A06DBCB170B
:10445000203A41FA02F043EAE07306E041FA02F33F
:10446000D040C2F12002914008431946704710B570
:10447000141E73F1000408DA401C41F10001921887
:104480005B411A4301D120F0010010BD2DE9F04D30
:1044900092469B4611B1B1FA81F202E0B0FA80F285
:1044A00020329046FFF7B2FF04460F4640EA0A006A
:1044B00041EA0B0153465A46084313D0114653EACA
:1044C000010019D0C8F140025046FFF7AEFF054683
:1044D0000E46504659464246FFF798FF084305D01E
:1044E000012004E020463946BDE8F08D0020054358
:1044F00046EAE0762C4337430A986305E40AA0EBCA
:1045000008000022FD0A44EA47540A3002D5002080
:104510000146E9E7010510196941DDE9084500197F
:104520006941BDE8F04DA2E7D2B201E000F8012BED
:10453000491EFBD270470022F6E710B513460A4623
:1045400004461946FFF7F0FF204610BDF0B480EA9C
:104550000102D40F4200B2EB410F02D202460846DC
:1045600011464A0042D0C30DDDB2C1F3C752AD1AA5
:10457000202D35DAC1F3160141F4000204B1524294
:10458000C5F1200602FA06F12A411044B3EBD05FD0
:1045900023D0C4B1012DA0EBC35009DCF0BC4FF017
:1045A000004202EAC352DBB200F5000000F08FB90E
:1045B000400000F1807000EBC350A0F1807040EA31
:1045C000D170490009E0490841EAC071A0EBC3502D
:1045D00000F50000400800EBC350F0BC00F06EB9DD
:1045E0006142012202EB4101001BF6E7F0BC70477B
:1045F00081F00041AAE780F00040A7E780EA0102CD
:1046000010B502F00043400022D04A001FD0010E36
:1046100001EB1261C0F35600C2F3560240F40000F1
:1046200042F40002A0FB022000047F39140400D0F1
:10463000401C50EA124001D44000491EC2B20C0690
:1046400004EBD010401C4008802A02D003E0002078
:1046500010BD20F00100002900DA0020184310BD31
:10466000002801DBC0F10040002901DBC1F100415D
:10467000814201D80120704700207047002801DBEB
:10468000C0F10040002901DBC1F10041814201D2AB
:104690000120704700207047002801DBC0F1004076
:1046A000002901DBC1F10041814201D301207047A3
:1046B00000207047002801DBC0F10040002901DB29
:1046C000C1F10041814201D90120704700207047AB
:1046D00030B5041E71F1000404DB4FF00044404289
:1046E00064EB0101141E73F1000405DB1C464FF05E
:1046F0000043524263EB0403101A8B4101D30120A3
:1047000030BD002030BD30B5041E71F1000404DB63
:104710004FF00044404264EB0101141E73F10004A9
:1047200005DB1C464FF00043524263EB0403801A42
:10473000994101D2012030BD002030BDC10F80EA77
:10474000E0700844CA079623002100F0C0B8962301
:104750000022114600F0BBB80EB5C10F80EAE07030
:104760000844CA07002140F233438DE80E000A4690
:104770000B46FFF78BFE03B000BD0EB540F2334190
:1047800002910021CDE900110A460B46FFF77EFE9B
:1047900003B000BD00F0004220F00040C10DC0F3A6
:1047A000160040F400007F2901DA002070479629A6
:1047B00003DCC1F19601C84001E096398840002A27
:1047C000F4D04042704720F00040C10DC0F3160005
:1047D00040F400007F2901DA00207047962903DCAD
:1047E000C1F19601C840704796398840704770B54E
:1047F000C1F30A5201F000450024C1F3130140F255
:10480000FF3341F480119A4201DA002070BD40F27A
:1048100033439A42A2F2334203DC5242FFF705FED1
:1048200000E090402C43F1D0404270BDC1F30A52E9
:1048300010B5C1F3130140F2FF3341F480119A42E5
:1048400001DA002010BD40F233439A42A2F2334213
:1048500003DC5242FFF7E9FD10BD904010BD00F0AF
:10486000004230F000400AD0C10D01F56071C0F384
:10487000160042EA0151C208400711437047002068
:104880000146704701F0004330B421F0004150EA86
:10489000010206D00A0DA2F56072C1F31301002ACD
:1048A00002DC30BC00207047440F44EAC104C10060
:1048B000E01830BC00EBC250AFF300800029A8BF65
:1048C0007047401C490008BF20F00100704710B439
:1048D000B0FA80FC00FA0CF050EA010404BF10BCEE
:1048E000704749B1CCF1200421FA04F411FA0CF11B
:1048F00018BF012121430843A3EB0C01CB1D4FEA54
:1049000000614FEA102042BF002010BC704700EB4E
:10491000C35010440029A4BF10BC7047401C49007C
:1049200008BF20F0010010BC70470000FEE7000047
:1049300070470000FEE70000FEE70000704700003F
:10494000F0B583B0FFF754FE42F21026C2F2000623
:1049500070617169F069FFF7F9FDF0614CF60004D0
:10496000F069C4F22F742146FFF788FE002808BFC3
:10497000F461F06900210024FFF79CFE002808BFC5
:10498000F461D6E900457069776A3169FFF730FE56
:10499000B06170692146FFF731FEF16904460846AF
:1049A0002946FFF72BFE0290019702980199FFF725
:1049B00057FE002804BF019802900298019981F0E7
:1049C0000041FFF769FE18B9019880F0004002909D
:1049D00002982146FFF7BAFDB269B16804467569CD
:1049E0001046FFF70BFE01462046FFF7AFFD306291
:1049F0003561306AB16AFFF733FE002804BFB06A40
:104A00003062306AB16A81F00041FFF745FE00284C
:104A100004BF00203062306A03B0F0BD7047000070
:104A20002DE9F04381B042F68442C2F20002517B8C
:104A3000022914D1461C5788002331461588BD42EF
:104A400010D095680133EF5D01F8017B5788958898
:104A50000137B7FBF5F404FB15775780EEE700F15B
:104A6000810789E0002151730746D9B2092907F867
:104A7000813F40F0BD8031785A2940F07D808178B7
:104A8000A52940F0798081790B39712900F2748071
:104A9000DFE811F0750050049B0301053905720031
:104AA00072007200100471048B0481056405060312
:104AB000180481039A02B604C804AE0593056C027B
:104AC000930326067E026403D9022A04BC02DC0694
:104AD000BF063003C603E404F3033F072803A5051C
:104AE0002F075C0243054B021D024D0347041D06C0
:104AF00072007200B10072006402AD0472007200B4
:104B00007200230572004807DB04CF0172007200B7
:104B100072007A016A070A07AB017705CF05A00189
:104B2000710654069D0772007200720072007200D6
:104B300072007200720072007200720072007200E5
:104B400072007200720072007200720072007200D5
:104B500072007200720072007200720072007200C5
:104B600072007200720072007200720072007200B5
:104B7000720072005F0794070020387038E042F638
:104B80004015C2F2000595F83F100229F4D0012229
:104B9000A5F85B20A5F8562000220029EA8385F8B5
:104BA0004720E9D1017A447A0802FFF7D5FD804613
:104BB00020460E46FFF7E1FD0023C4F20403002265
:104BC000FFF799FB42463346FFF7EEFAFFF70FFE79
:104BD00043F23432642898BF642000EBC001C3F272
:104BE0003332A1FB0212A88302F120006884C3E7DC
:104BF00001B0BDE8F083417A42F640100029C2F2CC
:104C0000000018BF012180F85210B5D04FF48C710C
:104C10004FF433720A264FF00135A0F8C610142164
:104C200042843C220685C0F842500125A0F88E60DF
:104C30004FF4AF76C0F2040180F82420322280F8CD
:104C40004650A0F84C50A0F8966040F2962640F2EC
:104C5000F025C0F8CA10142142861E22C0F2CC26CC
:104C6000C0F24A352823C0F20501C286C0F8AE6002
:104C70001426C0F8B25028259622C0F20A03C0F8C4
:104C8000D210C0F8FA10C0F820114FF4FA71C0F237
:104C90000A06C0F21405A0F8B620C0F8BA30A0F891
:104CA000DE202822C0F8F2302823A0F832111E217D
:104CB0004FF48034C0F898601E26C0F8A4503C25FC
:104CC000C0F20302C0F20803C0F206018464C0F21D
:104CD0000F06C0F21E051424C0F8E2201E22C0F800
:104CE00010312823C0F8361128214FF4BE794FF037
:104CF000640E4FF0000CC0F89E604FF4C8764FF47D
:104D0000E178C0F8AA504FF48275C0F20304C0F2F3
:104D10000402C0F20403C0F20501A0F81C9080F860
:104D200026E080F83AC080F841C0A0F89C90A0F836
:104D3000A260A0F8A880A0F8BE50C0F8C240A0F8B9
:104D4000CEE0A0F8E650C0F8EA40A0F8EE90A0F857
:104D5000F650A0F80461C0F80821A0F80C81A0F872
:104D60001491C0F81831A0F81C51A0F82A61C0F8BD
:104D70002E21A0F83A91C0F83E31A0F84251C0F877
:104D8000461180F88DC0F7E642F64011C2F20001EC
:104D900091F83F20002A7FF4EFAE0122A1F85B20BA
:104DA000A1F856200022CA83407A012801F07382BC
:104DB00000287FF4E1AE91F84100012801F05B8406
:104DC00000287FF4D9AE888B6422642888BF421EF5
:104DD00000F0EEBD42F64010C2F2000090F83F1025
:104DE00000297FF4C9AE00F0B2BC407A012800F07F
:104DF000438600287FF4C0AE42F64010C2F20000A5
:104E000090F83F10032901F03A8300297FF4B4AEF3
:104E10000121A0F85B10A0F8581090F8241000228F
:104E20000A2980F8252040F25F85053980F8241092
:104E3000A2E642F64014C2F2000494F83F100029A2
:104E40007FF49AAE407A012801F0358200287FF481
:104E500093AE40F2B110C2F2000001780131CAB243
:104E60000A2A0170FFF488AE40F2B011C2F20001CC
:104E70000A78002A7FF480AE0022027001200870B8
:104E800042F6C020C2F200000221017094F84100F5
:104E900094F82430B4F88E100128A4F89830A4F8BF
:104EA0009A1001F0E284002841F0FC84A38B43F2C5
:104EB000343103EBC300C3F23331A0FB010101F134
:104EC0002000A4F89630A4F8AE0001F0DFBC42F652
:104ED0004011C2F2000191F83F20002A7FF44CAE4D
:104EE00091F84130427A012B0ED1007A42EA00203B
:104EF00000EB800048F63962A038C3F6E30250FBAD
:104F000002F0421002EBD072087F91F83A30801A1A
:104F1000184440B26428A8BF642010F1640FD8BFC1
:104F20006FF0630081F83A0026E6008940F2E7322C
:104F300000BA010C914238BF020C42F64010C2F296
:104F40000000012A98BF0122C28615E6407A42F687
:104F50004011C2F2000181F846000DE6407A42F6A7
:104F60004011C2F2000181F8480005E6008940F2D4
:104F7000E73200BA010C914238BF020C42F64010F1
:104F8000C2F20000012A98BF0122A0F8AC20F3E58C
:104F900042F64011C2F2000191F88C20032A3FF63C
:104FA000EBADDFE812F00400C0069506B2060089FA
:104FB000C82300BA020CC82A38BF030C052B98BFBF
:104FC0000523A1F8BA30D7E542F64011C2F200013C
:104FD00091F84120002A00F06D85012A40F090856B
:104FE000008948F6396200BA000CA1F8B20000EB63
:104FF0008000A038C3F6E30250FB02F0421002EB3F
:10500000D07290B2A1F8A22000F07CBD42F640110F
:10501000C2F2000191F88C20032A3FF6ADADDFE823
:1050200012F00400BE066506AF06008940F2E733C1
:1050300000BA020C9A4238BF030C012B98BF01231F
:10504000A1F8C43098E542F64011C2F2000191F88F
:105050008C20032A3FF690ADDFE812F00400CF0663
:105060007306B006008991F8412040BA012AA1F8E0
:10507000BE000ED100EB800048F63962A038C3F6BE
:10508000E30250FB02F0421002EBD07290B2A1F8A2
:10509000BE20642801F237826420A1F8BE006BE5CF
:1050A00042F64011C2F2000191F84120002A00F0BE
:1050B0001485012A40F04385008948F6396200BA18
:1050C000000CA1F8B00000EB8000A038C3F6E302AA
:1050D00050FB02F0421002EBD07290B2A1F89C207B
:1050E00000F02FBD407A42F64011C2F2000181F873
:1050F000420041E542F64011C2F2000191F88C20D5
:10510000032A3FF639ADDFE812F00400C406970623
:10511000A606008940F2E73300BA020C9A4238BF73
:10512000030C012B98BF0123A1F8CC3024E50089A2
:1051300040F2E73200BA010C914238BF020C42F64D
:1051400040100029C2F200004FF0000108BF012208
:10515000A0F88E20028580F854100DE542F640112B
:10516000C2F2000191F88C20032A3FF605ADDFE87A
:1051700012F00400DC068106CD06008940F2E73318
:1051800000BA020C9A4238BF030C012B98BF0123CE
:10519000A1F8BC30F0E4008940F2E73200BA010C1B
:1051A000914238BF020C42F64010C2F20000012AC0
:1051B00098BF0122A0F8A020DEE4407A42F6401118
:1051C000C2F2000181F88C00D6E442F64011C2F22E
:1051D000000191F83F20022A3FF4CEAC0123A1F850
:1051E0005B30A1F856300023002ACB837FF4C4AC97
:1051F000008991F8412000BA012A4FEA104241F09B
:10520000008202EB820048F63963A038C3F6E3035C
:1052100050FB03F35E10104606EBD37201F0FBB9AE
:1052200042F64011C2F2000191F88C20032A3FF6A9
:10523000A3ACDFE812F00400B7063D06890600893A
:1052400091F8412040BA012AA1F8CE000ED100EB1E
:10525000800048F63962A038C3F6E30250FB02F042
:10526000421002EBD07290B2A1F8CE20642801F275
:105270006E816420A1F8CE007EE442F64011C2F2B5
:10528000000191F88C20032A3FF676ACDFE812F09B
:105290000400A9062F067B06008940F2E73300BA16
:1052A000020C9A4238BF030C012B98BF0123A1F8CE
:1052B000D43061E4407A42F64011C2F2000181F834
:1052C0004E0059E40089C82200BA010CC82938BF31
:1052D000020C42F64010C2F20000052A98BF0522D7
:1052E000A0F89E20FFF748BC42F64011C2F2000130
:1052F00091F88C20032A3FF63FACDFE812F004005F
:105300009D0681068F060089C82300BA020CC82AB0
:1053100038BF030C052B98BF0523A1F8C230FFF757
:105320002BBC407A42F64011C2F2000181F84900DC
:10533000FFF722BC42F64011C2F2000191F83F2073
:10534000022A3FF419AC01230026032AA1F85B309E
:10535000A1F8583081F8256081F8473000F088873F
:10536000002A7FF409AC407A052898BF052081F80F
:105370002400FFF701BC008900BA000C022800F0ED
:105380009B84012800F08A8400287FF4F5AB42F664
:105390004010C2F20000012180F84D1080F840104A
:1053A0000021A0F84F10FFF7E7BB42F64011C2F210
:1053B000000191F84120002A00F0E083012A40F02A
:1053C000FE83008948F6396200BA000CA1F8AE00ED
:1053D00000EB8000A038C3F6E30250FB02F042105D
:1053E00002EBD07290B2A1F8962000F0EABB407AAE
:1053F00042F64011C2F2000181F84D00FFF7BCBB3C
:105400000089C82200BA010CC82938BF020C42F634
:105410004010C2F20000052A98BF0522A0F8A4207F
:10542000FFF7AABB008940F2E73200BA010C9142B3
:1054300038BF020C42F64010C2F20000012A98BFA9
:105440000122A0F8A620FFF797BB407A42F6401150
:10545000C2F2000181F84A00FFF78EBB42F640110C
:10546000C2F2000191F88C20032A3FF685ABDFE8F9
:1054700012F004000D06F105FF050089C82300BAEB
:10548000020CC82A38BF030C052B98BF0523A1F8CE
:10549000D230FFF771BB42F64011C2F2000191F821
:1054A0003F30022B3FF468AB01220026032BA1F80A
:1054B0005B20A1F8582081F8256000F0E186002BE0
:1054C0007FF45AAB407A052898BF0520C82828BF2A
:1054D000C82081F82400FFF74FBB417A42F6401004
:1054E000C2F20000002980F8501000F05A83012910
:1054F0007FF442ABB0F8BC10A0F89210012180F804
:105500004F10FFF739BB42F64010C2F2000090F88E
:105510003F1000297FF430AB19E1008901BA42F64F
:105520004010C2F2000090F84120090C002A418688
:1055300000F03C83012A7FF41FABD42928BFD4217B
:10554000212998BF212101EB8101A03989B24EF2B6
:105550008F325143C90C4186FFF70EBB008940F2E0
:10556000E73200BA010C914238BF020C42F64010FB
:10557000C2F20000012A98BF0122A0F89A20FFF78A
:10558000FBBA42F64010C2F2000090F83F1000292A
:105590007FF4F2AADBE00089C82200BA010CC82916
:1055A00038BF020C42F64010C2F20000052A98BF34
:1055B0000522A0F89820FFF7DFBA0089C82200BAB8
:1055C000010CC82938BF020C42F64010C2F200009C
:1055D000052A98BF0522A0F8AA20FFF7CDBA407A85
:1055E00042F64011C2F2000181F84300FFF7C4BA4D
:1055F00042F64011C2F2000191F84120002A00F069
:10560000FD82012A40F00D83008948F6396200BA14
:10561000000CA1F8B40000EB8000A038C3F6E30250
:1056200050FB02F0421002EBD07290B2A1F8A82019
:10563000F9E242F64014C2F2000494F83F10002947
:105640007FF49AAA407A012800F0698600287FF446
:1056500093AA40F2B310C2F2000001780131CAB23D
:105660000A2A0170FFF488AA40F2B211C2F20001C6
:105670000A78002A7FF480AA0022027001200870B4
:1056800042F6C020C2F200000221017094F84100ED
:1056900094F82430B4F88E100128A4F89E30A4F8B1
:1056A000A01001F00881002841F02281A38B43F271
:1056B000343103EBC300C3F23331A0FB010101F12C
:1056C0002000A4F89C30A4F8B00001F005B9407A9D
:1056D00042F64011C2F2000181F84C00FFF74CBACB
:1056E00042F64011C2F2000191F88C20032A3FF6E5
:1056F00043AADFE812F004001705D904F804008972
:1057000091F8412040BA012AA1F8B6000ED100EB71
:10571000800048F63962A038C3F6E30250FB02F07D
:10572000421002EBD07290B2A1F8B620642800F2C9
:1057300032876420A1F8B600FFF71EBA42F6401087
:10574000C2F2000090F83F1000297FF415AA90F8EB
:105750003C100022012980F8542000F08A810029A1
:105760007FF40AAA90F84E1002291CBF012180F88C
:105770003C10FFF701BA42F64014C2F2000494F85C
:105780003F1000297FF4F8A9407A012800F0F8853D
:1057900000287FF4F1A940F2B510C2F200000178B0
:1057A0000131CAB20A2A0170FFF4E6A940F2B4112D
:1057B000C2F200010A78002A7FF4DEA900220270FA
:1057C0000120087042F6C020C2F2000002210170E0
:1057D00094F8410094F82430B4F88E100128A4F80D
:1057E000A430A4F8A61001F08C80002841F0A68017
:1057F000A38B43F2343103EBC300C3F23331A0FB7C
:10580000010101F12000A4F8A230A4F8B20001F0D7
:1058100089B842F64011C2F2000191F88C20032AA7
:105820003FF6AAA9DFE812F00400F7049D04CA04B9
:105830000089C82300BA020CC82A38BF030C052B04
:1058400098BF0523A1F8CA30FFF796B942F6401178
:10585000C2F2000191F88C20032A3FF68DA9DFE8FF
:1058600012F00400E8048E04BB04008991F8412082
:1058700040BA012AA1F8C6000ED100EB800048F61C
:105880003962A038C3F6E30250FB02F0421002EB8B
:10589000D07290B2A1F8C620642800F2A0866420DD
:1058A000A1F8C600FFF768B9407A012800F0D88156
:1058B00000287FF461A942F64010C2F2000090F87F
:1058C0003F10032900F0F38500297FF455A9012139
:1058D000A0F85B10A0F8581090F8241000220529B9
:1058E00080F8252000F2B386052180F82410FFF708
:1058F00043B940F2B811C2F20001407A0B7842F687
:105900004012C2F20002834282F844003FF434A9FC
:1059100017E0407A42F64011C2F2000181F84100DE
:10592000FFF72AB940F2B911C2F20001407A0B78B0
:1059300042F64012C2F20002834282F845003FF470
:105940001BA9002382F8543082F83F300870FFF71B
:1059500013B942F64010C2F2000090F8550000283A
:105960003FF40AA90CF020FC42F64011C2F20001FB
:1059700091F83F20002A7FF4FFA80122A1F85B20C4
:10598000A1F856200022CA83407A012800F0298518
:1059900000287FF4F1A891F84100012800F07C86EE
:1059A00000287FF4E9A8888B421F6A2838BF642248
:1059B00090B2C00010FA82F000F024BD42F6401010
:1059C000C2F20000012180F85510FFF7D5B842F669
:1059D0004015C2F2000595F83F1000297FF4CCA8CD
:1059E000407A012800F01A8500287FF4C5A840F20B
:1059F000B710C2F2000001780131CAB20A2A017060
:105A0000FFF4BAA840F2B611C2F200010A78002AE7
:105A10007FF4B2A8002202700120087042F6C02074
:105A2000C2F200000221017095F8410095F824307F
:105A3000B5F88E1042F6C4240128C2F20004A5F87D
:105A4000AA30A5F8AC1000F08287002840F09987B2
:105A5000AB8B43F2343103EBC300C3F23331A0FB11
:105A6000010101F12000A5F8A830A5F8B40000F06C
:105A70007FBF8285FFF780B842F64010C2F2000077
:105A800090F83F10032900F0068500297FF474A8E0
:105A90000121A0F85B10A0F8581090F82410002203
:105AA000C32980F8252080F0F480053180F8241087
:105AB000FFF762B8B1F8B22043F23433008902EB49
:105AC000C202C3F23333A2FB032340BA03F1200224
:105AD000A1F8A200A1F8B22014E0B1F8B02043F27E
:105AE0003433008902EBC202C3F23333A2FB032337
:105AF00040BA03F12002A1F89C00A1F8B02020E0F8
:105B0000B1F8A200652801D2642004E0B0F5FA7F64
:105B100003D34FF4FA70A1F8A200B1F8B200D42870
:105B200004D8D420A1F8B200FFF726B8B0F5697FF9
:105B300024BF4FF46970A1F8B200FFF71DB8B1F8A7
:105B40009C00652801D2642004E0B0F5FA7F03D3FD
:105B50004FF4FA70A1F89C00B1F8B000D42804D832
:105B6000D420A1F8B000FFF707B8B0F5697F24BFD3
:105B70004FF46970A1F8B000FEF7FEBFB1F8AE2097
:105B800043F23433008902EBC202C3F23333A2FB87
:105B9000032340BA03F12002A1F89600A1F8AE2039
:105BA0000FE0002180F84F10FEF7E6BF002900F05B
:105BB000B283642924BF64214186FEF7DDBFB1F8BA
:105BC0009600652801D2642004E0B0F5FA7F03D383
:105BD0004FF4FA70A1F89600B1F8AE00D42804D8BA
:105BE000D420A1F8AE00FEF7C7BFB0F5697F24BF8F
:105BF0004FF46970A1F8AE00FEF7BEBFB1F8B42053
:105C000043F23433008902EBC202C3F23333A2FB06
:105C1000032340BA03F12002A1F8A800A1F8B420A0
:105C200001E0B1F8A800652801D2642004E0B0F5D5
:105C3000FA7F03D34FF4FA70A1F8A800B1F8B400CA
:105C4000D42804D8D420A1F8B400FEF795BFB0F54D
:105C5000697F24BF4FF46970A1F8B400FEF78CBFD0
:105C600042F64010C2F2000090F83F10032900F005
:105C70002B8400297EF480AF0121A0F85B10A0F8EE
:105C8000581090F824100022C82980F82520C0F070
:105C9000E384C82180F82410FEF76EBF42F640105E
:105CA000C2F20000012180F84010002180F84D1060
:105CB000A0F84F10FEF760BF42F64010C2F200009D
:105CC000022180F84010002180F84D10FEF754BFEB
:105CD0000089C82300BA020CC82A38BF030C052B60
:105CE00098BF0523A1F80831FEF746BF008940F2AE
:105CF000E73300BA020C9A4238BF030C012B98BF5D
:105D00000123A1F81231FEF737BF0089C82300BA7A
:105D1000020CC82A38BF030C052B98BF0523A1F835
:105D20002E31FEF729BF0089C82300BA020CC82A09
:105D300038BF030C052B98BF0523A1F8E230FEF70E
:105D40001BBF008991F8412040BA012AA1F80C013B
:105D50000ED100EB800048F63962A038C3F6E302AA
:105D600050FB02F0421002EBD07290B2A1F80C216D
:105D7000642800F2B6836420A1F80C01FEF7FCBE93
:105D8000008940F2E73300BA020C9A4238BF030C94
:105D9000012B98BF0123A1F83831FEF7EDBE008931
:105DA00040F2E73300BA020C9A4238BF030C012BD1
:105DB00098BF0123A1F8EC30FEF7DEBE008991F810
:105DC000412040BA012AA1F832010ED100EB800037
:105DD00048F63962A038C3F6E30250FB02F04210E5
:105DE00002EBD07290B2A1F83221642800F28283D3
:105DF0006420A1F83201FEF7BFBE008991F841206E
:105E000040BA012AA1F8E6000ED100EB800048F666
:105E10003962A038C3F6E30250FB02F0421002EBF5
:105E2000D07290B2A1F8E620642800F27583642055
:105E3000A1F8E600FEF7A0BE008940F2E73300BA01
:105E4000020C9A4238BF030C012B98BF0123A1F822
:105E50001A31FEF791BE008940F2E73300BA020C16
:105E60009A4238BF030C012B98BF0123A1F840319F
:105E7000FEF782BE008940F2E73300BA020C9A4274
:105E800038BF030C012B98BF0123A1F80A31FEF79C
:105E900073BE008940F2E73300BA020C9A4238BF61
:105EA000030C012B98BF0123A1F8F430FEF764BE68
:105EB000008991F8412040BA012AA1F81C010ED1B5
:105EC00000EB800048F63962A038C3F6E30250FBCD
:105ED00002F0421002EBD07290B2A1F81C216428AB
:105EE00000F223836420A1F81C01FEF745BE00895F
:105EF00040F2E73300BA020C9A4238BF030C012B80
:105F000098BF0123A1F82231FEF736BE008940F286
:105F1000E73300BA020C9A4238BF030C012B98BF3A
:105F20000123A1F83031FEF727BE008940F2E733A4
:105F300000BA020C9A4238BF030C012B98BF012310
:105F4000A1F8E430FEF718BE008991F8412040BA6C
:105F5000012AA1F842010ED100EB800048F6396217
:105F6000A038C3F6E30250FB02F0421002EBD072FD
:105F700090B2A1F84221642800F2E0826420A1F8E6
:105F80004201FEF7F9BD008940F2E73300BA020C86
:105F90009A4238BF030C012B98BF0123A1F8483166
:105FA000FEF7EABD008991F8412040BA012AA1F824
:105FB000F6000ED100EB800048F63962A038C3F637
:105FC000E30250FB02F0421002EBD07290B2A1F853
:105FD000F620642800F2C4826420A1F8F600FEF7DF
:105FE000CBBD008940F2E73300BA020C9A4238BFB9
:105FF000030C012B98BF0123A1F8FC30FEF7BCBDB8
:106000000089C82300BA020CC82A38BF030C052B2C
:1060100098BF0523A1F81031FEF7AEBD0089C82353
:1060200000BA020CC82A38BF030C052B98BF052301
:10603000A1F83631FEF7A0BD0089C82300BA020CD2
:10604000C82A38BF030C052B98BF0523A1F8EA30F6
:10605000FEF792BD0089C82300BA020CC82A38BFD7
:10606000030C052B98BF0523A1F82031FEF784BD52
:106070000089C82300BA020CC82A38BF030C052BBC
:1060800098BF0523A1F84631FEF776BD0089C823E5
:1060900000BA020CC82A38BF030C052B98BF052391
:1060A000A1F8FA30FEF768BD008991F8412040BAA6
:1060B000012AA1F804010ED100EB800048F63962F4
:1060C000A038C3F6E30250FB02F0421002EBD0729C
:1060D00090B2A1F80421642800F24B826420A1F858
:1060E0000401FEF749BD008991F8412040BA012A18
:1060F000A1F82A010ED100EB800048F63962A038E1
:10610000C3F6E30250FB02F0421002EBD07290B2F1
:10611000A1F82A21642800F235826420A1F82A011E
:10612000FEF72ABD008991F8412040BA012AA1F862
:10613000DE000ED100EB800048F63962A038C3F6CD
:10614000E30250FB02F0421002EBD07290B2A1F8D1
:10615000DE20642800F228826420A1F8DE00FEF729
:106160000BBD0089C82300BA020CC82A38BF030C33
:10617000052B98BF0523A1F81831FEF7FDBC008957
:1061800091F8412040BA012AA1F814010ED100EB88
:10619000800048F63962A038C3F6E30250FB02F0F3
:1061A000421002EBD07290B2A1F81421642800F2E0
:1061B00004826420A1F81401FEF7DEBC0089C82324
:1061C00000BA020CC82A38BF030C052B98BF052360
:1061D000A1F83E31FEF7D0BC008991F8412040BAC9
:1061E000012AA1F83A010ED100EB800048F639628D
:1061F000A038C3F6E30250FB02F0421002EBD0726B
:1062000090B2A1F83A21642800F2E0816420A1F85C
:106210003A01FEF7B1BC0089C82300BA020CC82AB3
:1062200038BF030C052B98BF0523A1F8F230FEF709
:10623000A3BC008991F8412040BA012AA1F8EE00E0
:106240000ED100EB800048F63962A038C3F6E302B5
:1062500050FB02F0421002EBD07290B2A1F8EE2097
:10626000642800F2C5816420A1F8EE00FEF784BC2A
:10627000407A012888BF034681F82630FEF77CBCAF
:10628000407A012888BF0246C82A28BFC82281F860
:106290002620FEF771BC91F84100012800F0F18141
:1062A00000287EF469AC888B4FF4FA72B0F5FA7F5F
:1062B00038BF421CA4E040F2B015C2F200052878B5
:1062C000002840F03F824FF00110C4F85600002033
:1062D000E08384F8250094F8410001210028A4F807
:1062E0005B1084F88D1000F00682012840F01382C4
:1062F000B4F8AE0048F63961608400EB8000A03845
:10630000C3F6E30150FB01F0411001EBD070A08314
:10631000A4F89600FFE100214186FEF72DBC40F273
:10632000B215C2F200052878002840F0388201201A
:10633000A4F85B004FF00110C4F856000020E08381
:1063400084F8250094F841000221002884F88D107B
:1063500000F0FE81012840F00B82B4F8B00048F64E
:106360003961608400EB8000A038C3F6E30150FB84
:1063700001F0411001EBD070A083A4F89C00F7E17C
:1063800040F2B415C2F200052878002840F03482AB
:106390000120A4F85B004FF00110C4F85600002063
:1063A000E08384F8250094F841000321002884F854
:1063B0008D1000F0FA81012840F00782B4F8B20095
:1063C00048F63961608400EB8000A038C3F6E30131
:1063D00050FB01F0411001EBD070A083A4F8A200A3
:1063E000F3E191F84100012800F06E8100287EF46D
:1063F000C3AB888B421DB0F5F77F88BF4FF4FA72AC
:1064000002EBC20043F23433C3F23333A0FB030385
:1064100003F120008A834884FEF7AEBB40F2B61435
:10642000C2F200042078002840F016820120A5F86E
:106430005B004FF00110C5F856000020E88385F896
:10644000250095F841000421002885F88D1000F002
:10645000DC81012840F0E981B5F8B40048F63961E3
:10646000688400EB8000A038C3F6E30150FB01F024
:10647000411001EBD070A883A5F8A800D5E190F8F1
:10648000261001220A29A0F85B2018D9053980F8C6
:106490002610FEF771BB90F826100122C329A0F840
:1064A0005B2019D2053180F82610FEF765BB90F805
:1064B000261001220529A0F85B2000F2D2800521D8
:1064C00080F82610FEF758BB90F826100122C82944
:1064D000A0F85B20C0F0CA80C82180F82610FEF723
:1064E0004BBBB0F5FA7F24BF4FF4FA70A1F80C0152
:1064F000FEF742BBB0F5FA7F24BF4FF4FA70A1F863
:106500003201FEF739BBB0F5FA7F24BF4FF4FA70C1
:10651000A1F8BE00FEF730BBB0F5FA7F24BF4FF400
:10652000FA70A1F8E600FEF727BBB0F5FA7F24BFAA
:106530004FF4FA70A1F81C01FEF71EBBB0F5FA7F0C
:1065400024BF4FF4FA70A1F84201FEF715BBB0F575
:10655000FA7F24BF4FF4FA70A1F8CE00FEF70CBB0F
:10656000B0F5FA7F24BF4FF4FA70A1F8F600FEF7F9
:1065700003BBB0F5FA7F24BF4FF4FA70A1F8040111
:10658000FEF7FABAB0F5FA7F24BF4FF4FA70A1F81B
:106590002A01FEF7F1BAB0F5FA7F24BF4FF4FA7082
:1065A000A1F8B600FEF7E8BAB0F5FA7F24BF4FF4C1
:1065B000FA70A1F8DE00FEF7DFBAB0F5FA7F24BF6B
:1065C0004FF4FA70A1F81401FEF7D6BAB0F5FA7FCD
:1065D00024BF4FF4FA70A1F83A01FEF7CDBAB0F536
:1065E000FA7F24BF4FF4FA70A1F8C600FEF7C4BAD0
:1065F000B0F5FA7F24BF4FF4FA70A1F8EE00FEF771
:10660000BBBA43F2343302EBC200C3F23333A0FB14
:10661000030303F120008A8392B2652A488401D2E1
:10662000642204E0B2F5FA7F02D34FF4FA728A834F
:1066300080B2D42803D8D4204884FEF79DBAB0F5A0
:10664000697F24BF4FF469704884FEF795BA013919
:1066500080F82410FEF790BA013180F82410FEF77C
:106660008BBA013980F82610FEF786BA013180F81E
:106670002610FEF781BA488CD422D42888BF421E47
:1066800010E0488C4FF46972B0F5697F38BF421C46
:106690004A8402EB82000AE0488CA0F12602FB2823
:1066A00038BFD42290B2800010FA82F04A8448F6B3
:1066B0003962A038C3F6E30250FB02F0420802EB55
:1066C000D0708883FEF758BA488C40F27D3300F1D1
:1066D0002602984288BF4FF4697202EB820048F6A6
:1066E0003963A038C3F6E303A0FB030358084A84C8
:1066F0008883FEF741BAB4F8960043F2343200EBD7
:10670000C001C3F23332A1FB0212A08302F12000C8
:106710006084A4F8AE0094F89800B4F89A1084F855
:10672000240042F6C420C2F200002185A4F88E1095
:106730000021D0F8046184F8541045F2540102227B
:106740000123B04740F2B1110020C2F2000158E02D
:10675000B4F89C0043F2343200EBC001C3F2333290
:10676000A1FB0212A08302F120006084A4F8B00013
:1067700094F89E00B4F8A01084F8240042F6C420D7
:10678000C2F200002185A4F88E100021D0F8046127
:1067900084F8541045F2540102220223B04740F21B
:1067A000B3110020C2F200012BE0B4F8A20043F2C2
:1067B000343200EBC001C3F23332A1FB0212A083DA
:1067C00002F120006084A4F8B20094F8A400B4F8A8
:1067D000A61084F8240042F6C420C2F200002185ED
:1067E000A4F88E100021D0F8046184F8541045F20A
:1067F000540102220323B04740F2B5110020C2F237
:10680000000128700870FEF7B7B9B5F8A80043F288
:10681000343200EBC001C3F23332A1FB0212A88371
:1068200002F120006884A5F8B40095F8AA00B5F834
:10683000AC1085F8240042F6C420C2F2000029857D
:10684000A5F88E100021D0F8046185F8541045F2A7
:10685000540102220423B04740F2B7110020C2F2D3
:10686000000120700870FEF787B9638C48F6396123
:1068700003EB8300A038C3F6E30150FB01F04108AD
:1068800001EBD070A4F8AE30A4F8960042F6C42014
:10689000C2F20000D0F8046145F215010222B047AF
:1068A000B4F8983042F6C420C2F20000D0F8046177
:1068B00045F216016AE0638C48F6396103EB830008
:1068C000A038C3F6E30150FB01F0410801EBD070A2
:1068D000A4F8B030A4F89C0042F6C420C2F2000034
:1068E000D0F8046145F218010222B047B4F89E3096
:1068F00042F6C420C2F20000D0F8046145F219014A
:1069000044E0638C48F6396103EB8300A038C3F69A
:10691000E30150FB01F0410801EBD070A4F8B23064
:10692000A4F8A20042F6C420C2F20000D0F804612C
:1069300045F21B010222B047B4F8A43042F6C4204D
:10694000C2F20000D0F8046145F21C011EE06B8C1D
:1069500048F6396103EB8300A038C3F6E30150FB2E
:1069600001F0410801EBD070A5F8B430A5F8A800FB
:10697000D4F80461204645F21E010222B047B5F862
:10698000AA30D4F80461204645F21F010222B04724
:1069900042F6EB30C2F2000001210170FEF7ECB8C4
:1069A00070470000F0B581B040F20200C2F2000072
:1069B000018842F64014013901800904C2F2000442
:1069C0000AD142F6AC41C2F200010A6862610022BB
:1069D0000A604FF47A71018040F2BA15C2F20005E4
:1069E0002878002840F0B7802078012840F0B38054
:1069F00042F20046C4F201066FF002003060F06817
:106A00000A2140F00700F060706B42F23E2761F30C
:106A100004007063B068C2F2000740F48000B06008
:106A2000002038803068800728D4388801303880CA
:106A3000388880084A281DD8306880071ED43888D6
:106A400001303880388880084A2813D83068800799
:106A500014D4388801303880388880084A2809D80A
:106A6000306880070AD43888013038803888B0F51B
:106A7000967FD7D3002038800EF0C8FAF06C102132
:106A8000C0F38D0060606FF002003060F06840F489
:106A9000E010F060706B61F304007063B06840F464
:106AA0008000B060002038803068800728D43888A3
:106AB00001303880388880084A281DD8306880071F
:106AC0001ED4388801303880388880084A2813D886
:106AD0003068800714D438880130388038888008BE
:106AE0004A2809D8306880070AD4388801303880AD
:106AF0003888B0F5967FD7D3002038800EF086FA1C
:106B0000F06C40F2EC51C2F2000108800888FDF7F9
:106B100034FE43F6E30244F63863CEF28E32C3F617
:106B2000C873FDF7E8FB4EF636224AF6F553C1F678
:106B30003B32CCF27103FDF737FBFDF758FE411EE7
:106B400089B23129A4F8940005D8606880087C28AF
:106B50009CBF0120287094F83F0002281CD140F20D
:106B60003000C2F20000018801390A0401801CD102
:106B7000228F4FF47A710180501E01B2B1F1FF3FB4
:106B8000208712DC002084F83F0042F6C020C2F2C9
:106B900000000221017008E040F23000E28EC2F2F3
:106BA00000004FF47A710180228794F85000A0B160
:106BB000012840F0E78142F20C20C2F20000027886
:106BC00094F88C10DAB1032900F26E81DFE801F04D
:106BD0000295466D94F84F1027E042F20C20C2F265
:106BE00000000021017040F21000C2F200004FF4DA
:106BF0007A72028084F84F10A4F89210C2E1012248
:106C00000329027000F25081DFE801F0027A2B5272
:106C100094F84F104A1ED2B2042A06D20FF2E8436B
:106C200053F822201288A4F89220032900F0F7805C
:106C3000022900F0BA80012940F0168194F8511021
:106C4000002940F0318194F84110012900F07C8145
:106C5000002940F02981B4F8B6201EE194F84F10C5
:106C60000CE094F84F104A1ED2B2042A06D20FF25A
:106C7000784353F822201288A4F89220032974D074
:106C8000022962D0012940F09E8094F85110002919
:106C900040F00A8194F84110012900F04081002958
:106CA00040F00281B4F80421F7E094F84F100CE0B2
:106CB00094F84F104A1ED2B2042A06D20FF218439B
:106CC00053F822201288A4F89220032900F099801A
:106CD00002295AD0012940F0AF8094F851100029C0
:106CE00040F0E28094F84110012900F0248100294D
:106CF00040F0DA80B4F82A21CFE094F84F100CE08D
:106D000094F84F104A1ED2B2042A06D20FF2E8338A
:106D100053F822201288A4F89220032900F09980C9
:106D2000022960D0012940F0AC8094F8511000296C
:106D300040F0BA8094F84110012900F00881002940
:106D400040F0B280B4F8DE20A7E094F8511000299A
:106D500040F0AA8094F84110012900F0D780002962
:106D600040F0A280B4F80C2197E094F8511000296B
:106D700040F09A8094F84110012900F0CA8000295F
:106D800040F09280B4F8142187E094F85110002963
:106D900040F08A8094F84110012900F0BD8000295C
:106DA00040F08280B4F8322177E094F85110002945
:106DB0007AD194F84110012900F0B480002973D1F0
:106DC000B4F8BE2069E004296ED194F8511000296E
:106DD0006AD194F84110012900F08C80002963D118
:106DE000B4F81C2159E094F8511000295CD194F8B2
:106DF0004110012900F09980002955D1B4F8E6200E
:106E00004BE094F8511000294ED194F8411001291B
:106E100000F08E80002947D1B4F83A213DE094F883
:106E20005110002940D194F84110012900F08680CA
:106E3000D1BBB4F8C62030E0042935D194F8511004
:106E400091BB94F84110012957D069BBB4F8422195
:106E500023E094F8511039BB94F84110012970D007
:106E600011BBB4F8EE2018E004291DD194F851109C
:106E7000D1B994F84110012942D0A9B9B4F8CE2073
:106E80000BE0042910D194F8511069B994F841101D
:106E9000012938D041B9B4F8F620A168A2F10A035B
:106EA000994268DD0A325AE040F21001C2F2000154
:106EB0000988090466D140F21001B4F89230C2F298
:106EC00000014FF47A720A80591E0AB2B2F1FF3FF4
:106ED000A4F8921056DC94F84F2000210170501C49
:106EE000C2B2052A84F84F0024BFA4F89210A4F877
:106EF0004F1047E0B4F81E212BE0B4F8442128E0FD
:106F0000B4F8D02025E0B4F8F82022E0B4F80E213F
:106F10001FE0B4F816211CE0B4F8342119E0B4F8ED
:106F2000062116E0B4F8C02013E0B4F8E82010E021
:106F3000B4F83C210DE0B4F82C210AE0B4F8C820E4
:106F400007E0B4F8F02004E0B4F8B82001E0B4F8A9
:106F5000E020A168A2F1120399420CDD12329142A5
:106F600009DA40F21002C2F20002118801391180E0
:106F7000090407D19FE740F21000C2F200004FF46D
:106F80007A71018094F85400002840F21200C2F295
:106F900000002BD094F83D10012908D1002184F87D
:106FA000541042F6C021C2F2000102220A70018888
:106FB00001390A04018020D1B4F8901001390AB2D5
:106FC000B2F1FF3FA4F890100CDCB4F88E1002224E
:106FD000A4F89010002184F8541042F6C021C2F2A7
:106FE00000010A704FF47A71018006E0B4F88E2037
:106FF0004FF47A710180A4F8902042F6B040C2F2BA
:1070000000000068804742F63C40C2F20000417B2D
:10701000012906D1017B002907BF022141730139F3
:107020000173017F00291CBF0139017742F66040DE
:10703000C2F20000417B012906D1017B002907BF74
:107040000221417301390173017F00291CBF0139FD
:10705000017742F68440C2F20000417B012906D14B
:10706000017B002907BF0221417301390173017FB0
:1070700000291CBF0139017742F6F430C2F200004A
:10708000417B012906D1017B002907BF0221417301
:1070900001390173017F00291CBF0139017742F6D4
:1070A0001840C2F20000417B012906D1017B002972
:1070B00007BF0221417301390173017F00291CBF01
:1070C0000139017742F6A840C2F20000016801319F
:1070D000016001B0F0BD00BF702A0020782A0020B6
:1070E000802A0020882A00204A2A0020522A0020D4
:1070F0005A2A0020622A0020242A00202C2A00205C
:10710000342A00203C2A0020FC290020042A0020E8
:107110000C2A0020142A002041F20000C4F20200D0
:10712000C16941F08051C16147F25001C4F20001D0
:107130000A7842F004020A70C16921F08051C161ED
:10714000016841F0010101600168890709D4016803
:1071500089075CBF01685FEA817102D40168890711
:10716000F2D5416821F00301416000BF416811F090
:107170000C0F0BD0416811F00C0F07D0416811F0D3
:107180000C0F03D0416811F00C0FEFD101684FF6DE
:10719000FF72CFF6F262114001600021416041F6BA
:1071A0001071C1624FF4801101634FF41F018160BF
:1071B0004EF60850CEF200004FF0006101607047BB
:1071C0002DE9F04F81B040F2100BC4F2000BDBF858
:1071D0000000C00700F0F08142F64017C2F200073D
:1071E0003878012840F0CD8140F2AC00C2F20000B6
:1071F000007842F210260128C2F2000617D1B468C6
:107200004EF20005C4F2AB6520462946FDF752FA5E
:10721000002804BFB5602C46D6F804804FF08041AA
:1072200040464FF08045FDF745FA40B109E04EF287
:1072300000040025C4F2AB64C4F2C005B460A846E3
:10724000756040F2B005C2F20005B5F800A042F644
:10725000E06082450AD3D7E95E014FF0000A0130B1
:1072600041F10001A5F800A0C7E95E0197F84000D0
:10727000022814D0012840F07E8197F84D000028A4
:1072800066D0012840F0838097F83F00022800F084
:107290007180002840F07B80B88B323072E097F824
:1072A0005110B88B40F2B402C2F2000200291080E3
:1072B00040F0618197F85000002850D0012840F03C
:1072C0005A8140F2B200C2F20000027897F84F10E3
:1072D0008A4206D0017000203062F0617061306136
:1072E000F06097F85300002800F045810020C4F2B8
:1072F0007A4049F69A114EF20008C3F69971C4F229
:10730000AB6886E803010BF0A3FC97F88C1078605B
:10731000032900F2848197F93B20104497F93A2021
:10732000A0EB0209DFE811F004006B0151015E01DE
:1073300097F84F000138042800F27181DFE810F05F
:107340000500920183018C016C01B7F8B6408BE116
:1073500097F83F00022812D0C8B9B88B12E00BF0A2
:1073600077FC786000203062F06170613061F0601D
:10737000386600E1B88B798E0844323002E0B88B71
:10738000798E084440F2B401C2F20001088097F8F7
:107390003D0090B197F84A1079B1012808BF012942
:1073A00040F0DB800BF054FC7860002038663062DF
:1073B000F06170613061F060CFE097F85300002811
:1073C00000F0CB800BF044FC97F93B1097F93A2082
:1073D00078600844A0EB020940F2AA00C2F2000063
:1073E000018840F2B400C2F20000BD8B0088A942BF
:1073F00006B20ED000F052FD42F2102187F83B0099
:107400000020C2F20001C86140F2AA00C2F20000EE
:1074100005800FFA89F906F164014945A6F1640077
:1074200052DB484550DC701D48456EDB701F4845F7
:107430006BDC40F2AE00C2F20000018801318AB27A
:107440003C2A01806CD30021018040F2AC01012074
:10745000C2F2000108700021CCF2FA4120460096E9
:10746000FDF774F84EF20001C4F2AB610446FDF77B
:10747000F7F842F210250028C2F2000540461CBF72
:107480004EF20004C4F2AB64AC60FDF7E8F949F6D3
:107490009A1249F69913C9F69912CBF6B973FCF70B
:1074A00083FE00224FF08043044688464FF0804A16
:1074B000FDF729F9002800F0848020464146FDF7B9
:1074C000E1F9009E68602BE049450BDA40F2B0011B
:1074D0000AF10100C2F2000142F210260880C2F255
:1074E000000638E048456ADD47F60070C4F23B709C
:1074F00040F2B00138660AF10100C2F2000142F226
:1075000010260880C2F2000627E040F2AC010020FD
:10751000C2F20001087040F2AE01C2F20001088020
:107520003046FDF70BF904464846FDF707F90146DA
:107530002046FDF705FA40F2B002C2F200021188BF
:1075400038660131118042F210260021C2F2000695
:10755000FDF7B0F808B90020386697F83F00032817
:1075600009D10BF075FB7860002038663062F0615D
:1075700070613061F06097F83E0000281CBF002069
:1075800038663C6E002120460025FDF769F810B9E9
:1075900097F8550008B100243D662046FDF713F921
:1075A000CBF824004FF08040016841F001010160F8
:1075B0006FF00100CBF8000001B0BDE8F08F386E2D
:1075C000C1E7009EC5F804A0AAE797F84F0001386C
:1075D000042824D8DFE800F0032B31252000B7F879
:1075E000044141E097F84F000138042817D8DFE83C
:1075F00000F00327301B1300B7F82A4134E097F856
:107600004F00013804280AD8DFE800F003202914CD
:107610000600B7F8DE4027E00020A7F84F00386EDC
:1076200037E0B7F81C411FE0B7F842411CE0B7F85B
:107630000C4119E0B7F8F64016E0B7F8144113E032
:10764000B7F8324110E0B7F8C6400DE0B7F8E640B1
:107650000AE0B7F83A4107E0B7F8CE4004E0B7F8DF
:10766000EE4001E0B7F8BE40204600F017FC87F876
:107670003B002046FDF76BF804460FFA89F0FDF752
:107680005DF801462046FDF75BF92988386601312F
:10769000298000210024FDF70DF8002808BF3C6672
:1076A000C6F8088067E7000040F21040C4F200000E
:1076B0000168890744BF50F8041C5FEA817100D457
:1076C000704742F6AC41C2F200010A6801320A601A
:1076D0006FF002010160704710B544F60040C4F23B
:1076E00000000168C168890644BF01685FEA8161E2
:1076F00007D4C168490644BF01685FEA416123D4E9
:1077000010BD0168416842F6F431C2F20001D0F8C0
:1077100004C0B1F800E08A880EF10103B3FBF2F473
:1077200004FB12324B889A420AD08A6802F80EC0D3
:107730000A888B880132B2FBF3F404FB13220A801F
:107740004FF482728A81D4E76FF04001016042F603
:10775000F431C2F200010B8A4A8A934202D100201E
:10776000487710BD8B8A541CB4FBF3FCD1F818E0A9
:107770000CFB13431EF802204B82426010BD000038
:1077800010B545F20000C4F200000168C168890626
:1077900044BF01685FEA816107D4C168490644BFFC
:1077A00001685FEA416123D410BD0168416842F677
:1077B0001841C2F20001D0F804C0B1F800E08A8894
:1077C0000EF10103B3FBF2F404FB12324B889A4230
:1077D0000AD08A6802F80EC00A888B880132B2FB90
:1077E000F3F404FB13220A804FF482728A81D4E7F7
:1077F0006FF04001016042F61841C2F200010B8AAD
:107800004A8A934202D10020487710BD8B8A541CCB
:10781000B4FBF3FCD1F818E00CFB13431EF8022074
:107820004B82426010BD000010B543F60000C4F268
:1078300001000168C168890644BF01685FEA81618F
:1078400007D4C168490644BF01685FEA416121D499
:1078500010BD42F63C41C2F20001D0F804C0B1F8BC
:1078600000E08A880EF10103B3FBF2F404FB12324C
:107870004B889A420AD08A6802F80EC00A888B8820
:107880000132B2FBF3F404FB13220A804FF482723C
:107890008A81D6E76FF04001016042F63C41C2F2B6
:1078A00000010B8A4A8A934202D10020487710BD1A
:1078B0008B8A541CB4FBF3FCD1F818E00CFB134387
:1078C0001EF802204B82426010BD000010B544F249
:1078D0000040C4F200000168C168890644BF016825
:1078E0005FEA816107D4C168490644BF01685FEA65
:1078F000416121D410BD42F66041C2F20001D0F8CE
:1079000004C0B1F800E08A880EF10103B3FBF2F481
:1079100004FB12324B889A420AD08A6802F80EC0E1
:107920000A888B880132B2FBF3F404FB13220A802D
:107930004FF482728A81D6E76FF04001016042F60F
:107940006041C2F200010B8A4A8A934202D10020B0
:10795000487710BD8B8A541CB4FBF3FCD1F818E0B7
:107960000CFB13431EF802204B82426010BD000046
:1079700010B544F60000C4F200000168C168890631
:1079800044BF01685FEA816107D4C168490644BF0A
:1079900001685FEA416123D410BD0168416842F685
:1079A0008441C2F20001D0F804C0B1F800E08A8836
:1079B0000EF10103B3FBF2F404FB12324B889A423E
:1079C0000AD08A6802F80EC00A888B880132B2FB9E
:1079D000F3F404FB13220A804FF482728A81D4E705
:1079E0006FF04001016042F68441C2F200010B8A4F
:1079F0004A8A934202D10020487710BD8B8A541CDA
:107A0000B4FBF3FCD1F818E00CFB13431EF8022082
:107A10004B82426010BD0000FEE70000B0B54AF2A4
:107A20005A5CA0F882C0033242F6844C80F884206D
:107A30008222C2F2000C80F885200A0ABCF810E00D
:107A400080F88620BCF814200EF10104B4FBF2F596
:107A500080F8871005FB1241BCF812401A0AA142B7
:107A600080F8882080F8893000F0DF8090F882105C
:107A7000DCF8182002F80E10BCF81010BCF8142026
:107A80000131B1FBF2F303FB12114B1CB3FBF2F516
:107A9000ACF8101005FB1232BCF812309A4200F01C
:107AA000C48090F88320DCF818305A54BCF81010C9
:107AB000BCF814200131B1FBF2F303FB12114B1C93
:107AC000B3FBF2F5ACF8101005FB1232BCF8123023
:107AD0009A4200F0AA8090F88420DCF818305A54BA
:107AE000BCF81010BCF814200131B1FBF2F303FB19
:107AF00012114B1CB3FBF2F5ACF8101005FB12325F
:107B0000BCF812309A4200F0908090F88520DCF8A2
:107B100018305A54BCF81010BCF814200131B1FBD5
:107B2000F2F303FB12114B1CB3FBF2F5ACF810108F
:107B300005FB1232BCF812309A4276D090F88620BB
:107B4000DCF818305A54BCF81010BCF8142001317D
:107B5000B1FBF2F303FB12114B1CB3FBF2F5ACF8D3
:107B6000101005FB1232BCF812309A425DD090F82A
:107B70008720DCF818305A54BCF81010BCF81420D8
:107B80000131B1FBF2F303FB12114B1CB3FBF2F515
:107B9000ACF8101005FB1232BCF812309A4244D0F7
:107BA00090F88820DCF818305A54BCF81010BCF853
:107BB00014200131B1FBF2F303FB12114B1CB3FB98
:107BC000F2F5ACF8101005FB1232BCF812309A42F4
:107BD0002BD090F88900DCF818205054BCF8101015
:107BE000BCF814000131B1FBF0F29CF81D3002FB2F
:107BF0001012012BACF8102008BFB0BDBCF8121059
:107C000092B2914201D1002009E04A1CB2FBF0F38C
:107C1000DCF8185003FB1022685CACF81220DCF88A
:107C20002010486001208CF81D00B0BD4EF60C50AD
:107C3000BFF34F8FCEF200000168042201F4E0612F
:107C4000C0F2FA5211430160BFF34F8F00BF00BF73
:107C500000BF00BFFAE7000040F61440C4F2010084
:107C60004FF480510160704740F61040C4F20100AB
:107C70004FF4805101607047B0B542F64014C2F233
:107C8000000494F8550018B1BDE8B040FFF7E4BF18
:107C90002078012838D194F84200012816D140F20A
:107CA000A805C2F200052878DFE800F00366395124
:107CB0002F0042F6C020C2F200000078022860D0F7
:107CC000012814BF00200120287007E0FFF7C4FF3F
:107CD00042F6C020C2F200000021017094F83E007C
:107CE00090B140F2EE50C2F2000001780131CAB208
:107CF000502A017038BFB0BD0021017042F6C0208B
:107D0000C2F2000002210170B0BDFFF7A5FF42F6EC
:107D1000C020C2F20000002101702970DEE7FFF7E9
:107D2000A3FF40F2A000C2F20000D0E9001201312E
:107D300042F10002B1F1140372F10003C0E9001234
:107D4000CCD3042129700021C0E90011C6E740F21C
:107D5000A000C2F20000D0E90012013142F100029D
:107D60008B1E72F10003C0E90012B7D30021C0E9F5
:107D7000001104202870B1E7FFF776FF0320287078
:107D8000ACE702202870A9E7F0B541F20401C4F283
:107D900002010A68C2F3810341F20022022BC0F201
:107DA0007A020CD0002B46D10B6D9B0543D5CB6AD4
:107DB0009B0144BF46F60042C0F2DC223BE00B6868
:107DC0008C6A1F0C002C1DD40C680B68C4F3834410
:107DD000C3F341731D016E1C0F2C354618BF0225DD
:107DE000002B18BF3546FB0705EB040304D00F68D2
:107DF000BF0301D45A431EE040F60012C0F23D0218
:107E00005A4318E08B6A8C6AC3F3031E8B6A40F6F0
:107E1000001CC0F23D0CC4F30824FD0703F0070367
:107E200003D00D68AD0358BF94460CFB04F20EFA64
:107E300003F3B2FBF3F202600B6812A7C3F3031360
:107E4000FB5C45F2D227DA4042600B68C0F60107BE
:107E5000C3F30223FB5C22FA03F3C3600B68C3F392
:107E6000C223FB5C0427DA4082600B68096807EADA
:107E70009363C1F38131194406A3595CB2FBF1F15C
:107E80000161F0BD000000000000000001020304D9
:107E90000607080902040608020C081082B0002236
:107EA00065288DF80720ADF804208DF80320C0F078
:107EB0008C8042F64011C2F2000191F824101F2973
:107EC00028D3820800214A2A8DF8031050D8642252
:107ED000ADF804208DF807109DF8071013296DD810
:107EE00045F2DA21C0F60101BDF804209DF8033007
:107EF0001A44824266D2BDF804200A32ADF804204A
:107F00009DF8072001328DF807209DF80720142ADC
:107F1000EAD357E00139132957D881084A298DF847
:107F2000032055D86421ADF804108DF807209DF882
:107F30000710132949D845F20331C0F6010100BFEB
:107F4000BDF804209DF803301A4482423AD2BDF8AD
:107F500004200A32ADF804209DF8072001328DF884
:107F600007209DF80720142A4FF00002E8D32CE0E8
:107F70004FF49671ADF8041014218DF807109DF898
:107F8000071027291AD845F2DA21C0F6010100BFEF
:107F9000BDF804209DF803301A44824212D2BDF885
:107FA00004200A32ADF804209DF8072001328DF834
:107FB00007209DF80720282AEAD303E045F2DA21BA
:107FC000C0F601019DF807000A5C50B202B070478C
:107FD0004FF49671ADF8041014218DF807109DF838
:107FE000071027291AD845F20331C0F6010100BF56
:107FF000BDF804209DF803301A448242E2D2BDF855
:1080000004200A32ADF804209DF8072001328DF8D3
:1080100007209DF80720282AEAD3D3E745F2033149
:10802000C0F60101CEE700002DE9F04F8DB042F619
:108030004019C2F2000999F8000001281CBF0DB0D8
:10804000BDE8F08F40F2B70BC2F2000B9BF80000C6
:1080500042F6C42A0928C2F2000A02F25982DFE875
:1080600010F00A00D1012F0169014C00F701400214
:10807000A9013503D60042F6E237C2F2000738788C
:10808000DFE810F009002C06FA050506BD053706E5
:1080900042061B06550642F25020C2F2000002784A
:1080A00099F84E108A4241F0B88040F23900C2F28D
:1080B0000000037899F83D108B4241F0498242F26A
:1080C0005120C2F20000017899F85620914241F007
:1080D000ED86B9F81E20B9F81C00824241F0B48741
:1080E00031B1B9F82020B9F822309A4241F0AF8777
:1080F000002941F03B8202F0BFB842F6E635C2F2F9
:1081000000052878DFE810F0100089076507770779
:108110004A079D07B4078007E0075C07BD073707DC
:108120005307A6072E076E0740F20E00C2F20000AA
:10813000037899F8401099F852208B4242F20A23B2
:10814000C2F2000341F0D3811F78974241F0CF8102
:1081500040F20D00C2F20000027899F841108A4204
:1081600041F0788640F20B00C2F20000027899F8E4
:1081700042108A4241F01F8740F20C00C2F2000018
:10818000027899F843108A4242F0738040F20A0064
:10819000C2F20000027899F84A108A4242F0E48064
:1081A00040F20800C2F20000027899F844108A42B6
:1081B00042F0538140F20900C2F20000027899F8BF
:1081C00045104B468A4242F0528140F20600C2F20C
:1081D0000000027893F846108A4242F04B8142F246
:1081E0000B20C2F20000027893F84C108A4242F051
:1081F000448140F20700C2F20000027893F84D106B
:108200008A421ABF01700126002602F038B999F897
:108210004E001A2841F0A78042F6D535C2F200057B
:1082200028780026DFE810F00C009E086F08590837
:1082300024087F089E0887089E0864083F084A08AB
:1082400042F24921C2F200010A7842F2482040F28B
:108250003207C2F200000132C2F2000703780A704E
:10826000397899F850600133B142037041F0B1831D
:1082700040F23307C2F200073C7899F84F60B442ED
:1082800041F0508642F24427C2F200073C88B9F917
:108290009260B44241F0E487DBB20A2BC2F0458021
:1082A00042F24222C2F200021788D9F808300021B7
:1082B0000026BB421CBF13800526017001F052B896
:1082C00042F6E335C2F200052878DFE810F0050039
:1082D0007E02590273024E0242F25620C2F20000A0
:1082E000027899F84E108A4240F03C8542F25720BD
:1082F000C2F20000027899F83F108A4240F092875B
:1083000042F25521C2F200010A7899F854008242E3
:1083100041F0FC82B9F82A10002801F00986B9F969
:108320009000814201F0798380B2A9F82A000226E8
:1083300001F074BB42F6D636C2F20006307830281F
:1083400001F24485DFE810F03100600C380C480C75
:10835000E80B890CA60C530CC10C110CB40CDD0BF2
:10836000020C990CCA0B430CB80B7A0CAF0CF60C30
:10837000840C940CE10C0B0D290C1C0C2D0DA60B80
:10838000130D200DCC0C6D0CD10CCF0BAB0B910B46
:10839000960B7F0B280DEE0CF50B7F0C030D710B6C
:1083A000C50BD90C350D8C0BD40B05F0B5F8054673
:1083B00001F04BBF99F84E0042F6DA361A28C2F2A5
:1083C000000600F0AC81022841F03E85307801289B
:1083D00000F02084002841F03785D9F8047099F91D
:1083E0003B0099F84D1099F93A2038440129A0EB47
:1083F000020000F0BB87002901F006850020002262
:1084000001F003BD99F84E001A2800F23D830121C6
:1084100006228140C0F20042114200F0358399F8F3
:108420003C10002900F09681012940F02D8399F835
:108430003D1029B942F6E432C2F200020123137062
:1084400099F83F20032A40F0068399F8261019E393
:1084500042F6D435C2F2000529780220DFE811F097
:108460000F00CA0E1A052905F60444055E053805F5
:1084700076050E056A05D00402055205A90440F2EE
:108480000400C2F20000027899F88D108A4241F08F
:108490002A80501E032801F29286DFE810F00400C3
:1084A000780E3B0E5F0EB9F81C00B9F896108842A2
:1084B00041F08786B9F82200B9F8AE10884241F041
:1084C000808699F82400B9F89810814241F07986A5
:1084D000B9F82800B9F89A10884241F0728601F084
:1084E0006EBE42F6EA35C2F2000529780120DFE8C7
:1084F00011F00600B40177017F01D301D20199F890
:108500004000012803D0022842F028811A2042F6B8
:108510008441C2F200010B8A8A8A5F1CB7FBF2F623
:1085200006FB12774E8A40F28802C2F20002B7427E
:10853000507202F0118117788E69F7540B8A8F8A76
:108540000133B3FBF7F606FB17335E1CB6FBF7F4FB
:108550000B8204FB17674E8AB74202F0FD80577802
:108560008E69F7540B8A8F8A0133B3FBF7F606FB4B
:1085700017335E1CB6FBF7F40B8204FB17674E8AB9
:10858000B74202F0E98097788E69F7540B8A8F8A98
:108590000133B3FBF7F606FB17335E1CB6FBF7F4AB
:1085A0000B8204FB17674E8AB74202F0D580D7785A
:1085B0008E69F7540B8A8F8A0133B3FBF7F606FBFB
:1085C00017335E1CB6FBF7F40B8204FB17674E8A69
:1085D000B74202F0C18017798E69F7540B8A8F8AEF
:1085E0000133B3FBF7F606FB17335E1CB6FBF7F45B
:1085F0000B8204FB17674E8AB74202F0AD805779B1
:108600008E69F7540B8A8F8A0133B3FBF7F606FBAA
:1086100017335E1CB6FBF7F40B8204FB17674E8A18
:10862000B74202F0998097798E69F7540B8A8F8A46
:108630000133B3FBF7F606FB17335E1CB6FBF7F40A
:108640000B8204FB17674E8AB74202F08580D77908
:108650008E69F7540B8A8F8A0133B3FBF7F606FB5A
:1086600017335E1CB6FBF7F40B8204FB17674E8AC8
:10867000B74202F07180177A8E69F7540B8A8F8A9D
:108680000133B3FBF7F606FB17335E1CB6FBF7F4BA
:108690000B8204FB17674E8AB74202F05D80527A64
:1086A0008F69FA540B8A8A8A0133B3FBF2F74E7F43
:1086B00007FB1237012E0F8202F04E804B8ABFB2A9
:1086C000BB4242F03D80002202F042B842F6DB3667
:1086D000C2F200063078DFE810F008006F024E02A8
:1086E00059023F02770283026402544642F24F2A43
:1086F000C2F2000A9AF8000099F84D20471CD9F8F8
:10870000040099F93B10012A8AF8007040F0EA84CD
:1087100099F93A200844801A323800F0E7BC3078E2
:10872000012800F08682002841F08E83D9F80400E9
:1087300099F93B1099F93A200844801A652838BF06
:10874000642040F2140100BAC2F20001000C8881DA
:1087500001F061BB99F824100022C9F8181042F604
:10876000E431C2F200010A708EE199F84E0001284E
:1087700000F02B83022841F0508145F2120126E3DC
:1087800099F84E00022800F02983012841F0458124
:1087900099F83F00DAF8047102280CBFB9F83830B4
:1087A000B9F8903042F6C420C2F2000045F2080148
:1087B00001F031B999F84E00012800F02F8302280A
:1087C00040F0748346F203112AE399F84E00012821
:1087D00000F03083022840F0788346F203112BE347
:1087E000DAF8047199F85230504645F23C0109E03C
:1087F00042F6EB30C2F20000DAF80471037850461A
:1088000045F249010222B847012199F84E0029702A
:108810000E2841F0618699F83F0099F84D10022822
:1088200018BF012941F06F8642F6E732C2F200021A
:108830001378002B41F067860123137042F6E8326B
:10884000C2F20002117042F6E931C2F20001087072
:10885000002089F83F0001F054BE99F8520000282A
:1088600000F0BD8442F25E2099F84E10C2F2000082
:108870000288142904BF0132028092B2012A08D072
:10888000142902D1B2F5C87FBED30021018089F836
:1088900052100221B9E71A2042F68441C2F20001C7
:1088A0000B8A8A8A5F1CB7FBF2F606FB12774E8AA8
:1088B00040F28802C2F20002B742507201F008860C
:1088C00017788E69F7540B8A8F8A0133B3FBF7F65A
:1088D00006FB17335E1CB6FBF7F40B8204FB17672D
:1088E0004E8AB74201F0F48557788E69F7540B8AA7
:1088F0008F8A0133B3FBF7F606FB17335E1CB6FB1A
:10890000F7F40B8204FB17674E8AB74201F0E0854B
:1089100097788E69F7540B8A8F8A0133B3FBF7F689
:1089200006FB17335E1CB6FBF7F40B8204FB1767DC
:108930004E8AB74201F0CC85D7788E69F7540B8AFE
:108940008F8A0133B3FBF7F606FB17335E1CB6FBC9
:10895000F7F40B8204FB17674E8AB74201F0B88523
:1089600017798E69F7540B8A8F8A0133B3FBF7F6B8
:1089700006FB17335E1CB6FBF7F40B8204FB17678C
:108980004E8AB74201F0A48557798E69F7540B8A55
:108990008F8A0133B3FBF7F606FB17335E1CB6FB79
:1089A000F7F40B8204FB17674E8AB74201F09085FB
:1089B00097798E69F7540B8A8F8A0133B3FBF7F6E8
:1089C00006FB17335E1CB6FBF7F40B8204FB17673C
:1089D0004E8AB74201F07C85D7798E69F7540B8AAD
:1089E0008F8A0133B3FBF7F606FB17335E1CB6FB29
:1089F000F7F40B8204FB17674E8AB74201F06885D3
:108A0000177A8E69F7540B8A8F8A0133B3FBF7F616
:108A100006FB17335E1CB6FBF7F40B8204FB1767EB
:108A20004E8AB74201F05485527A8F69FA540B8A04
:108A30008A8A0133B3FBF2F74E7F07FB1237012E10
:108A40000F8201F045854B8ABFB2BB4241F03485AD
:108A5000002201F039BD12F0FD0F15D101290FD10F
:108A600099F84A1001290BD142F6E431C2F2000113
:108A70000978012904D199F85810002901F0F583EB
:108A800099F82410C9F8181042F6E535C2F200052D
:108A90002978DFE801F004472C35214F580042F2D5
:108AA0005A21C2F200010A78824240F06D8199F8A1
:108AB0003F10032900F03087002940F0AE8742F2D2
:108AC0005821C2F200010A78012A41F0F681002003
:108AD0000870042600F0A2BFDAF80471504645F28F
:108AE000040102220023B847052600F097BF0128A1
:108AF00000F0A283022840F0B98346F2F3019DE31F
:108B0000022800F0A283012840F08787DAF8047178
:108B1000B9F81830504645F20E010222B847062631
:108B200000F07CBFDAF80471504645F204010222DD
:108B3000012387E1012800F09083022840F096830A
:108B400046F2F3018BE3DAF80471B9F818305046B5
:108B500045F20C0100F05FBF99F83F0000250028A6
:108B600000F0CB84032800F0C784022841F06D8315
:108B7000012500F0C2BCDAF80471504645F2050147
:108B8000022200230025B84701F05FBB99F83C00A2
:108B9000DAF80471B0FA80F04309504645F2020158
:108BA00019E042F22C30C2F20000DAF804710378C6
:108BB000504645F20A010EE0DAF80471504645F2DB
:108BC00005010222012307E0DAF8047199F83E302A
:108BD00050464FF4A0410222B847002501F035BBB2
:108BE00042F22C30C2F20000DAF8047103785046E9
:108BF00045F209010222B847072501F026BBDAF841
:108C00000461504645F2030102220023B0470525C6
:108C100000F0ADBC99F83C0020B1012841F014816E
:108C2000D9F8180040F22201C2F20001487301F0A5
:108C300007B999F85000002800F0DC83012841F0C2
:108C4000038199F88C00032801F2FE80DFE810F020
:108C50000400ED09CF09DE0999F84F000138032817
:108C600001F2F280DFE810F00400ED0BD80BE40B0A
:108C700099F8BA4001F0DFB899F84E00012800F0E9
:108C8000C283022840F02B8446F2C301BDE399F869
:108C90004E00022800F0C283012872D142F6E03073
:108CA000C2F20000DAF804610388504645F2070179
:108CB0000222B047072500F05ABC99F8410001286C
:108CC00000F0B483002840F0518449F6991549F624
:108CD0009A16C3F6D975C9F69916AFE3DAF80461A6
:108CE000504645F20301022201230225B04700F05D
:108CF0003EBC99F84E00012800F0B483022840F0F1
:108D0000F08346F2C301AFE399F84E00022800F069
:108D1000B483012835D1DAF80461B9F80830504637
:108D200045F207010222B047082500F020BC99F85F
:108D30004100002800F0AB83012840F01784D9F8E7
:108D40000800DAF80441B0F5697F80F2BE83FBF7D2
:108D500003FD47F6E1224EF24713CAF61462C3F64A
:108D6000CA73A5E399F8543099F83F200126002BE7
:108D700008BF03260127022A08BF3E46017000F003
:108D80004DBE002500F0F5BB421E012A01F2C58050
:108D900099F83F20032A01F0B480002A41F0BD80F9
:108DA0000122A9F8582042F25B22C2F2000201F02F
:108DB000B2B899F88D30DAF80471504645F2540192
:108DC0000222B847002001F015BA45F20801DAF88E
:108DD0000471B9F82830504600F01DBE99F83F00E4
:108DE000DAF8047102280CBFB9F83830B9F89030BD
:108DF00042F6C420C2F2000045F2120100F00BBEA0
:108E000099F84100012800F0A685002840F0BC85B3
:108E1000DAF80471B9F8A83000F0A1BD46F23301C8
:108E2000DAF80471504602224FF6FF73B847042661
:108E300000F0F4BD46F23301DAF804715046022224
:108E400044F250730226B84700F0E8BDDAF8047126
:108E5000B9F89A30504645F217010222B84705206A
:108E600001F0C8B9DAF80471B9F8AA30504645F2F1
:108E70001F010222B8470D2001F0BCB9DAF80471D5
:108E8000B9F8A430504645F21C010222B8470A2026
:108E900001F0B0B999F84100002800F06885012878
:108EA00040F08E8509F1AE0000F063BD042600F0AD
:108EB000B5BDDAF80471B9F89830504645F216019C
:108EC0000222B847042001F095B9022600F0A6BDA1
:108ED000DAF80471B9F8A030504645F21A010222BE
:108EE000B847082001F086B999F84100012800F040
:108EF0004E85002840F06785DAF80471B9F89C3097
:108F000000F049BDDAF80471B9F8AC30504645F2CA
:108F100020010222B8470E2001F06CB9DAF8047182
:108F2000B9F89E30504645F219010222B847072091
:108F300001F060B9DAF80471B9F8A630504645F28C
:108F40001D010222B8470B2001F054B999F84100E5
:108F5000002800F02885012840F0388509F1B2008A
:108F600000F023BDDAF80471B9F83630504645F206
:108F7000340100F050BD42F26020C2F2000040F225
:108F800040010078C2F20001002688710220092207
:108F9000A1F807600BF0E6FF00F040BDDAF80471BD
:108FA00099F84330504645F2300100F034BDDAF80C
:108FB000047199F84C30504645F2380100F02BBD51
:108FC000DAF8047199F84A30504645F2450100F04C
:108FD00022BDDAF8047199F84130504645F22E016D
:108FE00000F019BDDAF8047199F84D30504645F299
:108FF0003E0100F010BDDAF8047199F84230504695
:1090000045F22F0100F007BDDAF8047199F84630F7
:10901000504645F2320100F0FEBC99F8400099F844
:109020004D10012808BF012900F0D684012808BF8F
:10903000002900F03187022840F03687022300F033
:109040002CBFDAF8047199F84430504645F23101EA
:1090500000F0E1BC99F84100012800F0BF8400282D
:1090600040F0E184DAF80471B9F8323000F0C5BCA0
:10907000DAF8047199F84530504645F2440100F0A1
:10908000CABC42F6F230C2F20000007840F295010C
:1090900042F6F032002818BF0520C2F20001C2F2E9
:1090A00000021278087242F6EE30C2F20000002A86
:1090B00018BF04220078CA718871022009220BF0BF
:1090C00051FF0B2600F0AABC99F84100012800F0DE
:1090D0009B84002840F0A184DAF80471B9F81C30B0
:1090E00000F096BC99F93A200844801A99F840108B
:1090F000012913D199F83F10032909D099F83D109F
:10910000002900F0AA8699F84A10002900F0A586E7
:10911000002042F22C31C2F20001087040F2370008
:10912000C2F20000027899F83C10D84642F24B2B6C
:109130008A42C2F2000B4ED140F23800C2F2000067
:10914000027899F83F108A4240F0E08140F2360000
:10915000C2F20000027899F83E108A4240F09986E7
:1091600042F24C20C2F2000002789BF800108A42C2
:1091700040F02D8742F24D2042F22C31C2F2000025
:10918000C2F2000102780B789A4241F0918042F2DB
:109190004E20C2F200000578D9F86000FBF7FAFA19
:1091A00046F669514843000E85424FF0000500F035
:1091B0001387F9B21029C0F00F8799F84E108AF87A
:1091C0000050012940F0088742F24E21C2F200010E
:1091D000087001F07CB80170032500F0FDBE42F676
:1091E000EB30C2F200000178012940F0938142F295
:1091F0005E22C2F2000211884B1C9FB200294FF080
:10920000010108BF0321C82F1380FFF4FEAA00212B
:10921000118001700321FFF7F8BA4A1E012A40F2BB
:109220009B81A2E10326022908BF0126002918BF5D
:109230000121017000F0F2BB46F26301DAF804711B
:109240005046022243F67F430FE0DAF80471B9F882
:109250001830504645F21101DDE346F26301DAF8B9
:109260000471504602224FF6FF73B8470326D5E338
:1092700099F88C00032800F27580DFE810F00400F4
:109280008A066606780699F84F000138032869D8DF
:10929000DFE810F00400A9087F089708DAF80471E5
:1092A000B9F8BA3058E0DAF80471504646F2930142
:1092B00002224FF6FF73B8470B20287099F8500030
:1092C000002800F03B8101284BD1DAF80471B9F88D
:1092D0009230504645F2410141E0DAF8047199F8C4
:1092E0004F30504645F243010222B847042639E088
:1092F000DAF80471504646F29301022244F25073A8
:10930000B8470B262EE0DAF8047199F85030504631
:1093100045F242010222B84799F850000A26012876
:1093200008BF09261EE0DAF80471B9F80830504683
:1093300045F23F0113E0D9F8081099F83C0099F87C
:109340002730DAF80471B9F818204529D8BF134638
:10935000012818BF13469BB2504645F24001022235
:10936000B84700262E70002001F0D0B8FBF7EFF9C7
:109370000021CCF24821FBF7E9F80021C4F2C82112
:109380000546FBF76DF900281CBF0025C4F2C8256F
:109390002846FBF7FFF999F83D10012940F01885A0
:1093A00099F84A10012940F0138542F6D830C2F2EC
:1093B0000000027842F6D933C2F20003002A1A787C
:1093C00040F29300C2F2000002F101020178D5B22E
:1093D00018BF7F1A1A70332D4FEA1722C0F0B385D9
:1093E000002503291D7032BF05700339017038460E
:1093F00000F00BBDD9F804004728C0F0138599F898
:10940000274000F018BD46F20301DAF80461504627
:1094100002224FF66043B0470325A8E042F6E03051
:10942000C2F20000DAF8046103882AE04EF2471520
:1094300047F6E126C3F6CA75CAF6146642F6E0306E
:10944000C2F200000088DAF80441FBF796F9024600
:109450000B4630462946FAF74EFFFBF7C8F903469C
:1094600050462EE046F20301DAF80461504602222B
:109470004FF6FF73B047062579E0DAF80461B9F8D2
:109480000830504645F210010222B0476EE0D9F88C
:109490000800DAF80441B0F5FA7F16DAFBF75CF958
:1094A00049F69A1249F69913C9F69912C3F6D97377
:1094B000FAF721FFFBF79BF9034642F6C420C2F2FC
:1094C000000045F20B01022207E042F6C420C2F27E
:1094D000000045F20B010222C823A04746E0032505
:1094E00047E0062545E001700E2000F06DBE0170DA
:1094F0001A70012600F0C4BF0225DAF80471504644
:1095000045F2010102222B46FFF766BB01700425DC
:1095100000F062BD99F84E0099F84010282808BF65
:10952000012900F0038502294FF0010108BF052140
:109530000122282818BF1146FFF767B9DAF804712D
:10954000504645F24101022200230026B84709E7B0
:10955000013A012A09D841B90122A9F8562042F25C
:109560005122C2F20002002313700170002599F805
:109570004E001A283D7000F2C687012101FA00F062
:109580000621C0F20041084200F0BD8799F8414031
:1095900024B1012C0AD109F1220001E009F11C00DB
:1095A000008842F6E031C2F200010880D9F8047068
:1095B00099F93B0099F93A103844401AFBF7C7F87B
:1095C000002199F84D6099F84080CCF24821054679
:1095D000FAF7BCFFB8F1010F18BF2846012E18BFDB
:1095E0002846012C5DD0002C40F08D87FBF7D2F887
:1095F0000546C9F8080099F83D0099F84A1080F02E
:10960000010081F0010140F2940650EA0103C2F228
:10961000000640F0B78042F6DD30C2F2000000786C
:1096200034784E4642F6DE39C2F200090C93002827
:1096300018BF3F1B99F80000B760013089F800009F
:10964000C0B2FBF79AF88246B08B8B46FBF795F8D1
:1096500049F69A1249F69913C9F69912C3F6C973D5
:10966000FAF749FE52465B46FBF732F8002840F015
:10967000C180002089F80000012C88BFA01E42F69E
:10968000401942F6C42A40F2B70B0C9B40F29406F4
:10969000C2F20009C2F2000AC2F2000BC2F20006D6
:1096A00088E046F26761C3F6E671FAF7A7FF4FF06C
:1096B0008441FAF74BFFFBF76DF8044699F83D003B
:1096C00099F84A1080F0010081F0010150EA01068A
:1096D000C9F8084070D199F83F0003286CD04CF6C7
:1096E000CD4107EBC700CCF6CC41A0FB010142F60F
:1096F000DD30C2F20000007840F2940342F6DE3B17
:109700008A08C2F20003C2F2000B4F4693F80090A1
:10971000002818BFC9EB91029BF8000002F1200558
:1097200001308BF80000C0B2BD60FBF726F882461E
:10973000B88B0F46FBF721F849F69A1249F69913B0
:10974000C9F69912C3F6B973FAF7D5FD52463B46EE
:10975000FAF7BEFF002840F08A8000208BF8000056
:10976000B9F1050F88BFA9F1060042F6401942F68B
:10977000C42A40F2B70BC2F20009C2F2000AC2F2D8
:10978000000B31E042F6DC30C2F20000017801311A
:10979000CAB20B2A017005D342F6DD30C2F20000D6
:1097A0000121017042F6DE30C2F20000002101709A
:1097B00032202F4630702AE042F6DC30C2F2000040
:1097C00001780131CAB20B2A017005D342F6DD30AF
:1097D000C2F200000121017042F6DE30C2F2000048
:1097E000002101705A20254640F29401C2F2000186
:1097F000087048E042F6401942F6C42A40F2B70B1E
:109800000C9BC2F20009C2F2000AC2F2000BB8F1CE
:10981000020F04BFC9F808502F46B9F894008742D8
:10982000BCBFC9F808000746B8F1010F40F06B86CD
:1098300099F84300012840F06686B9F81C00B3FA95
:1098400083F100F1140297424FF000024FF0000341
:1098500028BF0122A0F114064909B742D8BF01234D
:109860001A43114308BFC9F8080000F04CBE42F685
:10987000401942F6C42A40F2B70BC2F20009C2F204
:10988000000AC2F2000BB9F8940043F2343100EB45
:10989000C000C3F23331A0FB010101F12000B8F197
:1098A000020F08BF254685420146C8BF2946B8F1C8
:1098B000020F04D08542B8BFC9F8081001E0C9F80A
:1098C0000810B8F1010F40F01E8699F843000128F6
:1098D00040F01986B9F82200B6FA86F200F12403A6
:1098E000002799424FF00003A0F124064FEA5212DC
:1098F00028BF0123B142D8BF012743EA0701114322
:1099000040F00186C9F8080000F0FDBD01260028DE
:1099100008BF0326087081E042F25820C2F200001E
:109920000178002900F0FB8242F25920C2F20000C7
:10993000027899F826108A426FD040F23E02C2F2B5
:1099400000021388013B1F04138066D10823138093
:109950000170032662E0DAF80471B9F8B4305046B9
:1099600045F21E010222B8470C2000F043BC09F169
:109970009600DAF804710388504645F21501022278
:10998000B847032000F036BC0C2000F033BCDAF8F6
:109990000471B9F8B030504645F218010222B847B8
:1099A000062000F027BC09F1A200DAF80471038850
:1099B000504645F21B010222B847092000F01ABCAC
:1099C000032000F017BC062000F014BC092000F0B2
:1099D00011BC3E700226C5E400235EE2B9F83200F5
:1099E00043F2343100EBC000C3F23331A0FB01017C
:1099F000DAF8047101F1200083B2504645F23301D8
:109A00000222B8470E2609E0DAF80471B9F82230CC
:109A1000504645F235010222B84700269BF8000067
:109A20002E7000F072BD0E26F8E799F8410001286B
:109A300000F02283002840F00684DAF80471B9F8B7
:109A40003A3100F0EBBB99F84100012800F019838E
:109A5000002840F0F883DAF80471B9F82A3155E3A8
:109A6000DAF80471B9F846317DE1DAF80471B9F831
:109A7000203178E1DAF80471B9F82231504645F224
:109A80002D010222B84799F85250002D18BF252504
:109A900000F0DBBBDAF80471B9F80A3146E199F855
:109AA0004100012800F0F282002840F0CC83DAF86F
:109AB0000471B9F81C31C1E399F84100012800F0A4
:109AC000EA82002840F0BF83DAF80471B9F8E63082
:109AD000ACE3DAF80471B9F83E310AE1DAF804715E
