:020000040800F2
:10400000C8300020854100083D49000835490008B6
:10401000394900082D49000899790008000000007E
:10402000000000000000000000000000A16900087E
:1040300031490008000000001D4A0008A569000879
:104040009F4100089F4100089F4100089F410008D0
:104050009F4100089F4100089F4100089F410008C0
:104060009F4100089F4100089F4100089F410008B0
:104070009F4100089F4100089F4100089F410008A0
:104080009F4100089F4100089F4100089F41000890
:104090009F4100089F4100089F4100089F41000880
:1040A0009F4100089F4100089F4100089F41000870
:1040B00041710008297600089F4100089F410008CF
:1040C0009F4100089F4100089F4100089F41000850
:1040D0009F410008A97700084D780008F178000892
:1040E0009F4100089F4100089F4100080000000018
:1040F00000000000000000000000000000000000C0
:10410000000000009F4100089F41000800000000DF
:104110005976000801770008000000000000000048
:104120009F4100089F4100089F4100089F410008EF
:10413000000000000000000000000000000000007F
:104140000000000000000000000000009F41000887
:1041500000000000000000009F4100089F4100088F
:104160000000000000000000000000009F41000867
:10417000DFF80CD000F032F900480047010B0108CD
:10418000C83000200648804706480047FEE7FEE7A3
:10419000FEE7FEE7FEE7FEE7FEE7FEE7FEE7FEE7F7
:1041A00099700008714100082DE9FE4F804681EAB0
:1041B0000300C00F0C46009021F0004123F00045A1
:1041C000B8EB0200A94105D24046214690461C4664
:1041D0000B46024623F00040104347D0270DC7F39B
:1041E0000A00C3F30A510290401A019040286BDA8A
:1041F000C3F3130040F4801B0098924620B10023C3
:10420000D2EB030A63EB0B0B01985946C0F1400255
:10421000504600F0FBF806460D4650465946019AB6
:1042200000F013F910EB08006141002487EA1152F5
:1042300084EAE7731A4340D0009A62B3019A012AD4
:104240004FEA075215DC001B61EB02014FF0004200
:1042500002EA0752CDE90042001C41F580113246C6
:104260002B4600F013F903B0BDE8F08F404621461D
:10427000F9E7001B61EB0201001C41F580130018F7
:104280005B412018A2F5001747EB030140EAD57007
:10429000B6196D4111E06D084FEA360645EAC07562
:1042A0004FEA0752001B61EB0201001C41F580112F
:1042B00049084FEA30000019514132462B4603B0FD
:1042C000BDE8F04F00F0D3B8009801224000002371
:1042D000D0EB020263EBE073009821464FEAE074F2
:1042E000B8EB000061EB0401E9E783F000435BE712
:1042F00081F0004158E72DE9FE4F81EA030404F004
:10430000004421F0004100944FF0000B23F00043E3
:1043100050EA01045ED052EA03045BD0C3F30A54AE
:10432000C1F30A552C44A4F2F3340194A0FB0254C7
:10433000C1F3130141F48011C3F3130343F4801359
:1043400001FB024400FB034E840A970A44EA8154AD
:1043500047EA8357A4FB076802958D0A05FB07858A
:104360004FEA932C04FB0C542705029D4FEA065894
:1043700047EA1637B5EB08056EEB070C870E920E71
:1043800047EA811742EA8312A7FB0201B6EB0B0151
:1043900064EB00042B0D43EA0C335E1844EB1C5015
:1043A000DA465146E7FB0201C5F313044FEA0B332B
:1043B00043EA14534FEA0432019C43EA0603A4F192
:1043C0000C040294009CCDE900B400F05FF803B047
:1043D000BDE8F08F00200146F9E700001CB5094850
:1043E0000090094801900546009C06E0E06840F016
:1043F000010394E8070098471034AC42F6D3FFF766
:10440000BBFE00000051010820510108202A04DBF6
:10441000203A00FA02F1002070479140C2F12003D7
:1044200020FA03F3194390407047202A04DB203A16
:1044300021FA02F00021704721FA02F3D040C2F1C4
:1044400020029140084319467047202A06DBCB170B
:10445000203A41FA02F043EAE07306E041FA02F33F
:10446000D040C2F12002914008431946704710B570
:10447000141E73F1000408DA401C41F10001921887
:104480005B411A4301D120F0010010BD2DE9F04D30
:1044900092469B4611B1B1FA81F202E0B0FA80F285
:1044A00020329046FFF7B2FF04460F4640EA0A006A
:1044B00041EA0B0153465A46084313D0114653EACA
:1044C000010019D0C8F140025046FFF7AEFF054683
:1044D0000E46504659464246FFF798FF084305D01E
:1044E000012004E020463946BDE8F08D0020054358
:1044F00046EAE0762C4337430A986305E40AA0EBCA
:1045000008000022FD0A44EA47540A3002D5002080
:104510000146E9E7010510196941DDE9084500197F
:104520006941BDE8F04DA2E7D2B201E000F8012BED
:10453000491EFBD270470022F6E710B513460A4623
:1045400004461946FFF7F0FF204610BDF0B480EA9C
:104550000102D40F4200B2EB410F02D202460846DC
:1045600011464A0042D0C30DDDB2C1F3C752AD1AA5
:10457000202D35DAC1F3160141F4000204B1524294
:10458000C5F1200602FA06F12A411044B3EBD05FD0
:1045900023D0C4B1012DA0EBC35009DCF0BC4FF017
:1045A000004202EAC352DBB200F5000000F08FB90E
:1045B000400000F1807000EBC350A0F1807040EA31
:1045C000D170490009E0490841EAC071A0EBC3502D
:1045D00000F50000400800EBC350F0BC00F06EB9DD
:1045E0006142012202EB4101001BF6E7F0BC70477B
:1045F00081F00041AAE780F00040A7E780EA0102CD
:1046000010B502F00043400022D04A001FD0010E36
:1046100001EB1261C0F35600C2F3560240F40000F1
:1046200042F40002A0FB022000047F39140400D0F1
:10463000401C50EA124001D44000491EC2B20C0690
:1046400004EBD010401C4008802A02D003E0002078
:1046500010BD20F00100002900DA0020184310BD31
:10466000002801DBC0F10040002901DBC1F100415D
:10467000814201D80120704700207047002801DBEB
:10468000C0F10040002901DBC1F10041814201D2AB
:104690000120704700207047002801DBC0F1004076
:1046A000002901DBC1F10041814201D301207047A3
:1046B00000207047002801DBC0F10040002901DB29
:1046C000C1F10041814201D90120704700207047AB
:1046D00030B5041E71F1000404DB4FF00044404289
:1046E00064EB0101141E73F1000405DB1C464FF05E
:1046F0000043524263EB0403101A8B4101D30120A3
:1047000030BD002030BD30B5041E71F1000404DB63
:104710004FF00044404264EB0101141E73F10004A9
:1047200005DB1C464FF00043524263EB0403801A42
:10473000994101D2012030BD002030BDC10F80EA77
:10474000E0700844CA079623002100F0C0B8962301
:104750000022114600F0BBB80EB5C10F80EAE07030
:104760000844CA07002140F233438DE80E000A4690
:104770000B46FFF78BFE03B000BD0EB540F2334190
:1047800002910021CDE900110A460B46FFF77EFE9B
:1047900003B000BD00F0004220F00040C10DC0F3A6
:1047A000160040F400007F2901DA002070479629A6
:1047B00003DCC1F19601C84001E096398840002A27
:1047C000F4D04042704720F00040C10DC0F3160005
:1047D00040F400007F2901DA00207047962903DCAD
:1047E000C1F19601C840704796398840704770B54E
:1047F000C1F30A5201F000450024C1F3130140F255
:10480000FF3341F480119A4201DA002070BD40F27A
:1048100033439A42A2F2334203DC5242FFF705FED1
:1048200000E090402C43F1D0404270BDC1F30A52E9
:1048300010B5C1F3130140F2FF3341F480119A42E5
:1048400001DA002010BD40F233439A42A2F2334213
:1048500003DC5242FFF7E9FD10BD904010BD00F0AF
:10486000004230F000400AD0C10D01F56071C0F384
:10487000160042EA0151C208400711437047002068
:104880000146704701F0004330B421F0004150EA86
:10489000010206D00A0DA2F56072C1F31301002ACD
:1048A00002DC30BC00207047440F44EAC104C10060
:1048B000E01830BC00EBC250AFF300800029A8BF65
:1048C0007047401C490008BF20F00100704710B439
:1048D000B0FA80FC00FA0CF050EA010404BF10BCEE
:1048E000704749B1CCF1200421FA04F411FA0CF11B
:1048F00018BF012121430843A3EB0C01CB1D4FEA54
:1049000000614FEA102042BF002010BC704700EB4E
:10491000C35010440029A4BF10BC7047401C49007C
:1049200008BF20F0010010BC70470000FEE7000047
:1049300070470000FEE70000FEE70000704700003F
:10494000F0B583B0FFF754FE42F21026C2F2000623
:1049500070617169F069FFF7F9FDF0614CF60004D0
:10496000F069C4F22F742146FFF788FE002808BFC3
:10497000F461F06900210024FFF79CFE002808BFC5
:10498000F461D6E900457069776A3169FFF730FE56
:10499000B06170692146FFF731FEF16904460846AF
:1049A0002946FFF72BFE0290019702980199FFF725
:1049B00057FE002804BF019802900298019981F0E7
:1049C0000041FFF769FE18B9019880F0004002909D
:1049D00002982146FFF7BAFDB269B16804467569CD
:1049E0001046FFF70BFE01462046FFF7AFFD306291
:1049F0003561306AB16AFFF733FE002804BFB06A40
:104A00003062306AB16A81F00041FFF745FE00284C
:104A100004BF00203062306A03B0F0BD7047000070
:104A20002DE9F04381B042F68042C2F20002517B90
:104A3000022914D1461C5788002331461588BD42EF
:104A400010D095680133EF5D01F8017B5788958898
:104A50000137B7FBF5F404FB15775780EEE700F15B
:104A6000810789E0002151730746D9B2092907F867
:104A7000813F40F0BD8031785A2940F07D808178B7
:104A8000A52940F0798081790B39712900F2748071
:104A9000DFE811F0750050049B0301053905720031
:104AA00072007200100471048B0481056405060312
:104AB000180481039A02B604C804AE0593056C027B
:104AC000930326067E026403D9022A04BC02DC0694
:104AD000BF063003C603E404F3033F072803A5051C
:104AE0002F075C0243054B021D024D0347041D06C0
:104AF00072007200B10072006402AD0472007200B4
:104B00007200230572004807DB04CF0172007200B7
:104B100072007A016A070A07AB017705CF05A00189
:104B2000710654069D0772007200720072007200D6
:104B300072007200720072007200720072007200E5
:104B400072007200720072007200720072007200D5
:104B500072007200720072007200720072007200C5
:104B600072007200720072007200720072007200B5
:104B7000720072005F0794070020387038E042F638
:104B80004015C2F2000595F83F100229F4D0012229
:104B9000A5F85B20A5F8562000220029EA8385F8B5
:104BA0004720E9D1017A447A0802FFF7D5FD804613
:104BB00020460E46FFF7E1FD0023C4F20403002265
:104BC000FFF799FB42463346FFF7EEFAFFF70FFE79
:104BD00043F23432642898BF642000EBC001C3F272
:104BE0003332A1FB0212A88302F120006884C3E7DC
:104BF00001B0BDE8F083417A42F640100029C2F2CC
:104C0000000018BF012180F85210B5D04FF48C710C
:104C10004FF433720A264FF00135A0F8C610142164
:104C200042843C220685C0F842500125A0F88E60DF
:104C30004FF4AF76C0F2040180F82420322280F8CD
:104C40004650A0F84C50A0F8966040F2962640F2EC
:104C5000F025C0F8CA10142142861E22C0F2CC26CC
:104C6000C0F24A352823C0F20501C286C0F8AE6002
:104C70001426C0F8B25028259622C0F20A03C0F8C4
:104C8000D210C0F8FA10C0F820114FF4FA71C0F237
:104C90000A06C0F21405A0F8B620C0F8BA30A0F891
:104CA000DE202822C0F8F2302823A0F832111E217D
:104CB0004FF48034C0F898601E26C0F8A4503C25FC
:104CC000C0F20302C0F20803C0F206018464C0F21D
:104CD0000F06C0F21E051424C0F8E2201E22C0F800
:104CE00010312823C0F8361128214FF4BE794FF037
:104CF000640E4FF0000CC0F89E604FF4C8764FF47D
:104D0000E178C0F8AA504FF48275C0F20304C0F2F3
:104D10000402C0F20403C0F20501A0F81C9080F860
:104D200026E080F83AC080F841C0A0F89C90A0F836
:104D3000A260A0F8A880A0F8BE50C0F8C240A0F8B9
:104D4000CEE0A0F8E650C0F8EA40A0F8EE90A0F857
:104D5000F650A0F80461C0F80821A0F80C81A0F872
:104D60001491C0F81831A0F81C51A0F82A61C0F8BD
:104D70002E21A0F83A91C0F83E31A0F84251C0F877
:104D8000461180F88DC0F7E642F64011C2F20001EC
:104D900091F83F20002A7FF4EFAE0122A1F85B20BA
:104DA000A1F856200022CA83407A012801F07382BC
:104DB00000287FF4E1AE91F84100012801F05B8406
:104DC00000287FF4D9AE888B6422642888BF421EF5
:104DD00000F0EEBD42F64010C2F2000090F83F1025
:104DE00000297FF4C9AE00F0B2BC407A012800F07F
:104DF000438600287FF4C0AE42F64010C2F20000A5
:104E000090F83F10032901F03A8300297FF4B4AEF3
:104E10000121A0F85B10A0F8581090F8241000228F
:104E20000A2980F8252040F25F85053980F8241092
:104E3000A2E642F64014C2F2000494F83F100029A2
:104E40007FF49AAE407A012801F0358200287FF481
:104E500093AE40F2B110C2F2000001780131CAB243
:104E60000A2A0170FFF488AE40F2B011C2F20001CC
:104E70000A78002A7FF480AE0022027001200870B8
:104E800042F6C020C2F200000221017094F84100F5
:104E900094F82430B4F88E100128A4F89830A4F8BF
:104EA0009A1001F0E284002841F0FC84A38B43F2C5
:104EB000343103EBC300C3F23331A0FB010101F134
:104EC0002000A4F89630A4F8AE0001F0DFBC42F652
:104ED0004011C2F2000191F83F20002A7FF44CAE4D
:104EE00091F84130427A012B0ED1007A42EA00203B
:104EF00000EB800048F63962A038C3F6E30250FBAD
:104F000002F0421002EBD072087F91F83A30801A1A
:104F1000184440B26428A8BF642010F1640FD8BFC1
:104F20006FF0630081F83A0026E6008940F2E7322C
:104F300000BA010C914238BF020C42F64010C2F296
:104F40000000012A98BF0122C28615E6407A42F687
:104F50004011C2F2000181F846000DE6407A42F6A7
:104F60004011C2F2000181F8480005E6008940F2D4
:104F7000E73200BA010C914238BF020C42F64010F1
:104F8000C2F20000012A98BF0122A0F8AC20F3E58C
:104F900042F64011C2F2000191F88C20032A3FF63C
:104FA000EBADDFE812F00400C0069506B2060089FA
:104FB000C82300BA020CC82A38BF030C052B98BFBF
:104FC0000523A1F8BA30D7E542F64011C2F200013C
:104FD00091F84120002A00F06D85012A40F090856B
:104FE000008948F6396200BA000CA1F8B20000EB63
:104FF0008000A038C3F6E30250FB02F0421002EB3F
:10500000D07290B2A1F8A22000F07CBD42F640110F
:10501000C2F2000191F88C20032A3FF6ADADDFE823
:1050200012F00400BE066506AF06008940F2E733C1
:1050300000BA020C9A4238BF030C012B98BF01231F
:10504000A1F8C43098E542F64011C2F2000191F88F
:105050008C20032A3FF690ADDFE812F00400CF0663
:105060007306B006008991F8412040BA012AA1F8E0
:10507000BE000ED100EB800048F63962A038C3F6BE
:10508000E30250FB02F0421002EBD07290B2A1F8A2
:10509000BE20642801F237826420A1F8BE006BE5CF
:1050A00042F64011C2F2000191F84120002A00F0BE
:1050B0001485012A40F04385008948F6396200BA18
:1050C000000CA1F8B00000EB8000A038C3F6E302AA
:1050D00050FB02F0421002EBD07290B2A1F89C207B
:1050E00000F02FBD407A42F64011C2F2000181F873
:1050F000420041E542F64011C2F2000191F88C20D5
:10510000032A3FF639ADDFE812F00400C406970623
:10511000A606008940F2E73300BA020C9A4238BF73
:10512000030C012B98BF0123A1F8CC3024E50089A2
:1051300040F2E73200BA010C914238BF020C42F64D
:1051400040100029C2F200004FF0000108BF012208
:10515000A0F88E20028580F854100DE542F640112B
:10516000C2F2000191F88C20032A3FF605ADDFE87A
:1051700012F00400DC068106CD06008940F2E73318
:1051800000BA020C9A4238BF030C012B98BF0123CE
:10519000A1F8BC30F0E4008940F2E73200BA010C1B
:1051A000914238BF020C42F64010C2F20000012AC0
:1051B00098BF0122A0F8A020DEE4407A42F6401118
:1051C000C2F2000181F88C00D6E442F64011C2F22E
:1051D000000191F83F20022A3FF4CEAC0123A1F850
:1051E0005B30A1F856300023002ACB837FF4C4AC97
:1051F000008991F8412000BA012A4FEA104241F09B
:10520000008202EB820048F63963A038C3F6E3035C
:1052100050FB03F35E10104606EBD37201F0FBB9AE
:1052200042F64011C2F2000191F88C20032A3FF6A9
:10523000A3ACDFE812F00400B7063D06890600893A
:1052400091F8412040BA012AA1F8CE000ED100EB1E
:10525000800048F63962A038C3F6E30250FB02F042
:10526000421002EBD07290B2A1F8CE20642801F275
:105270006E816420A1F8CE007EE442F64011C2F2B5
:10528000000191F88C20032A3FF676ACDFE812F09B
:105290000400A9062F067B06008940F2E73300BA16
:1052A000020C9A4238BF030C012B98BF0123A1F8CE
:1052B000D43061E4407A42F64011C2F2000181F834
:1052C0004E0059E40089C82200BA010CC82938BF31
:1052D000020C42F64010C2F20000052A98BF0522D7
:1052E000A0F89E20FFF748BC42F64011C2F2000130
:1052F00091F88C20032A3FF63FACDFE812F004005F
:105300009D0681068F060089C82300BA020CC82AB0
:1053100038BF030C052B98BF0523A1F8C230FFF757
:105320002BBC407A42F64011C2F2000181F84900DC
:10533000FFF722BC42F64011C2F2000191F83F2073
:10534000022A3FF419AC01230026032AA1F85B309E
:10535000A1F8583081F8256081F8473000F088873F
:10536000002A7FF409AC407A052898BF052081F80F
:105370002400FFF701BC008900BA000C022800F0ED
:105380009B84012800F08A8400287FF4F5AB42F664
:105390004010C2F20000012180F84D1080F840104A
:1053A0000021A0F84F10FFF7E7BB42F64011C2F210
:1053B000000191F84120002A00F0E083012A40F02A
:1053C000FE83008948F6396200BA000CA1F8AE00ED
:1053D00000EB8000A038C3F6E30250FB02F042105D
:1053E00002EBD07290B2A1F8962000F0EABB407AAE
:1053F00042F64011C2F2000181F84D00FFF7BCBB3C
:105400000089C82200BA010CC82938BF020C42F634
:105410004010C2F20000052A98BF0522A0F8A4207F
:10542000FFF7AABB008940F2E73200BA010C9142B3
:1054300038BF020C42F64010C2F20000012A98BFA9
:105440000122A0F8A620FFF797BB407A42F6401150
:10545000C2F2000181F84A00FFF78EBB42F640110C
:10546000C2F2000191F88C20032A3FF685ABDFE8F9
:1054700012F004000D06F105FF050089C82300BAEB
:10548000020CC82A38BF030C052B98BF0523A1F8CE
:10549000D230FFF771BB42F64011C2F2000191F821
:1054A0003F30022B3FF468AB01220026032BA1F80A
:1054B0005B20A1F8582081F8256000F0E186002BE0
:1054C0007FF45AAB407A052898BF0520C82828BF2A
:1054D000C82081F82400FFF74FBB417A42F6401004
:1054E000C2F20000002980F8501000F05A83012910
:1054F0007FF442ABB0F8BC10A0F89210012180F804
:105500004F10FFF739BB42F64010C2F2000090F88E
:105510003F1000297FF430AB19E1008901BA42F64F
:105520004010C2F2000090F84120090C002A418688
:1055300000F03C83012A7FF41FABD42928BFD4217B
:10554000212998BF212101EB8101A03989B24EF2B6
:105550008F325143C90C4186FFF70EBB008940F2E0
:10556000E73200BA010C914238BF020C42F64010FB
:10557000C2F20000012A98BF0122A0F89A20FFF78A
:10558000FBBA42F64010C2F2000090F83F1000292A
:105590007FF4F2AADBE00089C82200BA010CC82916
:1055A00038BF020C42F64010C2F20000052A98BF34
:1055B0000522A0F89820FFF7DFBA0089C82200BAB8
:1055C000010CC82938BF020C42F64010C2F200009C
:1055D000052A98BF0522A0F8AA20FFF7CDBA407A85
:1055E00042F64011C2F2000181F84300FFF7C4BA4D
:1055F00042F64011C2F2000191F84120002A00F069
:10560000FD82012A40F00D83008948F6396200BA14
:10561000000CA1F8B40000EB8000A038C3F6E30250
:1056200050FB02F0421002EBD07290B2A1F8A82019
:10563000F9E242F64014C2F2000494F83F10002947
:105640007FF49AAA407A012800F0698600287FF446
:1056500093AA40F2B310C2F2000001780131CAB23D
:105660000A2A0170FFF488AA40F2B211C2F20001C6
:105670000A78002A7FF480AA0022027001200870B4
:1056800042F6C020C2F200000221017094F84100ED
:1056900094F82430B4F88E100128A4F89E30A4F8B1
:1056A000A01001F00881002841F02281A38B43F271
:1056B000343103EBC300C3F23331A0FB010101F12C
:1056C0002000A4F89C30A4F8B00001F005B9407A9D
:1056D00042F64011C2F2000181F84C00FFF74CBACB
:1056E00042F64011C2F2000191F88C20032A3FF6E5
:1056F00043AADFE812F004001705D904F804008972
:1057000091F8412040BA012AA1F8B6000ED100EB71
:10571000800048F63962A038C3F6E30250FB02F07D
:10572000421002EBD07290B2A1F8B620642800F2C9
:1057300032876420A1F8B600FFF71EBA42F6401087
:10574000C2F2000090F83F1000297FF415AA90F8EB
:105750003C100022012980F8542000F08A810029A1
:105760007FF40AAA90F84E1002291CBF012180F88C
:105770003C10FFF701BA42F64014C2F2000494F85C
:105780003F1000297FF4F8A9407A012800F0F8853D
:1057900000287FF4F1A940F2B510C2F200000178B0
:1057A0000131CAB20A2A0170FFF4E6A940F2B4112D
:1057B000C2F200010A78002A7FF4DEA900220270FA
:1057C0000120087042F6C020C2F2000002210170E0
:1057D00094F8410094F82430B4F88E100128A4F80D
:1057E000A430A4F8A61001F08C80002841F0A68017
:1057F000A38B43F2343103EBC300C3F23331A0FB7C
:10580000010101F12000A4F8A230A4F8B20001F0D7
:1058100089B842F64011C2F2000191F88C20032AA7
:105820003FF6AAA9DFE812F00400F7049D04CA04B9
:105830000089C82300BA020CC82A38BF030C052B04
:1058400098BF0523A1F8CA30FFF796B942F6401178
:10585000C2F2000191F88C20032A3FF68DA9DFE8FF
:1058600012F00400E8048E04BB04008991F8412082
:1058700040BA012AA1F8C6000ED100EB800048F61C
:105880003962A038C3F6E30250FB02F0421002EB8B
:10589000D07290B2A1F8C620642800F2A0866420DD
:1058A000A1F8C600FFF768B9407A012800F0D88156
:1058B00000287FF461A942F64010C2F2000090F87F
:1058C0003F10032900F0F38500297FF455A9012139
:1058D000A0F85B10A0F8581090F8241000220529B9
:1058E00080F8252000F2B386052180F82410FFF708
:1058F00043B940F2B811C2F20001407A0B7842F687
:105900004012C2F20002834282F844003FF434A9FC
:1059100017E0407A42F64011C2F2000181F84100DE
:10592000FFF72AB940F2B911C2F20001407A0B78B0
:1059300042F64012C2F20002834282F845003FF470
:105940001BA9002382F8543082F83F300870FFF71B
:1059500013B942F64010C2F2000090F8550000283A
:105960003FF40AA90CF0D8FB42F64011C2F2000144
:1059700091F83F20002A7FF4FFA80122A1F85B20C4
:10598000A1F856200022CA83407A012800F0298518
:1059900000287FF4F1A891F84100012800F07C86EE
:1059A00000287FF4E9A8888B421F6A2838BF642248
:1059B00090B2C00010FA82F000F024BD42F6401010
:1059C000C2F20000012180F85510FFF7D5B842F669
:1059D0004015C2F2000595F83F1000297FF4CCA8CD
:1059E000407A012800F01A8500287FF4C5A840F20B
:1059F000B710C2F2000001780131CAB20A2A017060
:105A0000FFF4BAA840F2B611C2F200010A78002AE7
:105A10007FF4B2A8002202700120087042F6C02074
:105A2000C2F200000221017095F8410095F824307F
:105A3000B5F88E1042F6C4240128C2F20004A5F87D
:105A4000AA30A5F8AC1000F08287002840F09987B2
:105A5000AB8B43F2343103EBC300C3F23331A0FB11
:105A6000010101F12000A5F8A830A5F8B40000F06C
:105A70007FBF8285FFF780B842F64010C2F2000077
:105A800090F83F10032900F0068500297FF474A8E0
:105A90000121A0F85B10A0F8581090F82410002203
:105AA000C32980F8252080F0F480053180F8241087
:105AB000FFF762B8B1F8B22043F23433008902EB49
:105AC000C202C3F23333A2FB032340BA03F1200224
:105AD000A1F8A200A1F8B22014E0B1F8B02043F27E
:105AE0003433008902EBC202C3F23333A2FB032337
:105AF00040BA03F12002A1F89C00A1F8B02020E0F8
:105B0000B1F8A200652801D2642004E0B0F5FA7F64
:105B100003D34FF4FA70A1F8A200B1F8B200D42870
:105B200004D8D420A1F8B200FFF726B8B0F5697FF9
:105B300024BF4FF46970A1F8B200FFF71DB8B1F8A7
:105B40009C00652801D2642004E0B0F5FA7F03D3FD
:105B50004FF4FA70A1F89C00B1F8B000D42804D832
:105B6000D420A1F8B000FFF707B8B0F5697F24BFD3
:105B70004FF46970A1F8B000FEF7FEBFB1F8AE2097
:105B800043F23433008902EBC202C3F23333A2FB87
:105B9000032340BA03F12002A1F89600A1F8AE2039
:105BA0000FE0002180F84F10FEF7E6BF002900F05B
:105BB000B283642924BF64214186FEF7DDBFB1F8BA
:105BC0009600652801D2642004E0B0F5FA7F03D383
:105BD0004FF4FA70A1F89600B1F8AE00D42804D8BA
:105BE000D420A1F8AE00FEF7C7BFB0F5697F24BF8F
:105BF0004FF46970A1F8AE00FEF7BEBFB1F8B42053
:105C000043F23433008902EBC202C3F23333A2FB06
:105C1000032340BA03F12002A1F8A800A1F8B420A0
:105C200001E0B1F8A800652801D2642004E0B0F5D5
:105C3000FA7F03D34FF4FA70A1F8A800B1F8B400CA
:105C4000D42804D8D420A1F8B400FEF795BFB0F54D
:105C5000697F24BF4FF46970A1F8B400FEF78CBFD0
:105C600042F64010C2F2000090F83F10032900F005
:105C70002B8400297EF480AF0121A0F85B10A0F8EE
:105C8000581090F824100022C82980F82520C0F070
:105C9000E384C82180F82410FEF76EBF42F640105E
:105CA000C2F20000012180F84010002180F84D1060
:105CB000A0F84F10FEF760BF42F64010C2F200009D
:105CC000022180F84010002180F84D10FEF754BFEB
:105CD0000089C82300BA020CC82A38BF030C052B60
:105CE00098BF0523A1F80831FEF746BF008940F2AE
:105CF000E73300BA020C9A4238BF030C012B98BF5D
:105D00000123A1F81231FEF737BF0089C82300BA7A
:105D1000020CC82A38BF030C052B98BF0523A1F835
:105D20002E31FEF729BF0089C82300BA020CC82A09
:105D300038BF030C052B98BF0523A1F8E230FEF70E
:105D40001BBF008991F8412040BA012AA1F80C013B
:105D50000ED100EB800048F63962A038C3F6E302AA
:105D600050FB02F0421002EBD07290B2A1F80C216D
:105D7000642800F2B6836420A1F80C01FEF7FCBE93
:105D8000008940F2E73300BA020C9A4238BF030C94
:105D9000012B98BF0123A1F83831FEF7EDBE008931
:105DA00040F2E73300BA020C9A4238BF030C012BD1
:105DB00098BF0123A1F8EC30FEF7DEBE008991F810
:105DC000412040BA012AA1F832010ED100EB800037
:105DD00048F63962A038C3F6E30250FB02F04210E5
:105DE00002EBD07290B2A1F83221642800F28283D3
:105DF0006420A1F83201FEF7BFBE008991F841206E
:105E000040BA012AA1F8E6000ED100EB800048F666
:105E10003962A038C3F6E30250FB02F0421002EBF5
:105E2000D07290B2A1F8E620642800F27583642055
:105E3000A1F8E600FEF7A0BE008940F2E73300BA01
:105E4000020C9A4238BF030C012B98BF0123A1F822
:105E50001A31FEF791BE008940F2E73300BA020C16
:105E60009A4238BF030C012B98BF0123A1F840319F
:105E7000FEF782BE008940F2E73300BA020C9A4274
:105E800038BF030C012B98BF0123A1F80A31FEF79C
:105E900073BE008940F2E73300BA020C9A4238BF61
:105EA000030C012B98BF0123A1F8F430FEF764BE68
:105EB000008991F8412040BA012AA1F81C010ED1B5
:105EC00000EB800048F63962A038C3F6E30250FBCD
:105ED00002F0421002EBD07290B2A1F81C216428AB
:105EE00000F223836420A1F81C01FEF745BE00895F
:105EF00040F2E73300BA020C9A4238BF030C012B80
:105F000098BF0123A1F82231FEF736BE008940F286
:105F1000E73300BA020C9A4238BF030C012B98BF3A
:105F20000123A1F83031FEF727BE008940F2E733A4
:105F300000BA020C9A4238BF030C012B98BF012310
:105F4000A1F8E430FEF718BE008991F8412040BA6C
:105F5000012AA1F842010ED100EB800048F6396217
:105F6000A038C3F6E30250FB02F0421002EBD072FD
:105F700090B2A1F84221642800F2E0826420A1F8E6
:105F80004201FEF7F9BD008940F2E73300BA020C86
:105F90009A4238BF030C012B98BF0123A1F8483166
:105FA000FEF7EABD008991F8412040BA012AA1F824
:105FB000F6000ED100EB800048F63962A038C3F637
:105FC000E30250FB02F0421002EBD07290B2A1F853
:105FD000F620642800F2C4826420A1F8F600FEF7DF
:105FE000CBBD008940F2E73300BA020C9A4238BFB9
:105FF000030C012B98BF0123A1F8FC30FEF7BCBDB8
:106000000089C82300BA020CC82A38BF030C052B2C
:1060100098BF0523A1F81031FEF7AEBD0089C82353
:1060200000BA020CC82A38BF030C052B98BF052301
:10603000A1F83631FEF7A0BD0089C82300BA020CD2
:10604000C82A38BF030C052B98BF0523A1F8EA30F6
:10605000FEF792BD0089C82300BA020CC82A38BFD7
:10606000030C052B98BF0523A1F82031FEF784BD52
:106070000089C82300BA020CC82A38BF030C052BBC
:1060800098BF0523A1F84631FEF776BD0089C823E5
:1060900000BA020CC82A38BF030C052B98BF052391
:1060A000A1F8FA30FEF768BD008991F8412040BAA6
:1060B000012AA1F804010ED100EB800048F63962F4
:1060C000A038C3F6E30250FB02F0421002EBD0729C
:1060D00090B2A1F80421642800F24B826420A1F858
:1060E0000401FEF749BD008991F8412040BA012A18
:1060F000A1F82A010ED100EB800048F63962A038E1
:10610000C3F6E30250FB02F0421002EBD07290B2F1
:10611000A1F82A21642800F235826420A1F82A011E
:10612000FEF72ABD008991F8412040BA012AA1F862
:10613000DE000ED100EB800048F63962A038C3F6CD
:10614000E30250FB02F0421002EBD07290B2A1F8D1
:10615000DE20642800F228826420A1F8DE00FEF729
:106160000BBD0089C82300BA020CC82A38BF030C33
:10617000052B98BF0523A1F81831FEF7FDBC008957
:1061800091F8412040BA012AA1F814010ED100EB88
:10619000800048F63962A038C3F6E30250FB02F0F3
:1061A000421002EBD07290B2A1F81421642800F2E0
:1061B00004826420A1F81401FEF7DEBC0089C82324
:1061C00000BA020CC82A38BF030C052B98BF052360
:1061D000A1F83E31FEF7D0BC008991F8412040BAC9
:1061E000012AA1F83A010ED100EB800048F639628D
:1061F000A038C3F6E30250FB02F0421002EBD0726B
:1062000090B2A1F83A21642800F2E0816420A1F85C
:106210003A01FEF7B1BC0089C82300BA020CC82AB3
:1062200038BF030C052B98BF0523A1F8F230FEF709
:10623000A3BC008991F8412040BA012AA1F8EE00E0
:106240000ED100EB800048F63962A038C3F6E302B5
:1062500050FB02F0421002EBD07290B2A1F8EE2097
:10626000642800F2C5816420A1F8EE00FEF784BC2A
:10627000407A012888BF034681F82630FEF77CBCAF
:10628000407A012888BF0246C82A28BFC82281F860
:106290002620FEF771BC91F84100012800F0F18141
:1062A00000287EF469AC888B4FF4FA72B0F5FA7F5F
:1062B00038BF421CA4E040F2B015C2F200052878B5
:1062C000002840F03F824FF00110C4F85600002033
:1062D000E08384F8250094F8410001210028A4F807
:1062E0005B1084F88D1000F00682012840F01382C4
:1062F000B4F8AE0048F63961608400EB8000A03845
:10630000C3F6E30150FB01F0411001EBD070A08314
:10631000A4F89600FFE100214186FEF72DBC40F273
:10632000B215C2F200052878002840F0388201201A
:10633000A4F85B004FF00110C4F856000020E08381
:1063400084F8250094F841000221002884F88D107B
:1063500000F0FE81012840F00B82B4F8B00048F64E
:106360003961608400EB8000A038C3F6E30150FB84
:1063700001F0411001EBD070A083A4F89C00F7E17C
:1063800040F2B415C2F200052878002840F03482AB
:106390000120A4F85B004FF00110C4F85600002063
:1063A000E08384F8250094F841000321002884F854
:1063B0008D1000F0FA81012840F00782B4F8B20095
:1063C00048F63961608400EB8000A038C3F6E30131
:1063D00050FB01F0411001EBD070A083A4F8A200A3
:1063E000F3E191F84100012800F06E8100287EF46D
:1063F000C3AB888B421DB0F5F77F88BF4FF4FA72AC
:1064000002EBC20043F23433C3F23333A0FB030385
:1064100003F120008A834884FEF7AEBB40F2B61435
:10642000C2F200042078002840F016820120A5F86E
:106430005B004FF00110C5F856000020E88385F896
:10644000250095F841000421002885F88D1000F002
:10645000DC81012840F0E981B5F8B40048F63961E3
:10646000688400EB8000A038C3F6E30150FB01F024
:10647000411001EBD070A883A5F8A800D5E190F8F1
:10648000261001220A29A0F85B2018D9053980F8C6
:106490002610FEF771BB90F826100122C329A0F840
:1064A0005B2019D2053180F82610FEF765BB90F805
:1064B000261001220529A0F85B2000F2D2800521D8
:1064C00080F82610FEF758BB90F826100122C82944
:1064D000A0F85B20C0F0CA80C82180F82610FEF723
:1064E0004BBBB0F5FA7F24BF4FF4FA70A1F80C0152
:1064F000FEF742BBB0F5FA7F24BF4FF4FA70A1F863
:106500003201FEF739BBB0F5FA7F24BF4FF4FA70C1
:10651000A1F8BE00FEF730BBB0F5FA7F24BF4FF400
:10652000FA70A1F8E600FEF727BBB0F5FA7F24BFAA
:106530004FF4FA70A1F81C01FEF71EBBB0F5FA7F0C
:1065400024BF4FF4FA70A1F84201FEF715BBB0F575
:10655000FA7F24BF4FF4FA70A1F8CE00FEF70CBB0F
:10656000B0F5FA7F24BF4FF4FA70A1F8F600FEF7F9
:1065700003BBB0F5FA7F24BF4FF4FA70A1F8040111
:10658000FEF7FABAB0F5FA7F24BF4FF4FA70A1F81B
:106590002A01FEF7F1BAB0F5FA7F24BF4FF4FA7082
:1065A000A1F8B600FEF7E8BAB0F5FA7F24BF4FF4C1
:1065B000FA70A1F8DE00FEF7DFBAB0F5FA7F24BF6B
:1065C0004FF4FA70A1F81401FEF7D6BAB0F5FA7FCD
:1065D00024BF4FF4FA70A1F83A01FEF7CDBAB0F536
:1065E000FA7F24BF4FF4FA70A1F8C600FEF7C4BAD0
:1065F000B0F5FA7F24BF4FF4FA70A1F8EE00FEF771
:10660000BBBA43F2343302EBC200C3F23333A0FB14
:10661000030303F120008A8392B2652A488401D2E1
:10662000642204E0B2F5FA7F02D34FF4FA728A834F
:1066300080B2D42803D8D4204884FEF79DBAB0F5A0
:10664000697F24BF4FF469704884FEF795BA013919
:1066500080F82410FEF790BA013180F82410FEF77C
:106660008BBA013980F82610FEF786BA013180F81E
:106670002610FEF781BA488CD422D42888BF421E47
:1066800010E0488C4FF46972B0F5697F38BF421C46
:106690004A8402EB82000AE0488CA0F12602FB2823
:1066A00038BFD42290B2800010FA82F04A8448F6B3
:1066B0003962A038C3F6E30250FB02F0420802EB55
:1066C000D0708883FEF758BA488C40F27D3300F1D1
:1066D0002602984288BF4FF4697202EB820048F6A6
:1066E0003963A038C3F6E303A0FB030358084A84C8
:1066F0008883FEF741BAB4F8960043F2343200EBD7
:10670000C001C3F23332A1FB0212A08302F12000C8
:106710006084A4F8AE0094F89800B4F89A1084F855
:10672000240042F6C420C2F200002185A4F88E1095
:106730000021D0F8046184F8541045F2540102227B
:106740000123B04740F2B1110020C2F2000158E02D
:10675000B4F89C0043F2343200EBC001C3F2333290
:10676000A1FB0212A08302F120006084A4F8B00013
:1067700094F89E00B4F8A01084F8240042F6C420D7
:10678000C2F200002185A4F88E100021D0F8046127
:1067900084F8541045F2540102220223B04740F21B
:1067A000B3110020C2F200012BE0B4F8A20043F2C2
:1067B000343200EBC001C3F23332A1FB0212A083DA
:1067C00002F120006084A4F8B20094F8A400B4F8A8
:1067D000A61084F8240042F6C420C2F200002185ED
:1067E000A4F88E100021D0F8046184F8541045F20A
:1067F000540102220323B04740F2B5110020C2F237
:10680000000128700870FEF7B7B9B5F8A80043F288
:10681000343200EBC001C3F23332A1FB0212A88371
:1068200002F120006884A5F8B40095F8AA00B5F834
:10683000AC1085F8240042F6C420C2F2000029857D
:10684000A5F88E100021D0F8046185F8541045F2A7
:10685000540102220423B04740F2B7110020C2F2D3
:10686000000120700870FEF787B9638C48F6396123
:1068700003EB8300A038C3F6E30150FB01F04108AD
:1068800001EBD070A4F8AE30A4F8960042F6C42014
:10689000C2F20000D0F8046145F215010222B047AF
:1068A000B4F8983042F6C420C2F20000D0F8046177
:1068B00045F216016AE0638C48F6396103EB830008
:1068C000A038C3F6E30150FB01F0410801EBD070A2
:1068D000A4F8B030A4F89C0042F6C420C2F2000034
:1068E000D0F8046145F218010222B047B4F89E3096
:1068F00042F6C420C2F20000D0F8046145F219014A
:1069000044E0638C48F6396103EB8300A038C3F69A
:10691000E30150FB01F0410801EBD070A4F8B23064
:10692000A4F8A20042F6C420C2F20000D0F804612C
:1069300045F21B010222B047B4F8A43042F6C4204D
:10694000C2F20000D0F8046145F21C011EE06B8C1D
:1069500048F6396103EB8300A038C3F6E30150FB2E
:1069600001F0410801EBD070A5F8B430A5F8A800FB
:10697000D4F80461204645F21E010222B047B5F862
:10698000AA30D4F80461204645F21F010222B04724
:1069900042F6E730C2F2000001210170FEF7ECB8C8
:1069A00070470000B0B540F20200C2F2000001885A
:1069B00042F64014013901800904C2F200040AD1F0
:1069C00042F6A841C2F200010A68626100220A6030
:1069D0004FF47A71018040F2BA15C2F200052878AE
:1069E000002869D12078012866D142F20040C4F223
:1069F0000100C1680A2241F00701C160416B62F3E6
:106A000004014163816841F4800181600168890764
:106A100009D4016889075CBF01685FEA817102D40B
:106A200001688907F2D5C16C1022C1F38D01616044
:106A3000C16841F4E011C160416B62F3040141633C
:106A4000816841F4800181600168890709D4016887
:106A500089075CBF01685FEA817102D40168890718
:106A6000F2D5C06C40F2EC51C2F2000108800888F7
:106A7000FDF783FE43F6E30244F63863CEF28E322E
:106A8000C3F6C873FDF737FC4EF636224AF6F553C7
:106A9000C1F63B32CCF27103FDF786FBFDF7A7FE92
:106AA000411E89B23129A4F8940005D86068800895
:106AB0007C289CBF0120287094F83F00022840F2F7
:106AC0003000C2F2000018D1018801390A040180A7
:106AD00018D1228F4FF47A710180501E01B2B1F1AA
:106AE000FF3F20870EDC002084F83F0042F6C020E4
:106AF000C2F200000221017004E0E28E4FF47A71CC
:106B00000180228794F85000A0B1012840F0FC8158
:106B100042F20C20C2F20000027894F88C10DAB134
:106B2000032900F28381DFE801F00295466D94F8B5
:106B30004F1027E042F20C20C2F200000021017049
:106B400040F21000C2F200004FF47A72028084F822
:106B50004F10A4F89210D7E101220329027000F22D
:106B60006581DFE801F0027A2B5294F84F104A1E3B
:106B7000D2B2042A06D20FF2105353F82220128800
:106B8000A4F89220032900F0FA80022900F0BA80CC
:106B9000012940F02B8194F85110002940F04681E2
:106BA00094F84110012900F09181002940F03E81C4
:106BB000B4F8B62033E194F84F100CE094F84F107D
:106BC0004A1ED2B2042A06D20FF29C4353F8222066
:106BD0001288A4F89220032974D0022962D00129D6
:106BE00040F0A08094F85110002940F01F8194F8E3
:106BF0004110012900F05581002940F01781B4F8B7
:106C000004210CE194F84F100CE094F84F104A1E48
:106C1000D2B2042A06D20FF2404353F8222012883F
:106C2000A4F89220032900F09C8002295AD001295F
:106C300040F0B38094F85110002940F0F78094F8A8
:106C40004110012900F03981002940F0EF80B4F8AB
:106C50002A21E4E094F84F100CE094F84F104A1EFB
:106C6000D2B2042A06D20FF2104353F8222012881F
:106C7000A4F89220032900F0AE80022963D00129F4
:106C800040F0C18094F85110002940F0CF8094F872
:106C90004110012900F01D81002940F0C780B4F89F
:106CA000DE20BCE094F85110002940F0BF8094F839
:106CB0004110012900F0EC80002940F0B780B4F8C1
:106CC0000C21ACE094F85110002940F0AF8094F80A
:106CD0004110012900F0DF80002940F0A780B4F8BE
:106CE00014219CE094F85110002940F09F8094F802
:106CF0004110012900F0D280002940F09780B4F8BB
:106D000032218CE094F85110002940F08F8094F8E3
:106D10004110012900F0C880002940F08780B4F8B4
:106D2000BE207CE0042940F0818094F851100029B5
:106D30007CD194F84110012900F09E80002975D182
:106D4000B4F81C216BE094F8511000296ED194F82E
:106D50004110012900F0AB80002967D1B4F8E6208A
:106D60005DE094F85110002960D194F84110012998
:106D700000F0A080002959D1B4F83A214FE094F8EE
:106D80005110002952D194F84110012900F0988047
:106D900000294BD1B4F8C62041E0042946D194F82B
:106DA0005110002942D194F84110012967D0E9BB64
:106DB000B4F84231A168A3F10A02914240F21002F4
:106DC000C2F2000203DD0A339942C0F290804FF410
:106DD0007A70108098E094F8511039BB94F8411003
:106DE000012970D011BBB4F8EE2018E004291DD1A0
:106DF00094F85110D1B994F84110012942D0A9B9A1
:106E0000B4F8CE200BE0042910D194F8511069B9E0
:106E100094F84110012938D041B9B4F8F620A1689E
:106E2000A2F10A03994268DD0A325AE040F21001E9
:106E3000C2F200010988090466D140F21001B4F8D9
:106E40009230C2F200014FF47A720A80591E0AB2DF
:106E5000B2F1FF3FA4F8921056DC94F84F200021C5
:106E60000170501CC2B2052A84F84F0024BFA4F858
:106E70009210A4F84F1047E0B4F81E212BE0B4F8AC
:106E8000442128E0B4F8D02025E0B4F8F82022E02E
:106E9000B4F80E211FE0B4F816211CE0B4F8342138
:106EA00019E0B4F8062116E0B4F8C02013E0B4F8F5
:106EB000E82010E0B4F83C210DE0B4F82C210AE001
:106EC000B4F8C82007E0B4F8F02004E0B4F8B82023
:106ED00001E0B4F8E020A168A2F1120399420CDDB0
:106EE0001232914209DA40F21002C2F20002118815
:106EF00001391180090407D19FE740F21000C2F266
:106F000000004FF47A71018094F85400002840F298
:106F10001200C2F200002BD094F83D10012908D1D4
:106F2000002184F8541042F6C021C2F2000102226E
:106F30000A70018801390A04018020D1B4F8901048
:106F400001390AB2B2F1FF3FA4F890100CDCB4F89A
:106F50008E100222A4F89010002184F8541042F6FA
:106F6000C021C2F200010A704FF47A71018006E07C
:106F7000B4F88E204FF47A710180A4F8902042F684
:106F8000AC40C2F200000068804742F63840C2F2CE
:106F90000000417B012906D1017B002907BF0221A6
:106FA000417301390173017F00291CBF0139017749
:106FB00042F65C40C2F20000417B012906D1017B10
:106FC000002907BF0221417301390173017F0029A4
:106FD0001CBF0139017742F68040C2F20000417BBC
:106FE000012906D1017B002907BF02214173013924
:106FF0000173017F00291CBF0139017742F6F0308F
:10700000C2F20000417B012906D1017B002907BFA4
:107010000221417301390173017F00291CBF01392D
:10702000017742F61440C2F20000417B012906D1EB
:10703000017B002907BF0221417301390173017FE0
:1070400000291CBF0139017742F6A440C2F20000BA
:10705000016801310160B0BD702A0020782A00204B
:10706000802A0020882A00204A2A0020522A002054
:107070005A2A0020622A0020242A00202C2A0020DC
:10708000342A00203C2A0020FC290020042A002069
:107090000C2A0020142A002041F20000C4F2020051
:1070A000C16941F08051C16147F25001C4F2000151
:1070B0000A7842F004020A70C16921F08051C1616E
:1070C000016841F0010101600168890709D4016884
:1070D00089075CBF01685FEA817102D40168890792
:1070E000F2D5416821F00301416000BF416811F011
:1070F0000C0F0BD0416811F00C0F07D0416811F054
:107100000C0F03D0416811F00C0FEFD101684FF65E
:10711000FF72CFF6F262114001600021416041F63A
:107120001071C1624FF4801101634FF41F0181603F
:107130004EF60850CEF200004FF00061016070473B
:107140002DE9F04F81B040F2100BC4F2000BDBF8D8
:107150000000C00700F0F08142F64017C2F20007BD
:107160003878012840F0CD8140F2AC00C2F2000036
:10717000007842F210260128C2F2000617D1B46846
:107180004EF20005C4F2AB6520462946FDF792FA9F
:10719000002804BFB5602C46D6F804804FF080412B
:1071A00040464FF08045FDF785FA40B109E04EF2C8
:1071B00000040025C4F2AB64C4F2C005B460A84664
:1071C000756040F2B005C2F20005B5F800A042F6C5
:1071D000E06082450AD3D7E95E014FF0000A013032
:1071E00041F10001A5F800A0C7E95E0197F8400051
:1071F000022814D0012840F07E8197F84D00002825
:1072000066D0012840F0838097F83F00022800F004
:107210007180002840F07B80B88B323072E097F8A4
:107220005110B88B40F2B402C2F200020029108063
:1072300040F0618197F85000002850D0012840F0BC
:107240005A8140F2B200C2F20000027897F84F1063
:107250008A4206D0017000203062F06170613061B6
:10726000F06097F85300002800F045810020C4F238
:107270007A4049F69A114EF20008C3F69971C4F2A9
:10728000AB6886E803010BF09BFC97F88C107860E4
:10729000032900F2848197F93B20104497F93A20A2
:1072A000A0EB0209DFE811F004006B0151015E015F
:1072B00097F84F000138042800F27181DFE810F0E0
:1072C0000500920183018C016C01B7F8B6408BE197
:1072D00097F83F00022812D0C8B9B88B12E00BF023
:1072E0006FFC786000203062F06170613061F060A6
:1072F000386600E1B88B798E0844323002E0B88BF2
:10730000798E084440F2B401C2F20001088097F877
:107310003D0090B197F84A1079B1012808BF0129C2
:1073200040F0DB800BF04CFC786000203866306267
:10733000F06170613061F060CFE097F85300002891
:1073400000F0CB800BF03CFC97F93B1097F93A200A
:1073500078600844A0EB020940F2AA00C2F20000E3
:10736000018840F2B400C2F20000BD8B0088A9423F
:1073700006B20ED000F052FD42F2102187F83B0019
:107380000020C2F20001C86140F2AA00C2F200006F
:1073900005800FFA89F906F164014945A6F16400F8
:1073A00052DB484550DC701D48456EDB701F484578
:1073B0006BDC40F2AE00C2F20000018801318AB2FB
:1073C0003C2A01806CD30021018040F2AC010120F5
:1073D000C2F2000108700021CCF2FA41204600966A
:1073E000FDF7B4F84EF20001C4F2AB610446FDF7BC
:1073F00037F942F210250028C2F2000540461CBFB2
:107400004EF20004C4F2AB64AC60FDF728FA49F612
:107410009A1249F69913C9F69912CBF6B973FCF78B
:10742000C3FE00224FF08043044688464FF0804A56
:10743000FDF769F9002800F0848020464146FDF7F9
:1074400021FA009E68602BE049450BDA40F2B0015A
:107450000AF10100C2F2000142F210260880C2F2D5
:10746000000638E048456ADD47F60070C4F23B701C
:1074700040F2B00138660AF10100C2F2000142F2A6
:1074800010260880C2F2000627E040F2AC0100207E
:10749000C2F20001087040F2AE01C2F200010880A1
:1074A0003046FDF74BF904464846FDF747F90146DB
:1074B0002046FDF745FA40F2B002C2F20002118800
:1074C00038660131118042F210260021C2F2000616
:1074D000FDF7F0F808B90020386697F83F00032858
:1074E00009D10BF06DFB7860002038663062F061E6
:1074F00070613061F06097F83E0000281CBF0020EA
:1075000038663C6E002120460025FDF7A9F810B929
:1075100097F8550008B100243D662046FDF753F961
:10752000CBF824004FF08040016841F00101016078
:107530006FF00100CBF8000001B0BDE8F08F386EAD
:10754000C1E7009EC5F804A0AAE797F84F000138EC
:10755000042824D8DFE800F0032B31252000B7F8F9
:10756000044141E097F84F000138042817D8DFE8BC
:1075700000F00327301B1300B7F82A4134E097F8D6
:107580004F00013804280AD8DFE800F0032029144E
:107590000600B7F8DE4027E00020A7F84F00386E5D
:1075A00037E0B7F81C411FE0B7F842411CE0B7F8DC
:1075B0000C4119E0B7F8F64016E0B7F8144113E0B3
:1075C000B7F8324110E0B7F8C6400DE0B7F8E64032
:1075D0000AE0B7F83A4107E0B7F8CE4004E0B7F860
:1075E000EE4001E0B7F8BE40204600F017FC87F8F7
:1075F0003B002046FDF7ABF804460FFA89F0FDF793
:107600009DF801462046FDF79BF92988386601312F
:10761000298000210024FDF74DF8002808BF3C66B2
:10762000C6F8088067E7000040F21040C4F200008E
:107630000168890744BF50F8041C5FEA817100D4D7
:10764000704742F6A841C2F200010A6801320A609E
:107650006FF002010160704710B544F60040C4F2BB
:1076600000000168C168890644BF01685FEA816162
:1076700007D4C168490644BF01685FEA416123D469
:1076800010BD0168416842F6F031C2F20001D0F845
:1076900004C0B1F800E08A880EF10103B3FBF2F4F4
:1076A00004FB12324B889A420AD08A6802F80EC054
:1076B0000A888B880132B2FBF3F404FB13220A80A0
:1076C0004FF482728A81D4E76FF04001016042F684
:1076D000F031C2F200010B8A4A8A934202D10020A3
:1076E000487710BD8B8A541CB4FBF3FCD1F818E02A
:1076F0000CFB13431EF802204B82426010BD0000B9
:1077000010B545F20000C4F200000168C1688906A6
:1077100044BF01685FEA816107D4C168490644BF7C
:1077200001685FEA416123D410BD0168416842F6F7
:107730001441C2F20001D0F804C0B1F800E08A8818
:107740000EF10103B3FBF2F404FB12324B889A42B0
:107750000AD08A6802F80EC00A888B880132B2FB10
:10776000F3F404FB13220A804FF482728A81D4E777
:107770006FF04001016042F61441C2F200010B8A31
:107780004A8A934202D10020487710BD8B8A541C4C
:10779000B4FBF3FCD1F818E00CFB13431EF80220F5
:1077A0004B82426010BD000010B543F60000C4F2E9
:1077B00001000168C168890644BF01685FEA816110
:1077C00007D4C168490644BF01685FEA416121D41A
:1077D00010BD42F63841C2F20001D0F804C0B1F841
:1077E00000E08A880EF10103B3FBF2F404FB1232CD
:1077F0004B889A420AD08A6802F80EC00A888B88A1
:107800000132B2FBF3F404FB13220A804FF48272BC
:107810008A81D6E76FF04001016042F63841C2F23A
:1078200000010B8A4A8A934202D10020487710BD9A
:107830008B8A541CB4FBF3FCD1F818E00CFB134307
:107840001EF802204B82426010BD000010B544F2C9
:107850000040C4F200000168C168890644BF0168A5
:107860005FEA816107D4C168490644BF01685FEAE5
:10787000416121D410BD42F65C41C2F20001D0F852
:1078800004C0B1F800E08A880EF10103B3FBF2F402
:1078900004FB12324B889A420AD08A6802F80EC062
:1078A0000A888B880132B2FBF3F404FB13220A80AE
:1078B0004FF482728A81D6E76FF04001016042F690
:1078C0005C41C2F200010B8A4A8A934202D1002035
:1078D000487710BD8B8A541CB4FBF3FCD1F818E038
:1078E0000CFB13431EF802204B82426010BD0000C7
:1078F00010B544F60000C4F200000168C1688906B2
:1079000044BF01685FEA816107D4C168490644BF8A
:1079100001685FEA416123D410BD0168416842F605
:107920008041C2F20001D0F804C0B1F800E08A88BA
:107930000EF10103B3FBF2F404FB12324B889A42BE
:107940000AD08A6802F80EC00A888B880132B2FB1E
:10795000F3F404FB13220A804FF482728A81D4E785
:107960006FF04001016042F68041C2F200010B8AD3
:107970004A8A934202D10020487710BD8B8A541C5A
:10798000B4FBF3FCD1F818E00CFB13431EF8022003
:107990004B82426010BD0000FEE70000B0B54AF225
:1079A0005A5CA0F882C0033242F6804C80F88420F2
:1079B0008222C2F2000C80F885200A0ABCF810E08E
:1079C00080F88620BCF814200EF10104B4FBF2F517
:1079D00080F8871005FB1241BCF812401A0AA14238
:1079E00080F8882080F8893000F0DF8090F88210DD
:1079F000DCF8182002F80E10BCF81010BCF81420A7
:107A00000131B1FBF2F303FB12114B1CB3FBF2F596
:107A1000ACF8101005FB1232BCF812309A4200F09C
:107A2000C48090F88320DCF818305A54BCF8101049
:107A3000BCF814200131B1FBF2F303FB12114B1C13
:107A4000B3FBF2F5ACF8101005FB1232BCF81230A3
:107A50009A4200F0AA8090F88420DCF818305A543A
:107A6000BCF81010BCF814200131B1FBF2F303FB99
:107A700012114B1CB3FBF2F5ACF8101005FB1232DF
:107A8000BCF812309A4200F0908090F88520DCF823
:107A900018305A54BCF81010BCF814200131B1FB56
:107AA000F2F303FB12114B1CB3FBF2F5ACF8101010
:107AB00005FB1232BCF812309A4276D090F886203C
:107AC000DCF818305A54BCF81010BCF814200131FE
:107AD000B1FBF2F303FB12114B1CB3FBF2F5ACF854
:107AE000101005FB1232BCF812309A425DD090F8AB
:107AF0008720DCF818305A54BCF81010BCF8142059
:107B00000131B1FBF2F303FB12114B1CB3FBF2F595
:107B1000ACF8101005FB1232BCF812309A4244D077
:107B200090F88820DCF818305A54BCF81010BCF8D3
:107B300014200131B1FBF2F303FB12114B1CB3FB18
:107B4000F2F5ACF8101005FB1232BCF812309A4274
:107B50002BD090F88900DCF818205054BCF8101095
:107B6000BCF814000131B1FBF0F29CF81D3002FBAF
:107B70001012012BACF8102008BFB0BDBCF81210D9
:107B800092B2914201D1002009E04A1CB2FBF0F30D
:107B9000DCF8185003FB1022685CACF81220DCF80B
:107BA0002010486001208CF81D00B0BD4EF60C502E
:107BB000BFF34F8FCEF200000168042201F4E061B0
:107BC000C0F2FA5211430160BFF34F8F00BF00BFF4
:107BD00000BF00BFFAE7000040F61440C4F2010005
:107BE0004FF480510160704740F61040C4F201002C
:107BF0004FF4805101607047B0B542F64014C2F2B4
:107C0000000494F8550018B1BDE8B040FFF7E4BF98
:107C10002078012838D194F84200012816D140F28A
:107C2000A805C2F200052878DFE800F003663951A4
:107C30002F0042F6C020C2F200000078022860D077
:107C4000012814BF00200120287007E0FFF7C4FFBF
:107C500042F6C020C2F200000021017094F83E00FC
:107C600090B140F2EE50C2F2000001780131CAB288
:107C7000502A017038BFB0BD0021017042F6C0200B
:107C8000C2F2000002210170B0BDFFF7A5FF42F66D
:107C9000C020C2F20000002101702970DEE7FFF76A
:107CA000A3FF40F2A000C2F20000D0E900120131AF
:107CB00042F10002B1F1140372F10003C0E90012B5
:107CC000CCD3042129700021C0E90011C6E740F29D
:107CD000A000C2F20000D0E90012013142F100021E
:107CE0008B1E72F10003C0E90012B7D30021C0E976
:107CF000001104202870B1E7FFF776FF03202870F9
:107D0000ACE702202870A9E7F0B541F20401C4F203
:107D100002010A68C2F3810341F20022022BC0F281
:107D20007A020CD0002B46D10B6D9B0543D5CB6A54
:107D30009B0144BF46F60042C0F2DC223BE00B68E8
:107D40008C6A1F0C002C1DD40C680B68C4F3834490
:107D5000C3F341731D016E1C0F2C354618BF02255D
:107D6000002B18BF3546FB0705EB040304D00F6852
:107D7000BF0301D45A431EE040F60012C0F23D0298
:107D80005A4318E08B6A8C6AC3F3031E8B6A40F671
:107D9000001CC0F23D0CC4F30824FD0703F00703E8
:107DA00003D00D68AD0358BF94460CFB04F20EFAE5
:107DB00003F3B2FBF3F202600B6812A7C3F30313E1
:107DC000FB5C45F2A607DA4042600B68C0F601078B
:107DD000C3F30223FB5C22FA03F3C3600B68C3F313
:107DE000C223FB5C0427DA4082600B68096807EA5B
:107DF0009363C1F38131194406A3595CB2FBF1F1DD
:107E00000161F0BD00000000000000000102030459
:107E10000607080902040608020C081082B00022B6
:107E200065288DF80720ADF804208DF80320C0F0F8
:107E30008C8042F64011C2F2000191F824101F29F3
:107E400028D3820800214A2A8DF8031050D86422D2
:107E5000ADF804208DF807109DF8071013296DD890
:107E600045F2AE01C0F60101BDF804209DF80330D3
:107E70001A44824266D2BDF804200A32ADF80420CA
:107E80009DF8072001328DF807209DF80720142A5D
:107E9000EAD357E00139132957D881084A298DF8C8
:107EA000032055D86421ADF804108DF807209DF803
:107EB0000710132949D845F2D701C0F6010100BFC8
:107EC000BDF804209DF803301A4482423AD2BDF82E
:107ED00004200A32ADF804209DF8072001328DF805
:107EE00007209DF80720142A4FF00002E8D32CE069
:107EF0004FF49671ADF8041014218DF807109DF819
:107F0000071027291AD845F2AE01C0F6010100BFBB
:107F1000BDF804209DF803301A44824212D2BDF805
:107F200004200A32ADF804209DF8072001328DF8B4
:107F300007209DF80720282AEAD303E045F2AE0186
:107F4000C0F601019DF807000A5C50B202B070470C
:107F50004FF49671ADF8041014218DF807109DF8B8
:107F6000071027291AD845F2D701C0F6010100BF32
:107F7000BDF804209DF803301A448242E2D2BDF8D5
:107F800004200A32ADF804209DF8072001328DF854
:107F900007209DF80720282AEAD3D3E745F2D70126
:107FA000C0F60101CEE700002DE9F04F8DB042F69A
:107FB0004018C2F2000898F8000001281CBF0DB05C
:107FC000BDE8F08F40F2B709C2F2000999F800004D
:107FD00042F6C42A0928C2F2000A02F2FB81DFE855
:107FE00010F00A00E6012F0169014C000C02550255
:107FF000A9014A03D60042F6DE37C2F200073878FC
:10800000DFE810F00900490617062206DA055406D3
:108010005F063806710642F24E20C2F20000027876
:1080200098F84E108A4241F0D58040F23900C2F2F1
:108030000000037898F83D108B4241F0218242F213
:108040004F20C2F20000017898F85620914241F08A
:108050009186B8F81E20B8F81C00824241F056877D
:1080600031B1B8F82020B8F822309A4241F0518757
:10807000002941F0138202F061B842F6E235C2F203
:1080800000052878DFE810F01000A60782079407A3
:108090006707BA07D1079D07FD077907DA07540775
:1080A0007007C3074B078B0740F20E00C2F20000B7
:1080B000037898F8401098F852208B4242F20A2335
:1080C000C2F2000341F0AB811F78974241F0A781D3
:1080D00040F20D00C2F20000027898F841108A4286
:1080E00041F01C8640F20B00C2F20000027898F8C2
:1080F00042108A4241F0C18640F20C00C2F20000F8
:10810000027898F843108A4242F0158040F20A0043
:10811000C2F20000027898F84A108A4242F0868043
:1081200040F20800C2F20000027898F844108A4237
:1081300042F0F58040F20900C2F20000027898F89F
:10814000451043468A4242F0F48040F20600C2F2F3
:108150000000027893F846108A4242F0ED8042F225
:108160000B20C2F20000027893F84C108A4242F0D1
:10817000E68040F20700C2F20000027893F84D104A
:108180008A421ABF01700126002602F0DAB898F878
:108190004E001A2841F0C38042F6D535C2F20005E0
:1081A00028780026DFE810F00C00BA088B08750864
:1081B00040089B08BA08A308BA0880085B0866084C
:1081C00042F24721C2F200010A7842F2462040F210
:1081D0003207C2F200000132C2F2000703780A70CF
:1081E000397898F850600133B142037041F08183CF
:1081F00040F23307C2F200073C7898F84F60B4426F
:1082000041F0F48542F24227C2F200073C88B8F9F7
:108210009260B44241F08687DBB20A2BC1F0E78757
:1082200042F24022C2F200021788D8F8083000213A
:108230000026BB421CBF13800526017001F06EB8FA
:1082400042F6DF35C2F200052878DFE810F00500BD
:10825000980274028D02690242F25420C2F20000B8
:10826000027898F84E108A4240F0588542F2552024
:10827000C2F20000027898F83F108A4240F0AF87BF
:1082800042F25321C2F200010A7898F85400824267
:1082900041F0C882B8F82A10002801F0AD85B8F97D
:1082A0009000814200F0868580B2A8F82A0002245E
:1082B00001F0BDBA42F6D636C2F200063078302858
:1082C00001F21285DFE810F031002E0C060C160CBE
:1082D000B60B570C740C210C8F0CDF0B820CAB0B04
:1082E000D00B670C980B110C860B480C7D0CC40C42
:1082F000520C620CAF0CD90CF70BEA0BFB0C740B95
:10830000E10CEE0C9A0C3B0C9F0C9D0B790B600B57
:10831000650B4E0BF60CBC0CC30B4D0CD10C410B7A
:10832000930BA70C030D5B0BA20B05F057F805464A
:1083300001F0EDBE98F84E0042F6D7371A28C2F287
:10834000000700F0C181022841F0E284387801285A
:1083500000F03D84002841F0DB84D8F8040098F94F
:108360003B1098F93A200844801AFCF7F0F90021F4
:1083700098F84D40CCF248210546FCF7E7F8064650
:108380000021012C18BF2E46C4F2C8213046FCF74C
:1083900067F900281CBF0026C4F2C8263046FCF747
:1083A000F9F940F21401C2F2000140BAA4E198F8D0
:1083B0004E001A2800F24283012106228140C0F2B9
:1083C0000042114200F03A8398F83C10002900F076
:1083D0009C81012940F0328398F83D1029B942F67A
:1083E000E032C2F200020123137098F83F20032A02
:1083F00040F00B8398F826101EE342F6D435C2F203
:10840000000529780220DFE811F00F00570E220541
:108410003105FE044C05660540057E05160572050E
:10842000D8040A055A05AF0440F20400C2F2000065
:10843000027898F88D108A4240F0ED87501E03288C
:1084400001F21F86DFE810F00400050EC80DEC0DE8
:10845000B8F81C00B8F89610884241F01486B8F8B5
:108460002200B8F8AE10884241F00D8698F824003A
:10847000B8F89810814241F00686B8F82800B8F89C
:108480009A10884241F0FF8501F0FBBD42F6E635C7
:10849000C2F2000529780120DFE811F00600B901D9
:1084A0007C018401D801D70198F84000012803D04D
:1084B000022842F0B5801A2042F68041C2F2000143
:1084C0000B8A8A8A5F1CB7FBF2F606FB12774E8A8C
:1084D00040F28802C2F20002B742507202F09E805F
:1084E00017788E69F7540B8A8F8A0133B3FBF7F63E
:1084F00006FB17335E1CB6FBF7F40B8204FB176711
:108500004E8AB74202F08A8057788E69F7540B8AF8
:108510008F8A0133B3FBF7F606FB17335E1CB6FBFD
:10852000F7F40B8204FB17674E8AB74202F076809D
:1085300097788E69F7540B8A8F8A0133B3FBF7F66D
:1085400006FB17335E1CB6FBF7F40B8204FB1767C0
:108550004E8AB74202F06280D7788E69F7540B8A50
:108560008F8A0133B3FBF7F606FB17335E1CB6FBAD
:10857000F7F40B8204FB17674E8AB74202F04E8075
:1085800017798E69F7540B8A8F8A0133B3FBF7F69C
:1085900006FB17335E1CB6FBF7F40B8204FB176770
:1085A0004E8AB74202F03A8057798E69F7540B8AA7
:1085B0008F8A0133B3FBF7F606FB17335E1CB6FB5D
:1085C000F7F40B8204FB17674E8AB74202F026804D
:1085D00097798E69F7540B8A8F8A0133B3FBF7F6CC
:1085E00006FB17335E1CB6FBF7F40B8204FB176720
:1085F0004E8AB74202F01280D7798E69F7540B8AFF
:108600008F8A0133B3FBF7F606FB17335E1CB6FB0C
:10861000F7F40B8204FB17674E8AB74201F0FE871E
:10862000177A8E69F7540B8A8F8A0133B3FBF7F6FA
:1086300006FB17335E1CB6FBF7F40B8204FB1767CF
:108640004E8AB74201F0EA87527A8F69FA540B8A50
:108650008A8A0133B3FBF2F74E7F07FB1237012EF4
:108660000F8201F0DB874B8ABFB2BB4241F0CA8761
:10867000002201F0CFBF42F6D836C2F200063078B1
:10868000DFE810F0080077025602610247027F021D
:108690008B026C02544642F24D2AC2F2000A9AF84A
:1086A000000098F84D20471CD8F8040098F93B10BA
:1086B000012A8AF8007040F0F28498F93A200844C0
:1086C000801A323800F0EFBC3878012800F08E8232
:1086D000002841F01D83D8F8040098F93B1098F960
:1086E0003A200844801A652838BF642040F21401FB
:1086F00000BAC2F20001000C888102200E220CF0A8
:10870000A1FB3878013001F004BB98F82410002256
:10871000C8F8181042F6E031C2F200010A708DE18B
:1087200098F84E00012800F02B83022840F0428385
:1087300045F2120126E398F84E00022800F0288343
:10874000012840F0378398F83F00DAF804710228D6
:108750000CBFB8F83830B8F8903042F6C420C2F2F6
:10876000000045F2080123E398F84E00012800F0CC
:108770003283022840F0778346F203112DE398F804
:108780004E00012800F03383022840F07B8346F23C
:1087900003112EE3DAF8047198F85230504645F28E
:1087A0003C0109E042F6E730C2F20000DAF8047159
:1087B0000378504645F249010222B847012198F852
:1087C0004E0029700E2841F0E98598F83F0098F88E
:1087D0004D10022818BF012941F0F78542F6E33217
:1087E000C2F200021378002B41F0EF8501231370D1
:1087F00042F6E432C2F20002117042F6E531C2F2F2
:1088000000010870002088F83F0001F0DCBD98F8F6
:108810005200002800F0C08442F25C2098F84E100C
:10882000C2F200000288142904BF0132028092B211
:10883000012A08D0142902D1B2F5C87FBED3002185
:10884000018088F852100221B9E71A2042F68041CF
:10885000C2F200010B8A8A8A5F1CB7FBF2F606FBA4
:1088600012774E8A40F28802C2F20002B74250727A
:1088700001F0908517788E69F7540B8A8F8A01333F
:10888000B3FBF7F606FB17335E1CB6FBF7F40B825F
:1088900004FB17674E8AB74201F07C8557788E69D2
:1088A000F7540B8A8F8A0133B3FBF7F606FB1733B5
:1088B0005E1CB6FBF7F40B8204FB17674E8AB742C7
:1088C00001F0688597788E69F7540B8A8F8A013397
:1088D000B3FBF7F606FB17335E1CB6FBF7F40B820F
:1088E00004FB17674E8AB74201F05485D7788E692A
:1088F000F7540B8A8F8A0133B3FBF7F606FB173365
:108900005E1CB6FBF7F40B8204FB17674E8AB74276
:1089100001F0408517798E69F7540B8A8F8A0133ED
:10892000B3FBF7F606FB17335E1CB6FBF7F40B82BE
:1089300004FB17674E8AB74201F02C8557798E6980
:10894000F7540B8A8F8A0133B3FBF7F606FB173314
:108950005E1CB6FBF7F40B8204FB17674E8AB74226
:1089600001F0188597798E69F7540B8A8F8A013345
:10897000B3FBF7F606FB17335E1CB6FBF7F40B826E
:1089800004FB17674E8AB74201F00485D7798E69D8
:10899000F7540B8A8F8A0133B3FBF7F606FB1733C4
:1089A0005E1CB6FBF7F40B8204FB17674E8AB742D6
:1089B00001F0F084177A8E69F7540B8A8F8A01339D
:1089C000B3FBF7F606FB17335E1CB6FBF7F40B821E
:1089D00004FB17674E8AB74201F0DC84527A8F6934
:1089E000FA540B8A8A8A0133B3FBF2F74E7F07FBF6
:1089F0001237012E0F8201F0CD844B8ABFB2BB42E9
:108A000041F0BC84002201F0C1BC12F0FD0F15D171
:108A100001290FD198F84A1001290BD142F6E03113
:108A2000C2F200010978012904D198F858100029F0
:108A300001F07D8398F82410C8F8181042F6E1354B
:108A4000C2F200052978DFE801F004472C352152F5
:108A50005B0042F25821C2F200010A78824240F0E3
:108A60006E8198F83F10032900F0E686002940F057
:108A7000648742F25621C2F200010A78012A41F0CD
:108A8000808100200870042600F058BFDAF80471D5
:108A9000504645F2040102220023B847052600F0A3
:108AA0004DBF012800F0A483022840F0BB8346F2AA
:108AB000F3019FE3022800F0A483012840F03D87E2
:108AC000DAF80471B8F81830504645F20E01022267
:108AD000B847062600F032BFDAF80471504645F276
:108AE0000401022201230226B84700F027BF012813
:108AF00000F08F83022840F0958346F2F3018AE369
:108B0000DAF80471B8F81830504645F20C0100F05C
:108B100012BF98F83F000025002800F08684032843
:108B200000F08284022841F0F282012500F07DBC31
:108B3000DAF80471504645F20501022200230025AF
:108B4000B84701F0E4BA98F83C00DAF80471B0FADA
:108B500080F04309504645F2020119E042F2283004
:108B6000C2F20000DAF804710378504645F20A01B7
:108B70000EE0DAF80471504645F2050102220123A5
:108B800007E0DAF8047198F83E3050464FF4A041FF
:108B90000222B847002501F0BABA42F22830C2F2E8
:108BA0000000DAF804710378504645F20901022208
:108BB000B847072501F0ABBADAF80461504645F230
:108BC000030102220023B047052500F068BC98F895
:108BD0003C0020B1012841F09B80D8F8180040F2F9
:108BE0002201C2F20001487301F08EB898F85000DB
:108BF000002800F09783012841F08A8098F88C00C3
:108C0000032801F28580DFE810F00400720954099E
:108C1000630998F84F000138032801F27980DFE8F2
:108C200010F00400720B5D0B690B98F8BA4001F06C
:108C300066B898F84E00012800F07D83022840F0C5
:108C4000E68346F2C30178E398F84E00022800F06C
:108C50007D83012871D142F6DC30C2F20000DAF8DF
:108C600004610388504645F207010222B0470725F8
:108C700000F015BC98F84100012800F06F8300282F
:108C800040F00C8449F6991549F69A16C3F6D97541
:108C9000C9F699166AE3DAF80461504645F2030111
:108CA000022201230225B04700F0F9BB98F84E00DC
:108CB000012800F06F83022840F0AB8346F2C30125
:108CC0006AE398F84E00022800F06F83012834D13F
:108CD000DAF80461B8F80830504645F2070102227C
:108CE000B0470825DBE398F84100002800F06783CF
:108CF000012840F0D383D8F80800DAF80441B0F531
:108D0000697F80F27A83FBF727FD47F6E1224EF276
:108D10004713CAF61462C3F6CA7361E398F8543075
:108D200098F83F200124002B08BF03240127022AC2
:108D300008BF3C46017000F07ABD0025B1E3421E39
:108D4000012A01F24E8098F83F20032A01F03D806D
:108D5000002A41F046800122A8F8582042F2592208
:108D6000C2F2000201F03BB898F88D30DAF80471D5
:108D7000504645F254010222B847002001F09CB948
:108D800045F20801DAF80471B8F8283050460FE0CF
:108D900098F83F00DAF8047102280CBFB8F83830B0
:108DA000B8F8903042F6C420C2F2000045F2120139
:108DB0000222B847002400F03ABD98F8410001288B
:108DC00000F05985002840F06F85DAF80471B8F892
:108DD000A83000F054BD46F23301DAF80471504671
:108DE00002224FF6FF73B847042400F020BD46F27C
:108DF0003301DAF804715046022244F2507302241F
:108E0000B84700F014BDDAF80471B8F89A3050464B
:108E100045F217010222B847052001F04DB9DAF8F2
:108E20000471B8F8AA30504645F21F010222B84733
:108E30000D2001F041B9DAF80471B8F8A4305046B9
:108E400045F21C010222B8470A2001F035B998F812
:108E50004100002800F01B85012840F0418508F101
:108E6000AE0000F016BD042400F0E1BCDAF8047195
:108E7000B8F89830504645F216010222B84704204F
:108E800001F01AB9022400F0D2BCDAF80471B8F883
:108E9000A030504645F21A010222B847082001F0DE
:108EA0000BB998F84100012800F00185002840F036
:108EB0001A85DAF80471B8F89C3000F0FCBCDAF8D6
:108EC0000471B8F8AC30504645F220010222B84790
:108ED0000E2001F0F1B8DAF80471B8F89E3050466F
:108EE00045F219010222B847072001F0E5B8DAF887
:108EF0000471B8F8A630504645F21D010222B84769
:108F00000B2001F0D9B898F84100002800F0DB846C
:108F1000012840F0EB8408F1B20000F0D6BCDAF88A
:108F20000471B8F83630504645F2340100F003BD04
:108F300042F25E20C2F2000040F240010078C2F22C
:108F400000010026887102200922A1F807600BF0B9
:108F500079FF00F0F3BCDAF8047198F8433050461A
:108F600045F2300100F0E7BCDAF8047198F84C30B3
:108F7000504645F2380100F0DEBCDAF8047198F88A
:108F80004A30504645F2450100F0D5BCDAF804718C
:108F900098F84130504645F22E0100F0CCBCDAF88A
:108FA000047198F84D30504645F23E0100F0C3BCC4
:108FB000DAF8047198F84230504645F22F0100F07B
:108FC000BABCDAF8047198F84630504645F23201DE
:108FD00000F0B1BC98F8400098F84D10012808BF87
:108FE000012900F08984012808BF002900F0B88613
:108FF000022840F0BD86022300F0B3BEDAF8047107
:1090000098F84430504645F2310100F094BC98F88D
:109010004100012800F07284002840F09484DAF8BE
:109020000471B8F8323000F078BCDAF8047198F8BE
:109030004530504645F2440100F07DBC42F6EE302A
:10904000C2F20000007840F2940142F6EC320028AF
:1090500018BF0520C2F20001C2F2000212780872A5
:1090600042F6EA30C2F20000002A18BF042200785B
:10907000CA718871022009220BF0E4FE0B2600F071
:109080005DBC98F84100012800F04E84002840F0B3
:109090005484DAF80471B8F81C3000F049BC98F92F
:1090A0003A200844801A98F84010012913D198F802
:1090B0003F10032909D098F83D10002900F03186AF
:1090C00098F84A10002900F02C86002042F228313E
:1090D000C2F20001087040F23700C2F200000278CC
:1090E00098F83C10CB4642F249298A42C2F2000964
:1090F0004ED140F23800C2F20000027898F83F10DA
:109100008A4240F09B8140F23600C2F200000278B1
:1091100098F83E108A4240F0208642F24A20C2F27D
:109120000000027899F800108A4240F0B28642F2BC
:109130004B2042F22831C2F20000C2F20001027854
:109140000B789A4241F0168042F24C20C2F20000A5
:109150000578D8F86000FBF71DFB46F669514843D7
:10916000000E85424FF0000500F09886F9B21029F4
:10917000C0F0948698F84E108AF80050012940F00B
:109180008D8642F24C21C2F20001087001F001B854
:109190000170032500F082BE42F6E730C2F2000003
:1091A0000178012940F04E8142F25C22C2F20002B5
:1091B00011884B1C9FB200294FF0010108BF032109
:1091C000C82F1380FFF4FBAA002111800170032136
:1091D000FFF7F5BA4A1E012A40F256815DE10324E9
:1091E000022908BF0124002918BF012101701EE3D4
:1091F00046F26301DAF804715046022243F67F43D7
:109200000FE0DAF80471B8F81830504645F2110151
:1092100091E346F26301DAF80471504602224FF6F8
:10922000FF73B847032689E398F88C00032800F2FF
:109230007580DFE810F004001006EC05FE0598F8D4
:109240004F000138032869D8DFE810F004002F0828
:1092500005081D08DAF80471B8F8BA3058E0DAF8F1
:109260000471504646F2930102224FF6FF73B8474D
:109270000B20287098F85000002800F0F780012893
:109280004BD1DAF80471B8F89230504645F24101FA
:1092900041E0DAF8047198F84F30504645F2430146
:1092A0000222B847042639E0DAF80471504646F243
:1092B0009301022244F25073B8470B262EE0DAF8ED
:1092C000047198F85030504645F242010222B847E6
:1092D00098F850000A26012808BF09261EE0DAF88F
:1092E0000471B8F80830504645F23F0113E0D8F851
:1092F000081098F83C0098F82730DAF80471B8F8AC
:1093000018204529D8BF1346012818BF13469BB221
:10931000504645F240010222B84700262E70002038
:1093200001F056B8D8F804004728C0F0DF8498F858
:10933000274000F0E4BC46F20301DAF8046150462D
:1093400002224FF66043B0470325A8E042F6DC3026
:10935000C2F20000DAF8046103882AE04EF24715F1
:1093600047F6E126C3F6CA75CAF6146642F6DC3043
:10937000C2F200000088DAF80441FBF7FEF9024669
:109380000B4630462946FAF7B6FFFBF730FA03469C
:1093900050462EE046F20301DAF8046150460222FC
:1093A0004FF6FF73B047062579E0DAF80461B8F8A4
:1093B0000830504645F210010222B0476EE0D8F85E
:1093C0000800DAF80441B0F5FA7F16DAFBF7C4F9C1
:1093D00049F69A1249F69913C9F69912C3F6D97348
:1093E000FAF789FFFBF703FA034642F6C420C2F2FC
:1093F000000045F20B01022207E042F6C420C2F24F
:10940000000045F20B010222C823A04746E00325D5
:1094100047E0062545E001700E2000F037BE0170E0
:109420001A70012600F08EBF0225DAF8047150464A
:1094300045F2010102222B46FFF7ABBB0170042568
:1094400000F02CBD98F84E0098F84010282808BF6E
:10945000012900F0CF8402294FF0010108BF052146
:109460000122282818BF1146FFF7A9B9DAF80471BC
:10947000504645F24101022200230026B8474DE73D
:10948000013A012A09D841B90122A8F8562042F22E
:109490004F22C2F20002002313700170002598F8D9
:1094A0004E001A283D7000F2B781012101FA00F048
:1094B0000621C0F20041084200F0AE8198F8414018
:1094C00024B1012C0AD108F1220001E008F11C00AE
:1094D000008842F6DC31C2F200010880D8F804703E
:1094E00098F93B0098F93A103844401AFBF72FF9E5
:1094F000002198F84D6098F84090CCF2482105463C
:10950000FBF724F8B9F1010F18BF2846012E18BF48
:109510002846012C63D0002C40F07E81FBF73AF9FD
:109520000546C8F8080098F83D0098F84A2080F0F1
:10953000010082F0010298F83F101043B0FA80F069
:109540004009033918BF012100EA010640F29303E4
:10955000012EC2F2000340F0B28042F6DA30C2F2CD
:1095600000000C960078464642F6DB38C2F200084E
:109570001C78002818BF3F1B98F80000B760013026
:1095800088F80000C0B2FBF7F8F88246B08B8B4633
:10959000FBF7F3F849F69A1249F69913C9F69912AE
:1095A000C3F6C973FAF7A7FE52465B46FBF790F87D
:1095B000002840F0BC80002088F80000012C88BF03
:1095C000A01E42F6401842F6C42A0C9E40F29303B5
:1095D000C2F20008C2F2000AC2F2000387E046F2BB
:1095E0006761C3F6E671FBF709F84FF08441FAF7BB
:1095F000ADFFFBF7CFF8054698F83D0098F84A20F4
:1096000080F0010082F0010298F83F101043B0FA98
:1096100080F04009033918BF012100EA010BBBF1BA
:10962000010FC8F8085064D14CF6CD4107EBC700D4
:10963000CCF6CC41A0FB010142F6DA30C2F20000C8
:10964000007840F2930342F6DB368A08C2F2000348
:10965000C2F20006474693F80080002818BFC8EB06
:109660009102307802F1200401303070C0B2BC6049
:10967000FBF783F88246B88B0F46FBF77EF849F676
:109680009A1249F69913C9F69912C3F6B973FAF703
:1096900032FE52463B46FBF71BF8002879D10020EA
:1096A0003070B8F1050F88BFA8F1060042F64018E7
:1096B00042F6C42AC2F20008C2F2000A31E042F6C1
:1096C000D930C2F2000001780131CAB20B2A017010
:1096D00005D342F6DA30C2F200000121017042F6F1
:1096E000DB30C2F200000021017032202F461870DA
:1096F00026E042F6D930C2F2000001780131CAB248
:109700000B2A017005D342F6DA30C2F200000121C3
:10971000017042F6DB30C2F20000002101705A20D5
:109720002C4640F29301C2F20001087039E042F683
:10973000401842F6C42A0C9EC2F20008C2F2000A87
:10974000B9F1020F04BFC8F808502F46B8F89400CA
:109750008742BCBFC8F808000746B9F1010F5BD1CA
:1097600098F84300012857D1B8F81C00002200F1F6
:1097700014018F424FF0000128BF0121A0F1140312
:109780009F42D8BF01221143314308BFC8F80800E7
:1097900042E042F6401842F6C42AC2F20008C2F281
:1097A000000AB8F8940043F2343100EBC000C3F271
:1097B0003331A0FB010101F12000B9F1020F08BF14
:1097C0002C4684420146C8BF2146B9F1020F04D09D
:1097D0008442B8BFC8F8081001E0C8F80810B9F111
:1097E000010F19D198F84300012815D1B8F82200CB
:1097F000002300F1240291424FF00002A0F124075F
:1098000028BF0122B942D8BF012342EA030151EA2D
:109810000B0101D1C8F8080040F2B709C2F20009F3
:1098200000F0D3BD0124002808BF0324087099F874
:1098300000002C7000F0CBBD42F25620C2F20000B6
:109840000178002900F0CF8242F25720C2F20000D6
:10985000027898F826108A426FD040F23E02C2F297
:1098600000021388013B1F04138066D10823138074
:109870000170032662E0DAF80471B8F8B43050469B
:1098800045F21E010222B8470C2000F015BC08F179
:109890009600DAF804710388504645F21501022259
:1098A000B847032000F008BC0C2000F005BCDAF833
:1098B0000471B8F8B030504645F218010222B8479A
:1098C000062000F0F9BB08F1A200DAF80471038861
:1098D000504645F21B010222B847092000F0ECBBBC
:1098E000032000F0E9BB062000F0E6BB092000F0F1
:1098F000E3BB3E70022611E5002332E2B8F83200E5
:1099000043F2343100EBC000C3F23331A0FB01015C
:10991000DAF8047101F1200083B2504645F23301B8
:109920000222B8470E2609E0DAF80471B8F82230AE
:10993000504645F235010222B847002699F800004A
:109940002E7000F044BD0E26F8E798F8410001287B
:1099500000F0F482002840F0D883DAF80471B8F8F7
:109960003A31BDE398F84100012800F0EC8200286C
:1099700040F0CB83DAF80471B8F82A3128E3DAF83A
:109980000471B8F846317CE1DAF80471B8F8203196
:1099900077E1DAF80471B8F82231504645F22D012A
:1099A0000222B84798F85250002D18BF2525AEE383
:1099B000DAF80471B8F80A3146E198F84100012854
:1099C00000F0C682002840F0A083DAF80471B8F8ED
:1099D0001C3195E398F84100012800F0BE82002870
:1099E00040F09383DAF80471B8F8E63080E3DAF8EF
:1099F0000471B8F83E310AE1DAF80471B8F8E230DF
:109A000061E1DAF80471B8F81A3108E1DAF80471A2
:109A1000B8F84831504645F22D01FFF7B9B8DAF8E9
:109A20000471B8F8D230504645F22C010222B847F2
:109A30000C256CE398F84100012800F0938200287F
:109A400040F0BB82DAF80471B8F8BE308EE298F8C4
:109A50004100012800F09182002840F05683DAF896
:109A60000471B8F8323143E3DAF80471B8F8D4304D
:109A7000504645F22D010222B84798F85250002D69
:109A800018BF0D2543E3DAF80471B8F8CC3050461E
:109A900045F22A010222B8470A2538E398F8410026
:109AA000012800F06F82002840F02F83DAF804715B
:109AB000B8F804318CE2DAF80471B8F8FC3050469A
:109AC00045F22D010222B84798F85250002D18BFD8
:109AD00019251CE3DAF80471B8F8BA30504645F29B
