:020000040800F2
:10400000A030002085410008554A0008514A0008A8
:10401000534A00084D4A00085D780008000000007F
:10402000000000000000000000000000B16B00086C
:104030004F4A000800000000B1550008B56B0008A9
:104040009F4100089F4100089F4100089F410008D0
:104050009F4100089F4100089F4100089F410008C0
:104060009F4100089F4100089F4100089F410008B0
:104070009F4100089F4100089F4100089F410008A0
:104080009F4100089F4100089F4100089F41000890
:104090009F4100089F4100089F4100089F41000880
:1040A0009F4100089F4100089F4100089F41000870
:1040B000217200086D7600089F4100089F410008AA
:1040C0009F4100089F4100089F4100089F41000850
:1040D0009F41000849770008A1770008FD77000894
:1040E0009F4100089F4100089F4100080000000018
:1040F00000000000000000000000000000000000C0
:10410000000000009F4100089F41000800000000DF
:1041100091760008ED760008000000000000000025
:104120009F4100089F4100089F4100089F410008EF
:10413000000000000000000000000000000000007F
:104140000000000000000000000000009F41000887
:1041500000000000000000009F4100089F4100088F
:104160000000000000000000000000009F41000867
:10417000DFF80CD000F0A0F90048004785C5000822
:10418000A03000200648804706480047FEE7FEE7CB
:10419000FEE7FEE7FEE7FEE7FEE7FEE7FEE7FEE7F7
:1041A000AD710008714100082DE9FE4F804681EA9B
:1041B0000300C00F0C46009021F0004123F00045A1
:1041C000B8EB0200A94105D24046214690461C4664
:1041D0000B46024623F00040104347D0270DC7F39B
:1041E0000A00C3F30A510290401A019040286BDA8A
:1041F000C3F3130040F4801B0098924620B10023C3
:10420000D2EB030A63EB0B0B01985946C0F1400255
:10421000504600F069F906460D4650465946019A47
:1042200000F081F910EB08006141002487EA115287
:1042300084EAE7731A4340D0009A62B3019A012AD4
:104240004FEA075215DC001B61EB02014FF0004200
:1042500002EA0752CDE90042001C41F580113246C6
:104260002B4600F081F903B0BDE8F08F40462146AF
:10427000F9E7001B61EB0201001C41F580130018F7
:104280005B412018A2F5001747EB030140EAD57007
:10429000B6196D4111E06D084FEA360645EAC07562
:1042A0004FEA0752001B61EB0201001C41F580112F
:1042B00049084FEA30000019514132462B4603B0FD
:1042C000BDE8F04F00F041B9009801224000002302
:1042D000D0EB020263EBE073009821464FEAE074F2
:1042E000B8EB000061EB0401E9E783F000435BE712
:1042F00081F0004158E72DE9FE4F81EA030404F004
:10430000004421F0004100944FF0000B23F00043E3
:1043100050EA01045ED052EA03045BD0C3F30A54AE
:10432000C1F30A552C44A4F2F3340194A0FB0254C7
:10433000C1F3130141F48011C3F3130343F4801359
:1043400001FB024400FB034E840A970A44EA8154AD
:1043500047EA8357A4FB076802958D0A05FB07858A
:104360004FEA932C04FB0C542705029D4FEA065894
:1043700047EA1637B5EB08056EEB070C870E920E71
:1043800047EA811742EA8312A7FB0201B6EB0B0151
:1043900064EB00042B0D43EA0C335E1844EB1C5015
:1043A000DA465146E7FB0201C5F313044FEA0B332B
:1043B00043EA14534FEA0432019C43EA0603A4F192
:1043C0000C040294009CCDE900B400F0CDF803B0D9
:1043D000BDE8F08F00200146F9E72DE9F04D81EAB4
:1043E000030404F0004B21F0004514464FF0000A8E
:1043F00023F0004150EA050220D054EA01021DD00A
:10440000C5F30A570246C5F31303C1F31300C1F302
:104410000A5640F4801543F48013A7EB0608101BDE
:10442000D64608F2FD3873EB050002D308F1010807
:1044300001E092185B41B8F1000F03DA0020014659
:10444000BDE8F08D00204FF48011064684460EE052
:10445000171B73EB050705D3121B63EB050306431C
:104460004CEA010C49084FEA300092185B4150EACF
:104470000107EDD152EA030012D082EA040083EA78
:104480000501084305D0101BAB4106D201220023D1
:1044900006E000224FF0004302E06FF001025310EB
:1044A0001AEB06004CEB085110EB0A0041EB0B0134
:1044B000BDE8F04D00F049B81CB509480090094826
:1044C00001900546009C06E0E06840F0010394E896
:1044D000070098471034AC42F6D3FFF74DFE0000BA
:1044E00014EA000834EA0008202A04DB203A00FA23
:1044F00002F1002070479140C2F1200320FA03F33B
:10450000194390407047202A04DB203A21FA02F038
:104510000021704721FA02F3D040C2F120029140FD
:10452000084319467047202A06DBCB17203A41FA88
:1045300002F043EAE07306E041FA02F3D040C2F130
:104540002002914008431946704710B5141E73F1BC
:10455000000408DA401C41F1000192185B411A4343
:1045600001D120F0010010BD2DE9F04D92469B468F
:1045700011B1B1FA81F202E0B0FA80F22032904635
:10458000FFF7B2FF04460F4640EA0A0041EA0B017A
:1045900053465A46084313D0114653EA010019D036
:1045A000C8F140025046FFF7AEFF05460E465046A2
:1045B00059464246FFF798FF084305D0012004E022
:1045C00020463946BDE8F08D0020054346EAE076F6
:1045D0002C4337430A986305E40AA0EB0800002245
:1045E000FD0A44EA47540A3002D500200146E9E7B3
:1045F000010510196941DDE9084500196941BDE867
:10460000F04DA2E7D2B201E000F8012B491EFBD227
:1046100070470022F6E710B513460A4604461946CD
:10462000FFF7F0FF204610BDF0B480EA0102D40F7E
:104630004200B2EB410F02D20246084611464A0040
:1046400042D0C30DDDB2C1F3C752AD1A202D35DA09
:10465000C1F3160141F4000204B15242C5F1200633
:1046600002FA06F12A411044B3EBD05F23D0C4B163
:10467000012DA0EBC35009DCF0BC4FF0004202EA70
:10468000C352DBB200F5000000F0B2B9400000F107
:10469000807000EBC350A0F1807040EAD1704900F7
:1046A00009E0490841EAC071A0EBC35000F50000E1
:1046B000400800EBC350F0BC00F091B96142012208
:1046C00002EB4101001BF6E7F0BC704781F00041AE
:1046D000AAE780F00040A7E780EA010210B502F0E7
:1046E0000043400022D04A001FD0010E01EB1261AE
:1046F000C0F35600C2F3560240F4000042F4000238
:10470000A0FB022000047F39140400D0401C50EAB2
:10471000124001D44000491EC2B20C0604EBD01076
:10472000401C4008802A02D003E0002010BD20F089
:104730000100002900DA0020184310BD30B480EADF
:10474000010202F0004530F0004221F0004013D099
:1047500090B1C30DD40DC2F31601C0F31600E41AD4
:1047600041F4000140F400027D34914201D3641C05
:1047700000E04900002C02DA30BC002070474FF402
:1047800000000023914201D3891A034340084FEAF5
:104790004101F7D151B1914202D14FF0004105E002
:1047A00002D24FF0010101E06FF0010103EBC450B0
:1047B000284430BC00F013B9002801DBC0F10040F0
:1047C000002901DBC1F10041814201D8012070477D
:1047D00000207047002801DBC0F10040002901DB08
:1047E000C1F10041814201D2012070470020704791
:1047F000002801DBC0F10040002901DBC1F10041CC
:10480000814201D30120704700207047002801DB5E
:10481000C0F10040002901DBC1F10041814201D912
:10482000012070470020704730B5041E71F100046C
:1048300004DB4FF00044404264EB0101141E73F1AD
:10484000000405DB1C464FF00043524263EB0403B7
:10485000801A994101D2012030BD002030BDC10F26
:1048600080EAE0700844CA079623002100F0C0B82F
:1048700096230022114600F0BBB80EB5C10F80EAA6
:10488000E0700844CA07002140F233438DE80E006F
:104890000A460B46FFF768FE03B000BD0EB540F2B6
:1048A000334102910021CDE900110A460B46FFF782
:1048B0005BFE03B000BD00F0004220F00040C10DDF
:1048C000C0F3160040F400007F2901DA0020704791
:1048D000962903DCC1F19601C84001E09639884071
:1048E000002AF4D04042704720F00040C10DC0F3D0
:1048F000160040F400007F2901DA00207047962955
:1049000003DCC1F19601C840704796398840704772
:1049100070B5C1F30A5201F000450024C1F3130140
:1049200040F2FF3341F480119A4201DA002070BD59
:1049300040F233439A42A2F2334203DC5242FFF781
:10494000E2FD00E090402C43F1D0404270BDC1F345
:104950000A5210B5C1F3130140F2FF3341F4801144
:104960009A4201DA002010BD40F233439A42A2F28B
:10497000334203DC5242FFF7C6FD10BD904010BD2C
:1049800000F0004230F000400AD0C10D01F5607126
:10499000C0F3160042EA0151C208400711437047B4
:1049A00000200146704701F0004330B421F000417F
:1049B00050EA010206D00A0DA2F56072C1F313019C
:1049C000002A02DC30BC00207047440F44EAC104D6
:1049D000C100E01830BC00EBC250AFF300800029EA
:1049E000A8BF7047401C490008BF20F00100704775
:1049F00010B4B0FA80FC00FA0CF050EA010404BFD5
:104A000010BC704749B1CCF1200421FA04F411FA2A
:104A10000CF118BF012121430843A3EB0C01CB1D6E
:104A20004FEA00614FEA102042BF002010BC7047DF
:104A300000EBC35010440029A4BF10BC7047401CB9
:104A4000490008BF20F0010010BC7047FEE7704726
:104A5000FEE7FEE770470222D0F804412047218993
:104A600040F2E73309BA0A0C9A42704780F889107D
:104A7000002180F82310C18390F84110002970476D
:104A8000A6F8B200A4F178002847A6F8A800A4F17F
:104A90007A002847A6F8A600A4F17C002847A6F8CB
:104AA000A400A4F17E002847A6F8A200A4F180008B
:104AB0002847A6F8A000A4F182002847A6F89E0087
:104AC000A4F184002847A6F89C00A4F1860028479A
:104AD000A6F89A00A4F188002847A6F89800A4F147
:104AE0008A002847016841F008010160016841F02F
:104AF00004010160016821F400710160016821F482
:104B000080610160816821F480718160816821F495
:104B100000718160016841F020010160016841F08D
:104B200040010160016841F4005101607047A6F83E
:104B30009600A4F18C002847A6F89400A4F18E00FA
:104B40002847A6F89200A4F19000284786F84D0067
:104B5000A4F19400284786F84B00A4F1960028475A
:104B600086F84900A4F19800284786F84800A4F187
:104B70009A00284786F84600A4F19C00284786F84A
:104B80004500A4F19E00284786F84400A4F1A00047
:104B9000284740F00800F060F06840F00400F06042
:104BA000F06820F40070F060F06820F48060F0603D
:104BB000706920F480707061706920F40070706119
:104BC000F06840F02000F060F06840F04000F060D5
:104BD000F06840F40050F060704786F84300A4F19C
:104BE000A200284786F84200A4F1A400284786F8CE
:104BF0004100A4F1A6002847A6F88A00A4F1A80065
:104C0000284786F84000A4F1AA00284786F8360015
:104C1000A4F1AE00284786F82400A4F1B00028478C
:104C200086F82200A4F1B200284786F84C00A4F1CF
:104C300092002847208CFFF71BBE80F82310C18309
:104C400090F8411000297047022180F84C107047FD
:104C5000C7F80211294602F09DBEA08BFFF708BEDF
:104C60004FF04241A064FFF7DFBC4FF04241A06526
:104C7000FFF7DABC018C40F27D3301F12602994244
:104C80007047206820F00100206010BD90F8462099
:104C90000021A8F81710002A7047BDF80C209DF8D5
:104CA0000B301A4482427047A6F8680104F12000D4
:104CB00028470121A0F85710A0F85A10002180F8C9
:104CC000231090F8221070473146ADF81150039030
:104CD0007047A6F8660104F11A002847A6F8640197
:104CE00004F118002847A6F8620104F116002847CD
:104CF000A6F8600104F114002847A6F85E0104F14B
:104D000012002847A6F85C0104F110002847A6F815
:104D10005A0104F10E002847A6F8580104F10C00CE
:104D20002847A6F8560104F10A00284785F88900AB
:104D3000002085F82300E88395F84100002870479B
:104D40000124A0F85A4090F83B40032C7047A0F88B
:104D50009E50A0F82651A0F800517047A6F85401C3
:104D600004F108002847012180F84C107047A6F88C
:104D70004401A4F108002847A6F84201A4F10A0062
:104D80002847A6F83E01A4F10C002847A6F83C01EC
:104D9000A4F10E002847A6F83A01A4F11000284714
:104DA000C9B208F015BD95F8410001287047A6F872
:104DB0003601A4F112002847A6F83401A4F114002A
:104DC0002847A6F83201A4F116002847A6F82E01BC
:104DD000A4F118002847A6F82C01A4F11A002847CE
:104DE000A6F82A01A4F11C002847A6F82601A4F180
:104DF0001E002847A6F82401A4F120002847A6F8A1
:104E00002201A4F122002847A6F82001A4F12400E1
:104E100028479BF8410001287047A6F81E01A4F11D
:104E200026002847A6F81C01A4F128002847A6F868
:104E30001801A4F12A002847A6F81601A4F12C00B5
:104E40002847A6F81401A4F12E002847A6F810015F
:104E5000A4F130002847A6F80E01A4F1320028473B
:104E6000A6F80C01A4F134002847A6F80801A4F123
:104E700036002847A6F80601A4F13800284702208A
:104E800095F82230B5F88A1086F84C00012070475A
:104E9000A6F80401A4F13A002847A6F80001A4F1FD
:104EA0003C002847A6F8FE00A4F13E002847A6F8DB
:104EB000FC00A4F140002847A6F8FA00A4F1420043
:104EC0002847A6F8F800A4F144002847A6F8F60001
:104ED000A4F146002847A6F8F200A4F148002847AC
:104EE000A6F8F000A4F14A002847A6F8EE00A4F1C5
:104EF0004C0028470922018401EB8101A03991FB74
:104F0000F2F181837047A6F8EA00A4F14E00284729
:104F1000A6F8E800A4F150002847A6F8E600A4F19E
:104F200052002847A6F8E200A4F154002847A6F84A
:104F3000E000A4F156002847A6F8DE00A4F15800CE
:104F40002847A6F8DA00A4F15A002847A6F8D800A6
:104F5000A4F15C002847A6F8D600A4F15E0028471B
:104F6000A6F8D200A4F16000284701EB81010922D4
:104F7000A03991FBF2F170470522818301EBC10159
:104F8000B1FBF2F1203101847047A6F8D000A4F102
:104F900062002847A6F8CE00A4F164002847A6F8CE
:104FA000CA00A4F166002847A6F8C800A4F168006A
:104FB0002847A6F8C600A4F16A002847A6F8C20050
:104FC000A4F16C002847208940F2E73200BA010CB6
:104FD00091427047BDF804200A32ADF804209DF8D4
:104FE000072001328DF8072070474FF00110C5F8F7
:104FF00055000120A5F85A00704795F85100002887
:1050000070470521A88300EBC000B0FBF1F0203011
:1050100070470523218902EBC20249BAB2FBF3F2C1
:1050200070470921288400EB8000A03890FBF1F044
:1050300070470524838303EBC303B3FBF4F32033EE
:1050400070470924038403EB8303A03B93FBF4F331
:10505000704701EBC101B1FBF0F120317047D0F88E
:10506000045128472846042102F0B6BC0321092236
:1050700080F82C1040F20141418500F1240102200A
:1050800009F0AEBB90F8881003297047F87BFFF752
:10509000EFBBB0F898100522818301EBC101B1FB91
:1050A000F2F12031A0F8AC1001847047B0F8A410E0
:1050B0000522818301EBC101B1FBF2F12031A0F89F
:1050C000B01001847047B0F8AC100922018401EBE4
:1050D0008101A03991FBF2F1A0F89810818370470B
:1050E000B0F8B0100922018401EB8101A03991FBD5
:1050F000F2F1A0F8A41081837047B0F89E10052249
:10510000818301EBC101B1FBF2F12031A0F8AE10B7
:10511000018470474FF001110124C0F8551090F838
:105120003B10A0F85A4000297047B0F8AE10092291
:10513000018401EB8101A03991FBF2F1A0F89E10EE
:1051400081837047B0F892100522818301EBC10181
:10515000B1FBF2F12031A0F8AA1001847047B0F839
:10516000AA100922018401EB8101A03991FBF2F11F
:10517000A0F892108183704752F821100988A5F891
:105180008E10704795F84F00411EC9B20429704730
:105190004FF08441FFF748BA2089C82200BA010CB9
:1051A000C8297047010E87F8160187F81311010C02
:1051B000000A87F8141187F8150170470121A0F83B
:1051C0005A1090F82410704700210222042380F81E
:1051D000541090F8A61080F82210B0F8A81070476C
:1051E000218990F8412049BA012A70470021022202
:1051F000012380F8541090F8941080F82210B0F831
:105200009610704700210222022380F8541090F873
:105210009A1080F82210B0F89C10704700210222EA
:10522000032380F8541090F8A01080F82210B0F8F2
:10523000A210704700214FF0012280F8581080F82A
:105240002310C18390F88910426570470021C18303
:1052500090F8411001297047D0F8044102222047FC
:105260004FF48171002007F5817407F50175102254
:10527000A7F80A11704700EBC0000521B0FBF1F060
:105280002030704790F84110012970470022012119
:1052900080F8232090F83B20A0F85710A0F85A106F
:1052A00070472189C82309BA0A0CC82A70470A2204
:1052B00080F83F4000F13601022009F091BA06F172
:1052C000360102200A2286F83F4009F089BAADF87B
:1052D00026808DF82170CDF8224008F0C9BAF889EF
:1052E00040BAFFF7BCBA9DF807006060BCBD90F8FB
:1052F0003B100029704794F82400FFF7B9BA94F8DE
:105300002200FFF7B5BA0121A0F85510A0F85A10F5
:105310000021C183617A012970470222D0F804710B
:1053200038470120A4F85700A4F85A00002084F858
:10533000230094F83B000328704700220A62CA61E8
:105340004A610A61CBF85C20CBF8040070472B8CD3
:10535000092103EB830070479BF93700DBF8041049
:1053600008449BF93610401A7047A0F83E11A0F887
:105370001811A0F8F210A0F8E210704700EB8000BE
:105380000921A03880B2B0FBF1F0A0837047AB8B4D
:10539000052103EBC30070472084A2F1A00009227D
:1053A00000B2E82990FBF2F0704700EBC000052145
:1053B00080B2B0FBF1F020302084704721890922AF
:1053C00009BA090C704707F50175204610222946D5
:1053D00002F0E0BAD0F80441204794F84F000138B9
:1053E00003287047002045F25401022270479BF8C1
:1053F0004F000138042870479BF84F0001380328FC
:105400007047026842F001020260F020162287F81D
:1054100017017047C7F80C01C7F80F012046C7F8FD
:10542000061170479BF84E0001287047208400EB5E
:1054300080000921A038B0FBF1F07047D0E91A12C2
:10544000013142F10002C0E91A127047A08390B204
:105450000522B0FBF2F020307C2970470120A4F82F
:105460005500A4F85A000020E08394F84100012878
:10547000704702EB82010284A0390922B1FBF2F1EC
:1054800070470A6842F001020A60B97CB1EB106F04
:10549000704790F83B10032970470027C6E95C0766
:1054A00004F122002847BAF85210CBF85C00013111
:1054B000AAF852107047A6F8C000A4F16E00284761
:1054C000A6F8BE00A4F170002847A6F8BA00A4F11F
:1054D00072002847A6F8B800A4F174002847A6F87F
:1054E000B600A4F1760028472DE9FC41FFF7EEF85D
:1054F0002D4F78617869F969FFF796F8F8612B4CC0
:10550000F8692146FFF766F900B9FC61F8690021E6
:105510000024FFF77BF900B9FC61D7E900867869C0
:105520007C6A3969FFF7D2F8B86130467D69F9695C
:10553000FFF7D2F80190009401980099FFF73CF929
:1055400008B9009801900198009981F00041FFF797
:105550004FF918B9009880F0004001904046294664
:10556000FFF7BAF80199FFF75FF80446B8687D695C
:10557000B969FFF7B1F82146FFF756F838623D6187
:10558000386AB96AFFF718F908B9B86A3862386A30
:10559000B96A81F00041FFF72BF908B900203862A1
:1055A000386ABDE8FC8100BF1423002000C82F47E3
:1055B000704700002DE9F041451C044602202946B1
:1055C00009F0F0F884F88100C0B2092841F0EB81BD
:1055D00028785A2841F0E481A078A52841F0E0819C
:1055E000A0790B38482801F2DB81DFE810F02B02AC
:1055F000AE027A0265024900D909D909D909170210
:10560000DE019E0349013C01E3031E025802B5037B
:10561000CE02A60491012004E3008A010701F401EF
:10562000F0000505EE045601A9019702C7016205C5
:105630002501CC035B05D500C702C000A5006D01A4
:105640000B02FA038705DC00C002D909D909E2027E
:10565000D9098005DB02D909D909D909AC00D909D2
:1056600063009C052005D909D909D9098B007E035F
:10567000530473004900B30449006B044900A305B7
:10568000DFF80808FFF733FE41F08A8190F83820F0
:10569000002180F85410012A00F08785002A41F08B
:1056A0007F8190F84E1002291CBF012180F838102C
:1056B00001F076B9DFF8D827607ADFF8D01792F8D2
:1056C000293081F84500834201F06A81002382F885
:1056D00029005BE0607A012800F06985002841F02C
:1056E0005F81DFF8800EFFF7D4FE01F0B48000295F
:1056F00041F05681FFF7DDFA0A2940F2E0830539CF
:1057000001F046B9DFF85C0EFFF7F1FD41F048818A
:10571000FFF7F9FD01F01480002941F04181FFF706
:10572000B1FD01F04281002941F03A81818B642270
:10573000642988BF4A1EF1E2607ADFF8281E81F8EA
:10574000460001F02DB9617ADFF8180E002980F8C3
:10575000501000F03C85012941F02281012180F8A0
:105760004F10B0F8B810A0F88E1001F019B9DFF89A
:10577000F82D607ADFF8EC1D92F8283081F84400AB
:10578000834201F00D81002382F8280081F83B302C
:1057900081F8543001F004B9607ADFF8C81D81F84F
:1057A000420001F0FDB8607ADFF8B81D81F84900C9
:1057B00001F0F6B8FFF707FC38BF020CDFF8A40DC4
:1057C000012A98BF0122A0F8A82001F0E9B8DFF86B
:1057D000940DFFF757FC01F2E380DFE811F00400BD
:1057E0000006D105EC05FFF73AF938BF0B0C012B89
:1057F00098BF0123A0F8B83001F0D2B8DFF8640DEB
:10580000FFF740FC01F2CC80DFE811F004000E0647
:10581000C405F305FFF7E4FCA0F8B21004D1FFF7CC
:10582000A4FBA0F8B21089B2642901F23E80642181
:10583000A0F8B21001F0B4B8DFF8280DFFF722FC91
:1058400001F2AE80DFE811F004000B06C105E605A9
:10585000FFF727FD38BF0B0C052B98BF0523A0F8D9
:10586000CE3001F09DB8FFF7AEFB38BF020CDFF879
:10587000F40C012A98BF0122A0F8962001F090B8FC
:10588000FFF78AFC38BF020CDFF8D80C052A98BF56
:105890000522A0F8942001F083B8DFF8C80CFFF7C8
:1058A000F1FB01F27D80DFE811F00400EE05D00588
:1058B000E405FFF7D4F838BF0B0C012B98BF012388
:1058C000A0F8C03001F06CB8208900BA010CDFF8F4
:1058D000940C90F84120C185002A00F07C84012AB4
:1058E00041F05E80D42928BFD421212998BF2121ED
:1058F00001EB81010922A03989B2B1FBF2F100F07C
:105900002FBF607ADFF85C1C81F8880001F048B88E
:10591000DFF8500C90F84110002900F06484012950
:1059200040F06B84FFF74AFDA0F8B01001EB810155
:10593000A03991FBF2F1A0F8A41089B200F05FBC8D
:10594000DFF8200CFFF79EFB01F22A80DFE811F060
:105950000400DB05A505C005FFF742FCA0F8C21056
:1059600004D1FFF702FBA0F8C21089B2642900F24B
:10597000BC876421A0F8C21001F012B8DFF8E40B74
:10598000FFF780FB01F20C80DFE811F00400CE0588
:105990009805B305FFF763F838BF0B0C012B98BFD0
:1059A0000123A0F8C83000F0FBBF208900BA000C2A
:1059B000022800F0DC84012800F0CE84002840F0AA
:1059C000EF87DFF8A00B012180F8401080F84D1020
:1059D000002100F0C9BCDFF88C0BFFF753FB00F28D
:1059E000DF87DFE811F00400C305AB05B505FFF75D
:1059F00058FC38BF0B0C052B98BF0523A0F8B63018
:105A000000F0CEBFFFF7DFFA38BF020CDFF8540B0F
:105A1000012A98BF0122428600F0C2BF607ADFF8F7
:105A2000441B81F84E0000F0BBBFFFF7B5FB38BF49
:105A3000020CDFF8300B052A98BF0522A0F89A2047
:105A400000F0AEBFDFF81C6B0120A6F85500A6F8E9
:105A50005A00002086F84700F08396F83B000028A3
:105A600040F09E87207A657A0002FEF706FF8046A6
:105A700028460F46FEF712FFF34B0022FEF73BFCD1
:105A800042463B46FEF790FBFEF742FF642898BF74
:105A90006420B083FFF7EFFB308400F081BFFFF795
:105AA00092FA38BF020CDFF8BC0A012A98BF012223
:105AB000A0F89C2000F074BFDFF8A80AFFF7E6FB0F
:105AC000032A00F0B783002A40F06A87617A05292B
:105AD00098BF0521C82928BFC82180F8221000F0EE
:105AE0005FBFDFF8800A0121A0F85510A0F85A1016
:105AF0000021C183FFF7FBFB40F05287218909BADF
:105B00000A0CFFF7BFFB40F0FB8502EB8201092383
:105B1000A03991FBF3F3114600F0F9BDDFF8440A18
:105B2000FFF7B0FA00F23C87DFE811F004003E0511
:105B30002A053405FFF7B5FB38BF0B0C052B98BFC2
:105B40000523A0F8C63000F02BBFDFF8180AFFF7D6
:105B50009DFB80F84710032A00F07483002A40F070
:105B60001F87617A052998BF052100F011BF607A6F
:105B7000DFF8F01981F84C0000F012BF607ADFF80E
:105B8000E41981F8430000F00BBFFFF705FB38BFB5
:105B9000020CDFF8D009052A98BF0522A0F8A02042
:105BA00000F0FEBE607ADFF8BC1981F84D0000F00D
:105BB000F7BE617ADFF8AC09002918BF012180F82F
:105BC000521000F0ED863C2101261E234FF4803751
:105BD0000A254FF4BE724FF0000E4FF0640C4FF4E4
:105BE000E17880F822104FF4337180F84660A0F815
:105BF0004C60964E438632238764954FC584A0F847
:105C00008A50944D8283A0F89820A0F83621A0F8FD
:105C10001021A0F8EA20962280F841E080F836E0D2
:105C200080F824C0A0F8A480A0F80881A0F8CAC019
:105C300080F889E001844FF00131C385864BA0F8DC
:105C4000DA20A0F8B220C0F842108449C0F89A6067
:105C5000834EC0F8AA704FF4AF77C0F89450814DCE
:105C6000A0F89270804FC0F8BE30C0F8E6307F4B8D
:105C7000C0F8C6107E49C0F8A0607E4EC0F8AE5095
:105C80004FF4C875C0F8A6707B4FC0F80431C0F857
:105C90002A314FF4FA73FFF75AF8C0F8CE10C0F863
:105CA000F610C0F81C117549C0F8DE60744EA0F8FB
:105CB0002E314FF48C73C0F8B670C0F8EE70A0F8B7
:105CC000C230C0F832116F49C0F80C616E4EC0F896
:105CD00042114FF48271C0F81461C0F83A61FFF7C5
:105CE00044FBA0F8BA1000F05BBEDFF87808FFF7BD
:105CF000FEFA40F05586FFF706FB00F033850029D9
:105D000040F04E86FFF7BEFA00F06086002940F0B2
:105D10004786818B4A1F6A2938BF642291B28283E9
:105D2000C90011FA82F100F02EBDDFF8780E90F86C
:105D30004110002900F08B82012940F0A682FFF774
:105D40003DFBA0F8AA1001EB8101A03991FBF2F113
:105D5000A0F8921089B29AE2DFF8480E90F841104C
:105D6000002900F07E82012940F0AC82FFF726FB7B
:105D7000A0F8AE1001EB8101A03991FBF2F1A0F87F
:105D80009E1089B2A0E2DFF81C0EFFF77BF900F24B
:105D90000786DFE811F00400270413041D04FEF752
:105DA0005EFE38BF0B0C012B98BF0123A0F8D0304A
:105DB00000F0F6BDDFF8EC0D90F84110002900F07E
:105DC0005A82012940F0AB82FFF7F8FAA0F8AC1034
:105DD00001EB8101A03991FBF2F1A0F8981089B292
:105DE0009FE2DFF8C00DFFF782FA40F0D98590F806
:105DF0004120617A012A08D1227A41EA022109224E
:105E000001EB8101A03991FBF2F1027F90F836306D
:105E1000511A194449B26429A8BF642111F1640FD1
:105E2000D8BF6FF0630180F8361000F0B9BDFFF7FE
:105E3000B3F938BF020CDFF86C0D052A98BF0522B4
:105E4000A0F8A62000F0ACBD000004401E000F002A
:105E50009602CC0214000A0014000300140004008F
:105E600028001400F0024A033C001E001E0004003B
:105E7000140005002800030028000A001E00060088
:105E8000280008002800050028000400102A00202F
:105E9000A0000020607A012800F03182002840F044
:105EA0007F85DFF8000DFFF7F4FA00F0E0840029A9
:105EB00040F07685FEF7FDFE052900F26685052196
:105EC00000F066BDDFF8DC5C95F83B00002840F090
:105ED0006785607A012800F05C84002840F06085C6
:105EE000DFF8C46C96F82600013086F82600C0B2B0
:105EF0000A28C0F0558596F82200002840F0508509
:105F0000FEF7BDFF86F822000020A5F8A030A5F816
:105F1000A21086F82600FEF746FF00F0E88500286C
:105F200040F0F585FFF733FAA5F89E30B0FBF1F0AD
:105F30002030A5F8AE0000F0E3BDFFF744F838BF0D
:105F4000020CDFF8600C012A98BF0122A0F8A22001
:105F500000F026BDDFF84C5C95F83B00002840F0CF
:105F60001F85607A012800F02D84002840F01885F4
:105F7000DFF8346C96F82500013086F82500C0B2B1
:105F80000A28C0F00D8596F82100002840F0088509
:105F9000FEF775FF86F821000020A5F89A30A5F8D5
:105FA0009C1086F82500FEF7FEFE00F0B485002860
:105FB00040F0C185FFF7EBF9A5F89830B0FBF1F0A0
:105FC0002030A5F8AC0000F0AFBDDFF8D80BFFF72C
:105FD00059F800F2E584DFE811F0040045030F03EF
:105FE0002A03FFF75EF938BF0B0C052B98BF05237A
:105FF000A0F8BE3000F0D4BCDFF8A80BFFF742F8E1
:1060000000F2CE84DFE811F00400380302031D0320
:10601000FFF7E6F8A0F8BA1004D1FEF7A6FFA0F843
:10602000BA1089B2642900F28084642159E6DFF84D
:10603000745B95F83B00002840F0B284607A012838
:1060400000F0D983002840F0AB84DFF85C6B96F851
:106050002400013086F82400C0B20A28C0F0A084D1
:1060600096F82000002840F09B84FEF708FF86F891
:1060700020000020A5F89430A5F8961086F824009A
:10608000FEF791FE00F05B85002840F06885FFF781
:106090007EF9A5F89230B0FBF1F02030A5F8AA0007
:1060A00000F056BD607ADFF8FC1A81F8410000F07C
:1060B00077BCDFF8F00AFEF7E5FF00F27184DFE855
:1060C00011F004000E03EC02FD02FFF789F8A0F8BE
:1060D000CA1004D1FEF749FFA0F8CA1089B264299A
:1060E00000F243846421A0F8CA1000F059BC607A21
:1060F000DFF8B01A81F8480000F052BC2089DFF8C0
:10610000A41A002240F2E73300BA81F85420020CAE
:106110009A4238BF030C002A08BF0123CB84A1F8A0
:106120008A3000F03DBC607ADFF8781A81F84A00C6
:1061300000F036BCDFF86C5A95F83B00002840F0C0
:106140002F84607A012800F06E83002840F02884B4
:10615000DFF8546A96F82700013086F82700C0B2AD
:106160000A28C0F01D8496F82300002840F0188407
:10617000FEF785FE86F823000020A5F8A630A5F8D6
:10618000A81086F82700FEF70EFE00F0F284002823
:1061900040F0FF84FFF7FBF8A5F8A430B0FBF1F066
:1061A0002030A5F8B00000F0EDBC0185F8E3DFF881
:1061B000AC0FFFF76EF900F05483002940F0F08334
:1061C000FEF777FDC32980F0A8800531E0E30021C8
:1061D00080F84F10E4E3002900F0C182642924BF55
:1061E0006421C185DCE3B0F8B020FEF712FFA0F80F
:1061F000A4102032A0F8B02001E0B0F8A410652966
:1062000001D2642104E0B1F5FA7F03D34FF4FA71AF
:10621000A0F8A410B0F8B010D42903D8D421A0F865
:10622000B010BDE3B1F5697F24BF4FF46971A0F8E8
:10623000B010B5E3627A012A88BF1146C82928BF89
:10624000C821ABE3627A012A88BF1146A6E3B0F801
:10625000AA20FEF7DEFEA0F892102032A0F8AA20B5
:1062600015E0B0F8AE20FEF7D4FEA0F89E10203264
:10627000A0F8AE2028E0B0F8AC20FEF7CAFEA0F8E7
:1062800098102032A0F8AC204BE0B0F892106529AD
:1062900001D2642104E0B1F5FA7F03D34FF4FA711F
:1062A000A0F89210B0F8AA10D42903D8D421A0F8ED
:1062B000AA1075E3B1F5697F24BF4FF46971A0F8A6
:1062C000AA106DE3B0F89E10652901D2642104E0A4
:1062D000B1F5FA7F03D34FF4FA71A0F89E10B0F82D
:1062E000AE10D42903D8D421A0F8AE1058E3B1F5EC
:1062F000697F24BF4FF46971A0F8AE1050E3DFF856
:106300005C0EFFF7C6F800F0B982002940F0488320
:10631000FEF7CFFCC829C0F03A83C82138E3B0F8B3
:106320009810652901D2642104E0B1F5FA7F03D306
:106330004FF4FA71A0F89810B0F8AC10D42903D833
:10634000D421A0F8AC102BE3B1F5697F24BF4FF442
:106350006971A0F8AC1023E3DFF8000E00210122E0
:1063600080F84D1080F84020A0F84F1018E3DFF8B7
:10637000EC0D002180F84D10022180F840100FE351
:10638000FEF76DFB38BF0B0C012B98BF0123A0F863
:10639000063105E3FEF724FFA0F8001104D1FEF753
:1063A000E4FDA0F8001189B2642900F26E82642134
:1063B000A0F80011F4E2FEF752FB38BF0B0C012BE2
:1063C00098BF0123A0F82C31EAE2FEF76AFF38BF3C
:1063D0000B0C052B98BF0523A0F81C31E0E2FEF75B
:1063E0003EFB38BF0B0C012B98BF0123A0F8E03017
:1063F000D6E2FEF7F5FEA0F8261104D1FEF7B5FDB2
:10640000A0F8261189B2642900F247826421A0F81D
:106410002611C5E2FEF745FF38BF0B0C052B98BFD0
:106420000523A0F84231BBE2FEF7DAFEA0F8DA104D
:1064300004D1FEF79AFDA0F8DA1089B2642900F2BF
:106440003C826421A0F8DA10AAE2FEF708FB38BF0C
:106450000B0C012B98BF0123A0F80E31A0E2FEF730
:1064600020FF38BF0B0C052B98BF0523A0F8F63092
:1064700096E2FEF7F4FA38BF0B0C012B98BF01230C
:10648000A0F834318CE2FEF7EAFA38BF0B0C012B8E
:1064900098BF0123A0F8E83082E2FEF7A1FEA0F841
:1064A000101104D1FEF761FDA0F8101189B2642922
:1064B00000F20B826421A0F8101171E2FEF7CFFA0E
:1064C00038BF0B0C012B98BF0123A0F8163167E2EF
:1064D000FEF786FEA0F8361104D1FEF746FDA0F8BF
:1064E000361189B2642900F2F8816421A0F83611CE
:1064F00056E2FEF7B4FA38BF0B0C012B98BF01230C
:10650000A0F83C314CE2FEF76BFEA0F8EA1004D193
:10651000FEF72BFDA0F8EA1089B2642900F2ED81A4
:106520006421A0F8EA103BE2FEF799FA38BF0B0CA1
:10653000012B98BF0123A0F8F03031E2FEF7B1FE45
:1065400038BF0B0C052B98BF0523A0F8043127E2B8
:10655000FEF7A7FE38BF0B0C052B98BF0523A0F84C
:106560002A311DE2102A0020A0000020FEF799FE2B
:1065700038BF0B0C052B98BF0523A0F8DE300FE2C7
:10658000FEF78FFE38BF0B0C052B98BF0523A0F834
:10659000143105E2FEF785FE38BF0B0C052B98BFC2
:1065A0000523A0F83A31FBE1FEF77BFE38BF0B0C68
:1065B000052B98BF0523A0F8EE30F1E1FEF74FFA66
:1065C00038BF0B0C012B98BF0123A0F81E31E7E167
:1065D000FEF745FA38BF0B0C012B98BF0123A0F83A
:1065E0004431DDE1FEF73BFA38BF0B0C012B98BFBD
:1065F0000123A0F8F830D3E1FEF753FE38BF0B0CAF
:10660000052B98BF0523A0F80C31C9E1FEF7E8FD82
:10661000A0F8081104D1FEF7A8FCA0F8081189B26F
:10662000642900F272816421A0F80811B8E1FEF734
:1066300038FE38BF0B0C052B98BF0523A0F832316C
:10664000AEE1FEF7CDFDA0F82E1104D1FEF78DFCD2
:10665000A0F82E1189B2642900F25F816421A0F8AC
:106660002E119DE1FEF71DFE38BF0B0C052B98BFC8
:106670000523A0F8E63093E1FEF7B2FDA0F8E210A2
:1066800004D1FEF772FCA0F8E21089B2642900F28E
:1066900054816421A0F8E21082E1FEF7A1FDA0F888
:1066A000181104D1FEF761FCA0F8181189B2642911
:1066B00000F24B816421A0F8181171E1FEF790FD02
:1066C000A0F83E1104D1FEF750FCA0F83E1189B2AB
:1066D000642900F242816421A0F83E1160E1FEF7D6
:1066E0007FFDA0F8F21004D1FEF73FFCA0F8F210F5
:1066F00089B2642900F241816421A0F8F2104FE1CF
:1067000002EBC2010523B1FBF3F1134620319AB22B
:1067100001848383652A01D2642204E0B2F5FA7F02
:1067200002D34FF4FA72828389B2D42901D8D421DA
:106730002DE0B1F5697F24BF4FF4697101842FE129
:10674000FEF7A0FD00F03781002940F02981818B00
:106750004FF4FA72B1F5FA7F38BF4A1C10E00021FD
:10676000C1851DE1FEF78EFD00F04081002940F05B
:106770001781818B4A1DB1F5F77F88BF4FF4FA72FC
:1067800002EBC20182830522B1FBF2F120310184C8
:1067900006E1DFF8B86E96F82200002840F0478145
:1067A000FEF723FC0320FEF7C1FA00F02881012840
:1067B00040F02C81B5F8AE00FEF733FCA5F89E0042
:1067C000A88323E1DFF8846E96F82100002840F0CA
:1067D0004C81FEF70AFC0220FEF7A8FA00F02D819A
:1067E000012840F03181B5F8AC00FEF71AFCA5F89D
:1067F0009800A88328E1DFF8546E96F8200000285E
:1068000040F05181FEF7F1FBFEF790FA00F0338182
:10681000012840F03781B5F8AA00FEF702FCA5F880
:106820009200A8832EE1E04E96F82300002840F065
:106830005881FEF7DAFB0420FEF778FA00F0398180
:10684000012840F03D81B5F8B000FEF7EAFBA5F85D
:10685000A400A88334E1FEF7B1FC0A290CD905395C
:106860009CE0FEF7ABFCC3290DD2053196E0FEF7A4
:10687000A5FC052900F28F8005218FE0FEF79EFC24
:10688000C829C0F08A80C82188E0B1F5FA7F24BF0A
:106890004FF4FA71A0F8001182E0B1F5FA7F24BF3D
:1068A0004FF4FA71A0F826117AE0B1F5FA7F24BF0F
:1068B0004FF4FA71A0F8B21072E0B1F5FA7F24BF7C
:1068C0004FF4FA71A0F8DA106AE0B1F5FA7F24BF4C
:1068D0004FF4FA71A0F8101162E0B1F5FA7F24BF0D
:1068E0004FF4FA71A0F836115AE0B1F5FA7F24BFDF
:1068F0004FF4FA71A0F8C21052E0B1F5FA7F24BF4C
:106900004FF4FA71A0F8EA104AE0B1F5FA7F24BF1B
:106910004FF4FA71A0F8081142E0B1F5FA7F24BFF4
:106920004FF4FA71A0F82E113AE0B1F5FA7F24BFC6
:106930004FF4FA71A0F8BA1032E0B1F5FA7F24BF33
:106940004FF4FA71A0F8E2102AE0B1F5FA7F24BF03
:106950004FF4FA71A0F8181122E0B1F5FA7F24BFC4
:106960004FF4FA71A0F83E111AE0B1F5FA7F24BF96
:106970004FF4FA71A0F8CA1012E0B1F5FA7F24BF03
:106980004FF4FA71A0F8F2100AE0013900E0013189
:1069900080F8221004E0013900E0013180F8241071
:1069A000002084F88100BDE8F081018CD422D42934
:1069B00088BF4A1E10E0018C4FF46972B1F5697FFF
:1069C00038BF4A1C028402EB82010AE0018CA1F16B
:1069D0002602FB2938BFD42291B20284890011FA21
:1069E00082F1A039092291FBF2F106E0FEF742F9AB
:1069F00088BF4FF46972FEF73CFD8183D0E7B5F89C
:106A00009E00FEF7FEFAA5F8AE002884FEF7EAFC29
:106A1000032385F8540095F8A00085F82200B5F806
:106A2000A200A5F88A00E8846048FEF718FB002061
:106A300086F8260086F82200B2E7B5F89800FEF73F
:106A4000E0FAA5F8AC002884FEF7CCFC022385F818
:106A5000540095F89A0085F82200B5F89C00A5F836
:106A60008A00E8845148FEF7FAFA002086F82500EB
:106A700086F8210094E7B5F89200FEF7C2FAA5F86F
:106A8000AA002884FEF7AEFC012385F8540095F88F
:106A9000940085F82200B5F89600A5F88A00E884ED
:106AA0004248FEF7DCFA002086F8240086F8200031
:106AB00076E7B5F8A400FEF7A4FAA5F8B00028849C
:106AC000FEF790FC042385F8540095F8A60085F89D
:106AD0002200B5F8A800A5F88A00E8843348FEF73C
:106AE000BEFA002086F8270086F8230058E7FEF754
:106AF0002EFCA5F8AE30A03890FBF1F0A5F89E0072
:106B00002A4845F21B01FEF708FCB5F8A0302748DB
:106B100045F21C0126E0FEF71AFCA5F8AC30A038BF
:106B200090FBF1F0A5F89800204845F21801FEF717
:106B3000F4FBB5F89A301D4845F2190112E0FEF752
:106B400006FCA5F8AA30A03890FBF1F0A5F8920059
:106B5000164845F21501FEF7E0FBB5F894301348EE
:106B600045F21601D0F804510222A84701207076A0
:106B700016E7FEF7ECFBA5F8B030A03890FBF1F07B
:106B8000A5F8A400094845F21E01FEF7C6FBB5F8BA
:106B9000A630064845F21F010222FEF760FA0120E6
:106BA0007076FDE6102A0020A0000020902B002027
:106BB0007047000070B5DFF89C45208B01382083BA
:106BC00000040AD14FF47A70DFF890252083DFF8B3
:106BD0008805C16B51610021C163DFF88465DFF86E
:106BE0007C55707890BB287801282FD10A2004F0BA
:106BF00053FC80086860102004F04EFCA6F84E009C
:106C0000B6F84E00FDF74AFEC94ACA4BFDF773FBC2
:106C1000C94B0022FDF76FFBC84AC94BFDF7C4FA08
:106C2000C84AC94BFDF7D9FBC84B0022FDF7BCFA97
:106C3000FDF76EFEA5F89000013880B2312805D826
:106C4000686880087C289CBF0120707095F83B0024
:106C5000022815D1E08B0138E083000415D14FF4F0
:106C60007A70E083A88E0138A88600B2B0F1FF3FA9
:106C70000BDC022086F84C00002085F83B0004E085
:106C80004FF47A70E083688EA88695F8500080B142
:106C9000012840F0C881317995F8880099B103281E
:106CA00000F25681DFE800F00278375795F84F0080
:106CB00019E04FF47A70608300203071A5F88E00DF
:106CC00085F84F00AFE101210328317100F24081C6
:106CD000DFE800F002652444FEF754FA03D20FF215
:106CE000B442FEF749FA032800F0DC80022800F0E5
:106CF000A180012840F0FD80FEF77FF940F0288157
:106D0000FEF751F800F07A81002840F02181A86850
:106D1000B5F8B21006E195F84F0006E0FEF732FA3A
:106D200003D20FF25042FEF727FA032864D002285C
:106D300053D0012840F08D80FEF75FF940F00881C4
:106D4000FEF731F800F03E81002840F00181A8688C
:106D5000B5F80011E6E095F84F0006E0FEF712FAEC
:106D600003D20FF20042FEF707FA032800F08D80ED
:106D7000022850D0012840F0A280FEF73EF940F0F2
:106D8000E780FEF710F800F02D81002840F0E08049
:106D9000A868B5F82611C5E095F84F0006E0FEF7A3
:106DA000F1F903D20FF2DC32FEF7E6F9032800F026
:106DB000948002285CD0012840F0A880FEF71DF9DD
:106DC00040F0C680FDF7EFFF00F01C81002840F086
:106DD000BF80A868B5F8DA10A4E0FEF70EF940F01D
:106DE000B780FDF7E0FF00F0E180002840F0B080C0
:106DF000A868B5F8081195E0FEF7FFF840F0A88004
:106E0000FDF7D1FF00F0D680002840F0A180A868EF
:106E1000B5F8101186E0FEF7F0F840F09980FDF724
:106E2000C2FF00F0CB80002840F09280A868B5F83F
:106E30002E1177E0FEF7E1F840F08A80FDF7B3FF0E
:106E400000F0C480002840F08380A868B5F8BA102C
:106E500068E004287CD1FEF7D0F879D1FDF7A3FFD4
:106E600000F09480002873D1A868B5F8181159E093
:106E7000FEF7C3F86CD1FDF796FF00F0AB80002859
:106E800066D1A868B5F8E2104CE0FEF7B6F85FD11D
:106E9000FDF789FF00F0A280002859D1A868B5F855
:106EA00036113FE0FEF7A9F852D1FDF77CFF00F064
:106EB0009D8000284CD1A868B5F8C21032E00428A3
:106EC00046D1FEF79AF843D1FDF76DFF62D0002856
:106ED0003ED1A868B5F83E1124E0FEF78EF837D110
:106EE000FDF761FF00F0868090BBA868B5F8EA1056
:106EF00018E004282CD1FEF780F829D1FDF753FFC4
:106F00004CD028BBA868B5F8CA100BE004281FD1E4
:106F1000FEF773F81CD1FDF746FF43D0C0B9A8684F
:106F2000B5F8F210A1F10A02904279D90A3171E064
:106F300052B81E85EB510A400000303F295C8FC2D9
:106F4000F528F4BF33E197FA7953713F00002E40E2
:106F5000608B000467D14FF47A706083B5F88E00BF
:106F60000138A5F88E0000B2B0F1FF3F5BDC95F868
:106F70004F1000203071013185F84F10C9B205293A
:106F800024BFA5F84F00A5F88E004CE0A868B5F81E
:106F90001A113AE0A868B5F8401136E0A868B5F8CB
:106FA000CC1032E0A868B5F8F4102EE0A868B5F867
:106FB0000A112AE0A868B5F8121126E0A868B5F809
:106FC000301122E0A868B5F802111EE0A868B5F8F3
:106FD000BC101AE0A868B5F8E41016E0A868B5F887
:106FE000381112E0A868B5F828110EE0A868B5F8C5
:106FF000C4100AE0A868B5F8EC1006E0A868B5F877
:10700000B41002E0A868B5F8DC10A1F112029042B9
:1070100006D91231884203D2608B0138608398E729
:107020004FF47A70608395F8540028B395F83900CE
:10703000012805D1022086F84C00002085F8540074
:10704000A08B0138A08300041DD1B5F88C00013855
:10705000A5F88C0000B2B0F1FF3F09DC002085F8F4
:107060005400022086F84C00B5F88A00A5F88C0080
:107070004FF47A70A08306E04FF47A70A083B5F8DD
:107080008A00A5F88C00474CA068804794F82D0032
:10709000012809D194F82C0018B1013884F82C008B
:1070A00002E0022084F82D0094F83C0010B1013871
:1070B00084F83C0094F85100012809D194F850005C
:1070C00018B1013884F8500002E0022084F8510021
:1070D00094F8600010B1013884F860003248417BB8
:1070E000012906D1017B11B10139017301E00221AF
:1070F0004173017F09B10139017790F831100129FD
:1071000009D190F8301019B1013980F8301002E03F
:10711000022180F8311090F8401011B1013980F847
:10712000401090F85510012909D190F8541019B168
:10713000013980F8541002E0022180F8551090F8CF
:10714000641011B1013980F864100348016C0131F9
:10715000016470BD00000020A0010020102A002062
:10716000A00000203C2B0020442B00204C2B0020B2
:10717000542B0020162B00201E2B0020262B002035
:107180002E2B0020F02A0020F82A0020002B0020BF
:10719000082B0020C82A0020D02A0020D82A00204E
:1071A000E02A002018020020800200201848C1694F
:1071B00041F08051C16117490A7842F004020A7017
:1071C000C16921F08051C161016841F00101016094
:1071D00001688907FCD5416821F0030141604168DD
:1071E00011F00C0FFBD101680B4A11400160002126
:1071F000416041F61071C1624FF4801101634FF498
:107200001F01816005484FF000610160704700BFB9
:107210000010024050700040FFFFF2FE08ED00E059
:107220002DE9F84FC44F3868C00700F05C81DFF8E3
:10723000E8B99BF80000012840F03E81DFF84CA738
:107240009AF80300012814D1DFF80464BB4DB46838
:1072500029462046FDF7DAFA08B92C46B56075686C
:107260004FF080414FF080462846FDF7CFFA30B10D
:1072700009E0DFF8DC03B24C4FF081468460DFF8B0
:10728000D00335464660BAF8526042F6E060864266
:1072900009D3DBE95E010026AAF85260013041F112
:1072A0000001CBE95E019BF84000022813D00128C1
:1072B00015D19BF84D00002861D0012840F0828054
:1072C0009BF83B00022800F06F80002840F07A8095
:1072D000BBF81C006DE0BBF81C10AAF85410022883
:1072E00040F0E7809BF85100002840F0E2809BF8D6
:1072F000500000284BD0012840F0DB809BF84F0065
:107300009AF80210814209D0DFF8441300220A6281
:10731000CA614A610A618AF80200CA609BF8530098
:10732000002800F0C680DFF8288386488649874A0F
:10733000C8E90021C8F8080006F070FA9BF8881028
:10734000CBF80400032900F2F4809BF937201044A5
:107350009BF93620851ADFE811F00400DE00C80032
:10736000D300FEF744F800F2E480DFE810F00500F7
:107370004A013B014401DF00BBF8B24043E19BF806
:107380003B00022817D0E8B9BBF81C0018E006F053
:1073900045FAAF4900220A62CA614A610A61CBF824
:1073A0000400CBF85C2083E0BBF82E00BBF81C1077
:1073B0000844323004E0BBF81C00BBF82E1008442F
:1073C000AAF854009BF8390068B19BF84A1051B1F3
:1073D000012808BF012962D106F020FA9C49FDF777
:1073E000ACFFCA605BE09BF85300002857D006F062
:1073F00015FA9BF93710CBF80400BBF81C70084451
:107400009BF93610A0EB0109BAF85400BAF85010F5
:107410000FFA80F8B94208D000F07AFB8BF83700F9
:107420008B480021C161AAF850700FFA89F908F160
:107430006400484507DA844F701CAAF85200002007
:10744000CBF85C002BE0A8F164007F4F484506DDD7
:107450008548CBF85C00701CAAF852001FE008F1C8
:107460000500484504DBA8F10500484540F370805D
:107470000020AAF856008AF803004046FDF7EFF90D
:1074800004464846FDF7EBF901462046FEF72CF886
:10749000FEF709F80021FDF7B9F90028CFD09BF8D5
:1074A0003B00032805D106F0B9F96949FDF745FF0E
:1074B000CA609BF83A0030B9DBF85C4000212046F6
:1074C000FDF7A4F910B90024CBF85C402046FDF785
:1074D0000BFA78624FF08040016841F001010160D1
:1074E0006FF001003860BDE8F88FFDF780FF20D80D
:1074F000DFE800F0036C72661C00BBF8004182E01C
:10750000FDF775FF15D8DFE800F0036A735E110020
:10751000BBF8264177E0FDF76AFF0AD8DFE800F004
:1075200003656E590600BBF8DA406CE00020ABF84A
:107530004F00DBF85C0078E01000004000401C4683
:1075400000204B4700E0AB469A99193F00007A446F
:10755000BAF856000130AAF8560080B23C28FFF471
:107560008CAF01203D498AF803000020AAF856009C
:107570002046FDF759F838490446FDF71DF9344E09
:10758000002828461CBF44F20004C4F21C64B46006
:10759000FDF7F6F9324A334BFCF706FE00224FF0B6
:1075A000804304460D464FF08047FDF73DF9002823
:1075B00046D020462946FDF7F6F9234F70605CE778
:1075C000BBF818411FE0BBF83E411CE0BBF8084186
:1075D00019E0BBF8F24016E0BBF8104113E0BBF82D
:1075E0002E4110E0BBF8C2400DE0BBF8E2400AE0DB
:1075F000BBF8364107E0BBF8CA4004E0BBF8EA40FC
:1076000001E0BBF8BA40204600F082FA8BF8370060
:107610002046FDF72DF9044628B2FDF720F9014672
:107620002046FDF761FFFDF73EFF00210024FDF736
:10763000EDF808B9CBF85C400648C8F8080038E710
:107640007760014F19E700BF10000040A000002044
:107650001423002000204B4700401C460000FAC4C1
:107660009A9999999999B9BF007F3B470748416812
:10767000890709D50168890706D5C549CA6B013252
:10768000CA636FF002014160704700BF0C04004004
:10769000BCB5154C2068E06880060DD520688006D2
:1076A0000AD52068606861686B4D05F12400FDF71C
:1076B00077FB4FF482702886E068400610D520687A
:1076C00040060DD5644D6FF040000DF107012060BC
:1076D00005F1340006F069F818B1002085F8410082
:1076E000BCBDFDF700BE00BF004C0040BCB5154C52
:1076F0002068E06880060ED5206880060BD52068DB
:1077000060686168544D05F14800FDF749FB4FF48E
:107710008270A5F85400E068400610D52068400645
:107720000DD54D4D6FF040000DF10701206005F1C2
:10773000580006F03AF818B1002085F86500BCBD85
:10774000FDF7D1BD00500040BCB5144C2068E06886
:1077500080060BD52068800608D56168264D05F1A6
:107760002000FDF71DFB4FF48270A885E0684006FD
:1077700010D5206840060DD51F4D6FF040000DF16B
:107780000701206005F1300006F00FF818B1002065
:1077900085F83D00BCBDFDF7A6BD00BF0038014027
:1077A000BCB5144C2068E06880060CD520688006C3
:1077B00009D56168104D05F14400FDF7F1FA4FF469
:1077C0008270A5F85000E068400610D52068400699
:1077D0000DD5094D6FF040000DF10701206005F156
:1077E000540005F0E2FF18B1002085F86100BCBD2F
:1077F000FDF779BD0044004018020020BCB5154DCE
:107800002868E86880060DD5286880060AD52868AB
:107810006868114C6868C1B2204605F0D9FF4FF482
:107820008270A081E86840060FD5286840060CD514
:10783000094C6FF040000DF10701286004F11000C1
:1078400005F0B3FF10B100206077BCBD9DF80700C4
:107850006860BCBD0048004080020020FEE710B513
:1078600004464AF25A5024F8820F180AA071080AF6
:107870006171E371214620718220E070D01C0822E2
:10788000A0700220BDE8104006F0AABF0648BFF372
:107890004F8F064A016801F4E06111430160BFF3B4
:1078A0004F8F00BFFDE700BF0CED00E00400FA05BC
:1078B00000EB400107221E3902FA01F1044A136865
:1078C00019431160916A21F01F01084390627047CB
:1078D0000C24014002484FF480510160704700BF02
:1078E000140C014002484FF480510160704700BF02
:1078F000100C0140B0B5C84C94F8420001280FD1DB
:10790000224D6879DFE800F0032D1A21130095F865
:107910004C00022829D0012814BF0020012025E0B6
:10792000FFF7D8FF1948002180F84C101FE0FFF73F
:10793000D1FF0020687185F84C0018E0FFF7D2FFF6
:107940001348FDF77BFD143903E01148FDF776FD80
:10795000023972F100010AD30021C0E91A11042092
:1079600004E0FFF7BFFF032000E00220687194F8F5
:107970003A0050B10548017801310170C9B250296F
:1079800003D3FDF761F900210170B0BDA000002014
:10799000A0010020F0B1E9B1F0B5930801300D4627
:1079A0001C462CB150F8046B013C36BA40C5F8E7D0
:1079B00012F003020CD0002418250026A24205D0A4
:1079C000075D0134AF40083D3E43F7E741F82360CF
:1079D000BDE8F04070470000034A19B108C80139FA
:1079E0001360FAE71068704700300240F0B5324982
:1079F0000A68C2F38103314A022B08D0ABBB0B6D7E
:107A00009B0532D5CB6A9B0148BF2E4A2DE00B68FF
:107A10008C6A1B0C002C13D40C680D68C5F34175DF
:107A2000C4F383440DB90F2C43D12D0101352C44EF
:107A3000DB0702D00B689B0300D5214A624314E0A8
:107A40008C6A8D6A8E6ADB071D4BC4F30314C5F381
:107A5000082506F0070603D00F68BF0358BF13467A
:107A600004FA06F26B43B3FBF2F2026016A40B6851
:107A7000C3F30313E35C184CDA4042600B68C3F3B2
:107A80000223E35C22FA03F3C3600B68C3F3C2234F
:107A9000E35C0424DA4082600B68096804EA9363BB
:107AA000C1F3813119440DA3595CB2FBF1F10161BD
:107AB000F0BD0225BBE700BF0410024000127A00AF
:107AC00000093D00006CDC02000000000000000026
:107AD0000102030406070809B8E9000802040608C1
:107AE000020C08107CB5044600204FF6FF75C6B2A4
:107AF0006D2E09D8301903F0BBFCADF80600B01CA0
:107B0000BDF80610A942F2D1BDF806007CBD000008
:107B100082B0002165288DF80710ADF804108DF8AB
:107B2000031073D33C4991F822101F291BD3002165
:107B300082084A2A8DF8031035D86422ADF8042053
:107B40008DF8071036499DF80720132A5BD84DF8A9
:107B500008EDFDF7A2F85DF808EB54D27346FDF787
:107B600039FA9E46EFE74A1E0021132A4ED88DF8B7
:107B7000031081084A292ED86421ADF80410002191
:107B80008DF8071025499DF80720132A41D84DF894
:107B900008EDFDF782F85DF808EB34D27346FDF787
:107BA00019FA9E46EFE74FF49671ADF804101421D0
:107BB0008DF807101A499DF80720272A23D84DF879
:107BC00008EDFDF76AF85DF808EB1CD27346FDF787
:107BD00001FA9E46EFE74FF49671ADF804101421B8
:107BE0008DF807100D499DF80720272A0BD84DF86E
:107BF00008EDFDF752F85DF808EB04D27346FDF787
:107C0000E9F99E46EFE79DF80700095C48B202B02B
:107C100070470021FAE700BF102A0020E9E90008B8
:107C2000C0E900082DE9F84FDFF848BB9BF80000D9
:107C3000012818BFBDE8F88FDFF83C8B98F81F00CB
:107C4000092801F2A483DFE810F00A008C01E800A3
:107C50000D014400B301F2016B010F02A10098F87D
:107C60002A00DFE810F00900FB03D403DE039A03C7
:107C700005040F04F10320049BF84E0098F82B2014
:107C8000824240F0F785DFF8540D9BF839104378B5
:107C90008B4240F0E3879BF8551098F82D208A42DC
:107CA00041F00682002901F09582BBF81E30BBF836
:107CB0001C20934201F08E82018C01390184090459
:107CC00040F0D8860821ABF81E200324018400F080
:107CD000D2BE98F83A00DFE810F010000B05F3046C
:107CE000FF04E1041F052F0505053A05ED043505E0
:107CF000D304E7042505CD04F904DFF8E00C9BF874
:107D000040109BF8522083798B4240F0758798F899
:107D10003C30934240F070879BF84110C2798A4210
:107D200041F0B7819BF84210027A8A4241F01082FA
:107D30009BF84310427A8A4241F0E5839BF84A104F
:107D4000827A8A4241F02F849BF84410C27A8A4298
:107D500041F05B849BF84510027B8A4241F05E84CF
:107D60009BF84610427B8A4241F05B849BF84C10A2
:107D700098F83D208A4241F057849BF84D10827B51
:107D80008A4241F06A84002401F051BC9BF84E0005
:107D90001A2840F00C8698F848000024DFE810F01C
:107DA0000C000506D905C4059E05E8050506EF0586
:107DB0000506CE05AA05B60598F8490098F84A10B8
:107DC0009BF85040431CDFF8140C4A1C88F84930DB
:107DD00088F84A20017DA14240F090879BF84F40EF
:107DE000457DA54241F09A81DFF8F40BBBF98E4046
:107DF000858DA54241F06E83DBB20A2BC1F0B983B9
:107E0000DBF80820C38C002100249A421CBFC284E6
:107E1000052488F8491000F0C8BD98F83500DFE85F
:107E200010F00500A2018E01980184019BF84E001C
:107E300098F83610814240F04D839BF8541098F822
:107E40003700884240F02285DFF8940B0029828CAD
:107E500001F0FE80BBF98C108A4200F0718389B278
:107E600081843EE398F83800302801F2EF80DFE8A3
:107E700010F03100390818082508D40756086D0895
:107E80002F088408F6077A08CA07E8076308BA07C4
:107E90002208AD074D087708B008530860089F080E
:107EA000C1080A080008DC089007C808D2088E0834
:107EB00043089108BD07A3077F0782077207D90807
:107EC000A908DE075008BA086807B7079808E3084A
:107ED0007C07C0079BF84E0098F839309BF8521089
:107EE0009BF88820834208BF002901F01E810728E3
:107EF00008BF002A01F01C83072808BF012A01F0EF
:107F00005083072808BF022A01F078830023002449
:107F1000032A08BF2524072818BF1C4601F06FBBA1
:107F20009BF84E001A2800F0BF80022841F0AD8077
:107F300098F84000012800F03A82002841F0A5801E
:107F4000FDF70AFAFCF794FCD3490446FCF76CFBF6
:107F50009BF84D10012918BF2046FCF7ACFC40BA35
:107F6000AEE09BF84E001A2800F2BF800121CB4AF8
:107F70008140114200F0B9809BF83810002900F0D0
:107F8000AD80012940F0B1809BF8391011B9012270
:107F900088F82F209BF83B20002A00F09C81022AC1
:107FA00000F09981032A40F0A0809BF824109AE009
:107FB00098F83E000221DFE810F00F00C509060323
:107FC0001103E50227033C031C035203FB02470392
:107FD000C502F0023103AB02DFF8000A9BF88910FA
:107FE000C27B8A4240F00586511E032901F2958129
:107FF000DFE811F004007B0947096609BBF892101D
:10800000BBF81C208A4241F08A81BBF8AA10BBF859
:1080100020208A4241F083819BF82210BBF89420F3
:108020008A4241F07C81BBF8961001F072B998F851
:108030001A000124DFE810F00600D200A100A80019
:10804000EF00EE009BF84040012C02D0022C06D13C
:108050001A24DFF88809FDF72AF98BF84E40DFF87B
:108060007C09FDF703F897E098F84100DFE810F08D
:10807000080073015601600148017C018B016C010D
:1080800098F84600DBF804109BF84D20451C9BF93E
:108090003700012A88F84650084440F06F839BF966
:1080A0003610401A32386CE398F84000012800F08E
:1080B0008D81002840F0E987FDF74EF900BA000CE9
:1080C000DFF818190E22A1F84C004031022006F00A
:1080D00087FB98F84000013000F0D8BF002188F8F5
:1080E0002F109BF82210CBF8181098F82E10DFE80C
:1080F00001F004D7B8C1ADE2EB0098F8301081422E
:1081000040F0F3819BF83B10032900F0B48500296F
:1081100040F0FC8798F83410012940F0D087002007
:10812000042488F8340000F0F2BFFDF77BF900F07A
:10813000FA81022840F0048245F21201F5E1FDF7D0
:1081400071F900F0F581022840F0FA8145F2120140
:10815000F0E1FDF767F900F0FF81022840F00582A9
:1081600046F20311FAE1FDF75DF900F00082022802
:1081700040F0B78146F20311FBE1DFF868089BF895
:10818000523045F23C0105E0DFF8580898F8193004
:1081900045F24901FDF760F8012088F81A009BF8C4
:1081A0004E000E2840D19BF83B00022804D09BF8DB
:1081B0004D10012941F0E68098F81B10002941F08C
:1081C000E180012188F81D00002088F81B109BF831
:1081D0004D108BF83B0088F81C1033E09BF85200E0
:1081E000002800F02F83DFF8F8079BF84E10C28BB1
:1081F000142904BF0132C28392B2012A08D0142983
:1082000002D1B2F5C87FC7D300218BF85210C183C9
:108210000220C2E71A24DFF8C407FDF748F801205E
:108220008BF84E4088F81A0098F81B00012841F09E
:10823000A980002098F81D1088F81B0098F81C00F1
:108240008BF83B108BF84D0001F09CB8DFF89407D9
:1082500045F2040102220023FDF7BCF8052400F0DA
:1082600056BF012800F01C83022840F0348346F2F8
:10827000F30117E3022800F01B83012840F0468732
:10828000DFF86007BBF8183045F20E01FCF7E3FB9E
:10829000062400F03CBF00BF000048C206000004F6
:1082A000DFF8400745F20401022201230224FCF713
:1082B000D6FE00F02CBF012800F00483022840F015
:1082C0000A8346F2F301FFE2DFF81807BBF8183023
:1082D00045F20C01F2E201297FF403AF9BF84A104A
:1082E00001297FF4FEAE98F82F1001297FF4F9AE32
:1082F0009BF8571000297FF4F4AE9BF82510F2E6A6
:108300009BF83B000024002800F07D84032800F047
:108310007984022833D1012400F075BCDFF8C4064B
:1083200045F20501022200230024FCF798FE26E016
:108330009BF83810DFF8AC06D0F80441B1FA81F1AF
:108340004B0945F2020117E0DFF8980698F8423031
:1083500045F20A010EE0DFF88C0645F20501022223
:108360000123D0F8044108E0DFF878069BF83A30A2
:108370004FF4A041D0F804410222A047002488F81D
:10838000414000F0FFBFDFF85C0698F8423045F24C
:108390000901FCF760FB0724F1E7DFF8480645F226
:1083A000030102220023FDF715F8052463E39BF87F
:1083B000380020B1012840F06886DBF81800DFF8AB
:1083C0001C1681F85B004E3100F05BBE9BF850003C
:1083D000002800F0EF82012840F057869BF88800C3
:1083E000032800F25286DFE810F00400E006C6061B
:1083F000D306FDF701F800F24886DFE810F004002C
:10840000F908E408F0089BF8B64000F034BEFDF728
:1084100009F800F0D782022840F0E78346F2C30152
:10842000D2E29BF84E00022800F0DE8201285AD1E9
:10843000DFF8AC0545F207010222038CDFF8A40542
:10844000FCF7C8FF072416E3FCF7E3FC00F0D0823A
:10845000002840F00F83C34CC34DCBE2DFF8840506
:1084600045F20301022201230224FCF7F8FD02E396
:10847000FCF7D8FF00F0D182022840F0B88346F222
:10848000C301CCE29BF84E00022800F0D182012803
:1084900029D1DFF85005BBF8083045F20701FCF799
:1084A000DAFA0824E7E29BF84100002800F0C982CC
:1084B000012840F0DF82DFF82C05D0F80441DBF81A
:1084C00008008108E82900F28983FCF7E7F9A74A48
:1084D000A74BC4E288F836009BF85400012400281A
:1084E000D8E10224D8E10024C7E2411E012900F2AC
:1084F0000B869BF83B10032900F0FF85002940F014
:1085000003860121ABF8571008F1330100F0FABDE2
:10851000DFF8D0049BF8893045F25401FCF79BFA50
:10852000002100F00FBF45F20801BBF8263003E040
:1085300045F20801BBF88C30DFF8A804FCF78BFA91
:108540000024A9E1FCF765FC00F0AE83002840F0B0
:10855000B383BBF8A430A9E346F23301DFF8840407
:1085600002224FF6FF73FCF735FF042494E146F234
:108570003301DFF87004022244F250730224FCF746
:108580006EFD89E1DFF85C04BBF8963045F2170117
:10859000FCF761FA052100F0D5BEDFF84804BBF80E
:1085A000A63045F21F01FCF756FA0D2100F0CABEB5
:1085B000DFF83004BBF8A03045F21C01FCF74BFAA1
:1085C0000A2100F0BFBE9BF84100002800F076832E
:1085D000012840F07C830BF1AA0071E3DFF804046A
:1085E000BBF8943045F21601FCF735FA042100F08F
:1085F000A9BEDFF8F003BBF89C3045F21A01FCF786
:108600002AFA082100F09EBEFCF703FC00F061830B
:10861000002840F06683BBF898305CE3DFF8C403C1
:10862000BBF8A83045F22001FCF715FA0E2100F046
:1086300089BEDFF8B003BBF89A3045F21901FCF7A8
:108640000AFA072100F07EBEDFF89803BBF8A230DB
:1086500045F21D01FCF7FFF90B2100F073BE9BF8FA
:108660004100002800F03F83012840F045830BF1D2
:10867000AE003AE3DB48BBF8323045F234015AE34E
:10868000D648002401210922A0F8331080F8354093
:1086900000F12D01022006F0A3F84FE3D1489BF82A
:1086A000433045F2300146E3CE489BF84C3045F26A
:1086B000380140E3CB489BF84A3045F245013AE3A4
:1086C000C8489BF8413045F22E0134E3C5489BF879
:1086D0004D3045F23E012EE3C2489BF8423045F250
:1086E0002F0128E3BF489BF8463045F2320122E3D0
:1086F0009BF840009BF84D10012808BF012900F0AD
:108700000083012808BF002900F0C984022840F036
:10871000CD84022300F0C4BCB2489BF8443045F23B
:10872000310108E3FCF775FB00F0ED82002840F012
:10873000F982BBF82E30EFE2AA489BF8453045F2AB
:108740004401F8E2A548FCF791FC0B24F6E29BF803
:108750004100002800F0E882012840F0EE820BF191
:108760002000E3E29999D93F9A999999E17A14AE58
:1087700047E1CA3F102A0020A00000209BF93610D4
:10878000401A9BF8401001291BD19BF83B1003298C
:1087900014D09BF8391011B19BF84A1071B9BBF88D
:1087A0001C2001B202F164038B4204DBA2F16403DA
:1087B0008B4240F39D86914240F30485002088F867
:1087C000420086489BF83810427C8A4236D19BF89A
:1087D0003B10827C8A4240F020829BF83A10C27C97
:1087E0008A4240F0598498F8430098F84410814236
:1087F00040F0B18498F8420098F84710814240F068
:108800008586DBF85C00FCF756F840F2572100241F
:10881000B0FBF1F098F84510884200F0A284E9B26C
:108820001029C0F09E849BF84E1088F8464001291C
:1088300040F0978488F8450000F078BE4174032426
:1088400000F08FBC98F81900012840F0E981DFF8AA
:108850002C1E0120CA8B531C002A9AB2CB8308BF5E
:108860000320C82AFFF499AC002088F81900C883B7
:10887000032092E4411E012905D8002188F82D101B
:108880000121ABF8551088F82B00F3E0012488F89B
:108890003710002908BF032488F8354000F072BD66
:1088A00046F26301DFF8BC0D022243F67F4310E07D
:1088B000DFF8B00DBBF8183045F21101FCF7CCFC25
:1088C00000F024BC46F26301DFF8980D02224FF657
:1088D000FF73FCF77FFD032400F019BC9BF84F00E9
:1088E0000138C0B2032860D80FF67C5151F820003F
:1088F000038853E0DFF86C0D46F2930102224FF635
:10890000FF73FCF767FD0B2088F848009BF85000C8
:10891000002800F09981012846D1DFF8480DBBF806
:108920008E3045F241013DE0DFF8380D9BF84F30C5
:1089300045F24301FCF78FF8042436E0DFF8240DFC
:1089400046F29301022244F25073FCF743FD0B24DC
:108950002BE0DFF8100D9BF8503045F24201FCF798
:108960007AF89BF850000A24012808BF09241CE06B
:10897000DFF8F00CBBF8083045F23F0112E0DBF8FD
:1089800008009BF82510BBF81820452898BF114611
:108990009BF83800012818BF11468BB2DFF8C40CD1
:1089A00045F24001FCF758FC002488F848400020BC
:1089B00000F0EBBCDBF804004728C0F053839BF8C1
:1089C000254058E346F20301DFF8980C02224FF6E7
:1089D0006043FCF7FFFC03244DE000BF00000020D3
:1089E000A0010020902B0020DFF8900C038C21E0E8
:1089F000E94CEA4DDFF8840C008CFBF74FFF024690
:108A00000B4628462146FBF776FCFBF781FF034621
:108A1000DFF8500CD0F8044128E046F20301DFF8FB
:108A2000440C02224FF6FF73FCF7D4FC062422E02C
:108A3000BBF80830DFF82C0C45F21001D0F80441E7
:108A400016E0DFF8200CD0F80441DBF808008108BC
:108A50007C2900F2C380FBF721FFD14AD14BFBF701
:108A60004AFCFBF755FF0346DFF8F80B45F20B0114
:108A70000222A04700249BF84E001A2888F82A40BA
:108A800000F28084012101FA00F0C749084200F099
:108A900079849BF8414024B1012C08D10BF12000CE
:108AA00001E00BF11C000088DFF8D01B08849BF963
:108AB0003700DBF804A09BF936105044401AFBF74E
:108AC000D7FE9BF84D109BF84090064689F00100B8
:108AD00081F0010141EA0007B4493046FBF7A4FDEB
:108AE0000546380618BF3546012C35D0002C40F01D
:108AF00049849BF839609BF83B709BF843409BF896
:108B00004A805046FBF7B4FE032F88F0010108BFEE
:108B1000284686F00102DFF8488B114318BF28462B
:108B2000FBF7E2FEBBF89020904288BF0246CBF8EC
:108B30000820B9F1010F08BF012C40F02384BBF8D5
:108B40001C1001F11400824280F01C84A1F1140079
:108B5000824240D800F016BC9BF8390001280CD1A5
:108B60009BF84A00012808D10AEBCA000521B0FB96
:108B7000F1F02030FBF77CFE08E08D492846FBF73A
:108B8000ABFD8C49FBF7DAFDFCF702FBBBF890105C
:108B9000052201EBC101B1FBF2F101F12004FBF769
:108BA000A3FE844288BF2046CBF80800B9F1010F2C
:108BB00040F0E8839BF84310012940F0E383BBF8C1
:108BC000201001F12402904280F0DC83A1F1240204
:108BD000904240F2D783CBF80810D3E3DFF8840A41
:108BE00045F20B010222C82343E7032445E706248C
:108BF00043E7C1730E2195E388F83C20817101247D
:108C000000F015BD0224DFF85C0A45F201010222E2
:108C10002346FCF724FAFFF7B1BB81740424A0E2D9
:108C20009BF84E109BF84000282908BF012800F04F
:108C30007982012202284FF0010008BF052028296F
:108C400018BF1046FFF7A9BADFF8180A45F241012C
:108C5000022200230024FCF702FAA6E6012A14BF30
:108C6000022A002905D1002288F82D200122ABF824
:108C700055204170FEE698F83400002800F04A8242
:108C80009BF8240098F83210814200F03F82DFF810
:108C9000E8194A8C013A4A84120440F0378288F875
:108CA00032000820488416E6BBF8B030DFF8B4097B
:108CB00045F21E01FBF7CFFE0C2143E30BF19200BE
:108CC0000388DFF8A00945F21501FBF7C4FE032174
:108CD00038E3BBF8AC30DFF88C0945F21801FBF73C
:108CE000BAFE06212EE30BF19E000388DFF874091B
:108CF00045F21B01FBF7AFFE092123E304750224B3
:108D000053E60023CCE1BBF82E00052100EBC000A8
:108D1000B0FBF1F0203083B2DFF8480945F23301AF
:108D2000FBF799FE0E2409E00BF11C000388DFF825
:108D3000340945F23501FCF78FFA002488F83A40EF
:108D400020E3FCF766F800F06182002840F015830C
:108D5000BBF8363100E3FCF75CF800F05A820028DB
:108D600040F00B83BBF8263186E2BBF8423143E189
:108D7000BBF81C3140E1DFF8EC08BBF81E3145F2CE
:108D80002D01FBF768FE9BF85240002C18BF2524EC
:108D9000F6E2BBF8063117E147E1CA3FE17A14AECB
:108DA0009A9999999999D93F06000004000048C200
:108DB000000010410000A040FCF72BF800F02C82CE
:108DC000002840F0DA82BBF81831D1E2FCF721F834
:108DD00000F02582002840F0D082BBF8E230C1E2EA
:108DE000BBF83A31D8E0BBF8DE3020E1BBF81631F1
:108DF000D9E0DFF87008BBF8443145F22D01FBF7EC
:108E00002AFE0024BCE2DFF85C08BBF8CE3045F255
:108E10002C01FBF720FE0C24B2E2FBF7FAFF00F076
:108E20000182002840F00682BBF8BA30FCE1FBF773
:108E3000F0FF00F00182002840F09F82BBF82E3145
:108E400090E2DFF82008BBF8D03045F22D01FBF7A7
:108E500002FE9BF85240002C18BF0D2490E2DFF870
:108E60000408BBF8C83045F22A01FBF7F4FD0A24D8
:108E700086E2FBF7CEFF00F0E281002840F07D8221
:108E8000BBF80031F8E1DFF8DC07BBF8F83045F259
:108E90002D01FBF7E0FD9BF85240002C18BF192470
:108EA0006EE2DFF8C007BBF8B63045F22301FBF7EE
:108EB000D2FD032464E2BBF8E03085E0DFF8A407CC
:108EC000BBF8B83045F22401FBF7C5FD042457E296
:108ED000FBF79FFF00F0B681002840F0BB81BBF894
:108EE000C230B1E1FBF795FF00F0B681002840F0F9
:108EF0002C82BBF8B230B1E1FBF78BFF00F0B781F9
:108F0000002840F03A82BBF8103125E2BBF8E63089
:108F100083E0BBF8323180E0BBF8EE303CE0DFF8B4
:108F20004407BBF8BE3045F22601FBF794FD06244A
:108F300026E2BBF8F03036E0FBF76BFF00F09A81D9
:108F4000002840F01A82BBF8DA3095E1DFF8140708
:108F5000BBF8C03045F22701FBF77DFD07240FE287
:108F6000BBF8E83041E0FBF754FF00F09F81002898
:108F700040F0A481BBF8CA309AE1DFF8E806BBF8FC
:108F8000C63045F22901FBF766FD0924F8E1BBF87C
:108F90000E312AE0BBF81431DFF8C80645F229018A
:108FA000E9E1BBF83C31DFF8BC0645F22A01E2E119
:108FB000FBF72FFF00F0CB81002840F0DE81BBF8EB
:108FC000F230D5E1BBF82C31DFF8980645F22401E8
:108FD000D1E1FBF71EFF00F0BD81002840F0CD81FC
:108FE000BBF8EA30B8E1BBF83431DFF8780645F277
:108FF0002701C0E1BBF8F630DFF8680645F22C0126
:10900000B9E1FBF706FF00F0AB81002840F0B58125
:10901000BBF80831A6E1BBF80C31DFF8480645F291
:109020002601A8E1BBF82A3101E0BBF80431DFF8E2
:10903000340645F223019EE1FBF7EBFE00F096813A
:10904000002840F09A81BBF83E3191E104209CE178
:10905000BBF826108A423FF473AABBF88C108184B7
:10906000FFF783BADFF8FC0545F240010222002336
:109070000024FBF7F4FFDFF8000600F14E0180F852
:109080005B4002200E2205F0ABFB002088F8400078
:1090900078E1C1710224CAE2C174052461E00123B0
:1090A000DFF8C00545F21401FBF7D5FC0F2445E6B7
:1090B000012488F82D10002908BF0424DBE49BF864
:1090C000571098F833208A4240F0FD81002900F0C3
:1090D00031829BF822109BF823208A4200F02A82DA
:1090E000DFF89405428C013A428412040ED18BF8C9
:1090F000231008214184FFF7EEBB002188F83410CB
:1091000008F1320100220A7088F83000002488F843
:109110002E4037E1012488F83440F8E744750324F1
:10912000FFF743BC0420FFF77DB8DFF84C05017959
:10913000914240F0D4819BF84110427900248A4248
:1091400000F01E8141710A2188F83940017117E150
:10915000017203246BE2022488F84400002818BF3F
:109160000124DBF814000021632888BF012188F85E
:109170004310FFF704B9FCF73FF93FF686AFDFE88D
:1091800010F00400250219021C029BF8044172E74A
:10919000FCF732F93FF679AFDFE810F00400240263
:1091A00012021E029BF82A4165E7FCF725F93FF6FB
:1091B0006CAFDFE810F0040020020E021A029BF8E8
:1091C000DE4058E7A2F1640088427FF7FAAA6420E3
:1091D000FFF7F5BA00297FF44DAC98F82C00DFF8C2
:1091E0009C140024421CDBF808004B8C88F82C20CF
:1091F00098423FF440ACD2B20A2AFFF43CAC488417
:109200000020062488F82C00FFF735BCBBF8383165
:10921000A2E0BBF828312FE0BBF81A31A8E0BBF878
:10922000E4309FE0BBF8BC30DFF8380445F225019C
:10923000FBF711FC0524A3E0BBF8303192E0BBF84A
:10924000023119E0BBF8C430DFF8180445F22801F8
:10925000FBF701FC082493E0BBF8B430DFF804040A
:1092600045F2220102220224FBF7F9FE88E0BBF856
:10927000123171E0BBF8DC30DFF8E80345F222017F
:1092800079E0BBF89E10BBF81C208A4247D1BBF89E
:10929000AE10BBF820208A4241D19BF82210BBF8C7
:1092A000A0208A423BD1BBF8A21032E0BBF8CC3000
:1092B000DFF8B00345F22B01FBF7CDFB0B245FE099
:1092C000BBF8A410BBF81C208A4228D1BBF8B01010
:1092D000BBF820208A4222D19BF82210BBF8A6209E
:1092E0008A421CD1BBF8A81013E0BBF89810BBF859
:1092F0001C208A4213D1BBF8AC10BBF820208A4254
:109300000DD19BF82210BBF89A208A4207D1BBF8F6
:109310009C10BBF826208A4201D1002102E00021E6
:109320008BF889109BF84120037C93421CBF027488
:1093300002219BF8520098F83F2082421CBF88F817
:109340003F00022188F83E101CE0022418E0BBF820
:10935000F4300DE0BBF8EC30C24845F228010AE0D9
:10936000BBF80A31BF4845F2250104E0BBF84031A3
:10937000BC4845F22B01FBF76FFF98F83800441CFE
:1093800088F8384098F81F00013088F81F0098F8D6
:109390001E00002840F09180BBF81C0000EBC001CB
:1093A0000520B1FBF0F12031ABF82010BBF82E10F6
:1093B000FBF74FFEABF83010BBF89210FBF749FEFD
:1093C000ABF8AA10BBF89810FBF743FEABF8AC1053
:1093D000BBF89E10FBF73DFEABF8AE10BBF8A41037
:1093E000FBF737FEABF8B010BBF8B210FBF731FE5D
:1093F000ABF8B410BBF8BA10FBF72BFEABF8BC10FF
:10940000BBF8C210FBF725FEABF8C410BBF8CA10BE
:10941000FBF71FFEABF8CC10BBF8DA10FBF719FE18
:10942000ABF8DC10BBF8E210FBF713FEABF8E4106E
:10943000BBF8EA10FBF70DFEABF8EC10BBF8F2102E
:10944000FBF707FEABF8F410BBF80011FBF701FEC9
:10945000ABF80211BBF80811FBF7FBFDABF80A11E2
:10946000BBF81011FBF7F5FDABF81211BBF81811A2
:10947000FBF7EFFDABF81A1100218BF889100121E1
:1094800088F81E10BBF82611FBF7E3FDABF8281196
:10949000BBF82E11FBF7DDFDABF83011BBF8361130
:1094A000FBF7D7FDABF83811BBF83E1101EBC1015A
:1094B000B1FBF0F02030ABF840016A48D0F8081159
:1094C000BDE8F84F0847012488F83310002908BF89
:1094D00004241CE6A1B20B248185FFF766BA027151
:1094E00002EB420000248000042A38BF441C47E7F6
:1094F000831A9142B8BF131A88F842307FF461A9E9
:109500000120FFF75CB94172042490E0E8B2002426
:109510001028FFF426AE9BF84E0088F8464001283C
:109520007FF41FAE98F8420088F84700062418E63A
:10953000012464E09BF8251098F831208A4235D147
:109540004D499BF838208B78934261D19BF83920A4
:10955000CB7893423FF4DAAD012814BF0228002AE9
:1095600005D1002088F833000120ABF85700CA70FD
:10957000CCE5D2B200240A2AFFF417AA00297FF40E
:1095800014AADBF81810038D9BF82520994203D10B
:10959000438D93423FF409AA428501850724FFF7D2
:1095A00004BA0D242BE08172092440E088F83110C0
:1095B000FFF791B99BF814415DE59BF81C415AE512
:1095C0009BF83A4157E59BF8C64054E59BF80C419F
:1095D00051E59BF8EE404EE59BF842414BE59BF888
:1095E000CE4048E59BF8324145E59BF8F64042E520
:1095F0009BF8BE403FE59BF8E6403CE5192488F81F
:109600003900002918BF0124BAE6C17205240EE012
:1096100000248A70002A08BF032478E50173062419
:1096200005E04173072402E088F83D100C249BF804
:109630004E0098F83B1081423FF480AB0C2807D0D5
:109640000E2803D0132808BF0A2402E0082400E0F3
:109650000D2488F83B00FFF771BB8173FFF7CFBA89
:10966000A0000020902B0020C62A0020CE2A002037
:10967000D62A0020DE2A002000000020A0010020C1
:10968000064907480A7822B94CF6CC42026001220A
:109690000A704AF6AA210160704700BF41230020EA
:1096A0000030004010B5214C226842F001022260D7
:1096B00001804FF4801000F017F8FBF7E2BA00BF0A
:1096C00008480168C9071CBF0020704701684907A6
:1096D00044BF012070470068C0064FF0020058BF29
:1096E000032070470C200240B0B50446FFF7E8FFA6
:1096F0000025013C45F1000118B911B1FFF7E0FF69
:10970000F7E7B0BD10B5094C216841F002012160B6
:109710006060206840F0400020604FF08040FFF71C
:10972000E3FF206820F00200206010BD10200240FE
:109730002DE9F04F8BB0DFF8908A98F806000328E7
:1097400001F27486DFE810F0040050050C001F05DC
:1097500098F81400002801F04680012001F03FB87D
:10976000FC4D98F81310DFF8644AFB4FDFF8609A5D
:10977000A81D11F0010608BFA7F1D40094F9361016
:1097800089B2C84705F10800002E08BFA7F1D20032
:10979000E18DC84705F10A00002E08BFA7F1D000EF
:1097A000618EC84705F10C00002E08BFA7F1CE005E
:1097B000B4F88A10C84705F1D200002E08BFA7F1FF
:1097C000080094F84010C84705F10E00002E08BFAD
:1097D000A7F1CC0094F84110C84705F11000002E05
:1097E00008BFA7F1CA0094F84210C84705F112005B
:1097F000002E08BFA7F1C80094F84310C84705F130
:109800001400002E08BFA7F1C60094F84410C84702
:1098100005F11600002E08BFA7F1C40094F845100A
:10982000C84705F11800002E08BFA7F1C20094F840
:109830004610C84705F11A00002E08BFA7F1C00066
:1098400094F84810C84705F11C00002E08BFA7F186
:10985000BE0094F84910C84705F11E00002E08BF4D
:10986000A7F1BC0094F84B10C84705F12000002E6A
:1098700008BFA7F1BA0094F84D10C84705F12200BF
:10988000002E08BFA7F1B80094F84C10C84705F1A6
:109890002400002E08BFA7F1B600B4F89210C84704
:1098A00005F12600002E08BFA7F1B400B4F894100B
:1098B000C84705F12800002E08BFA7F1B200B4F890
:1098C0009610C84705F12A00002E08BFA7F1B00086
:1098D000B4F89810C84705F12C00002E08BFA7F176
:1098E000AE00B4F89A10C84705F12E00002E08BF4C
:1098F000A7F1AC00B4F89C10C84705F13000002E69
:1099000008BFA7F1AA00B4F89E10C84705F13200BD
:10991000002E08BFA7F1A800B4F8A010C84705F1B1
:109920003400002E08BFA7F1A600B4F8A210C84763
:1099300005F13600002E08BFA7F1A400B4F8A4106A
:10994000C84705F13800002E08BFA7F1A200B4F8FF
:10995000A610C84705F13A00002E08BFA7F1A000E5
:10996000B4F8A810C84705F13C00002E08BFA7F1C5
:109970009E00B4F8B210C84705F13E00002E08BFA3
:10998000A7F19C00B4F8B610C84705F14000002EBE
:1099900008BFA7F19A00B4F8B810C84705F1420013
:1099A000002E08BFA7F19800B4F8BA10C84705F117
:1099B0004400002E08BFA7F19600B4F8BE10C847B7
:1099C00005F14600002E08BFA7F19400B4F8C010BE
:1099D000C84705F14800002E08BFA7F19200B4F86F
:1099E000C210C84705F14A00002E08BFA7F1900039
:1099F000B4F8C610C84705F14C00002E08BFA7F107
:109A00008E00B4F8C810C84705F14E00002E08BFFC
:109A1000A7F18C00B4F8CA10C84705F15000002E19
:109A200008BFA7F18A00B4F8CE10C84705F152006C
:109A3000002E08BFA7F18800B4F8D010C84705F180
:109A40005400002E08BFA7F18600B4F8D210C84712
:109A500005F15600002E08BFA7F18400B4F8D61017
:109A6000C84705F15800002E08BFA7F18200B4F8DE
:109A7000D810C84705F15A00002E08BFA7F1800092
:109A8000B4F8DA10C84705F15C00002E08BFA7F152
:109A90007E00B4F8DE10C84705F15E00002E08BF56
:109AA000A7F17C00B4F8E010C84705F16000002E73
:109AB00008BFA7F17A00B4F8E210C84705F16200C8
:109AC000002E08BFA7F17800B4F8E610C84705F1EA
:109AD0006400002E08BFA7F17600B4F8E810C8476C
