:020000040800F2
:104000005837002085410008C1490008BD49000813
:10401000BF490008B9490008897400080000000081
:10402000000000000000000000000000ED69000832
:10403000BB49000800000000B1520008F169000807
:104040009F4100089F4100089F4100089F410008D0
:104050009F4100089F4100089F4100089F410008C0
:104060009F4100089F4100089F4100089F410008B0
:104070009F4100089F4100089F4100089F410008A0
:104080009F4100089F4100089F4100089F41000890
:104090009F4100089F4100089F4100089F41000880
:1040A0009F4100089F4100089F4100089F41000870
:1040B000D56E0008957200089F4100089F410008D6
:1040C0009F4100089F4100089F4100089F41000850
:1040D0009F41000875730008CD730008297400081B
:1040E0009F4100089F4100089F4100080000000018
:1040F00000000000000000000000000000000000C0
:10410000000000009F4100089F41000800000000DF
:10411000BD720008197300080000000000000000D4
:104120009F4100089F4100089F4100089F410008EF
:10413000000000000000000000000000000000007F
:104140000000000000000000000000009F41000887
:1041500000000000000000009F4100089F4100088F
:104160000000000000000000000000009F41000867
:10417000DFF80CD000F0A0F90048004729BC000887
:10418000583700200648804706480047FEE7FEE70C
:10419000FEE7FEE7FEE7FEE7FEE7FEE7FEE7FEE7F7
:1041A000616E0008714100082DE9FE4F804681EAEA
:1041B0000300C00F0C46009021F0004123F00045A1
:1041C000B8EB0200A94105D24046214690461C4664
:1041D0000B46024623F00040104347D0270DC7F39B
:1041E0000A00C3F30A510290401A019040286BDA8A
:1041F000C3F3130040F4801B0098924620B10023C3
:10420000D2EB030A63EB0B0B01985946C0F1400255
:10421000504600F069F906460D4650465946019A47
:1042200000F081F910EB08006141002487EA115287
:1042300084EAE7731A4340D0009A62B3019A012AD4
:104240004FEA075215DC001B61EB02014FF0004200
:1042500002EA0752CDE90042001C41F580113246C6
:104260002B4600F081F903B0BDE8F08F40462146AF
:10427000F9E7001B61EB0201001C41F580130018F7
:104280005B412018A2F5001747EB030140EAD57007
:10429000B6196D4111E06D084FEA360645EAC07562
:1042A0004FEA0752001B61EB0201001C41F580112F
:1042B00049084FEA30000019514132462B4603B0FD
:1042C000BDE8F04F00F041B9009801224000002302
:1042D000D0EB020263EBE073009821464FEAE074F2
:1042E000B8EB000061EB0401E9E783F000435BE712
:1042F00081F0004158E72DE9FE4F81EA030404F004
:10430000004421F0004100944FF0000B23F00043E3
:1043100050EA01045ED052EA03045BD0C3F30A54AE
:10432000C1F30A552C44A4F2F3340194A0FB0254C7
:10433000C1F3130141F48011C3F3130343F4801359
:1043400001FB024400FB034E840A970A44EA8154AD
:1043500047EA8357A4FB076802958D0A05FB07858A
:104360004FEA932C04FB0C542705029D4FEA065894
:1043700047EA1637B5EB08056EEB070C870E920E71
:1043800047EA811742EA8312A7FB0201B6EB0B0151
:1043900064EB00042B0D43EA0C335E1844EB1C5015
:1043A000DA465146E7FB0201C5F313044FEA0B332B
:1043B00043EA14534FEA0432019C43EA0603A4F192
:1043C0000C040294009CCDE900B400F0CDF803B0D9
:1043D000BDE8F08F00200146F9E72DE9F04D81EAB4
:1043E000030404F0004B21F0004514464FF0000A8E
:1043F00023F0004150EA050220D054EA01021DD00A
:10440000C5F30A570246C5F31303C1F31300C1F302
:104410000A5640F4801543F48013A7EB0608101BDE
:10442000D64608F2FD3873EB050002D308F1010807
:1044300001E092185B41B8F1000F03DA0020014659
:10444000BDE8F08D00204FF48011064684460EE052
:10445000171B73EB050705D3121B63EB050306431C
:104460004CEA010C49084FEA300092185B4150EACF
:104470000107EDD152EA030012D082EA040083EA78
:104480000501084305D0101BAB4106D201220023D1
:1044900006E000224FF0004302E06FF001025310EB
:1044A0001AEB06004CEB085110EB0A0041EB0B0134
:1044B000BDE8F04D00F049B81CB509480090094826
:1044C00001900546009C06E0E06840F0010394E896
:1044D000070098471034AC42F6D3FFF74DFE0000BA
:1044E00084DE0008A4DE0008202A04DB203A00FA5B
:1044F00002F1002070479140C2F1200320FA03F33B
:10450000194390407047202A04DB203A21FA02F038
:104510000021704721FA02F3D040C2F120029140FD
:10452000084319467047202A06DBCB17203A41FA88
:1045300002F043EAE07306E041FA02F3D040C2F130
:104540002002914008431946704710B5141E73F1BC
:10455000000408DA401C41F1000192185B411A4343
:1045600001D120F0010010BD2DE9F04D92469B468F
:1045700011B1B1FA81F202E0B0FA80F22032904635
:10458000FFF7B2FF04460F4640EA0A0041EA0B017A
:1045900053465A46084313D0114653EA010019D036
:1045A000C8F140025046FFF7AEFF05460E465046A2
:1045B00059464246FFF798FF084305D0012004E022
:1045C00020463946BDE8F08D0020054346EAE076F6
:1045D0002C4337430A986305E40AA0EB0800002245
:1045E000FD0A44EA47540A3002D500200146E9E7B3
:1045F000010510196941DDE9084500196941BDE867
:10460000F04DA2E7D2B201E000F8012B491EFBD227
:1046100070470022F6E710B513460A4604461946CD
:10462000FFF7F0FF204610BDF0B480EA0102D40F7E
:104630004200B2EB410F02D20246084611464A0040
:1046400042D0C30DDDB2C1F3C752AD1A202D35DA09
:10465000C1F3160141F4000204B15242C5F1200633
:1046600002FA06F12A411044B3EBD05F23D0C4B163
:10467000012DA0EBC35009DCF0BC4FF0004202EA70
:10468000C352DBB200F5000000F068B9400000F151
:10469000807000EBC350A0F1807040EAD1704900F7
:1046A00009E0490841EAC071A0EBC35000F50000E1
:1046B000400800EBC350F0BC00F047B96142012252
:1046C00002EB4101001BF6E7F0BC704781F00041AE
:1046D000AAE780F00040A7E780EA010210B502F0E7
:1046E0000043400022D04A001FD0010E01EB1261AE
:1046F000C0F35600C2F3560240F4000042F4000238
:10470000A0FB022000047F39140400D0401C50EAB2
:10471000124001D44000491EC2B20C0604EBD01076
:10472000401C4008802A02D003E0002010BD20F089
:104730000100002900DA0020184310BD30B480EADF
:10474000010202F0004530F0004221F0004013D099
:1047500090B1C30DD40DC2F31601C0F31600E41AD4
:1047600041F4000140F400027D34914201D3641C05
:1047700000E04900002C02DA30BC002070474FF402
:1047800000000023914201D3891A034340084FEAF5
:104790004101F7D151B1914202D14FF0004105E002
:1047A00002D24FF0010101E06FF0010103EBC450B0
:1047B000284430BC00F0C9B8002801DBC0F100403B
:1047C000002901DBC1F10041814201D8012070477D
:1047D00000207047002801DBC0F10040002901DB08
:1047E000C1F10041814201D2012070470020704791
:1047F000002801DBC0F10040002901DBC1F10041CC
:10480000814201D30120704700207047002801DB5E
:10481000C0F10040002901DBC1F10041814201D912
:104820000120704700207047C10F80EAE070084403
:10483000CA079623002100F091B896230022114662
:1048400000F08CB80EB5C10F80EAE0700844CA07CA
:10485000002140F233438DE80E000A460B46FFF775
:1048600083FE03B000BD0EB540F23341029100213A
:10487000CDE900110A460B46FFF776FE03B000BDF6
:1048800000F0004220F00040C10DC0F3160040F4DB
:1048900000007F2901DA00207047962903DCC1F16E
:1048A0009601C84001E096398840002AF4D0404281
:1048B000704720F00040C10DC0F3160040F4000026
:1048C0007F2901DA00207047962903DCC1F19601A7
:1048D000C840704796398840704770B5C1F30A5296
:1048E00001F000450024C1F3130140F2FF3341F40D
:1048F00080119A4201DA002070BD40F233439A429F
:10490000A2F2334203DC5242FFF7FDFD00E090408B
:104910002C43F1D0404270BDC1F30A5210B5C1F32F
:10492000130140F2FF3341F480119A4201DA002072
:1049300010BD40F233439A42A2F2334203DC5242AA
:10494000FFF7E1FD10BD904010BD0029A8BF7047E2
:10495000401C490008BF20F00100704710B4B0FAB5
:1049600080FC00FA0CF050EA010404BF10BC704750
:1049700049B1CCF1200421FA04F411FA0CF118BF6A
:10498000012121430843A3EB0C01CB1D4FEA006139
:104990004FEA102042BF002010BC704700EBC3500C
:1049A00010440029A4BF10BC7047401C490008BF38
:1049B00020F0010010BC7047FEE77047FEE7FEE7FD
:1049C0007047052100EBC000B0FBF1F0203083B24E
:1049D00070470222D0F804482047D4F804582046F3
:1049E00028478865B9F848100131A9F84810704780
:1049F000A7F80C0104F132003047A7F8080104F1D0
:104A00002E003047A7F8060104F12C00304720683B
:104A100020F00100206010BDA7F8040104F12A0075
:104A20003047A7F8020104F128003047A7F8000139
:104A300004F126003047A7F8FE0004F124003047B7
:104A4000A7F8FC0004F1220030479AF83900012849
:104A50007047A7F8FA0004F120003047A7F8F400E7
:104A600004F11A003047A7F8F20004F118003047AB
:104A7000A7F8F00004F116003047A7F8EE0004F1A3
:104A80001400304791F84520013A012A7047A7F8F1
:104A9000EC0004F112003047A7F8EA0004F110001E
:104AA0003047A7F8E80004F10E003047A7F8E60009
:104AB00004F10C003047208940F2E73200BA010CC3
:104AC00091427047A7F8E40004F10A003047A7F8C4
:104AD000E20004F1080030475146ADF81150039050
:104AE0007047A7F8D200A4F108003047A7F8D0001B
:104AF000A4F10A003047A7F8CE00A4F10C0030471B
:104B0000A7F8CC00A4F10E003047A7F8CA00A4F122
:104B100010003047A7F8C800A4F112003047A7F8EA
:104B2000C600A4F11400304706F1200102200A2239
:104B300086F8294009F08CB8A7F8C400A4F1160043
:104B40003047A7F8C200A4F11800304790F833109E
:104B500000297047A7F8C000A4F11A003047A7F851
:104B6000BE00A4F11C003047A7F8BC00A4F11E0051
:104B70003047A7F8BA00A4F120003047A7F8B800E2
:104B8000A4F122003047A7F8B600A4F12400304772
:104B9000A7F8B400A4F126003047BDF804200A327B
:104BA000ADF804209DF8072001328DF807207047EA
:104BB000A7F8B200A4F128003047018B40F271330E
:104BC00001F1320299427047A7F8B000A4F12A001F
:104BD0003047A7F8AE00A4F12C003047A7F8AC008E
:104BE000A4F12E003047A7F8AA00A4F13000304706
:104BF000A7F8A800A4F132003047A7F8A600A4F156
:104C000034003047A7F8A400A4F13600304721460D
:104C100009F01EB800EBC000B0FBF1F02030704787
:104C2000A7F8A200A4F138003047A7F8A000A4F12B
:104C30003A003047A7F89E00A4F13C003047A7F89F
:104C40009400A4F13E003047A7F89200A4F1400080
:104C50003047A7F89000A4F142003047A7F88E0033
:104C6000A4F144003047A7F88C00A4F14600304777
:104C7000A7F88A00A4F148003047A7F88800A4F1FB
:104C80004A0030470922018301EB8101A03991FBE1
:104C9000F2F17047A7F88600A4F14C003047A7F85E
:104CA0008400A4F14E003047A7F88200A4F1500020
:104CB0003047A7F88000A4F152003047A7F87E00E3
:104CC000A4F15400304787F84400A4F1560030475F
:104CD00087F84300A4F15800304787F84100A4F159
:104CE0005A00304787F84000A4F15C00304787F84D
:104CF0003E00A4F15E0030470522818201EBC10134
:104D0000B1FBF2F12031704787F83D00A4F160005B
:104D1000304787F83C00A4F16200304787F83B0039
:104D2000A4F16400304787F83A00A4F166003047E8
:104D300087F83900A4F168003047A7F87600A4F19D
:104D40006A00304787F83800A4F16C00304787F8D4
:104D50002E00A4F1700030470523218902EBC20226
:104D600049BAB2FBF3F2704795F848100029704732
:104D70000222D4F804682046304790F845100139E3
:104D80000229704702224FF6FF732847002190F84E
:104D9000302080F84B10012A70470021C17690F82E
:104DA000331003297047D4F8046820467047D4F8BC
:104DB0000468204645F224010222304790F874101E
:104DC00003297047B0FBF1F02030704728460421DA
:104DD00002F01EBC0020C88291F8390001287047FB
:104DE00001EB81010922A03991FBF2F17047208982
:104DF000C82200BA010CC829704790F8391001295F
:104E0000704753F822201288A5F87A207047010EC7
:104E100087F8160187F81311010C000A87F814119E
:104E200087F81501704795F846104A1ED2B2042A39
:104E30007047D4F80458204646F2F301022243F6A4
:104E40007F43284780F875308182827690F8301051
:104E500070470E2200BA000CA1F84400383102203D
:104E600008F0F6BE91F84520C876C88281F84B005C
:104E7000704702220123688ED4F8046801306886E6
:104E800020463047218940F2E73309BA0A0C9A429A
:104E9000704745F25401D0F804582847ADF82680F1
:104EA0008DF82170CDF8224008F0A8B9012180F8D2
:104EB00040107047012180F8301070479DF80700BE
:104EC0006060BCBD05F1200102200A2285F829405E
:104ED00008F0BEBEBAF81410BAF8163098F83D00C3
:104EE000BAF818208B4270470222D0F80468304785
:104EF0000222D0F804783847D4F80458204645F206
:104F0000110102222847D0F8044820479AF84600A9
:104F10000138032870472189092209BA090C704712
:104F200080F87530A0F87610704791B28282C9007F
:104F300011FA82F17047C176C18290F8391070473A
:104F400007F5017520461022294602F03FBB0522D5
:104F5000B1FBF2F12031018370479BF84600013824
:104F600004287047026842F001020260F020162215
:104F700087F817017047338B092103EB83007047D3
:104F8000218990F8392049BA012A7047B38A05214E
:104F900003EBC300704796F83900B6F876107047F7
:104FA000002185F840000120704794F84600013840
:104FB00003287047B0FBF1F101EB4101A0EB810048
:104FC00000287047D0E91A12013142F10002C0E90D
:104FD0001A127047B9F822000130A9F8220080B2F5
:104FE000322870470A6842F001020A60B97CB1EBCE
:104FF000106F704704F13C05A7F8140128463047AC
:1050000091F83300032870472189C82309BA0A0C94
:10501000C82A704704F11E05A7F8F6002846304755
:10502000B9F824000130A9F8240080B23228704772
:105030000025C7E94E0504F15E00304700220A62F0
:10504000CA614A610A61CBF804007047D4F8046869
:10505000204645F20C01022270479AF92F00DAF837
:1050600004107047D4F8045820467047022180F895
:1050700040107047A7F80A0104F13000304700F1F2
:105080002A01022008F0E4BD016841F00801016036
:10509000016841F004010160016821F400710160C0
:1050A000016821F480610160816821F48071816070
:1050B000816821F400718160016841F02001016084
:1050C000016841F040010160016841F40051016054
:1050D0007047C9B208F03AB891B20283890011FA58
:1050E00082F1A0397047BDF80C209DF80B301A44AE
:1050F00082427047A7F8320104F15C003047A7F8FC
:10510000300104F156003047A7F82E0104F1540095
:105110003047A7F82C0104F152003047A7F82A01C4
:1051200004F150003047A7F8280104F14E00304741
:10513000A7F8260104F14C00304740F00800F06069
:10514000F06840F00400F060F06820F40070F06057
:10515000F06820F48060F060706920F48070706105
:10516000706920F400707061F06840F02000F06019
:10517000F06840F04000F060F06840F40050F060EB
:105180007047A7F8240104F14A003047A7F822012C
:1051900004F148003047A7F8200104F146003047E9
:1051A000A7F81E0104F144003047A7F81C0104F1E0
:1051B00042003047A7F81A0104F140003047A7F831
:1051C000180104F13E003047A7F8120104F138003D
:1051D0003047A7F8100104F136003047A7F80E0158
:1051E00004F13400304700002DE9FC41FFF76EFA6E
:1051F0002D4F78617869F969FFF716FAF8612B4C41
:10520000F8692146FFF7E6FA00B9FC61F869002168
:105210000024FFF7FBFA00B9FC61D7E90086786942
:105220007C6A3969FFF752FAB86130467D69F969DD
:10523000FFF752FA0190009401980099FFF7BCFA29
:1052400008B9009801900198009981F00041FFF79A
:10525000CFFA18B9009880F00040019040462946E6
:10526000FFF73AFA0199FFF7DFF90446B8687D695C
:10527000B969FFF731FA2146FFF7D6F938623D6187
:10528000386AB96AFFF798FA08B9B86A3862386AB2
:10529000B96A81F00041FFF7ABFA08B90020386223
:1052A000386ABDE8FC8100BF0423002000C82F47F6
:1052B000704700002DE9F041451C044602202946B4
:1052C00008F0A8FC84F80104C0B2092841F04E821D
:1052D00028785A2841F04782A078A52841F04382D7
:1052E000A0790B38482801F23E82DFE810F049002F
:1052F0009C0284026B0212033C0A3C0A3C0A7D02B7
:10530000AF01C401440219022A0367015A015F0375
:1053100051025E024103EA02B703DB017D0307018C
:105320009801350126021E01EB03D4037401E2014A
:10533000AF0200023304530158032304F900CD02E5
:10534000ED00B7008B013D0276033C0A3C0A4F0496
:105350003C0A0001C6023C0A3C0A3C0AFE023C0A26
:105360003A04F702DD003C0A3C0A3C0A7300D5040B
:1053700009049D001E039B039000C403AB03F404C7
:10538000DFF8406C002086F83F0096F833000028D4
:1053900041F0E981207A657A0002FFF753FA8046EE
:1053A00028460F46FFF75FFADC4B0022FEF7A3FF0B
:1053B00042463B46FEF7F8FEFFF78FFA642898BF97
:1053C0006420B08200EBC0000521FFF7FBFC3083B6
:1053D00001F0C9B9DFF8A00EFFF7B8FB41F0C381B7
:1053E0000021C182617A012901F07180002941F018
:1053F000BA81FFF702FD01F0BE82002941F0B381BE
:10540000818A6422642988BF4A1E00F060BCDFF8EC
:10541000680EFFF7BBFC00F06E84002A40F06C843D
:10542000FFF748FD00F068BC607A012800F06B844B
:10543000002841F09881DFF8400E90F833100329DE
:1054400001F06B80002941F08E81817E0A2987BF9F
:10545000053981760521418301F085B9DFF8180E01
:10546000FFF774FB41F07F8190F83920617A012ABF
:1054700008D1227A41EA0221092201EB8101A039F7
:1054800091FBF2F1027D90F82E30511A194449B285
:105490006429A8BF642111F1640FD8BF6FF06301C4
:1054A00080F82E1001F05FB9607A002841F0E580A5
:1054B000DFF8C85D95F83200002800F03487DFF887
:1054C000C00DC08E00F037BFFFF7F5FA38BF020CF1
:1054D000DFF8A40D012A98BF0122428501F043B9EB
:1054E000607ADFF8941D81F83E0001F03CB9607AE3
:1054F000DFF8841D81F8400001F035B9DFF8780D40
:10550000FFF75CFC01F22F81DFE811F00400680571
:105510001D055E05FFF778FD38BF0B0C052B98BF06
:105520000523A0F8A03001F01EB9DFF84C0DFFF7FD
:1055300045FC01F21881DFE811F004007605110541
:105540006C05FFF79FFC38BF0B0C012B98BF0123A4
:10555000A0F8A83001F007B9DFF81C0DFFF72EFC0A
:1055600001F20181DFE811F004007A0544056905C4
:10557000FFF706FDA0F8A41004D1FFF731FCA0F856
:10558000A41089B2642900F2EE876421A0F8A41067
:1055900001F0E9B8607ADFF8E01C81F83A0001F028
:1055A000E2B8FFF788FA38BF020CDFF8CC0C012A0A
:1055B00098BF0122A0F8882001F0D5B8FFF717FCAA
:1055C00038BF020CDFF8B00C052A98BF0522A0F8FE
:1055D000862001F0C8B8DFF8A00CFFF7EFFB01F25E
:1055E000C280DFE811F004006A054C055605FFF79C
:1055F00049FC38BF0B0C012B98BF0123A0F8AE303B
:1056000001F0B1B8FFF757FA38BF020CDFF8680CA9
:10561000002908BF0122A0F8762001F0A4B8DFF825
:10562000580CFFF7CBFB01F29E80DFE811F004007D
:1056300075053C056B05FFF725FC38BF0B0C012BEE
:1056400098BF0123A0F8A23001F08DB8208900BADC
:10565000000C022800F06084012800F05384002828
:1056600041F08180DFF8100C012180F8381080F8BB
:10567000441001F078B8DFF8000C90F839100029D8
:1056800000F05483012940F06483FFF744FCA0F844
:10569000961001EB8101A03991FBF2F1A0F87E1088
:1056A00089B258E3607ADFF8D01B81F8740001F00A
:1056B0005AB8DFF8C40BFFF781FB01F25480DFE832
:1056C00011F00400500506053505FFF759FCA0F858
:1056D000B01004D1FFF784FBA0F8B01089B26429A0
:1056E00000F261876421A0F8B01001F03CB8DFF847
:1056F000880BFFF763FB01F23680DFE811F004004E
:105700004305F9042805FFF7BDFB38BF0B0C012B3F
:1057100098BF0123A0F8B43001F025B80000044080
:10572000FFF7C9F938BF020CDFF84C0B012A98BF0C
:105730000122A0F8822001F016B8DFF83C0BFFF739
:105740003DFB01F21080DFE811F004003B05270566
:105750003105FFF759FC38BF0B0C052B98BF05230B
:10576000A0F8A63000F0FFBF607ADFF80C1B81F8CC
:10577000410000F0F8BFFFF73AFB38BF020CDFF83A
:10578000F80A052A98BF0522A0F8802000F0EBBF98
:10579000FFF72DFB38BF020CDFF8DC0A052A98BFA3
:1057A0000522A0F88C2000F0DEBFFFF784F938BF97
:1057B000020CDFF8C40A012A98BF0122A0F88E204B
:1057C00000F0D1BFDFF8B00AFFF7E7FA00F0B882C7
:1057D000002940F0C887617A052998BF0521C829AA
:1057E00028BFC82100F0B9BF607ADFF88C1A81F8B1
:1057F000450000F0B8BFDFF8800A0021C182FFF742
:10580000A5F940F0B087218909BA0A0CFFF7F5FA2B
:1058100040F0B58502EB82010923A03991FBF3F337
:10582000114600F0B3BDDFF8500A012190F8332093
:1058300080F83F10032A00F0AB82002A40F09387E3
:10584000617A052998BF052100F087BFDFF8280A93
:10585000FFF7B4FA00F28787DFE811F00400D00404
:10586000BC04C604FFF7D0FB38BF0B0C052B98BF58
:105870000523A0F8B23000F076BF607ADFF8F8199F
:1058800081F8440000F06FBF208900BA010CDFF8F6
:10589000E80990F83920C184002A00F07F82012AAB
:1058A00040F06187D42928BFD421212998BF212124
:1058B00001EB81010922A03989B2B1FBF2F100F0BC
:1058C00016BEFFF794FA38BF020CDFF8AC09052AC0
:1058D00098BF0522A0F8922000F045BF607ADFF85B
:1058E000981981F8420000F03EBF617ADFF888091C
:1058F000002980F8471000F05A82012940F03387D0
:10590000012180F84610B0F8A210A0F87A1000F03B
:105910002ABFDFF86409FFF739FA00F04D82002A48
:1059200040F04B82FFF7C6FA47E2DFF84C09FFF779
:105930002DFA00F04982002A40F04782FFF7BAFAB8
:1059400043E2DFF8340990F83910002900F044826E
:10595000012940F05F82FFF7DEFAA0F8981001EB12
:105960008101A03991FBF2F1A0F8841089B253E2D1
:10597000DFF8040990F83910002900F03782012976
:1059800040F06782FFF7C7FAA0F89C1001EB810195
:10599000A03991FBF2F1A0F8901089B25BE2607A35
:1059A000DFF8D41881F83B0000F0DDBEDFF8C8084E
:1059B00090F83910002900F02382012940F070820C
:1059C000FFF7A9FAA0F89A1001EB8101A03991FB29
:1059D000F2F1A0F88A1089B264E2607ADFF89818D0
:1059E00081F8430000F0BFBEDFF88C08FFF7E6F94E
:1059F00000F2B986DFE811F004002E040C041D0447
:105A0000FFF7BEFAA0F89E1004D1FFF7E9F9A0F85D
:105A10009E1089B2642900F2E6856421A0F89E10E8
:105A200000F0A1BE607A002840F04A86DFF84C58AA
:105A300095F83400002800F0C384DFF84408408F54
:105A400000F0C6BCDFF83008FFF7A0F900F02082B4
:105A5000002A40F01E82FFF72DFA1AE2FFF72BF81A
:105A600038BF020CDFF81008012A98BF0122A0F805
:105A7000942000F078BE607A002840F04286DFF87B
:105A8000FC5795F83600002800F0C684DFF8F007D0
:105A9000C08F00F0C9BCDFF8E007FFF78FF900F214
:105AA0006286DFE811F004002504EF030A04FFF723
:105AB000ABFA38BF0B0C052B98BF0523A0F8AC3010
:105AC00000F051BEDFF8B007FFF778F900F24B861F
:105AD000DFE811F004001804E203FD03FFF750FAB9
:105AE000A0F8AA1004D1FFF77BF9A0F8AA1089B298
:105AF000642900F298856421A0F8AA1000F033BE52
:105B0000607A012800F0EB81002840F02C86DFF855
:105B1000680790F83310032900F00985002940F048
:105B200022860021C176817E05298CBF013905219D
:105B300000F013BEDFF84427607ADFF83C1792F8D4
:105B4000393081F83C00834200F00D86002382F852
:105B5000390015E0607ADFF8201781F8390000F08D
:105B600002BEDFF87C2E607ADFF8701E92F83A30C1
:105B700081F83D00834200F0F685002382F83A0068
:105B800081F8333081F84B3000F0EDBD617ADFF8F9
:105B90004C0E002918BF012180F8491000F0E38560
:105BA0000A221E2528214FF4BE73F14EF14F00F159
:105BB000F80E4FF0000CC283A0F876204FF480322C
:105BC0004585322581764FF433718382A0F8843085
:105BD000E94B80F839C080F82EC080F844C080F8C6
:105BE00075C00264E54AC584642501834FF0013124
:105BF000C0F8A260C0F8A67005770125C0F83A1079
:105C0000DF49C0E93363C0F8B230C0F8EE30DD4B95
:105C1000DD4EC0F88020DD4A80F83E50DC4DC0F8F3
:105C20009A204FF4C872C0F896504FF4AF75A0F8A0
:105C30008A20D84AA0F87E50D74DC0F88620D74A8F
:105C4000C0E92F51C0F89E50D54DD649C0F88C20E0
:105C50004FF4E172C0F8DE50D34DC0F8DA10AEE870
:105C60004A0000F58271A0F89020D04AC0F8E250B6
:105C7000CF4DC0F89220CF4AC0F8EA50C0F8AA2011
:105C8000CD4AC0F8AE20CD4AC0E93172CC4FC0F841
:105C9000E620A4C100F067BDDFF8400DFEF756FF17
:105CA00040F061850021C182617A012900F02184E0
:105CB000002940F05885FFF7A0F800F06D86002914
:105CC00040F05185818A4A1F6A2938BF6422FFF754
:105CD0002CF900F01FBC607A002840F03385DFF813
:105CE000005D95F83800002800F0C283DFF8F40C5E
:105CF000B0F84200C6E30184DFF8E40C012180F82B
:105D0000351000F030BDDFF8D40C90F833100329C3
:105D100000F00884002940F026850021C176817EAC
:105D2000C32980F0EC80053100F017BDB0F8962053
:105D3000FFF712F8A0F87E102032A0F896200AE0B3
:105D4000617A012998BF0121C82928BFC82100F024
:105D500009BDB0F87E10652901D2642104E0B1F5D7
:105D6000FA7F03D34FF4FA71A0F87E10B0F89610C2
:105D7000D42904D8D421A0F8961000F0F4BCB1F5D1
:105D8000697F24BF4FF46971A0F8961000F0EBBC56
:105D9000627A012A88BF114600F0E4BC002900F0B5
:105DA000A583642924BF6421C18400F0DCBC0021E8
:105DB00080F8461000F0D7BC0184DFF8240C0121E4
:105DC00080F8311000F0CFBC0184DFF8140C012101
:105DD00080F8331000F0C7BCB0F89820FEF7BCFF85
:105DE000A0F884102032A0F8982015E0B0F89C208C
:105DF000FEF7B2FFA0F890102032A0F89C202AE015
:105E0000B0F89A20FEF7A8FFA0F88A102032A0F878
:105E10009A2047E0B0F88410652901D2642104E09B
:105E2000B1F5FA7F03D34FF4FA71A0F88410B0F8FB
:105E30009810D42904D8D421A0F8981000F093BC6D
:105E4000B1F5697F24BF4FF46971A0F8981000F094
:105E50008ABCB0F89010652901D2642104E0B1F544
:105E6000FA7F03D34FF4FA71A0F89010B0F89C10A9
:105E7000D42904D8D421A0F89C1000F074BCB1F54A
:105E8000697F24BF4FF46971A0F89C1000F06BBCCF
:105E90000184DFF8800F012180F8371000F063BC27
:105EA000B0F88A10652901D2642104E0B1F5FA7FC7
:105EB00003D34FF4FA71A0F88A10B0F89A10D429DD
:105EC00004D8D421A0F89A1000F04DBCB1F5697F38
:105ED00024BF4FF46971A0F89A1000F044BCDFF8B9
:105EE000300F90F83310032900F02783002940F089
:105EF0003A840021C176817EC829C0F02D84C82152
:105F000000F02BBCDFF8080F002180F844100121BD
:105F100080F8381000F027BCDFF8F45E00201A2665
:105F20000A2285F84400022085F83800DFF8D80EF0
:105F300080F8296000F12001022007F089FE85F831
:105F4000456000F010BCFFF75FF838BF0B0C052B65
:105F500098BF0523A0F8DC3000F005BCFEF792FFE7
:105F600038BF0B0C012B98BF0123A0F8E430FAE3F3
:105F70000A000401140003001400050014000A00C4
:105F8000030004010400F4011E000600F0024A03AD
:105F90009602CC021E000F00960028002800140074
:105FA0000400C20190011E002800080028000A0019
:105FB0000400040118011400040064007C0128009E
:105FC00028000500002A0020FFF71EF838BF0B0C40
:105FD000052B98BF0523A0F8FA30C4E3FFF714F8A7
:105FE00038BF0B0C052B98BF0523A0F8BE30BAE3D1
:105FF000FEF7C6FFA0F8E01004D1FEF7F1FEA0F80E
:10600000E01089B2642900F29E826421A0F8E010B9
:10601000A9E3FEF737FF38BF0B0C012B98BF012314
:10602000A0F802319FE3FEF72DFF38BF0B0C012BC8
:1060300098BF0123A0F8C63095E3FEF7A1FFA0F8B2
:10604000FE1004D1FEF7CCFEA0F8FE1089B2642940
:1060500000F281826421A0F8FE1084E3FEF790FF35
:10606000A0F8C21004D1FEF7BBFEA0F8C21089B29E
:10607000642900F280826421A0F8C21073E3FEF765
:1060800001FF38BF0B0C012B98BF0123A0F8EA30A9
:1060900069E3FEF7F7FE38BF0B0C012B98BF012315
:1060A000A0F808315FE3FEF7EDFE38BF0B0C012BC3
:1060B00098BF0123A0F8DE3055E3FEF7E3FE38BFBA
:1060C0000B0C012B98BF0123A0F8CC304BE3FEF75B
:1060D00057FFA0F8EC1004D1FEF782FEA0F8EC10F8
:1060E00089B2642900F24F826421A0F8EC103AE3EF
:1060F000FEF7C8FE38BF0B0C012B98BF0123A0F898
:10610000F03030E3FEF7BEFE38BF0B0C012B98BF1A
:106110000123A0F8FC3026E3FEF7B4FE38BF0B0CD9
:10612000012B98BF0123A0F8C0301CE3FEF728FF25
:10613000A0F80A1104D1FEF753FEA0F80A1189B2A3
:10614000642900F228826421A0F80A110BE3FEF70B
:1061500099FE38BF0B0C012B98BF0123A0F80E311C
:1061600001E3FEF70DFFA0F8CE1004D1FEF738FED4
:10617000A0F8CE1089B2642900F21D826421A0F833
:10618000CE10F0E2FEF77EFE38BF0B0C012B98BF5D
:106190000123A0F8D230E6E2FEF736FF38BF0B0C41
:1061A000052B98BF0523A0F8E230DCE2FEF72CFFB8
:1061B00038BF0B0C052B98BF0523A0F80031D2E2A5
:1061C000FEF722FF38BF0B0C052B98BF0523A0F864
:1061D000C430C8E2FEF718FF38BF0B0C052B98BF80
:1061E0000523A0F8EE30BEE2FEF70EFF38BF0B0C21
:1061F000052B98BF0523A0F80C31B4E2FEF704FF8D
:1062000038BF0B0C052B98BF0523A0F8D030AAE2AD
:10621000FEF7B6FEA0F8DA1004D1FEF7E1FDA0F813
:10622000DA1089B2642900F2CE816421A0F8DA1074
:1062300099E2FEF7A5FEA0F8F81004D1FEF7D0FD14
:10624000A0F8F81089B2642900F2C5816421A0F891
:10625000F81088E2FEF794FEA0F8BC1004D1FEF717
:10626000BFFDA0F8BC1089B2642900F2C48164218A
:10627000A0F8BC1077E200BF002A002090000020A8
:1062800090010020FEF7C0FE38BF0B0C052B98BF15
:106290000523A0F8E83066E2FEF772FEA0F8E610EB
:1062A00004D1FEF79DFDA0F8E61089B2642900F242
:1062B000AA816421A0F8E61055E2FEF7A5FE38BFDA
:1062C0000B0C052B98BF0523A0F806314BE2FEF717
:1062D00057FEA0F8041104D1FEF782FDA0F80411C6
:1062E00089B2642900F297816421A0F804113AE28E
:1062F000FEF78AFE38BF0B0C052B98BF0523A0F8CC
:10630000CA3030E2FEF73CFEA0F8C81004D1FEF718
:1063100067FDA0F8C81089B2642900F28C8164215D
:10632000A0F8C8101FE2DFF8901F002085F83100A8
:10633000C88E0130C88680B20A28C0F014820220BC
:10634000DFF83C6FFEF72CFE85F83200DFF8680FAF
:10635000B37EC186FEF71FFEA6F880300128A6F89E
:10636000821000F07081002840F07E81FEF70EFE62
:10637000A6F87E30FEF726FDA6F896006CE102EB4B
:10638000C2010523B1FBF3F1134620319AB2018318
:106390008382652A01D2642204E0B2F5FA7F02D337
:1063A0004FF4FA72828289B2D42902D8D4210183AF
:1063B000D9E1B1F5697F24BF4FF469710183D2E15E
:1063C000DFF8F41E002085F83300488F013048873D
:1063D00080B20A28C0F0C7810220DFF8A46EFEF761
:1063E000DFFD85F83400DFF8D00EB37E4187FEF77D
:1063F000D2FDA6F886300128A6F8881000F0488162
:10640000002840F05581FEF7C1FDA6F88430FEF764
:10641000D9FCA6F8980044E1DFF89C1E002085F81E
:106420003500C88F0130C88780B20A28C0F09B8130
:106430000220DFF84C6EFEF7B3FD85F83600DFF87A
:10644000780EB37EC187FEF7A6FDA6F88C30012832
:10645000A6F88E1000F03D81002840F04A81FEF73A
:1064600095FDA6F88A30FEF7ADFCA6F89A0039E152
:10647000DFF8441E002085F83700B1F842000130F3
:10648000A1F8420080B20A28C0F06D810220DFF836
:10649000F06DFEF785FD85F83800DFF81C0EB37E41
:1064A000A0F84210FEF777FDA6F892300128A6F872
:1064B000941000F02F81002840F03C81FEF766FD2B
:1064C000A6F89030FEF77EFCA6F89C002BE1FEF7C4
:1064D00094FC00F05682002940F04581818A4FF4F7
:1064E000FA72B1F5FA7F38BF4A1C10E00021C1846E
:1064F00039E1FEF782FC00F05F82002940F0338131
:10650000818A4A1DB1F5F77F88BF4FF4FA7202EB1A
:10651000C2018282FEF71BFD25E1017F0A290AD90B
:1065200005391FE1017FC8290BD205311AE1017F2E
:10653000052900F21481052114E1017FC829C0F06A
:106540001081C8210EE1B1F5FA7F24BF4FF4FA7132
:10655000A0F8E01007E1B1F5FA7F24BF4FF4FA711B
:10656000A0F8FE10FFE0B1F5FA7F24BF4FF4FA71F6
:10657000A0F8A410F7E0B1F5FA7F24BF4FF4FA7148
:10658000A0F8C210EFE0B1F5FA7F24BF4FF4FA7122
:10659000A0F8EC10E7E0B1F5FA7F24BF4FF4FA71F0
:1065A000A0F80A11DFE0B1F5FA7F24BF4FF4FA71C9
:1065B000A0F8B010D7E0B1F5FA7F24BF4FF4FA711C
:1065C000A0F8CE10CFE0B1F5FA7F24BF4FF4FA71F6
:1065D000A0F8DA10C7E0B1F5FA7F24BF4FF4FA71E2
:1065E000A0F8F810BFE0B1F5FA7F24BF4FF4FA71BC
:1065F000A0F89E10B7E0B1F5FA7F24BF4FF4FA710E
:10660000A0F8BC10AFE0B1F5FA7F24BF4FF4FA71E7
:10661000A0F8E610A7E0B1F5FA7F24BF4FF4FA71B5
:10662000A0F804119FE0B1F5FA7F24BF4FF4FA718E
:10663000A0F8AA1097E0B1F5FA7F24BF4FF4FA71E1
:10664000A0F8C8108FE0FEF796FCA6F89630A038A8
:1066500090FBF1F0A6F87E00DFF88C0345F21501FF
:10666000FEF746FCB6F88030DFF87C0345F21601F1
:10667000FEF73AFC0120A876607A012873D1DFF892
:10668000440F002180F83210DFF83C0FC1866AE029
:10669000FEF771FCA6F89830A03890FBF1F0A6F850
:1066A0008400D14845F21801FEF722FCB6F8863086
:1066B000CD4845F21901FEF717FC0120A876607A53
:1066C000012850D1C648002180F83410C5484187C0
:1066D00049E0FEF750FCA6F89A30A03890FBF1F0A4
:1066E000A6F88A00C04845F21B01FEF701FCB6F887
:1066F0008C30BD4845F21C01FEF7F6FB0120A87660
:10670000607A01282FD1B648002180F83610B548AC
:10671000C18728E0FEF72FFCA6F89C30A03890FB3C
:10672000F1F0A6F89000B04845F21E01FEF7E0FB3C
:10673000B6F89230AC4845F21F01FEF7D5FB0120B8
:10674000A876607A01280ED1A548002180F838107B
:10675000A448A0F8421006E00131817603E0013937
:1067600000E001310177002084F801049C4C94F88A
:106770003100012839D194F8320018B1994800212C
:10678000818632E09748818E0131818689B2C9299C
:106790002BD300218186914884F8311090F8332062
:1067A0001ABBFEF7C8FB012280F8752049B1012908
:1067B0000ED1B0F89610FEF765FAA0F87E1081822F
:1067C00006E0B0F87E10FEF797FAA0F89610018365
:1067D00090F88010022201238176B0F88210A0F890
:1067E0007610C1838048FEF754FB94F833000128EB
:1067F00039D194F8340018B17A480021018732E089
:106800007848018F0131018789B2C9292BD3002132
:106810000187724884F8331090F833201ABBFEF7D2
:106820008AFB022280F8752049B101290ED1B0F807
:106830009810FEF727FAA0F88410818206E0B0F8DD
:106840008410FEF759FAA0F89810018390F886108A
:10685000022202238176B0F88810A0F87610C18356
:106860006148FEF716FB94F83500012839D194F8F9
:10687000360018B15B480021818732E05948818F8A
:106880000131818789B2C9292BD3002181875348DF
:1068900084F8351090F833201ABBFEF74CFB032226
:1068A00080F8752049B101290ED1B0F89A10FEF791
:1068B000E9F9A0F88A10818206E0B0F88A10FEF7A4
:1068C0001BFAA0F89A10018390F88C10022203237F
:1068D0008176B0F88E10A0F87610C1834248FEF79A
:1068E000D8FA94F8370001281AD194F8380028B162
:1068F0003C480021A0F84010BDE8F0813948B0F8CC
:1069000040100131A0F8401089B2C92908D30021F4
:10691000A0F84010314884F8371090F833200AB1BD
:10692000BDE8F081FEF707FB042280F8752049B12D
:1069300001290ED1B0F89C10FEF7A4F9A0F8901030
:10694000818206E0B0F89010FEF7D6F9A0F89C100E
:10695000018390F89210022204238176B0F89410FB
:10696000A0F87610C183204845F25401D0F804C83D
:10697000BDE8F0416047018BD422D42988BF4A1E6C
:1069800010E0018B4FF46972B1F5697F38BF4A1C82
:10699000028302EB82010AE0018BA1F12602FB29AE
:1069A00038BFD42291B20283890011FA82F1A03952
:1069B000092291FBF2F10FE0018B40F27D3301F1EE
:1069C0002602994288BF4FF4697202EB820102836A
:1069D000A0390922B1FBF2F18182C4E6002A00202D
:1069E0009000002090010020482B002070470000FC
:1069F00070B5DFF81444E0880138E08000040AD163
:106A00004FF47A70DFF80824E080DFF80004016DAD
:106A1000116100210165DFF8FC63DFF8F453B07801
:106A200090BB287801282FD10A2004F047FA80086B
:106A30006860102004F042FAA6F84400B6F844005A
:106A4000FDF711FFC54AC64BFDF755FCC54B0022AB
:106A5000FDF751FCC44AC54BFDF7A6FBC44AC54B24
:106A6000FDF7BBFCC44B0022FDF79EFBFDF735FF95
:106A7000A5F87C00013880B2312805D86868800804
:106A80007C289CBF0120B07095F83300022815D1F6
:106A9000A0890138A081000415D14FF47A70A0813B
:106AA000A88D0138A88500B2B0F1FF3F0BDC0220B1
:106AB00086F84000002085F8330004E04FF47A7037
:106AC000A081688DA88595F84700B8B1012840F0ED
:106AD000F38095F92F0069687279084495F92E10B2
:106AE000401A95F874108AB1032900F2C680DFE8D5
:106AF00001F002552A4095F8461016E04FF47A70DE
:106B0000208100207071A5F87A00D5E001220329C8
:106B1000727100F2B280DFE801F00244192FFEF733
:106B200082F902D2C8A3FEF76CF9032977D00229B3
:106B30005BD0012940F08780FEF716F940F09D8078
:106B4000B5F89E108EE095F8461005E0FEF76BF95B
:106B500002D2B5A3FEF755F903293AD0022932D063
:106B6000012948D1FEF700F940F08780B5F8DA1026
:106B700078E095F8461005E0FEF755F902D2A6A395
:106B8000FEF73FF9032944D0022928D001294CD12E
:106B9000FEF7EAF871D1B5F8F81063E095F8461001
:106BA00005E0FEF740F902D2A3A3FEF72AF9032974
:106BB00043D0022927D001294DD1FEF7D5F85CD169
:106BC000B5F8BC104EE0FEF7CFF856D1B5F8E0109E
:106BD00048E0FEF7C9F850D1B5F8E61042E0FEF7FC
:106BE000C3F84AD1B5F8FE103CE0FEF7BDF844D139
:106BF000B5F8A41036E004293FD1FEF7B5F83CD132
:106C0000B5F8EC102EE0FEF7AFF836D1B5F8C210AB
:106C100028E0FEF7A9F830D1B5F8041122E0FEF71C
:106C2000A3F82AD1B5F8AA101CE0042925D1FEF753
:106C30009BF822D1B5F80A1114E0FEF795F81CD1A3
:106C4000B5F8C8100EE0042917D1FEF78DF814D15D
:106C5000B5F8B01006E004290FD1FEF785F80CD185
:106C6000B5F8CE1080B2CA1E824222DA03318142C8
:106C70001FD920890138208100E0208900041BD120
:106C80004FF47A702081B5F87A000138A5F87A00BF
:106C900000B2B0F1FF3F0FDC95F846100020707194
:106CA000013185F84610C9B2052905D3A5F846007B
:106CB00029E74FF47A70208195F84B0028B395F8B6
:106CC0003100012805D1022086F84000002085F817
:106CD0004B0060890138608100041DD1B5F878004F
:106CE0000138A5F8780000B2B0F1FF3F09DC0020C0
:106CF00085F84B00022086F84000B5F87600A5F82C
:106D000078004FF47A70608106E04FF47A70608109
:106D1000B5F87600A5F878004F4CA068804794F845
:106D20002D00012809D194F82C0018B1013884F8FD
:106D30002C0002E0022084F82D0094F83C0010B1F1
:106D4000013884F83C0094F85100012819D194F8D6
:106D5000500098B1013884F8500012E052B81E85F6
:106D6000EB510A400000303F295C8FC2F528F4BF88
:106D700033E197FA7953713F00002E40022084F8E6
:106D8000510094F8600010B1013884F86000334875
:106D9000417B012906D1017B11B10139017301E069
:106DA00002214173017F09B10139017790F8311057
:106DB000012909D190F8301019B1013980F830104B
:106DC00002E0022180F8311090F8401011B1013931
:106DD00080F8401090F85510012909D190F854100E
:106DE00019B1013980F8541002E0022180F85510E1
:106DF00090F8641011B1013980F864100348416DB6
:106E00000131416570BD00BF0000002090010020ED
:106E1000002A002090000020FC2A0020022B0020E5
:106E2000082B00200E2B0020DE2A0020E42A002060
:106E3000EA2A0020F02A0020C02A0020C62A0020CA
:106E4000CC2A0020D22A0020A22A0020A82A002032
:106E5000AE2A0020B42A0020080200207002002080
:106E60001848C16941F08051C16117490A7842F060
:106E700004020A70C16921F08051C161016841F0CA
:106E80000101016001688907FCD5416821F0030117
:106E90004160416811F00C0FFBD101680B4A1140B1
:106EA00001600021416041F61071C1624FF4801110
:106EB00001634FF41F01816005484FF000610160DC
:106EC000704700BF0010024050700040FFFFF2FE0C
:106ED00008ED00E02DE9F84FC64F3868C00700F014
:106EE0004081DFF864B99BF80000012840F022815E
:106EF000DFF8D096C04E99F804003546012808D135
:106F0000DFF88003BD4D846829462046FDF77EFCEE
:106F100018B9DFF870032C468560B9F8485042F67E
:106F2000E060854209D3DBE950010025A9F848500B
:106F3000013041F10001CBE950019BF838000228F3
:106F400012D0012840F0F3809BF84400002850D074
:106F5000012840F073809BF83300022860D000289D
:106F60006CD1BBF8140060E0DFF81853C348A86088
:106F7000BBF81400A9F84A009BF84800002840F02C
:106F8000D6809BF8470000283BD0012840F0CF80F6
:106F90009BF8460099F80310814218BF89F8030056
:106FA0009BF84A00002800F0C28006F0F5F89BF834
:106FB0007410CBF80400032900F216819BF92F20EE
:106FC00010449BF92E20A0EB0208DFE811F004002A
:106FD000FF00E900F400FDF7C0FF00F20581DFE8E3
:106FE00010F005002D011E0127010001BBF89E4095
:106FF00026E19BF83300022819D0F8B9BBF8140039
:107000001AE006F0C9F800212962E9616961296185
:10701000CBF804009C48A860A7488165E96086E039
:10702000BBF82600BBF814100844323004E0BBF86B
:107030001400BBF826100844A9F84A009BF8310058
:1070400078B19BF8421061B1012808BF012962D1D3
:1070500006F0A2F88B49FDF7F1FF97488265CA60F8
:1070600059E09BF84A00002855D006F095F89BF9A6
:107070002F10CBF80400BBF8146008449BF92E10C5
:10708000A0EB010AB9F84A00B9F846100FFA80F8E7
:10709000B14208D000F058FB8BF82F00794800214E
:1070A000C161A9F846600FFA8AFA08F164005045F8
:1070B00006DA681CA9F848007F48002181652AE0AB
:1070C000A8F16400504506DD7B4871498165681C64
:1070D000A9F848001FE008F10500504503DBA8F1BE
:1070E000050050453FDD0020A9F84C0089F8040058
:1070F0004046FDF799FB04465046FDF795FB0146D7
:107100002046FEF771F86C49FDF76BFC0021FDF796
:107110007DFB0028D0D09BF83300032807D106F070
:107120003BF85849FDF78AFF63488265CA609BF8BF
:10713000320030B960480021846D2046FDF766FBBF
:1071400010B95D48002484652046FDF7B2FB7862E3
:107150004FF08040016841F0010101606FF00100D3
:107160003860BDE8F88FB9F84C000130A9F84C0040
:1071700080B23C28BCD30120444989F80400002097
:10718000A9F84C002046FDF74FFA3F4D044629462A
:10719000FDF73CFB00283B4814BF84608560A7E7EF
:1071A000FDF7DBFE20D8DFE800F0032E34221C00C0
:1071B000BBF8DA4044E0FDF7D0FE15D8DFE800F078
:1071C000032C35201100BBF8F84039E0FDF7C5FE6F
:1071D0000AD8DFE800F00327301B0600BBF8BC40EC
:1071E0002EE00020ABF84600F748806D3CE0BBF88D
:1071F000EC4025E01000004000204B4700401C46BA
:10720000BBF80A411CE0BBF8E04019E0BBF8CE40F7
:1072100016E0BBF8E64013E0BBF8FE4010E0BBF818
:10722000AA400DE0BBF8C2400AE0BBF8044107E009
:10723000BBF8B04004E0BBF8C84001E0BBF8A44094
:10724000204600F081FA8BF82F002046FDF7F5FA72
:1072500004460FFA88F0FDF7E7FA01462046FDF7ED
:10726000C3FFD949FDF7BDFB00210024FDF7CEFA8D
:1072700008B9D5488465AE6059E700BF00C0DA465A
:10728000002A00200423002000401C460000FAC40D
:10729000007F3B4707484168890709D5016889078E
:1072A00006D5C9490A6D01320A656FF002014160D5
:1072B000704700BF0C04004090010020BCB5154C85
:1072C0002068E06880060DD5206880060AD5206811
:1072D000606861686B4D05F12400FDF7FAFE4FF41C
:1072E00082702886E068400610D5206840060DD5DB
:1072F000644D6FF040000DF10701206005F134008E
:1073000005F011FF18B1002085F84100BCBDFDF764
:10731000D5BD00BF004C0040BCB5154C2068E068EE
:1073200080060ED5206880060BD5206860686168ED
:10733000544D05F14800FDF7CCFE4FF48270A5F8DE
:107340005400E068400610D5206840060DD54D4D2C
:107350006FF040000DF10701206005F1580005F0C5
:10736000E2FE18B1002085F86500BCBDFDF7A6BDA2
:1073700000500040BCB5144C2068E06880060BD576
:107380002068800608D56168264D05F12000FDF7CC
:10739000A0FE4FF48270A885E068400610D52068F2
:1073A00040060DD51F4D6FF040000DF10701206024
:1073B00005F1300005F0B7FE18B1002085F83D005A
:1073C000BCBDFDF77BBD00BF00380140BCB5144C0F
:1073D0002068E06880060CD52068800609D56168C1
:1073E000104D05F14400FDF774FE4FF48270A5F8CE
:1073F0005000E068400610D5206840060DD5094DC4
:107400006FF040000DF10701206005F1540005F018
:107410008AFE18B1002085F86100BCBDFDF74EBDA5
:107420000044004008020020BCB5154D2868E868FB
:1074300080060DD5286880060AD528686868114C32
:107440006868C1B2204605F081FE4FF48270A081C9
:10745000E86840060FD5286840060CD5094C6FF047
:1074600040000DF10701286004F1100005F05BFEFB
:1074700010B100206077BCBD9DF807006860BCBDFE
:107480000048004070020020FEE710B580F80714A5
:107490008224090A80F809341B0A80F805444AF25C
:1074A0005A5480F80614D11C80F80834082280F859
:1074B0000414A0F8024400F202410220BDE810408A
:1074C00006F0C6BB0648BFF34F8F064A016801F4B9
:1074D000E06111430160BFF34F8F00BFFDE700BFC4
:1074E0000CED00E00400FA0500EB400107221E3914
:1074F00002FA01F1044A136819431160916A21F0FC
:107500001F010843906270470C24014002484FF469
:1075100080510160704700BF140C014002484FF4D5
:1075200080510160704700BF100C0140B0B5C64CDF
:1075300094F83A0001280FD1224DA879DFE800F035
:10754000032D1A21130095F84000022829D00128A4
:1075500014BF0020012025E0FFF7D8FF19480021C3
:1075600080F840101FE0FFF7D1FF0020A87185F8D8
:10757000400018E0FFF7D2FF1348FDF723FD143950
:1075800003E01148FDF71EFD023972F100010AD334
:107590000021C0E91A11042004E0FFF7BFFF032017
:1075A00000E00220A87194F8320050B1054801783B
:1075B00001310170C9B2502903D3FDF757FD0021F5
:1075C0000170B0BD9000002090010020F0B1E9B141
:1075D000F0B5930801300D461C462CB150F8046BF1
:1075E000013C36BA40C5F8E712F003020CD0002483
:1075F00018250026A24205D0075D0134AF40083DA2
:107600003E43F7E741F82360BDE8F04070470000D3
:10761000034A19B108C801391360FAE710687047C6
:1076200000300240F0B532490A68C2F38103314AA2
:10763000022B08D0ABBB0B6D9B0532D5CB6A9B01EF
:1076400048BF2E4A2DE00B688C6A1B0C002C13D40B
:107650000C680D68C5F34175C4F383440DB90F2C54
:1076600043D12D0101352C44DB0702D00B689B036D
:1076700000D5214A624314E08C6A8D6A8E6ADB076A
:107680001D4BC4F30314C5F3082506F0070603D009
:107690000F68BF0358BF134604FA06F26B43B3FBEF
:1076A000F2F2026016A40B68C3F30313E35C184CF8
:1076B000DA4042600B68C3F30223E35C22FA03F36F
:1076C000C3600B68C3F3C223E35C0424DA40826026
:1076D0000B68096804EA9363C1F3813119440DA36F
:1076E000595CB2FBF1F10161F0BD0225BBE700BFBF
:1076F0000410024000127A0000093D00006CDC0218
:107700000000000000000000010203040607080951
:1077100028DE000802040608020C08107CB50446A6
:1077200000204FF6FF75C6B26C2E09D8301903F051
:10773000B1FBADF80600B01CBDF80610A942F2D1AD
:10774000BDF806007CBD000082B000213E4A8DF8E5
:107750000710ADF804108DF80310927E1F2A1BD37A
:107760008DF8031081084A2935D86421ADF804103A
:1077700000218DF8071036499DF80720132A5AD8A2
:107780004DF808EDFDF7AFFC5DF808EB53D27346FA
:10779000FDF703FA9E46EFE7013A132A4ED88DF81B
:1077A000031081084A292ED86421ADF80410002165
:1077B0008DF8071025499DF80720132A41D84DF868
:1077C00008EDFDF790FC5DF808EB34D27346FDF749
:1077D000E4F99E46EFE74FF49671ADF804101421DA
:1077E0008DF807101A499DF80720272A23D84DF84D
:1077F00008EDFDF778FC5DF808EB1CD27346FDF749
:10780000CCF99E46EFE74FF49671ADF804101421C1
:107810008DF807100D499DF80720272A0BD84DF841
:1078200008EDFDF760FC5DF808EB04D27346FDF748
:10783000B4F99E46EFE79DF80700095C48B202B034
:1078400070470021FAE700BF002A002059DE000837
:1078500030DE00082DE9F84FDFF858AE9AF8000046
:10786000012818BFBDE8F88FDFF84C8E98F80100AA
:1078700038BB0120052188F80100BAF81400FDF793
:10788000C9F9AAF81800BAF82600FDF7C3F9AAF852
:107890002800BAF87E00FDF7BDF9AAF89600BAF8FC
:1078A0008400FDF7B7F9AAF89800BAF88A00FDF746
:1078B000B1F9AAF89A00BAF89000FDF7ABF9AAF866
:1078C0009C009AF83870012F04D0022F1DD1DAF8ED
:1078D000040013E09AF8440058B1012815D19AF930
:1078E0002E00DAF80410081A00EBC000A0F5E170D1
:1078F00006E09AF92E00DAF80410081A00EBC0002E
:107900000521FDF75FFACAF80C00B8F8420005211E
:107910000130A8F8420080B2B0FBF1F101EB810127
:10792000411A70D00321B0FBF1F101EB4101401A83
:1079300041F0B98398F81C0098F8204000F1010B41
:10794000204688F81CB0FCF778FFDFF8709D0546EC
:10795000CB49D9F85800FCF7F1FE29460646FCF75A
:107960002BFF30B90134E0B288F82040FCF765FF06
:10797000054630462946FCF73BFF10B9013C88F824
:1079800020409AF84500012840F06B8098F81D00CF
:1079900098B9DFF82C0D08214FF0000BA8F83DB086
:1079A000A9F81CB0C9F818B08AF81BB0AAF816B02C
:1079B00041704FF48070A8F81C0098F81B0008284C
:1079C00000F2DA81DFE810F009005E0114014201E3
:1079D0000101A901B6015101C801012F40F0C7877B
:1079E0009AF8330028B1032800F09284022840F06E
:1079F000C28798F83E009AF81A30002800F0AB844D
:107A0000012000F063BFDFF8B85C9AF84510A87851
:107A1000884204D140F00202072A40F0D88598F845
:107A200026200F2A00F2CE800120DFE812F0CC05DC
:107A3000100056006E002C008E009C007800B500EF
:107A40004000AB002200360095001F006000FCF7EC
:107A5000FCFF00F0F181002840F0F881BAF87E3098
:107A6000EEE1002188F81D1000F0A4BF0F2000F007
:107A7000AABDFCF7EAFF00F08281002840F0A08553
:107A8000BAF87E307FE1FCF7E0FF00F0818100284A
:107A900040F08881BAF890307EE1FCF7D6FF00F024
:107AA0009081002840F08C85BAF890308DE19AF8EA
:107AB0007400032800F28485DFE810F0040023023C
:107AC0000F021902FCF7C1FF00F09784002840F074
:107AD0009E84BAF8B03000F094BCFCF7B6FF00F01A
:107AE0007981002840F08081BAF8843076E1DFF8AF
:107AF000D40B9AF8443045F23E01FCF76AFF9AF83D
:107B00004500A870002000F05EBDFCF79EFF00F06D
:107B10007A81002840F08181BAF88A3077E19AF8BA
:107B20007400032800F24C85DFE810F0040009021D
:107B3000F501FF01FCF789FF00F0B784002840F051
:107B4000BE84BAF8A43000F0B4BCDFF8780B9AF821
:107B50003A3045F22F0198E1DFF8680B9AF8393096
:107B600045F22E0191E19AF87400002840F07582E8
:107B7000FCF76BFF00F05982002840F06082BAF8F1
:107B80009E3056E2FCF761FF00F06F81002840F064
:107B90007681BAF826306CE19AF87400032800F276
:107BA0000F85DFE810F00400EA01D601E001FCF7E0
:107BB0004CFF00F0D684002840F0DD84BAF8AA30EB
:107BC00000F0D3BC084600F002BDDFF8F84A9AF88E
:107BD0004B00D4F80458002800F05C81204646F29F
:107BE0003301022244F25073A847BAF8783058E1C2
:107BF0009AF8753098F81F0098420AD0DFF8C40A46
:107C000045F25401022288F81F30FDF77CF99AF8FA
:107C100075000138032800F2C686DFE810F0040082
:107C2000E801C601D701BAF81400BAF87E10814203
:107C300040F0F0819AF81A00BAF88010814240F0C2
:107C4000E981BAF87600BAF88210E0E15FFA8BF0C9
:107C50001421B0FBF1F101EB8101A0EB81000028C0
:107C600000F02681042000F0A1BE9AF83230002BEB
:107C700000F03081DFF84C0A4FF4A0418EE100BFE4
:107C800000C015449AF84420012A00F2A082FDF7B2
:107C9000E4F99AF92E300844C01A012A08BF323894
:107CA0009AF83920012A00F04282002A40F08F829F
:107CB0009AF831209AF84230BAF814609AF83B509A
:107CC00083F0010382F00102A9F81E601A4308BF85
:107CD000084601B2BAF87C209142B8BF104604B2FF
:107CE000A9F820002046FCF7ADFDE04AE04BFCF788
:107CF00002FBFCF7F2FD012D88F8210040F06782BD
:107D000006F11400A04240F36282A6F11400A042E2
:107D100080F25D82D64CD54D4AE29AF833000028B5
:107D200000F03781032800F03281022840F03A81C8
:107D300001232FE1DAF810000021962888BF0121E5
:107D40009AF83000002818BF012001EA000345F22C
:107D50000501DFF8700921E19AF83010DFF86409B5
:107D60000222B1FA81F1D0F804484B0945F2020130
:107D7000A047002000F01ABE012000F087BEBAF82C
:107D80007E00FCF71EFEDFF83C0945F215017CE0A1
:107D9000BAF89000FCF715FEDFF8280945F21E013D
:107DA000FCF717FEDFF81C49BAF8923045F21F01C4
:107DB000FCF7DEFFBAF89430FCF7F5FF45F220013E
:107DC000FCE3BAF89000FCF7FCFDDFF8F80845F298
:107DD0001E015AE0BAF88400FCF7F3FDDFF8E4086E
:107DE00045F21801FCF7F5FDDFF8D848BAF88630FF
:107DF00045F21901FCF7BCFFBAF88830FCF7D3FF55
:107E000045F21A01DAE3BAF88A00FCF7DAFDDFF886
:107E1000B40845F21B01FCF7DCFDDFF8A848BAF80E
:107E20008C3045F21C01FCF7A3FFBAF88E30FCF74A
:107E3000BAFF45F21D01C1E3BAF87E00FCF7C1FDAF
:107E4000DFF8800845F21501FCF7C3FDDFF8744840
:107E5000BAF8803045F21601FCF78AFFBAF8823092
:107E6000FCF7A1FF45F21701A8E3BAF82600FCF7DA
:107E7000A8FDDFF8500845F23301FCF7AAFDDFF852
:107E80004408BAF82A3045F23401D0F804480222F6
:107E9000A04795E3204646F23301FCF773FFBAF89A
:107EA0007630FDF7DFF845F20801022200F07ABDD6
:107EB000DFF81058E3B245F209010222D5F8046850
:107EC0002846B04798F82030D5F80448284645F2AF
:107ED0000A0165E0082000F069BDFCF7B6FD00F07E
:107EE0006482002840F06A82BAF8EC3061E2FCF764
:107EF000ACFD00F06D82002840F07482BAF80A31BF
:107F00006AE2FCF7A2FD00F08D82002840F0948226
:107F1000BAF8CE308AE2FCF798FD00F09C82002887
:107F200040F0A382BAF8E03099E2FCF78EFD00F051
:107F3000A782002840F0AE82BAF8FE30A4E2FCF737
:107F400084FD00F0C782002840F0CE82BAF8C2302B
:107F5000C4E2FCF77AFD00F0D682002840F0DD8212
:107F6000BAF8E630D3E2FCF770FD00F0E5820028B5
:107F700040F0EC82BAF80431E2E2FCF766FD00F072
:107F80000583002840F00C83BAF8C83002E30223CE
:107F900000E00023DFF82C0745F20101D0F8044887
:107FA00002223FE0052000F000BDBAF81400BAF844
:107FB0008A1081422ED19AF81A00BAF88C108142A8
:107FC00028D1BAF87600BAF88E1020E0BAF814007A
:107FD000BAF8901081421DD19AF81A00BAF892109E
:107FE000814217D1BAF87600BAF894100FE0BAF8C7
:107FF0001400BAF8841081420CD19AF81A00BAF829
:108000008610814206D1BAF87600BAF8881081420B
:1080100000F0C984DFF8AC0645F2540102220023C7
:10802000D0F80448A04700F0BEBCBAF89E00FCF7A8
:10803000C8FCDFF8900645F22201FCF7CAFCDFF825
:108040008446BAF8A03045F22301FCF791FEBAF855
:10805000A230FCF7ACFE9AF87400012822D1FCF79C
:10806000F4FC07D080B9BAF8BC3007E09A99999926
:108070009999D93FBAF8BC00FCF7A3FCDFF8440695
:1080800045F22201FCF7A5FCDFF83846BAF8BE300D
:1080900045F22301FCF76CFEBAF8C030FCF787FE0E
:1080A0009AF8740002281ED1FCF7CFFC03D060B907
:1080B000BAF8DA3003E0BAF8DA00FCF782FCDFF84D
:1080C000040645F22201FCF784FCDFF8F845BAF813
:1080D000DC3045F22301FCF74BFEBAF8DE30FCF74A
:1080E00066FE9AF87400032840F06A82FCF7ADFC43
:1080F00003D060B9BAF8F83003E0BAF8F800FCF73A
:1081000060FCDFF8C00545F22201FCF762FCDFF8F5
:10811000B445BAF8FA3045F22301FCF729FEBAF863
:10812000FC30D4F80468204645F2240146E29AF86F
:1081300031309AF84240052200EBC00001EBC1014A
:1081400090FBF2F084F0010483F00103234308BFA5
:10815000B1FBF2F0BAF87C10203001EBC10103B2A0
:10816000A9F82000B1FBF2F120319942C4BFA9F86F
:108170002010084604B2BAF818602046A9F81E601C
:10818000FCF760FBEA4AEB4BFCF7B5F8FCF7A5FB04
:1081900088F821009AF83B00012818D106F1240044
:1081A000A04214DDA6F12400A04210DAE14CE04D1B
:1081B00030B2A9F82060FCF745FB02460B46284682
:1081C0002146FCF798F8FCF788FB88F82100012F7E
:1081D00040F0E9839AF83300032800F2E483012891
:1081E00000F0E183FCF776FE03D1B9F81830934232
:1081F00049D0A9F81820AAF8161098B9DFF8C44495
:1082000045F20301022201230126FCF7E6FBD4F824
:108210000458204646F2030102224FF66043A84765
:1082200088F83D60DFF89C440020B9F81E3045F224
:1082300007010222A9F82400FCF7CFFBB9F81E00C1
:108240009AF83950FCF70FFB02460B46B848B9497B
:10825000002D04BF49F69A10C9F6991004BF49F6DB
:108260009911C3F6D971FCF746F8FCF736FBD4F840
:108270000458034688F82100204645F20B010222EB
:10828000A84798F83D00C0B1FCF7CAFEC0F08B8348
:10829000DFF8304445F20301022200230026FCF7F8
:1082A0009CFBD4F80458204646F20301FCF76AFD13
:1082B00088F83D60A9F8246075E3DFF8040441788C
:1082C00001394170090640F06E830821B9F81C207D
:1082D0004170DAF80400DAF80C10904204D1B9F8D1
:1082E0001A20914200F05F83DFF8D843B9F82030BC
:1082F000A9F81A10A9F81C0045F207010222FCF7A0
:108300006CFB98F82130FCF7ADFE45F20B01CCE593
:10831000DFF8B04345F20401022201230125D4F81D
:1083200004682046B047FCF73EFD46F26301022296
:1083300043F67F43B0479AF81C30FCF734FD45F212
:108340000E010222B0479AF81C30FCF77FFEB047BE
:1083500088F81E500BE39AF830209AF83110012A61
:1083600008BF002900F09E829AF84200002800F021
:108370009982002A00F096820020012A08BF012974
:1083800040F0A4825FFA8BF10522B1FBF2F202EB1E
:108390008202891A090640F09982DAF804109AF8E4
:1083A0001D00412938BF18467DE2BAF8EC00FCF701
:1083B00008FBC44845F22B01FCF70BFBC14CBAF893
:1083C000EE3045F22C01FCF7D3FCBAF8F0303DE07A
:1083D000BAF80A01FCF7F5FADFF8D00D45F22B01E7
:1083E000FCF7F7FADFF8C44DBAF80C3145F22C016E
:1083F000FCF7BEFCBAF80E3128E0BAF8B000FCF782
:10840000E0FADFF8A80D45F22B01FCF7E2FADFF8FD
:108410009C4DBAF8B23045F22C01FCF7A9FCBAF831
:10842000B43013E0BAF8CE00FCF7CBFADFF87C0DDD
:1084300045F22B01FCF7CDFADFF8704DBAF8D030D9
:1084400045F22C01FCF794FCBAF8D230FCF7ABFCF7
:1084500045F22D01B2E0BAF8E000FCF7B2FADFF81D
:108460004C0D45F22501FCF7B4FADFF8404DBAF89F
:10847000E23045F22601FCF77BFCBAF8E4303DE03F
:10848000BAF8FE00FCF79DFADFF8200D45F2250151
:10849000FCF79FFADFF8144DBAF8003145F22601D7
:1084A000FCF766FCBAF8023128E0BAF8A400FCF741
:1084B00088FADFF8F80C45F22501FCF78AFADFF8B4
:1084C000EC4CBAF8A63045F22601FCF751FCBAF89C
:1084D000A83013E0BAF8C200FCF773FADFF8CC0C4E
:1084E00045F22501FCF775FADFF8C04CBAF8C43044
:1084F00045F22601FCF73CFCBAF8C630FCF753FC09
:1085000045F227015AE0BAF8E600FCF75AFADFF81C
:108510009C0C45F22801FCF75CFADFF8904CBAF8A5
:10852000E83045F22901FCF723FCBAF8EA3041E0D3
:10853000E17A14AE47E1CA3FBAF80401FCF741FA08
:10854000DFF8680C45F22801FCF743FADFF85C4CD1
:10855000BAF8063145F22901FCF70AFCBAF80831ED
:1085600028E0BAF8AA00FCF72CFADFF8400C45F234
:108570002801FCF72EFADFF8344CBAF8AC3045F29B
:108580002901FCF7F5FBBAF8AE3013E0BAF8C800E1
:10859000FCF717FADFF8140C45F22801FCF719FA7A
:1085A000DFF8084CBAF8CA3045F22901FCF7E0FBC5
:1085B000BAF8CC30FCF7F7FB45F22A010222B047AB
:1085C00098F82600013088F826009AF8450003380C
:1085D000012813D898F827000B2800F2D480DFE890
:1085E00000F006614C532D73825A964489239AF801
:1085F0003800022840F09E800223A8E0002088F87E
:10860000280098F82900002840F0BD8040F20220A0
:10861000012405F10E010922A8820220AC7505F0A3
:1086200017FB88F82940AEE0DFF8800B9AF840305D
:1086300045F23801FCF7CDF90020A2E0DFF86C4BE1
:108640009AF83C3045F23101FCF792FB9AF83D3044
:10865000FCF7A9FB45F244010222B0479AF83E30EC
:10866000FCF7A1FB45F232015FE0012005F10E01AC
:10867000A87540F20220A88244E0DFF8300B9AF897
:108680003A3045F22F0175E0DFF8200B9AF83B30C5
:1086900045F230016EE0DFF8140B9AF8413045F2F4
:1086A000370167E0DFF8040B9AF8393045F22E0104
:1086B00060E000BF002A0020900000209001002010
:1086C00000000020482B002098F8280080BB0120E3
:1086D00088F828009AF83900002844D0012827D1CA
:1086E0000AF1180041E0DFF8C40ABAF8763045F222
:1086F00036013FE0002005F11701E87740F2013034
:10870000A5F81D000220092205F0A2FA36E0DFF8E4
:108710009C4A9AF8433045F23801FCF729FB9AF855
:108720004230FCF740FB45F245010222B04725E00C
:10873000062026E09AF84410012808BF012905D038
:108740000123012808BF00290AD100E00023DFF837
:108750005C0A45F21401FCF73CF998F82700431C29
:1087600088F827300FE00AF114000388DFF83C0A8C
:1087700045F23501D0F804480222A04798F82700B6
:10878000013088F8270098F82D0048B19AF8380091
:10879000012814D19AF8450028281BD1012415E09E
:1087A0009AF83840012088F82D00012C02D0022CC4
:1087B00047D11A24FCF786FB8AF8454060E002287E
:1087C00008D19AF84500282804D11A24FCF77AFB2E
:1087D0008AF845409AF84900B8B1DFF8C859DFF87F
:1087E000CC4945F23C01FCF744FB688EB0F5C87FEC
:1087F0000BD3002045F23C01022200236886D4F806
:1088000004588AF849002046A84798F81A00012819
:1088100017D1DFF89059DFF8944945F24901FCF788
:1088200028FB688EB0F5C87F0BD3002045F24901C4
:10883000022200236886D4F8045888F81A002046DB
:10884000A8479AF845000E281AD19AF83300022852
:1088500004D09AF84410012940F0258498F82E108D
:10886000002940F02084012188F83000002088F899
:108870002E109AF844108AF8330088F82F100DE073
:1088800098F82E00012840F00E84002098F830104F
:1088900088F82E0098F82F008AF833108AF84400E0
:1088A00000F001BC1846DFF80449C5B245F20E01DC
:1088B00002222B46D4F804682046B047FCF7C6FBDA
:1088C0002B46B04798F83E009AF81A309AF81B10D9
:1088D00099422CD08AF81B30A8B9DFF8D04845F26D
:1088E0000401022201230126FCF777F8D4F804588A
:1088F000204646F26301022243F67F43A8479AF8D6
:108900001A3088F83E60DFF8A448002045F20E01D6
:108910000222A9F82200FCF760F89AF81A30FCF756
:10892000A1FB45F20C010222A84798F83E00F0B1E5
:10893000FCF750FB1BD3DFF8744845F20401022218
:1089400000230026FCF749F8D4F80458204646F2E4
:108950006301FCF717FA9AF81A30FCF783FB45F22B
:108960000E010222A84788F83E60A9F822609AF812
:108970003300032817D098F81E00012813D1DFF820
:108980002C48002045F204010222002388F81E0032
:10899000FCF723F8D4F80458204646F2630102227B
:1089A0004FF6FF73A84798F81B00013088F81B00AA
:1089B0009AF84500022869D19AF8753098F81F0096
:1089C00098420CD0DFF8E40745F25401022288F8FF
:1089D0001F30FCF798FA9AF84500022856D198F80B
:1089E000230068B900208AF81B00A8F83D00A9F808
:1089F0002A00C9F8260088F82500012088F82300FD
:108A000098F82200042800F23D82DFE800F00377A6
:108A10004B6643009AF84400012800F209819AF954
:108A20002F10DAF804209AF92E301144C91A0128BF
:108A300008BF3239FCF709F800F0C480002840F084
:108A4000F7809AF831309AF84250BAF814009AF840
:108A50003B4085F0010583F00103A9F82C002B436E
:108A600008BF11460AB2BAF87C309A42B8BF19461C
:108A7000A9F82E10012C40F0DB8009B200F114029D
:108A80008A4240F3D580A0F11402CDE0002188F89D
:108A90002310F9E1BAF80400DFF80C17FCF7D9F954
:108AA0000020EDE19AF875000138032800F27F807C
:108AB000DFE800F0026B495ABAF81400BAF87E10E9
:108AC000814276D19AF81A00BAF88010814270D1AA
:108AD000BAF87600BAF8821067E0DFF8D0469AF864
:108AE0004B00D4F8045800B3204646F2031102228A
:108AF00044F25073A847BAF878301DE09AF838006D
:108B0000012840F092819AF8330028B1032800F040
:108B10000B81022840F08D8198F83E009AF81A30B7
:108B2000002800F01981012041E1204646F203119E
:108B3000FCF728F9BAF87630FCF794FA45F21201FE
:108B40000222A84799E1BAF81400BAF88A108142C3
:108B50002FD19AF81A00BAF88C10814229D1BAF8AC
:108B60007600BAF88E1020E0BAF81400BAF8901027
:108B700081421ED19AF81A00BAF89210814218D197
:108B8000BAF87600BAF894100FE0BAF81400BAF800
:108B9000841081420DD19AF81A00BAF886108142E9
:108BA00007D1BAF87600BAF88810814201D10220C4
:108BB00065E1DFF8F80545F2540102220023FCF7D5
:108BC000A2F95AE19AF831309AF8424002EBC20019
:108BD000052201EBC10191FBF2F184F0010483F065
:108BE0000103234308BFB0FBF2F1BAF87C00203147
:108BF00000EBC0000BB2A9F82E10B0FBF2F0203051
:108C00009842C4BFA9F82E0001469AF83B20BAF852
:108C10001800012AA9F82C000AD109B200F1240297
:108C20008A4205DDA0F124028A42B8BFA9F82E00CD
:108C30009AF83800012840F020819AF83300032880
:108C400000F21B81012800F01881FCF743F903D1E1
:108C5000B9F82A30934226D0A9F82A20AAF816108B
:108C600098B9DFF8484545F20301022201230126A5
:108C7000FBF7B3FED4F80458204646F2C3010222A3
:108C80004FF66043A84788F83D600020B9F82C30C3
:108C900045F210010222A9F82400DFF81005FCF7C4
:108CA00032F998F83D00D8B1FCF7BAF9C0F0E58088
:108CB000DFF8F84445F20301022200230026FBF707
:108CC0008CFED4F80458204646F2C301FCF75AF84B
:108CD0000120C9F8246088F83D6088F82500CCE0C0
:108CE00098F82500013888F82500000640F0C58076
:108CF0000820B9F82620DAF80C1088F82500DAF8F0
:108D00000400904204D1B9F82820914200F0B580C7
:108D1000A9F82600DFF89404B9F82E30A9F8281035
:108D200045F2100102224AE7DFF8804445F20401CF
:108D3000022201230126FBF750FEFCF77AF89AF88D
:108D40001C30FCF7D9F89AF81C00DFF85C1488F89E
:108D5000246081F8370068E09AF830209AF83110E2
:108D6000012A08BF002910D09AF8420068B162B108
:108D70000020012A08BF012919D1DAF804009AF865
:108D80001D40412838BF1C4600E01C46DFF81C048B
:108D9000E3B245F211010222D0F80458A847DFF8E7
:108DA00008049AF81A3080F8374098F83E009AF88C
:108DB0001B1099421DD08AF81B3070B9DFF8EC43C4
:108DC00045F20401022201230126FBF706FEFCF70F
:108DD00030F89AF81A3088F83E60002045F2110108
:108DE0000222A9F82200DFF8C403FCF78CF898F8F7
:108DF0003E00D0B1FCF7EEF817D3DFF8B04345F2F0
:108E00000401022200230026FBF7E7FDD4F80458F2
:108E1000204646F2F301FBF7B5FF9AF81A30FCF74B
:108E20006BF888F83E60A9F822609AF833000328AE
:108E300015D098F82400012811D1DFF870430020E4
:108E400045F204010222002388F82400FBF7C5FD47
:108E5000D4F80458204646F2F301FBF793FFDAF802
:108E60001000FA2804D8DFF84003002180F83710FA
:108E7000DFF834030E22FCF702F998F822000130E3
:108E800088F822009AF845001A2840F00C8198F8DA
:108E90002A00032800F20781DFE800F0025E344B6D
:108EA000FCF7DBF8C14C9AF84730022208449AF9E3
:108EB0002E10D4F80458401A45F24201A9F83000A7
:108EC0002046A8479AF84800002840F0E780B9F803
:108ED0003000B549FBF7BDFF98F82B000C2101309D
:108EE00088F82B00C0B2FCF765F840F0D7809AF8FC
:108EF0003900002800F0C780012840F0CF80DAF860
:108F00000C00C3E09AF84700002867D0012840F021
:108F1000C580A64C46F29301022244F25073FBF73F
:108F20005CFDBAF87A30D4F80458204645F2410185
:108F3000B2E09AF84700002338B1012840F0B18030
:108F40009AF84630581E032804D8984845F2430141
:108F5000FBF73FFD0023A4E09AF8470001281CD14D
:108F60009AF87400032800F28C80DFE800F00279A0
:108F70005768FBF7CBFF00F28480DFE810F00400B5
:108F8000FE00B800E0008948BAF8A03045F2400180
:108F9000FBF71FFD9AF8A04039E00223002840F0BB
:108FA00080809AF84800002840F07B8098F82C00D8
:108FB000DAF804100130472988F82C001ED3C0B21B
:108FC0000C21FBF7F7FF06D178489AF81D3045F2DF
:108FD0004001FBF7FEFC9AF81D4018E0734C46F286
:108FE000930102224FF6FF73FBF7F7FCD4F8045805
:108FF000204645F24101022200234EE06B4845F233
:109000004001022200230024D0F80458A8476648F3
:109010000E2280F83740FCF732F83FE0FBF776FF8E
:109020002FD8DFE800F0026E46506048BAF8DC3016
:1090300045F24001FBF7CDFC9AF8DC40E7E7FBF78F
:1090400065FF1ED8DFE800F0028549715748BAF87D
:10905000FA3045F24001FBF7BCFC9AF8FA40D6E73B
:10906000FBF754FF0DD8DFE800F00292567E4F4820
:10907000BAF8BE3045F24001FBF7ABFC9AF8BE40AF
:10908000C5E702230DE0FBF7E8FF0844D4F80458D5
:1090900083B2204645F23F010222A84798F82A00F1
:1090A000431C88F82A304148D0F80818BDE8F84F2A
:1090B00008473E48BAF8E83045F24001FBF789FC22
:1090C0009AF8E840A3E73948BAF8EE3045F2400193
:1090D000FBF77FFC9AF8EE4099E73448BAF806317E
:1090E00045F24001FBF775FC9AF806418FE72F48DF
:1090F000BAF8AC3045F24001FBF76BFC9AF8AC4093
:1091000085E72A48BAF8E23045F24001FBF761FCF6
:109110009AF8E2407BE72548BAF8CA3045F24001A8
:10912000FBF757FC9AF8CA4071E72048BAF80C31AF
:1091300045F24001FBF74DFC9AF80C4167E71B48EC
:10914000BAF8B23045F24001FBF743FC9AF8B2405E
:109150005DE71648BAF8003145F24001FBF739FCEB
:109160009AF8004153E71148BAF8D03045F240016F
:10917000FBF72FFC9AF8D04049E70C48BAF8A63024
:1091800045F24001FBF725FC9AF8A6403FE7074867
:10919000BAF8C43045F24001FBF71BFC9AF8C44012
:1091A00035E700BF9001002000000020482B002080
:1091B0000448017809B90121017003484AF6AA213F
:1091C00001607047312300200030004010B5214C71
:1091D000226842F00102226001804FF4801000F00A
:1091E00017F8FBF714BC00BF08480168C9071CBF8B
:1091F000002070470168490744BF0120704700689C
:10920000C0064FF0020058BF032070470C200240F8
:10921000B0B50446FFF7E8FF0025013C45F1000129
:1092200018B911B1FFF7E0FFF7E7B0BD10B5094C71
:10923000216841F0020121606060206840F0400038
:1092400020604FF08040FFF7E3FF206820F002002D
:10925000206010BD102002402DE9F04F8FB0DFF8E4
:10926000148A98F80700032801F20980DFE810F05B
:10927000040012050C00E30498F81400002801F023
:109280000180012000F0F9BFFB49DFF8EC49FB4FFA
:10929000DFF8E859881D894698F8131011F0010687
:1092A00008BFA7F1D20094F92E1089B2A84709F19E
:1092B0000800002E08BFA7F1D000E18CA84709F1F3
:1092C0000A00002E08BFA7F1CE00618DA84709F162
:1092D0000C00002E08BFA7F1CC00B4F87610A84708
:1092E00009F1D000002E08BFA7F1080094F838104B
:1092F000A84709F10E00002E08BFA7F1CA0094F894
:109300003910A84709F11000002E08BFA7F1C800C6
:1093100094F83A10A84709F11200002E08BFA7F1EF
:10932000C60094F83B10A84709F11400002E08BFAE
:10933000A7F1C40094F83C10A84709F11600002ECC
:1093400008BFA7F1C20094F83D10A84709F1180022
:10935000002E08BFA7F1C00094F83E10A84709F1FD
:109360001A00002E08BFA7F1BE0094F84010A847CD
:1093700009F11C00002E08BFA7F1BC0094F84110B1
:10938000A84709F11E00002E08BFA7F1BA0094F803
:109390004310A84709F12000002E08BFA7F1B8002C
:1093A00094F84410A84709F12200002E08BFA7F145
:1093B000B600B4F87E10A84709F12400002E08BFBB
:1093C000A7F1B400B4F88010A84709F12600002ED8
:1093D00008BFA7F1B200B4F88210A84709F128002D
:1093E000002E08BFA7F1B000B4F88410A84709F117
:1093F0002A00002E08BFA7F1AE00B4F88610A847D7
:1094000009F12C00002E08BFA7F1AC00B4F88810B9
:10941000A84709F12E00002E08BFA7F1AA00B4F852
:109420008A10A84709F13000002E08BFA7F1A80054
:10943000B4F88C10A84709F13200002E08BFA7F13C
:10944000A600B4F88E10A84709F13400002E08BF1A
:10945000A7F1A400B4F89010A84709F13600002E37
:1094600008BFA7F1A200B4F89210A84709F138008C
:10947000002E08BFA7F1A000B4F89410A84709F186
:109480003A00002E08BFA7F19E00B4F89E10A8472E
:1094900009F13C00002E08BFA7F19C00B4F8A01011
:1094A000A84709F13E00002E08BFA7F19A00B4F8C2
:1094B000A210A84709F14000002E08BFA7F19800AC
:1094C000B4F8A410A84709F14200002E08BFA7F184
:1094D0009600B4F8A610A84709F14400002E08BF72
:1094E000A7F19400B4F8A810A84709F14600002E8F
:1094F00008BFA7F19200B4F8AA10A84709F14800E4
:10950000002E08BFA7F19000B4F8AC10A84709F1ED
:109510004A00002E08BFA7F18E00B4F8AE10A8478D
:1095200009F14C00002E08BFA7F18C00B4F8B01070
:10953000A84709F14E00002E08BFA7F18A00B4F831
:10954000B210A84709F15000002E08BFA7F188000B
:10955000B4F8B410A84709F15200002E08BFA7F1D3
:109560008600B4F8B610A84709F15400002E08BFD1
:10957000A7F18400B4F8B810A84709F15600002EEE
:1095800008BFA7F18200B4F8BA10A84709F1580043
:10959000002E08BFA7F18000B4F8BC10A84709F15D
:1095A0005A00002E08BFA7F17E00B4F8BE10A847ED
:1095B00009F15C00002E08BFA7F17C00B4F8C010D0
:1095C000A84709F15E00002E08BFA7F17A00B4F8A1
:1095D000C210A84709F16000002E08BFA7F178006B
:1095E000B4F8C410A84709F16200002E08BFA7F123
:1095F0007600B4F8C610A84709F16400002E08BF31
:10960000A7F17400B4F8C810A84709F16600002E4D
:1096100008BFA7F17200B4F8CA10A84709F16800A2
:10962000002E08BFA7F17000B4F8CC10A84709F1CC
:109630006A00002E08BFA7F16E00B4F8CE10A8474C
:1096400009F16C00002E08BFA7F16C00B4F8D0102F
:10965000A84709F16E00002E08BFA7F16A00B4F810
:10966000D210A84709F17000002E08BFA7F16800CA
:10967000B4F8D41000F004B800F40108D8FC0108D4
:10968000A84709F17200002E08BFA7F16600B4F8E0
:10969000D610A84709F17400002E08BFA7F1640096
:1096A000B4F8D810A84709F17600002E08BFA7F13A
:1096B0006200B4F8DA10A84709F17800002E08BF5C
:1096C000A7F16000B4F8DC10A84709F17A00002E79
:1096D00008BFA7F15E00B4F8DE10A84709F17C00CE
:1096E000002E08BFA7F15C00B4F8E010A84709F10C
:1096F0007E00002E08BFA7F15A00B4F8E210A84778
:1097000009F18000002E08BFA7F15800B4F8E4105A
:10971000A84709F18200002E08BFA7F15600B4F84F
:10972000E610A84709F18400002E08BFA7F15400F5
:10973000B4F8E810A84709F18600002E08BFA7F189
:109740005200B4F8EA10A84709F18800002E08BFBB
:10975000A7F15000B4F8EC10A84709F18A00002ED8
:1097600008BFA7F14E00B4F8EE10A84709F18C002D
:10977000002E08BFA7F14C00B4F8F010A84709F17B
:109780008E00002E08BFA7F14A00B4F8F210A847D7
:1097900009F19000002E08BFA7F14800B4F8F410BA
:1097A000A84709F19200002E08BFA7F14600B4F8BF
:1097B000F610A84709F19400002E08BFA7F1440055
:1097C000B4F8F810A84709F19600002E08BFA7F1D9
:1097D0004200B4F8FA10A84709F19800002E08BF1B
:1097E000A7F14000B4F8FC10A84709F19A00002E38
:1097F00008BFA7F13E00B4F8FE10A84709F19C008D
:10980000002E08BFA7F13C00B4F80011A84709F1E9
:109810009E00002E08BFA7F13A00B4F80211A84735
:1098200009F1A000002E08BFA7F13800B4F8041118
:10983000A84709F1A200002E08BFA7F13600B4F82E
:109840000611A84709F1A400002E08BFA7F13400B3
:10985000B4F80811A84709F1A600002E08BFA7F127
:109860003200B4F80A11A84709F1A800002E08BF79
:10987000A7F13000B4F80C11A84709F1AA00002E96
:1098800008BFA7F12E00B4F80E11A84709F1AC00EB
:10989000002E08BFA7F12C00B4F81011A84709F159
:1098A000AE00002E08BFA7F12A00B4F81211A84795
:1098B00009F1B000002E08BFA7F12800B4F8141178
:1098C000A84709F1B200002E08BFA7F12600B4F89E
:1098D0001611A84709F1B400002E08BFA7F1240013
:1098E000B4F81811A84709F1B600002E08BFA7F177
:1098F0002200B4F81A11A84709F1B800002E08BFD9
:10990000A7F12000B4F81C11A84709F1BA00002EF5
:1099100008BFA7F11E00B4F81E11A84709F1BC004A
:10992000002E08BFA7F11C00B4F82011A84709F1C8
:10993000BE00002E08BFA7F11A00B4F82211A847F4
:1099400009F1C000002E08BFA7F11800B4F82411D7
:10995000A84709F1C200002E08BFA7F11600B4F80D
:109960002611A84709F1C400002E08BFA7F1140072
:10997000B4F82811A84709F1C600002E08BFA7F1C6
:109980001200B4F82A11A84709F1C800002E08BF38
:10999000A7F11000B4F82C11A84709F1CA00002E55
:1099A00008BFA7F10E00B4F82E11A84709F1CC00AA
:1099B000002E08BFA7F10C00B4F83011A84709F138
:1099C000CE00002E08BFA7F10A00B4F83211A84754
:1099D00009F1D400002E08BF381FB4F83811A84789
:1099E00009F1D600002E08BFB81EB4F84011A847F0
:1099F00094F92E0094F8391094F83A2094F83B30FA
:109A000008F15C0504F1A00604F1B80CA8F85400B4
:109A1000E08C88F8091088F80A2088F80B30D4F810
:109A20008210D4F88620D4F88A30A8F85600608DC9
:109A3000A8F85800B4F87600A8F85A0094F838004E
:109A400088F8080094F83C0088F80C0094F83D0071
:109A500088F80D0094F83E0088F80E00B4F8400035
:109A6000A8F80F00B4F84300A8F81100D4F87E005D
:109A70000FC5B4F88E006ECEC8F87A20A8F86C0036
:109A8000B4F89000C8F87610B4F8B410A8F86E00D6
:109A9000D4F89200C8F87000B4F89E00A8F87400DA
:109AA00077488181B4F8B610036045608660C18153
:109AB0009CE8EE1042618361C56106624762C0F8AE
:109AC00028C00161B4F8D4108185B4F8D610C185DE
:109AD000B4F8D8100186B4F8DA104186B4F8DC1076
