:020000040800F2
:104000006819002085410008D1C300084DB9000897
:10401000CDC30008614C00083528010800000000ED
:10402000000000000000000000000000452501081D
:10403000654C0008000000005D0B010849250108DF
:104040009F4100089F4100089F4100089F410008D0
:104050009F4100089F4100089F4100089F410008C0
:104060009F4100089F4100089F4100089F410008B0
:104070009F4100089F4100089F4100089F410008A0
:104080009F4100089F4100089F4100089F41000890
:104090009F4100089F4100089F4100089F41000880
:1040A0009F4100089F4100089F4100089F41000870
:1040B0009F410008792601089F4100089F410008A0
:1040C0009F4100089F4100089F4100089F41000850
:1040D0009F4100087D2601089F410008FD26010838
:1040E000255B00089F4100089F4100080000000078
:1040F00000000000000000000000000000000000C0
:10410000000000009F4100089F41000800000000DF
:104110009F4100089F4100080000000000000000CF
:104120009F4100089F4100089F4100089F410008EF
:10413000000000000000000000000000000000007F
:104140000000000000000000000000009F41000887
:1041500000000000000000009F4100089F4100088F
:104160000000000000000000000000009F41000867
:10417000DFF80CD000F018FA00480047316501085C
:10418000681900200648804706480047FEE7FEE71A
:10419000FEE7FEE7FEE7FEE7FEE7FEE7FEE7FEE7F7
:1041A000A92501087141000830B50B4601460020E1
:1041B0002022012409E021FA02F59D4205D303FAE9
:1041C00002F5491B04FA02F52844151EA2F101026A
:1041D000F1DC30BD2DE9F05F0546002092469B469C
:1041E00088460646814640241BE02846414647460D
:1041F000224600F0FAF953465A46C01A914110D3AC
:1042000011461846224600F0E1F92D1A67EB010825
:104210004F4622460120002100F0D8F917EB000993
:104220004E41201EA4F10104DFDC484631462A46F7
:104230004346BDE8F09F2DE9FE4F804681EA03002A
:10424000C00F0C46009021F0004123F00045B8EB70
:104250000200A94105D24046214690461C460B4625
:10426000024623F00040104347D0270DC7F30A0051
:10427000C3F30A510290401A019040286BDAC3F34D
:10428000130040F4801B0098924620B10023D2EB2B
:10429000030A63EB0B0B01985946C0F140025046EC
:1042A00000F094F906460D4650465946019A00F032
:1042B000ACF910EB08006141002487EA115284EA4E
:1042C000E7731A4340D0009A62B3019A012A4FEA79
:1042D000075215DC001B61EB02014FF0004202EABD
:1042E0000752CDE90042001C41F5801132462B46B1
:1042F00000F0ACF903B0BDE8F08F40462146F9E785
:10430000001B61EB0201001C41F5801300185B41AA
:104310002018A2F5001747EB030140EAD570B61943
:104320006D4111E06D084FEA360645EAC0754FEA67
:104330000752001B61EB0201001C41F58011490886
:104340004FEA30000019514132462B4603B0BDE818
:10435000F04F00F06CB90098012240000023D0EB30
:10436000020263EBE073009821464FEAE074B8EB79
:10437000000061EB0401E9E783F000435BE781F0B3
:10438000004158E72DE9FE4F81EA030404F00044A0
:1043900021F0004100944FF0000B23F0004350EA5D
:1043A00001045ED052EA03045BD0C3F30A54C1F3A4
:1043B0000A552C44A4F2F3340194A0FB0254C1F337
:1043C000130141F48011C3F3130343F4801301FB81
:1043D000024400FB034E840A970A44EA815447EAE8
:1043E0008357A4FB076802958D0A05FB07854FEAF2
:1043F000932C04FB0C542705029D4FEA065847EA0C
:104400001637B5EB08056EEB070C870E920E47EAE0
:10441000811742EA8312A7FB0201B6EB0B0164EBA2
:1044200000042B0D43EA0C335E1844EB1C50DA46B3
:104430005146E7FB0201C5F313044FEA0B3343EA8D
:1044400014534FEA0432019C43EA0603A4F10C041E
:104450000294009CCDE900B400F0F8F803B0BDE888
:10446000F08F00200146F9E72DE9F04D81EA0304C1
:1044700004F0004B21F0004514464FF0000A23F0F1
:10448000004150EA050220D054EA01021DD0C5F3D4
:104490000A570246C5F31303C1F31300C1F30A56CA
:1044A00040F4801543F48013A7EB0608101BD64692
:1044B00008F2FD3873EB050002D308F1010801E0B2
:1044C00092185B41B8F1000F03DA00200146BDE805
:1044D000F08D00204FF48011064684460EE0171B35
:1044E00073EB050705D3121B63EB050306434CEA88
:1044F000010C49084FEA300092185B4150EA01076D
:10450000EDD152EA030012D082EA040083EA0501E9
:10451000084305D0101BAB4106D20122002306E060
:1045200000224FF0004302E06FF0010253101AEB3B
:1045300006004CEB085110EB0A0041EB0B01BDE803
:10454000F04D00F074B8C1F30A52C1F3130140F208
:10455000FF3341F480119A4202DA0020014670478D
:1045600040F233439A42A2F2334202DC524200F05C
:104570003CB800F02BB8000030B5041E71F1000407
:1045800004DB4FF00044404264EB0101141E73F160
:10459000000405DB1C464FF00043524263EB04036A
:1045A000994208BF904230BD064C074D06E0E068D6
:1045B00040F0010394E8070098471034AC42F6D36A
:1045C000FFF7DAFD4C9501086C950108202A04DB01
:1045D000203A00FA02F1002070479140C2F1200316
:1045E00020FA03F3194390407047202A04DB203A55
:1045F00021FA02F00021704721FA02F3D040C2F103
:1046000020029140084319467047202A06DBCB1749
:10461000203A41FA02F043EAE07306E041FA02F37D
:10462000D040C2F12002914008431946704710B5AE
:10463000141E73F1000408DA401C41F100019218C5
:104640005B411A4301D120F0010010BD2DE9F04D6E
:1046500092469B4611B1B1FA81F202E0B0FA80F2C3
:1046600020329046FFF7B2FF04460F4640EA0A00A8
:1046700041EA0B0153465A46084313D0114653EA08
:10468000010019D0C8F140025046FFF7AEFF0546C1
:104690000E46504659464246FFF798FF084305D05C
:1046A000012004E020463946BDE8F08D0020054396
:1046B00046EAE0762C4337430A986305E40AA0EB08
:1046C00008000022FD0A44EA47540A3002D50020BF
:1046D0000146E9E7010510196941DDE908450019BE
:1046E0006941BDE8F04DA2E740EA01039B0703D012
:1046F00009E008C9121F08C0042AFAD203E011F821
:10470000013B00F8013B521EF9D27047D2B201E0E2
:1047100000F8012B491EFBD270470022F6E710B5C6
:1047200013460A4604461946FFF7F0FF204610BD1F
:10473000F0B480EA0102D40F4200B2EB410F02D282
:104740000246084611464A0042D0C30DDDB2C1F30D
:10475000C752AD1A202D35DAC1F3160141F400021B
:1047600004B15242C5F1200602FA06F12A41104472
:10477000B3EBD05F23D0C4B1012DA0EBC35009DC53
:10478000F0BC4FF0004202EAC352DBB200F5000079
:1047900000F07BB9400000F1807000EBC350A0F145
:1047A000807040EAD170490009E0490841EAC071CF
:1047B000A0EBC35000F50000400800EBC350F0BC74
:1047C00000F05AB96142012202EB4101001BF6E7F9
:1047D000F0BC704781F00041AAE780F00040A7E7F5
:1047E00080EA010210B502F00043400022D04A00E6
:1047F0001FD0010E01EB1261C0F35600C2F3560246
:1048000040F4000042F40002A0FB022000047F39C3
:10481000140400D0401C50EA124001D44000491E4C
:10482000C2B20C0604EBD010401C4008802A02D013
:1048300003E0002010BD20F00100002900DA002074
:10484000184310BD30B480EA010202F0004530F098
:10485000004221F0004013D090B1C30DD40DC2F33B
:104860001601C0F31600E41A41F4000140F40002FE
:104870007D34914201D3641C00E04900002C02DA2F
:1048800030BC002070474FF400000023914201D358
:10489000891A034340084FEA4101F7D151B19142CF
:1048A00002D14FF0004105E002D24FF0010101E0DA
:1048B0006FF0010103EBC450284430BC00F0DCB8B9
:1048C000002801DBC0F10040002901DBC1F10041FB
:1048D000814201D80120704700207047002801DB89
:1048E000C0F10040002901DBC1F10041814201D249
:1048F0000120704700207047002801DBC0F1004014
:10490000002901DBC1F10041814201D30120704740
:1049100000207047002801DBC0F10040002901DBC6
:10492000C1F10041814201D9012070470020704748
:10493000C10F80EAE0700844CA079623002100F006
:10494000A4B896230022114600F09FB80EB5C10FFF
:1049500080EAE0700844CA07002140F233438DE842
:104960000E000A460B46FFF771FE03B000BD0EB500
:1049700040F2334102910021CDE900110A460B4675
:10498000FFF764FE03B000BD00F0004220F00040DD
:10499000C10DC0F3160040F400007F2901DA0020A9
:1049A0007047962903DCC1F19601C84001E09639B1
:1049B0008840002AF4D04042704720F00040C10DEA
:1049C000C0F3160040F400007F2901DA0020704790
:1049D000962903DCC1F19601C8407047963988409A
:1049E000704770B5C1F30A5201F000450024C1F3CD
:1049F000130140F2FF3341F480119A4201DA0020A2
:104A000070BD40F233439A42A2F2334203DC524279
:104A1000FFF7EBFD00E090402C43F1D0404270BD29
:104A2000C1F30A5210B5C1F3130140F2FF3341F450
:104A300080119A4201DA002010BD40F233439A42BD
:104A4000A2F2334203DC5242FFF7CFFD10BD90408B
:104A500010BD00F0004230F000400AD0C10D01F559
:104A60006071C0F3160042EA0151C20840071143C9
:104A700070470020014670470029A8BF7047401CBE
:104A8000490008BF20F00100704710B4B0FA80FC64
:104A900000FA0CF050EA010404BF10BC704749B1A1
:104AA000CCF1200421FA04F411FA0CF118BF012111
:104AB00021430843A3EB0C01CB1D4FEA00614FEAF1
:104AC000102042BF002010BC704700EBC3501044C0
:104AD0000029A4BF10BC7047401C490008BF20F04B
:104AE000010010BC7047000010B540F6E034C2F27F
:104AF0000004204611F042FE04F1100011F03EFEC9
:104B000044F60000C4F20000206210BD80B582B0FF
:104B100040F25000C2F20000019001980078002895
:104B200040F09180FFE740F29810C2F20000007858
:104B3000042800F28780DFE800F003243157760074
:104B40000198007A012807D1FFE740F29810C2F2DD
:104B500000000121017013E00198007A022807D1BA
:104B6000FFE740F29810C2F200000221017006E057
:104B700040F29810C2F2000000210170FFE7FFE749
:104B800060E040F25000C2F20000C068804740F28E
:104B90009810C2F200000321017053E040F250006F
:104BA000C2F20000C068804740F2A010C2F20000CC
:104BB00001684268013142F1000201604260B1F1D6
:104BC000140072F100000ED3FFE740F29810C2F219
:104BD00000000421017040F2A010C2F20000002188
:104BE00041600160FFE72DE040F2A010C2F200003A
:104BF00001684268013142F1000201604260881E92
:104C000072F100000ED3FFE740F2A010C2F20000E4
:104C100000214160016040F29810C2F200000421BE
:104C20000170FFE70EE040F25000C2F200000069A0
:104C3000804701980021017240F29810C2F20000F2
:104C40000170FFE709E040F25000C2F20000006985
:104C50008047019800210172FFE702B080BD00008B
:104C6000FFE7FEE770470000B0B540F6B820C2F29B
:104C7000000090F83000002840F03282FFE740F654
:104C8000B820C2F2000090F82F00002840F0068102
:104C9000FFE740F6B820C2F2000090F82D0000288F
:104CA00040F0D180FFE740F6B820C2F2000090F853
:104CB0003F00C007002800F0C580FFE740F2CC00AD
:104CC000C2F20000007838B9FFE740F2CC00C2F22F
:104CD000000001210170FFE70A2010F001FC40F6FE
:104CE000B821C2F20001B1F8722002EB90004860D6
:104CF00040F2CE00C2F200000088098A884222D029
:104D0000FFE740F2CE00C2F20000008840F6B82172
:104D1000C2F20001098A401A1E2809DBFFE707F0EA
:104D2000BDFB49F22950C0F6010013F05FFFFFE719
:104D300040F6B820C2F20000008A40F2CE01C2F272
:104D400000010880FFE740F6B820C2F20000416889
:104D5000B0F92820891A008A503881420AD2FFE728
:104D600040F6A020C2F2000045F60071C4F26A715C
:104D7000016043E040F6B820C2F2000090F839002C
:104D8000012819D1FFE740F6B825C2F20005288AAC
:104D9000FFF7D7FD04466868B5F92810401A323885
:104DA000FFF7CFFD0146204607F0BCFB40F6A021EF
:104DB000C2F20001086020E040F6B820C2F2000014
:104DC00090F83900C0B9FFE740F6B825C2F20005F7
:104DD000288AFFF7B6FD04466868B5F92810401A1E
:104DE000FFF7AFFD0146204607F09CFB40F6A021EF
:104DF000C2F200010860FFE7FFE7FFE740F6A020EE
:104E0000C2F2000000680021FFF784FD38B9FFE717
:104E100040F6A020C2F2000000210160FFE740F64A
:104E2000A020C2F200000068FFF7C7FD02464FF065
:104E30008040002112F0EAF84FF08040012112F08A
:104E40002FF9FFE729E040F6B820C2F2000090F801
:104E50002D00012820D1FFE70A2010F041FB40F689
:104E6000B821C2F20001B1F8722002EB9000486054
:104E700040F2CC00C2F200000021017040F6A020F8
:104E8000C2F2000001604FF080400021002212F0C9
:104E9000BDF807F003FBFFE7FFE720E140F6B8208D
:104EA000C2F2000090F82F00032820D1FFE70A206B
:104EB00010F016FB40F6B821C2F20001B1F87220E2
:104EC00002EB9000486040F2CC00C2F200000021EA
:104ED000017040F6A020C2F2000001604FF0804057
:104EE0000021002212F092F807F0D8FAF6E040F61E
:104EF000B820C2F2000090F82F00022840F0ED80A8
:104F0000FFE740F6B820C2F2000090F82D0000281C
:104F100040F0B880FFE740F6B820C2F2000090F8F9
:104F20003F00C007002800F0AC80FFE740F2CC0053
:104F3000C2F20000007838B9FFE740F2CC00C2F2BC
:104F4000000001210170FFE70A2010F0C9FA40F6C5
:104F5000B821C2F20001B1F8722002EB9000486063
:104F600040F2CE00C2F200000088098A884222D0B6
:104F7000FFE740F2CE00C2F20000008840F6B82100
:104F8000C2F20001098A401A1E2809DBFFE707F078
:104F900085FA49F22950C0F6010013F027FEFFE719
:104FA00040F6B820C2F20000008A40F2CE01C2F200
:104FB00000010880FFE740F6B820C2F20000416817
:104FC000028A408C10441E30814207D9FFE740F628
:104FD000A020C2F20000002101602EE040F6B820BF
:104FE000C2F200004168008A503881420AD2FFE7CD
:104FF00040F6A020C2F2000045F60071C4F26A71CA
:10500000016019E040F6B825C2F20005288A698CD3
:105010000844FFF78DFC04466868B5F92810401A6B
:10502000FFF78FFC0146204607F07CFA40F6A021EE
:10503000C2F200010860FFE7FFE740F6A020C2F2DD
:10504000000000680021FFF765FC38B9FFE740F673
:10505000A020C2F2000000210160FFE740F6A0207E
:10506000C2F200000068FFF7A8FC02464FF0804043
:10507000002111F0CBFF4FF08040012112F010F819
:10508000FFE729E040F6B820C2F2000090F82D00BA
:10509000012820D1FFE70A2010F022FA40F6B821BB
:1050A000C2F20001B1F8722002EB9000486040F2B9
:1050B000CC00C2F200000021017040F6A020C2F234
:1050C000000001604FF080400021002211F09EFF9F
:1050D00007F0E4F9FFE7FFE7FFE7FFE7FFE711E38A
:1050E00040F6B820C2F2000090F83000012840F0ED
:1050F0000883FFE740F6B820C2F2000090F83D00B8
:10510000002840F0FD82FFE740F6B820C2F2000020
:1051100090F83C00012840F0CE82FFE740F2D0003A
:10512000C2F20000007840F6B821C2F2000191F806
:105130003B1088420ED0FFE740F6B820C2F20000D4
:1051400090F83B0040F2D001C2F20001087007F075
:10515000A5F9FFE740F6B820C2F2000090F83F0042
:10516000C007002800F0A682FFE711F019FF40F603
:10517000B821C2F20001B1F872201044486091F8E1
:105180006900002840F09580FFE740F6B820C2F2A1
:10519000000090F83B00012816D1FFE740F6B82543
:1051A000C2F20005B5F88C00FFF7CBFB0446686837
:1051B000FFF7C7FB0146204607F0B4F940F6A021EF
:1051C000C2F20001086073E040F6B820C2F20000AD
:1051D00090F83B00022816D1FFE740F6B825C2F24E
:1051E0000005B5F89200FFF7ACFB04466868FFF7CE
:1051F000A8FB0146204607F095F940F6A021C2F22F
:105200000001086053E040F6B820C2F2000090F8B8
:105210003B00032816D1FFE740F6B825C2F200058F
:10522000B5F89800FFF78DFB04466868FFF789FB27
:105230000146204607F076F940F6A021C2F20001AF
:10524000086033E040F6B820C2F2000090F83B005E
:10525000042816D1FFE740F6B825C2F20005B5F8DC
:105260009E00FFF76EFB04466868FFF76AFB014685
:10527000204607F057F940F6A021C2F2000108606D
:1052800013E040F6B820C2F2000090F83B00052879
:105290000AD1FFE740F6B820C2F20000002180F8F2
:1052A0003C1080F83B10FFE7FFE7FFE7FFE7FFE771
:1052B000DCE140F6B820C2F2000090F86900012855
:1052C00040F09580FFE740F6B820C2F2000090F869
:1052D0003B00012816D1FFE740F6B825C2F20005D1
:1052E000B5F8AA00FFF72DFB04466868FFF729FB15
:1052F0000146204607F016F940F6A021C2F200014F
:10530000086073E040F6B820C2F2000090F83B005D
:10531000022816D1FFE740F6B825C2F20005B5F81D
:10532000B000FFF70EFB04466868FFF70AFB014672
:10533000204607F0F7F840F6A021C2F2000108600D
:1053400053E040F6B820C2F2000090F83B0003287A
:1053500016D1FFE740F6B825C2F20005B5F8B60051
:10536000FFF7EFFA04466868FFF7EBFA01462046BC
:1053700007F0D8F840F6A021C2F20001086033E03F
:1053800040F6B820C2F2000090F83B00042816D185
:10539000FFE740F6B825C2F20005B5F8BC00FFF7FC
:1053A000D0FA04466868FFF7CCFA0146204607F0B9
:1053B000B9F840F6A021C2F20001086013E040F6FF
:1053C000B820C2F2000090F83B0005280AD1FFE7A0
:1053D00040F6B820C2F20000002180F83C1080F8AE
:1053E0003B10FFE7FFE7FFE7FFE7FFE73DE140F6A0
:1053F000B820C2F2000090F86900022840F09580C1
:10540000FFE740F6B820C2F2000090F83B00012808
:1054100016D1FFE740F6B825C2F20005B5F8C8007E
:10542000FFF78FFA04466868FFF78BFA01462046BB
:1054300007F078F840F6A021C2F20001086073E09E
:1054400040F6B820C2F2000090F83B00022816D1C6
:10545000FFE740F6B825C2F20005B5F8CE00FFF729
:1054600070FA04466868FFF76CFA0146204607F0B8
:1054700059F840F6A021C2F20001086053E040F65E
:10548000B820C2F2000090F83B00032816D1FFE7D5
:1054900040F6B825C2F20005B5F8D400FFF751FA7E
:1054A00004466868FFF74DFA0146204607F03AF8CF
:1054B00040F6A021C2F20001086033E040F6B820B7
:1054C000C2F2000090F83B00042816D1FFE740F636
:1054D000B825C2F20005B5F8DA00FFF732FA044643
:1054E0006868FFF72EFA0146204607F01BF840F6E1
:1054F000A021C2F20001086013E040F6B820C2F219
:10550000000090F83B0005280AD1FFE740F6B820DC
:10551000C2F20000002180F83C1080F83B10FFE749
:10552000FFE7FFE7FFE7FFE79EE040F6B820C2F2A3
:10553000000090F86900032840F09580FFE740F6EE
:10554000B820C2F2000090F83B00012816D1FFE716
:1055500040F6B825C2F20005B5F8E600FFF7F1F90C
:1055600004466868FFF7EDF90146204606F0DAFFC9
:1055700040F6A021C2F20001086073E040F6B820B6
:10558000C2F2000090F83B00022816D1FFE740F677
:10559000B825C2F20005B5F8EC00FFF7D2F90446D1
:1055A0006868FFF7CEF90146204606F0BBFF40F6DB
:1055B000A021C2F20001086053E040F6B820C2F218
:1055C000000090F83B00032816D1FFE740F6B8250D
:1055D000C2F20005B5F8F200FFF7B3F904466868B7
:1055E000FFF7AFF90146204606F09CFF40F6A021E8
:1055F000C2F20001086033E040F6B820C2F20000B9
:1056000090F83B00042816D1FFE740F6B825C2F217
:105610000005B5F8F800FFF794F904466868FFF74D
:1056200090F90146204606F07DFF40F6A021C2F227
:105630000001086013E040F6B820C2F2000090F8C4
:105640003B0005280AD1FFE740F6B820C2F200006F
:10565000002180F83C1080F83B10FFE7FFE7FFE7F0
:10566000FFE7FFE7FFE7FFE7FFE7FFE740F6A020E0
:10567000C2F2000000680021FFF74CF938B9FFE7DB
:1056800040F6A020C2F2000000210160FFE740F6D2
:10569000A020C2F200000068FFF78FF902464FF029
:1056A0008040002111F0B2FC4FF08040012111F048
:1056B000F7FCFFE723E040F6B820C2F2000090F8C4
:1056C0003C00D8B9FFE706F0E9FE0A200FF008FF1A
:1056D00040F6B821C2F20001B1F8722002EB90004E
:1056E000486040F6A020C2F20000002101604FF0A7
:1056F00080400021002211F089FCFFE7FFE7FFE76F
:10570000FFE7FFE7B0BD000080B50DF087FC40F675
:10571000B820C2F2000090F83000002840F0158157
:10572000FFE740F6B820C2F2000090F82C0018B154
:10573000FFE7012821D007E140F6B820C2F20000BF
:1057400090F82D0040B9FFE740F6B820C2F2000003
:10575000012180F82C1007E040F6B820C2F20000CA
:10576000002180F82C10FFE740F6B820C2F20000BC
:10577000002180F82010C183E6E040F6B820C2F294
:10578000000090F82F0050B1FFE740F6B820C2F2B9
:10579000000090F82F00022840F0CA80FFE740F692
:1057A000B820C2F2000090F82F00022811D1FFE7C4
:1057B00040F6B820C2F2000090F82D00012808D170
:1057C000FFE740F6B820C2F20000002180F82F1059
:1057D000FFE740F6B820C2F2000040682E280AD346
:1057E000FFE740F6B820C2F20000406840F28A218C
:1057F000884265D3FFE740F6B820C2F2000090F877
:105800002D0000285CD1FFE740F6B820C2F200006E
:10581000C18B0131C183C08B4B2818DBFFE740F6F9
:10582000B820C2F20000406840F28A2188420DD3BD
:10583000FFE740F6B820C2F20000032180F82E10E6
:10584000012180F820100021C1837DE0FFE740F6B0
:10585000B820C2F20000C08B962830DBFFE740F68C
:10586000B820C2F2000040682D280DD8FFE740F6AE
:10587000B820C2F20000022180F82E10012180F829
:1058800020100021C1835FE040F6B820C2F2000082
:10589000C068092808D8FFE740F6B820C2F2000027
:1058A000012180F82E10FFE7FFE740F6B820C2F292
:1058B0000000012180F820100021C18344E006E0AF
:1058C00040F6B820C2F200000021C183FFE740F695
:1058D000B820C2F2000090F82D00012827D1FFE780
:1058E00040F6B820C2F20000406846281ED8FFE704
:1058F00040F6B820C2F20000818B01318183808B99
:10590000652812DBFFE740F6B820C2F20000002154
:1059100080F82C10818340F25001C2F20001022273
:105920000A72012180F820100EE0FFE7FFE70AE08D
:1059300040F6B820C2F2000090F82F00032801D1F1
:10594000FFE7FFE7FFE7FFE7B7E040F6B820C2F266
:10595000000090F83000012840F0AE80FFE740F6EC
:10596000B820C2F2000090F83C00012840F0A3806B
:10597000FFE740F6B820C2F2000090F83D00002892
:1059800040F09880FFE740F6B820C2F2000040687F
:105990002E2812D3FFE740F6B820C2F2000040687C
:1059A00040F28921884208D8FFE740F6B820C2F2C9
:1059B0000000C068092875D8FFE740F6B820C2F299
:1059C000000090F82D0000286CD1FFE740F6B820C9
:1059D000C2F20000C18B0131C183C08B4B2820DB98
:1059E000FFE740F6B820C2F20000406840F28A218A
:1059F000884215D3FFE740F6B820C2F20000C06825
:105A00000A280DD3FFE740F6B820C2F200000321B8
:105A100080F82E10012180F820100021C183FFE7BB
:105A2000FFE740F6B820C2F20000C08B962838DBB2
:105A3000FFE740F6B820C2F2000040682D2815D8D4
:105A4000FFE740F6B820C2F20000C0680A280DD374
:105A5000FFE740F6B820C2F20000022180F82E10C5
:105A6000012180F820100021C18310E040F6B82009
:105A7000C2F20000C068092808D8FFE740F6B82045
:105A8000C2F20000012180F82E10FFE7FFE740F688
:105A9000B820C2F20000012180F820100021C1834B
:105AA000FFE706E040F6B820C2F200000021C18303
:105AB000FFE7FFE7FFE7FFE7FFE780BD82B0019068
:105AC000019808B9FFE72BE00198002101700198C7
:105AD00042F63902C0F60102C0F80428019840F6E7
:105AE0006132C0F60102C0F808280091FFE7009873
:105AF000B0F5806F0FDAFFE70198009908440021A4
:105B000080F802140198009A10444170FFE7009851
:105B100001300090EBE70198002180F80114FFE7C5
:105B200002B0704780B50EF0E9FD28B1FFE70EF036
:105B3000D9FDFFF799F8FFE780BD000082B0019022
:105B400041F24050C2F20000007818B9FFE700208F
:105B500000900FE00198C0F3C62141F2C042C2F2AA
:105B60000002515CC0F3022021FA00F000F00100B5
:105B70000090FFE7009802B07047000080B586B043
:105B800041F24050C2F2000080690390FFE700F04C
:105B9000BFFA04900498039988422CD2FFE7EFF3F0
:105BA000108005900598029072B641F24050C2F202
:105BB0000000806901900198039988420ED1FFE7A7
:105BC000049841F24051C2F2000188610869013035
:105BD0000861BFF35F8F0120009002E00020009079
:105BE000FFE7029810B9FFE762B6FFE7009808B92F
:105BF000FFE701E008E0FFE7049903A80DF076F95C
:105C00000028C4D0FFE7FFE7049806B080BD00007D
:105C100080B58CB04FF60061C0F20201099141F2EB
:105C20008C01C2F2000108910790089820B1FFE7AB
:105C30000798812803D3FFE700200A90AEE0099877
:105C4000FFF77CFF18B9FFE701200A90A6E0FFF7F5
:105C500095FF0590BDF824000990EFF305800B90A7
:105C60000B98099941F40022002818BF11460991A8
:105C700008980690079850B9FFE7099805990022FF
:105C8000002300F08DF8019001980A9086E00798B3
:105C900008281BD8FFE70020029003900699079A76
:105CA00002A8FEF721FD079800F00700099941EAD4
:105CB00000400990099840F040700599029A039BB2
:105CC00000F06EF8019001980A9067E005F030FE50
:105CD0004FF4E02101EA0040049006980168406812
:105CE00003900291069808300690079808380790AC
:105CF0000498099908430990099840F08070059923
:105D0000029A039B00F04CF80190019818B9FFE744
:105D100000200A9042E004984FF601710843099070
:105D2000FFE7079809281CD3FFE706980168406839
:105D3000039002910698083006900798083807905B
:105D400009980599029A039B00F02AF80190099896
:105D500001300990019818B9FFE700200A901DE072
:105D6000DFE70020029003900699079A02A8FEF749
:105D7000BBFC099820F47F4009900798099941EAF3
:105D800000200990099840F000700599029A039B41
:105D900000F006F8019001980A90FFE70CB080BD72
:105DA00080B58CB00A90099108920793072005905E
:105DB000FFE70598002863D0FFE705F0BDFD0490DC
:105DC000049800F03F0041F2C001C2F2000101EB73
:105DD0000010069004984FF4700101EA80300190A1
:105DE0000A980199084309994FF0805202EAD101BB
:105DF000084308994FF0005202EA910108430799BD
:105E00004FF0804202EA5101084340F000600390E5
:105E100006980C30039906F091FA03909DF80F0054
:105E20004007002827D5FFE7039880F00040039043
:105E3000039800F000400290099820F00040029979
:105E4000084306990860089820F00040029908432A
:105E500006994860079820F0004002990843069987
:105E6000886006980C3003990CF0CCFC05F07AFDA4
:105E700001200B9009E0FFE705980138059098E7AD
:105E800005F066FD00200B90FFE70B980CB080BD7D
:105E900087B00590049103920498FE2804D8FFE788
:105EA0000398FF2803D3FFE70020069036E0002088
:105EB00002900190FFE7019803282CD8FFE705988E
:105EC0000199C840C007F0B1FFE704980090FFE7D0
:105ED00000980399884215D8FFE7009800F0070161
:105EE000012202FA01F1029A02EBD00041F2C04213
:105EF000C2F20002135C19431154FFE7009801300D
:105F00000090E5E7FFE7029820300290FFE7019854
:105F100001300190CFE701200690FFE707B07047FE
:105F200010B588B0002007900121069141F240543D
:105F3000C2F20004207041F2C040C2F20000802191
:105F4000FEF7EBFB0DF0F8FDADF81200206A42F20F
:105F50006B71CEF2A51188420FD0FFE741F240509D
:105F6000C2F2000042F26B71CEF2A5110162BDF8DF
:105F7000121041800121C1611CE041F24050C2F287
:105F800000004088BDF8121088420AD0FFE7BDF833
:105F9000120041F24051C2F2000148800120C86164
:105FA00007E041F24050C2F20000C1690131C16115
:105FB000FFE7FFE741F24050C2F20000C06901284C
:105FC00012D1FFE741F24050C2F2000000214170BF
:105FD00041608160C16041F2C000C2F200004FF434
:105FE0008061FEF79AFB20E000200090FFE7009818
:105FF0003F2819D8FFE7009841F2C001C2F2000122
:1060000001EB001005900598C07B4007002806D5DD
:10601000FFE70598C16821F04061C160FFE7FFE735
:10602000009801300090E2E7FFE741F24050C2F2F1
:106030000000C069012818D1FFE700F075F80120C1
:106040000290029820B1FFE700F068F8039002E0A8
:1060500000200390FFE7039841F24051C2F2000193
:10606000486100208861086104E000F05DF80120CB
:106070000290FFE7029830B3FFE707980021FE2265
:10608000FFF706FF0F20EF21EF22FFF701FF0420AB
:10609000FE21FE22FFF7FCFEFFF770FD0190019943
:1060A00041F24050C2F200004369C2694FF60070ED
:1060B000C0F20030FFF774FE069818B1FFE700F059
:1060C00005F8FFE7FFE708B010BD000010B582B08B
:1060D00041F24050C2F20000007818B1FFE7012001
:1060E000019013E041F24050C2F20000012404701C
:1060F000FFF744FD009000994FF60170C0F20030A8
:1061000000220023FFF74CFE0194FFE702B010BD10
:1061100041F20400CEF200000068704740F29000A7
:10612000C2F20000006870474EF6FC50CEF200004C
:10613000016841F08071016041F20000CEF2000080
:10614000016841F0010101607047000070B581B045
:1061500040F6B820C2F200000090009900200870BC
:10616000009948600099C860009AC8211182009B7C
:1061700032229A75009B1A76009B4FF0280EA3F8E6
:106180001AE0009B9883009BD883009B83F8200033
:10619000009B83F82C00009B83F82D00009B83F864
:1061A0002E00009B5A84009B4FF03C0CA3F824C0A7
:1061B000009BD884009B012483F83A40009B83F81D
:1061C0003B40009B83F83000009B83F83100009B2C
:1061D00083F83240009B83F83300009B83F83440FF
:1061E000009B83F83600009B83F83700009B83F800
:1061F0003800009B83F83E00009B83F83F00009B23
:1062000083F84000009B312483F84140009B2E25F9
:1062100083F84250009B302683F84360009B83F84C
:106220004450009B83F84560009B83F85540009BD9
:1062300083F85650009B83F85760009B83F85850B2
:10624000009B83F85960009B83F86900009B83F8EA
:106250006A00009C0A23A4F86C30009CA4F8720029
:10626000009C4FF49675A4F87450009CA4F876E056
:10627000009C1E25A4F87850009C4FF4A075A4F84B
:106280007A50009CA4F87C20009CA4F87EE0009E3C
:106290004FF4AF75A6F88050009EA6F882C0009E0D
:1062A000A6F88420009E4FF4BE75A6F88650009E86
:1062B0005025A6F88850009EA6F88AC0009C4FF092
:1062C000640EA4F88CE0009D1424A5F88E40009D77
:1062D000A5F890C0009DA5F89210009DA5F8942007
:1062E000009DA5F89630009DA5F89810009DA5F892
:1062F0009A20009DA5F89C30009DA5F89E10009D59
:10630000A5F8A020009DA5F8A230009DA5F8A41036
:10631000009DA5F8A620009DA5F8A830009DA5F831
:10632000AAE0009DA5F8AC40009DA5F8AEC0009D78
:10633000A5F8B010009DA5F8B220009DA5F8B430D6
:10634000009DA5F8B610009DA5F8B820009DA5F801
:10635000BA30009DA5F8BC10009DA5F8BE20009D98
:10636000A5F8C030009DA5F8C210009DA5F8C42076
:10637000009DA5F8C630009DA5F8C8E0009DA5F8D1
:10638000CA40009DA5F8CCC0009DA5F8CE10009D88
:10639000A5F8D020009DA5F8D230009DA5F8D41016
:1063A000009DA5F8D620009DA5F8D830009DA5F841
:1063B000DA10009DA5F8DC20009DA5F8DE30009DD8
:1063C000A5F8E010009DA5F8E220009DA5F8E430B6
:1063D000009DA5F8E6E0009DA5F8E840009DA5F821
:1063E000EAC0009DA5F8EC10009DA5F8EE20009DE8
:1063F000A5F8F030009DA5F8F210009DA5F8F42056
:10640000009DA5F8F630009DA5F8F810009DA5F8B0
:10641000FA20009DA5F8FC30009DA5F8FE10009D17
:10642000A5F80021009DA5F80231009DA5F804E122
:10643000009EA6F80641009EA6F808C1009EA6F898
:106440000A11009EA6F80C21009EA6F80E31009EAF
:10645000A6F81011009EA6F81221009EA6F814318D
:10646000009EA6F81611009EA6F81821009EA6F818
:106470001A31009EA6F81C110099A1F81E2100995E
:10648000A1F820310099A1F8220101B070BD0000EF
:10649000B0B540F2A810C2F2000000780A2805F258
:1064A0004682DFE810F00B00181A5D207721AB223E
:1064B00024249D2515278D28052A2D2A40F26F209A
:1064C000C2F200000078002843F0FB81FFE74EF2A3
:1064D0000000C0F601000DF0C7FE4FF6FF718842C4
:1064E00000F07186FFE74FF20040C0F601000DF0AA
:1064F000BBFE4FF6FF71884200F06586FFE74EF263
:10650000CC00C0F601000EF0B9FF40F27024C2F2D8
:10651000000420804FF2CC40C0F601000EF0AEFF28
:1065200040F27221C2F20001088020880988884266
:1065300040F32483FFE74EF20000C0F601000EF0A6
:106540009DFF40F6B825C2F2000528824EF20200F7
:10655000C0F601000EF092FFA8754EF20400C0F6DE
:1065600001000EF08BFF28764EF20600C0F6010007
:106570000EF084FF28854EF2C800C0F601000EF030
:106580007DFF85F830004EF20800C0F601000EF0E5
:1065900075FFA5F86C004EF20A00C0F601000EF07F
:1065A0006DFF85F831004EF20C00C0F601000EF0D0
:1065B00065FF85F832004EF20E00C0F601000EF0C5
:1065C0005DFF85F833004EF21000C0F601000EF0BA
:1065D00055FF85F834004EF21200C0F601000EF0AF
:1065E0004DFF85F835004EF21400C0F601000EF0A4
:1065F00045FF85F836004EF21600C0F601000EF099
:106600003DFF85F837004EF21800C0F601000EF08D
:1066100035FF85F838004EF21A00C0F601000EF082
:106620002DFFA5F874004EF21C00C0F601000EF01C
:1066300025FFA5F876004EF21E00C0F601000EF010
:106640001DFFA5F878004EF22000C0F601000EF004
:1066500015FFA5F87A004EF22200C0F601000EF0F8
:106660000DFFA5F87C004EF22400C0F601000EF0EC
:1066700005FFA5F87E004EF22600C0F601000EF0E0
:10668000FDFEA5F880004EF22800C0F601000EF0D5
:10669000F5FEA5F882004EF22A00C0F601000EF0C9
:1066A000EDFEA5F884004EF22C00C0F601000EF0BD
:1066B000E5FEA5F886004EF22E00C0F601000EF0B1
:1066C000DDFEA5F888004EF23000C0F601000EF0A5
:1066D000D5FEA5F88A004EF23200C0F601000EF099
:1066E000CDFEA5F88C004EF23400C0F601000EF08D
:1066F000C5FEA5F88E004EF23600C0F601000EF081
:10670000BDFEA5F890004EF23800C0F601000EF074
:10671000B5FEA5F892004EF23A00C0F601000EF068
:10672000ADFEA5F894004EF23C00C0F601000EF05C
:10673000A5FEA5F896004EF23E00C0F601000EF050
:106740009DFEA5F898004EF24000C0F601000EF044
:1067500095FEA5F89A004EF24200C0F601000EF038
:106760008DFEA5F89C004EF24400C0F601000EF02C
:1067700085FEA5F89E004EF24600C0F601000EF020
:106780007DFEA5F8A0004EF24800C0F601000EF014
:1067900075FEA5F8A2004EF24A00C0F601000EF008
:1067A0006DFEA5F8A4004EF24C00C0F601000EF0FC
:1067B00065FEA5F8A6004EF24E00C0F601000EF0F0
:1067C0005DFEA5F8A8004EF25000C0F601000EF0E4
:1067D00055FEA5F8AA004EF25200C0F601000EF0D8
:1067E0004DFEA5F8AC004EF25400C0F601000EF0CC
:1067F00045FEA5F8AE004EF25600C0F601000EF0C0
:106800003DFEA5F8B0004EF25800C0F601000EF0B3
:1068100035FEA5F8B2004EF25A00C0F601000EF0A7
:106820002DFEA5F8B4004EF25C00C0F601000EF09B
:1068300025FEA5F8B6004EF25E00C0F601000EF08F
:106840001DFEA5F8B8004EF26000C0F601000EF083
:1068500015FEA5F8BA004EF26200C0F601000EF077
:106860000DFEA5F8BC004EF26400C0F601000EF06B
:1068700005FEA5F8BE004EF26600C0F601000EF05F
:10688000FDFDA5F8C0004EF26800C0F601000EF054
:10689000F5FDA5F8C2004EF26A00C0F601000EF048
:1068A000EDFDA5F8C4004EF26C00C0F601000EF03C
:1068B000E5FDA5F8C6004EF27004C0F601042046BE
:1068C0000EF0DCFDA5F8C80020460EF0D7FDA5F8B7
:1068D000CA004EF27200C0F601000EF0CFFDA5F81E
:1068E000CC004EF27400C0F601000EF0C7FDA5F812
:1068F000CE004EF27600C0F601000EF0BFFDA5F806
:10690000D0004EF27800C0F601000EF0B7FDA5F8F9
:10691000D2004EF27A00C0F601000EF0AFFDA5F8ED
:10692000D4004EF27C00C0F601000EF0A7FDA5F8E1
:10693000D6004EF27E00C0F601000EF09FFDA5F8D5
:10694000D8004EF28000C0F601000EF097FDA5F8C9
:10695000DA004EF28200C0F601000EF08FFDA5F8BD
:10696000DC004EF28400C0F601000EF087FDA5F8B1
:10697000DE004EF28600C0F601000EF07FFDA5F8A5
:10698000E0004EF28800C0F601000EF077FDA5F899
:10699000E2004EF28A00C0F601000EF06FFDA5F88D
:1069A000E4004EF28E04C0F6010420460EF066FDAF
:1069B000A5F8E60020460EF061FDA5F8E8004EF2CD
:1069C0009000C0F601000EF059FDA5F8EA004EF265
:1069D0009200C0F601000EF051FDA5F8EC004EF259
:1069E0009400C0F601000EF049FDA5F8EE004EF24D
:1069F0009600C0F601000EF041FDA5F8F0004EF241
:106A00009800C0F601000EF039FDA5F8F2004EF234
:106A10009A00C0F601000EF031FDA5F8F4004EF228
:106A20009C00C0F601000EF029FDA5F8F6004EF21C
:106A30009E00C0F601000EF021FDA5F8F8004EF210
:106A4000A000C0F601000EF019FDA5F8FA004EF204
:106A5000A200C0F601000EF011FDA5F8FC004EF2F8
:106A6000A400C0F601000EF009FDA5F8FE004EF2EC
:106A7000A600C0F601000EF001FDA5F800014EF2DF
:106A8000A800C0F601000EF0F9FCA5F802014EF2D4
:106A9000AC04C0F6010420460EF0F0FCA5F8040199
:106AA00020460EF0EBFCA5F806014EF2AE00C0F653
:106AB00001000EF0E3FCA5F808014EF2B000C0F6AC
:106AC00001000EF0DBFCA5F80A014EF2B200C0F6A0
:106AD00001000EF0D3FCA5F80C014EF2B400C0F694
:106AE00001000EF0CBFCA5F80E014EF2B600C0F688
:106AF00001000EF0C3FCA5F810014EF2B800C0F67C
:106B000001000EF0BBFCA5F812014EF2BA00C0F66F
:106B100001000EF0B3FCA5F814014EF2BC00C0F663
:106B200001000EF0ABFCA5F816014EF2BE00C0F657
:106B300001000EF0A3FCA5F818014EF2C000C0F64B
:106B400001000EF09BFCA5F81A014EF2C200C0F63F
:106B500001000EF093FCA5F81C014EF2C400C0F633
:106B600001000EF08BFCA5F81E014EF2C600C0F627
:106B700001000EF083FCA5F8200122E34FF2004053
:106B8000C0F601000EF07AFC40F6B825C2F200050E
:106B900028824FF20240C0F601000EF06FFCA8758B
:106BA0004FF20440C0F601000EF068FC28764FF268
:106BB0000640C0F601000EF061FC28854FF2C84087
:106BC000C0F601000EF05AFC85F830004FF2084084
:106BD000C0F601000EF052FCA5F86C004FF20A401E
:106BE000C0F601000EF04AFC85F831004FF20C406F
:106BF000C0F601000EF042FC85F832004FF20E4064
:106C0000C0F601000EF03AFC85F833004FF2104058
:106C1000C0F601000EF032FC85F834004FF212404D
:106C2000C0F601000EF02AFC85F835004FF2144042
:106C3000C0F601000EF022FC85F836004FF2164037
:106C4000C0F601000EF01AFC85F837004FF218402C
:106C5000C0F601000EF012FC85F838004FF21A4021
:106C6000C0F601000EF00AFCA5F874004FF21C40BB
:106C7000C0F601000EF002FCA5F876004FF21E40AF
:106C8000C0F601000EF0FAFBA5F878004FF22040A4
:106C9000C0F601000EF0F2FBA5F87A004FF2224098
:106CA000C0F601000EF0EAFBA5F87C004FF224408C
:106CB000C0F601000EF0E2FBA5F87E004FF2264080
:106CC000C0F601000EF0DAFBA5F880004FF2284074
:106CD000C0F601000EF0D2FBA5F882004FF22A4068
:106CE000C0F601000EF0CAFBA5F884004FF22C405C
:106CF000C0F601000EF0C2FBA5F886004FF22E4050
:106D0000C0F601000EF0BAFBA5F888004FF2304043
:106D1000C0F601000EF0B2FBA5F88A004FF2324037
:106D2000C0F601000EF0AAFBA5F88C004FF234402B
:106D3000C0F601000EF0A2FBA5F88E004FF236401F
:106D4000C0F601000EF09AFBA5F890004FF2384013
:106D5000C0F601000EF092FBA5F892004FF23A4007
:106D6000C0F601000EF08AFBA5F894004FF23C40FB
:106D7000C0F601000EF082FBA5F896004FF23E40EF
:106D8000C0F601000EF07AFBA5F898004FF24040E3
:106D9000C0F601000EF072FBA5F89A004FF24240D7
:106DA000C0F601000EF06AFBA5F89C004FF24440CB
:106DB000C0F601000EF062FBA5F89E004FF24640BF
:106DC000C0F601000EF05AFBA5F8A0004FF24840B3
:106DD000C0F601000EF052FBA5F8A2004FF24A40A7
:106DE000C0F601000EF04AFBA5F8A4004FF24C409B
:106DF000C0F601000EF042FBA5F8A6004FF24E408F
:106E0000C0F601000EF03AFBA5F8A8004FF2504082
:106E1000C0F601000EF032FBA5F8AA004FF2524076
:106E2000C0F601000EF02AFBA5F8AC004FF254406A
:106E3000C0F601000EF022FBA5F8AE004FF256405E
:106E4000C0F601000EF01AFBA5F8B0004FF2584052
:106E5000C0F601000EF012FBA5F8B2004FF25A4046
:106E6000C0F601000EF00AFBA5F8B4004FF25C403A
:106E7000C0F601000EF002FBA5F8B6004FF25E402E
:106E8000C0F601000EF0FAFAA5F8B8004FF2604023
:106E9000C0F601000EF0F2FAA5F8BA004FF2624017
:106EA000C0F601000EF0EAFAA5F8BC004FF264400B
:106EB000C0F601000EF0E2FAA5F8BE004FF26640FF
:106EC000C0F601000EF0DAFAA5F8C0004FF26840F3
:106ED000C0F601000EF0D2FAA5F8C2004FF26A40E7
:106EE000C0F601000EF0CAFAA5F8C4004FF26C40DB
:106EF000C0F601000EF0C2FAA5F8C6004FF27044C9
:106F0000C0F6010420460EF0B9FAA5F8C8002046E4
:106F10000EF0B4FAA5F8CA004FF27240C0F60100B4
:106F20000EF0ACFAA5F8CC004FF27440C0F60100A8
:106F30000EF0A4FAA5F8CE004FF27640C0F601009C
:106F40000EF09CFAA5F8D0004FF27840C0F6010090
:106F50000EF094FAA5F8D2004FF27A40C0F6010084
:106F60000EF08CFAA5F8D4004FF27C40C0F6010078
:106F70000EF084FAA5F8D6004FF27E40C0F601006C
:106F80000EF07CFAA5F8D8004FF28040C0F6010060
:106F90000EF074FAA5F8DA004FF28240C0F6010054
:106FA0000EF06CFAA5F8DC004FF28440C0F6010048
:106FB0000EF064FAA5F8DE004FF28640C0F601003C
:106FC0000EF05CFAA5F8E0004FF28840C0F6010030
:106FD0000EF054FAA5F8E2004FF28A40C0F6010024
:106FE0000EF04CFAA5F8E4004FF28E44C0F601040E
:106FF00020460EF043FAA5F8E60020460EF03EFAD1
:10700000A5F8E8004FF29040C0F601000EF036FA05
:10701000A5F8EA004FF29240C0F601000EF02EFAF9
:10702000A5F8EC004FF29440C0F601000EF026FAED
:10703000A5F8EE004FF29640C0F601000EF01EFAE1
:10704000A5F8F0004FF29840C0F601000EF016FAD5
:10705000A5F8F2004FF29A40C0F601000EF00EFAC9
:10706000A5F8F4004FF29C40C0F601000EF006FABD
:10707000A5F8F6004FF29E40C0F601000EF0FEF9B2
:10708000A5F8F8004FF2A040C0F601000EF0F6F9A6
:10709000A5F8FA004FF2A240C0F601000EF0EEF99A
:1070A000A5F8FC004FF2A440C0F601000EF0E6F98E
:1070B000A5F8FE004FF2A640C0F601000EF0DEF982
:1070C000A5F800014FF2A840C0F601000EF0D6F975
:1070D000A5F802014FF2AC44C0F6010420460EF0C0
:1070E000CDF9A5F8040120460EF0C8F9A5F806016F
:1070F0004FF2AE40C0F601000EF0C0F9A5F808014D
:107100004FF2B040C0F601000EF0B8F9A5F80A0140
:107110004FF2B240C0F601000EF0B0F9A5F80C0134
:107120004FF2B440C0F601000EF0A8F9A5F80E0128
:107130004FF2B640C0F601000EF0A0F9A5F810011C
:107140004FF2B840C0F601000EF098F9A5F8120110
:107150004FF2BA40C0F601000EF090F9A5F8140104
:107160004FF2BC40C0F601000EF088F9A5F81601F8
:107170004FF2BE40C0F601000EF080F9A5F81801EC
:107180004FF2C040C0F601000EF078F9A5F81A01E0
:107190004FF2C240C0F601000EF070F9A5F81C01D4
:1071A0004FF2C440C0F601000EF068F9A5F81E01C8
:1071B0004FF2C640C0F601000EF060F9A5F82001BC
:1071C000FFE700F042BF4EF20000C0F601000DF0F4
:1071D0004BF84FF6FF71884200F02583FFE74EF22F
:1071E0000000C0F601000EF049F940F6B825C2F2E1
:1071F000000528824EF20200C0F601000EF03EF9B2
:10720000A8754EF20400C0F601000EF037F928769A
:107210004EF20600C0F601000EF030F928854EF25D
:10722000C800C0F601000EF029F985F830004EF2D2
:107230000800C0F601000EF021F9A5F86C004EF22E
:107240000A00C0F601000EF019F985F831004EF27F
:107250000C00C0F601000EF011F985F832004EF274
:107260000E00C0F601000EF009F985F833004EF269
:107270001000C0F601000EF001F985F834004EF25E
:107280001200C0F601000EF0F9F885F835004EF254
:107290001400C0F601000EF0F1F885F836004EF249
:1072A0001600C0F601000EF0E9F885F837004EF23E
:1072B0001800C0F601000EF0E1F885F838004EF233
:1072C0001A00C0F601000EF0D9F8A5F874004EF2CD
:1072D0001C00C0F601000EF0D1F8A5F876004EF2C1
:1072E0001E00C0F601000EF0C9F8A5F878004EF2B5
:1072F0002000C0F601000EF0C1F8A5F87A004EF2A9
:107300002200C0F601000EF0B9F8A5F87C004EF29C
:107310002400C0F601000EF0B1F8A5F87E004EF290
:107320002600C0F601000EF0A9F8A5F880004EF284
:107330002800C0F601000EF0A1F8A5F882004EF278
:107340002A00C0F601000EF099F8A5F884004EF26C
:107350002C00C0F601000EF091F8A5F886004EF260
:107360002E00C0F601000EF089F8A5F888004EF254
:107370003000C0F601000EF081F8A5F88A004EF248
:107380003200C0F601000EF079F8A5F88C004EF23C
:107390003400C0F601000EF071F8A5F88E004EF230
:1073A0003600C0F601000EF069F8A5F890004EF224
:1073B0003800C0F601000EF061F8A5F892004EF218
:1073C0003A00C0F601000EF059F8A5F894004EF20C
:1073D0003C00C0F601000EF051F8A5F896004EF200
:1073E0003E00C0F601000EF049F8A5F898004EF2F4
:1073F0004000C0F601000EF041F8A5F89A004EF2E8
:107400004200C0F601000EF039F8A5F89C004EF2DB
:107410004400C0F601000EF031F8A5F89E004EF2CF
:107420004600C0F601000EF029F8A5F8A0004EF2C3
:107430004800C0F601000EF021F8A5F8A2004EF2B7
:107440004A00C0F601000EF019F8A5F8A4004EF2AB
:107450004C00C0F601000EF011F8A5F8A6004EF29F
:107460004E00C0F601000EF009F8A5F8A8004EF293
:107470005000C0F601000EF001F8A5F8AA004EF287
:107480005200C0F601000DF0F9FFA5F8AC004EF275
:107490005400C0F601000DF0F1FFA5F8AE004EF269
:1074A0005600C0F601000DF0E9FFA5F8B0004EF25D
:1074B0005800C0F601000DF0E1FFA5F8B2004EF251
:1074C0005A00C0F601000DF0D9FFA5F8B4004EF245
:1074D0005C00C0F601000DF0D1FFA5F8B6004EF239
:1074E0005E00C0F601000DF0C9FFA5F8B8004EF22D
:1074F0006000C0F601000DF0C1FFA5F8BA004EF221
:107500006200C0F601000DF0B9FFA5F8BC004EF214
:107510006400C0F601000DF0B1FFA5F8BE004EF208
:107520006600C0F601000DF0A9FFA5F8C0004EF2FC
:107530006800C0F601000DF0A1FFA5F8C2004EF2F0
:107540006A00C0F601000DF099FFA5F8C4004EF2E4
:107550006C00C0F601000DF091FFA5F8C6004EF2D8
:107560007004C0F6010420460DF088FFA5F8C8009D
:1075700020460DF083FFA5F8CA004EF27200C0F657
:1075800001000DF07BFFA5F8CC004EF27400C0F6B0
:1075900001000DF073FFA5F8CE004EF27600C0F6A4
:1075A00001000DF06BFFA5F8D0004EF27800C0F698
:1075B00001000DF063FFA5F8D2004EF27A00C0F68C
:1075C00001000DF05BFFA5F8D4004EF27C00C0F680
:1075D00001000DF053FFA5F8D6004EF27E00C0F674
:1075E00001000DF04BFFA5F8D8004EF28000C0F668
:1075F00001000DF043FFA5F8DA004EF28200C0F65C
:1076000001000DF03BFFA5F8DC004EF28400C0F64F
:1076100001000DF033FFA5F8DE004EF28600C0F643
:1076200001000DF02BFFA5F8E0004EF28800C0F637
:1076300001000DF023FFA5F8E2004EF28A00C0F62B
:1076400001000DF01BFFA5F8E4004EF28E04C0F619
:10765000010420460DF012FFA5F8E60020460DF0CB
:107660000DFFA5F8E8004EF29000C0F601000DF005
:1076700005FFA5F8EA004EF29200C0F601000DF0F9
:10768000FDFEA5F8EC004EF29400C0F601000DF0EE
:10769000F5FEA5F8EE004EF29600C0F601000DF0E2
:1076A000EDFEA5F8F0004EF29800C0F601000DF0D6
:1076B000E5FEA5F8F2004EF29A00C0F601000DF0CA
:1076C000DDFEA5F8F4004EF29C00C0F601000DF0BE
:1076D000D5FEA5F8F6004EF29E00C0F601000DF0B2
:1076E000CDFEA5F8F8004EF2A000C0F601000DF0A6
:1076F000C5FEA5F8FA004EF2A200C0F601000DF09A
:10770000BDFEA5F8FC004EF2A400C0F601000DF08D
:10771000B5FEA5F8FE004EF2A600C0F601000DF081
:10772000ADFEA5F800014EF2A800C0F601000DF074
:10773000A5FEA5F802014EF2AC04C0F601042046F5
:107740000DF09CFEA5F8040120460DF097FEA5F86B
:1077500006014EF2AE00C0F601000DF08FFEA5F856
:1077600008014EF2B000C0F601000DF087FEA5F84A
:107770000A014EF2B200C0F601000DF07FFEA5F83E
:107780000C014EF2B400C0F601000DF077FEA5F832
:107790000E014EF2B600C0F601000DF06FFEA5F826
:1077A00010014EF2B800C0F601000DF067FEA5F81A
:1077B00012014EF2BA00C0F601000DF05FFEA5F80E
:1077C00014014EF2BC00C0F601000DF057FEA5F802
:1077D00016014EF2BE00C0F601000DF04FFEA5F8F6
:1077E00018014EF2C000C0F601000DF047FEA5F8EA
:1077F0001A014EF2C200C0F601000DF03FFEA5F8DE
:107800001C014EF2C400C0F601000DF037FEA5F8D1
:107810001E014EF2C600C0F601000DF02FFEA5F8C5
:10782000200100F011BC4FF20040C0F601000CF046
:107830001BFD4FF6FF71884200F02483FFE74FF2F3
:107840000040C0F601000DF019FE40F6B825C2F266
:10785000000528824FF20240C0F601000DF00EFE36
:10786000A8754FF20440C0F601000DF007FE28761F
:107870004FF20640C0F601000DF000FE28854FF2E1
:10788000C840C0F601000DF0F9FD85F830004FF258
:107890000840C0F601000DF0F1FDA5F86C004FF2B4
:1078A0000A40C0F601000DF0E9FD85F831004FF205
:1078B0000C40C0F601000DF0E1FD85F832004FF2FA
:1078C0000E40C0F601000DF0D9FD85F833004FF2EF
:1078D0001040C0F601000DF0D1FD85F834004FF2E4
:1078E0001240C0F601000DF0C9FD85F835004FF2D9
:1078F0001440C0F601000DF0C1FD85F836004FF2CE
:107900001640C0F601000DF0B9FD85F837004FF2C2
:107910001840C0F601000DF0B1FD85F838004FF2B7
:107920001A40C0F601000DF0A9FDA5F874004FF251
:107930001C40C0F601000DF0A1FDA5F876004FF245
:107940001E40C0F601000DF099FDA5F878004FF239
:107950002040C0F601000DF091FDA5F87A004FF22D
:107960002240C0F601000DF089FDA5F87C004FF221
:107970002440C0F601000DF081FDA5F87E004FF215
:107980002640C0F601000DF079FDA5F880004FF209
:107990002840C0F601000DF071FDA5F882004FF2FD
:1079A0002A40C0F601000DF069FDA5F884004FF2F1
:1079B0002C40C0F601000DF061FDA5F886004FF2E5
:1079C0002E40C0F601000DF059FDA5F888004FF2D9
:1079D0003040C0F601000DF051FDA5F88A004FF2CD
:1079E0003240C0F601000DF049FDA5F88C004FF2C1
:1079F0003440C0F601000DF041FDA5F88E004FF2B5
:107A00003640C0F601000DF039FDA5F890004FF2A8
:107A10003840C0F601000DF031FDA5F892004FF29C
:107A20003A40C0F601000DF029FDA5F894004FF290
:107A30003C40C0F601000DF021FDA5F896004FF284
:107A40003E40C0F601000DF019FDA5F898004FF278
:107A50004040C0F601000DF011FDA5F89A004FF26C
:107A60004240C0F601000DF009FDA5F89C004FF260
:107A70004440C0F601000DF001FDA5F89E004FF254
:107A80004640C0F601000DF0F9FCA5F8A0004FF249
:107A90004840C0F601000DF0F1FCA5F8A2004FF23D
:107AA0004A40C0F601000DF0E9FCA5F8A4004FF231
:107AB0004C40C0F601000DF0E1FCA5F8A6004FF225
:107AC0004E40C0F601000DF0D9FCA5F8A8004FF219
:107AD0005040C0F601000DF0D1FCA5F8AA004FF20D
:107AE0005240C0F601000DF0C9FCA5F8AC004FF201
:107AF0005440C0F601000DF0C1FCA5F8AE004FF2F5
:107B00005640C0F601000DF0B9FCA5F8B0004FF2E8
:107B10005840C0F601000DF0B1FCA5F8B2004FF2DC
:107B20005A40C0F601000DF0A9FCA5F8B4004FF2D0
:107B30005C40C0F601000DF0A1FCA5F8B6004FF2C4
:107B40005E40C0F601000DF099FCA5F8B8004FF2B8
:107B50006040C0F601000DF091FCA5F8BA004FF2AC
:107B60006240C0F601000DF089FCA5F8BC004FF2A0
:107B70006440C0F601000DF081FCA5F8BE004FF294
:107B80006640C0F601000DF079FCA5F8C0004FF288
:107B90006840C0F601000DF071FCA5F8C2004FF27C
:107BA0006A40C0F601000DF069FCA5F8C4004FF270
:107BB0006C40C0F601000DF061FCA5F8C6004FF264
:107BC0007044C0F6010420460DF058FCA5F8C8002A
:107BD00020460DF053FCA5F8CA004FF27240C0F6E3
:107BE00001000DF04BFCA5F8CC004FF27440C0F63C
:107BF00001000DF043FCA5F8CE004FF27640C0F630
:107C000001000DF03BFCA5F8D0004FF27840C0F623
:107C100001000DF033FCA5F8D2004FF27A40C0F617
:107C200001000DF02BFCA5F8D4004FF27C40C0F60B
:107C300001000DF023FCA5F8D6004FF27E40C0F6FF
:107C400001000DF01BFCA5F8D8004FF28040C0F6F3
:107C500001000DF013FCA5F8DA004FF28240C0F6E7
:107C600001000DF00BFCA5F8DC004FF28440C0F6DB
:107C700001000DF003FCA5F8DE004FF28640C0F6CF
:107C800001000DF0FBFBA5F8E0004FF28840C0F6C4
:107C900001000DF0F3FBA5F8E2004FF28A40C0F6B8
:107CA00001000DF0EBFBA5F8E4004FF28E44C0F6A6
:107CB000010420460DF0E2FBA5F8E60020460DF099
:107CC000DDFBA5F8E8004FF29040C0F601000DF092
:107CD000D5FBA5F8EA004FF29240C0F601000DF086
:107CE000CDFBA5F8EC004FF29440C0F601000DF07A
:107CF000C5FBA5F8EE004FF29640C0F601000DF06E
:107D0000BDFBA5F8F0004FF29840C0F601000DF061
:107D1000B5FBA5F8F2004FF29A40C0F601000DF055
:107D2000ADFBA5F8F4004FF29C40C0F601000DF049
:107D3000A5FBA5F8F6004FF29E40C0F601000DF03D
:107D40009DFBA5F8F8004FF2A040C0F601000DF031
:107D500095FBA5F8FA004FF2A240C0F601000DF025
:107D60008DFBA5F8FC004FF2A440C0F601000DF019
:107D700085FBA5F8FE004FF2A640C0F601000DF00D
:107D80007DFBA5F800014FF2A840C0F601000DF000
:107D900075FBA5F802014FF2AC44C0F60104204681
:107DA0000DF06CFBA5F8040120460DF067FBA5F86B
:107DB00006014FF2AE40C0F601000DF05FFBA5F8E2
:107DC00008014FF2B040C0F601000DF057FBA5F8D6
:107DD0000A014FF2B240C0F601000DF04FFBA5F8CA
:107DE0000C014FF2B440C0F601000DF047FBA5F8BE
:107DF0000E014FF2B640C0F601000DF03FFBA5F8B2
:107E000010014FF2B840C0F601000DF037FBA5F8A5
:107E100012014FF2BA40C0F601000DF02FFBA5F899
:107E200014014FF2BC40C0F601000DF027FBA5F88D
:107E300016014FF2BE40C0F601000DF01FFBA5F881
:107E400018014FF2C040C0F601000DF017FBA5F875
:107E50001A014FF2C240C0F601000DF00FFBA5F869
:107E60001C014FF2C440C0F601000DF007FBA5F85D
:107E70001E014FF2C640C0F601000DF0FFFAA5F852
:107E80002001E0E040F6B820C2F20000DC210182CF
:107E90003C218175642202760022028580F8302020
:107EA0004FF0140CA0F86CC080F83120012380F84A
:107EB000323080F8333080F8343080F8352080F864
:107EC000362080F8372080F838204FF49672A0F8DA
:107ED00074202822A0F876201E23A0F878304FF4D2
:107EE000A073A0F87A303223A0F87C30A0F87E206E
:107EF0004FF4AF72A0F88020A0F88210A0F8843070
:107F00004FF4BE72A0F886205022A0F88820A0F876
:107F10008A106E22A0F88C20A0F88EC0A0F89010D5
:107F2000C825A0F89250A0F894300A24A0F89640F2
:107F3000A0F89850A0F89A30A0F89C40A0F89E5065
:107F4000A0F8A030A0F8A240A0F8A450A0F8A63055
:107F5000A0F8A840A0F8AA20A0F8ACC0A0F8AE10E5
:107F6000A0F8B050A0F8B230A0F8B440A0F8B650D5
:107F7000A0F8B830A0F8BA40A0F8BC50A0F8BE30C5
:107F8000A0F8C040A0F8C250A0F8C430A0F8C64085
:107F9000A0F8C820A0F8CAC0A0F8CC10A0F8CE5015
:107FA000A0F8D030A0F8D240A0F8D450A0F8D63035
:107FB000A0F8D840A0F8DA50A0F8DC30A0F8DE40F5
:107FC000A0F8E050A0F8E230A0F8E440A0F8E620E5
:107FD000A0F8E8C0A0F8EA10A0F8EC50A0F8EE3045
:107FE000A0F8F040A0F8F250A0F8F430A0F8F64065
:107FF000A0F8F850A0F8FA30A0F8FC40A0F8FE5025
:10800000A0F80031A0F80241A0F80421A0F806C1B0
:10801000A0F80811A0F80A51A0F80C31A0F80E4100
:10802000A0F81051A0F81231A0F81441A0F8165190
:10803000A0F81831A0F81A41A0F81C51A0F81E3180
:10804000A0F82041FFE7FFE7FFE740F6B820C2F2C3
:108050000000008AB0F5FA7F08DCFFE740F6B820A0
:10806000C2F20000008A632808DCFFE740F6B8206F
:10807000C2F200004FF496710182FFE740F6B8208B
:10808000C2F20000807DC82808DCFFE740F6B82077
:10809000C2F20000807D002807DCFFE740F6B82030
:1080A000C2F2000050218175FFE740F6B820C2F20D
:1080B000000090F8300088B1FFE740F6B820C2F227
:1080C000000090F83000012808D0FFE740F6B82003
:1080D000C2F20000002180F83010FFE740F6B8201F
:1080E000C2F2000090F8310088B1FFE740F6B820F6
:1080F000C2F2000090F83100012808D0FFE740F6F6
:10810000B820C2F20000002180F83110FFE740F6ED
:10811000B820C2F2000090F83200012810D0FFE72A
:1081200040F6B820C2F2000090F8320040B1FFE7FC
:1081300040F6B820C2F20000012180F83210FFE7BB
:1081400040F6B820C2F2000090F8330088B1FFE793
:1081500040F6B820C2F2000090F83300012808D0A1
:10816000FFE740F6B820C2F20000012180F833108A
:10817000FFE740F6B820C2F2000090F83400012872
:1081800019D0FFE740F6B820C2F2000090F83400A2
:1081900088B1FFE740F6B820C2F2000090F8340042
:1081A000022808D0FFE740F6B820C2F20000012103
:1081B00080F83410FFE740F6B820C2F2000090F8D3
:1081C000350088B1FFE740F6B820C2F2000090F811
:1081D0003500012808D0FFE740F6B820C2F20000C1
:1081E000002180F83510FFE740F6B820C2F2000009
:1081F00090F8360088B1FFE740F6B820C2F20000E0
:1082000090F83600012808D0FFE740F6B820C2F207
:108210000000002180F83610FFE740F6B820C2F2D7
:10822000000090F8370080B1FFE740F6B820C2F2B6
:10823000000090F8370040B1FFE740F6B820C2F2E6
:108240000000012180F83710FFE740F6B820C2F2A5
:10825000000090F8380080B1FFE740F6B820C2F285
:10826000000090F8380040B1FFE740F6B820C2F2B5
:108270000000002180F83810FFE740F6B820C2F275
:108280000000B0F9280032280ADCFFE740F6B820E9
:10829000C2F20000B0F9280010F1330F07DCFFE74D
:1082A00040F6B820C2F2000000210185FFE740F649
:1082B000B820C2F20000B0F86C00B0F57A7F01DAA5
:1082C000FFE707E040F6B820C2F200001421A0F852
:1082D0006C10FFE740F6B820C2F20000B0F874005E
:1082E000B0F5FA7F09DCFFE740F6B820C2F20000E3
:1082F000B0F87400632809DCFFE740F6B820C2F24A
:1083000000004FF49671A0F87410FFE740F6B82013
:10831000C2F20000B0F87600C82809DCFFE740F69A
:10832000B820C2F20000B0F87600002808DCFFE7B1
:1083300040F6B820C2F200005021A0F87610FFE706
:1083400040F6B820C2F20000B0F87800B0F57A7FAD
:1083500001DAFFE707E040F6B820C2F200001E2174
:10836000A0F87810FFE740F6B820C2F20000B0F89D
:108370007A00B0F5FA7F09DCFFE740F6B820C2F2D8
:108380000000B0F87A00632809DCFFE740F6B82067
:10839000C2F200004FF49671A0F87A10FFE740F6A1
:1083A000B820C2F20000B0F87C00C82809DCFFE762
:1083B00040F6B820C2F20000B0F87C00002808DCCB
:1083C000FFE740F6B820C2F200005021A0F87C1070
:1083D000FFE740F6B820C2F20000B0F87E00B0F52A
:1083E0007A7F01DAFFE707E040F6B820C2F200002A
:1083F0001E21A0F87E10FFE740F6B820C2F2000070
:10840000B0F88000B0F5FA7F09DCFFE740F6B8204D
:10841000C2F20000B0F88000632809DCFFE740F6F4
:10842000B820C2F200004FF49671A0F88010FFE768
:1084300040F6B820C2F20000B0F88200C82809DC7B
:10844000FFE740F6B820C2F20000B0F88200002832
:1084500008DCFFE740F6B820C2F200005021A0F887
:108460008210FFE740F6B820C2F20000B0F88400A6
:10847000B0F57A7F01DAFFE707E040F6B820C2F2F4
:1084800000001E21A0F88410FFE740F6B820C2F2D9
:108490000000B0F88600B0F5FA7F09DCFFE740F68F
:1084A000B820C2F20000B0F88600632809DCFFE7BC
:1084B00040F6B820C2F200004FF49671A0F8861082
:1084C000FFE740F6B820C2F20000B0F88800C828E4
:1084D00009DCFFE740F6B820C2F20000B0F88800DF
:1084E000002808DCFFE740F6B820C2F20000502167
:1084F000A0F88810FFE740F6B820C2F20000B0F8FC
:108500008A00B0F57A7F01DAFFE707E040F6B8208D
:10851000C2F200001E21A0F88A10FFE740F6B82042
:10852000C2F20000B0F88C00B0F5FA7F09DCFFE77A
:1085300040F6B820C2F20000B0F88C00632808DCD6
:10854000FFE740F6B820C2F200006421A0F88C10CA
:10855000FFE740F6B820C2F20000B0F88E00C8284D
:1085600009DCFFE740F6B820C2F20000B0F88E0048
:10857000002808DCFFE740F6B820C2F20000142112
:10858000A0F88E10FFE740F6B820C2F20000B0F865
:108590009000B0F57A7F01DAFFE707E040F6B820F7
:1085A000C2F200003C21A0F89010FFE740F6B8208E
:1085B000C2F20000B0F89200B0F5FA7F09DCFFE7E4
:1085C00040F6B820C2F20000B0F89200632808DC40
:1085D000FFE740F6B820C2F200006421A0F8921034
:1085E000FFE740F6B820C2F20000B0F89400C828B7
:1085F00009DCFFE740F6B820C2F20000B0F89400B2
:10860000002808DCFFE740F6B820C2F20000142181
:10861000A0F89410FFE740F6B820C2F20000B0F8CE
:108620009600B0F57A7F01DAFFE707E040F6B82060
:10863000C2F200003C21A0F89610FFE740F6B820F7
:10864000C2F20000B0F89800B0F5FA7F09DCFFE74D
:1086500040F6B820C2F20000B0F89800632808DCA9
:10866000FFE740F6B820C2F200006421A0F898109D
:10867000FFE740F6B820C2F20000B0F89A00C82820
:1086800009DCFFE740F6B820C2F20000B0F89A001B
:10869000002808DCFFE740F6B820C2F200001421F1
:1086A000A0F89A10FFE740F6B820C2F20000B0F838
:1086B0009C00B0F57A7F01DAFFE707E040F6B820CA
:1086C000C2F200003C21A0F89C10FFE740F6B82061
:1086D000C2F20000B0F89E00B0F5FA7F09DCFFE7B7
:1086E00040F6B820C2F20000B0F89E00632808DC13
:1086F000FFE740F6B820C2F200006421A0F89E1007
:10870000FFE740F6B820C2F20000B0F8A000C82889
:1087100009DCFFE740F6B820C2F20000B0F8A00084
:10872000002808DCFFE740F6B820C2F20000142160
:10873000A0F8A010FFE740F6B820C2F20000B0F8A1
:10874000A200B0F57A7F01DAFFE707E040F6B82033
:10875000C2F200003C21A0F8A210FFE740F6B820CA
:10876000C2F20000B0F8A400B0F5FA7F09DCFFE720
:1087700040F6B820C2F20000B0F8A400632808DC7C
:10878000FFE740F6B820C2F200006421A0F8A41070
:10879000FFE740F6B820C2F20000B0F8A600C828F3
:1087A00009DCFFE740F6B820C2F20000B0F8A600EE
:1087B000002808DCFFE740F6B820C2F200001421D0
:1087C000A0F8A610FFE740F6B820C2F20000B0F80B
:1087D000A800B0F57A7F01DAFFE707E040F6B8209D
:1087E000C2F200003C21A0F8A810FFE740F6B82034
:1087F000C2F20000B0F8AA00B0F5FA7F09DCFFE78A
:1088000040F6B820C2F20000B0F8AA00632808DCE5
:10881000FFE740F6B820C2F200006421A0F8AA10D9
:10882000FFE740F6B820C2F20000B0F8AC00C8285C
:1088300009DCFFE740F6B820C2F20000B0F8AC0057
:10884000002808DCFFE740F6B820C2F2000014213F
:10885000A0F8AC10FFE740F6B820C2F20000B0F874
:10886000AE00B0F57A7F01DAFFE707E040F6B82006
:10887000C2F200003C21A0F8AE10FFE740F6B8209D
:10888000C2F20000B0F8B000B0F5FA7F09DCFFE7F3
:1088900040F6B820C2F20000B0F8B000632808DC4F
:1088A000FFE740F6B820C2F200006421A0F8B01043
:1088B000FFE740F6B820C2F20000B0F8B200C828C6
:1088C00009DCFFE740F6B820C2F20000B0F8B200C1
:1088D000002808DCFFE740F6B820C2F200001421AF
:1088E000A0F8B210FFE740F6B820C2F20000B0F8DE
:1088F000B400B0F57A7F01DAFFE707E040F6B82070
:10890000C2F200003C21A0F8B410FFE740F6B82006
:10891000C2F20000B0F8B600B0F5FA7F09DCFFE75C
:1089200040F6B820C2F20000B0F8B600632808DCB8
:10893000FFE740F6B820C2F200006421A0F8B610AC
:10894000FFE740F6B820C2F20000B0F8B800C8282F
:1089500009DCFFE740F6B820C2F20000B0F8B8002A
:10896000002808DCFFE740F6B820C2F2000014211E
:10897000A0F8B810FFE740F6B820C2F20000B0F847
:10898000BA00B0F57A7F01DAFFE707E040F6B820D9
:10899000C2F200003C21A0F8BA10FFE740F6B82070
:1089A000C2F20000B0F8BC00B0F5FA7F09DCFFE7C6
:1089B00040F6B820C2F20000B0F8BC00632808DC22
:1089C000FFE740F6B820C2F200006421A0F8BC1016
:1089D000FFE740F6B820C2F20000B0F8BE00C82899
:1089E00009DCFFE740F6B820C2F20000B0F8BE0094
:1089F000002808DCFFE740F6B820C2F2000014218E
:108A0000A0F8BE10FFE740F6B820C2F20000B0F8B0
:108A1000C000B0F57A7F01DAFFE707E040F6B82042
:108A2000C2F200003C21A0F8C010FFE740F6B820D9
:108A3000C2F20000B0F8C200B0F5FA7F09DCFFE72F
:108A400040F6B820C2F20000B0F8C200632808DC8B
:108A5000FFE740F6B820C2F200006421A0F8C2107F
:108A6000FFE740F6B820C2F20000B0F8C400C82802
:108A700009DCFFE740F6B820C2F20000B0F8C400FD
:108A8000002808DCFFE740F6B820C2F200001421FD
:108A9000A0F8C410FFE740F6B820C2F20000B0F81A
:108AA000C600B0F57A7F01DAFFE707E040F6B820AC
:108AB000C2F200003C21A0F8C610FFE740F6B82043
:108AC000C2F20000B0F8C800B0F5FA7F09DCFFE799
:108AD00040F6B820C2F20000B0F8C800632808DCF5
:108AE000FFE740F6B820C2F200006421A0F8C810E9
:108AF000FFE740F6B820C2F20000B0F8CA00C8286C
:108B000009DCFFE740F6B820C2F20000B0F8CA0066
:108B1000002808DCFFE740F6B820C2F2000014216C
:108B2000A0F8CA10FFE740F6B820C2F20000B0F883
:108B3000CC00B0F57A7F01DAFFE707E040F6B82015
:108B4000C2F200003C21A0F8CC10FFE740F6B820AC
:108B5000C2F20000B0F8CE00B0F5FA7F09DCFFE702
:108B600040F6B820C2F20000B0F8CE00632808DC5E
:108B7000FFE740F6B820C2F200006421A0F8CE1052
:108B8000FFE740F6B820C2F20000B0F8D000C828D5
:108B900009DCFFE740F6B820C2F20000B0F8D000D0
:108BA000002808DCFFE740F6B820C2F200001421DC
:108BB000A0F8D010FFE740F6B820C2F20000B0F8ED
:108BC000D200B0F57A7F01DAFFE707E040F6B8207F
:108BD000C2F200003C21A0F8D210FFE740F6B82016
:108BE000C2F20000B0F8D400B0F5FA7F09DCFFE76C
:108BF00040F6B820C2F20000B0F8D400632808DCC8
:108C0000FFE740F6B820C2F200006421A0F8D410BB
:108C1000FFE740F6B820C2F20000B0F8D600C8283E
:108C200009DCFFE740F6B820C2F20000B0F8D60039
:108C3000002808DCFFE740F6B820C2F2000014214B
:108C4000A0F8D610FFE740F6B820C2F20000B0F856
:108C5000D800B0F57A7F01DAFFE707E040F6B820E8
:108C6000C2F200003C21A0F8D810FFE740F6B8207F
:108C7000C2F20000B0F8DA00B0F5FA7F09DCFFE7D5
:108C800040F6B820C2F20000B0F8DA00632808DC31
:108C9000FFE740F6B820C2F200006421A0F8DA1025
:108CA000FFE740F6B820C2F20000B0F8DC00C828A8
:108CB00009DCFFE740F6B820C2F20000B0F8DC00A3
:108CC000002808DCFFE740F6B820C2F200001421BB
:108CD000A0F8DC10FFE740F6B820C2F20000B0F8C0
:108CE000DE00B0F57A7F01DAFFE707E040F6B82052
:108CF000C2F200003C21A0F8DE10FFE740F6B820E9
:108D0000C2F20000B0F8E000B0F5FA7F09DCFFE73E
:108D100040F6B820C2F20000B0F8E000632808DC9A
:108D2000FFE740F6B820C2F200006421A0F8E0108E
:108D3000FFE740F6B820C2F20000B0F8E200C82811
:108D400009DCFFE740F6B820C2F20000B0F8E2000C
:108D5000002808DCFFE740F6B820C2F2000014212A
:108D6000A0F8E210FFE740F6B820C2F20000B0F829
:108D7000E400B0F57A7F01DAFFE707E040F6B820BB
:108D8000C2F200003C21A0F8E410FFE740F6B82052
:108D9000C2F20000B0F8E600B0F5FA7F09DCFFE7A8
:108DA00040F6B820C2F20000B0F8E600632808DC04
:108DB000FFE740F6B820C2F200006421A0F8E610F8
:108DC000FFE740F6B820C2F20000B0F8E800C8287B
:108DD00009DCFFE740F6B820C2F20000B0F8E80076
:108DE000002808DCFFE740F6B820C2F2000014219A
:108DF000A0F8E810FFE740F6B820C2F20000B0F893
:108E0000EA00B0F57A7F01DAFFE707E040F6B82024
:108E1000C2F200003C21A0F8EA10FFE740F6B820BB
:108E2000C2F20000B0F8EC00B0F5FA7F09DCFFE711
:108E300040F6B820C2F20000B0F8EC00632808DC6D
:108E4000FFE740F6B820C2F200006421A0F8EC1061
:108E5000FFE740F6B820C2F20000B0F8EE00C828E4
:108E600009DCFFE740F6B820C2F20000B0F8EE00DF
:108E7000002808DCFFE740F6B820C2F20000142109
:108E8000A0F8EE10FFE740F6B820C2F20000B0F8FC
:108E9000F000B0F57A7F01DAFFE707E040F6B8208E
:108EA000C2F200003C21A0F8F010FFE740F6B82025
:108EB000C2F20000B0F8F200B0F5FA7F09DCFFE77B
:108EC00040F6B820C2F20000B0F8F200632808DCD7
:108ED000FFE740F6B820C2F200006421A0F8F210CB
:108EE000FFE740F6B820C2F20000B0F8F400C8284E
:108EF00009DCFFE740F6B820C2F20000B0F8F40049
:108F0000002808DCFFE740F6B820C2F20000142178
:108F1000A0F8F410FFE740F6B820C2F20000B0F865
:108F2000F600B0F57A7F01DAFFE707E040F6B820F7
:108F3000C2F200003C21A0F8F610FFE740F6B8208E
:108F4000C2F20000B0F8F800B0F5FA7F09DCFFE7E4
:108F500040F6B820C2F20000B0F8F800632808DC40
:108F6000FFE740F6B820C2F200006421A0F8F81034
:108F7000FFE740F6B820C2F20000B0F8FA00C828B7
:108F800009DCFFE740F6B820C2F20000B0F8FA00B2
:108F9000002808DCFFE740F6B820C2F200001421E8
:108FA000A0F8FA10FFE740F6B820C2F20000B0F8CF
:108FB000FC00B0F57A7F01DAFFE707E040F6B82061
:108FC000C2F200003C21A0F8FC10FFE740F6B820F8
:108FD000C2F20000B0F8FE00B0F5FA7F09DCFFE74E
:108FE00040F6B820C2F20000B0F8FE00632808DCAA
:108FF000FFE740F6B820C2F200006421A0F8FE109E
:10900000FFE740F6B820C2F20000B0F80001C8281F
:1090100009DCFFE740F6B820C2F20000B0F800011A
:10902000002808DCFFE740F6B820C2F20000142157
:10903000A0F80011FFE740F6B820C2F20000B0F837
:109040000201B0F57A7F01DAFFE707E040F6B820C9
:10905000C2F200003C21A0F80211FFE740F6B82060
:10906000C2F20000B0F80401B0F5FA7F09DCFFE7B6
:1090700040F6B820C2F20000B0F80401632808DC12
:10908000FFE740F6B820C2F200006421A0F8041106
:10909000FFE740F6B820C2F20000B0F80601C82889
:1090A00009DCFFE740F6B820C2F20000B0F8060184
:1090B000002808DCFFE740F6B820C2F200001421C7
:1090C000A0F80611FFE740F6B820C2F20000B0F8A1
:1090D0000801B0F57A7F01DAFFE707E040F6B82033
:1090E000C2F200003C21A0F80811FFE740F6B820CA
:1090F000C2F20000B0F80A01B0F5FA7F09DCFFE720
:1091000040F6B820C2F20000B0F80A01632808DC7B
:10911000FFE740F6B820C2F200006421A0F80A116F
:10912000FFE740F6B820C2F20000B0F80C01C828F2
:1091300009DCFFE740F6B820C2F20000B0F80C01ED
:10914000002808DCFFE740F6B820C2F20000142136
:10915000A0F80C11FFE740F6B820C2F20000B0F80A
:109160000E01B0F57A7F01DAFFE707E040F6B8209C
:10917000C2F200003C21A0F80E11FFE740F6B82033
:10918000C2F20000B0F81001B0F5FA7F09DCFFE789
:1091900040F6B820C2F20000B0F81001632808DCE5
:1091A000FFE740F6B820C2F200006421A0F81011D9
:1091B000FFE740F6B820C2F20000B0F81201C8285C
:1091C00009DCFFE740F6B820C2F20000B0F8120157
:1091D000002808DCFFE740F6B820C2F200001421A6
:1091E000A0F81211FFE740F6B820C2F20000B0F874
:1091F0001401B0F57A7F01DAFFE707E040F6B82006
:10920000C2F200003C21A0F81411FFE740F6B8209C
:10921000C2F20000B0F81601B0F5FA7F09DCFFE7F2
:1092200040F6B820C2F20000B0F81601632808DC4E
:10923000FFE740F6B820C2F200006421A0F8161142
:10924000FFE740F6B820C2F20000B0F81801C828C5
:1092500009DCFFE740F6B820C2F20000B0F81801C0
:10926000002808DCFFE740F6B820C2F20000142115
:10927000A0F81811FFE740F6B820C2F20000B0F8DD
:109280001A01B0F57A7F01DAFFE707E040F6B8206F
:10929000C2F200003C21A0F81A11FFE740F6B82006
:1092A000C2F20000B0F81C01B0F5FA7F09DCFFE75C
:1092B00040F6B820C2F20000B0F81C01632808DCB8
:1092C000FFE740F6B820C2F200006421A0F81C11AC
:1092D000FFE740F6B820C2F20000B0F81E01C8282F
:1092E00009DCFFE740F6B820C2F20000B0F81E012A
:1092F000002808DCFFE740F6B820C2F20000142185
:10930000A0F81E11FFE740F6B820C2F20000B0F846
:109310002001B0F57A7F01DAFFE707E040F6B820D8
:10932000C2F200003C21A0F82011FFE740F6B8206F
:10933000C2F20000018A40F2AA12C2F200021180B9
:10934000817D40F2AC12C2F200021180017E40F237
:10935000AE12C2F200021180018D40F2B012C2F2D0
:1093600000021180B0F86C1040F2B212C2F200029A
:10937000118090F8301040F2B412C2F20002117065
:1093800090F8311040F2B512C2F20002117090F85C
:10939000321040F2B612C2F20002117090F833108F
:1093A00040F2B712C2F20002117090F8341040F28D
:1093B000B812C2F20002117090F8351040F2B912E2
:1093C000C2F20002117090F8361040F2BA12C2F2E6
:1093D0000002117090F8371040F2BB12C2F2000286
:1093E000117090F8381040F2BC12C2F200021170F5
:1093F000B0F8741040F2BE12C2F200021180B0F850
:10940000761040F2C012C2F200021180B0F878105B
:1094100040F2C212C2F200021180B0F87A1040F29B
:10942000C412C2F200021180B0F87C1040F2C612E1
:10943000C2F200021180B0F87E1040F2C812C2F2EF
:1094400000021180B0F8801040F2CA12C2F200028D
:109450001180B0F8821040F2CC12C2F200021180EA
:10946000B0F8841040F2CE12C2F200021180B0F8BF
:10947000861040F2D012C2F200021180B0F88810BB
:1094800040F2D212C2F200021180B0F88A1040F20B
:10949000D412C2F200021180B0F88C1040F2D61241
:1094A000C2F200021180B0F88E1040F2D812C2F25F
:1094B00000021180B0F8901040F2DA12C2F20002FD
:1094C0001180B0F8921040F2DC12C2F2000211805A
:1094D000B0F8941040F2DE12C2F200021180B0F82F
:1094E000961040F2E012C2F200021180B0F898101B
:1094F00040F2E212C2F200021180B0F89A1040F27B
:10950000E412C2F200021180B0F89C1040F2E612A0
:10951000C2F200021180B0F89E1040F2E812C2F2CE
:1095200000021180B0F8A01040F2EA12C2F200026C
:109530001180B0F8A21040F2EC12C2F200021180C9
:10954000B0F8A41040F2EE12C2F200021180B0F89E
:10955000A61040F2F012C2F200021180B0F8A8107A
:1095600040F2F212C2F200021180B0F8AA1040F2EA
:10957000F412C2F200021180B0F8AC1040F2F61200
:10958000C2F200021180B0F8AE1040F2F812C2F23E
:1095900000021180B0F8B01040F2FA12C2F20002DC
:1095A0001180B0F8B21040F2FC12C2F20002118039
:1095B000B0F8B41040F2FE12C2F200021180B0F80E
:1095C000B61040F20022C2F200021180B0F8B810CA
:1095D00040F20222C2F200021180B0F8BA1040F24A
:1095E0000422C2F200021180B0F8BC1040F2062240
:1095F000C2F200021180B0F8BE1040F20822C2F29E
:1096000000021180B0F8C01040F20A22C2F200023B
:109610001180B0F8C21040F20C22C2F20002118098
:10962000B0F8C41040F20E22C2F200021180B0F86D
:10963000C61040F21022C2F200021180B0F8C81029
:1096400040F21222C2F200021180B0F8CA1040F2B9
:109650001422C2F200021180B0F8CC1040F216229F
:10966000C2F200021180B0F8CE1040F21822C2F20D
:1096700000021180B0F8D01040F21A22C2F20002AB
:109680001180B0F8D21040F21C22C2F20002118008
:10969000B0F8D41040F21E22C2F200021180B0F8DD
:1096A000D61040F22022C2F200021180B0F8D81089
:1096B00040F22222C2F200021180B0F8DA1040F229
:1096C0002422C2F200021180B0F8DC1040F22622FF
:1096D000C2F200021180B0F8DE1040F22822C2F27D
:1096E00000021180B0F8E01040F22A22C2F200021B
:1096F0001180B0F8E21040F22C22C2F20002118078
:10970000B0F8E41040F22E22C2F200021180B0F84C
:10971000E61040F23022C2F200021180B0F8E810E8
:1097200040F23222C2F200021180B0F8EA1040F298
:109730003422C2F200021180B0F8EC1040F236225E
:10974000C2F200021180B0F8EE1040F23822C2F2EC
:1097500000021180B0F8F01040F23A22C2F200028A
:109760001180B0F8F21040F23C22C2F200021180E7
:10977000B0F8F41040F23E22C2F200021180B0F8BC
:10978000F61040F24022C2F200021180B0F8F81048
:1097900040F24222C2F200021180B0F8FA1040F208
:1097A0004422C2F200021180B0F8FC1040F24622BE
:1097B000C2F200021180B0F8FE1040F24822C2F25C
:1097C00000021180B0F8001140F24A22C2F20002F9
:1097D0001180B0F8021140F24C22C2F20002118056
:1097E000B0F8041140F24E22C2F200021180B0F82B
:1097F000061140F25022C2F200021180B0F80811A6
:1098000040F25222C2F200021180B0F80A1140F276
:109810005422C2F200021180B0F80C1140F256221C
:10982000C2F200021180B0F80E1140F25822C2F2CA
:1098300000021180B0F8101140F25A22C2F2000268
:109840001180B0F8121140F25C22C2F200021180C5
:10985000B0F8141140F25E22C2F200021180B0F89A
:10986000161140F26022C2F200021180B0F8181105
:1098700040F26222C2F200021180B0F81A1140F2E6
:109880006422C2F200021180B0F81C1140F266227C
:10989000C2F200021180B0F81E1140F26822C2F23A
:1098A00000021180B0F8201140F26A22C2F20002D8
:1098B000118040F26F21C2F2000101220A70027091
:1098C00007E040F2A810C2F200000121017002F08E
:1098D0002EB802F02CB840F2AA10C2F200000088A4
:1098E00040F6B821C2F20001098A884240F0D185D1
:1098F000FFE740F2AC10C2F20000008840F6B82149
:10990000C2F20001897D884240F0C385FFE740F242
:10991000AE10C2F20000008840F6B821C2F2000189
:10992000097E884240F0B585FFE740F2B010C2F2F0
:109930000000008840F6B821C2F20001B1F92810F9
:10994000884240F0A685FFE740F2B210C2F2000064
:10995000008840F6B821C2F20001B1F86C108842CC
:1099600040F09785FFE740F2B410C2F200000078A3
:1099700040F6B821C2F2000191F83010884240F060
:109980008885FFE740F2B510C2F20000007840F68B
:10999000B821C2F2000191F83110884240F0798577
:1099A000FFE740F2B610C2F20000007840F6B8219E
:1099B000C2F2000191F83210884240F06A85FFE758
:1099C00040F2B710C2F20000007840F6B821C2F2AF
:1099D000000191F83310884240F05B85FFE740F2C8
:1099E000B810C2F20000007840F6B821C2F20001BF
:1099F00091F83410884240F04C85FFE740F2B910EE
:109A0000C2F20000007840F6B821C2F2000191F8DD
:109A10003510884240F03D85FFE740F2BA10C2F2AF
:109A20000000007840F6B821C2F2000191F836102B
:109A3000884240F02E85FFE740F2BB10C2F20000E2
:109A4000007840F6B821C2F2000191F83710884240
:109A500040F01F85FFE740F2BC10C2F20000007822
:109A600040F6B821C2F2000191F83810884240F067
:109A70001085FFE740F2BE10C2F20000008840F6F9
:109A8000B821C2F20001B1F87410884240F001859B
:109A9000FFE740F2C010C2F20000008840F6B82193
:109AA000C2F20001B1F87610884240F0F284FFE77C
:109AB00040F2C210C2F20000008840F6B821C2F2A3
:109AC0000001B1F87810884240F0E384FFE740F2EB
:109AD000C410C2F20000008840F6B821C2F20001B2
