:020000040800F2
:10400000A818002085410008A17900089D790008C2
:104010009F790008234A00081D8D00080000000059
:10402000000000000000000000000000B18800084F
:10403000254A000800000000297D0008B588000816
:104040009F4100089F4100089F4100089F410008D0
:104050009F4100089F4100089F4100089F410008C0
:104060009F4100089F4100089F4100089F410008B0
:104070009F4100089F4100089F4100089F410008A0
:104080009F4100089F4100089F4100089F41000890
:104090009F4100089F4100089F4100089F41000880
:1040A0009F4100089F4100089F4100089F41000870
:1040B0009F410008758C00089F4100089F4100083F
:1040C0009F4100089F4100089F4100089F41000850
:1040D0009F410008798C00089F410008BD8C0008B2
:1040E000294A00089F4100089F4100080000000085
:1040F00000000000000000000000000000000000C0
:10410000000000009F4100089F41000800000000DF
:104110009F4100089F4100080000000000000000CF
:104120009F4100089F4100089F4100089F410008EF
:10413000000000000000000000000000000000007F
:104140000000000000000000000000009F41000887
:1041500000000000000000009F4100089F4100088F
:104160000000000000000000000000009F41000867
:10417000DFF80CD000F0B6F9004800470DB1000898
:10418000A81800200648804706480047FEE7FEE7DB
:10419000FEE7FEE7FEE7FEE7FEE7FEE7FEE7FEE7F7
:1041A000018C00087141000830B50B460146002023
:1041B0002022012409E021FA02F59D4205D303FAE9
:1041C00002F5491B04FA02F52844151EA2F101026A
:1041D000F1DC30BD2DE9FE4F804681EA0300C00FBF
:1041E0000C46009021F0004123F00045B8EB02009E
:1041F000A94105D24046214690461C460B46024640
:1042000023F00040104347D0270DC7F30A00C3F343
:104210000A510290401A019040286BDAC3F3130050
:1042200040F4801B0098924620B10023D2EB030A91
:1042300063EB0B0B01985946C0F14002504600F069
:1042400063F906460D4650465946019A00F07BF93F
:1042500010EB08006141002487EA115284EAE773F9
:104260001A4340D0009A62B3019A012A4FEA0752DA
:1042700015DC001B61EB02014FF0004202EA07521D
:10428000CDE90042001C41F5801132462B4600F07A
:104290007BF903B0BDE8F08F40462146F9E7001BEB
:1042A00061EB0201001C41F5801300185B412018EE
:1042B000A2F5001747EB030140EAD570B6196D412E
:1042C00011E06D084FEA360645EAC0754FEA07521D
:1042D000001B61EB0201001C41F5801149084FEA07
:1042E00030000019514132462B4603B0BDE8F04F73
:1042F00000F03BB90098012240000023D0EB0202FD
:1043000063EBE073009821464FEAE074B8EB0000DD
:1043100061EB0401E9E783F000435BE781F00041D2
:1043200058E72DE9FE4F81EA030404F0004421F030
:10433000004100944FF0000B23F0004350EA0104C9
:104340005ED052EA03045BD0C3F30A54C1F30A55AA
:104350002C44A4F2F3340194A0FB0254C1F31301E2
:1043600041F48011C3F3130343F4801301FB0244AF
:1043700000FB034E840A970A44EA815447EA8357B4
:10438000A4FB076802958D0A05FB07854FEA932C6D
:1043900004FB0C542705029D4FEA065847EA1637DE
:1043A000B5EB08056EEB070C870E920E47EA8117F6
:1043B00042EA8312A7FB0201B6EB0B0164EB000497
:1043C0002B0D43EA0C335E1844EB1C50DA46514681
:1043D000E7FB0201C5F313044FEA0B3343EA14531E
:1043E0004FEA0432019C43EA0603A4F10C04029450
:1043F000009CCDE900B400F0C7F803B0BDE8F08F31
:1044000000200146F9E72DE9F04D81EA030404F0AC
:10441000004B21F0004514464FF0000A23F0004104
:1044200050EA050220D054EA01021DD0C5F30A5714
:104430000246C5F31303C1F31300C1F30A5640F457
:10444000801543F48013A7EB0608101BD64608F22C
:10445000FD3873EB050002D308F1010801E0921862
:104460005B41B8F1000F03DA00200146BDE8F08D92
:1044700000204FF48011064684460EE0171B73EBB4
:10448000050705D3121B63EB050306434CEA010C39
:1044900049084FEA300092185B4150EA0107EDD11C
:1044A00052EA030012D082EA040083EA05010843BD
:1044B00005D0101BAB4106D20122002306E00022EA
:1044C0004FF0004302E06FF0010253101AEB0600B8
:1044D0004CEB085110EB0A0041EB0B01BDE8F04D2D
:1044E00000F043B8064C074D06E0E06840F00103D9
:1044F00094E8070098471034AC42F6D3FFF73CFE2F
:1045000010CC000830CC0008202A04DB203A00FA46
:1045100002F1002070479140C2F1200320FA03F31A
:10452000194390407047202A04DB203A21FA02F018
:104530000021704721FA02F3D040C2F120029140DD
:10454000084319467047202A06DBCB17203A41FA68
:1045500002F043EAE07306E041FA02F3D040C2F110
:104560002002914008431946704710B5141E73F19C
:10457000000408DA401C41F1000192185B411A4323
:1045800001D120F0010010BD2DE9F04D92469B466F
:1045900011B1B1FA81F202E0B0FA80F22032904615
:1045A000FFF7B2FF04460F4640EA0A0041EA0B015A
:1045B00053465A46084313D0114653EA010019D016
:1045C000C8F140025046FFF7AEFF05460E46504682
:1045D00059464246FFF798FF084305D0012004E002
:1045E00020463946BDE8F08D0020054346EAE076D6
:1045F0002C4337430A986305E40AA0EB0800002225
:10460000FD0A44EA47540A3002D500200146E9E792
:10461000010510196941DDE9084500196941BDE846
:10462000F04DA2E740EA01039B0703D009E008C967
:10463000121F08C0042AFAD203E011F8013B00F867
:10464000013B521EF9D27047D2B201E000F8012BB3
:10465000491EFBD270470022F6E710B513460A4602
:1046600004461946FFF7F0FF204610BDF0B480EA7B
:104670000102D40F4200B2EB410F02D202460846BB
:1046800011464A0042D0C30DDDB2C1F3C752AD1A84
:10469000202D35DAC1F3160141F4000204B1524273
:1046A000C5F1200602FA06F12A411044B3EBD05FAF
:1046B00023D0C4B1012DA0EBC35009DCF0BC4FF0F6
:1046C000004202EAC352DBB200F5000000F07BB901
:1046D000400000F1807000EBC350A0F1807040EA10
:1046E000D170490009E0490841EAC071A0EBC3500C
:1046F00000F50000400800EBC350F0BC00F05AB9D0
:104700006142012202EB4101001BF6E7F0BC704759
:1047100081F00041AAE780F00040A7E780EA0102AB
:1047200010B502F00043400022D04A001FD0010E15
:1047300001EB1261C0F35600C2F3560240F40000D0
:1047400042F40002A0FB022000047F39140400D0D0
:10475000401C50EA124001D44000491EC2B20C066F
:1047600004EBD010401C4008802A02D003E0002057
:1047700010BD20F00100002900DA0020184310BD10
:1047800030B480EA010202F0004530F0004221F02E
:10479000004013D090B1C30DD40DC2F31601C0F385
:1047A0001600E41A41F4000140F400027D34914205
:1047B00001D3641C00E04900002C02DA30BC002068
:1047C00070474FF400000023914201D3891A03433C
:1047D00040084FEA4101F7D151B1914202D14FF067
:1047E000004105E002D24FF0010101E06FF001014C
:1047F00003EBC450284430BC00F0DCB8002801DBD7
:10480000C0F10040002901DBC1F10041814201D823
:104810000120704700207047002801DBC0F10040F4
:10482000002901DBC1F10041814201D20120704722
:1048300000207047002801DBC0F10040002901DBA7
:10484000C1F10041814201D301207047002070472F
:10485000002801DBC0F10040002901DBC1F100416B
:10486000814201D90120704700207047C10F80EAC2
:10487000E0700844CA079623002100F0A4B89623EC
:104880000022114600F09FB80EB5C10F80EAE0701B
:104890000844CA07002140F233438DE80E000A465F
:1048A0000B46FFF771FE03B000BD0EB540F2334179
:1048B00002910021CDE900110A460B46FFF764FE84
:1048C00003B000BD00F0004220F00040C10DC0F375
:1048D000160040F400007F2901DA00207047962975
:1048E00003DCC1F19601C84001E096398840002AF6
:1048F000F4D04042704720F00040C10DC0F31600D4
:1049000040F400007F2901DA00207047962903DC7B
:10491000C1F19601C840704796398840704770B51C
:10492000C1F30A5201F000450024C1F3130140F223
:10493000FF3341F480119A4201DA002070BD40F249
:1049400033439A42A2F2334203DC5242FFF7EBFDBB
:1049500000E090402C43F1D0404270BDC1F30A52B8
:1049600010B5C1F3130140F2FF3341F480119A42B4
:1049700001DA002010BD40F233439A42A2F23342E2
:1049800003DC5242FFF7CFFD10BD904010BD00F098
:10499000004230F000400AD0C10D01F56071C0F353
:1049A000160042EA0151C208400711437047002037
:1049B000014670470029A8BF7047401C490008BF46
:1049C00020F00100704710B4B0FA80FC00FA0CF03F
:1049D00050EA010404BF10BC704749B1CCF1200477
:1049E00021FA04F411FA0CF118BF01212143084304
:1049F000A3EB0C01CB1D4FEA00614FEA102042BF30
:104A0000002010BC704700EBC35010440029A4BF25
:104A100010BC7047401C490008BF20F0010010BCCA
:104A20007047FEE77047000070B5AF480168890421
:104A300000D470BD4FF40051DFF8F452016095F8D6
:104A4000300000283AD00128F3D195F83D00002825
:104A5000EFD195F83C00002854D00128E9D1B7499E
:104A600095F83B008A78824207D0B24A002313624D
:104A7000D361536113618870D36095F83F000028BB
:104A8000D7D007F0B1FCB5F872100C1895F8690092
:104A90006C60032800F2D880DFE800F00279848F90
:104AA00002F0EBFF00F2D080DFE810F00500FD001F
:104AB00000010301CB00B5F88C0019E195F82F0037
:104AC00003284FD0022830D00028B2D195F82D000D
:104AD000012847D00028ACD195F83F000028A8D085
:104AE000964C607808B90120607007F07DFCB5F83D
:104AF0007210E28D0144288A6960824240F0818010
:104B000010468AE08B4800240462C4614461046159
:104B1000C46003F000F8B9494C61B5F8721001EBBC
:104B2000900068608448046070BD95F82D000128ED
:104B300018D000287FF47DAF95F83F0000283FF49F
:104B400078AF7E4C607808B90120607007F04CFCAB
:104B5000B5F872100E18298AE08D6E60884237D140
:104B6000014641E002F0D7FF744900224A70A34990
:104B70004A61B5F8721001EB900068606E480260FF
:104B80006C480262C26142610261C26070BD02F0A3
:104B900074FF59D8DFE800F0039093965500B5F8FC
:104BA000AA00A5E002F069FF4ED8DFE800F0038E0E
:104BB00091944A00B5F8C8009AE002F05EFF43D82D
:104BC000DFE800F0038C8F943F00B5F8E6008FE03B
:104BD000401A1E2807DB574802F0A4FF584807F088
:104BE000E3FF6E68298AE185688C084400F11E02A3
:104BF000964201D900253CE050398E4227D2514DD2
:104C000037E0121A1E2A07DB4A4802F08BFF4C4895
:104C100007F0CAFF6968288AE085B5F928208C1A50
:104C2000A0F150018C4201D2464D39E095F839107F
:104C300019B301292FD1FFF722FE0546A4F1320056
:104C40001FE00020A5F83B006C4844695DE0FFF7D9
:104C50000DFE0446B5F92800301AFFF710FE014694
:104C6000204602F0FBFF002104460025FFF7F0FD7F
:104C700000B92C46614844614DE0FFF700FE05464F
:104C80002046FFF7FCFD0146284602F0E7FF0446F8
:104C90005A48446101E05948446902F0AEFFD0BB74
:104CA00056482C4636E0B5F8920021E0B5F8980059
:104CB0001EE0B5F89E001BE0B5F8B00018E0B5F8AE
:104CC000B60015E0B5F8BC0012E0B5F8CE000FE074
:104CD000B5F8D4000CE0B5F8DA0009E0B5F8EC005E
:104CE00006E0B5F8F20003E014040140B5F8F8005E
:104CF000FFF7C5FD05462046FFF7C1FD01462846E2
:104D000002F0ACFF04463D48446102F076FF10B962
:104D10003A48002445612046FFF7EDFD064908604A
:104D20004FF08040016841F00101016070BD00BF9B
:104D3000380900200001002034000040600E0020EF
:104D4000FCCB0008005F6A4770B56A49144A8B695A
:104D500010681C4698420FD2EFF3108572B68B692B
:104D6000A34205D10E69886101360E61BFF35F8FE2
:104D700005B962B6A34211D051E8063FA34208D15B
:104D8000BFF35F8F41E806042CB9BFF35F8F0124A6
:104D900002E0BFF32F8F0024002CD9D070BD00BFDC
:104DA000041000E07CB504465248007820B1664803
:104DB00090F85F00400600D47CBDFFF7C5FF0546B4
:104DC0000020EFF305862246CDE900000B4800F1F4
:104DD00028016846FFF726FC0948002E294608BF2F
:104DE0004FF47E40DDE9002364F3124000F140708F
:104DF00002B0BDE8704000F005B800BF600F0020B1
:104E000000FE08002DE9FC4F4FF0005401924FF0D6
:104E10000708009304EA92024FF0805404EAD10498
:104E2000204310434FF0804202EA530202433148CC
:104E300000F10C04304BB8F1000F58D050E8015F7E
:104E40006E1C40E80167002FF8D105F03F0905F41A
:104E5000707603EB091A42EA863B554655F80CEF8B
:104E60005FEA4E161AD40EF00046774655E800EF7A
:104E700046EA0B0646F04066BE4507D145E80067A6
:104E800037B9BFF35F8F4FF0010C03E0BFF32F8FF3
:104E90004FF0000CBCF1000FE2D002E0A8F10108D5
:104EA000C8E786F0004221F00041134B4FEA091693
:104EB00002F00044214499510099019B21F00041E6
:104EC00023F000432144234400F108040120CAE9EF
:104ED000013122F08061BFF35F8F296054E8001F29
:104EE000013144E80012002AF8D1BDE8FC8F00200F
:104EF000F4E700BF80140020001000202DE9F041ED
:104F0000DFF8448000234FF0010E4FF0000CBCF19D
:104F1000040F08BFBDE8F08120FA0CF7FF070FD09F
:104F20000F4697420CD803EBD70407F0070601376A
:104F300018F804500EFA06F6354308F80450F0E766
:104F40000CF1010C2033E2E7001400202DE9F04FB2
:104F5000D7B0DFF8089F99F805000A2800F27A8791
:104F6000DFE810F00B008A02CD005101130051055B
:104F7000F605E201C406BC00A60699F81000002858
:104F800000F07887012000F063BFE54E99F80F101C
:104F9000DFF8CC4EE34ADFF8CC7E06F1320002F0B7
:104FA000BDFD08BFA2F13E00B4F88C10B84706F171
:104FB0003400002D08BFA8F13C00B4F88E10B847AB
:104FC00006F13600002D08BFA8F13A00B4F89010A1
:104FD000B84706F13800002D08BFA8F13800B4F832
:104FE0009210B84706F13A00002D08BFA8F136002C
:104FF000B4F89410B84706F13C00002D08BFA8F1A2
:105000003400B4F89610B84706F13E00002D08BFF2
:10501000A8F13200B4F89810B84706F14000002D0E
:1050200008BFA8F13000B4F89A10B84706F1420062
:10503000002D08BFA8F12E00B4F89C10B84706F167
:105040004400002D08BFA8F12C00B4F89E10B8470A
:1050500006F14600002D08BFA8F12A00B4F8A01000
:10506000B84706F14800002D08BFA8F12800B4F8A1
:10507000A210B84706F14A00002D08BFA8F126008B
:10508000B4F8A410B84706F14C00002D08BFA8F1F1
:105090002400B4F8A610B84706F14E00002D08BF52
:1050A000A8F12200B4F8A810B847B4F88C00D4F8DE
:1050B0009210D4F89620D4F89A30D4F89E50D4F8B0
:1050C000A26009F15407A9F85200D4F88E00D4F870
:1050D000A6406FC7C9F86C4000F0B7BE904899F879
:1050E0000F209049CC30D20708BF01F15C00DFF8F7
:1050F000781DB1F86A1005F079FB00F0A6BE884E65
:1051000099F80F10DFF8584D864ADFF8587DB01D2A
:10511000904611F0010508BFA2F16A00218DB84741
:1051200006F10800002D08BFA8F16800B4F86C1063
:10513000B84706F1C800002D08BF08F1580094F8E0
:105140003010B84706F10A00002D08BFA8F166002C
:1051500094F83110B84706F10C00002D08BFA8F1F3
:10516000640094F83210B84706F10E00002D08BF15
:10517000A8F1620094F83310B84706F11000002D32
:1051800008BFA8F1600094F83410B84706F1120087
:10519000002D08BFA8F15E0094F83510B84706F15D
:1051A0001400002D08BFA8F15C0094F83610B84731
:1051B00006F11600002D08BFA8F15A0094F8371028
:1051C000B84706F11800002D08BFA8F1580094F860
:1051D0003810B847208DA9F83600B4F86C00A9F84B
:1051E000380094F8300089F80600B4F83100A9F8C6
:1051F0000700D4F83300C9F80900B4F83700A9F85B
:105200000D0000F022BE464E99F80F10DFF8504C0A
:10521000444ADFF8507C06F11A0002F07FFC08BF18
:10522000A2F15600B4F87410B84706F11C00002D26
:1052300008BFA8F15400B4F87610B84706F11E0074
:10524000002D08BFA8F15200B4F87810B84706F155
:105250002000002D08BFA8F15000B4F87A10B8471C
:1052600006F12200002D08BFA8F14E00B4F87C1012
:10527000B84706F12400002D08BFA8F14C00B4F88F
:105280007E10B84706F12600002D08BFA8F14A009D
:10529000B4F88010B84706F12800002D08BFA8F127
:1052A0004800B4F88210B84706F12A00002D08BF64
:1052B000A8F14600B4F88410B84706F12C00002D80
:1052C00008BFA8F14400B4F88610B84706F12E00D4
:1052D000002D08BFA8F14200B4F88810B84706F1C5
:1052E0003000002D08BFA8F14000B4F88A10B8477C
:1052F000B4F8740009F13C06D4F87A10D4F87E2092
:10530000D4F88230D4F88650A9F83A00D4F8760060
:105310002FC6B4F88A00A9F8500000F096BD00BF6F
:1053200000E0010870F40108514E99F80F10DFF801
:10533000304B504ADFF82C7B06F18C0002F0EEFB7C
:1053400008BF02F11C00B4F8E610B84706F18E0061
:10535000002D08BF08F11E00B4F8E810B84706F1A8
:105360009000002D08BF08F12000B4F8EA10B847FB
:1053700006F19200002D08BF08F12200B4F8EC10ED
:10538000B84706F19400002D08BF08F12400B4F8D6
:10539000EE10B84706F19600002D08BF08F1260070
:1053A000B4F8F010B84706F19800002D08BF08F1D6
:1053B0002800B4F8F210B84706F19A00002D08BF93
:1053C00008F12A00B4F8F410B84706F19C00002D4B
:1053D00008BF08F12C00B4F8F610B84706F19E009B
:1053E000002D08BF08F12E00B4F8F810B84706F1F8
:1053F000A000002D08BF08F13000B4F8FA10B8473B
:1054000006F1A200002D08BF08F13200B4F8FC102C
:10541000B84706F1A400002D08BF08F13400B4F825
:10542000FE10B84706F1A600002D08BF08F13600AF
:10543000B4F80011B84706F1A800002D08BF08F124
:105440003800B4F80211B847B4F8E600DFF8181ACB
:1054500004F1E807D4F80041C885EDCF4A638B63B7
:10546000CD630E644F648C64086300F0EEBC00BF33
:1054700000E0010870F40108DFF8E489B9F83010A1
:10548000B8F81000814240F0898298F81600B9F807
:105490003210814240F0828298F81800B9F8341036
:1054A000814240F07B82B8F92800B9F83610814279
:1054B00040F07482B8F86C00B9F83810814240F0BE
:1054C0006D8298F8300099F80610814240F06682AB
:1054D00098F8310099F80710814240F05F8298F8FF
:1054E000320099F80810814240F0588298F8330051
:1054F00099F80910814240F0518298F8340099F8E7
:105500000A10814240F04A8298F8350099F80B1051
:10551000814240F0438298F8360099F80C1081429D
:1055200040F03C8298F8370099F80D10814240F025
:10553000358298F8380099F80E10814240F02E829A
:10554000B8F87400B9F83A10814240F02782B8F8F0
:105550007600B9F83C10814240F02082B8F878001B
:10556000B9F83E10814240F01982B8F87A00B9F8D3
:105570004010814240F01282B8F87C00B9F8421025
:10558000814240F00B82B8F87E00B9F844108142A5
:1055900040F00482B8F88000B9F84610814240F02B
:1055A000FD81B8F88200B9F84810814240F0F681D8
:1055B000B8F88400B9F84A10814240F0EF81B8F899
:1055C0008600B9F84C10814240F0E881B8F88800B4
:1055D000B9F84E10814240F0E181B8F88A00B9F87C
:1055E0005010814240F0DA81B8F88C00B9F85210BE
:1055F000814240F0D381B8F88E00B9F8541081424E
:1056000040F0CC81B8F89000B9F85610814240F0D3
:10561000C581B8F89200B9F85810814240F0BE81B7
:10562000B8F89400B9F85A10814240F0B781B8F840
:105630009600B9F85C10814240F0B081B8F898004B
:10564000B9F85E10814240F0A981B8F89A00B9F823
:105650006010814240F0A281B8F89C00B9F8621055
:10566000814240F09B81B8F89E00B9F864108142F5
:1056700040F09481B8F8A000B9F86610814240F07B
:105680008D81B8F8A200B9F86810814240F0868197
:10569000B8F8A400B9F86A10814240F07F81B8F8E8
:1056A000A600B9F86C10814240F07881B8F8A800E3
:1056B000B9F86E10814240F07181B8F8AA00B9F8CB
:1056C0007010814240F06A81B8F8AC00B9F87210ED
:1056D000814240F06381B8F8AE00B9F8741081429D
:1056E00040F05C81B8F8B000B9F87610814240F023
:1056F0005581B8F8B200B9F87810814240F04E8177
:10570000B8F8B400B9F87A10814240F04781B8F88F
:10571000B600B9F87C10814240F04081DFF84807BC
:10572000B8F8B81002888A4240F03881B8F8BA1048
:1057300042888A4240F03281B8F8BC1082888A429E
:1057400040F02C81B8F8BE10C2888A4240F0268111
:10575000B8F8C01002898A4240F02081B8F8C2101F
:1057600042898A4240F01A81B8F8C41082898A427C
:1057700040F01481B8F8C610C2898A4240F00E8108
:10578000B8F8C810028A8A4240F00881B8F8CA10F6
:10579000428A8A4240F00281B8F8CC10828A8A425A
:1057A00040F0FC80B8F8CE10C28A8A4240F0F68001
:1057B000B8F8D010028B8A4240F0F080B8F8D210CE
:1057C000428B8A4240F0EA80B8F8D410828B8A4239
:1057D00040F0E480B8F8D610C28B8A4240F0DE80F8
:1057E000B8F8D810028C8A4240F0D880B8F8DA10A5
:1057F000428C8A4240F0D280B8F8DC10828C8A4217
:1058000040F0CC80B8F8DE10C28C8A4240F0C680EE
:10581000B8F8E010028D8A4240F0C080B8F8E2107B
:10582000428D8A4240F0BA80B8F8E410828D8A42F4
:1058300040F0B480B8F8E610C28D8A4240F0AE80E5
:10584000B8F8E810028E8A4240F0A880B8F8EA1052
:10585000428E8A4240F0A280B8F8EC10828E8A42D2
:1058600040F09C80B8F8EE10C28E8A4240F09680DC
:10587000B8F8F010028F8A4240F09080B8F8F21029
:10588000428F8A4240F08A80B8F8F410828F8A42B0
:1058900040F08480B8F8F610C28F8A427ED1B8F802
:1058A000F810B0F840208A4278D1B8F8FA10B0F871
:1058B00042208A4272D1B8F8FC10B0F844208A42E3
:1058C0006CD1B8F8FE10B0F846208A4266D1B8F81C
:1058D0000011B0F848208A4260D1B8F80211B0F83F
:1058E0004A208A425AD1B8F80411B0F84C208A42B2
:1058F00054D1B8F80611B0F84E208A424ED1B8F80B
:105900000811B0F850208A4248D1B8F80A11B0F80E
:1059100052208A4242D1B8F80C11B0F854208A4281
:105920003CD1B8F80E11B0F856208A4236D1B8F8FA
:105930001011B0F858208A4230D1B8F81211B0F8DE
:105940005A208A422AD1B8F81411B0F85C208A4251
:1059500024D1B8F81611B0F85E208A421ED1B8F8EA
:105960001811B0F860208A4218D1B8F81A11B0F8AE
:1059700062208A4212D1B8F81C11B0F864208A4221
:105980000CD1B8F81E11B0F866208A4206D1B8F8DA
:105990002011B0F86800884200F05C82CE48CF4900
:1059A000CF4E0160CF493446016099F80F0010F0E6
:1059B000010708BF04F5A054204604F047FFB8F8DB
:1059C0001010DFF8A0542046A847B01CC64C002F8A
:1059D00008BFA4F16E0098F81610A847301D002FDC
:1059E00008BFA4F16C0098F81810A847B8F8100088
:1059F00098F81810A9F8300098F81600A9F8341093
:105A0000A9F8320021E2B64E99F80F10DFF85044A1
:105A1000B54ADFF8507406F1500002F07FF808BF75
:105A2000A2F12000B4F8AA10B84706F15200002DE8
:105A300008BFA8F11E00B4F8AC10B84706F1540036
:105A4000002D08BFA8F11C00B4F8AE10B84706F14D
:105A50005600002D08BFA8F11A00B4F8B010B847DE
:105A600006F15800002D08BFA8F11800B4F8B210D4
:105A7000B84706F15A00002D08BFA8F11600B4F887
:105A8000B410B84706F15C00002D08BFA8F114005F
:105A9000B4F8B610B84706F15E00002D08BFA8F1B3
:105AA0001200B4F8B810B84706F16000002D08BF26
:105AB000A8F11000B4F8BA10B84706F16200002D42
:105AC00008BFA8F10E00B4F8BC10B84706F1640096
:105AD000002D08BFA8F10C00B4F8BE10B84706F1BD
:105AE0006600002D08BFA8F10A00B4F8C010B8473E
:105AF00006F16800002D08BFA8F10800B4F8C21034
:105B0000B84706F16A00002D08BFA8F10600B4F8F6
:105B1000C410B84706F16C00002D08BFA8F10400BE
:105B2000B4F8C610B847B4F8AA0004F1AC06D4F82B
:105B3000C440A9F870006FCEC9F87610C9F87A2071
:105B4000C9F87200C848036045608660C4607CE1A3
:105B5000634E99F80F10C24C634AC24F06F16E00B3
:105B600001F0DCFF08BF901EB4F8C810B84706F17A
:105B70007000002D04BF4FF27040C0F60100B4F871
:105B8000CA10B84706F17200002D08BF08F10200E4
:105B9000B4F8CC10B84706F17400002D08BF08F126
:105BA0000400B4F8CE10B84706F17600002D08BF07
:105BB00008F10600B4F8D010B84706F17800002DBF
:105BC00008BF08F10800B4F8D210B84706F17A000F
:105BD000002D08BF08F10A00B4F8D410B84706F148
:105BE0007C00002D08BF08F10C00B4F8D610B847AF
:105BF00006F17E00002D08BF08F10E00B4F8D810A1
:105C0000B84706F18000002D08BF08F11000B4F875
:105C1000DA10B84706F18200002D08BF08F1120023
:105C2000B4F8DC10B84706F18400002D08BF08F175
:105C30001400B4F8DE10B84706F18600002D08BF46
:105C400008F11600B4F8E010B84706F18800002DFE
:105C500008BF08F11800B4F8E210B84706F18A004E
:105C6000002D08BF08F11A00B4F8E410B847B4F8E2
:105C7000C8007D49D4F8CE20D4F8D230D4F8D6501C
:105C80000882D4F8CA00C1F81620C1F81A30C1F849
:105C90001E50C1F81200D4F8DA00C1F82200D4F87E
:105CA000DE00C1F82600D4F8E200C1F82A00CCE0FA
:105CB0000948C16841F08001C160002089F80500F1
:105CC0006948B0F86A100131A0F86A1099F80F001D
:105CD000013089F80F00BDE0042002402301674530
:105CE00000E00108AB89EFCD70F401085F4E99F830
:105CF0000F105B4C5E4A5B4F06F1AA0001F00EFFED
:105D000008BF02F13A00B4F80411B84706F1AC003C
:105D1000002D08BF08F13C00B4F80611B84706F1A1
:105D2000AE00002D08BF08F13E00B4F80811B847D6
:105D300006F1B000002D08BF08F14000B4F80A11C8
:105D4000B84706F1B200002D08BF08F14200B4F8D0
:105D50000C11B84706F1B400002D08BF08F144004B
:105D6000B4F80E11B84706F1B600002D08BF08F1CF
:105D70004600B4F81011B84706F1B800002D08BF6E
:105D800008F14800B4F81211B84706F1BA00002D26
:105D900008BF08F14A00B4F81411B84706F1BC0076
:105DA000002D08BF08F14C00B4F81611B84706F1F1
:105DB000BE00002D08BF08F14E00B4F81811B84716
:105DC00006F1C000002D08BF08F15000B4F81A1108
:105DD000B84706F1C200002D08BF08F15200B4F820
:105DE0001C11B84706F1C400002D08BF08F154008B
:105DF000B4F81E11B84706F1C600002D08BF08F11F
:105E00005600B4F82011B847B4F804011649D4F884
:105E10000A21D4F80E31D4F81251A1F84C00D4F86C
:105E20000601C1F85220C1F85630C1F85A50C1F8E5
:105E30004E00D4F81601C1F85E00D4F81A01C1F87A
:105E40006200D4F81E01C1F8660099F8050001301F
:105E500089F8050057B0BDE8F08F00BF600E002044
:105E600038090020EDA70008DE0E002000E0010840
:105E700070F40108044C204603F09AF84FF6FF71C5
:105E8000884200F01A8201E000E0010804F5A05603
:105E9000304603F08DF84FF6FF71884200F00D8216
:105EA00004F1CC0004F0FCFC5FF84450064FA5F868
:105EB0006C0007F15C0004F0F3FCB5F86C10814253
:105EC00040F2F48504E000BF70F40108A1A80008C6
:105ED0005FF808802046C0475FF87C603082A01CD5
:105EE000C047B075201DC0473076A01DC047308523
:105EF00004F1C800C04786F8300004F10800C0472C
:105F0000A6F86C0004F10A00C04786F8310004F1DD
:105F10000C00C04786F8320004F10E00C04786F836
:105F2000330004F11000C04786F8340004F1120079
:105F3000C04786F8350004F11400C04786F83600E3
:105F400004F11600C04786F8370004F11800C04776
:105F500086F8380004F11A00C047A6F8740004F16E
:105F60001C00C047A6F8760004F11E00C047A6F842
:105F7000780004F12000C047A6F87A0004F122005E
:105F8000C047A6F87C0004F12400C047A6F87E00B4
:105F900004F12600C047A6F8800004F12800C0479D
:105FA000A6F8820004F12A00C047A6F8840004F194
:105FB0002C00C047A6F8860004F12E00C047A6F8C2
:105FC000880004F13000C047A6F88A0004F13200CE
:105FD000C047A6F88C0004F13400C047A6F88E0034
:105FE00004F13600C047A6F8900004F13800C0471D
:105FF000A6F8920004F13A00C047A6F8940004F114
:106000003C00C047A6F8960004F13E00C047A6F841
:10601000980004F14000C047A6F89A0004F142003D
:10602000C047A6F89C0004F14400C047A6F89E00B3
:1060300004F14600C047A6F8A00004F14800C0479C
:10604000A6F8A20004F14A00C047A6F8A40004F193
:106050004C00C047A6F8A60004F14E00C047A6F8C1
:10606000A80004F15000C047A6F8AA0004F15200AD
:10607000C047A6F8AC0004F15400C047A6F8AE0033
:1060800004F15600C047A6F8B00004F15800C0471C
:10609000A6F8B20004F15A00C047A6F8B40004F113
:1060A0005C00C047A6F8B60004F15E00C047A6F841
:1060B000B80004F16000C047A6F8BA0004F162001D
:1060C000C047A6F8BC0004F16400C047A6F8BE00B3
:1060D00004F16600C047A6F8C00004F16800C0479C
:1060E000A6F8C20004F16A00C047A6F8C40004F193
:1060F0006C00C04704F17005A6F8C6002846C047EA
:10610000A6F8C8002846C047A6F8CA0004F17200E5
:10611000C047A6F8CC0004F17400C047A6F8CE0032
:1061200004F17600C047A6F8D00004F17800C0471B
:10613000A6F8D20004F17A00C047A6F8D40004F112
:106140007C00C047A6F8D60004F17E00C047A6F840
:10615000D80004F18000C047A6F8DA0004F18200FC
:10616000C047A6F8DC0004F18400C047A6F8DE00B2
:1061700004F18600C047A6F8E00004F18800C0479B
:10618000A6F8E20004F18A00C04704F18E05A6F8E3
:10619000E4002846C047A6F8E6002846C047A6F80F
:1061A000E80004F19000C047A6F8EA0004F192006C
:1061B000C047A6F8EC0004F19400C047A6F8EE0032
:1061C00004F19600C047A6F8F00004F19800C0471B
:1061D000A6F8F20004F19A00C047A6F8F40004F112
:1061E0009C00C047A6F8F60004F19E00C047A6F840
:1061F000F80004F1A000C047A6F8FA0004F1A200DC
:10620000C047A6F8FC0004F1A400C047A6F8FE00B1
:1062100004F1A600C047A6F8000104F1A800C04799
:1062200004F1AC05A6F802012846C047A6F804010F
:106230002846C047A6F8060104F1AE00C047A6F8FC
:10624000080104F1B000C047A6F80A0104F1B20049
:10625000C047A6F80C0104F1B400C047A6F80E012F
:1062600004F1B600C047A6F8100104F1B800C04719
:10627000A6F8120104F1BA00C047A6F8140104F10F
:10628000BC00C047A6F8160104F1BE00C047A6F83E
:10629000180104F1C000C047A6F81A0104F1C200B9
:1062A000C047A6F81C0104F1C400C047A6F81E01AF
:1062B00004F1C600C04700F03ABE204602F078FE66
:1062C0004FF6FF71884200F0F3815FF800642046CA
:1062D000B0475FF874743882A01CB047B875201DB1
:1062E000B0473876A01DB047388504F1C800B047E4
:1062F00087F8300004F10800B047A7F86C0004F1FB
:106300000A00B04787F8310004F10C00B04787F865
:10631000320004F10E00B04787F8330004F110009A
:10632000B04787F8340004F11200B04787F8350011
:1063300004F11400B04787F8360004F11600B047A6
:1063400087F8370004F11800B04787F8380004F1E7
:106350001A00B047A7F8740004F11C00B047A7F872
:10636000760004F11E00B047A7F8780004F1200081
:10637000B047A7F87A0004F12200B047A7F87C00E4
:1063800004F12400B047A7F87E0004F12600B047CE
:10639000A7F8800004F12800B047A7F8820004F1B4
:1063A0002A00B047A7F8840004F12C00B047A7F8F2
:1063B000860004F12E00B047A7F8880004F13000F1
:1063C000B047A7F88A0004F13200B047A7F88C0064
:1063D00004F13400B047A7F88E0004F13600B0474E
:1063E000A7F8900004F13800B047A7F8920004F134
:1063F0003A00B047A7F8940004F13C00B047A7F872
:10640000960004F13E00B047A7F8980004F1400060
:10641000B047A7F89A0004F14200B047A7F89C00E3
:1064200004F14400B047A7F89E0004F14600B047CD
:10643000A7F8A00004F14800B047A7F8A20004F1B3
:106440004A00B047A7F8A40004F14C00B047A7F8F1
:10645000A60004F14E00B047A7F8A80004F15000D0
:10646000B047A7F8AA0004F15200B047A7F8AC0063
:1064700004F15400B047A7F8AE0004F15600B0474D
:10648000A7F8B00004F15800B047A7F8B20004F133
:106490005A00B047A7F8B40004F15C00B047A7F871
:1064A000B60004F15E00B047A7F8B80004F1600040
:1064B000B047A7F8BA0004F16200B047A7F8BC00E3
:1064C00004F16400B047A7F8BE0004F16600B047CD
:1064D000A7F8C00004F16800B047A7F8C20004F1B3
:1064E0006A00B047A7F8C40004F16C00B04704F19B
:1064F0007005A7F8C6002846B047A7F8C800284688
:10650000B047A7F8CA0004F17200B047A7F8CC0062
:1065100004F17400B047A7F8CE0004F17600B0474C
:10652000A7F8D00004F17800B047A7F8D20004F132
:106530007A00B047A7F8D40004F17C00B047A7F870
:10654000D60004F17E00B047A7F8D80004F180001F
:10655000B047A7F8DA0004F18200B047A7F8DC00E2
:1065600004F18400B047A7F8DE0004F18600B047CC
:10657000A7F8E00004F18800B047A7F8E20004F1B2
:106580008A00B04704F18E05A7F8E4002846B0471A
:10659000A7F8E6002846B047A7F8E80004F1900005
:1065A000B047A7F8EA0004F19200B047A7F8EC0062
:1065B00004F19400B047A7F8EE0004F19600B0474C
:1065C000A7F8F00004F19800B047A7F8F20004F132
:1065D0009A00B047A7F8F40004F19C00B047A7F870
:1065E000F60004F19E00B047A7F8F80004F1A000FF
:1065F000B047A7F8FA0004F1A200B047A7F8FC00E2
:1066000004F1A400B047A7F8FE0004F1A600B047CB
:10661000A7F8000104F1A800B04704F1AC05A7F801
:1066200002012846B047A7F804012846B047A7F85A
:10663000060104F1AE00B047A7F8080104F1B0006C
:10664000B047A7F80A0104F1B200B047A7F80C015F
:1066500004F1B400B047A7F80E0104F1B600B0474A
:10666000A7F8100104F1B800B047A7F8120104F12F
:10667000BA00B047A7F8140104F1BC00B047A7F86E
:10668000160104F1BE00B047A7F8180104F1C000DC
:10669000B047A7F81A0104F1C200B047A7F81C01DF
:1066A00004F1C400B047A7F81E0104F1C600F8E1E8
:1066B00004F5A054204602F07BFC4FF6FF7188429F
:1066C00000F0E4835FF8FC672046B0475FF870781D
:1066D000F54C3882A4F16E00B047B875A4F16C0097
:1066E000B0473876A4F16A00B047388504F1580005
:1066F000B04787F83000A4F16800B047A7F86C00F5
:10670000A4F16600B04787F83100A4F16400B047F7
:1067100087F83200A4F16200B04787F83300A4F193
:106720006000B04787F83400A4F15E00B04787F8F6
:106730003500A4F15C00B04787F83600A4F15A0098
:10674000B04787F83700A4F15800B04787F8380001
:10675000A4F15600B047A7F87400A4F15400B04764
:10676000A7F87600A4F15200B047A7F87800A4F18A
:106770005000B047A7F87A00A4F14E00B047A7F840
:106780007C00A4F14C00B047A7F87E00A4F14A00B9
:10679000B047A7F88000A4F14800B047A7F88200EE
:1067A000A4F14600B047A7F88400A4F14400B04724
:1067B000A7F88600A4F14200B047A7F88800A4F12A
:1067C0004000B047A7F88A00A4F13E00B047A7F800
:1067D0008C00A4F13C00B047A7F88E00A4F13A0069
:1067E000B047A7F89000A4F13800B047A7F892008E
:1067F000A4F13600B047A7F89400A4F13400B047E4
:10680000A7F89600A4F13200B047A7F89800A4F1C9
:106810003000B047A7F89A00A4F12E00B047A7F8BF
:106820009C00A4F12C00B047A7F89E00A4F12A0018
:10683000B047A7F8A000A4F12800B047A7F8A2002D
:10684000A4F12600B047A7F8A400A4F12400B047A3
:10685000A7F8A600A4F12200B047A7F8A800A4F169
:106860002000B047A7F8AA00A4F11E00B047A7F87F
:10687000AC00A4F11C00B047A7F8AE00A4F11A00C8
:10688000B047A7F8B000A4F11800B047A7F8B200CD
:10689000A4F11600B047A7F8B400A4F11400B04763
:1068A000A7F8B600A4F11200B047A7F8B800A4F109
:1068B0001000B047A7F8BA00A4F10E00B047A7F83F
:1068C000BC00A4F10C00B047A7F8BE00A4F10A0078
:1068D000B047A7F8C000A4F10800B047A7F8C2006D
:1068E000A01FB047A7F8C400201FB047A7F8C600F4
:1068F0002046B047A7F8C8002046B047A7F8CA000E
:10690000A01CB047A7F8CC00201DB047A7F8CE00C8
:10691000A01DB047A7F8D00004F10800B047A7F8C1
:10692000D20004F10A00B047A7F8D40004F10C002B
:10693000B047A7F8D60004F10E00B047A7F8D8007A
:1069400004F11000B047A7F8DA0004F11200B047D4
:10695000A7F8DC0004F11400B047A7F8DE0004F14A
:106960001600B047A7F8E00004F11800B047A7F8F8
:10697000E20004F11A00B04704F11E05A7F8E40094
:106980002846B047A7F8E6002846B047A7F8E80031
:1069900004F12000B047A7F8EA0004F12200B04754
:1069A000A7F8EC0004F12400B047A7F8EE0004F1CA
:1069B0002600B047A7F8F00004F12800B047A7F878
:1069C000F20004F12A00B047A7F8F40004F12C000B
:1069D000B047A7F8F60004F12E00B047A7F8F8007A
:1069E00004F13000B047A7F8FA0004F13200B047D4
:1069F000A7F8FC0004F13400B047A7F8FE0004F14A
:106A00003600B047A7F8000104F13800B04704F1A0
:106A10003C05A7F802012846B047A7F8040128461C
:106A2000B047A7F8060104F13E00B047A7F80801F7
:106A300004F14000B047A7F80A0104F14200B04752
:106A4000A7F80C0104F14400B047A7F80E0104F1C7
:106A50004600B047A7F8100104F14800B047A7F876
:106A6000120104F14A00B047A7F8140104F14C00E8
:106A7000B047A7F8160104F14E00B047A7F8180177
:106A800004F15000B047A7F81A0104F15200B047D2
:106A9000A7F81C0104F15400B047A7F81E0104F147
:106AA0005600B04743E200BF70F401085FF8E45BB2
:106AB0003046A8475FF8586C3082A7F16E00A847AF
:106AC000B075A7F16C00A8473076A7F16A00A84717
:106AD000308507F15800A84786F83000A7F1680014
:106AE000A847A6F86C00A7F16600A84786F8310011
:106AF000A7F16400A84786F83200A7F16200A84712
:106B000086F83300A7F16000A84786F83400A7F1A3
:106B10005E00A84786F83500A7F15C00A84786F814
:106B20003600A7F15A00A84786F83700A7F15800A9
:106B3000A84786F83800A7F15600A847A6F87400C1
:106B4000A7F15400A847A6F87600A7F15200A8477D
:106B5000A6F87800A7F15000A847A6F87A00A7F198
:106B60004E00A847A6F87C00A7F14C00A847A6F85D
:106B70007E00A7F14A00A847A6F88000A7F14800C8
:106B8000A847A6F88200A7F14600A847A6F8840007
:106B9000A7F14400A847A6F88600A7F14200A8473D
:106BA000A6F88800A7F14000A847A6F88A00A7F138
:106BB0003E00A847A6F88C00A7F13C00A847A6F81D
:106BC0008E00A7F13A00A847A6F89000A7F1380078
:106BD000A847A6F89200A7F13600A847A6F89400A7
:106BE000A7F13400A847A6F89600A7F13200A847FD
:106BF000A6F89800A7F13000A847A6F89A00A7F1D8
:106C00002E00A847A6F89C00A7F12C00A847A6F8DC
:106C10009E00A7F12A00A847A6F8A000A7F1280027
:106C2000A847A6F8A200A7F12600A847A6F8A40046
:106C3000A7F12400A847A6F8A600A7F12200A847BC
:106C4000A6F8A800A7F12000A847A6F8AA00A7F177
:106C50001E00A847A6F8AC00A7F11C00A847A6F89C
:106C6000AE00A7F11A00A847A6F8B000A7F11800D7
:106C7000A847A6F8B200A7F11600A847A6F8B400E6
:106C8000A7F11400A847A6F8B600A7F11200A8477C
:106C9000A6F8B800A7F11000A847A6F8BA00A7F117
:106CA0000E00A847A6F8BC00A7F10C00A847A6F85C
:106CB000BE00A7F10A00A847A6F8C000A7F1080087
:106CC000A847A6F8C200B81FA847A6F8C400381FF6
:106CD000A847A6F8C6003846A847A6F8C800384610
:106CE000A847A6F8CA00B81CA847A6F8CC00381DCB
:106CF000A847A6F8CE00B81DA847A6F8D00007F10F
:106D00000800A847A6F8D20007F10A00A847A6F88D
:106D1000D40007F10C00A847A6F8D60007F10E0032
:106D2000A847A6F8D80007F11000A847A6F8DA008F
:106D300007F11200A847A6F8DC0007F11400A847E5
:106D4000A6F8DE0007F11600A847A6F8E00007F154
:106D50001800A847A6F8E20007F11A00A84707F1B3
:106D60001E04A6F8E4002046A847A6F8E600204640
:106D7000A847A6F8E80007F12000A847A6F8EA000F
:106D800007F12200A847A6F8EC0007F12400A84765
:106D9000A6F8EE0007F12600A847A6F8F00007F1D4
:106DA0002800A847A6F8F20007F12A00A847A6F88D
:106DB000F40007F12C00A847A6F8F60007F12E0012
:106DC000A847A6F8F80007F13000A847A6F8FA008F
:106DD00007F13200A847A6F8FC0007F13400A847E5
:106DE000A6F8FE0007F13600A847A6F8000107F153
:106DF0003800A84707F13C04A6F802012046A8473E
:106E0000A6F804012046A847A6F8060107F13E00AF
:106E1000A847A6F8080107F14000A847A6F80A010C
:106E200007F14200A847A6F80C0107F14400A84763
:106E3000A6F80E0107F14600A847A6F8100107F1D1
:106E40004800A847A6F8120107F14A00A847A6F88B
:106E5000140107F14C00A847A6F8160107F14E00EF
:106E6000A847A6F8180107F15000A847A6F81A018C
:106E700007F15200A847A6F81C0107F15400A847E3
:106E8000A6F81E0107F15600A84750E0DFF8080BEE
:106E90001421504B504C514D514E524F524A4FF0CD
:106EA000000CA0F86C106421C0F81C41C0E93D54EE
:106EB000C0E94354C0E93546C0E93754C0E93B4610
:106EC000C0E92F46C0E92554C0E92B74C0E94565E7
:106ED000C0E93F65C0E92D65C0E92765C0E93153C8
:106EE000424E80F830C0A0F828C0C0F835C0017606
:106EF0003C218175DC2101823D498E46C0E941314A
:106F00003C49C0E933E53C4DC0E9233EC0E93917AF
:106F1000C0E9294139493A4C3A4FC0E91F65C0E9F7
:106F200021413949C0E91D27C0F831100A20DFF896
:106F3000681A0A8AA1F82001B2F5FA7F01D8632AFB
:106F400002D84FF496720A824E928A7DC82A00D8DF
:106F50000AB950228A754B9291F83020022A24BF38
:106F6000002281F8302091F83130022B24BF002319
:106F700081F831304D9391F83230022B24BF012338
:106F800081F832304C9391F83330022B24BF012327
:106F900081F8333091F83440032C24BF012481F868
:106FA0003440499491F83540022C24BF002481F8E4
:106FB0003540509091F83600022824BF002081F817
:106FC0003600479091F8370000B3012081F8370070
:106FD0001DE000BF6E001400C800320032000A003D
:106FE0000A00C80014003C002C01280032002800D0
:106FF0003C00C8000A006E005E013C0050003C00EE
:1070000032007C011E004001000101010020469079
:1070100091F8380010B1002081F83800B1F92850FB
:10702000322D05DC4FF6FF70313800B2854201DAAF
:1070300000250D85B1F86C00B0F57A7F24BF1420CF
:10704000A1F86C004390B1F87400B0F5FA7F01D854
:10705000632803D84FF49670A1F87400B1F87660F5
:10706000C82E00D816B95026A1F876604A93B1F818
:107070007830B3F57A7F24BF1E23A1F8783042938D
:10708000B1F87A30B3F5FA7F01D8632B03D84FF407
:107090009673A1F87A30B1F87C904193B9F1C80F9A
:1070A00002D8B9F1000F03D14FF05009A1F87C903C
:1070B000B1F87E304894CDF80091B3F57A7F24BFC3
:1070C0001E23A1F87E30B1F88040B4F5FA7F01D8D4
:1070D000632C03D84FF49674A1F88040B1F882A0D5
:1070E0004595BAF1C80F02D8BAF1000F03D14FF09D
:1070F000500AA1F882A0B1F88450CDF8F4A0B5F5FB
:107100007A7F24BF1E25A1F884503990B1F886C03B
:10711000BCF5FA7F02D8BCF1630F03D84FF4967C1C
:10712000A1F886C0B1F88800CDF8ECC0C82800D816
:1071300010B95020A1F888003A90B1F88A00B0F553
:107140007A7F24BF1E20A1F88A003C95B1F88C807C
:10715000B8F5FA7F02D8B8F1630F03D84FF064088E
:10716000A1F88C80B1F88E504496CDF8DC80C82D03
:1071700000D815B91425A1F88E501646B1F8902004
:10718000B2F57A7F24BF3C22A1F890203592B1F865
:107190009220B2F5FA7F01D8632A02D86422A1F8BE
:1071A00092203492B1F89420C82A00D812B914223F
:1071B000A1F89420B1F896A033924F96BAF57A7F51
:1071C0005246CDF854A104D33C223C265596A1F852
:1071D0009620B1F89820B2F5FA7F01D8632A02D838
:1071E0006422A1F898203292B1F89A203F93C82ADD
:1071F00000D812B91422A1F89A20B1F89C3031922B
:10720000B3F57A7F1F46549306D33C234FF03C0AD4
:10721000CDF850A1A1F89C30B1F89E203E94B2F573
:10722000FA7F01D8632A02D86422A1F89E20B1F81F
:10723000A040C82C00D814B91424A1F8A0402F9461
:10724000B1F8A240B4F57A7F24BF3C24A1F8A24053
:107250002894B1F8A490B9F5FA7F02D8B9F1630F78
:1072600003D84FF06409A1F8A4903890B1F8A600B3
:10727000CDF8B890C82800D810B91420A1F8A600FD
:107280002D90B1F8A8003695B0F57A7F24BF3C2048
:10729000A1F8A8002C90B1F8AA00B0F5FA7F01D8A7
:1072A000632802D86420A1F8AA002B90B1F8AC00A2
:1072B000C82800D810B91420A1F8AC00B1F8AE70FD
:1072C000B7F57A7F24BF3C27A1F8AE70B1F8B03093
:1072D000B3F5FA7F01D8632B02D86423A1F8B0304C
:1072E000B1F8B2603092C82E00D816B91426A1F8B1
:1072F000B260B1F8B420B2F57A7F24BF3C22A1F885
:10730000B4202192239625932797B1F8B620B2F5A1
:10731000FA7F01D8632A02D86422A1F8B620B1F816
:10732000B8A02A90BAF1C80F02D8BAF1000F03D161
:107330004FF0140AA1F8B8A0B1F8BA00CDF8A4A093
:10734000B0F57A7F24BF3C20A1F8BA00B1F8BC3078
:10735000B3F5FA7F01D8632B02D86423A1F8BC30BF
:107360001F92B1F8BE20C82A00D812B91422A1F881
:10737000BE202292B1F8C020B2F57A7F24BF3C2211
:10738000A1F8C0202092B1F8C220B2F5FA7F01D84E
:10739000632A02D86422A1F8C220B1F8C490B9F1DE
:1073A000C80F02D8B9F1000F03D14FF01409A1F8AA
:1073B000C490B1F8C640CDF87490B4F57A7F24BF7C
:1073C0003C24A1F8C6402690B1F8C800B0F5FA7F79
:1073D00001D8632802D86420A1F8C800B1F8CA60B7
:1073E000C82E3546569601D8569D25B91426142523
:1073F0005695A1F8CA601E92B1F8CC20B2F57A7FFA
:1074000024BF3C22A1F8CC20B1F8CE50B5F5FA7FCC
:1074100001D8632D02D86425A1F8CE50B1F8D0A0D0
:107420001B90BAF1C80F02D8BAF1000F03D14FF088
:10743000140AA1F8D0A0B1F8D200CDF860A0B0F540
:107440007A7F24BF3C20A1F8D200B1F8D4E0BEF589
:10745000FA7F02D8BEF1630F03D84FF0640EA1F893
:10746000D4E0B1F8D660CDF858E0C82E00D816B9EF
:107470001426A1F8D660B1F8D870B7F57A7F24BF8A
:107480003C27A1F8D870B1F8DAE0BEF5FA7F02D84F
:10749000BEF1630F03D84FF0640EA1F8DAE0B1F843
:1074A000DC802493B8F1C80F02D8B8F1000F03D1E3
:1074B0004FF01408A1F8DC80B1F8DE301C94CDF850
:1074C0004880B3F57A7F24BF3C23A1F8DE301790C3
:1074D000B1F8E000B0F5FA7F01D8632802D8642043
:1074E000A1F8E0001A92B1F8E220C82A00D812B937
:1074F0001422A1F8E220B1F8E4401497B4F57A7FA1
:1075000024BF3C24A1F8E4401995B1F8E680B8F511
:10751000FA7F02D8B8F1630F03D84FF06408A1F8DE
:10752000E680B1F8E890B9F1C80F02D8B9F1000FC0
:1075300003D14FF01409A1F8E890B1F8EA5015967C
:10754000B5F57A7F24BF3C25A1F8EA50B1F8EC608C
:10755000B6F5FA7F01D8632E02D86426A1F8EC6054
:107560000A96B1F8EE60CDE90E42C82E00D816B9E1
:107570001426A1F8EE60B1F8F040B4F57A7F224607
:10758000539406D33C224FF03C0CCDF84CC1A1F8EB
:10759000F020B1F8F220B2F5FA7F01D8632A02D8C0
:1075A0006422A1F8F220B1F8F440CDE91003C82C10
:1075B00000D814B91424A1F8F440B1F8F630B3F5AA
:1075C0007A7F1846529308D373464FF03C0E3C2006
:1075D000CDF848E19E46A1F8F600B1F8F8A0BAF55A
:1075E000FA7F02D8BAF1630F03D84FF0640AA1F80A
:1075F000F8A0B1F8FA300892C82B00D813B91423B8
:10760000A1F8FA30B1F8FC70B7F57A7F3A46519795
:1076100006D33C224FF03C0CCDF844C1A1F8FC202D
:10762000B1F8FE20B2F5FA7F01D8632A02D86422AD
:10763000A1F8FE20B1F800712846C82F00D817B96C
:107640001427A1F80071B1F80251B5F57A7F24BF73
:107650003C25A1F802510996B1F80461B6F5FA7F0C
:1076600001D8632E02D86426A1F80461B1F806B1EE
:107670000196BBF1C80F02D8BBF1000F03D14FF048
:10768000140BA1F806B1B1F80861CDE90B09CDF8EA
:107690003480B6F57A7F24BF3C26A1F80861B1F8A2
:1076A0000A81B8F5FA7F02D8B8F1630F03D84FF01A
:1076B0006408A1F80A81B1F80C910096029505932F
:1076C000B9F1C80F02D8B9F1000F03D14FF0140976
:1076D000A1F80C91B1F80EC10794399BBCF57A7FE3
:1076E00024BF4FF03C0CA1F80EC1CDF84CE0B1F82E
:1076F0001041B4F5FA7F01D8632C02D86424A1F8B4
:107700001041B1F812E1BEF1C80F02D8BEF1000F6E
:1077100003D14FF0140EA1F812E1B1F81451CDE9E4
:107720000372B5F57A7F24BF3C25A1F81451B1F856
:107730001671289AB7F5FA7F01D8632F02D864270B
:10774000A1F81671CDF818A0B1F818A1BAF1C80FB8
:1077500002D8BAF1000F03D14FF0140AA1F818A112
:10776000B1F81A01B0F57A7F24BF3C20A1F81A01C4
:10777000B1F81C01B0F5FA7F01D8632802D8642063
:10778000A1F81C01B1F81E01C82800D810B91420B6
:10779000A1F81E0150987E4EB0F57A7F24BF3C20A0
:1077A000A1F82001A6F8682073874B98009A70868C
:1077B0004E983086439830874598F0861F98A6F8F3
:1077C0007C002198A6F87A002398A6F878002598DE
:1077D000A6F876002798A6F874002A98A6F87200F2
:1077E0002B98A6F870002C98A6F86E002D98A6F895
:1077F0006C002E98A6F86A002F98A6F866003098BC
:10780000A6F864005498A6F862003198A6F86000C3
:107810003298A6F85E005598A6F85C003398A6F852
:107820005A003498A6F858003598A6F856003698AD
:10783000A6F854003798A6F852003898A6F85000D9
:107840003A98A6F84E003B98A6F84C003C98A6F84B
:107850004A003D98A6F848003E98A6F846003F9892
:10786000A6F844004098A6F842004198A6F84000C7
:107870004298F0874498B0870020B07346987073A0
:10788000479830734898F0724998B0724A9870726D
:107890004C9830724D98F0714F98B071087EB08658
:1078A0003C48A0F85020019AA0F860A0A0F85E70B3
:1078B000A0F85C50A0F85AE0A0F85840A0F856C0D4
:1078C000A0F85490A0F85280A0F84EB0A0F84C2038
:1078D000029AA0F84A20039AA0F84820049AA0F837
:1078E0004620519AA0F84420059AA0F84220069A12
:1078F000A0F84020529AC287079A8287089A428746
:10790000539A0287099AC2860A9A82860B9A4286FD
:107910000C9A02860D9AC2850E9A82850F9A42852C
:10792000109A0285119AC284129A8284139A428410
:10793000149A0284159AC283169A8283179A4283F4
:10794000189A0283199AC2821A9A8282569A42829D
:107950001B9A02821C9AC2811D9A82811E9A4281C0
:10796000209A0281229AC280249A8280269A42809A
:10797000299A0280012232740A70D1F81A21D1F8B2
:107980001E11C0F86220C0F86610FEF763BA00BF8F
:10799000600E0020DE0E002038090020FEE7FEE722
:1079A0007047052100EBC000B0FBF1F0203083B23E
:1079B00070470222D0F804482047B7F86C00B7F8A7
:1079C0007E10081AB0FA80F0400943007047B7F8FB
:1079D0006C00B7F88A10081AB0FA80F040098300EA
:1079E0007047B7F86C00B7F87810081AB0FA80F052
:1079F0004309704790F8691003297047D4F8045878
:107A0000204645F2240102222847D4F80458204693
:107A1000704755F824402488A1F87040704791F8C9
:107A20003B305C1EE5B2042D7047D4F80458204664
:107A300046F26301022243F67F432847B8F8080064
:107A4000000401BA704701EB81010922A03991FBC2
:107A5000F2F17047D4F804C820466047CDF8108092
:107A600003903846504794F83B000138032870478C
:107A700097F83B0001380328704795F83B00013820
:107A800004287047D4F80458204645F20E0102221B
:107A90002847D4F80458204645F20C010222284712
:107AA00008F10E000A2188F8174004F0F9BDB7F874
:107AB0006C00B7F8841081427047B87DB7F8821027
:107AC000002381427047B8F8081090F8312009046B
:107AD00009BA012A7047B8F878000130A8F8780090
:107AE00080B264287047D0E90812013142F10002E7
:107AF000C0E908127047B0FBF1F101EB4101A0EBC6
:107B0000810000287047C8B20521B0FBF1F101EBFC
:107B10008101401A70470A2002F0F8BE11F00105F9
:107B20009046704700210162C16141610161C160FD
:107B30007047388AB7F8741081427047388AB7F8AE
:107B40007A1081427047388AB7F8801081427047B6
:107B50000222D4F8045820462847388AB7F88610FD
:107B600081427047D4F804C8204646F2F30102224D
:107B7000704745F203010222002370472146ADF809
:107B8000115003907047206820F00100206010BD64
:107B900000BA000CAAF824000AF118007047D4F8C3
:107BA0000458204646F203010222704745F20401C0
:107BB000022200234FF00009704745F2040102221F
:107BC00001234FF001087047B87DB7F87C1081425F
:107BD0007047B8F8081009BA090C7047B87DB7F8B3
:107BE000761081427047B87DB7F88810814270479F
:107BF00097F86A00013803287047204600210025C5
:107C0000FCF726BED4F804582046284740F0080068
:107C1000E060E06840F00400E060E06820F400709C
:107C2000E060E06820F48060E060606920F48070CB
:107C30006061606920F400706061E06840F02000DD
:107C4000E060E06840F40050E060704797F8310071
:107C50000128704791F83D30002B70472DE9FC4119
:107C6000FCF756FD2E4F78617869F969FCF7FEFC48
:107C7000F8612C4CF8692146FCF7CEFD00B9FC6197
:107C8000F86900210024FCF7E3FD00B9FC61D7E9A5
:107C9000008678697C6A3969FCF73AFDB86130463C
:107CA0007D69F969FCF73AFD01900094019800990B
:107CB000FCF7A4FD08B9009801900198009981F0A3
:107CC0000041FCF7B7FD18B9009880F00040019022
:107CD00040462946FCF722FD0199FCF7C7FC044603
:107CE000B8687D69B969FCF719FD2146FCF7BEFC4F
:107CF00038623D61386AB96AFCF780FD08B9B86A34
:107D00003862386AB96A81F00041FCF793FD18B90E
:107D1000B86A80F000403862386ABDE8FC8100BF74
:107D20000001002000C82F47704700002DE9F843EC
:107D3000DFF8E44F804694F85500022840F089802F
:107D400008F10109002704F148054E46284631464E
:107D500004F08AFA002804BF013701360228F5D161
:107D6000002088F8017484F85500F8B2092840F022
:107D7000748099F8000008F201455A2840F06B80A1
:107D800098F80200A52840F0668098F806000B38A5
:107D9000372800F26080DFE810F0380062006800E9
:107DA0007D0083005E005E005E00A800AF00C200A0
:107DB000D800E100EA0000010901120128013101A7
:107DC0003A01500159016201690186019701A80138
:107DD000C501D601F9021603EA01FB0118022902C6
:107DE00027033A0241022E0348024F026C0274023A
:107DF00093029C02A3025E005E00AA025E00D8020B
:107E0000DF025E005E005E00E60298F8080098F867
:107E100009400002FCF738FD074620460E46FCF7F5
:107E200044FDCF4B0022FCF77CFA3A463346FCF780
:107E3000D1F9FCF774FDDFF8C81F642898BF6420EF
:107E40000522088200EBC000B0FBF2F020308882EF
:107E500001E008F2014500202870BDE8F88398F899
:107E60000900012898BF012016E0FFF7E7FDDFF8C1
:107E7000900F90F831200182012A03D1FFF7E3FD32
:107E8000018289B2642902D9B1F5FA7FE3D3642172
:107E90000182E0E798F80900DFF8641F8875DAE7E7
:107EA00098F80910DFF8580F80F86A1090F83A1027
:107EB000012940F05E8498F809104C1E032C00F252
:107EC000588400F1780100F1760200F17403DFE8D4
:107ED00014F0480404003B04420400F17E0100F168
:107EE0007C0200F17A0300F03CBC98F80900DFF84E
:107EF000C81F81F83A00AEE798F80900DFF8B84FDC
:107F0000012884F83000A6D1DFF8A40C1A260A2133
:107F1000C6750E3004F0C4FB84F83A609BE7FFF7A7
:107F20008DFDDFF8940F90F83120A0F87410012A2D
:107F300004D1FFF788FDA0F8741089B2642900F21B
:107F400061826421A0F8741085E7B8F80800DFF8B2
:107F5000681F00BA000CA1F876007CE7B8F80800AA
:107F6000DFF8541F00BA000CA1F8780073E7FFF7A0
:107F700065FDDFF8440F90F83120A0F87A10012A4F
:107F800004D1FFF760FDA0F87A1089B2642900F2ED
:107F900041826421A0F87A105DE7B8F80800DFF8A4
:107FA000181F00BA000CA1F87C0054E7B8F80800CC
:107FB000DFF8041F00BA000CA1F87E004BE7FFF7C2
:107FC0003DFDDFF8F40E90F83120A0F88010012A72
:107FD00004D1FFF738FDA0F8801089B2642900F2BF
:107FE00021826421A0F8801035E7B8F80800DFF896
:107FF000C81E00BA000CA1F882002CE7B8F80800EF
:10800000DFF8B41E00BA000CA1F8840023E7FFF7E4
:1080100015FDDFF8A40E90F83120A0F88610012A93
:1080200004D1FFF710FDA0F8861089B2642900F290
:1080300001826421A0F886100DE7B8F80800DFF887
:10804000781E00BA000CA1F8880004E7B8F8080010
:10805000DFF8641E00BA000CA1F88A00FBE698F86D
:108060000900DFF8541E81F86900F4E6DFF8480ED5
:10807000FFF7C0FC3FF6EFAEDFE811F00400F001BF
:1080800001021202FFF71FFDA0F88C1004D1FFF7C8
:10809000DAFCA0F88C1089B2642900F2798364219B
:1080A000A0F88C10D7E6DFF8100EFFF7A3FC3FF620
:1080B000D2AEDFE811F0040006020B021002FFF757
:1080C00088FDA0F88E10C6E6DFF8EC0DFFF792FCF5
:1080D0003FF6C1AEDFE811F00400040209020F020E
:1080E000FFF777FDA0F89010B5E6DFF8CC0DFFF7AD
:1080F00081FC3FF6B0AEDFE811F004000402160286
:108100002802FFF7E0FCA0F8921004D1FFF79BFCD7
:10811000A0F8921089B2642900F243836421A0F888
:10812000921098E6DFF8900DFFF764FC3FF693AEEF
:10813000DFE811F004001D0223022902FFF749FDC8
:10814000A0F8941087E6DFF8700DFFF753FC3FF6B8
:1081500082AEDFE811F007001E0224022A0200BFEF
:1081600000000440FFF735FDA0F8961073E6DFF835
:10817000480DFFF73FFC3FF66EAEDFE811F004005C
:108180001C0222022802FFF724FDA0F89C1062E6E0
:10819000DFF8240DFFF72EFC3FF65DAEDFE811F0AF
:1081A00004001D022F024102FFF78DFCA0F89E1073
:1081B00004D1FFF748FCA0F89E1089B2642900F2B0
:1081C000F9826421A0F89E1045E6DFF8EC0CFFF779
:1081D00011FC3FF640AEDFE811F0040036023C022D
:1081E0004202FFF7F6FCA0F8A01034E6DFF8C80C56
:1081F000FFF700FC3FF62FAEDFE811F00400370276
:108200003D024302FFF7E5FCA0F8A21023E698F830
:108210000900DFF8A41C81F832001CE698F8090078
:10822000DFF8941C81F8330015E698F80900DFF8B0
:10823000881C81F835000EE6B8F8080000BA010C79
:10824000DFF8740C90F831204184002A00F0FA80A5
:10825000012A7FF400AED42928BFD421212998BF58
:10826000212101EB81010922A03989B2B1FBF2F190
:1082700067E2B8F80800DFF8401C00BA000C8884F8
:10828000E9E5B8F80800DFF8303C0922C1BA00BAC5
:1082900093F8314001EB8101000CA039012C08BF9B
:1082A00091FBF2F0198A401A01B23229A8BF32209C
:1082B00001B211F1320FD8BF6FF031001885CAE555
:1082C000B8F80800DFF8F01B00BA000CA1F86C0049
:1082D000C1E598F80900DFF8E01B81F83700BAE53E
:1082E00098F80900DFF8D01B81F83800B3E598F85A
:1082F0000910DFF8C40B002918BF012180F83E10D7
:108300003FF4A9AD3C221E21E14FE24BE24CE34E8B
:1083100082754FF4BE724183A0F86C100021028276
:10832000DF4AC0F836100185DE49C0E91F64944673
:10833000DD4AC0F822106421C0E9213C0176C0E981
:108340001D27DA4AC0F8312085E598F80900DFF8E2
:10835000681B81F836007EE598F80900DFF8581BA5
:1083600081F8390077E598F80910DFF84C0B0029FF
:1083700080F83C106ED001297FF46DAD012180F8AA
:108380003B10B0F89010A0F8701064E5DFF8280BEF
:10839000FFF730FB3FF65FADDFE811F00400C001EE
:1083A0008A019C01FFF78FFBA0F8981004D1FFF71A
:1083B0004AFBA0F8981089B2642900F20482642173
:1083C000A0F8981047E5DFF8F00AFFF713FB3FF637
:1083D00042ADDFE811F00400910197019D01FFF724
:1083E000F8FBA0F89A1036E598F80900DFF8C81AEB
:1083F00081F831002FE598F80900DFF8BC1A81F800
:10840000340028E5B1F5FA7F24BF4FF4FA71A0F8E3
:10841000741020E5B1F5FA7F24BF4FF4FA71A0F88B
:108420007A1018E5B1F5FA7F24BF4FF4FA71A0F87D
:10843000801010E5B1F5FA7F24BF4FF4FA71A0F86F
:10844000861008E5002900F07B81642924BF64219F
:10845000418400E5002180F83B10FCE4FFF733FB8A
:10846000A0F8AA1004D1FFF7EEFAA0F8AA1089B27A
:10847000642900F2B1816421A0F8AA10EBE4FFF7AF
:1084800022FBA0F8C81004D1FFF7DDFAA0F8C8104D
:1084900089B2642900F2A9816421A0F8C810DAE445
:1084A000FFF711FBA0F8E61004D1FFF7CCFAA0F813
:1084B000E61089B2642900F2A1816421A0F8E610D7
:1084C000C9E4FFF786FBA0F8AC10C4E4FFF781FB1A
:1084D000A0F8CA10BFE4FFF77CFBA0F8E810BAE4EC
:1084E000FFF777FBA0F8AE10B5E4FFF772FBA0F83A
:1084F000CC10FFF7B0BCFFF76CFBA0F8EA10FFF759
:10850000AABCFFF7E0FAA0F8B01004D1FFF79BFA7D
:10851000A0F8B01089B2642900F279816421A0F832
:10852000B010FFF798BCFFF7CEFAA0F8CE1004D138
:10853000FFF789FAA0F8CE1089B2642900F27081A1
:108540006421A0F8CE10FFF786BCFFF7BCFAA0F8B4
:10855000EC1004D1FFF777FAA0F8EC1089B2642987
:1085600000F267816421A0F8EC10FFF774BCFFF7FC
:1085700030FBA0F8B210FFF76EBCFFF72AFBA0F8A3
:10858000D010FFF768BCFFF724FBA0F8EE10FFF750
:1085900062BCFFF71EFBA0F8B410FFF75CBCFFF74E
:1085A00018FBA0F8D210FFF756BCFFF712FBA0F89B
:1085B000F010FFF750BCFFF70CFBA0F8BA10FFF764
:1085C0004ABCFFF706FBA0F8D810FFF744BCFFF742
:1085D00000FBA0F8F610FFF73EBCFFF774FAA0F816
:1085E000BC1004D1FFF72FFAA0F8BC1089B264299F
:1085F00000F228816421A0F8BC10FFF72CBCFFF723
:1086000062FAA0F8DA1004D1FFF71DFAA0F8DA1028
:1086100089B2642900F21F816421A0F8DA10FFF703
:108620001ABCFFF750FAA0F8F81004D1FFF70BFAC4
:10863000A0F8F81089B2642900F216816421A0F82C
:10864000F810FFF708BCFFF7C4FAA0F8BE10FFF758
:1086500002BCFFF7BEFAA0F8DC10FFF7FCBBFFF787
:10866000B8FAA0F8FA10FFF7F6BBFFF7B2FAA0F8D5
:10867000C010FFF7F0BBFFF7ACFAA0F8DE10FFF771
:10868000EABBFFF7A6FAA0F8FC10FFF7E4BB00BFB7
:108690001E00400132007C015E013C0032002800D7
:1086A00050003C0032000A002C01280000010100AB
:1086B000FFF709FAA0F8D41004D1FFF7C4F9A0F825
:1086C000D41089B2642900F2D8806421A0F8D410B3
:1086D000FFF7C1BBFFF7F7F9A0F8F21004D1FFF7DD
:1086E000B2F9A0F8F21089B2642900F2CF806421B7
:1086F000A0F8F210FFF7AFBBFFF76BFAA0F8B810C5
:10870000FFF7A9BBFFF765FAA0F8D610FFF7A3BBE8
:10871000FFF75FFAA0F8F410FFF79DBBFFF7D3F95E
:10872000A0F8B61004D1FFF78EF9A0F8B61089B200
:10873000642900F2B4806421A0F8B610FFF78BBB67
:1087400000214184FFF787BB00F1840100F1820220
:1087500000F1800305E000F18A0100F1880200F1D8
:10876000860309881B88127803828275A0F86C1032
:10877000418390F8311001297FF46DAB018A052205
:1087800001EBC101B1FBF2F120318182FFF763BB44
:10879000B1F5FA7F24BF4FF4FA71A0F88C10FFF7FF
:1087A0005ABBB1F5FA7F24BF4FF4FA71A0F89210CA
:1087B000FFF751BBB1F5FA7F24BF4FF4FA71A0F86F
:1087C0009E10FFF748BBB1F5FA7F24BF4FF4FA7152
:1087D000A0F89810FFF73FBBB1F5FA7F24BF4FF424
:1087E000FA71A0F8AA10FFF736BBB1F5FA7F24BFE3
:1087F0004FF4FA71A0F8C810FFF72DBBB1F5FA7F5E
:1088000024BF4FF4FA71A0F8E610FFF724BBB1F5CE
:10881000FA7F24BF4FF4FA71A0F8B010FFF71BBB2A
:10882000B1F5FA7F24BF4FF4FA71A0F8CE10FFF72C
:1088300012BBB1F5FA7F24BF4FF4FA71A0F8EC1027
:10884000FFF709BBB1F5FA7F24BF4FF4FA71A0F826
:10885000BC10FFF700BBB1F5FA7F24BF4FF4FA71EB
:10886000A0F8DA10FFF7F7BAB1F5FA7F24BF4FF49A
:10887000FA71A0F8F810FFF7EEBAB1F5FA7F24BF4D
:108880004FF4FA71A0F8D410FFF7E5BAB1F5FA7F0A
:1088900024BF4FF4FA71A0F8F210FFF7DCBAB1F57B
:1088A000FA7F24BF4FF4FA71A0F8B610FFF7D3BADD
:1088B00070470000B0B5BE48818801398180090445
:1088C00008D1BC490022CA60BB493222CA604FF4B9
:1088D0007A718180B84991F82F20022A15D14289F6
:1088E000013A4281120418D14FF47A724281CA8C43
:1088F000013ACA8412B2B2F1FF3F0EDCAF4A022342
:108900001376002281F82F2007E091F8342012B965
:10891000002281F82F208A8CCA8491F83C2092B1E1
:10892000012A40F0FF80A54AD378012B14D191F899
:108930006930032B00F2DA80DFE803F0022D3033D8
:1089400091F83B3019E04FF47A720023C2809B4AC1
:10895000D370A1F87030E5E00123D37091F869304D
:10896000032BE6D8DFE803F002203549FFF757F87C
:1089700003D264B29EA5FFF74CF8032B51D0022B13
:1089800056D0012B5BD1FFF765F940F0AF804B6803
:10899000B1F88C40A0E091F83B300CE091F83B300E
:1089A0001EE091F83B302FE0FFF739F803D264B2B4
:1089B0008BA5FFF72EF8032B4AD0022B4FD0012BAB
:1089C00054D1FFF747F940F091804B68B1F8AA40C5
:1089D00082E0FFF724F803D264B27DA5FFF719F80F
:1089E000032B4CD0022B51D0012B56D1FFF732F97B
:1089F0007CD14B68B1F8C8406EE0FFF710F803D2A5
:108A000064B26FA5FFF705F8032B4FD0022B54D0AB
:108A1000012B59D1FFF71EF968D14B68B1F8E64038
:108A20005AE0FFF717F961D14B68B1F8984053E06D
:108A3000FFF710F95AD14B68B1F892404CE0042B83
:108A400054D1FFF707F951D14B68B1F89E4043E08C
:108A5000FFF700F94AD14B68B1F8B6403CE0FFF7A8
:108A6000F9F843D14B68B1F8B04035E0042B3DD163
:108A7000FFF7F0F83AD14B68B1F8BC402CE0FFF7B3
:108A8000E9F833D14B68B1F8D44025E0FFF7E2F8BC
:108A90002CD14B68B1F8CE401EE0042B26D1FFF755
:108AA000D9F823D14B68B1F8DA4015E0FFF7D2F8D6
:108AB0001CD14B68B1F8F2400EE0FFF7CBF815D1AE
:108AC0004B68B1F8EC4007E0042B0FD1FFF7C2F878
:108AD0000CD14B68B1F8F840E51EAB4206D903341F
:108AE000A34203D2C388013BC38000E0C3881B04B8
:108AF00018D14FF47A73C380B1F87030013BA1F8FC
:108B000070301BB2B3F1FF3F0CDC0023D37091F83F
:108B10003B20013281F83B20D2B2052A02D3A1F8D2
:108B20003B3016E791F84020DAB10289013A028120
:108B3000120421D1B1F86E20013AA1F86E2012B2D0
:108B4000B2F1FF3F09DC0022022381F840201B4ADA
:108B50001376B1F86C20A1F86E204FF47A71018180
:108B60000AE091F83400022804BF002081F82F00A9
:108B7000B1F86C00A1F86E000E4C206B804794F8A1
:108B80005500012809D194F8540018B1013884F82F
:108B9000540002E0022084F8550094F8640010B1FB
:108BA000013884F86400206901302061B0BD00BF45
:108BB0000C000020600F002038090020600E00200B
:108BC000220A0020280A00202E0A0020340A002051
:108BD000040A00200A0A0020100A0020160A0020B9
:108BE000E6090020EC090020F2090020F809002025
:108BF000C8090020CE090020D4090020DA0900208D
:108C00001848C16941F08051C16117490A7842F0A2
:108C100004020A70C16921F08051C161016841F00C
:108C20000101016001688907FCD5416821F0030159
:108C30004160416811F00C0FFBD101680B4A1140F3
:108C400001600021416041F61071C1624FF4801152
:108C500001634FF41F01816005484FF0006101601E
:108C6000704700BF0010024050700040FFFFF2FE4E
:108C700008ED00E0704700000E48C168890618D56D
:108C80000168890615D50C490A78406880B280F0E1
:108C90005A0380F0A500134382F0010240EA02006B
:108CA000B0FA80F04FEA50104FEA400008BF0120B0
:108CB00008707047003801405C0A0020BCB5154CB4
:108CC000E06880060DD5206880060AD561687C4D75
:108CD00005F14800C9B203F0DAFA4FF48270A5F842
:108CE0005400E068400610D5206840060DD5744D4C
:108CF0006FF040000DF10701206005F1580003F00E
:108D0000B3FA18B1002085F86500BCBD9DF80700D6
:108D10006060BCBD00480040600F0020FEE710B559
:108D200080F807148224090A80F809341B0A80F8A5
:108D300005444AF25A5480F80614D11C80F80834CD
:108D400080F80414A0F8024400F202400821BDE8B3
:108D5000104003F0A5BC00000648BFF34F8F064A41
:108D6000016801F4E06111430160BFF34F8F00BF60
:108D7000FDE700BF0CED00E00400FA0500EB400148
:108D800007221E3902FA01F1044A136819431160DF
:108D9000916A21F01F010843906270470C24014042
:108DA000B0B5164C207840BBFEF7B5FE424D8008AA
:108DB0006860102001F0AAFDFBF777FD114B4FF022
:108DC0006632FBF7AEFA104B0022FBF7AAFA0F4A05
:108DD0000F4BFBF7FFF90F4A0F4BFBF714FBFBF7A9
:108DE0009EFDA5F87200013880B2312805D8686868
:108DF00080087C289CBF01202070B0BD800000202E
:108E00003809002066660AC00000303F295C8FC226
:108E1000F528F43F33E197FA795371BF02484FF4D4
:108E200080510160704700BF140C014002484FF4AC
:108E300080510160704700BF100C014010B51E4802
:108E400090F83200012810D11C4C2079042811D848
:108E5000DFE800F0031E11221800207E022827D030
:108E6000012814BF0020012023E0FFF7D7FF13489B
:108E70000021017610BDFFF7D9FF1148FEF733FE40
:108E800014390DE0FFF7CAFF00202071207610BDD5
:108E9000FFF7CCFF03200CE00948FEF724FE02395F
:108EA00072F10001E6D30021C0E90811042000E0BE
:108EB0000220207110BD00BF38090020600E002084
:108EC000600F0020F0B532490A68C2F38103314ACD
:108ED000022B08D0BBBB0B6D9B0534D5CB6A9B0125
:108EE00048BF2E4A2FE00B688C6AC3F30043002C66
:108EF0000BD40C680D68C5F34175C4F383440DB9F8
:108F00000F2C18D12D01013516E08C6A8D6A8E6AFE
:108F1000214FC4F30314C5F3082506F007061BB15F
:108F20000B689B0358BF174604FA06F207FB05F3CC
:108F3000B3FBF2F207E002252C4413B10B689B034C
:108F400000D5154A62430260154C0B68C3F3031346
:108F5000E35C144CDA4042600B68C3F30223E35C29
:108F600022FA03F3C3600B68C3F3C223E35C042457
:108F7000DA4082600B68096804EA9363C1F38131C7
:108F8000194409A3595CB2FBF1F10161F0BD00BFC6
:108F90000410024000127A0000093D00006CDC025F
:108FA000E4CB0008F4CB000802040608020C081009
:108FB0007CB5044600204FF6FF75C6B2662E09D870
:108FC000301901F06DFCADF80600B01CBDF80610BC
:108FD000A942F2D1BDF806007CBD00002DE9F047A2
:108FE000DFF8A8783878012818BFBDE8F087DFF8E7
:108FF000D86D307848B9012005213070388A00EBEF
:10900000C000B0FBF1F02030B88297F8300018B102
:1090100001281AD1796811E097F8391051B1012966
:1090200013D1B7F928107A68511A01EBC101A1F5E3
:10903000E17105E0B7F928107A68511A01EBC10116
:109040000522B1FBF2F12031B960B18D0522013169
:10905000B18589B2B1FBF2F202EB82028A1A57D0D3
:109060000322B1FBF2F202EB4202891A41F0A9811C
:10907000B17E97F83A200131012AB17640F0848020
:10908000F27E8AB9DFF8441D05224A70DFF8402DD0
:109090000021A6F81D10F9757982A2F87610C2F8A1
:1090A00072104FF480727283727E082A00F200837D
:1090B000DFE812F0090037015401690124016F0152
:1090C0007C018D019701002840F0EF8297F82F0076
:1090D00028B1032800F0B786022840F0E682B07F6E
:1090E000002841F04D8297F82C0097F82D2007F1C9
:1090F0001608012808BF002A01F03782012808BF9E
:10910000012A01F02A82002841F03A8201F02DBAAA
:10911000DFF8B88C97F83A1098F80200884204D12A
:1091200040F00202072A40F0B685F27F0F2A2ED8BF
:109130000F20DFE812F010002F00390043004D002F
:1091400057005F006E0084009A00B000B900C300B1
:10915000CD00AD05D400012940F05281FEF748FD55
:1091600000F24E81DFE810F004002A0433043E04CC
:10917000FEF7DFFC40F03F84FEF730FD40F03B841B
:10918000FEF72FFC00F038BC0020F07690E2084695
:1091900000F081BDFEF75AFD00F03581002840F057
:1091A0003C81B7F8743032E1FEF750FD00F04581A4
:1091B000002840F04C81B7F87A3042E1FEF746FDD6
:1091C00000F05581002840F05C81B7F8803052E112
:1091D000FEF73CFD00F06581002840F06C81B7F897
:1091E000863062E1DFF8EC0B97F8323045F22F0160
:1091F00000F006BC97F86900002840F03483FEF7C1
:1092000025FD00F01883002840F01F83B7F88C304C
:1092100015E397F86900032800F23885DFE810F0BD
:109220000400B901C301CD01FEF710FD00F0258453
:10923000002840F02C84B7F8923000F022BC97F858
:109240006900032800F22285DFE810F00400C10164
:10925000CB01D501FEF7FAFC00F02484002840F091
:109260002B84B7F8983000F021BC97F869000328E8
:1092700000F20C85DFE810F00400C901D301DD0124
:10928000FEF7E4FC00F02384002840F02A84B7F8BD
:109290009E3000F020BCFEF7D9FC00F01B810028B6
:1092A00040F021817B8C18E1FEF7D0FC00F0218199
:1092B000002840F0EB84B7F874301EE1FEF7C6FCDE
:1092C00000F02081002840F0E184B7F886301DE1ED
:1092D000DFF8000B97F8313045F22E0190E3DFF80C
:1092E000F40A97F8393045F23E01FEF762FB97F831
:1092F0003A0088F80200002000F0CABCDFF8D44A27
:1093000097F84000D4F80458002800F00481204663
:1093100046F2330102224FF46043A847B7F86E309B
:1093200002E1002840F0C18197F82F0028B10328FE
:1093300000F09E85022840F0B8810020798A3077BD
:10934000388A814240F0B785DFF8842AB98AB2F8BA
:1093500072208A4240F0B08500F03EBEFEF748FC25
:1093600000F27B81DFE810F004007B0184018F01B3
:10937000FEF7DFFB40F09081FEF730FC40F08C817F
:10938000FEF72FFB89E1FEF7BEFB00F0D48003203F
:109390008CE197F82F00002800F05581032800F099
:1093A0005481022840F0578101234FE1F8680021E1
:1093B0000A2888BF012197F82C00002818BF012037
:1093C00001EA000345F20501DFF8080A69E197F8B0
:1093D0002E30002B00F0DB80DFF8F8094FF4A041BD
:1093E0005FE197F82C10DFF8EC090222B1FA81F165
:1093F000D0F804484B0945F20201A047002056E18D
:10940000002000F044BCB7F87400FEF7CAFADFF899
:10941000C40945F21501FEF7CCFADFF8B849B7F8F0
:10942000763045F21601FEF793FBB7F87830FEF779
:10943000ECFA45F2170100F027BCB7F87A00FEF706
:10944000B0FADFF8900945F21801FEF7B2FADFF83A
:109450008449B7F87C3045F21901FEF779FBB7F87B
:109460007E30FEF7D2FA45F21A0100F00DBCB7F8D3
:109470008000FEF796FADFF85C0945F21B01FEF763
:1094800098FADFF85049B7F8823045F21C01FEF730
:109490005FFBB7F88430FEF7B8FA45F21D0100F023
:1094A000F3BBB7F88600FEF77CFADFF8280945F22F
:1094B0001E01FEF77EFADFF81C49B7F8883045F246
:1094C0001F01FEF745FBB7F88A30FEF79EFA45F21A
:1094D0002001D9E3788CFEF764FADFF8F80845F24A
:1094E0003301FEF766FADFF8EC08BB8C45F2340175
:1094F00086E2B7F87400FEF754FADFF8D80845F2B0
:1095000015017DE2B7F88600FEF74BFADFF8C408D4
:1095100045F21E0174E2204646F2330102224FF664
:10952000FF73A847B7F86C30FEF76FFA45F20801F1
:109530000222A847B9E0DFF8A088CF49D8F8140084
:10954000FBF71EF90446FBF7BDF9DFF888980346E0
:1095500045F209010222D9F804584846A847C749EC
:109560002046FBF74BF9D9F80448002840F0ED817C
:10957000D8F81400C049FBF703F9FBF708FAC04B11
:109580000022FAF7CEFEFBF7CAF90346DEE1082017
:109590008DE0FEF75BFB00F0AF82002840F0B68262
:1095A000B7F8B030ACE2FEF751FB00F0BA82002809
:1095B00040F0C182B7F8CE30B7E2FEF747FB00F0CB
:1095C000C582002840F0CC82B7F8EC30C2E2FEF74A
:1095D0003DFB00F0D482002840F0DB82B7F8B630C3
:1095E000D1E2FEF733FB00F0DF82002840F0E68294
:1095F000B7F8D430DCE2FEF729FB00F0EA8200285D
:1096000040F0F182B7F8F230E7E2FEF71FFB00F01E
:10961000F982002840F00083B7F8BC30F6E2FEF78C
:1096200015FB00F00483002840F00B83B7F8DA3014
:1096300001E3FEF70BFB00F00F83002840F01683D8
:10964000B7F8F8300CE3002300E00223DFF88407CA
:1096500045F2010125E0052028E0022026E0FEF782
:109660006DFA19D1FEF7B0FA16D1FEF7A6F914E09B
:10967000FEF769FA10D1FEF720FA0ED1FEF717FABD
:1096800008BF032309E0FEF768FA05D1FEF7ABFA3D
:1096900002D1FEF79CF900E00023DFF8380745F21D
:1096A0000F01D0F804480222A047707E0130707686
:1096B000DFF818A7BAF80C000138AAF80C0000046B
:1096C00040F06A850120AAF80C0097F83A000228B9
:1096D0002DD196F8230058B9DFF8F4160020F8755C
:1096E000A1F87C00DFF8F01608600120C6F823001E
:1096F00096F82200052800F24F85DFE800F0031DF0
:109700003E4D637897F82F0040F00200022840F0A9
:109710002F84388A798A814240F01D81DFF8B8268B
:10972000B98A52888A4240F0178100F0F2BB0021CA
:1097300086F8231000F032BD97F82F0040F00200A9
:10974000022840F0078596F82400002840F0BF84E6
:1097500097F82C1097F82D2007F11600012908BF63
:10976000002A00F0AD84012908BF012A00F0968488
:10977000002940F0AC8400F0A3BC7868FBF795F8B2
:10978000404A414BFAF7CDFDFBF7C9F80346DFF835
:10979000440645F20B016BE197F82C0097F82D1069
:1097A000012808BF002900F00381012808BF012912
:1097B00000F02B81002840F0EA84DFF81806D0F88A
:1097C00004482CE1FEF714FA00F22E81DFE810F0D5
:1097D00004002E0137014201FEF7ABF940F043814E
:1097E000FEF7FCF940F03F81FEF7FBF83CE1DFF8C3
:1097F000E48597F84000D8F8044848B1404646F25E
:10980000031102224FF46043A047B7F86E3008E01E
:10981000404646F2031102224FF6FF73A047B7F805
:109820006C30D8F80448404645F212010222A047A5
:10983000002000F0AFBCB7F88C00FEF7B2F8DFF8FC
:10984000940545F22201FEF7B4F8DFF88845B7F831
:109850008E3045F22301FEF77BF9B7F89030FEF722
:10986000CDF897F8690001282AD1FEF7EFF90FD05B
:10987000C0B9B7F8AA300FE000C01544000040405E
:109880000000D03F9A9999999999D93F38090020B9
:10989000B7F8AA00FEF785F8DFF8380545F222018F
:1098A000FEF787F8DFF82C45B7F8AC3045F2230116
:1098B000FEF74EF9B7F8AE30FEF7A0F897F869005A
:1098C00002281ED1FEF7C2F903D060B9B7F8C8303C
:1098D00003E0B7F8C800FEF764F8DFF8F80445F2D3
:1098E0002201FEF766F8DFF8EC44B7F8CA3045F21B
:1098F0002301FEF72DF9B7F8CC30FEF77FF897F883
:109900006900032840F0C281FEF7A0F903D060B9D6
:10991000B7F8E63003E0B7F8E600FEF742F8DFF804
:10992000B40445F22201FEF744F8DFF8A844B7F882
:10993000E83045F22301FEF70BF9B7F8EA30D4F826
:109940000458204645F224019EE10123DFF88404F7
:1099500045F20A01A7E6B98A788296F82500DFF871
:1099600078245180A0B9DFF86C4445F2030102224B
:1099700001234FF00108FEF76DF8D4F804C8204623
:1099800046F2C30102224FF66043E04786F8258085
:10999000DFF83C040021A0F87A1097F83100002885
:1099A00000F0AE82012840F0B48207F11400A9E271
:1099B000DFF82004BB7DD0F80448F1E2FEF7BEF8E2
:1099C00019D1FEF701F916D1FDF7F7FF14E0FEF704
:1099D000BAF810D1FEF771F80ED1FEF768F808BF9B
:1099E000032309E0FEF7B9F805D1FEF7FCF802D130
:1099F000FDF7EDFF00E00023DFF8E40D45F20F0175
:109A0000D0F804480222A04740E1DFF8D40DD0F896
:109A100004487868402800F2C082DFF8C40D45F29F
:109A20000C010222002326E00420B2E3FEF786F8B0
:109A300019D1FEF7C9F816D1FDF7BFFF14E0FEF704
:109A400082F810D1FEF739F80ED1FEF730F808BFD2
:109A5000032309E0FEF781F805D1FEF7C4F802D12F
:109A6000FDF7B5FF00E00023DFF8740D45F20F01AC
:109A7000D0F804480222A04789E3B7F89200FDF726
:109A800090FFDFF85C0D45F22501FDF792FFDFF84E
:109A9000504DB7F8943045F22601FEF759F8B7F863
:109AA000963067E0B7F89800FDF77BFFDFF8300DE0
:109AB00045F22801FDF77DFFDFF8244DB7F89A3015
:109AC00045F22901FEF744F8B7F89C3095E0B7F865
:109AD0009E00FDF766FFDFF8080D45F22B01FDF74C
