:020000040800F2
:104000009030002085410008C1490008BD490008E2
:10401000BF490008B9490008CD760008000000003B
:10402000000000000000000000000000C96A000855
:10403000BB4900080000000021530008CD6A0008B9
:104040009F4100089F4100089F4100089F410008D0
:104050009F4100089F4100089F4100089F410008C0
:104060009F4100089F4100089F4100089F410008B0
:104070009F4100089F4100089F4100089F410008A0
:104080009F4100089F4100089F4100089F41000890
:104090009F4100089F4100089F4100089F41000880
:1040A0009F4100089F4100089F4100089F41000870
:1040B00039710008D97400089F4100089F41000829
:1040C0009F4100089F4100089F4100089F41000850
:1040D0009F410008B9750008117600086D76000848
:1040E0009F4100089F4100089F4100080000000018
:1040F00000000000000000000000000000000000C0
:10410000000000009F4100089F41000800000000DF
:10411000017500085D750008000000000000000047
:104120009F4100089F4100089F4100089F410008EF
:10413000000000000000000000000000000000007F
:104140000000000000000000000000009F41000887
:1041500000000000000000009F4100089F4100088F
:104160000000000000000000000000009F41000867
:10417000DFF80CD000F0A0F9004800476DC100083E
:10418000903000200648804706480047FEE7FEE7DB
:10419000FEE7FEE7FEE7FEE7FEE7FEE7FEE7FEE7F7
:1041A000C5700008714100082DE9FE4F804681EA84
:1041B0000300C00F0C46009021F0004123F00045A1
:1041C000B8EB0200A94105D24046214690461C4664
:1041D0000B46024623F00040104347D0270DC7F39B
:1041E0000A00C3F30A510290401A019040286BDA8A
:1041F000C3F3130040F4801B0098924620B10023C3
:10420000D2EB030A63EB0B0B01985946C0F1400255
:10421000504600F069F906460D4650465946019A47
:1042200000F081F910EB08006141002487EA115287
:1042300084EAE7731A4340D0009A62B3019A012AD4
:104240004FEA075215DC001B61EB02014FF0004200
:1042500002EA0752CDE90042001C41F580113246C6
:104260002B4600F081F903B0BDE8F08F40462146AF
:10427000F9E7001B61EB0201001C41F580130018F7
:104280005B412018A2F5001747EB030140EAD57007
:10429000B6196D4111E06D084FEA360645EAC07562
:1042A0004FEA0752001B61EB0201001C41F580112F
:1042B00049084FEA30000019514132462B4603B0FD
:1042C000BDE8F04F00F041B9009801224000002302
:1042D000D0EB020263EBE073009821464FEAE074F2
:1042E000B8EB000061EB0401E9E783F000435BE712
:1042F00081F0004158E72DE9FE4F81EA030404F004
:10430000004421F0004100944FF0000B23F00043E3
:1043100050EA01045ED052EA03045BD0C3F30A54AE
:10432000C1F30A552C44A4F2F3340194A0FB0254C7
:10433000C1F3130141F48011C3F3130343F4801359
:1043400001FB024400FB034E840A970A44EA8154AD
:1043500047EA8357A4FB076802958D0A05FB07858A
:104360004FEA932C04FB0C542705029D4FEA065894
:1043700047EA1637B5EB08056EEB070C870E920E71
:1043800047EA811742EA8312A7FB0201B6EB0B0151
:1043900064EB00042B0D43EA0C335E1844EB1C5015
:1043A000DA465146E7FB0201C5F313044FEA0B332B
:1043B00043EA14534FEA0432019C43EA0603A4F192
:1043C0000C040294009CCDE900B400F0CDF803B0D9
:1043D000BDE8F08F00200146F9E72DE9F04D81EAB4
:1043E000030404F0004B21F0004514464FF0000A8E
:1043F00023F0004150EA050220D054EA01021DD00A
:10440000C5F30A570246C5F31303C1F31300C1F302
:104410000A5640F4801543F48013A7EB0608101BDE
:10442000D64608F2FD3873EB050002D308F1010807
:1044300001E092185B41B8F1000F03DA0020014659
:10444000BDE8F08D00204FF48011064684460EE052
:10445000171B73EB050705D3121B63EB050306431C
:104460004CEA010C49084FEA300092185B4150EACF
:104470000107EDD152EA030012D082EA040083EA78
:104480000501084305D0101BAB4106D201220023D1
:1044900006E000224FF0004302E06FF001025310EB
:1044A0001AEB06004CEB085110EB0A0041EB0B0134
:1044B000BDE8F04D00F049B81CB509480090094826
:1044C00001900546009C06E0E06840F0010394E896
:1044D000070098471034AC42F6D3FFF74DFE0000BA
:1044E00078E0000898E00008202A04DB203A00FA6F
:1044F00002F1002070479140C2F1200320FA03F33B
:10450000194390407047202A04DB203A21FA02F038
:104510000021704721FA02F3D040C2F120029140FD
:10452000084319467047202A06DBCB17203A41FA88
:1045300002F043EAE07306E041FA02F3D040C2F130
:104540002002914008431946704710B5141E73F1BC
:10455000000408DA401C41F1000192185B411A4343
:1045600001D120F0010010BD2DE9F04D92469B468F
:1045700011B1B1FA81F202E0B0FA80F22032904635
:10458000FFF7B2FF04460F4640EA0A0041EA0B017A
:1045900053465A46084313D0114653EA010019D036
:1045A000C8F140025046FFF7AEFF05460E465046A2
:1045B00059464246FFF798FF084305D0012004E022
:1045C00020463946BDE8F08D0020054346EAE076F6
:1045D0002C4337430A986305E40AA0EB0800002245
:1045E000FD0A44EA47540A3002D500200146E9E7B3
:1045F000010510196941DDE9084500196941BDE867
:10460000F04DA2E7D2B201E000F8012B491EFBD227
:1046100070470022F6E710B513460A4604461946CD
:10462000FFF7F0FF204610BDF0B480EA0102D40F7E
:104630004200B2EB410F02D20246084611464A0040
:1046400042D0C30DDDB2C1F3C752AD1A202D35DA09
:10465000C1F3160141F4000204B15242C5F1200633
:1046600002FA06F12A411044B3EBD05F23D0C4B163
:10467000012DA0EBC35009DCF0BC4FF0004202EA70
:10468000C352DBB200F5000000F068B9400000F151
:10469000807000EBC350A0F1807040EAD1704900F7
:1046A00009E0490841EAC071A0EBC35000F50000E1
:1046B000400800EBC350F0BC00F047B96142012252
:1046C00002EB4101001BF6E7F0BC704781F00041AE
:1046D000AAE780F00040A7E780EA010210B502F0E7
:1046E0000043400022D04A001FD0010E01EB1261AE
:1046F000C0F35600C2F3560240F4000042F4000238
:10470000A0FB022000047F39140400D0401C50EAB2
:10471000124001D44000491EC2B20C0604EBD01076
:10472000401C4008802A02D003E0002010BD20F089
:104730000100002900DA0020184310BD30B480EADF
:10474000010202F0004530F0004221F0004013D099
:1047500090B1C30DD40DC2F31601C0F31600E41AD4
:1047600041F4000140F400027D34914201D3641C05
:1047700000E04900002C02DA30BC002070474FF402
:1047800000000023914201D3891A034340084FEAF5
:104790004101F7D151B1914202D14FF0004105E002
:1047A00002D24FF0010101E06FF0010103EBC450B0
:1047B000284430BC00F0C9B8002801DBC0F100403B
:1047C000002901DBC1F10041814201D8012070477D
:1047D00000207047002801DBC0F10040002901DB08
:1047E000C1F10041814201D2012070470020704791
:1047F000002801DBC0F10040002901DBC1F10041CC
:10480000814201D30120704700207047002801DB5E
:10481000C0F10040002901DBC1F10041814201D912
:104820000120704700207047C10F80EAE070084403
:10483000CA079623002100F091B896230022114662
:1048400000F08CB80EB5C10F80EAE0700844CA07CA
:10485000002140F233438DE80E000A460B46FFF775
:1048600083FE03B000BD0EB540F23341029100213A
:10487000CDE900110A460B46FFF776FE03B000BDF6
:1048800000F0004220F00040C10DC0F3160040F4DB
:1048900000007F2901DA00207047962903DCC1F16E
:1048A0009601C84001E096398840002AF4D0404281
:1048B000704720F00040C10DC0F3160040F4000026
:1048C0007F2901DA00207047962903DCC1F19601A7
:1048D000C840704796398840704770B5C1F30A5296
:1048E00001F000450024C1F3130140F2FF3341F40D
:1048F00080119A4201DA002070BD40F233439A429F
:10490000A2F2334203DC5242FFF7FDFD00E090408B
:104910002C43F1D0404270BDC1F30A5210B5C1F32F
:10492000130140F2FF3341F480119A4201DA002072
:1049300010BD40F233439A42A2F2334203DC5242AA
:10494000FFF7E1FD10BD904010BD0029A8BF7047E2
:10495000401C490008BF20F00100704710B4B0FAB5
:1049600080FC00FA0CF050EA010404BF10BC704750
:1049700049B1CCF1200421FA04F411FA0CF118BF6A
:10498000012121430843A3EB0C01CB1D4FEA006139
:104990004FEA102042BF002010BC704700EBC3500C
:1049A00010440029A4BF10BC7047401C490008BF38
:1049B00020F0010010BC7047FEE77047FEE7FEE7FD
:1049C00070470222D0F804412047218940F2E733A2
:1049D00009BA0A0C9A42704706F1320102200A22F3
:1049E00086F83B4009F02EBAA6F83201A4F1160071
:1049F0002847A6F82E01A4F118002847A6F82C0194
:104A0000A4F11A002847A6F82A01A4F11C0028479F
:104A1000A6F82601A4F11E002847A6F82401A4F157
:104A200020002847A6F82201A4F122002847A6F872
:104A30002001A4F124002847A6F81E01A4F12600B5
:104A40002847A6F81C01A4F1280028479BF841003C
:104A5000012870473146ADF8115003907047A6F811
:104A60001801A4F12A002847A6F81601A4F12C0089
:104A70002847A6F81401A4F12E002847A6F8100133
:104A8000A4F130002847A6F80E01A4F1320028470F
:104A9000A6F80C01A4F1340028470120A1F8590020
:104AA00091F83B000328704701204FF00008002BCD
:104AB00081F854007047A6F80801A4F13600284791
:104AC0000922088400EB8000A03890FBF2F0888374
:104AD0007047A6F80601A4F138002847A6F804019B
:104AE000A4F13A002847A6F80001A4F13C002847A9
:104AF000A6F8FE00A4F13E002847A6F8FC00A4F1A9
:104B00004000284791F846200020A5F81500002A0B
:104B10007047A6F8FA00A4F142002847A6F8F8006A
:104B2000A4F144002847A6F8F600A4F1460028475F
:104B3000A6F8F200A4F1480028470522888300EB7C
:104B4000C000B0FBF2F020300884704796F83B00BC
:104B500000287047A6F8F000A4F14A002847A6F8FC
:104B6000EE00A4F14C002847A6F8EA00A4F14E009C
:104B70002847A6F8E800A4F150002847A6F8E60068
:104B8000A4F152002847A6F8E200A4F154002847F7
:104B9000A6F8E000A4F156002847A6F8DE00A4F12C
:104BA00058002847A6F8DA00A4F15A0028472089BF
:104BB00040F2E73200BA010C91427047A6F8D800E3
:104BC000A4F15C002847A6F8D600A4F15E002847AF
:104BD000A6F8D200A4F160002847A6F8D000A4F1FE
:104BE00062002847A6F8CE00A4F164002847A6F882
:104BF000CA00A4F166002847A6F8C800A4F168001E
:104C00002847A6F8C600A4F16A002847A6F8C20003
:104C1000A4F16C002847A6F8C000A4F16E00284754
:104C2000BDF804200A32ADF804209DF807200132B7
:104C30008DF807207047A6F8BE00A4F17000284741
:104C4000A6F8BA00A4F172002847A6F8B800A4F1AB
:104C500074002847A6F8B600A4F176002847A6F805
:104C6000B200A4F178002847A6F8A800A4F17A00C1
:104C70002847A6F8A600A4F17C002847A6F8A400BF
:104C8000A4F17E002847A6F8A200A4F180002847DE
:104C9000A6F8A000A4F18200284705248B8303EB2B
:104CA000C303B3FBF4F320337047A6F89E00A4F1CE
:104CB00084002847A6F89C00A4F186002847A6F89F
:104CC0009A00A4F188002847A6F89800A4F18A0069
:104CD0002847A6F89600A4F18C002847A6F894006F
:104CE000A4F18E002847A6F89200A4F1900028476E
:104CF00086F84B00A4F19400284786F84900A4F1F7
:104D000096002847A0F89E50A0F82651A0F8005120
:104D100070470922018401EB8101A03991FBF2F176
:104D2000704786F84800A4F19800284786F84600A6
:104D3000A4F19A00284786F84500A4F19C00284772
:104D400086F84400A4F19E00284786F84300A4F1A9
:104D5000A000284786F84200A4F1A200284786F860
:104D60004100A4F1A4002847A6F88A00A4F1A600F7
:104D7000284786F84000A4F1A800284786F83600A6
:104D8000A4F1AC00284709240B8403EB8303A03B68
:104D900093FBF4F3704786F82400A4F1AE00284793
:104DA00086F82200A4F1B000284786F84C00A4F150
:104DB000920028470522818301EBC101B1FBF2F18A
:104DC0002031704701EB81010922A03991FBF2F1FA
:104DD00070470220002196F8223085F84C0001200F
:104DE00070470523218902EBC20249BAB2FBF3F2F4
:104DF000704795F841000128704795F85000002849
:104E0000704790F84D104A1E022A704780F8232000
:104E1000C28380F8891090F841100029704790F8FB
:104E20003820002180F85310012A7047002180F8B3
:104E3000231090F83B10032970472846042102F004
:104E400003BD0221092280F8281040F20141C184EB
:104E500000F12001022008F0F5BF01EBC101B1FB18
:104E6000F0F12031704790F8881003297047D0F88E
:104E70000451284780F88930828380F8224090F8D6
:104E80003820704700204FF0012281F8570081F848
:104E90002300C88391F88900C1F8532070474FF070
:104EA000011242650122A0F8592000227047208992
:104EB000C82200BA010CC82970470121A0F8591076
:104EC00090F824107047010E87F8160187F8131127
:104ED000010C000A87F8141187F8150170470020AB
:104EE000C88391F841000128704796F84100B6F850
:104EF0008A10012870472189C82309BA0A0CC82AD8
:104F00007047D0F804410222204752F82110098846
:104F1000A5F88E1070470021C18390F84110012937
:104F2000704795F84E00411EC9B204297047A0F899
:104F30003E11A0F81811A0F8F210A0F8E210A0F8A5
:104F4000BA10704790F84110012970470A2280F882
:104F50003B4000F13201022008F074BFADF826801A
:104F60008DF82170CDF8224008F020BA012180F898
:104F70004C1070470121A0F85410A0F859100021DE
:104F8000C183617A01297047218990F8412049BA8B
:104F9000012A70479DF807006060BCBD90F83B1087
:104FA000002970470222D0F8047138470222D0F855
:104FB00004613047B0FBF1F0203070479BF93700B7
:104FC000DBF8041008449BF93610401A7047218919
:104FD000092209BA090C704780F88930A0F88A20A4
:104FE000704791B28283C90011FA82F1704707F5C8
:104FF000017520461022294602F004BCD0F8044175
:10500000204796F84E00013804287047026842F0A5
:1050100001020260F020162287F817017047002075
:1050200081F8230091F82200704794F84E0001386F
:10503000032870479BF84E00013803287047338CD3
:10504000092103EB83007047B38B052103EBC300F9
:1050500070479BF84D0001287047D0E916120131C6
:1050600042F10002C0E91612704790F84D10022973
:105070007047016841F008010160016841F00401D6
:105080000160016821F400710160016821F4806110
:105090000160816821F480718160816821F4007170
:1050A0008160016841F020010160016841F0400128
:1050B0000160016841F40051016070470A6842F0E4
:1050C00001020A60B97CB1EB106F70470027C6E996
:1050D0005C0704F12200284700220A62CA614A6183
:1050E0000A61F265706070472846FFF792BA0221A4
:1050F00080F84C107047C9B208F000B9018C40F23A
:10510000713301F132029942704791B202848900F1
:1051100011FA82F1A0397047BDF80C209DF80B30D0
:105120001A4482427047A6F8680104F1200028471B
:1051300040F00800F060F06840F00400F060F068B3
:1051400020F40070F060F06820F48060F060706916
:1051500020F480707061706920F400707061F068F4
:1051600040F02000F060F06840F04000F060F0682F
:1051700040F40050F0607047A6F8660104F11A0090
:105180002847A6F8640104F118002847A6F8620130
:1051900004F116002847A6F8600104F1140028471E
:1051A000A6F85E0104F112002847A6F85C0104F19C
:1051B00010002847A6F85A0104F10E002847A6F867
:1051C000580104F10C002847A6F8560104F10A0022
:1051D0002847A6F8540104F1080028470121A0F847
:1051E0005610A0F85910002180F8231090F82210D2
:1051F0007047214608F026BE206820F0010020609C
:1052000010BDA6F84401A4F108002847A6F8420101
:10521000A4F10A002847A6F83E01A4F10C00284793
:10522000A6F83C01A4F10E002847A6F83A01A4F123
:1052300010002847A6F83601A4F112002847B9F853
:105240005210F0650131A9F852107047A6F83401E8
:10525000A4F11400284700002DE9FC41FFF736FABD
:105260002D4F78617869F969FFF7DEF9F8612B4C09
:10527000F8692146FFF7AEFA00B9FC61F869002130
:105280000024FFF7C3FA00B9FC61D7E9008678690A
:105290007C6A3969FFF71AFAB86130467D69F969A5
:1052A000FFF71AFA0190009401980099FFF784FA29
:1052B00008B9009801900198009981F00041FFF72A
:1052C00097FA18B9009880F00040019040462946AE
:1052D000FFF702FA0199FFF7A7F90446B8687D695C
:1052E000B969FFF7F9F92146FFF79EF938623D6188
:1052F000386AB96AFFF760FA08B9B86A3862386A7A
:10530000B96A81F00041FFF773FA08B900203862EA
:10531000386ABDE8FC8100BF0423002000C82F4785
:10532000704700002DE9F041451C04460220294643
:1053300008F06AFD84F88100C0B2092841F0AC820F
:1053400028785A2841F0A582A078A52841F0A182AA
:10535000A0790B38482801F29C82DFE810F0490060
:10536000BF02A202800235039A0A9A0A9A0A9B0295
:10537000C101D60159022E025F0371016401940339
:105380006602730276030D03FB03ED01B203110104
:10539000AA013F013B02280135041E047E01F401ED
:1053A000D20212027C045D018D036C040301F00241
:1053B000F700BB0095015202AB039A0A9A0A9804BF
:1053C0009A0A0A01E9029A0A9A0A9A0A21039A0A8F
:1053D00083041A03E1009A0A9A0A9A0A72003205B3
:1053E0005304A2004A03D0038D000804E6034E05CF
:1053F000DFF8B46C002086F84700FFF7A7FB41F008
:105400004882207A657A0002FFF71CFA8046284617
:105410000F46FFF728FAE04B0022FEF76CFF4246EA
:105420003B46FEF7C1FEFFF758FA642898BF642098
:10543000B08300EBC0000521FFF7BCFD308401F014
:1054400028BADFF8AC0EFFF7A9FD41F02282FFF782
:1054500091FD00F0E687002941F01B82FFF772FD05
:1054600001F06181002941F01482818B642264295A
:1054700088BF4A1E00F0BEBCDFF8740EFFF78EFD39
:1054800041F00782FFF7CBFC00F0DA87002A40F0FA
:10549000D887FFF7EAFD1CBF012180F8381000F023
:1054A000D0BF607A012800F0BE84002841F0F1816D
:1054B000DFF83C0E90F83B10032900F0F487002938
:1054C00041F0E781FFF78AFE0A2940F2B1830539EE
:1054D00000F0C8BFDFF8180EFFF760FD41F0D9817A
:1054E00090F84120617A012A08D1227A41EA02210A
:1054F000092201EB8101A03991FBF2F1027F90F8C2
:105500003630511A194449B26429A8BF642111F1F7
:10551000640FD8BF6FF0630180F8361001F0B9B99D
:10552000DFF8CC6DFFF712FB41F0B381607A002801
:1055300041F04481DFF8BC5D95F82100002801F0BE
:105540004C80DFF8B40D408C01F04FB8FFF72FFB13
:1055500038BF020CDFF8980D012A98BF012242865D
:1055600001F097B9607ADFF8881D81F8460001F0F4
:1055700090B9607ADFF8781D81F8480001F089B9A8
:10558000DFF86C0DFFF76FFC01F28381DFE811F0AB
:10559000040060053F055505FFF7ADFC38BF0B0C57
:1055A000052B98BF0523A0F8B63001F072B9DFF8DB
:1055B000400DFFF758FC01F26C81DFE811F00400A8
:1055C000920533058805FFF700FA38BF0B0C012B55
:1055D00098BF0123A0F8C03001F05BB9DFF8100DCF
:1055E000FFF741FC01F25581DFE811F00400960558
:1055F00060058505FFF7C8FCA0F8BA1004D1FFF7D5
:10560000E1FBA0F8BA1089B2642900F27687642120
:10561000A0F8BA1001F03DB9607ADFF8D41C81F827
:10562000420001F036B9FFF7C2FA38BF020CDFF8CA
:10563000C00C012A98BF0122A0F89C2001F029B9D2
:10564000FFF735FC38BF020CDFF8A40C052A98BF21
:105650000522A0F89A2001F01CB9DFF8940CFFF79E
:1056600002FC01F21681DFE811F0040086056805EE
:105670007205FFF7AAF938BF0B0C012B98BF012365
:10568000A0F8C83001F005B92089DFF8641C0022B9
:1056900040F2E73300BA81F85320020C9A4238BF37
:1056A000030C002A08BF0123CB84A1F88A3001F043
:1056B000F0B8DFF83C0CFFF7D6FB01F2EA80DFE838
:1056C00011F00400890550057F05FFF77EF938BF0A
:1056D0000B0C012B98BF0123A0F8B83001F0D9B80A
:1056E000208900BA000C022800F08784012800F00D
:1056F0007D84002841F0CD80DFF8F40B012180F893
:10570000401080F84C1001F0C4B8DFF8E40B90F8BA
:105710004110002900F09883012940F0A883FFF789
:1057200056FCA0F8AA1001EB8101A03991FBF2F11F
:10573000A0F8921089B29CE3607ADFF8B41B81F87C
:10574000880001F0A6B8DFF8A80BFFF78CFB01F288
:10575000A080DFE811F0040064051A054905FFF791
:1057600013FCA0F8CA1004D1FFF72CFBA0F8CA1054
:1057700089B2642900F2E1866421A0F8CA1001F020
:1057800088B8DFF86C0BFFF76EFB01F282800FF236
:105790000C02D2E811F000BF0000044007005505DC
:1057A0000B053A05FFF711F938BF0B0C012B98BF19
:1057B0000123A0F8D03001F06CB8FFF7F8F938BF3A
:1057C000020CDFF82C0B012A98BF0122A0F89620CA
:1057D00001F05FB8DFF8180BFFF745FB01F25980C5
:1057E000DFE811F004004C0538054205FFF783FBA4
:1057F00038BF0B0C052B98BF0523A0F8BE3001F075
:1058000048B8607ADFF8E81A81F8490001F041B839
:10581000FFF74DFB38BF020CDFF8D40A052A98BF0A
:105820000522A0F8942001F034B8FFF740FB38BF00
:10583000020CDFF8BC0A052A98BF0522A0F8A020B8
:1058400001F027B8FFF7B3F938BF020CDFF8A00A60
:10585000012A98BF0122A0F8A22001F01AB8DFF8AF
:10586000900A0022012180F8232090F83B20A0F824
:105870005610A0F85910032A00F0F082002A41F0D7
:105880000880617A052998BF0521C82928BFC82149
:1058900000F0E8BD607ADFF8581A81F84D0000F09A
:1058A000F8BFDFF84C0A0121A0F85410A0F85910F5
:1058B0000021C183FFF772FB40F0EB87218909BA11
:1058C0000A0CFFF73FFB40F08C8502EB82010923B5
:1058D000A03991FBF3F3114600F08ABDDFF8100AFE
:1058E000012190F83B2080F84710032A00F0DE8267
:1058F000002A40F0CE87617A052998BF052100F083
:10590000B1BDDFF8EC09FFF7AEFA00F2C287DFE8BD
:1059100011F00400D304BF04C904FFF7ECFA38BF48
:105920000B0C052B98BF0523A0F8CE3000F0B1BFBB
:10593000607ADFF8BC1981F84C0000F0AABF20891A
:1059400000BA010CDFF8A80990F84120C185002AAF
:1059500000F0B282012A40F09C87D42928BFD421CC
:10596000212998BF212101EB81010922A03989B2A7
:10597000B1FBF2F100F08CBFFFF799FA38BF020CCF
:10598000DFF86C09052A98BF0522A0F8A62000F0D0
:1059900080BF607ADFF8581981F84A0000F079BFBB
:1059A000617ADFF84C09002980F84F1000F08D82F1
:1059B000012940F06E87012180F84E10B0F8B81030
:1059C000A0F88E1000F065BFDFF82409FFF7E6FAB3
:1059D00040F05F87FFF723FA00F03985002A40F096
:1059E0003785FFF742FB1CBF012180F8381000F01B
:1059F0002FBDDFF8FC08FFF7D1FA40F04A87FFF728
:105A00000EFA00F02B85002A40F02985FFF72DFBC8
:105A10001CBF012180F8381000F021BDDFF8D0084C
:105A200090F84110002900F05582012940F0708261
:105A3000FFF7CDFAA0F8AC1001EB8101A03991FB82
:105A4000F2F1A0F8981089B264E2DFF8A40890F8A7
:105A50004110002900F04882012940F07882FFF7C8
:105A6000B6FAA0F8B01001EB8101A03991FBF2F178
:105A7000A0F8A41089B26CE2607ADFF8741881F89B
:105A8000430000F006BFDFF8680890F841100029D5
:105A900000F03482012940F07982FFF798FAA0F8EB
:105AA000AE1001EB8101A03991FBF2F1A0F89E103C
:105AB00089B26DE2607ADFF8381881F84B0000F0A7
:105AC000E8BEDFF82C08FFF7CEF900F2E286DFE847
:105AD00011F004002604FD031504FFF755FAA0F8A1
:105AE000B21004D1FFF76EF9A0F8B21089B26429A0
:105AF00000F243856421A0F8B21000F0CABEDFF8BE
:105B0000F067FFF723F840F0C486607A002840F081
:105B10007686DFF8E05795F82300002800F08485AA
:105B2000DFF8D407C08C00F087BDDFF8C407FFF7AB
:105B300035FA40F0AE86FFF772F900F09684002A3D
:105B400040F09484FFF791FA1CBF012180F83810CF
:105B500000F08CBCFFF72BF838BF020CDFF8900781
:105B6000012A98BF0122A0F8A82000F092BEDFF819
:105B70008067FEF7EBFF40F08C86607A002840F0EB
:105B80005F86DFF8705795F82500002800F07385D0
:105B9000DFF86407408D00F076BDDFF85407FFF7AB
:105BA00062F900F27686DFE811F004000104CB030D
:105BB000E603FFF7A0F938BF0B0C052B98BF0523B0
:105BC000A0F8C63000F065BEDFF82407FFF74BF9F8
:105BD00000F25F86DFE811F00400F403BE03D9038E
:105BE000FFF7D2F9A0F8C21004D1FFF7EBF8A0F844
:105BF000C21089B2642900F2E0846421A0F8C210C6
:105C000000F047BE607A012800F0DF81002840F0F4
:105C10004086DFF8DC0690F83B10032900F04F8443
:105C2000002940F03686FFF7D9FA052900F2718580
:105C3000052100F017BCDFF8BC26607ADFF8B0164B
:105C400092F8283081F84400834200F02286002335
:105C500082F8280015E0607ADFF85C1E81F84100C8
:105C600000F017BEDFF8542E607ADFF84C1E92F871
:105C7000293081F84500834200F00B86002382F82A
:105C8000290081F83B3081F8533000F002BE617A80
:105C9000DFF8240E002918BF012180F8511000F010
:105CA000F88501263C211E230A25EF4F4FF4BE72D2
:105CB0004FF0000E4FF0640C4FF4E17880F846602E
:105CC000EA4E80F822104FF4337143863223C584A4
:105CD000A0F88A504FF480358283A0F89820A0F86D
:105CE0003621A0F81021A0F8EA20962280F841E0A1
:105CF00080F836E080F824C080F84CE0A0F8A4805A
:105D0000A0F80881A0F8CAC080F889E001844FF0AB
:105D10000131C385D64B8564D64DC0F8A670D64FE9
:105D2000A0F8DA20A0F8B220C0F8AA604FF4AF764D
:105D3000C0F84210D149A0F89260D14EC0F8BE30F0
:105D4000C0F8E630CF4BC0F89450CF4DC0F8B670D5
:105D5000C0F8EE70C0F8C610CC49C0F89A60CC4EBE
:105D6000C0F80431C0F82A314FF4FA73C0F8AE50CD
:105D70004FF4C875C0F8CE10C0F8F610C0F81C116A
:105D8000C449A0F82E314FF48C73FEF7BBFFC0F866
:105D9000A060C14EA0F8C230C0F83211BF49C0F8AF
:105DA000DE60BF4EC0F842114FF48271C0F80C6142
:105DB000BC4EFFF7BCF8C0F81461C0F83A6100F0BF
:105DC00068BDDFF8F40CFFF7E9F840F06285FFF7F3
:105DD000D1F800F05183002940F05B85FFF7B2F85D
:105DE00000F0B284002940F05485818B4A1F6A2953
:105DF00038BF6422FFF7F5F84FE3DFF8BC6CFEF71D
:105E0000A5FE40F04685607A002840F03A85DFF82C
:105E1000AC5C95F82700002800F05484DFF8A00C53
:105E2000C08D00F057BCDFF8900C90F83B100329B0
:105E300000F03F83002940F02C85FFF7CFF9C329FC
:105E400080F0D28005310DE3B0F8AA20FEF7C9FF3B
:105E5000A0F892102032A0F8AA200AE0627A012A63
:105E600088BF1146C82928BFC82100F059BCB0F826
:105E70009210652901D2642104E0B1F5FA7F03D3C1
:105E80004FF4FA71A0F89210B0F8AA10D42904D8EF
:105E9000D421A0F8AA1000F0FCBCB1F5697F24BFA2
:105EA0004FF46971A0F8AA1000F0F3BC627A012ADD
:105EB00088BF114600F034BC002900F0C682642976
:105EC00024BF6421C18500F0E4BC002180F84E109D
:105ED00000F0DFBCB0F8AC20FEF783FFA0F898100C
:105EE0002032A0F8AC2015E0B0F8B020FEF779FF22
:105EF000A0F8A4102032A0F8B0202AE0B0F8AE201C
:105F0000FEF76FFFA0F89E102032A0F8AE203FE011
:105F1000B0F89810652901D2642104E0B1F5FA7F48
:105F200003D34FF4FA71A0F89810B0F8AC10D4294C
:105F300004D8D421A0F8AC1000F0ABBCB1F5697F57
:105F400024BF4FF46971A0F8AC1000F0A2BCB0F807
:105F5000A410652901D2642104E0B1F5FA7F03D3CE
:105F60004FF4FA71A0F8A410B0F8B010D42904D8F6
:105F7000D421A0F8B01000F08CBCB1F5697F24BF2B
:105F80004FF46971A0F8B01000F083BCB0F89E1017
:105F9000652901D2642104E0B1F5FA7F03D34FF4FF
:105FA000FA71A0F89E10B0F8AE10D42904D8D4210C
:105FB000A0F8AE1000F06DBCB1F5697F24BF4FF4BE
:105FC0006971A0F8AE1000F064BCDFF8EC0A90F83C
:105FD0003B10032900F07A82002940F05A84FFF731
:105FE000FDF8C829C0F09783C8213BE2DFF8C80A52
:105FF000002180F84C10012105E0DFF8BC0A0021E7
:1060000080F84C10022180F8401000F042BCFEF7EE
:1060100072FF38BF0B0C052B98BF0523A0F8043185
:1060200000F037BCFEF7D1FC38BF0B0C012B98BF3A
:106030000123A0F80E3100F02CBCFEF75CFF38BF46
:106040000B0C052B98BF0523A0F82A3100F021BCCA
:10605000FEF751FF38BF0B0C052B98BF0523A0F8A6
:10606000DE3000F016BC00BF3C000A009602CC02F5
:106070001400030014000A0028000A0014000400A1
:106080001E000F001E000400F0024A031400050069
:10609000280014001E000600280003002800050048
:1060A0002800080028000400002A0020FEF76CFFEA
:1060B000A0F8081104D1FEF785FEA0F8081189B2F6
:1060C000642900F20A826421A0F80811E1E3FEF7D6
:1060D0007CFC38BF0B0C012B98BF0123A0F8343196
:1060E000D7E3FEF772FC38BF0B0C012B98BF0123DE
:1060F000A0F8E830CDE3FEF747FFA0F82E1104D159
:10610000FEF760FEA0F82E1189B2642900F2ED813D
:106110006421A0F82E11BCE3FEF736FFA0F8E210D0
:1061200004D1FEF74FFEA0F8E21089B2642900F214
:10613000EC816421A0F8E210ABE3FEF746FC38BF27
:106140000B0C012B98BF0123A0F81631A1E3FEF739
:106150003CFC38BF0B0C012B98BF0123A0F83C314D
:1061600097E3FEF732FC38BF0B0C012B98BF0123DD
:10617000A0F806318DE3FEF728FC38BF0B0C012B8D
:1061800098BF0123A0F8F03083E3FEF7FDFEA0F8EE
:10619000181104D1FEF716FEA0F8181189B264296F
:1061A00000F2BB816421A0F8181172E3FEF70DFC28
:1061B00038BF0B0C012B98BF0123A0F81E3168E3F8
:1061C000FEF703FC38BF0B0C012B98BF0123A0F88E
:1061D0002C315EE3FEF7F9FB38BF0B0C012B98BFA7
:1061E0000123A0F8E03054E3FEF7CEFEA0F83E1104
:1061F00004D1FEF7E7FDA0F83E1189B2642900F250
:1062000094816421A0F83E1143E3FEF7DEFB38BF22
:106210000B0C012B98BF0123A0F8443139E3FEF7A2
:10622000B3FEA0F8F21004D1FEF7CCFDA0F8F210F6
:1062300089B2642900F289816421A0F8F21028E370
:10624000FEF7C3FB38BF0B0C012B98BF0123A0F84E
:10625000F8301EE3FEF74FFE38BF0B0C052B98BF3E
:106260000523A0F80C3114E3FEF745FE38BF0B0CF4
:10627000052B98BF0523A0F832310AE3FEF73BFE59
:1062800038BF0B0C052B98BF0523A0F8E63000E3C0
:10629000FEF731FE38BF0B0C052B98BF0523A0F885
:1062A0001C31F6E2FEF727FE38BF0B0C052B98BF1A
:1062B0000523A0F84231ECE2FEF71DFE38BF0B0CBF
:1062C000052B98BF0523A0F8F630E2E2FEF75CFE4E
:1062D000A0F8001104D1FEF775FDA0F8001189B2F5
:1062E000642900F23A816421A0F80011D1E200BFD4
:1062F000002A0020A0000020A0010020FEF744FE9C
:10630000A0F8261104D1FEF75DFDA0F8261189B290
:10631000642900F22A816421A0F82611B9E2FEF76F
:1063200033FEA0F8DA1004D1FEF74CFDA0F8DA1025
:1063300089B2642900F229816421A0F8DA10A8E268
:10634000FEF7D9FD38BF0B0C052B98BF0523A0F82D
:1063500014319EE2FEF718FEA0F8101104D1FEF7EA
:1063600031FDA0F8101189B2642900F21681642170
:10637000A0F810118DE2FEF7BEFD38BF0B0C052B07
:1063800098BF0523A0F83A3183E2FEF7FDFDA0F89F
:10639000361104D1FEF716FDA0F8361189B2642932
:1063A00000F203816421A0F8361172E2FEF7A3FD2A
:1063B00038BF0B0C052B98BF0523A0F8EE3068E220
:1063C000FEF7E2FDA0F8EA1004D1FEF7FBFCA0F80E
:1063D000EA1089B2642900F2F8806421A0F8EA107A
:1063E00057E202EBC2010523B1FBF3F11346203162
:1063F0009AB201848383652A01D2642204E0B2F553
:10640000FA7F02D34FF4FA72828389B2D42901D879
:10641000D42146E0B1F5697F24BF4FF4697101844E
:1064200037E2FEF78FFD00F08481002940F03182D1
:10643000818B4FF4FA72B1F5FA7F38BF4A1C29E01C
:106440000185DFF8340C01216AE1002120E2018599
:10645000DFF8240C012180F820101AE20185DFF812
:10646000180C012180F8221013E20185DFF8080CD6
:10647000012180F826100CE2FEF764FD00F0748123
:10648000002940F00682818B4A1DB1F5F77F88BF55
:106490004FF4FA7202EBC20182830522B1FBF2F1E2
:1064A00020310184F5E1FEF708FD0A290CD90539F0
:1064B00036E1FEF702FDC3290DD2053130E1FEF7CA
:1064C000FCFC052900F22981052129E1FEF7F5FCF4
:1064D000C829C0F02481C82122E1B1F5FA7F24BF88
:1064E0004FF4FA71A0F80811D3E1B1F5FA7F24BF97
:1064F0004FF4FA71A0F82E11CBE1B1F5FA7F24BF69
:106500004FF4FA71A0F8BA10C3E1B1F5FA7F24BFD5
:106510004FF4FA71A0F8E210BBE1B1F5FA7F24BFA5
:106520004FF4FA71A0F81811B3E1B1F5FA7F24BF66
:106530004FF4FA71A0F83E11ABE1B1F5FA7F24BF38
:106540004FF4FA71A0F8CA10A3E1B1F5FA7F24BFA5
:106550004FF4FA71A0F8F2109BE1B1F5FA7F24BF75
:106560004FF4FA71A0F8001193E1B1F5FA7F24BF5E
:106570004FF4FA71A0F826118BE1B1F5FA7F24BF30
:106580004FF4FA71A0F8B21083E1B1F5FA7F24BF9D
:106590004FF4FA71A0F8DA107BE1B1F5FA7F24BF6D
:1065A0004FF4FA71A0F8101173E1B1F5FA7F24BF2E
:1065B0004FF4FA71A0F836116BE1B1F5FA7F24BF00
:1065C0004FF4FA71A0F8C21063E1B1F5FA7F24BF6D
:1065D0004FF4FA71A0F8EA105BE1DFF8201F002009
:1065E00085F82000488C0130488480B20A28C0F029
:1065F0005081FEF7EEFB85F82100DFF8000FA6F8CA
:1066000094304184FEF771FCA6F8961000F0BE802D
:10661000002840F0CB80FEF717FDA6F89230FEF779
:10662000C9FCA6F8AA00BAE0DFF8D01E002085F861
:106630002200C88C0130C88480B20A28C0F02981A9
:10664000FEF7C7FB85F82300DFF8B00EA6F89A30F6
:10665000C184FEF74AFCA6F89C1000F0B880002820
:1066600040F0C580FEF7F0FCA6F89830FEF7A2FCDB
:10667000A6F8AC00B4E0DFF8841E002085F8240002
:10668000488D0130488580B20A28C0F00281FEF7AB
:10669000A0FB85F82500DFF8640EA6F8A030418540
:1066A000FEF723FCA6F8A21000F0B280002840F00C
:1066B000BF80FEF7C9FCA6F89E30FEF77BFCA6F86B
:1066C000AE00AEE0DFF8341E002085F82600C88D4D
:1066D0000130C88580B20A28C0F0DB80FEF779FB64
:1066E00085F82700DFF8140EA6F8A630C185FEF75E
:1066F000FCFBA6F8A81000F0AC80002840F0B980A0
:10670000FEF7A2FCA6F8A430FEF754FCA6F8B000F1
:10671000A8E00139A6E60131A4E6013900E0013123
:1067200080F82410B5E0018CD422D42988BF4A1EF9
:1067300010E0018C4FF46972B1F5697F38BF4A1CD3
:10674000028402EB82010AE0018CA1F12602FB29FE
:1067500038BFD42291B20284890011FA82F1A039A3
:10676000092291FBF2F10FE0018C40F27D3301F13F
:106770002602994288BF4FF4697202EB82010284BB
:10678000A0390922B1FBF2F1818382E0FEF757FCC8
:10679000A6F8AA30A03890FBF1F0A6F89200C948FC
:1067A00045F21501FEF7FEFBB6F89430C54845F2F8
:1067B0001601FEF7FBFB01206876607A012868D19C
:1067C000BE48002180F82110BD48418461E0FEF7F9
:1067D00036FCA6F8AC30A03890FBF1F0A6F8980093
:1067E000B84845F21801FEF7DDFBB6F89A30B54817
:1067F00045F21901FEF7DAFB01206876607A01287C
:1068000047D1AE48002180F82310AD48C18440E054
:10681000FEF715FCA6F8AE30A03890FBF1F0A6F814
:106820009E00A84845F21B01FEF7BCFBB6F8A0305D
:10683000A44845F21C01FEF7B9FB01206876607A96
:10684000012826D19D48002180F825109C484185CB
:106850001FE0FEF7F4FBA6F8B030A03890FBF1F093
:10686000A6F8A400974845F21E01FEF79BFBB6F878
:10687000A630944845F21F01FEF798FB0120687688
:10688000607A012805D18D48002180F827108C48B6
:10689000C185002084F88100884C94F820000128EC
:1068A00044D194F8210018B18548002101843DE0CD
:1068B0008349088C0130088480B2C92836D37E48C9
:1068C00000234FF001120B8484F8203090F83B1025
:1068D00042650122A0F8592041BB90F8411080F890
:1068E000892080F82330C38349B101290ED1B0F843
:1068F000AA10FEF70EFAA0F89210818306E0B0F815
:106900009210FEF757FAA0F8AA10018490F894109C
:106910000222012380F82210B0F89610A0F88A1005
:10692000C184684845F25401FEF7A1FA94F82200A8
:1069300001283BD194F8230018B1614800218184DB
:1069400034E05F49888C0130888480B2C9282DD317
:106950005948FEF7A4FA8A8490F83B1084F8222064
:1069600021BB0221FEF752FA09D001290ED1B0F85D
:10697000AC10FEF7CEF9A0F89810818306E0B0F8CD
:106980009810FEF717FAA0F8AC10018490F89A104E
:106990000222022380F82210B0F89C10A0F88A107E
:1069A000C184484845F25401FEF761FA94F8240086
:1069B00001283BD194F8250018B1414800210185F8
:1069C00034E03F49088D0130088580B2C9282DD3B5
:1069D0003948FEF764FA0A8590F83B1084F82420C1
:1069E00021BB0321FEF712FA09D001290ED1B0F81C
:1069F000AE10FEF78EF9A0F89E10818306E0B0F885
:106A00009E10FEF7D7F9A0F8AE10018490F8A01000
:106A10000222032380F82210B0F8A210A0F88A10F6
:106A2000C184284845F25401FEF721FA94F8260063
:106A3000012817D194F8270020B121480021818531
:106A4000BDE8F0811E49888D0130888580B2C92853
:106A500008D31948FEF723FA8A8590F83B1084F88A
:106A6000262009B1BDE8F0810421FEF7CFF909D055
:106A700001290ED1B0F8B010FEF74BF9A0F8A41020
:106A8000818306E0B0F8A410FEF794F9A0F8B010E6
:106A9000018490F8A6100222042380F82210B0F896
:106AA000A810A0F88A10C184064845F25401D0F815
:106AB00004C1BDE8F0416047002A0020A00000208A
:106AC000A0010020802B00207047000070B5DFF887
:106AD0009C45208B0138208300040AD14FF47A7042
:106AE000DFF890252083DFF88805816C5161002153
:106AF0008164DFF88465DFF87C55707890BB287876
:106B000001282FD10A2004F007FB800868601020BC
:106B100004F002FBA6F84E00B6F84E00FDF7A3FE07
:106B2000C94ACA4BFDF7E7FBC94B0022FDF7E3FB5F
:106B3000C84AC94BFDF738FBC84AC94BFDF74DFCA5
:106B4000C84B0022FDF730FBFDF7C7FEA5F890000B
:106B5000013880B2312805D8686880087C289CBF3D
:106B60000120707095F83B00022815D1E08B0138A8
:106B7000E083000415D14FF47A70E083A88E0138C9
:106B8000A88600B2B0F1FF3F0BDC022086F84C0073
:106B9000002085F83B0004E04FF47A70E083688EB3
:106BA000A88695F84F0080B1012840F0C88131795E
:106BB00095F8880099B1032800F25681DFE800F0CB
:106BC0000278375795F84E0019E04FF47A706083D9
:106BD00000203071A5F88E0085F84E00AFE101214C
:106BE0000328317100F24081DFE800F0026524449F
:106BF000FEF797F903D20FF2B442FEF786F90328A5
:106C000000F0DC80022800F0A180012840F0FD8027
:106C1000FEF7F3F840F02881FEF7EBF800F07A81F8
:106C2000002840F02181A868B5F8B21006E195F877
:106C30004E0006E0FEF775F903D20FF25042FEF760
:106C400064F9032864D0022853D0012840F08D80D5
:106C5000FEF7D3F840F00881FEF7CBF800F03E8154
:106C6000002840F00181A868B5F80011E6E095F829
:106C70004E0006E0FEF755F903D20FF20042FEF790
:106C800044F9032800F08D80022850D0012840F0FC
:106C9000A280FEF7B2F840F0E780FEF7AAF800F015
:106CA0002D81002840F0E080A868B5F82611C5E0E5
:106CB00095F84E0006E0FEF734F903D20FF2DC320D
:106CC000FEF723F9032800F0948002285CD0012805
:106CD00040F0A880FEF791F840F0C680FEF789F8F2
:106CE00000F01C81002840F0BF80A868B5F8DA10D9
:106CF000A4E0FEF782F840F0B780FEF77AF800F0E3
:106D0000E180002840F0B080A868B5F8081195E04F
:106D1000FEF773F840F0A880FEF76BF800F0D6801D
:106D2000002840F0A180A868B5F8101186E0FEF7B1
:106D300064F840F09980FEF75CF800F0CB80002802
:106D400040F09280A868B5F82E1177E0FEF755F86C
:106D500040F08A80FEF74DF800F0C480002840F033
:106D60008380A868B5F8BA1068E004287CD1FEF7E3
:106D700044F879D1FEF73DF800F09480002873D1F3
:106D8000A868B5F8181159E0FEF737F86CD1FEF78E
:106D900030F800F0AB80002866D1A868B5F8E210A2
:106DA0004CE0FEF72AF85FD1FEF723F800F0A2804E
:106DB000002859D1A868B5F836113FE0FEF71DF854
:106DC00052D1FEF716F800F09D8000284CD1A8683B
:106DD000B5F8C21032E0042846D1FEF70EF843D1D0
:106DE000FEF707F862D000283ED1A868B5F83E113A
:106DF00024E0FEF702F837D1FDF7FBFF00F08680B4
:106E000090BBA868B5F8EA1018E004282CD1FDF76B
:106E1000F4FF29D1FDF7EDFF4CD028BBA868B5F8E9
:106E2000CA100BE004281FD1FDF7E7FF1CD1FDF7C6
:106E3000E0FF43D0C0B9A868B5F8F2104A1F9042ED
:106E40007AD9053172E000BF52B81E85EB510A4075
:106E50000000303F295C8FC2F528F4BF33E197FA78
:106E60007953713F00002E40608B000467D14FF4CE
:106E70007A706083B5F88E000138A5F88E0000B2F4
:106E8000B0F1FF3F5BDC95F84E100020307101310E
:106E900085F84E10C9B2052924BFA5F84E00A5F803
:106EA0008E004CE0A868B5F81A113AE0A868B5F869
:106EB000401136E0A868B5F8CC1032E0A868B5F803
:106EC000F4102EE0A868B5F80A112AE0A868B5F811
:106ED000121126E0A868B5F8301122E0A868B5F8CC
:106EE00002111EE0A868B5F8BC101AE0A868B5F851
:106EF000E41016E0A868B5F8381112E0A868B5F8F3
:106F000028110EE0A868B5F8C4100AE0A868B5F822
:106F1000EC1006E0A868B5F8B41002E0A868B5F86F
:106F2000DC10A1F10A02904206D90A31884203D24C
:106F3000608B0138608398E74FF47A70608395F82E
:106F4000530028B395F83900012805D1022086F8AE
:106F50004C00002085F85300A08B0138A08300046A
:106F60001DD1B5F88C000138A5F88C0000B2B0F145
:106F7000FF3F09DC002085F85300022086F84C0012
:106F8000B5F88A00A5F88C004FF47A70A08306E06B
:106F90004FF47A70A083B5F88A00A5F88C00474CAE
:106FA0002068804794F82500012809D194F824002E
:106FB00018B1013884F8240002E0022084F825008A
:106FC00094F8340010B1013884F8340094F8490082
:106FD000012809D194F8480018B1013884F8480014
:106FE00002E0022084F8490094F8580010B10138FA
:106FF00084F858003248417B012906D1017B11B148
:107000000139017301E002214173017F09B10139A6
:10701000017790F83110012909D190F8301019B199
:10702000013980F8301002E0022180F8311090F828
:10703000401011B1013980F8401090F85510012925
:1070400009D190F8541019B1013980F8541002E0B8
:10705000022180F8551090F8641011B1013980F8C0
:1070600064100348C16C0131C16470BD0000002090
:10707000A0010020002A0020A00000202C2B0020CE
:10708000342B00203C2B0020442B0020062B00201A
:107090000E2B0020162B00201E2B0020E02A0020A3
:1070A000E82A0020F02A0020F82A0020B82A002030
:1070B000C02A0020C82A0020D02A00201002002068
:1070C000700200201848C16941F08051C161174920
:1070D0000A7842F004020A70C16921F08051C1614E
:1070E000016841F00101016001688907FCD5416830
:1070F00021F003014160416811F00C0FFBD10168E0
:107100000B4A114001600021416041F61071C162DB
:107110004FF4801101634FF41F01816005484FF067
:1071200000610160704700BF0010024050700040D5
:10713000FFFFF2FE08ED00E02DE9F84FC74F386879
:10714000C00700F03381DFF840693078012840F053
:107150001881DFF8A896C24D99F80300AA460128C5
:1071600008D1DFF85C03BF4D846829462046FDF74F
:107170004DFB18B9DFF848032C468560B9F852502A
:1071800042F6E060854209D3D6E95E010025A9F800
:107190005250013041F10001C6E95E0196F840000D
:1071A000022810D0012811D196F84C00002853D0A5
:1071B000012840F06F8096F83B00022860D000283C
:1071C00068D1B08B5FE0B18BA9F85410022840F071
:1071D000D58096F85000002840F0D08096F84F00F7
:1071E000002840D0012840F0C98096F84E0099F858
:1071F0000210814218BF89F8020096F85200002858
:1072000000F0BC80DFF8B882B148B24A4FF080414C
:10721000C8E90021C8F8080006F096F896F888102A
:107220007060032900F2E88096F93720104496F93F
:107230003620851ADFE801F002D2BCC7FDF7E1FE77
:1072400000F2DA80DFE810F005001F0110011901DB
:10725000D500B6F8B24018E196F83B00022814D0E9
:10726000C0B9B08B14E006F06FF8954900220A62AD
:10727000CA614A610A6170609248F26588607CE088
:10728000F08DB18B0844323002E0B08BF18D0844B0
:10729000A9F8540096F8390068B196F84A1051B12F
:1072A000012808BF01295FD106F04EF88449FDF797
:1072B00013FFCA6058E096F85200002854D0BB462D
:1072C00006F042F896F937107060B78B084496F9CB
:1072D0003610A0EB010AB9F85400B9F850100FFAB3
:1072E00080F8B94208D000F04BFB86F837007448AC
:1072F0000021C161A9F850700FFA8AFA08F1640000
:10730000504506DA681C5F46A9F852000020F06577
:107310002AE0A8F164005F46504505DD6B48F06542
:10732000681CA9F852001FE008F10500504504DB75
:10733000A8F10500504540F361800020A9F85600EF
:1073400089F803004046FDF76FFA04465046FDF702
:107350006BFA01462046FDF77FFFFDF770FF002125
:10736000FDF754FA0028D1D096F83B00032805D148
:1073700005F0EAFF5249FDF7AFFECA6096F83A0001
:1073800028B9F46D00212046FDF740FA08B9002421
:10739000F4652046FDF78DFA78624FF08040016871
:1073A00041F0010101606FF001003860BDE8F88F25
:1073B000FDF727FE20D8DFE800F003454B3F1C0017
:1073C000B6F8004161E0FDF71CFE15D8DFE800F0DB
:1073D000034352371100B6F8264156E0FDF711FE7F
:1073E0000AD8DFE800F003444D320600B6F8DA4070
:1073F0004BE00020A6F84E00F06D58E0B9F85600BA
:107400000130A9F8560080B23C28FFF49BAF012060
:107410002D4989F803000020A9F856002046FDF701
:1074200003F9284D04462946FDF7F0F900282448C1
:1074300014BF8460856085E7B6F8184125E0B6F88A
:107440003E4122E0B6F808411FE0B6F8F2401CE0E9
:10745000B6F8104119E0B6F82E4116E010000040D1
:1074600000204B4700401C46B6F8C2400DE0B6F87D
:10747000E2400AE0B6F8364107E0B6F8CA4004E058
:10748000B6F8EA4001E0B6F8BA40204600F078FAD3
:1074900086F837002046FDF7D0F9044628B2FDF7FC
:1074A000C3F901462046FDF7D7FEFDF7C8FE0021CF
:1074B0000024FDF7ABF900B9F465C8F808A05DE752
:1074C0000423002000401C460000FAC4007F3B4714
:1074D0000080BB450000B44307484168890709D5CF
:1074E0000168890706D5C6498A6C01328A646FF043
:1074F00002014160704700BF0C040040A001002061
:10750000BCB5154C2068E06880060DD52068800663
:107510000AD52068606861686B4D05F12400FDF7AD
:10752000EAFD4FF482702886E068400610D5206896
:1075300040060DD5644D6FF040000DF1070120604D
:1075400005F1340005F0C7FE18B1002085F84100B0
:10755000BCBDFDF71FBD00BF004C0040BCB5154CC5
:107560002068E06880060ED5206880060BD520686C
:1075700060686168544D05F14800FDF7BCFD4FF4AB
:107580008270A5F85400E068400610D520684006D7
:107590000DD54D4D6FF040000DF10701206005F154
:1075A000580005F098FE18B1002085F86500BCBDB4
:1075B000FDF7F0BC00500040BCB5144C2068E068FA
:1075C00080060BD52068800608D56168264D05F138
:1075D0001800FDF790FD4FF48270A884E068400623
:1075E00010D5206840060DD51F4D6FF040000DF1FD
:1075F0000701206005F1280005F06DFE18B100209C
:1076000085F83500BCBDFDF7C5BC00BF00380140A2
:10761000BCB5144C2068E06880060CD52068800654
:1076200009D56168104D05F13C00FDF764FD4FF48C
:107630008270A5F84800E068400610D52068400632
:107640000DD5094D6FF040000DF10701206005F1E7
:107650004C0005F040FE18B1002085F85900BCBD73
:10766000FDF798BC0044004010020020BCB5154D49
:107670002868E86880060DD5286880060AD528683D
:107680006868114C6868C1B2204605F037FE4FF4B7
:107690008270A081E86840060FD5286840060CD5A6
:1076A000094C6FF040000DF10701286004F1100053
:1076B00005F011FE10B100206077BCBD9DF80700F9
:1076C0006860BCBD0048004070020020FEE710B5B5
:1076D00004464AF25A5024F8820F180AA071080A88
:1076E0006171E371214620718220E070D01C082274
:1076F000A0700220BDE8104006F0A4BB0648BFF30E
:107700004F8F064A016801F4E06111430160BFF345
:107710004F8F00BFFDE700BF0CED00E00400FA054D
:1077200000EB400107221E3902FA01F1044A1368F6
:1077300019431160916A21F01F010843906270475C
:107740000C24014002484FF480510160704700BF93
:10775000140C014002484FF480510160704700BF93
:10776000100C0140B0B5C84C94F8420001280FD16C
:10777000224D6879DFE800F0032D1A21130095F8F7
:107780004C00022829D0012814BF0020012025E048
:10779000FFF7D8FF1948002180F84C101FE0FFF7D1
:1077A000D1FF0020687185F84C0018E0FFF7D2FF88
:1077B0001348FDF752FC143903E01148FDF74DFC66
:1077C000023972F100010AD30021C0E91611042028
:1077D00004E0FFF7BFFF032000E00220687194F887
:1077E0003A0050B10548017801310170C9B2502901
:1077F00003D3FDF77CFC00210170B0BDA000002088
:10780000A0010020F0B1E9B1F0B5930801300D46B8
:107810001C462CB150F8046B013C36BA40C5F8E761
:1078200012F003020CD0002418250026A24205D035
:10783000075D0134AF40083D3E43F7E741F8236060
:10784000BDE8F04070470000034A19B108C801398B
:107850001360FAE71068704700300240F0B5324913
:107860000A68C2F38103314A022B08D0ABBB0B6D0F
:107870009B0532D5CB6A9B0148BF2E4A2DE00B6891
:107880008C6A1B0C002C13D40C680D68C5F3417571
:10789000C4F383440DB90F2C43D12D0101352C4481
:1078A000DB0702D00B689B0300D5214A624314E03A
:1078B0008C6A8D6A8E6ADB071D4BC4F30314C5F313
:1078C000082506F0070603D00F68BF0358BF13460C
:1078D00004FA06F26B43B3FBF2F2026016A40B68E3
:1078E000C3F30313E35C184CDA4042600B68C3F344
:1078F0000223E35C22FA03F3C3600B68C3F3C223E1
:10790000E35C0424DA4082600B68096804EA93634C
:10791000C1F3813119440DA3595CB2FBF1F101614E
:10792000F0BD0225BBE700BF0410024000127A0040
:1079300000093D00006CDC020000000000000000B7
:1079400001020304060708091CE0000802040608F7
:10795000020C08107CB5044600204FF6FF75C6B235
:107960006C2E09D8301903F0C3FBADF80600B01C2B
:10797000BDF80610A942F2D1BDF806007CBD00009A
:1079800082B0002165288DF80710ADF804108DF83D
:10799000031073D33C4991F822101F291BD30021F7
:1079A00082084A2A8DF8031035D86422ADF80420E5
:1079B0008DF8071036499DF80720132A5BD84DF83B
:1079C00008EDFDF7A9FB5DF808EB54D27346FDF70F
:1079D00027F99E46EFE74A1E0021132A4ED88DF85C
:1079E000031081084A292ED86421ADF80410002123
:1079F0008DF8071025499DF80720132A41D84DF826
:107A000008EDFDF789FB5DF808EB34D27346FDF70E
:107A100007F99E46EFE74FF49671ADF80410142174
:107A20008DF807101A499DF80720272A23D84DF80A
:107A300008EDFDF771FB5DF808EB1CD27346FDF70E
:107A4000EFF89E46EFE74FF49671ADF8041014215D
:107A50008DF807100D499DF80720272A0BD84DF8FF
:107A600008EDFDF759FB5DF808EB04D27346FDF70E
:107A7000D7F89E46EFE79DF80700095C48B202B0D0
:107A800070470021FAE700BF002A00204DE00008FF
:107A900024E000082DE9F84FDFF8C0BA9BF8000099
:107AA000012818BFBDE8F88FDFF8B48A98F81F00E6
:107AB000092801F21283DFE810F00A007201D700F2
:107AC000FC0033009901D0015101ED01900098F8BC
:107AD0002A00DFE810F009000104DA03E403A00340
:107AE0000B041504F70326049BF84D0098F82B109F
:107AF000814240F0B3859BF8540098F82D108142E4
:107B000040F0A387002801F08B81BBF81E20BBF852
:107B10001C108A4201F08481ABF81E1000F04DBEAB
:107B200098F83A00DFE810F010003E051E052E051B
:107B3000F704520564053605730507056C05E8046E
:107B4000FF045A05E1042605DFF82C0D9BF84010D0
:107B50009BF8512043798B4240F0448798F83C30A1
:107B6000934240F03F879BF8411082798A4241F06E
:107B700046819BF84210C2798A4241F0B0819BF85D
:107B80004310027A8A4241F052839BF84A10427AAB
:107B90008A4241F09A839BF84410827A8A4241F0EB
:107BA000C3839BF84510C27A8A4241F0C6839BF892
:107BB0004610027B8A4241F0C3839BF84810427B07
:107BC0008A4241F0C0839BF84C10827B8A421ABFE4
:107BD00081730F24002401F0B8BB9BF84D001A28D4
:107BE00040F0D78598F845000024DFE810F00C003D
:107BF000D005A4058F056905B305D005BA05D005E4
:107C000099057505810598F8460098F847109BF886
:107C10004F40431CDFF8600C4A1C88F8463088F857
:107C20004720017DA14240F050879BF84E40457DA2
:107C3000A54241F03681DFF8440CBBF98E40858FB8
:107C4000A54241F0E682DBB20A2BC1F02483DBF8C7
:107C50000820C38E002100249A421CBFC28605243E
:107C600088F8461000F093BD98F83500DFE810F072
:107C70000500AD019901A3018F019BF84D0098F813
:107C80003610814240F064839BF8531098F8370017
:107C9000884240F0EF84DFF8E40B0029828E01F087
:107CA0008D80BBF98C108A4200F0888389B281866E
:107CB00055E398F83800302801F27E80DFE810F0B4
:107CC0003100C207A107AE076C07E507FC07B8073C
:107CD00013088307090862078007F2075907AB07F3
:107CE0004C07DC0706083F08E207EF072E0850089C
:107CF00097078D076B083F07570861081D08D207D3
:107D000020085C07420739073C072C076808380839
:107D10007607DF0749082207560727087208360743
:107D20005F079BF84D0098F839209BF88810824235
:107D300041F0BD80DFF8400BC2788A4241F06E828C
:107D40009BF84110027900248A4201F05A810171A6
:107D50000A2188F83940C17001F053B99BF84D00F1
:107D60001A2800F0D380022841F0458098F83F009F
:107D7000012800F05A82002841F03D80FDF71EF9ED
:107D8000FCF75BFDD0490446FCF74EFC9BF84C1019
:107D9000012918BF2046FCF773FD40BAC2E09BF8EA
:107DA0004D001A2800F2D3800121C84A81401142B7
:107DB00000F0CD809BF83810002900F0C180012927
:107DC00040F0C5809BF8391011B9012288F82F20A6
:107DD0009BF83B20002A00F0B081022A00F0AD8120
:107DE000032A40F0B4809BF82410AEE098F83D10D0
:107DF0000220DFE811F00F006B09260331030503B1
:107E000047035A033C036F031B036503E50210039A
:107E10005103CB02DFF8600A9BF88920C17B9142B5
:107E200040F0DD85042900F2B982DFE811F0050099
:107E3000330909091E09F4089BF84110027C8A42A3
:107E400041F026829BF8510098F83E10814200F0E4
:107E5000A58288F83E0001F01CBA98F81A000124A7
:107E6000DFE810F00600EE00BD00C4000B010A01BF
:107E70009BF84040012C02D0022C06D11A24DFF8D6
:107E8000F809FDF763F88BF84D40DFF8EC09FCF7D3
:107E9000D8FFB3E098F84000DFE810F00800950143
:107EA00072017C0164019E01AD01880198F84400D3
:107EB0009BF83810441CDFF8C00988F84440427C25
:107EC0008A4240F0AF839BF83B10827C8A4240F0AC
:107ED0009A859BF83A10C27C8A4240F0938798F8C2
:107EE000410098F84210814240F0FC87DBF85C00CA
:107EF000FCF7C6FC40F25721B0FBF1F098F84310B4
:107F0000884241F09781002401F0A1B998F83F0020
:107F1000012800F09981002840F06D87FDF74EF8A8
:107F200000BA000CDFF850190E22A1F848003C31CD
:107F3000022005F087FF98F83F00013000F05CBF99
:107F4000002188F82F109BF82210CBF8181098F811
:107F50002E10DFE801F004D7BDC6ADE2EB0098F8C3
:107F60003010814240F0FF819BF83B00032800F075
:107F70007385002840F08D8798F83400012840F080
:107F80006A870020042488F8340000F083BFFDF7DE
:107F900060F800F00682022840F0108245F21201DB
:107FA00001E2FDF756F800F00182022840F0068257
:107FB00045F21201FCE1FDF74CF800F00B820228BB
:107FC00040F0118246F2031106E2FDF742F800F09C
:107FD0000C82022840F0C38146F2031107E2DFF869
:107FE000A0089BF8513045F23C0105E0DFF890080D
:107FF00098F8193045F24901FCF783FF012088F811
:108000001A009BF84D000E2840D19BF83B00022837
:1080100004D09BF84C10012941F05A8098F81B10AD
:10802000002941F05580012188F81D00002088F8C2
:108030001B109BF84C108BF83B0088F81C1033E0A9
:108040009BF85100002800F0F182DFF830089BF81F
:108050004D10C28B142904BF0132C28392B2012A8F
:1080600008D0142902D1B2F5C87FC7D300218BF8FC
:108070005110C1830220C2E71A24DFF8FC07FCF785
:1080800065FF01208BF84D4088F81A0098F81B0016
:10809000012841F01D80002098F81D1088F81B0071
:1080A00098F81C008BF83B108BF84C0001F010B8CE
:1080B000DFF8CC0745F2040102220023FCF79EFF03
:1080C000052400F0E7BE00BF000048C2060000041F
:1080D000012800F0D982022840F0F08246F2F30134
:1080E000D4E2022800F0D882012840F0D286DFF8DE
:1080F0009007BBF8183045F20E01FCF762FC06242D
:1081000000F0C8BEDFF8780745F20401022201231F
:108110000224FCF7ACFE00F0BDBE012800F0C582D1
:10812000022840F0CB8246F2F301C0E2DFF85007AC
:10813000BBF8183045F20C01B4E201297FF403AF1B
:108140009BF84A1001297FF4FEAE98F82F10012900
:108150007FF4F9AE9BF8561000297FF4F4AE9BF83B
:108160002510F2E69BF83B000024002800F0418433
:10817000032800F03D84022839D1012400F039BCE5
:10818000DFF8FC0645F20501022200230024FCF77B
:108190006EFE2CE09BF83810DFF8E406D0F80441BE
:1081A000B1FA81F14B0945F202011DE0DBF85C00F8
:1081B000E549FCF7C3FAFCF763FB0346DFF8C006AA
:1081C00045F20A010EE0DFF8B80645F20501022289
:1081D0000123D0F8044108E0DFF8A4069BF83A3008
:1081E0004FF4A041D0F804410222A047002488F8AF
:1081F000404000F06DBFDBF85C00D349FCF79EFA0D
:10820000FCF73EFB0346DFF8780645F20901FCF770
:10821000D8FB0724EBE7DFF8680645F203010222EA
:108220000023FCF7EBFE052410E39BF8380020B197
:10823000012840F0E085DBF81800DFF83C1681F8F3
:1082400057004A3100F0D3BD9BF84F00002800F0E2
:10825000A382012840F0CF859BF88800032800F214
:10826000CA85DFE810F00400600646065306FCF7F6
:10827000E1FE00F2C085DFE810F004004D08380888
:1082800044089BF8B64000F0ACBDFCF7E2FE00F0FD
:108290008B82022840F09F8346F2C30186E29BF85E
:1082A0004D00022800F08B8201285AD1DFF8CC055E
:1082B00045F207010222038EDFF8C405FCF79EFE9B
:1082C0000724C3E2FCF7C2FB00F07D82002840F0E7
:1082D000BC829E4C9E4D78E2DFF8A40545F2030176
:1082E000022201230224FCF7C2FDAFE2FCF7B1FE3B
:1082F00000F07E82022840F0708346F2C30179E2EA
:108300009BF84D00022800F07E82012829D1DFF879
:108310007005BBF8083045F20701FCF752FB082452
:1083200094E29BF84100002800F07682012840F09A
:108330008C82DFF84C05D0F80441DBF80800810896
:10834000E82900F24183FCF78EFA824A824B71E2FF
:1083500088F836009BF85300012400288EE102249F
:108360008EE1002474E2411E012900F290859BF801
:108370003B10032900F08485002940F08885012105
:10838000ABF8561008F1330100F07FBDDFF8F004C0
:108390009BF8893045F25401FCF713FB002000F0F4
:1083A00095BE45F20801BBF8263003E045F208010E
:1083B000BBF88C30DFF8C804FCF703FB00245FE156
:1083C000FCF744FB00F05783002840F05C83BBF8C7
:1083D000A43052E346F23301DFF8A40402224FF640
:1083E000FF73FCF70BFE04244AE146F23301DFF889
:1083F0009004022244F250730224FCF738FD3FE15E
:10840000DFF87C04BBF8963045F21701FCF7D9FA87
:10841000052000F05BBEDFF86804BBF8A63045F22B
:108420001F01FCF7CEFA0D2000F050BEDFF850041B
:10843000BBF8A03045F21C01FCF7C3FA0A2000F09B
:1084400045BE9BF84100002800F01F83012840F042
:1084500025830BF1AA001AE3DFF82404BBF894305B
:1084600045F21601FCF7ADFA042000F02FBEDFF84C
:108470001004BBF89C3045F21A01FCF7A2FA082060
:1084800000F024BEFCF7E2FA00F00A83002840F076
:108490000F83BBF8983005E3DFF8E403BBF8A8309E
:1084A00045F22001FCF78DFA9AE2DFF8D403BBF81D
:1084B0009A3045F21901FCF784FA072000F006BE55
:1084C000EF48BBF8A23045F21D01FCF77AFA0B2009
:1084D00000F0FCBD9BF84100002800F0EB82012871
:1084E00040F0F1820BF1AE00E6E2E548BBF8323035
:1084F00045F2340100F08EBCDF480024012109223E
:10850000A0F82F1080F8314000F12901022005F079
:1085100099FC00F082BCDFF85C0E9BF8433045F21A
:10852000300100F077BCDFF84C0E9BF8483045F284
:10853000380100F06FBCDFF83C0E9BF84A3045F282
:10854000450100F067BC00BF00C015449999D93FB0
:108550009A999999E17A14AE47E1CA3F002A00201E
:10856000A0000020DFF80C0E9BF8413045F22E01F0
:1085700000F050BCDFF8FC0D9BF84C3045F23E019A
:1085800000F048BCDFF8EC0D9BF8423045F22F01BB
:1085900000F040BCDFF8DC0D9BF8463045F23201BC
:1085A00000F038BC9BF840009BF84C10012808BF35
:1085B000012900F08D82012808BF002900F02584E0
:1085C000022840F02984022300F020BCDFF8A40D2B
:1085D0009BF8443045F2310100F01CBCFCF736FA40
:1085E00000F07882002840F08382BBF82E3079E2D8
:1085F000DFF8800D9BF8453045F2440100F00ABCDD
:10860000DFF8840DFCF71DFC0B2400F006BC9BF882
:108610004100002800F06E82012840F0FD830BF13C
:10862000200069E24174032400F011BE98F819009B
:10863000012840F0EC81DFF8541D0120CA8B531C47
:10864000002A9AB2CB8308BF0320C82AFFF4D7AC14
:10865000002088F81900C8830320D0E4411E0129B6
:1086600005D8002188F82D100121ABF8541088F8A6
:108670002B00EAE0012488F83710002908BF032402
:1086800088F8354000F024BD46F26301DFF8E40CC1
:10869000022243F67F430FE0DFF8D80CBBF8183016
:1086A00045F21101FCF72DFCF3E346F26301DFF81C
:1086B000C40C02224FF6FF73FCF7A0FC0324E9E38D
:1086C0009BF84E000138C0B2032860D80FF6A841CD
:1086D00051F82000038853E0DFF8980C46F293012C
:1086E00002224FF6FF73FCF789FC0B2088F8450047
:1086F0009BF84F00002800F09E81012846D1DFF84A
:10870000740CBBF88E3045F241013DE0DFF8640C9B
:108710009BF84E3045F24301FCF753F9042436E050
:10872000DFF8500C46F29301022244F25073FCF73A
:1087300065FC0B242BE0DFF83C0C9BF84F3045F236
:108740004201FCF73EF99BF84F000A24012808BFBC
:1087500009241CE0DFF81C0CBBF8083045F23F018F
:1087600012E0DBF808009BF82510BBF8182045281C
:1087700098BF11469BF83800012818BF11468BB2EC
:10878000DFF8F00B45F24001FCF7BBFB002488F852
:108790004540002000F09FBCDBF804004728C0F0F3
:1087A00017839BF825401CE346F20301DFF8C40B56
:1087B00002224FF66043FCF721FC032446E0DFF879
:1087C000CC0B038E21E02F4C2F4DDFF8C00B008E19
:1087D000FCF749F802460B4628462146FBF78BFD7D
:1087E000FCF77BF80346DFF88C0BD0F8044128E057
:1087F00046F20301DFF87C0B02224FF6FF73FCF711
:10880000FDFB062422E0BBF80830DFF8680B45F2D8
:108810001001D0F8044116E0DFF8580BD0F80441FD
:10882000DBF8080081087C2900F2CE80FCF71BF8F9
:10883000164A174BFBF75FFDFCF74FF80346DFF8CE
:10884000340B45F20B010222A04700249BF84D0097
:108850001A2888F82A4000F23B84012101FA00F02E
:108860000C49084200F034849BF84140A4B1012C2B
:1088700018D10BF1200011E000000020A001002021
:10888000802B002047E1CA3FE17A14AE9A9999996A
:108890009999D93F060000040BF11C000088DFF80D
:1088A000EC1A08869BF93700DBF804A09BF9361018
:1088B0005044401AFBF7C1FF9BF84C109BF84090C6
:1088C000064689F0010081F0010141EA0007E24912
:1088D0003046FBF7A9FE0546380618BF3546012C81
:1088E0002FD0002C40F0F4839BF839009BF84A10FD
:1088F0009BF8434081F0010180F0010040EA01064D
:108900005046FBF79AFF002E18BF2846FBF7D1FF11
:10891000BBF89020904288BF0246CBF80820B9F1FE
:10892000010F08BF012C40F0D383BBF81C1001F1EC
:108930001400824280F0CC83A1F11400824240D81E
:10894000C6E39BF8390001280BD19BF84A000128A7
:1089500007D10AEBCA000521FCF72CFBFBF76DFFE2
:108960000AE0BE492846FBF7B7FEBD49FBF7E6FE25
:108970004FF08441FBF758FEBBF89010052201EB45
:10898000C101B1FBF2F101F12004FBF792FF844237
:1089900088BF2046CBF80800B9F1010F40F098835A
:1089A0009BF84310012940F09383BBF8201001F19C
:1089B0002402904280F08C83A1F12402904240F284
:1089C0008783CBF8081083E3DFF8A80945F20B0191
:1089D0000222C82338E703243AE7062438E7C273A3
:1089E0000E2073E388F83C204171012400F0ADBCF7
:1089F0000224DFF8800945F2010102222346FCF738
:108A000036FAFFF7F3BB8174042400F020BC9BF816
:108A10004D109BF84000282908BF012800F044822F
:108A2000012202284FF0010008BF0520282918BFA5
:108A30001046FFF7E4BADFF83C0945F24101022293
:108A400000230024FCF713FAA1E6012488F82D0086
:108A5000002808BF0424F9E698F83400002800F044
:108A60001C829BF8240098F83210814200F0118299
:108A700088F8320022E6BBF8B030DFF8F80845F29B
:108A80001E01FBF79EFF0C2020E30BF192000388F0
:108A9000DFF8E00845F21501FBF793FF032015E32B
:108AA000BBF8AC30DFF8CC0845F21801FBF789FFC2
:108AB00006200BE30BF19E000388DFF8B80845F2AF
:108AC0001B01FBF77EFF092000E3047502245EE62C
:108AD00000239BE1BBF82E00052100EBC000FCF752
:108AE00069FA83B2DFF88C0845F23301FBF769FFBE
:108AF0000E2492E10BF11C000388DFF8780845F2A0
:108B0000350187E1FBF7A2FF00F01A82002840F050
:108B10007582BBF836315FE2FBF798FF00F01382F5
:108B2000002840F06B82BBF826313FE2BBF84231AF
:108B300018E1BBF81C3115E1BBF81E3159E0BBF858
:108B40000631F7E0FBF782FF00F00082002840F0DA
:108B50005582BBF818314CE2FBF778FF00F0F98141
:108B6000002840F04B82BBF8E2303CE2BBF83A31DF
:108B7000C8E0BBF8DE3010E1BBF81631C9E0BBF845
:108B8000443136E0DFF8EC07BBF8CE3045F22C017B
:108B9000FBF717FF0C2434E2FBF758FF00F0DC81F1
:108BA000002840F0E181BBF8BA30D7E1FBF74EFF77
:108BB00000F0DC81002840F02182BBF82E3112E267
:108BC000BBF8D03015E0DFF8AC07BBF8C83045F291
:108BD0002A01FBF7F6FE0A2413E2FBF737FF00F049
:108BE000C881002840F00A82BBF80031DEE1BBF802
:108BF000F830DFF8800745F22D01FBF7E2FE002494
:108C0000FFE1DFF87007BBF8B63045F22301FBF750
:108C1000D8FE0324F5E1BBF8E0308BE0DFF8540721
:108C2000BBF8B83045F22401FBF7CBFE0424E8E1A1
:108C3000FBF70CFF00F0A081002840F0A581BBF8F5
:108C4000C2309BE1FBF702FF00F0A081002840F05A
:108C5000BC81BBF8B2309BE1000048C2000010416B
:108C60000000A040FBF7F2FE00F09B81002840F0DE
:108C7000C581BBF81031AFE1BBF8E63083E0BBF84B
:108C8000323180E0BBF8EE303CE0DFF8E806BBF8BC
:108C9000BE3045F22601FBF794FE0624B1E1BBF895
:108CA000F03036E0FBF7D2FE00F07E81002840F085
:108CB000A581BBF8DA3079E1DFF8B806BBF8C0303F
:108CC00045F22701FBF77DFE07249AE1BBF8E83067
:108CD00041E0FBF7BBFE00F06E81002840F073819D
:108CE000BBF8CA3069E1DFF88C06BBF8C63045F244
:108CF0002901FBF766FE092483E1BBF80E312AE067
:108D0000BBF81431DFF86C0645F2290174E1BBF8B9
:108D10003C31DFF8600645F22A016DE1FBF796FE73
:108D200000F05581002840F06981BBF8F23060E125
:108D3000BBF82C31DFF83C0645F224015CE1FBF77F
:108D400085FE00F04781002840F05881BBF8EA30EA
:108D500042E1BBF83431DFF81C0645F227014BE154
:108D6000BBF8F630DFF80C0645F22C0144E1FBF7C6
:108D70006DFE00F03681002840F04081BBF80831DC
:108D800031E1BBF80C31DFF8EC0545F2260133E1A7
:108D9000BBF82A3101E0BBF80431DFF8D80545F211
:108DA000230129E1FBF752FE00F02181002840F069
:108DB0002581BBF83E311CE104208CE1BBF8261074
:108DC0008A423FF4FBAABBF88C108186FFF70BBBED
:108DD000DFF8A00545F24001022200230024FCF741
:108DE00046F8DFF8A40500F14A0180F85740022058
:108DF0000E2205F027F8002088F83F0068E1817115
:108E00000224A2E2C174052421E20123DFF86405F3
:108E100045F21401FCF775F8002488F83A4057E150
:108E200000287FF412AD98F82C00DFF860150024BC
:108E3000421CDBF808004B8E88F82C2098423FF447
:108E400005ADD2B20A2AFFF401AD488600200624FF
:108E500088F82C00FAE49BF8560098F83310814209
:108E600040F0D280002800F0FE819BF822009BF8A1
:108E70002310814200F0F7818BF82300FFF71EBC1E
:108E8000002188F8341008F1320100220A7088F8B5
:108E90003000002488F82E401AE1012488F834407C
:108EA000F8E74475032472E40420FFF7EDB80728BF
:108EB00008BF002900F0D581072808BF012900F06C
:108EC0000282072808BF022900F02A82002200241B
:108ED000032908BF2524072818BF144621E2C171C1
:108EE000032432E2022488F84200002818BF01243B
:108EF000ADE1FCF79FF83FF67EAFDFE810F004002D
:108F0000F901ED01F0019BF804416AE7FCF792F8E2
:108F10003FF671AFDFE810F00400F801E601F2015E
:108F20009BF82A415DE7FCF785F83FF664AFDFE880
:108F300010F00400F401E201EE019BF8DE4050E77E
:108F4000BBF8383148E0BBF828312FE0BBF81A31C4
:108F50004FE0BBF8E43046E0BBF8BC30DFF8140467
:108F600045F22501FBF72DFD05244AE0BBF8303121
:108F700039E0BBF8023119E0BBF8C430DFF8F40384
:108F800045F22801FBF71DFD08243AE0BBF8B43098
:108F9000DFF8E00345F2220102220224FBF767FF1B
:108FA0002FE0BBF8123117E0BBF8DC30DFF8C40368
:108FB00045F2220120E0BBF8CC30DFF8B80345F2DF
:108FC0002B01FBF7FEFC0B241BE0022419E0BBF88D
:108FD000F4300EE0BBF8EC30DFF8980345F22801DE
:108FE0000AE0BBF80A31E34845F2250104E0BBF88A
:108FF0004031E04845F22B01FBF783FF98F8380039
:10900000441C88F8384063E0012488F833000028C5
:1090100008BF04243EE7BBF8A400BBF81C10814243
:1090200051D1BBF8B000BBF8201081424BD19BF866
:109030002200BBF8A610814245D1BBF8A8003DE054
:10904000BBF89800BBF81C1081423CD1BBF8AC00C7
:10905000BBF82010814236D19BF82200BBF89A1051
:10906000814230D1BBF89C0028E0BBF89E00BBF8E1
:109070001C10814227D1BBF8AE00BBF82010814202
:1090800021D19BF82200BBF8A01081421BD1BBF874
:10909000A20013E0BBF89200BBF81C10814212D171
:1090A000BBF8AA00BBF8201081420CD19BF822002B
:1090B000BBF89410814206D1BBF89600BBF826108D
:1090C00081423FF46BA900208BF8890088F83D00AD
:1090D00098F81F00013088F81F0098F81E0000283B
:1090E00040F09180BBF81C0000EBC0010520B1FBF3
:1090F000F0F12031ABF82010BBF82E10FBF7ADFEDD
:10910000ABF83010BBF89210FBF7A7FEABF8AA1033
:10911000BBF89810FBF7A1FEABF8AC10BBF89E10A3
:10912000FBF79BFEABF8AE10BBF8A410FBF795FE67
:10913000ABF8B010BBF8B210FBF78FFEABF8B41071
:10914000BBF8BA10FBF789FEABF8BC10BBF8C21035
:10915000FBF783FEABF8C410BBF8CA10FBF77DFE2B
:10916000ABF8CC10BBF8DA10FBF777FEABF8DC10ED
:10917000BBF8E210FBF771FEABF8E410BBF8EA10A5
:10918000FBF76BFEABF8EC10BBF8F210FBF765FEDB
:10919000ABF8F410BBF80011FBF75FFEABF802115F
:1091A000BBF80811FBF759FEABF80A11BBF8101118
:1091B000FBF753FEABF81211BBF81811FBF74DFE8D
:1091C000ABF81A1100218BF88910012188F81E10C4
:1091D000BBF82611FBF741FEABF82811BBF82E11A6
:1091E000FBF73BFEABF83011BBF83611FBF735FE51
:1091F000ABF83811BBF83E1101EBC101B1FBF0F047
:109200002030ABF840015B48D0F80811BDE8F84FBA
:109210000847A1B20B248187FFF7B9BAC17001EBEF
:10922000410000248000042938BF441CE9E6017293
:1092300004248AE0E1B20024102906D39BF84D10E3
:1092400088F84440012908BF062488F84300DBF869
:1092500014000021632888BF012188F84110FEF71F
:10926000C6BF01245DE09BF8250098F831108142CB
:109270002ED145489BF8381042788A4257D19BF846
:10928000391082788A423FF404AE8170FFF716BA33
:10929000017401201AE7D2B200240A2AFFF477AA47
:1092A00000297FF474AADBF81810038F9BF825209F
:1092B000994203D1438F93423FF469AA42870187C1
:1092C0000724FFF764BA0D242BE0417209243CE027
:1092D00088F83100FFF7F2B99BF8144181E59BF85B
:1092E0001C417EE59BF83A417BE59BF8C64078E55A
:1092F0009BF80C4175E59BF8EE4072E59BF8424106
:109300006FE59BF8CE406CE59BF8324169E59BF830
:10931000F64066E59BF8BE4063E59BF8E64060E5F5
:10932000192488F839006CE6817205240DE00024C8
:109330004170002908BF0324ACE5C172062404E093
:109340000173072401E041730C249BF84D0098F849
:109350003B1081423FF461AD0C2807D00E2803D0AA
:10936000132808BF0A2402E0082400E00D2488F82E
:109370003B0052E5802B0020B62A0020BE2A0020A8
:10938000C62A0020CE2A002000000020A0010020D4
:10939000064907480A7822B94CF6CC4202600122FD
:1093A0000A704AF6AA210160704700BF31230020ED
:1093B0000030004010B5214C226842F001022260CA
:1093C00001804FF4801000F017F8FBF715BF00BFC5
:1093D00008480168C9071CBF002070470168490799
:1093E00044BF012070470068C0064FF0020058BF1C
:1093F000032070470C200240B0B50446FFF7E8FF99
:109400000025013C45F1000118B911B1FFF7E0FF5B
:10941000F7E7B0BD10B5094C216841F002012160A9
:109420006060206840F0400020604FF08040FFF70F
:10943000E3FF206820F00200206010BD10200240F1
:109440002DE9F04F8FB0DFF8608A98F80600032806
:1094500001F22F86DFE810F0040036050C00080545
:1094600098F81300002801F02280012001F01BB8B9
:10947000FB49DFF8384AFB4FDFF8345A881D89462C
:1094800098F8121011F0010608BFA7F1D20094F964
:10949000361089B2A84709F10800002E08BFA7F1CD
:1094A000D000E18DA84709F10A00002E08BFA7F1FE
:1094B000CE00618EA84709F10C00002E08BFA7F16D
:1094C000CC00B4F88A10A84709F1D000002E08BFDC
:1094D000A7F1080094F84010A84709F10E00002EEB
:1094E00008BFA7F1CA0094F84110A84709F110007D
:1094F000002E08BFA7F1C80094F84210A84709F150
:109500001200002E08BFA7F1C60094F84310A84728
:1095100009F11400002E08BFA7F1C40094F844100C
:10952000A84709F11600002E08BFA7F1C20094F861
:109530004510A84709F11800002E08BFA7F1C00088
:1095400094F84610A84709F11A00002E08BFA7F1A9
:10955000BE0094F84810A84709F11C00002E08BF6F
:10956000A7F1BC0094F84910A84709F11E00002E8D
:1095700008BFA7F1BA0094F84B10A84709F12000E2
:10958000002E08BFA7F1B80094F84C10A84709F1C5
:109590002200002E08BFA7F1B600B4F89210A84729
:1095A00009F12400002E08BFA7F1B400B4F894100C
:1095B000A84709F12600002E08BFA7F1B200B4F8B1
:1095C0009610A84709F12800002E08BFA7F1B000A7
:1095D000B4F89810A84709F12A00002E08BFA7F197
:1095E000AE00B4F89A10A84709F12C00002E08BF6D
:1095F000A7F1AC00B4F89C10A84709F12E00002E8A
:1096000008BFA7F1AA00B4F89E10A84709F13000DE
:10961000002E08BFA7F1A800B4F8A010A84709F1D0
:109620003200002E08BFA7F1A600B4F8A210A84788
:1096300009F13400002E08BFA7F1A400B4F8A4106B
:10964000A84709F13600002E08BFA7F1A200B4F820
:10965000A610A84709F13800002E08BFA7F1A00006
:10966000B4F8A810A84709F13A00002E08BFA7F1E6
:109670009E00B4F8B210A84709F13C00002E08BFC4
:10968000A7F19C00B4F8B610A84709F13E00002EDF
:1096900008BFA7F19A00B4F8B810A84709F1400034
:1096A000002E08BFA7F19800B4F8BA10A84709F136
:1096B0004200002E08BFA7F19600B4F8BE10A847DC
:1096C00009F14400002E08BFA7F19400B4F8C010BF
:1096D000A84709F14600002E08BFA7F19200B4F890
:1096E000C210A84709F14800002E08BFA7F190005A
:1096F000B4F8C610A84709F14A00002E08BFA7F128
:109700008E00B4F8C810A84709F14C00002E08BF1D
:10971000A7F18C00B4F8CA10A84709F14E00002E3A
:1097200008BFA7F18A00B4F8CE10A84709F150008D
:10973000002E08BFA7F18800B4F8D010A84709F19F
:109740005200002E08BFA7F18600B4F8D210A84737
:1097500009F15400002E08BFA7F18400B4F8D61018
:10976000A84709F15600002E08BFA7F18200B4F8FF
:10977000D810A84709F15800002E08BFA7F18000B3
:10978000B4F8DA10A84709F15A00002E08BFA7F173
:109790007E00B4F8DE10A84709F15C00002E08BF77
:1097A000A7F17C00B4F8E010A84709F15E00002E94
:1097B00008BFA7F17A00B4F8E210A84709F16000E9
:1097C000002E08BFA7F17800B4F8E610A84709F109
:1097D0006200002E08BFA7F17600B4F8E810A84791
:1097E00009F16400002E08BFA7F17400B4F8EA1074
:1097F000A84709F16600002E08BFA7F17200B4F86F
:10980000EE10A84709F16800002E08BFA7F170000C
:10981000B4F8F010A84709F16A00002E08BFA7F1BC
:109820006E00B4F8F210A84709F16C00002E08BFD2
:10983000A7F16C00B4F8F610A84709F16E00002EED
:1098400008BFA7F16A00B4F8F810A84709F1700042
:10985000002E08BFA7F16800B4F8FA1000F004B8B1
:1098600000F40108D8FC0108A84709F17200002E95
:1098700008BFA7F16600B4F8FC10A84709F174000E
:10988000002E08BFA7F16400B4F8FE10A84709F144
:109890007600002E08BFA7F16200B4F80011A847B7
:1098A00009F17800002E08BFA7F16000B4F8041198
:1098B000A84709F17A00002E08BFA7F15E00B4F8AE
:1098C0000611A84709F17C00002E08BFA7F15C0033
:1098D000B4F80811A84709F17E00002E08BFA7F1CF
:1098E0005A00B4F80C11A84709F18000002E08BFF7
:1098F000A7F15800B4F80E11A84709F18200002E14
:1099000008BFA7F15600B4F81011A84709F1840068
:10991000002E08BFA7F15400B4F81411A84709F1AC
:109920008600002E08BFA7F15200B4F81611A84710
:1099300009F18800002E08BFA7F15000B4F81811F3
:10994000A84709F18A00002E08BFA7F14E00B4F81D
:109950001C11A84709F18C00002E08BFA7F14C008C
:10996000B4F81E11A84709F18E00002E08BFA7F118
:109970004A00B4F82011A84709F19000002E08BF52
:10998000A7F14800B4F82211A84709F19200002E6F
:1099900008BFA7F14600B4F82411A84709F19400C4
:1099A000002E08BFA7F14400B4F82611A84709F11A
:1099B0009600002E08BFA7F14200B4F82A11A8476C
:1099C00009F19800002E08BFA7F14000B4F82C114F
:1099D000A84709F19A00002E08BFA7F13E00B4F88D
:1099E0002E11A84709F19C00002E08BFA7F13C00EA
:1099F000B4F83211A84709F19E00002E08BFA7F164
:109A00003A00B4F83411A84709F1A000002E08BFAD
:109A1000A7F13800B4F83611A84709F1A200002ECA
:109A200008BFA7F13600B4F83A11A84709F1A4001D
:109A3000002E08BFA7F13400B4F83C11A84709F183
:109A4000A600002E08BFA7F13200B4F83E11A847C7
:109A500009F1A800002E08BFA7F13000B4F84211A8
:109A6000A84709F1AA00002E08BFA7F12E00B4F8FC
:109A70004411A84709F1AC00002E08BFA7F12C0043
:109A8000B4F84611A84709F1AE00002E08BFA7F1AF
:109A90002A00B4F84811A84709F1B000002E08BF09
:109AA000A7F12800B4F84A11A84709F1B200002E26
:109AB00008BFA7F12600B4F84C11A84709F1B4007B
:109AC000002E08BFA7F12400B4F84E11A84709F1F1
:109AD000B600002E08BFA7F12200B4F85011A84725
