:020000040800F2
:10400000681C002085410008157800081178000818
:1040100013780008CF4800089B89000800000000C2
:1040200000000000000000000000000029850008DA
:10403000D148000800000000B97900082D8500086B
:104040009F4100089F4100089F4100089F410008D0
:104050009F4100089F4100089F4100089F410008C0
:104060009F4100089F4100089F4100089F410008B0
:104070009F4100089F4100089F4100089F410008A0
:104080009F4100089F4100089F4100089F41000890
:104090009F4100089F4100089F4100089F41000880
:1040A0009F4100089F4100089F4100089F41000870
:1040B0009F410008ED8800089F4100089F410008CB
:1040C0009F4100089F4100089F4100089F41000850
:1040D0009F410008F588000839890008998900087F
:1040E000D54800089F4100089F41000800000000DB
:1040F00000000000000000000000000000000000C0
:10410000000000009F4100089F41000800000000DF
:10411000EF880008F188000800000000000000009F
:104120009F4100089F4100089F4100089F410008EF
:10413000000000000000000000000000000000007F
:104140000000000000000000000000009F41000887
:1041500000000000000000009F4100089F4100088F
:104160000000000000000000000000009F41000867
:10417000DFF80CD000F0A0F900480047B594000823
:10418000681C00200648804706480047FEE7FEE717
:10419000FEE7FEE7FEE7FEE7FEE7FEE7FEE7FEE7F7
:1041A00079880008714100082DE9FE4F804681EAB8
:1041B0000300C00F0C46009021F0004123F00045A1
:1041C000B8EB0200A94105D24046214690461C4664
:1041D0000B46024623F00040104347D0270DC7F39B
:1041E0000A00C3F30A510290401A019040286BDA8A
:1041F000C3F3130040F4801B0098924620B10023C3
:10420000D2EB030A63EB0B0B01985946C0F1400255
:10421000504600F063F906460D4650465946019A4D
:1042200000F07BF910EB08006141002487EA11528D
:1042300084EAE7731A4340D0009A62B3019A012AD4
:104240004FEA075215DC001B61EB02014FF0004200
:1042500002EA0752CDE90042001C41F580113246C6
:104260002B4600F07BF903B0BDE8F08F40462146B5
:10427000F9E7001B61EB0201001C41F580130018F7
:104280005B412018A2F5001747EB030140EAD57007
:10429000B6196D4111E06D084FEA360645EAC07562
:1042A0004FEA0752001B61EB0201001C41F580112F
:1042B00049084FEA30000019514132462B4603B0FD
:1042C000BDE8F04F00F03BB9009801224000002308
:1042D000D0EB020263EBE073009821464FEAE074F2
:1042E000B8EB000061EB0401E9E783F000435BE712
:1042F00081F0004158E72DE9FE4F81EA030404F004
:10430000004421F0004100944FF0000B23F00043E3
:1043100050EA01045ED052EA03045BD0C3F30A54AE
:10432000C1F30A552C44A4F2F3340194A0FB0254C7
:10433000C1F3130141F48011C3F3130343F4801359
:1043400001FB024400FB034E840A970A44EA8154AD
:1043500047EA8357A4FB076802958D0A05FB07858A
:104360004FEA932C04FB0C542705029D4FEA065894
:1043700047EA1637B5EB08056EEB070C870E920E71
:1043800047EA811742EA8312A7FB0201B6EB0B0151
:1043900064EB00042B0D43EA0C335E1844EB1C5015
:1043A000DA465146E7FB0201C5F313044FEA0B332B
:1043B00043EA14534FEA0432019C43EA0603A4F192
:1043C0000C040294009CCDE900B400F0C7F803B0DF
:1043D000BDE8F08F00200146F9E72DE9F04D81EAB4
:1043E000030404F0004B21F0004514464FF0000A8E
:1043F00023F0004150EA050220D054EA01021DD00A
:10440000C5F30A570246C5F31303C1F31300C1F302
:104410000A5640F4801543F48013A7EB0608101BDE
:10442000D64608F2FD3873EB050002D308F1010807
:1044300001E092185B41B8F1000F03DA0020014659
:10444000BDE8F08D00204FF48011064684460EE052
:10445000171B73EB050705D3121B63EB050306431C
:104460004CEA010C49084FEA300092185B4150EACF
:104470000107EDD152EA030012D082EA040083EA78
:104480000501084305D0101BAB4106D201220023D1
:1044900006E000224FF0004302E06FF001025310EB
:1044A0001AEB06004CEB085110EB0A0041EB0B0134
:1044B000BDE8F04D00F043B8064C074D06E0E0685B
:1044C00040F0010394E8070098471034AC42F6D35B
:1044D000FFF752FE38AA000858AA0008202A04DB79
:1044E000203A00FA02F1002070479140C2F1200307
:1044F00020FA03F3194390407047202A04DB203A46
:1045000021FA02F00021704721FA02F3D040C2F1F3
:1045100020029140084319467047202A06DBCB173A
:10452000203A41FA02F043EAE07306E041FA02F36E
:10453000D040C2F12002914008431946704710B59F
:10454000141E73F1000408DA401C41F100019218B6
:104550005B411A4301D120F0010010BD2DE9F04D5F
:1045600092469B4611B1B1FA81F202E0B0FA80F2B4
:1045700020329046FFF7B2FF04460F4640EA0A0099
:1045800041EA0B0153465A46084313D0114653EAF9
:10459000010019D0C8F140025046FFF7AEFF0546B2
:1045A0000E46504659464246FFF798FF084305D04D
:1045B000012004E020463946BDE8F08D0020054387
:1045C00046EAE0762C4337430A986305E40AA0EBF9
:1045D00008000022FD0A44EA47540A3002D50020B0
:1045E0000146E9E7010510196941DDE908450019AF
:1045F0006941BDE8F04DA2E740EA01039B0703D003
:1046000009E008C9121F08C0042AFAD203E011F811
:10461000013B00F8013B521EF9D27047D2B201E0D3
:1046200000F8012B491EFBD270470022F6E710B5B7
:1046300013460A4604461946FFF7F0FF204610BD10
:10464000F0B480EA0102D40F4200B2EB410F02D273
:104650000246084611464A0042D0C30DDDB2C1F3FE
:10466000C752AD1A202D35DAC1F3160141F400020C
:1046700004B15242C5F1200602FA06F12A41104463
:10468000B3EBD05F23D0C4B1012DA0EBC35009DC44
:10469000F0BC4FF0004202EAC352DBB200F500006A
:1046A00000F0E7B8400000F1807000EBC350A0F1CB
:1046B000807040EAD170490009E0490841EAC071C0
:1046C000A0EBC35000F50000400800EBC350F0BC65
:1046D00000F0C6B86142012202EB4101001BF6E77F
:1046E000F0BC704781F00041AAE780F00040A7E7E6
:1046F00080EA010210B502F00043400022D04A00D7
:104700001FD0010E01EB1261C0F35600C2F3560236
:1047100040F4000042F40002A0FB022000047F39B4
:10472000140400D0401C50EA124001D44000491E3D
:10473000C2B20C0604EBD010401C4008802A02D004
:1047400003E0002010BD20F00100002900DA002065
:10475000184310BD002801DBC0F10040002901DB37
:10476000C1F10041814201D801207047002070470B
:10477000002801DBC0F10040002901DBC1F100414C
:10478000814201D20120704700207047002801DBE0
:10479000C0F10040002901DBC1F10041814201D399
:1047A0000120704700207047002801DBC0F1004065
:1047B000002901DBC1F10041814201D9012070478C
:1047C00000207047C10F80EAE0700844CA079623B2
:1047D000002100F04EB896230022114600F049B89F
:1047E0000EB540F2334102910021CDE900110A4695
:1047F0000B46FFF7B3FE03B000BD20F00040C10D33
:10480000C0F3160040F400007F2901DA0020704751
:10481000962903DCC1F19601C8407047963988405B
:10482000704770B5C1F30A5201F000450024C1F38E
:10483000130140F2FF3341F480119A4201DA002063
:1048400070BD40F233439A42A2F2334203DC52423B
:10485000FFF753FE00E090402C43F1D0404270BD82
:104860000029A8BF7047401C490008BF20F0010084
:10487000704710B4B0FA80FC00FA0CF050EA010462
:1048800004BF10BC704749B1CCF1200421FA04F4F4
:1048900011FA0CF118BF012121430843A3EB0C01CD
:1048A000CB1D4FEA00614FEA102042BF002010BC30
:1048B000704700EBC35010440029A4BF10BC7047E0
:1048C000401C490008BF20F0010010BC7047FEE703
:1048D0007047000070B5AE480168890440F18C80D3
:1048E0004FF40051AB4D016095F82C00002831D0F9
:1048F000012840F0818095F83800002840F07C8045
:1049000095F8370000284AD0012840F0758095F8C6
:104910003A00002800F0708002F09DFFB5F86C109E
:1049200001EB900495F864006C60032800F2C180EC
:10493000DFE800F002636E7902F07CFF00F2B980DC
:10494000DFE810F00500E600E900EC00B500B5F87E
:10495000860000E195F82B0003283FD0022823D0E1
:10496000002849D195F82900012837D0002843D1E3
:1049700095F83A0000283FD0894C207808B90120EA
:10498000207002F068FFB5F86C10E28A01EB90012C
:10499000288A6960824240F06A80104673E002F023
:1049A0005AFF7D4900221FE095F82900012815D003
:1049B00010BB95F83A00F8B1794C207808B901207D
:1049C000207002F048FFB5F86C1001EB9006298AC0
:1049D000E08A6E60884231D101463BE002F03BFF45
:1049E0006F4900220A706C494A66B5F86C1001EBF9
:1049F000900068606948426370BD02F01BFF58D8A0
:104A0000DFE800F0038F92955500B5F8A400A2E00E
:104A100002F010FF4DD8DFE800F0038D90934A00BC
:104A2000B5F8C20097E002F005FF42D8DFE800F0D9
:104A3000038B8E913F00B5F8E0008CE0401A1E28F1
:104A400007DB864802F00AFF564805F0C1FF6E6892
:104A5000298AE182288C084400F11E02964201D97D
:104A600000253BE050398E4226D24F4D36E0121AD7
:104A70001E2A07DB794802F0F1FE4A4805F0A8FF3C
:104A80006968288AE082B5F926208C1AA0F15001C5
:104A90008C4201D2444D38E095F8341011B301290D
:104AA0002ED1FFF798FE0546A4F132001EE000204B
:104AB000E8863948446E5BE0FFF784FE0446B5F9AA
:104AC0002600301AFFF787FE0146204602F00EFF4F
:104AD000002104460025FFF767FE00B92C462E484A
:104AE00044664BE0FFF777FE05462046FFF773FE6E
:104AF0000146284602F0FAFE04462748446601E0D3
:104B00002548446E02F0B1FEC0BB23482C4634E079
:104B1000B5F88C001FE0B5F892001CE0B5F89800DD
:104B200019E0B5F8AA0016E0B5F8B00013E0B5F842
:104B3000B60010E0B5F8C8000DE0B5F8CE000AE008
:104B4000B5F8D40007E0B5F8E60004E0B5F8EC00ED
:104B500001E0B5F8F200FFF73EFE05462046FFF7FC
:104B60003AFE0146284602F0C1FE04460A48446661
:104B700002F07BFE10B90848002445662046FFF786
:104B80003CFE06494863086840F00100086070BDBB
:104B9000140401400C090020D81200200004004039
:104BA0005412002024AA0008005F6A4770B56949C2
:104BB000144A8B6910681C4698420FD2EFF3108597
:104BC00072B68B69A34205D10E69886101360E6108
:104BD000BFF35F8F05B962B6A34211D051E8063F1B
:104BE000A34208D1BFF35F8F41E806042CB9BFF39D
:104BF0005F8F012402E0BFF32F8F0024002CD9D057
:104C000070BD00BF041000E07CB504465148007838
:104C100020B1654890F85F00400600D47CBDFFF7E6
:104C2000C5FF054600200D49EFF305862246CDE974
:104C300000006846FFF7E0FC0948002E294608BF3F
:104C40004FF47E40DDE9002364F3124000F1407030
:104C500002B0BDE8704000F005B800BF501300205E
:104C600000FE08002DE9FC4F4FF0005401924FF078
:104C70000708009304EA92024FF0805404EAD1043A
:104C8000204310434FF0804202EA5302024331486E
:104C900000F10C04304BB8F1000F58D050E8015F20
:104CA0006E1C40E80167002FF8D105F03F0905F4BC
:104CB000707603EB091A42EA863B554655F80CEF2D
:104CC0005FEA4E161AD40EF00046774655E800EF1C
:104CD00046EA0B0646F04066BE4507D145E8006748
:104CE00037B9BFF35F8F4FF0010C03E0BFF32F8F95
:104CF0004FF0000CBCF1000FE2D002E0A8F1010877
:104D0000C8E786F0004221F00041134B4FEA091634
:104D100002F00044214499510099019B21F0004187
:104D200023F000432144234400F108040120CAE990
:104D3000013122F08061BFF35F8F296054E8001FCA
:104D4000013144E80012002AF8D1BDE8FC8F0020B0
:104D5000F4E700BF40180020C01300202DE9F04107
:104D6000DFF8448000234FF0010E4FF0000CBCF13F
:104D7000040F08BFBDE8F08120FA0CF7FF070FD041
:104D80000F4697420CD803EBD70407F0070601370C
:104D900018F804500EFA06F6354308F80450F0E708
:104DA0000CF1010C2033E2E7C01700202DE9F04F91
:104DB000D9B0DFF8CCBE9BF803000A2800F25C876C
:104DC000DFE810F00B007602C4003E011300350549
:104DD000E605C801B006B30092069BF80D00002856
:104DE00000F05A87012000F045BFD84E9BF80C1008
:104DF000DFF8904ED64ADFF8907E06F1300002F0E0
:104E00001EFD08BF02F12E00B4F88610B84706F167
:104E10003200002D08BF08F13000B4F88810B84700
:104E200006F13400002D08BF08F13200B4F88A10F2
:104E3000B84706F13600002D08BF08F13400B4F879
:104E40008C10B84706F13800002D08BF08F1360075
:104E5000B4F88E10B84706F13A00002D08BF08F1EB
:104E60003800B4F89010B84706F13C00002D08BF98
:104E700008F13A00B4F89210B84706F13E00002D50
:104E800008BF08F13C00B4F89410B84706F14000A0
:104E9000002D08BF08F13E00B4F89610B84706F19F
:104EA0004200002D08BF08F14000B4F89810B84740
:104EB00006F14400002D08BF08F14200B4F89A1032
:104EC000B84706F14600002D08BF08F14400B4F8C9
:104ED0009C10B84706F14800002D08BF08F14600B5
:104EE000B4F89E10B84706F14A00002D08BF08F13B
:104EF0004800B4F8A010B84706F14C00002D08BFD8
:104F000008F14A00B4F8A210B847B4F8860004F1DA
:104F10008806D4F8A0400BF13C07ABF83A006FCEFE
:104F2000CBF854406FC700F0A2BE88489BF80C2015
:104F30008749CA30D20708BF01F1C800DFF84C1D0D
:104F4000B1F8521003F07EFE00F091BE7F4E9BF848
:104F50000C10DFF8304D7E4ADFF82C7DB01D9046F6
:104F600011F0010508BF101DE18CB84706F10800DB
:104F7000002D08BF08F10600B4F86610B84706F126
:104F8000C600002D08BF08F1C40094F82C10B847E3
:104F900006F10A00002D08BF08F1080094F82D1052
:104FA000B84706F10C00002D08BF08F10A0094F87C
:104FB0002E10B84706F10E00002D08BF08F10C00B6
:104FC00094F82F10B84706F11000002D08BF08F123
:104FD0000E0094F83010B84706F11200002D08BFFB
:104FE00008F1100094F83110B84706F11400002DB4
:104FF00008BF08F1120094F83210B84706F1160005
:10500000002D08BF08F1140094F83310B847E08C65
:10501000ABF81E00B4F86600ABF8200094F82C0042
:105020008BF80400B4F82D00ABF80500D4F82F007D
:10503000CBF8070094F833008BF80B0000F017BE94
:10504000424E9BF80C10DFF83C4C414ADFF8387CAC
:1050500006F1180002F0F3FB08BF02F11600B4F8E5
:105060006E10B84706F11A00002D08BF08F11800AD
:10507000B4F87010B84706F11C00002D08BF08F105
:105080001A00B4F87210B84706F11E00002D08BFD0
:1050900008F11C00B4F87410B84706F12000002D88
:1050A00008BF08F11E00B4F87610B84706F12200D8
:1050B000002D08BF08F12000B4F87810B84706F1B9
:1050C0002400002D08BF08F12200B4F87A10B84778
:1050D00006F12600002D08BF08F12400B4F87C106A
:1050E000B84706F12800002D08BF08F12600B4F8E3
:1050F0007E10B84706F12A00002D08BF08F12800ED
:10510000B4F88010B84706F12C00002D08BF08F154
:105110002A00B4F88210B84706F12E00002D08BF0F
:1051200008F12C00B4F88410B847B4F86E0004F10C
:1051300070050BF12406ABF822002FCD2FC6B4F872
:105140008400ABF8380000F092BD00BF00E0010819
:1051500002F40108544E9BF80C10DFF8284B534A18
:10516000DFF8247B06F18A0002F069FB08BF02F138
:105170008800B4F8E010B84706F18C00002D08BF95
:1051800008F18A00B4F8E210B84706F18E00002D4D
:1051900008BF08F18C00B4F8E410B84706F190009D
:1051A000002D08BF08F18E00B4F8E610B84706F1EC
:1051B0009200002D08BF08F19000B4F8E810B8473D
:1051C00006F19400002D08BF08F19200B4F8EA102F
:1051D000B84706F19600002D08BF08F19400B4F816
:1051E000EC10B84706F19800002D08BF08F19600B2
:1051F000B4F8EE10B84706F19A00002D08BF08F188
:105200009800B4F8F010B84706F19C00002D08BFD4
:1052100008F19A00B4F8F210B84706F19E00002D8C
:1052200008BF08F19C00B4F8F410B84706F1A000DC
:10523000002D08BF08F19E00B4F8F610B84706F13B
:10524000A200002D08BF08F1A000B4F8F810B8477C
:1052500006F1A400002D08BF08F1A200B4F8FA106E
:10526000B84706F1A600002D08BF08F1A400B4F865
:10527000FC10B847DFF8141AB4F8E000D4F8E620C0
:10528000D4F8EA30D4F8EE50D4F8F260D4F8F670DE
:10529000C882D4F8E200D4F8FA4001F1180CACE866
:1052A000ED000C6300F0E3BC00E0010802F401082B
:1052B000DFF8D089BBF81810B8F81000814240F030
:1052C000808298F81400BBF81A10814240F079826D
:1052D00098F81500BBF81C10814240F07282B8F9B2
:1052E0002600BBF81E10814240F06B82B8F86600C1
:1052F000BBF82010814240F0648298F82C009BF8A3
:105300000410814240F05D8298F82D009BF8051052
:10531000814240F0568298F82E009BF80610814298
:1053200040F04F8298F82F009BF80710814240F020
:10533000488298F830009BF80810814240F0418282
:1053400098F831009BF80910814240F03A8298F8B1
:1053500032009BF80A10814240F0338298F8330003
:105360009BF80B10814240F02C82B8F86E00BBF81D
:105370002210814240F02582B8F87000BBF824105A
:10538000814240F01E82B8F87200BBF826108142BC
:1053900040F01782B8F87400BBF82810814240F042
:1053A0001082B8F87600BBF82A10814240F00982DA
:1053B000B8F87800BBF82C10814240F00282B8F8AF
:1053C0007A00BBF82E10814240F0FB81B8F87C00D7
:1053D000BBF83010814240F0F481B8F87E00BBF891
:1053E0003210814240F0ED81B8F88000BBF83410F3
:1053F000814240F0E681B8F88200BBF83610814265
:1054000040F0DF81B8F88400BBF83810814240F0EA
:10541000D881B8F88600BBF83A10814240F0D181BB
:10542000B8F88800BBF83C10814240F0CA81B8F857
:105430008A00BBF83E10814240F0C381B8F88C006E
:10544000BBF84010814240F0BC81B8F88E00BBF838
:105450004210814240F0B581B8F89000BBF844108A
:10546000814240F0AE81B8F89200BBF8461081420C
:1054700040F0A781B8F89400BBF84810814240F092
:10548000A081B8F89600BBF84A10814240F099819B
:10549000B8F89800BBF84C10814240F09281B8F8FF
:1054A0009A00BBF84E10814240F08B81B8F89C0006
:1054B000BBF85010814240F08481B8F89E00BBF8E0
:1054C0005210814240F07D81B8F8A000BBF8541022
:1054D000814240F07681B8F8A200BBF856108142B4
:1054E00040F06F81B8F8A400BBF85810814240F03A
:1054F0006881B8F8A600BBF85A10814240F061817B
:10550000B8F8A800BBF85C10814240F05A81B8F8A6
:10551000AA00BBF85E10814240F05381B8F8AC009D
:10552000BBF86010814240F04C81B8F8AE00BBF887
:105530006210814240F04581B8F8B000BBF86410B9
:10554000814240F03E81B8F8B200BBF8661081425B
:1055500040F03781B8F8B400BBF86810814240F0E1
:105560003081B8F8B600BBF86A10814240F029815A
:10557000B8F8B800BBF86C10814240F02281B8F84E
:10558000BA00BBF86E10814240F01B81B8F8BC0035
:10559000BBF87010814240F01481B8F8BE00BBF82F
:1055A0007210814240F00D81B8F8C000BBF8741051
:1055B000814240F00681B8F8C200BBF87610814203
:1055C00040F0FF80B8F8C400BBF87810814240F08A
:1055D000F880B8F8C600BBF87A10814240F0F1803C
:1055E000B8F8C800BBF87C10814240F0EA80DFF8D0
:1055F0009C06B8F8CA1002888A4240F0E280B8F8E7
:10560000CC1042888A4240F0DC80B8F8CE10828804
:105610008A4240F0D680B8F8D010C2888A4240F062
:10562000D080B8F8D21002898A4240F0CA80B8F817
:10563000D41042898A4240F0C480B8F8D6108289DA
:105640008A4240F0BE80B8F8D810C2898A4240F041
:10565000B880B8F8DA10028A8A4240F0B280B8F80E
:10566000DC10428A8A4240F0AC80B8F8DE10828AB0
:105670008A4240F0A680B8F8E010C28A8A4240F020
:10568000A080B8F8E210028B8A4240F09A80B8F805
:10569000E410428B8A4240F09480B8F8E610828B86
:1056A0008A4240F08E80B8F8E810C28B8A4240F0FF
:1056B0008880B8F8EA10028C8A4240F08280B8F8FC
:1056C000EC10428C8A427CD1B8F8EE10828C8A426F
:1056D00077D1B8F8F010C28C8A4272D1B8F8F210C3
:1056E000028D8A426DD1B8F8F410428D8A4268D199
:1056F000B8F8F610828D8A4263D1B8F8F810C28DDE
:105700008A425ED1B8F8FA10028E8A4259D1B8F8AE
:10571000FC10428E8A4254D1B8F8FE10828E8A4222
:105720004FD1B8F80011C28E8A424AD1B8F802119E
:10573000028F8A4245D1B8F80411428F8A4240D183
:10574000B8F80611828F8A423BD1B8F80811C28F8F
:105750008A4236D1B8F80A11B0F840208A4230D1D6
:10576000B8F80C11B0F842208A422AD1B8F80E11CC
:10577000B0F844208A4224D1B8F81011B0F846207D
:105780008A421ED1B8F81211B0F848208A4218D1C6
:10579000B8F81411B0F84A208A4212D1B8F816119C
:1057A000B0F84C208A420CD1B8F81811B0F84E204D
:1057B0008A4206D1B8F81A11B0F85000884200F0B9
:1057C0005B82D348D349D44E0160D449344601604A
:1057D0009BF80C0010F0010708BF04F5A054204608
:1057E00003F060FAB8F81010DFF89C542046A84780
:1057F000B01C002F04BF4FF20240C0F6010098F821
:105800001410A847C649301D002F08BF881C98F8FF
:105810001510A847B8F8100098F81510ABF8180044
:1058200098F81400ABF81C10ABF81A001FE2BA4E3F
:105830009BF80C10DFF84C44B94ADFF84C7406F1C1
:105840004E0001F0FCFF08BF02F14C00B4F8A410B8
:10585000B84706F15000002D08BF08F14E00B4F81B
:10586000A610B84706F15200002D08BF08F15000FD
:10587000B4F8A810B84706F15400002D08BF08F18D
:105880005200B4F8AA10B84706F15600002D08BF20
:1058900008F15400B4F8AC10B84706F15800002DD8
:1058A00008BF08F15600B4F8AE10B84706F15A0028
:1058B000002D08BF08F15800B4F8B010B84706F141
:1058C0005C00002D08BF08F15A00B4F8B210B847C8
:1058D00006F15E00002D08BF08F15C00B4F8B410BA
:1058E000B84706F16000002D08BF08F15E00B4F86B
:1058F000B610B84706F16200002D08BF08F160003D
:10590000B4F8B810B84706F16400002D08BF08F1DC
:105910006200B4F8BA10B84706F16600002D08BF5F
:1059200008F16400B4F8BC10B84706F16800002D17
:1059300008BF08F16600B4F8BE10B84706F16A0067
:10594000002D08BF08F16800B4F8C010B847B4F8DB
:10595000A400D4F8AA10D4F8AE20D4F8B230ABF832
:105960005800D4F8A600CBF85E10CBF86220CBF834
:105970006630CBF85A00D4F8B600CBF86A00D4F8F9
:10598000BA00CBF86E00D4F8BE00CBF872006EE11E
:10599000614E9BF80C10BB4C614ABB4F06F16C008A
:1059A00001F04DFF08BF02F16A00B4F8C210B84719
:1059B00006F16E00002D08BF08F16C00B4F8C410A9
:1059C000B84706F17000002D08BF08F16E00B4F86A
:1059D000C610B84706F17200002D08BF08F170002C
:1059E000B4F8C810B84706F17400002D08BF08F1DC
:1059F0007200B4F8CA10B84706F17600002D08BF4F
:105A000008F17400B4F8CC10B84706F17800002D06
:105A100008BF08F17600B4F8CE10B84706F17A0056
:105A2000002D08BF08F17800B4F8D010B84706F18F
:105A30007C00002D08BF08F17A00B4F8D210B847F6
:105A400006F17E00002D08BF08F17C00B4F8D410E8
:105A5000B84706F18000002D08BF08F17E00B4F8B9
:105A6000D610B84706F18200002D08BF08F180006B
:105A7000B4F8D810B84706F18400002D08BF08F12B
:105A80008200B4F8DA10B84706F18600002D08BF8E
:105A900008F18400B4F8DC10B84706F18800002D46
:105AA00008BF08F18600B4F8DE10B847D4F8C20089
:105AB000D4F8C61004F1CC066CCECBF87600CBF847
:105AC0007A107249B4F8CA000880B4F8DC00C1F852
:105AD0000220C1F80630C1F80A50C1F80E604882B1
:105AE000B4F8DE008882C2E00948C16841F0800154
:105AF000C16000208BF803006448B0F852100131F7
:105B0000A0F852109BF80C0001308BF80C00B3E0A9
:105B1000042002402301674500E00108AB89EFCD76
:105B200002F401085A4E9BF80C10564C594A564F35
:105B300006F1A80001F083FE08BF02F1A600B4F848
:105B4000FE10B84706F1AA00002D08BF08F1A80012
:105B5000B4F80011B84706F1AC00002D08BF08F1F9
:105B6000AA00B4F80211B84706F1AE00002D08BF34
:105B700008F1AC00B4F80411B84706F1B000002DEC
:105B800008BF08F1AE00B4F80611B84706F1B2003C
:105B9000002D08BF08F1B000B4F80811B84706F1AD
:105BA000B400002D08BF08F1B200B4F80A11B847DC
:105BB00006F1B600002D08BF08F1B400B4F80C11CE
:105BC000B84706F1B800002D08BF08F1B600B4F8D8
:105BD0000E11B84706F1BA00002D08BF08F1B80051
:105BE000B4F81011B84706F1BC00002D08BF08F149
:105BF000BA00B4F81211B84706F1BE00002D08BF74
:105C000008F1BC00B4F81411B84706F1C000002D2B
:105C100008BF08F1BE00B4F81611B84706F1C2007B
:105C2000002D08BF08F1C000B4F81811B84706F1FC
:105C3000C400002D08BF08F1C200B4F81A11B8471B
:105C4000B4F8FE00114904F58077D4F8184188862D
:105C5000EDCFC1F83A20C1F83E30C1F84250C1F84A
:105C60004660C1F84A70C1F84E40C1F836009BF852
:105C7000030001308BF8030059B0BDE8F08F00BF7E
:105C8000541200200C090020458C0008D812002076
:105C900000E0010802F40108044C204602F0BCFFB9
:105CA0004FF6FF75A84200F0118201E000E0010804
:105CB00004F5A056304602F0AFFFA84200F006827D
:105CC00004F1CA0003F018F85FF84050FD4FA5F842
:105CD000540007F1C80003F00FF8B5F854108142E2
:105CE00040F2E285DFF8E0832046C0475FF86C6051
:105CF0003082A01CC0473075201DC0477075A01DA4
:105D0000C047F08404F1C600C04786F82C0004F1B7
:105D10000800C047A6F8660004F10A00C04786F8EC
:105D20002D0004F10C00C04786F82E0004F10E008F
:105D3000C04786F82F0004F11000C04786F83000F5
:105D400004F11200C04786F8310004F11400C04786
:105D500086F8320004F11600C04786F8330004F1DB
:105D60001800C047A6F86E0004F11A00C047A6F854
:105D7000700004F11C00C047A6F8720004F11E0078
:105D8000C047A6F8740004F12000C047A6F87600CA
:105D900004F12200C047A6F8780004F12400C047AF
:105DA000A6F87A0004F12600C047A6F87C0004F1AA
:105DB0002800C047A6F87E0004F12A00C047A6F8D4
:105DC000800004F12C00C047A6F8820004F12E00E8
:105DD000C047A6F8840004F13000C047A6F886004A
:105DE00004F13200C047A6F8880004F13400C0472F
:105DF000A6F88A0004F13600C047A6F88C0004F12A
:105E00003800C047A6F88E0004F13A00C047A6F853
:105E1000900004F13C00C047A6F8920004F13E0057
:105E2000C047A6F8940004F14000C047A6F89600C9
:105E300004F14200C047A6F8980004F14400C047AE
:105E4000A6F89A0004F14600C047A6F89C0004F1A9
:105E50004800C047A6F89E0004F14A00C047A6F8D3
:105E6000A00004F14C00C047A6F8A20004F14E00C7
:105E7000C047A6F8A40004F15000C047A6F8A60049
:105E800004F15200C047A6F8A80004F15400C0472E
:105E9000A6F8AA0004F15600C047A6F8AC0004F129
:105EA0005800C047A6F8AE0004F15A00C047A6F853
:105EB000B00004F15C00C047A6F8B20004F15E0037
:105EC000C047A6F8B40004F16000C047A6F8B600C9
:105ED00004F16200C047A6F8B80004F16400C047AE
:105EE000A6F8BA0004F16600C047A6F8BC0004F1A9
:105EF0006800C047A6F8BE0004F16A00C04704F17C
:105F00006E05A6F8C0002846C047A6F8C20028467D
:105F1000C047A6F8C40004F17000C047A6F8C60048
:105F200004F17200C047A6F8C80004F17400C0472D
:105F3000A6F8CA0004F17600C047A6F8CC0004F128
:105F40007800C047A6F8CE0004F17A00C047A6F852
:105F5000D00004F17C00C047A6F8D20004F17E0016
:105F6000C047A6F8D40004F18000C047A6F8D600C8
:105F700004F18200C047A6F8D80004F18400C047AD
:105F8000A6F8DA0004F18600C047A6F8DC0004F1A8
:105F90008800C04704F18C05A6F8DE002846C047FB
:105FA000A6F8E0002846C047A6F8E20004F18E00FB
:105FB000C047A6F8E40004F19000C047A6F8E60048
:105FC00004F19200C047A6F8E80004F19400C0472D
:105FD000A6F8EA0004F19600C047A6F8EC0004F128
:105FE0009800C047A6F8EE0004F19A00C047A6F852
:105FF000F00004F19C00C047A6F8F20004F19E00F6
:10600000C047A6F8F40004F1A000C047A6F8F600C7
:1060100004F1A200C047A6F8F80004F1A400C047AC
:10602000A6F8FA0004F1A600C04704F1AA05A6F8F4
:10603000FC002846C047A6F8FE002846C047A6F840
:10604000000104F1AC00C047A6F8020104F1AE0063
:10605000C047A6F8040104F1B000C047A6F8060145
:1060600004F1B200C047A6F8080104F1B400C0472B
:10607000A6F80A0104F1B600C047A6F80C0104F125
:10608000B800C047A6F80E0104F1BA00C047A6F850
:10609000100104F1BC00C047A6F8120104F1BE00D3
:1060A000C047A6F8140104F1C000C047A6F81601C5
:1060B00004F1C200C047A6F8180104F1C400C047AB
:1060C00000F05BBE02F40108F98C0008204602F0E3
:1060D000A3FDA84200F0EE815FF814602046B047AF
:1060E0005FF860743882A01CB0473875201DB04737
:1060F0007875A01DB047F88404F1C600B04787F852
:106100002C0004F10800B047A7F8660004F10A006B
:10611000B04787F82D0004F10C00B04787F82E0037
:1061200004F10E00B04787F82F0004F11000B047CB
:1061300087F8300004F11200B04787F8310004F10D
:106140001400B04787F8320004F11600B04787F812
:10615000330004F11800B047A7F86E0004F11A00EC
:10616000B047A7F8700004F11C00B047A7F8720010
:1061700004F11E00B047A7F8740004F12000B047F6
:10618000A7F8760004F12200B047A7F8780004F1E0
:106190002400B047A7F87A0004F12600B047A7F81A
:1061A0007C0004F12800B047A7F87E0004F12A0023
:1061B000B047A7F8800004F12C00B047A7F8820090
:1061C00004F12E00B047A7F8840004F13000B04776
:1061D000A7F8860004F13200B047A7F8880004F160
:1061E0003400B047A7F88A0004F13600B047A7F89A
:1061F0008C0004F13800B047A7F88E0004F13A0093
:10620000B047A7F8900004F13C00B047A7F892000F
:1062100004F13E00B047A7F8940004F14000B047F5
:10622000A7F8960004F14200B047A7F8980004F1DF
:106230004400B047A7F89A0004F14600B047A7F819
:106240009C0004F14800B047A7F89E0004F14A0002
:10625000B047A7F8A00004F14C00B047A7F8A2008F
:1062600004F14E00B047A7F8A40004F15000B04775
:10627000A7F8A60004F15200B047A7F8A80004F15F
:106280005400B047A7F8AA0004F15600B047A7F899
:10629000AC0004F15800B047A7F8AE0004F15A0072
:1062A000B047A7F8B00004F15C00B047A7F8B2000F
:1062B00004F15E00B047A7F8B40004F16000B047F5
:1062C000A7F8B60004F16200B047A7F8B80004F1DF
:1062D0006400B047A7F8BA0004F16600B047A7F819
:1062E000BC0004F16800B047A7F8BE0004F16A00E2
:1062F000B04704F16E05A7F8C0002846B047A7F8DC
:10630000C2002846B047A7F8C40004F17000B047A7
:10631000A7F8C60004F17200B047A7F8C80004F15E
:106320007400B047A7F8CA0004F17600B047A7F898
:10633000CC0004F17800B047A7F8CE0004F17A0051
:10634000B047A7F8D00004F17C00B047A7F8D2000E
:1063500004F17E00B047A7F8D40004F18000B047F4
:10636000A7F8D60004F18200B047A7F8D80004F1DE
:106370008400B047A7F8DA0004F18600B047A7F818
:10638000DC0004F18800B04704F18C05A7F8DE00BA
:106390002846B047A7F8E0002846B047A7F8E20033
:1063A00004F18E00B047A7F8E40004F19000B04774
:1063B000A7F8E60004F19200B047A7F8E80004F15E
:1063C0009400B047A7F8EA0004F19600B047A7F898
:1063D000EC0004F19800B047A7F8EE0004F19A0031
:1063E000B047A7F8F00004F19C00B047A7F8F2000E
:1063F00004F19E00B047A7F8F40004F1A000B047F4
:10640000A7F8F60004F1A200B047A7F8F80004F1DD
:10641000A400B047A7F8FA0004F1A600B04704F1C1
:10642000AA05A7F8FC002846B047A7F8FE002846B2
:10643000B047A7F8000104F1AC00B047A7F802018B
:1064400004F1AE00B047A7F8040104F1B000B04772
:10645000A7F8060104F1B200B047A7F8080104F15B
:10646000B400B047A7F80A0104F1B600B047A7F896
:106470000C0104F1B800B047A7F80E0104F1BA000E
:10648000B047A7F8100104F1BC00B047A7F812010B
:1064900004F1BE00B047A7F8140104F1C000B047F2
:1064A000A7F8160104F1C200B047A7F8180104F1DB
:1064B000C400F4E104F5A054204602F0ADFBA8426C
:1064C00000F0E0835FF800642046B0475FF84C7846
:1064D000F44C38822046B0473875A01CB047787518
:1064E000201DB047F88404F1C400B04787F82C00A1
:1064F000A01DB047A7F8660004F10800B04787F870
:106500002D0004F10A00B04787F82E0004F10C00BA
:10651000B04787F82F0004F10E00B04787F830002D
:1065200004F11000B04787F8310004F11200B047C1
:1065300087F8320004F11400B04787F8330004F103
:106540001600B047A7F86E0004F11800B047A7F88E
:10655000700004F11A00B047A7F8720004F11C00A3
:10656000B047A7F8740004F11E00B047A7F8760002
:1065700004F12000B047A7F8780004F12200B047EA
:10658000A7F87A0004F12400B047A7F87C0004F1D2
:106590002600B047A7F87E0004F12800B047A7F80E
:1065A000800004F12A00B047A7F8820004F12C0013
:1065B000B047A7F8840004F12E00B047A7F8860082
:1065C00004F13000B047A7F8880004F13200B0476A
:1065D000A7F88A0004F13400B047A7F88C0004F152
:1065E0003600B047A7F88E0004F13800B047A7F88E
:1065F000900004F13A00B047A7F8920004F13C0083
:10660000B047A7F8940004F13E00B047A7F8960001
:1066100004F14000B047A7F8980004F14200B047E9
:10662000A7F89A0004F14400B047A7F89C0004F1D1
:106630004600B047A7F89E0004F14800B047A7F80D
:10664000A00004F14A00B047A7F8A20004F14C00F2
:10665000B047A7F8A40004F14E00B047A7F8A60081
:1066600004F15000B047A7F8A80004F15200B04769
:10667000A7F8AA0004F15400B047A7F8AC0004F151
:106680005600B047A7F8AE0004F15800B047A7F88D
:10669000B00004F15A00B047A7F8B20004F15C0062
:1066A000B047A7F8B40004F15E00B047A7F8B60001
:1066B00004F16000B047A7F8B80004F16200B047E9
:1066C000A7F8BA0004F16400B047A7F8BC0004F1D1
:1066D0006600B047A7F8BE0004F16800B04704F1B7
:1066E0006C05A7F8C0002846B047A7F8C2002846A6
:1066F000B047A7F8C40004F16E00B047A7F8C60081
:1067000004F17000B047A7F8C80004F17200B04768
:10671000A7F8CA0004F17400B047A7F8CC0004F150
:106720007600B047A7F8CE0004F17800B047A7F88C
:10673000D00004F17A00B047A7F8D20004F17C0041
:10674000B047A7F8D40004F17E00B047A7F8D60000
:1067500004F18000B047A7F8D80004F18200B047E8
:10676000A7F8DA0004F18400B047A7F8DC0004F1D0
:106770008600B04704F18A05A7F8DE002846B04736
:10678000A7F8E0002846B047A7F8E20004F18C0023
:10679000B047A7F8E40004F18E00B047A7F8E60080
:1067A00004F19000B047A7F8E80004F19200B04768
:1067B000A7F8EA0004F19400B047A7F8EC0004F150
:1067C0009600B047A7F8EE0004F19800B047A7F88C
:1067D000F00004F19A00B047A7F8F20004F19C0021
:1067E000B047A7F8F40004F19E00B047A7F8F60000
:1067F00004F1A000B047A7F8F80004F1A200B047E8
:10680000A7F8FA0004F1A400B04704F1A805A7F81E
:10681000FC002846B047A7F8FE002846B047A7F876
:10682000000104F1AA00B047A7F8020104F1AC008E
:10683000B047A7F8040104F1AE00B047A7F806017D
:1068400004F1B000B047A7F8080104F1B200B04766
:10685000A7F80A0104F1B400B047A7F80C0104F14D
:10686000B600B047A7F80E0104F1B800B047A7F88A
:10687000100104F1BA00B047A7F8120104F1BC00FE
:10688000B047A7F8140104F1BE00B047A7F81601FD
:1068900004F1C000B047A7F8180104F1C200B047E6
:1068A0006BE200BF02F401085FF8E4573046A847E6
:1068B0005FF8306C30823846A8473075B81CA8475E
:1068C0007075381DA847F08407F1C400A84786F802
:1068D0002C00B81DA847A6F8660007F10800A847D5
:1068E00086F82D0007F10A00A84786F82E0007F168
:1068F0000C00A84786F82F0007F10E00A84786F87D
:10690000300007F11000A84786F8310007F11200A7
:10691000A84786F8320007F11400A84786F833002C
:1069200007F11600A847A6F86E0007F11800A8475F
:10693000A6F8700007F11A00A847A6F8720007F140
:106940001C00A847A6F8740007F11E00A847A6F887
:10695000760007F12000A847A6F8780007F122008A
:10696000A847A6F87A0007F12400A847A6F87C00FB
:1069700007F12600A847A6F87E0007F12800A847DF
:10698000A6F8800007F12A00A847A6F8820007F1C0
:106990002C00A847A6F8840007F12E00A847A6F807
:1069A000860007F13000A847A6F8880007F13200FA
:1069B000A847A6F88A0007F13400A847A6F88C007B
:1069C00007F13600A847A6F88E0007F13800A8475F
:1069D000A6F8900007F13A00A847A6F8920007F140
:1069E0003C00A847A6F8940007F13E00A847A6F887
:1069F000960007F14000A847A6F8980007F142006A
:106A0000A847A6F89A0007F14400A847A6F89C00FA
:106A100007F14600A847A6F89E0007F14800A847DE
:106A2000A6F8A00007F14A00A847A6F8A20007F1BF
:106A30004C00A847A6F8A40007F14E00A847A6F806
:106A4000A60007F15000A847A6F8A80007F15200D9
:106A5000A847A6F8AA0007F15400A847A6F8AC007A
:106A600007F15600A847A6F8AE0007F15800A8475E
:106A7000A6F8B00007F15A00A847A6F8B20007F13F
:106A80005C00A847A6F8B40007F15E00A847A6F886
:106A9000B60007F16000A847A6F8B80007F1620049
:106AA000A847A6F8BA0007F16400A847A6F8BC00FA
:106AB00007F16600A847A6F8BE0007F16800A847DE
:106AC00007F16C04A6F8C0002046A847A6F8C2004B
:106AD0002046A847A6F8C40007F16E00A847A6F80C
:106AE000C60007F17000A847A6F8C80007F17200B9
:106AF000A847A6F8CA0007F17400A847A6F8CC007A
:106B000007F17600A847A6F8CE0007F17800A8475D
:106B1000A6F8D00007F17A00A847A6F8D20007F13E
:106B20007C00A847A6F8D40007F17E00A847A6F885
:106B3000D60007F18000A847A6F8D80007F1820028
:106B4000A847A6F8DA0007F18400A847A6F8DC00F9
:106B500007F18600A84707F18A04A6F8DE00204660
:106B6000A847A6F8E0002046A847A6F8E20007F1EB
:106B70008C00A847A6F8E40007F18E00A847A6F805
:106B8000E60007F19000A847A6F8E80007F1920098
:106B9000A847A6F8EA0007F19400A847A6F8EC0079
:106BA00007F19600A847A6F8EE0007F19800A8475D
:106BB000A6F8F00007F19A00A847A6F8F20007F13E
:106BC0009C00A847A6F8F40007F19E00A847A6F885
:106BD000F60007F1A000A847A6F8F80007F1A20008
:106BE000A847A6F8FA0007F1A400A84707F1A804EF
:106BF000A6F8FC002046A847A6F8FE002046A847B5
:106C0000A6F8000107F1AA00A847A6F8020107F1BB
:106C1000AC00A847A6F8040107F1AE00A847A6F803
:106C2000060107F1B000A847A6F8080107F1B20075
:106C3000A847A6F80A0107F1B400A847A6F80C0176
:106C400007F1B600A847A6F80E0107F1B800A8475B
:106C5000A6F8100107F1BA00A847A6F8120107F13B
:106C6000BC00A847A6F8140107F1BE00A847A6F883
:106C7000160107F1C000A847A6F8180107F1C200E5
:106C8000A8477AE0DFF8840B142146F23C42624BBD
:106C9000624C634D634E644F4FF0000CA0F86610D9
:106CA00062498282DC2280F82CC0A0F826C0C0F89D
:106CB0001231C0F80E41C0F80631C0F80251C0F8D8
:106CC000FE60C0F8FA30C0F8F640C0F8EE30C0F808
:106CD000EA40C0F8E270C0F8D630C0F8D240C0F840
:106CE000CA30C0F8C650C0F8C260C0F8BE30C0F8A4
:106CF000BA40C0F8B230C0F8AE40C0F8A670C0F8D4
:106D00009A30C0F89640C0F88E30C0F88A50C0F86B
:106D1000866080F833C0A0F831C00282444AC0F8CF
:106D2000DE10C0F8A2104349C0F81621C0F80A21AD
:106D3000C0F8F220C0F8E620C0F8DA20C0F8CE2073
:106D4000C0F8B620C0F8AA20C0F89E20C0F8922053
:106D5000C0F882103849C0F87E103849C0F87A105F
:106D60003749C0F876103749C0F872103649C0F874
:106D70006E103649C0F82D100A20DFF8901A0A8AE2
:106D8000A1F81A01B2F5FA7F01D8632A02D84FF4AC
:106D900096720A824990087DC82800D808B9502008
:106DA0000875459091F82C004792022824BF0020D6
:106DB00081F82C0091F82D20022A24BF002281F8AE
:106DC0002D20489291F82E304FF6FF72022B24BFEF
:106DD000012381F82E30469391F82F30022B24BFE7
:106DE000012381F82F30449391F83030032B24BFD6
:106DF000012381F830304A9091F83100022824BFF5
:106E0000002081F83100429091F8320000B3012453
:106E100081F832401DE000BF32000A000A00C800BD
:106E20003C00C8006E00140014003C000A006E0014
:106E3000C800320050003C0032007C015E013C0082
:106E4000320028001E0040012C0128000001010131
:106E5000002491F8330010B1002081F83300B1F91B
:106E60002650322D04DCA2F1310000B2854201DA55
:106E70000025CD84B1F86600B0F57A7F24BF1420D8
:106E8000A1F866003F90B1F86E00B0F5FA7F01D826
:106E9000632803D84FF49670A1F86E00B1F87060C3
:106EA000C82E3246579601D8579A22B950265022FA
:106EB0005792A1F87060B1F872204095B2F57A7FD0
:106EC00024BF1E22A1F872204194B1F87440B4F599
:106ED000FA7F01D8632C03D84FF49674A1F874405C
:106EE0004393B1F87630C82B00D813B95023A1F8DA
:106EF00076303C93B1F87830B3F57A7F24BF1E2307
:106F0000A1F878303E92B1F87AE0BEF5FA7F02D867
:106F1000BEF1630F03D84FF4967EA1F87AE0B1F882
:106F20007C50CDF8E8E0C82D2A46569501D8569AEF
:106F300022B9502550225692A1F87C50B1F87E20FB
:106F4000B2F57A7F24BF1E22A1F87E20B1F880A07E
:106F5000BAF5FA7F02D8BAF1630F03D84FF4967AE4
:106F6000A1F880A03B93B1F88230CDF8E0A0C82B07
:106F700000D813B95023A1F882303793B1F8843088
:106F8000B3F57A7F24BF1E23A1F884303390B1F883
:106F900086C0BCF5FA7F02D8BCF1630F03D84FF06E
:106FA000640CA1F886C0B1F88800CDF8D4C0C82818
:106FB00000D810B91420A1F888003490B1F88A00E4
:106FC0003693B0F57A7F24BF3C20A1F88A00B1F84F
:106FD0008C30B3F5FA7F01D8632B02D86423A1F873
:106FE0008C303193B1F88E30C82B00D813B91423EC
:106FF000A1F88E303093B1F89030B3F57A7F24BF8A
:107000003C23A1F890303992B1F892E0BEF5FA7FB6
:1070100002D8BEF1630F03D84FF0640EA1F892E0DE
:10702000B1F89420CDF8B8E0C82A00D812B91422DB
:10703000A1F894202D92B1F89620B2F57A7F24BF62
:107040003C22A1F896202C92B1F898A0BAF5FA7FCC
:1070500002D8BAF1630F03D84FF0640AA1F898A0E0
:10706000B1F89A203D94CDF8ACA0C82A00D812B946
:107070001422A1F89A20B1F89C50B5F57A7F2C46DD
:10708000539506D33C244FF03C09CDF84C91A1F820
:107090009C40B1F89E40B4F5FA7F01D8632C02D829
:1070A0006424A1F89E402692B1F8A0203290C82A0C
:1070B0001046559201D8559820B9142214205590A5
:1070C000A1F8A020B1F8A220B2F57A7F1046529222
:1070D00006D33C204FF03C0ECDF848E1A1F8A200C9
:1070E000B1F8A400B0F5FA7F01D8632802D8642073
:1070F000A1F8A400B1F8A6202A94C82A00D812B991
:107100001422A1F8A620B1F8A850B5F57A7F2C4634
:10711000519504D33C253C245194A1F8A850B1F8D2
:10712000AAA029902F93BAF5FA7F02D8BAF1630F7B
:1071300003D84FF0640AA1F8AAA0B1F8AC00CDF8CA
:107140009CA0C82800D810B91420A1F8AC00B1F850
:10715000AE50B5F57A7F2B464D9504D33C253C23A4
:107160004D93A1F8AE50B1F8B0A01E90BAF5FA7FD9
:1071700002D8BAF1630F03D84FF0640AA1F8B0A0A7
:10718000B1F8B200CDF894A0C82800D810B91420E6
:10719000A1F8B200B1F8B460B6F57A7F37465096E0
:1071A00006D33C264FF03C0ECDF840E1A1F8B46088
:1071B000B1F8B630B3F5FA7F01D8632B02D8642357
:1071C000A1F8B630B1F8B8502892C82D2A46549587
:1071D00001D8549A22B9142514225492A1F8B85017
:1071E000B1F8BA20B2F57A7F15464F9206D33C2209
:1071F0004FF03C09CDF83C91A1F8BA20B1F8BC5051
:10720000B5F5FA7F2A46589502D8589A632A04D8C9
:10721000642564225892A1F8BC501B90B1F8BE00BE
:10722000C82800D810B91420A1F8BE002390B1F8E6
:10723000C000B0F57A7F24BF3C20A1F8C0002493A1
:10724000B1F8C250B5F5FA7F01D8632D02D8642594
:10725000A1F8C250B1F8C430C82B00D813B9142318
:10726000A1F8C430B1F8C670B7F57A7F24BF3C27C7
:10727000A1F8C670219019971C931F95B1F8C8000A
:10728000B0F5FA7F01D8632802D86420A1F8C800BD
:10729000B1F8CA801790B8F1C80F02D8B8F1000F42
:1072A00003D14FF01408A1F8CA80B1F8CC00CDF892
:1072B0008880B0F57A7F24BF3C20A1F8CC002090D4
:1072C000B1F8CE00B0F5FA7F01D8632802D8642067
:1072D000A1F8CE00B1F8D020C82A00D812B91422E3
:1072E000A1F8D020B1F8D230B3F57A7F24BF3C2387
:1072F000A1F8D230B1F8D440B4F5FA7F01D8632CAC
:1073000002D86424A1F8D4401893B1F8D630C82B21
:1073100000D813B91423A1F8D6301593B1F8D8309A
:10732000B3F57A7F1E464E9306D33C234FF03C0ABA
:10733000CDF838A1A1F8D830B1F8DA30B3F5FA7F3A
:1073400001D8632B02D86423A1F8DA30B1F8DC60ED
:107350001D90C82E00D816B91426A1F8DC60B1F82B
:10736000DE00B0F57A7F05464C9006D33C204FF006
:107370003C09CDF83091A1F8DE00B1F8E000B0F59D
:10738000FA7F01D8632802D86420A1F8E0001A929D
:10739000B1F8E2201493C82A00D812B91422A1F837
:1073A000E220B1F8E4301192B3F57A7F1A464B939C
:1073B00006D33C224FF03C0ACDF82CA1A1F8E420E2
:1073C000B1F8E6A0BAF5FA7F02D8BAF1630F03D894
:1073D0004FF0640AA1F8E6A0B1F8E8E0BEF1C80FEA
:1073E00002D8BEF1000F03D14FF0140EA1F8E8E06F
:1073F000B1F8EA20B2F57A7F24BF3C22A1F8EA2056
:10740000B1F8EC90B9F5FA7F02D8B9F1630F03D85F
:107410004FF06409A1F8EC90B1F8EEC0CDF83490CB
:10742000BCF1C80F02D8BCF1000F03D14FF0140C0F
:10743000A1F8EEC0B1F8F090B9F57A7F24BF4FF013
:107440003C09A1F8F0901694B1F8F230B3F5FA7F48
:1074500001D8632B02D86423A1F8F230B1F8F440CC
:10746000C82C00D814B91424A1F8F4400994B1F838
:10747000F640B4F57A7F24BF3C24A1F8F640B1F879
:10748000F880B8F5FA7F02D8B8F1630F03D84FF04F
:107490006408A1F8F880B1F8FA700E92CDF81C805B
:1074A000C82F00D817B91427A1F8FA70B1F8FC203A
:1074B000B2F57A7F24BF3C22A1F8FC201290B1F8EB
:1074C000FE00B0F5FA7F01D8632802D86420A1F845
:1074D000FE000490B1F80001C82800D810B91420AB
:1074E000A1F800011396B1F80261B6F57A7F24BFC6
:1074F0003C26A1F8026102960894B1F80461B6F541
:10750000FA7F01D8632E02D86426A1F80461B1F88D
:107510000641C82C00D814B91424A1F80641B1F8CA
:107520000851B5F57A7F24BF3C25A1F80851CDE973
:10753000052701950390B1F80A71B7F5FA7F01D8D4
:10754000632F02D86427A1F80A71B1F80C81CDF835
:1075500040A0B8F1C80F02D8B8F1000F03D14FF026
:107560001408A1F80C81B1F80E21B2F57A7F24BF7E
:107570003C22A1F80E210AA8B1F81051CDF83CE048
:1075800080E80812B5F5FA7F01D8632D02D864258A
:10759000A1F81051B1F81291DDF86CC0DDF834E1BA
:1075A0001E9BB9F1C80F02D8B9F1000F03D14FF0FB
:1075B0001409A1F81291B1F814A1BAF57A7F24BF89
:1075C0004FF03C0AA1F814A1B1F81601B0F5FA7F0A
:1075D00001D8632802D86420A1F81601B1F8180177
:1075E000C82800D810B91420A1F818014998B0F59E
:1075F0007A7F24BF3C20A1F81A01ABF866C0ABF833
:1076000062E0ABF860304598ABF81A004798ABF8E9
:1076100018003F98ABF820004098ABF81E00179870
:10762000ABF87C001998ABF87A001C98ABF878009E
:107630001F98ABF876002198ABF874002398ABF84C
:1076400072005898ABF870004F98ABF86E005498E1
:10765000ABF86C002498ABF86A005098ABF868005F
:107660002598ABF864002798ABF85E005198ABF80A
:107670005C002898ABF85A002998ABF8580052984B
:10768000ABF856005598ABF854002A98ABF8520066
:107690005398ABF850002698ABF84E002B98ABF8F7
:1076A0004C002C98ABF84A002D98ABF848002E9867
:1076B000ABF846002F98ABF844003098ABF8420086
:1076C0003198ABF840003298ABF83E003498ABF8F4
:1076D0003C003598ABF83A003698ABF8380037984C
:1076E000ABF836003898ABF834003998ABF8320074
:1076F0005698ABF830003A98ABF82E003B98ABF8B0
:107700002C003C98ABF82A003D98ABF828003E9836
:10771000ABF826005798ABF824003398ABF822005A
:1077200000208BF80B0041988BF80A0042988BF8E8
:10773000090043988BF8080044988BF80700469896
:107740008BF8060048988BF805004A988BF80400DF
:10775000487DABF81C002C48A0F84420019AA0F802
:107760004AA0A0F84890A0F84650A0F84280A0F89F
:10777000407084874687C287029A0287039AC2862E
:10778000049A8286059A4286069A0286079AC285DC
:10779000089A8285099A42850A9A02850B9AC284C0
:1077A0000C9A82840D9A42840E9A02840F9AC283A4
:1077B000109A82834B9A4283119A0283129AC28250
:1077C0004C9A8282139A4282149A02824E9AC28101
:1077D000159A8281169A4281189A02811A9AC28059
:1077E0001D9A8280209A4280229A028001228BF880
:1077F0000D200A70B1F81621D1F81811A0F84C200C
:10780000C0F84E10FEF738BAD81200200C0900203C
:10781000FEE7FEE7704701EB81010922A03991FBE9
:10782000F2F17047B8F8081090F82D20090409BA51
:10783000012A704795F8360001380428704711F086
:10784000010590467047D0E91C12013142F1000257
:10785000C0E91C1270470B2001F084BA0021416678
:10786000016681654165016570472046002100255C
:10787000FCF79ABF3146ADF8094001907047206887
:1078800020F00100206010BDADF81D50CDF819A00A
:107890008DF818007047B8F8081009BA090C70473D
:1078A00090F83830002B704790F864100329704727
:1078B00055F824402488A0F86A40704790F8363084
:1078C0005C1EE5B2042D7047B8F80800000401BA48
:1078D000704701903046584700F1720100F1700284
:1078E00000F16E0306EB8406704700002DE9FC41B1
:1078F000FCF7F8FE2E4FB865B86D396EFCF7A0FEA8
:1079000038662C4C386E2146FCF732FF00B93C66D5
:10791000386E00210024FCF747FF00B93C66D7E928
:107920001186B86DBC6E796DFCF7DCFEF8653046EB
:10793000BD6D396EFCF7DCFE019000940198009952
:10794000FCF708FF08B9009801900198009981F0B0
:107950000041FCF71BFF18B9009880F0004001902F
:1079600040462946FCF7C4FE0199FCF769FE04462F
:10797000F86CBD6DF96DFCF7BBFE2146FCF760FEAF
:1079800078667D65786EF96EFCF7E4FE08B9F86EEE
:107990007866786EF96E81F00041FCF7F7FE18B951
:1079A000F86E80F000407866786EBDE8FC8100BF1C
:1079B0005013002000C82F47704700002DE9F04108
:1079C0008046DFF85C0B407B022840F0838008F1A2
:1079D0000107DFF84C5B00243E462846314602F0A2
:1079E0001FFD002804BF013401360228F5D1002014
:1079F00088F801446873E0B2092840F06F80387855
:107A000008F201455A2840F0678098F80200A5283E
:107A100040F0628098F806001038422800F25C803E
:107A2000DFE810F043005E005A005A006400800056
:107A300087009900AF00B800C100D700E000E9005E
:107A4000FF000801110127013001390140015D01EA
:107A50006E017F019C01AD01BE01DB01EC01F3026F
:107A6000FD010E025A001F022B023F0246024D0288
:107A70001003540271025A0079029802A102A8026E
:107A80005A005A00AF02E5025A005A005A005A0042
:107A90005A005A005A005A005A005A005A005A0016
:107AA0005A005A005A005A00EC02FFF70DFFDFF8A7
:107AB000D40F90F82D200182012A03D1FFF7ABFEED
:107AC000018289B2642902D9B1F5FA7F04D3642115
:107AD000018201E008F2014500202870BDE8F08134
:107AE00098F80900DFF89C1F0875F5E798F8091069
:107AF000DFF8900F80F8651090F83510182900F025
:107B0000C882012940F0698498F809104C1E032CA2
:107B100000F26384FFF7E0FEDFE814F05704C902C7
:107B20004A04510498F80900DFF8581F81F835001D
:107B3000D2E798F80900DFF8EC4F012884F82C0010
:107B4000CAD1DFF8E0091C260A21467202F05CFE69
:107B500084F83560C0E7FFF7B7FEDFF8C80F90F88C
:107B60002D20A0F86E10012A04D1FFF754FEA0F8D2
:107B70006E1089B2642900F26C826421A0F86E1044
:107B8000AAE7B8F80800DFF89C1F00BA000CA1F8BB
:107B90007000A1E7B8F80800DFF8881F00BA000CF1
:107BA000A1F8720098E7FFF78FFEDFF8780F90F8E2
:107BB0002D20A0F87410012A04D1FFF72CFEA0F8A4
:107BC000741089B2642900F24C826421A0F8741008
:107BD00082E7B8F80800DFF84C1F00BA000CA1F8E3
:107BE000760079E7B8F80800DFF8381F00BA000C13
:107BF000A1F8780070E7FFF767FEDFF8280F90F82C
:107C00002D20A0F87A10012A04D1FFF704FEA0F875
:107C10007A1089B2642900F22C826421A0F87A10CB
:107C20005AE7B8F80800DFF8FC1E00BA000CA1F80B
:107C30007C0051E7B8F80800DFF8E81E00BA000C35
:107C4000A1F87E0048E7FFF73FFEDFF8D80E90F876
:107C50002D20A0F88010012A04D1FFF7DCFDA0F848
:107C6000801089B2642900F20C826421A0F880108F
:107C700032E7B8F80800DFF8AC1E00BA000CA1F833
:107C8000820029E7B8F80800DFF8981E00BA000C57
:107C9000A1F8840020E798F80900DFF8881E81F831
:107CA000640019E7DFF87C0EFFF7FEFD3FF614AF26
:107CB000DFE811F00400100221023202FFF7B2FDEA
:107CC000A0F8861004D1FFF7A6FDA0F8861089B2AF
:107CD000642900F295836421A0F88610FCE6DFF8A1
:107CE000440EFFF7E1FD3FF6F7AEDFE811F00400C8
:107CF00026022B023002FFF7CEFDA0F88810EBE63B
:107D0000DFF8200EFFF7D0FD3FF6E6AEDFE811F01A
:107D10000400240229022E02FFF7BDFDA0F88A10FC
:107D2000DAE6DFF8000EFFF7BFFD3FF6D5AEDFE87D
:107D300011F00400230235024702FFF773FDA0F89B
:107D40008C1004D1FFF767FDA0F88C1089B264296C
:107D500000F25F836421A0F88C10BDE6DFF8C40D4B
:107D6000FFF7A2FD3FF6B8AEDFE811F004003C02D9
:107D700042024802FFF78FFDA0F88E10ACE6DFF854
:107D8000A40DFFF791FD3FF6A7AEDFE811F0040068
:107D90003D0243024902FFF77EFDA0F890109BE6EA
:107DA000DFF8800DFFF780FD3FF696AEDFE811F0BB
:107DB00004003E0250026202FFF734FDA0F8921068
:107DC00004D1FFF728FDA0F8921089B2642900F2CF
:107DD00029836421A0F892107EE6DFF8480DFFF7B2
:107DE00063FD3FF679AEDFE811F0040057025D0253
:107DF0006302FFF750FDA0F894106DE6DFF8240D44
:107E0000FFF752FD3FF668AEDFE811F004005802BC
:107E10005E026402FFF73FFDA0F896105CE6DFF813
:107E2000040DFFF741FD3FF657AEDFE811F0040007
:107E300059025F026502FFF72EFDA0F89A104BE68B
:107E4000DFF8E00CFFF730FD3FF646AEDFE811F05B
:107E500004005A0260026602FFF71DFDA0F89C10A4
:107E60003AE6DFF8C00C90F8371000297FF434AE02
:107E700098F8091080F838102EE698F80910DFF805
:107E8000A40C002980F8371000F0188101297FF434
:107E900023AE012180F83610B0F88A10A0F86A10DD
:107EA0001AE698F80900DFF87C1C81F82D0013E62B
:107EB00098F80900DFF86C1C81F82E000CE698F8A1
:107EC0000900DFF8601C81F82F0005E6B8F808000B
:107ED00000BA010CDFF84C0C90F82D200184002A28
:107EE00000F0F080012A7FF4F7ADD42928BFD42117
:107EF000212998BF212101EB81010922A03989B2F2
:107F0000B1FBF2F179E2B8F80800DFF8181C00BA0A
:107F1000000C4884E0E5B8F80800DFF8083C0922C6
:107F2000C1BA00BA93F82D4001EB8101000CA039D1
:107F3000012C08BF91FBF2F0198A401A01B23229D4
:107F4000A8BF322001B211F1320FD8BF6FF031005B
:107F5000D884C1E5B8F80800DFF8C81B00BA000CE7
:107F6000A1F86600B8E598F80900DFF8B81B81F8B9
:107F70003200B1E598F80900DFF8A81B81F833005A
:107F8000AAE598F80910DFF89C0B002918BF012119
:107F900080F839103FF4A0AD4FF4BE7201231E21CA
:107FA0000282002280F82F304FF480730183A0F802
:107FB00066100263C28480F83420E44AA0F82D30B1
:107FC000E34BC0F88220E34A036246F23C438382DB
:107FD000C0F87E20E04AC0F87A20E04AC0F8762057
:107FE000DF4AC0F87220DF4AC0F86E2074E598F8C6
:107FF0000900DFF8301B81F831006DE598F80900C1
:10800000DFF8201B81F8340066E5DFF8180BFFF776
:108010004BFC3FF661ADDFE811F00400B9018701C8
:10802000A701FFF7FFFBA0F8981004D1FFF7F3FBBF
:10803000A0F8981089B2642900F2FD816421A0F8AB
:10804000981049E598F80900DFF8D81A81F830004F
:1080500042E5B1F5FA7F24BF4FF4FA71A0F86E1033
:108060003AE5B1F5FA7F24BF4FF4FA71A0F8741025
:1080700032E5B1F5FA7F24BF4FF4FA71A0F87A1017
:108080002AE5B1F5FA7F24BF4FF4FA71A0F8801009
:1080900022E598F809104C1E032C00F29E81FFF790
:1080A0001BFCDFE814F09201040085018C0100F153
:1080B000780100F1760200F1740386E1002180F876
:1080C000361009E5002900F09781642924BF642156
:1080D000018401E5FFF7A6FBA0F8A41004D1FFF787
:1080E0009AFBA0F8A41089B2642900F2AD81642142
:1080F000A0F8A410F0E4FFF795FBA0F8C21004D19B
:10810000FFF789FBA0F8C21089B2642900F2A581AB
:108110006421A0F8C210DFE4FFF784FBA0F8E010B0
:1081200004D1FFF778FBA0F8E01089B2642900F2CF
:108130009D816421A0F8E010CEE4FFF7ACFBA0F82D
:10814000A610C9E4FFF7A7FBA0F8C410C4E4FFF72A
:10815000A2FBA0F8E210BFE4FFF79DFBA0F8A81077
:10816000BAE4FFF798FBA0F8C610B5E4FFF793FB5D
:10817000A0F8E410FFF7B0BCFFF754FBA0F8AA107A
:1081800004D1FFF748FBA0F8AA1089B2642900F2D5
:1081900076816421A0F8AA10FFF79EBCFFF742FB8E
:1081A000A0F8C81004D1FFF736FBA0F8C81089B2B8
:1081B000642900F26D816421A0F8C810FFF78CBC1F
:1081C000FFF730FBA0F8E61004D1FFF724FBA0F87E
:1081D000E61089B2642900F264816421A0F8E610F7
:1081E000FFF77ABCFFF757FBA0F8AC10FFF774BCA1
:1081F000FFF751FBA0F8CA10FFF76EBCFFF74BFB6F
:10820000A0F8E810FFF768BCFFF745FBA0F8AE1038
:10821000FFF762BCFFF73FFBA0F8CC10FFF75CBC98
:10822000FFF739FBA0F8EA10FFF756BCFFF7FAFAA0
:10823000A0F8B01004D1FFF7EEFAA0F8B01089B2A0
:10824000642900F237816421A0F8B010FFF744BC24
:10825000FFF7E8FAA0F8CE1004D1FFF7DCFAA0F897
:10826000CE1089B2642900F22E816421A0F8CE10CC
:10827000FFF732BCFFF7D6FAA0F8EC1004D1FFF7F5
:10828000CAFAA0F8EC1089B2642900F225816421B1
:10829000A0F8EC10FFF720BCFFF7FDFAA0F8B21031
:1082A000FFF71ABCFFF7F7FAA0F8D010FFF714BCDD
:1082B000FFF7F1FAA0F8EE10FFF70EBCFFF7EBFAAC
:1082C000A0F8B410FFF708BCFFF7E5FAA0F8D21049
:1082D000FFF702BCFFF7DFFAA0F8F010FFF7FCBBD6
:1082E000FFF7D9FAA0F8B810FFF7F6BBFFF7D3FAFB
:1082F000A0F8D610FFF7F0BBFFF7CDFAA0F8F41006
:10830000FFF7EABBFFF7C7FAA0F8BA10FFF7E4BB24
:10831000FFF7C1FAA0F8D810FFF7DEBBFFF7BBFAF2
:10832000A0F8F610FFF7D8BBFFF77CFAA0F8D4103E
:1083300004D1FFF770FAA0F8D41089B2642900F2D2
:10834000D4806421A0F8D410FFF7C6BB50003C00D5
:1083500032000A0032007C015E013C00320028003D
:108360001E0040012C012800FFF75CFAA0F8F21073
:1083700004D1FFF750FAA0F8F21089B2642900F294
:10838000BD806421A0F8F210FFF7A6BBFFF74AFA00
:10839000A0F8B61004D1FFF73EFAA0F8B61089B2E3
:1083A000642900F2B4806421A0F8B610FFF794BBF2
:1083B00000F17E0100F17C0200F17A0305E000F19A
:1083C000840100F1820200F1800309881B88127881
:1083D00003820275A0F86610018390F82D10012920
:1083E0007FF47AAB018A052201EBC101B1FBF2F106
:1083F00020314182FFF770BB00210184FFF76CBB85
:10840000B1F5FA7F24BF4FF4FA71A0F88610FFF798
:1084100063BBB1F5FA7F24BF4FF4FA71A0F88C105A
:10842000FFF75ABBB1F5FA7F24BF4FF4FA71A0F8F9
:108430009210FFF751BBB1F5FA7F24BF4FF4FA71E8
:10844000A0F89810FFF748BBB1F5FA7F24BF4FF4AE
:10845000FA71A0F8A410FFF73FBBB1F5FA7F24BF73
:108460004FF4FA71A0F8C210FFF736BBB1F5FA7FEE
:1084700024BF4FF4FA71A0F8E010FFF72DBBB1F55F
:10848000FA7F24BF4FF4FA71A0F8AA10FFF724BBBB
:10849000B1F5FA7F24BF4FF4FA71A0F8C810FFF7C6
:1084A0001BBBB1F5FA7F24BF4FF4FA71A0F8E610B8
:1084B000FFF712BBB1F5FA7F24BF4FF4FA71A0F8B1
:1084C000B010FFF709BBB1F5FA7F24BF4FF4FA7182
:1084D000A0F8CE10FFF700BBB1F5FA7F24BF4FF430
:1084E000FA71A0F8EC10FFF7F7BAB1F5FA7F24BFE4
:1084F0004FF4FA71A0F8D410FFF7EEBAB1F5FA7F95
:1085000024BF4FF4FA71A0F8F210FFF7E5BAB1F505
:10851000FA7F24BF4FF4FA71A0F8B610FFF7DCBA67
:10852000301200200400002070470000B0B5BE49A2
:10853000488801384880000408D14FF47A70BC4B59
:108540004880BA48C26DDA600022C265B84890F827
:108550003B20DAB18A88013A8A80120421D1B0F82E
:108560006820013AA0F8682012B2B2F1FF3F09DC9E
:108570000022022380F83B20AE4A1375B0F8662033
:10858000A0F868204FF47A728A800AE090F83020D0
:10859000022A04BF002280F82B20B0F86620A0F841
:1085A000682090F82B20022A15D1CA88013ACA8087
:1085B000120418D14FF47A72CA80828C013A8284F4
:1085C00012B2B2F1FF3F0EDC9A4A02231375002269
:1085D00080F82B2007E090F8302012B9002280F8B4
:1085E0002B20428C828490F8372092B1012A40F0EF
:1085F000FF80904A5378012B14D190F86430032BFC
:1086000000F2DA80DFE803F0022D303390F83630E4
:1086100019E04FF47A720A8186490022A0F86A2094
:108620004A70E5E00123537090F86430032BE6D8DC
:10863000DFE803F002203549FFF740F903D264B2C6
:1086400089A5FFF735F9032B51D0022B56D0012B0A
:108650005BD1FFF725F940F0AF804368B0F8864062
:10866000A0E090F836300CE090F836301EE090F83C
:1086700036302FE0FFF722F903D264B276A5FFF778
:1086800017F9032B4AD0022B4FD0012B54D1FFF7FF
:1086900007F940F091804368B0F8A44082E0FFF70A
:1086A0000DF903D264B268A5FFF702F9032B4CD091
:1086B000022B51D0012B56D1FFF7F2F87CD1436841
:1086C000B0F8C2406EE0FFF7F9F803D264B25AA5E1
:1086D000FFF7EEF8032B4FD0022B54D0012B59D1CA
:1086E000FFF7DEF868D14368B0F8E0405AE0FFF7E2
:1086F000D7F861D14368B0F8924053E0FFF7D0F863
:108700005AD14368B0F88C404CE0042B54D1FFF7A9
:10871000C7F851D14368B0F8984043E0FFF7C0F87C
:108720004AD14368B0F8B0403CE0FFF7B9F843D114
:108730004368B0F8AA4035E0042B3DD1FFF7B0F80C
:108740003AD14368B0F8B6402CE0FFF7A9F833D12E
:108750004368B0F8CE4025E0FFF7A2F82CD143687B
:10876000B0F8C8401EE0042B26D1FFF799F823D1BA
:108770004368B0F8D44015E0FFF792F81CD1436885
:10878000B0F8EC400EE0FFF78BF815D14368B0F875
:10879000E64007E0042B0FD1FFF782F80CD14368C5
:1087A000B0F8F240651FAB4206D90534A34203D2AC
:1087B0000B89013B0B8100E00B891B0418D14FF49E
:1087C0007A730B81B0F86A100139A0F86A1009B207
:1087D000B1F1FF3F0CDC0021517090F836200132DE
:1087E00080F83620D2B2052A24BFC186A0F86A10CC
:1087F000684CA068804794F82D00012809D194F8AE
:108800002C0018B1013884F82C0002E0022084F812
:108810002D0094F83C0010B1013884F83C00034866
:10882000016E01310166B0BD14000020D812002095
:108830000C09002054120020F0090020F609002045
:10884000FC090020020A0020D2090020D8090020DB
:10885000DE090020E4090020B4090020BA09002044
:10886000C0090020C6090020960900209C090020AC
:10887000A2090020A80900201848C16941F08051D0
:10888000C16117490A7842F004020A70C16921F0F7
:108890008051C161016841F00101016001688907EF
:1088A000FCD5416821F003014160416811F00C0FD3
:1088B000FBD101680B4A114001600021416041F683
:1088C0001071C1624FF4801101634FF41F01816088
:1088D00005484FF000610160704700BF0010024082
:1088E00050700040FFFFF2FE08ED00E07047704757
:1088F000704700000E48C168890618D501688906CE
:1089000015D50C490A78406880B280F05A0380F08F
:10891000A500134382F0010240EA0200B0FA80F0A1
:108920004FEA50104FEA400008BF0120087070471E
:10893000003801402C0A0020BCB5154CE0688006C8
:108940000CD52068800609D56168124D05F120001C
:10895000C9B201F078FD4FF48270A885E068400646
:1089600010D5206840060DD50A4D6FF040000DF17E
:108970000701206005F1300001F052FD18B1002020
:1089800085F83D00BCBD9DF807006060BCBD00BF20
:1089900000440040501300207047FEE710B580F8F7
:1089A00007148224090A80F809341B0A80F8054458
:1089B0004AF25A5480F80614D11C80F8083480F822
:1089C0000414A0F8024400F202400821BDE810405F
:1089D00001F01ABF0648BFF34F8F064A016801F441
:1089E000E06111430160BFF34F8F00BFFDE700BF9F
:1089F0000CED00E00400FA0500EB400107221E39EF
:108A000002FA01F1044A136819431160916A21F0D6
:108A10001F010843906270470C24014010B5124CAE
:108A2000207800BB102000F09DF9FBF7D9FE0F4B1A
:108A30004FF06632FBF75FFC0D4B0022FBF75BFC4F
:108A40000C4A0D4BFBF7B0FB0C4A0D4BFBF7C5FC7A
:108A5000FBF7E7FE3349A1F86C00013880B23128FA
:108A60009CBF0120207010BD8000002066660AC0F7
:108A70000000303F295C8FC2F528F43F33E197FABC
:108A8000795371BF0C09002002484FF480510160F6
:108A9000704700BF140C014002484FF48051016040
:108AA000704700BF100C014010B51E4890F82E0012
:108AB000012810D11C4CA078042811D8DFE800F060
:108AC000031E11221800207D022827D0012814BF80
:108AD0000020012023E0FFF7D7FF13480021017594
:108AE00010BDFFF7D9FF9D48FEF7ADFE14390DE02C
:108AF000FFF7CAFF0020A070207510BDFFF7CCFF64
:108B000003200CE09548FEF79EFE023972F1000149
:108B1000E6D30021C0E91C11042000E00220A0706F
:108B200010BD00BF0C09002054120020F0B53249DE
:108B30000A68C2F38103314A022B08D0BBBB0B6D1C
:108B40009B0534D5CB6A9B0148BF2E4A2FE00B68AA
:108B50008C6AC3F30043002C0BD40C680D68C5F37A
:108B60004175C4F383440DB90F2C18D12D01013583
:108B700016E08C6A8D6A8E6A214FC4F30314C5F324
:108B8000082506F007061BB10B689B0358BF174664
:108B900004FA06F207FB05F3B3FBF2F207E0022545
:108BA0002C4413B10B689B0300D5154A6243026045
:108BB000154C0B68C3F30313E35C144CDA404260BA
:108BC0000B68C3F30223E35C22FA03F3C3600B6870
:108BD000C3F3C223E35C0424DA4082600B680968B3
:108BE00004EA9363C1F38131194409A3595CB2FBD0
:108BF000F1F10161F0BD00BF0410024000127A00E3
:108C000000093D00006CDC020CAA00081CAA000848
:108C100002040608020C08107CB5044600204FF63A
:108C2000FF75C6B2652E09D8301900F065F8ADF8A9
:108C30000600B01CBDF80610A942F2D1BDF806002E
:108C40007CBD000010B52A4C226842F0010222606F
:108C500001804FF4801000F017F8FEF710BE00BF3F
:108C600008480168C9071CBF002070470168490710
:108C700044BF012070470068C0064FF0020058BF93
:108C8000032070470C200240B0B50446FFF7E8FF10
:108C90000025013C45F1000118B911B1FFF7E0FFD3
:108CA000F7E7B0BD10B5124C216841F00201216018
:108CB0006060206840F0400020604FF08040FFF787
:108CC000E3FF206820F00200206010BDFCF76EB8C2
:108CD00010B5074C0749206840F00100206070483B
:108CE00001604FF48010FFF7CFFFFEF7C8BD00BF53
:108CF00010200240384B544181B00168D0F8010087
:108D00008DF800108DF801009DF801009DF800100D
:108D100041EA0020ADF80200BDF8020001B0704742
:108D2000B0B504460C48814203D10C4DA86E07280B
:108D300003D94FF0FF342046B0BD09490C5401302F
:108D40000828A86601D1082001E00A2CF3D1FBF71E
:108D50005BFF0020A866EEE700000020D81200208C
:108D60005013002080B5FFF747FE0548816841F4A5
:108D70008001816001688907FCD5C06C80B280BD2C
:108D80000024014008480121006821EA5000704792
:108D900005480121006821EA0000704702480121CE
:108DA000006821EA90007047080C01400248012148
:108DB000006821EA5010704708100140F0B58B7927
:108DC0000A88032B0AD05BB94979282913D01829BE
:108DD00012BF01F00F01026108210EE000210CE03A
:108DE0000C79C97903F0080304F0040401F00301CD
:108DF0002344194401E042610821130616D00023E0
:108E00000F240025082D11D022FA05F6F6070AD006
:108E1000076804FA03F627EA0606066001FA03F675
:108E200007683E43066004330135EBE7B2F5807F07
:108E300017D3120A00230F240025082D11D022FA7F
:108E400005F6F6070AD0476804FA03F627EA06068D
:108E5000466001FA03F647683E4346600433013535
:108E6000EBE7F0BD10B50A480078022818BF10BD26
:108E7000084C09482060094820600948FFF712FFA4
:108E8000FFF726FFE06840F08000E06001F0B6FAEE
:108E90002C0A00200420024023016745AB89EFCD56
:108EA00000380008B0B50446007803283DD8DFE854
:108EB00000F002102930E068002565608047012835
:108EC00007BF012020701A4804211CBF01702570C3
:108ED0002BE0E0688047012802D1606801306060C3
:108EE000E068804708B902202070A0680138A060BF
:108EF0001BD10A20A06060680A28B4BF02200320AA
:108F0000207012E00A210020A16009492070087039
:108F10000BE0E0688047012819BF00202070032083
:108F2000207002BF02480221017001480078B0BDE4
:108F30000E000020F8B5D248D0F80014890608D5F4
:108F40000168C90705D00168890702D5016849078A
:108F50000CD4DFF8481591F82820012A04D02AB94A
:108F6000012281F8282001E000224A83D0F8001471
:108F700089060CD50168C90709D00168890706D59B
:108F80000068400703D5DFF8180500210174DFF8F9
:108F90001445DFF8146504F10C00B047DFF8005504
:108FA000687404F11C00B047A87404F12C00B047A9
:108FB000E87404F13C00B047A87B01280FD1DFF82A
:108FC000EC04B0F856100131A0F8561089B24429CB
:108FD00031BF01220022AA73A0F8562000E000222F
:108FE000E87B01280FD1DFF8C404B0F85810013134
:108FF000A0F8581089B2442931BF01210021E9733A
:10900000A0F8581000E00021DFF8900490F82C3010
:10901000012B24D0002B40F0B9802B7C002B40F09A
:10902000B5806B7C93B3EE7CBEB3AE7C002E40F07B
:109030008F8090F82B60032E5CD0002E40F088804B
:10904000002A79D00126DFF864744FF0000C002963
:109050002E7484F800C0A7F856C070D179E0297C3E
:10906000002940F0938090F83810AA7C114340F01A
:109070008D8090F8371041B3012929D1002180F863
:109080003710B0F88A10A0F86A1021E0BAB10121B7
:109090004FF480722975EA8124E090F82B60032E4A
:1090A00024D0002E54D152B302270126DFF8FCC38E
:1090B000277000272E74ACF8567019BB49E049B1EF
:1090C000012129750021E9730CE040F20111C186EC
:1090D000012158E090F83B10C1B10221297500210F
:1090E00080F83B1001222A74002641E101262E74EB
:1090F000062602E001262E740426267028E00029A8
:1091000000F01B8101262E7406261BE090F82B2010
:1091100002F0FE01022940F01A810021022A00F02B
:10912000B881032A4FF0000640F022810221297500
:10913000002180F82B10D5E7002900F0A18101263D
:109140002E7404262670DFF864630027A6F8587092
:109150001646022B40F00C8190F8301029B10129FD
:1091600007D1032180F82B100CE0022180F82B108E
:1091700009E002290AD190F83510182906D10121F9
:1091800080F83B100221012229752A7421780929CF
:1091900000F26D81DFE811F00A001E004301260095
:1091A0002D003A0046004F006B015C0090F82D1036
:1091B000012900F08080002940F05581018A4FF498
:1091C000FA72B1F5FA7F38BF4A1C02EBC201028283
:1091D00089B233E1018A4A1DB1F5F77F88BF4FF4A8
:1091E000FA7204E0018A4A1F6A2938BF64220282A7
:1091F00039E190F82B10032900F0F980002940F0A4
:109200003281017DC8290BD20131ECE090F82B109E
:10921000032960D0002940F02681017DC32965D350
:10922000C821E0E090F82B10032900F0C880002945
:1092300000F0D38017E190F82B10032951D00029BA
:1092400040F01181017D062940F2CA800539CAE04B
:1092500090F8653090F83520591C032BA2F11803C3
:1092600088BF012180F86510022B0DD24FF0FF322C
:1092700052FA81F1032957D80FF20802D2E801F01F
:10928000080C01401038414A012A4DD14FF0FF32FD
:1092900052FA81F1032947D8DFE801F0022A333C72
:1092A000B0F87210A0F86610B0F86E10018290F855
:1092B0007010017538E0418A4FF46972B1F5697F29
:1092C00038BF4A1C02EB82014282A039092209B24E
:1092D00091FBF2F1C6E0417DC32980F08B8005311E
:1092E0008BE0417D06296DD9053986E005317AE0AC
:1092F000B0F87410018290F876100175B0F878100B
:1093000010E0B0F87A10018290F87C100175B0F886
:109310007E1007E0B0F88010018290F8821001758D
:10932000B0F88410A0F8661090F82D10012940F0D4
:109330009A80018A01EBC10180E002220126002708
:1093400022705A4AAE732E74A2F8567001E790F854
:1093500035200021192A3FF6C7AE0123002603FA63
:1093600002F2534B1A4203D0092121700021B9E6C1
:10937000EA7C022A0DD190F82B20032A1DD0002A66
:109380007FF404AF16B30023484AA2F85630F1B96F
:1093900045E0AA7C022A7FF4F9AE90F82B20032A3C
:1093A00023D0002A7FF4F2AE4EB300233F4A0029B7
:1093B000A2F856303FF4FAAE22E006212170417D3A
:1093C000012901D8012118E0013916E0F9B1374926
:1093D0000022A1F8582006212170017D012901D821
:1093E000012100E0013901753DE004212170417D3A
:1093F000C82901D3C82100E00131417533E0B9B378
:109400002A490022A1F8582004212170F9E60221FE
:10941000002221700121A9732449A1F8562090F857
:109420002D10012910D0F1B9018A6422642988BF66
:109430004A1E91B20282C90011FA82F10522B1FBE3
:10944000F2F1203141820EE0418AD422D42988BF32
:109450004A1E91B24282890011FA82F10922A03992
:10946000B1FBF2F101820B20207001202875F8BDBC
:1094700001220021AA730D4A2170A2F8561095E628
:109480000A4F002201262270AE732E74A7F85620D0
:109490005FE6022280F82B102A7523E60C090020D3
:1094A0005412002014000020A58E0008D8120020BD
:1094B0000200000388B06B486B4D6C4F00F50060F4
:1094C00045F8040C386840F00100386038688007BF
:1094D000FCD5786820F003007860786810F00C0FF5
:1094E000FBD13868624908406249386000207860E2
:1094F00041F61070F8624FF4801038634FF41F008B
:10950000B86014200860786A40F001007862786AD8
:109510008007FCD5386840F4803038600020396816
:10952000890304D4411CB0F5405F0846F7D338687E
:1095300080034FF00000F2D5386840F00100386039
:1095400038688007FCD57868962120F480307860F0
:10955000386B40F000703863F86A61F31020012125
:10956000F862F86A61F307100221F862F86A61F3A1
:109570000200F862F86A40F00040F862386840F093
:109580008070386038688001FCD57868042120F04C
:10959000F0007860786861F3CD207860786861F3D6
:1095A0000A2002217860786D40F030007865786894
:1095B00061F30100786000BF00BF00BF00BF00BFC3
:1095C00000BF00BF00BF00BF00BF00BF00BF00BFA3
:1095D00000BF00BF00BF00BF00BF00BF00BF786872
:1095E00000F00C000828FAD1786D20F03000786582
:1095F0007868C0F381012048022909D000294CD1A4
:10960000796D890549D5396B890148BF1B4844E00C
:109610007968FA6AC1F30041002A0BD47A687B6842
:10962000C3F34173C2F383420BB90F2A2AD11B0142
:10963000013328E0FA6AFB6AFC6A2E46104DC2F339
:109640000312C3F3082304F0070419B179688903EE
:1096500058BF054605FB03F102FA04F03546B1FB9D
:10966000F0F01AE0003800080CED00E000100240B5
:10967000FFFFF2FE0020024000127A00006CDC02C4
:1096800000093D0002231A4411B17968890303D50A
:10969000004801E000093D005043DFF85C3CDFF882
:1096A0005C2C4FF00009FD4C4FF0200818607968E1
:1096B000C1F30311515CFA4AC8400221186078696D
:1096C00040F001007861B86940F00100B861B86904
:1096D00040F00400B861B86940F00800B861B869AA
:1096E00040F01000B861B86940F02000B861B86976
:1096F00040F08000B861B86940F40070B861B869A2
:1097000040F48050B861B86940F48040B861B869ED
:1097100040F40020B861F86940F00100F861F86990
:1097200040F00200F861F86940F40030F861F8692F
:1097300040F48020F861F86940F40020F861F8698D
:1097400040F48010F861D06961F312404FF6FF01D8
:10975000D06128680840D34908432860286885F804
:109760000C90286885F80D90286885F80E90286878
:1097700085F81390286885F81490286885F8169065
:109780002868C0F30220C11E80F0070038BF494698
:109790000422042828BF10464FF0FF3202FA00F0DE
:1097A000C04388404FF000510001E8752868BE486A
:1097B00080F80090C4F8F010296880F80890202103
:1097C000C4F8F410296880F809904021C4F8F41016
:1097D000296880F80A908021C4F8F410296880F87C
:1097E0000B904FF48071C4F8F410296880F817903A
:1097F0004FF48011C4F8F410296880F818904FF4E1
:109800000010C4F8F40001A8FFF790F92068A74DF4
:10981000DFF8ECBA4FF0100A20F0040020604FF49B
:10982000FA500299B1FBF0F001386060C4F808907A
:10983000206840F0030020609D48029010200190B5
:1098400001AE28463146D847182428463146CDF87F
:109850000480ADF80940D847ADF80940954C072081
:109860003146019004F580684046D8474FF4804166
:10987000914A28466961C4F814A04FF4A04A45F8FB
:1098800002A08E4DCDE901153146D8471020314652
:10989000029501902046D847404631460295CDE9D1
:1098A000008AD8474AF68E704FF4417431460190D1
:1098B0007E48ADF80940D84749F60210FDF7DAFFB7
:1098C0007C48D847C020FDF7D5FF7D48D8474FF4E6
:1098D0007E70FDF7CFFF4046D8477A484BF6EF72CF
:1098E000744E016821F001010160C0F80090C0F8D9
:1098F0000490C0F80890C0F80C9050F8041C41F097
:109900000F0140F8041C016811400160016841F436
:1099100080410160016821F440510160016821F437
:1099200040610160016821F440710160016841F00B
:1099300080010160016841F040010160016821F08F
:1099400020010160002141608160C160416081604F
:10995000C160016841F0010101605B4802908046EE
:109960004FF40070019001AC30462146D84757486B
:109970002146029005464FF48060FDF7AAFF544847
:10998000DFF888A900F50060D0475248016841F02F
:1099900008010160016841F004010160016821F4DF
:1099A00000710160016821F480610160816821F427
:1099B00080718160816821F400718160016841F0EB
:1099C00020010160016841F4005101600420CDF8DC
:1099D0000880019001AC30462146D8470820214636
:1099E0000295FDF776FF3C4D2846D047E86840F0E9
:1099F0000800E860E86840F00400E860E86820F4E7
:109A00000070E860E86820F48060E860686920F42D
:109A100080706861686920F400706861E86840F0EF
:109A20002000E860E86840F04000E860E86840F442
:109A30000050E8604FF48060CDF80880019001ACE0
:109A4000009E21463046D847204821468146029054
:109A50004FF40060FDF73DFF05F58060D0471F48DB
:109A60001F4C154A164E215841F00801215021582B
:109A700041F004012150215821F400712150215856
:109A800021F480612150A15821F48071A150A15886
:109A900021F40071A15000F025B800BF10E000E0F3
:109AA000140001400003FA051DE400E0001001402D
:109AB000000400010008014014FCFFFF0004100234
:109AC000001C0140080002400004080200040002DB
:109AD000003001400C380140004400400CFCFFFF06
