:020000040800F2
:104000009030002085410008C1490008BD490008E2
:10401000BF490008B9490008957600080000000073
:10402000000000000000000000000000896A000895
:10403000BB49000800000000FD5200088D6A00081E
:104040009F4100089F4100089F4100089F410008D0
:104050009F4100089F4100089F4100089F410008C0
:104060009F4100089F4100089F4100089F410008B0
:104070009F4100089F4100089F4100089F410008A0
:104080009F4100089F4100089F4100089F41000890
:104090009F4100089F4100089F4100089F41000880
:1040A0009F4100089F4100089F4100089F41000870
:1040B000F9700008A17400089F4100089F410008A2
:1040C0009F4100089F4100089F4100089F41000850
:1040D0009F41000881750008D975000835760008F1
:1040E0009F4100089F4100089F4100080000000018
:1040F00000000000000000000000000000000000C0
:10410000000000009F4100089F41000800000000DF
:10411000C9740008257500080000000000000000B8
:104120009F4100089F4100089F4100089F410008EF
:10413000000000000000000000000000000000007F
:104140000000000000000000000000009F41000887
:1041500000000000000000009F4100089F4100088F
:104160000000000000000000000000009F41000867
:10417000DFF80CD000F0A0F90048004701C00008AB
:10418000903000200648804706480047FEE7FEE7DB
:10419000FEE7FEE7FEE7FEE7FEE7FEE7FEE7FEE7F7
:1041A00085700008714100082DE9FE4F804681EAC4
:1041B0000300C00F0C46009021F0004123F00045A1
:1041C000B8EB0200A94105D24046214690461C4664
:1041D0000B46024623F00040104347D0270DC7F39B
:1041E0000A00C3F30A510290401A019040286BDA8A
:1041F000C3F3130040F4801B0098924620B10023C3
:10420000D2EB030A63EB0B0B01985946C0F1400255
:10421000504600F069F906460D4650465946019A47
:1042200000F081F910EB08006141002487EA115287
:1042300084EAE7731A4340D0009A62B3019A012AD4
:104240004FEA075215DC001B61EB02014FF0004200
:1042500002EA0752CDE90042001C41F580113246C6
:104260002B4600F081F903B0BDE8F08F40462146AF
:10427000F9E7001B61EB0201001C41F580130018F7
:104280005B412018A2F5001747EB030140EAD57007
:10429000B6196D4111E06D084FEA360645EAC07562
:1042A0004FEA0752001B61EB0201001C41F580112F
:1042B00049084FEA30000019514132462B4603B0FD
:1042C000BDE8F04F00F041B9009801224000002302
:1042D000D0EB020263EBE073009821464FEAE074F2
:1042E000B8EB000061EB0401E9E783F000435BE712
:1042F00081F0004158E72DE9FE4F81EA030404F004
:10430000004421F0004100944FF0000B23F00043E3
:1043100050EA01045ED052EA03045BD0C3F30A54AE
:10432000C1F30A552C44A4F2F3340194A0FB0254C7
:10433000C1F3130141F48011C3F3130343F4801359
:1043400001FB024400FB034E840A970A44EA8154AD
:1043500047EA8357A4FB076802958D0A05FB07858A
:104360004FEA932C04FB0C542705029D4FEA065894
:1043700047EA1637B5EB08056EEB070C870E920E71
:1043800047EA811742EA8312A7FB0201B6EB0B0151
:1043900064EB00042B0D43EA0C335E1844EB1C5015
:1043A000DA465146E7FB0201C5F313044FEA0B332B
:1043B00043EA14534FEA0432019C43EA0603A4F192
:1043C0000C040294009CCDE900B400F0CDF803B0D9
:1043D000BDE8F08F00200146F9E72DE9F04D81EAB4
:1043E000030404F0004B21F0004514464FF0000A8E
:1043F00023F0004150EA050220D054EA01021DD00A
:10440000C5F30A570246C5F31303C1F31300C1F302
:104410000A5640F4801543F48013A7EB0608101BDE
:10442000D64608F2FD3873EB050002D308F1010807
:1044300001E092185B41B8F1000F03DA0020014659
:10444000BDE8F08D00204FF48011064684460EE052
:10445000171B73EB050705D3121B63EB050306431C
:104460004CEA010C49084FEA300092185B4150EACF
:104470000107EDD152EA030012D082EA040083EA78
:104480000501084305D0101BAB4106D201220023D1
:1044900006E000224FF0004302E06FF001025310EB
:1044A0001AEB06004CEB085110EB0A0041EB0B0134
:1044B000BDE8F04D00F049B81CB509480090094826
:1044C00001900546009C06E0E06840F0010394E896
:1044D000070098471034AC42F6D3FFF74DFE0000BA
:1044E000FCDE00081CDF0008202A04DB203A00FA6A
:1044F00002F1002070479140C2F1200320FA03F33B
:10450000194390407047202A04DB203A21FA02F038
:104510000021704721FA02F3D040C2F120029140FD
:10452000084319467047202A06DBCB17203A41FA88
:1045300002F043EAE07306E041FA02F3D040C2F130
:104540002002914008431946704710B5141E73F1BC
:10455000000408DA401C41F1000192185B411A4343
:1045600001D120F0010010BD2DE9F04D92469B468F
:1045700011B1B1FA81F202E0B0FA80F22032904635
:10458000FFF7B2FF04460F4640EA0A0041EA0B017A
:1045900053465A46084313D0114653EA010019D036
:1045A000C8F140025046FFF7AEFF05460E465046A2
:1045B00059464246FFF798FF084305D0012004E022
:1045C00020463946BDE8F08D0020054346EAE076F6
:1045D0002C4337430A986305E40AA0EB0800002245
:1045E000FD0A44EA47540A3002D500200146E9E7B3
:1045F000010510196941DDE9084500196941BDE867
:10460000F04DA2E7D2B201E000F8012B491EFBD227
:1046100070470022F6E710B513460A4604461946CD
:10462000FFF7F0FF204610BDF0B480EA0102D40F7E
:104630004200B2EB410F02D20246084611464A0040
:1046400042D0C30DDDB2C1F3C752AD1A202D35DA09
:10465000C1F3160141F4000204B15242C5F1200633
:1046600002FA06F12A411044B3EBD05F23D0C4B163
:10467000012DA0EBC35009DCF0BC4FF0004202EA70
:10468000C352DBB200F5000000F068B9400000F151
:10469000807000EBC350A0F1807040EAD1704900F7
:1046A00009E0490841EAC071A0EBC35000F50000E1
:1046B000400800EBC350F0BC00F047B96142012252
:1046C00002EB4101001BF6E7F0BC704781F00041AE
:1046D000AAE780F00040A7E780EA010210B502F0E7
:1046E0000043400022D04A001FD0010E01EB1261AE
:1046F000C0F35600C2F3560240F4000042F4000238
:10470000A0FB022000047F39140400D0401C50EAB2
:10471000124001D44000491EC2B20C0604EBD01076
:10472000401C4008802A02D003E0002010BD20F089
:104730000100002900DA0020184310BD30B480EADF
:10474000010202F0004530F0004221F0004013D099
:1047500090B1C30DD40DC2F31601C0F31600E41AD4
:1047600041F4000140F400027D34914201D3641C05
:1047700000E04900002C02DA30BC002070474FF402
:1047800000000023914201D3891A034340084FEAF5
:104790004101F7D151B1914202D14FF0004105E002
:1047A00002D24FF0010101E06FF0010103EBC450B0
:1047B000284430BC00F0C9B8002801DBC0F100403B
:1047C000002901DBC1F10041814201D8012070477D
:1047D00000207047002801DBC0F10040002901DB08
:1047E000C1F10041814201D2012070470020704791
:1047F000002801DBC0F10040002901DBC1F10041CC
:10480000814201D30120704700207047002801DB5E
:10481000C0F10040002901DBC1F10041814201D912
:104820000120704700207047C10F80EAE070084403
:10483000CA079623002100F091B896230022114662
:1048400000F08CB80EB5C10F80EAE0700844CA07CA
:10485000002140F233438DE80E000A460B46FFF775
:1048600083FE03B000BD0EB540F23341029100213A
:10487000CDE900110A460B46FFF776FE03B000BDF6
:1048800000F0004220F00040C10DC0F3160040F4DB
:1048900000007F2901DA00207047962903DCC1F16E
:1048A0009601C84001E096398840002AF4D0404281
:1048B000704720F00040C10DC0F3160040F4000026
:1048C0007F2901DA00207047962903DCC1F19601A7
:1048D000C840704796398840704770B5C1F30A5296
:1048E00001F000450024C1F3130140F2FF3341F40D
:1048F00080119A4201DA002070BD40F233439A429F
:10490000A2F2334203DC5242FFF7FDFD00E090408B
:104910002C43F1D0404270BDC1F30A5210B5C1F32F
:10492000130140F2FF3341F480119A4201DA002072
:1049300010BD40F233439A42A2F2334203DC5242AA
:10494000FFF7E1FD10BD904010BD0029A8BF7047E2
:10495000401C490008BF20F00100704710B4B0FAB5
:1049600080FC00FA0CF050EA010404BF10BC704750
:1049700049B1CCF1200421FA04F411FA0CF118BF6A
:10498000012121430843A3EB0C01CB1D4FEA006139
:104990004FEA102042BF002010BC704700EBC3500C
:1049A00010440029A4BF10BC7047401C490008BF38
:1049B00020F0010010BC7047FEE77047FEE7FEE7FD
:1049C00070470222D0F804412047218940F2E733A2
:1049D00009BA0A0C9A42704706F1320102200A22F3
:1049E00086F83B4009F070B9214609F06DB9A6F888
:1049F0002E01A4F118002847A6F82C01A4F11A00F2
:104A00002847A6F82A01A4F11C002847A6F8260189
:104A1000A4F11E002847A6F82401A4F1200028478D
:104A2000A6F82201A4F122002847A6F82001A4F14B
:104A300024002847A6F81E01A4F126002847A6F85E
:104A40001C01A4F1280028479BF841000128704769
:104A5000A6F81801A4F12A002847A6F81601A4F127
:104A60002C002847A6F81401A4F12E002847A6F828
:104A70001001A4F130002847A6F80E01A4F132007D
:104A80002847A6F80C01A4F134002847206820F03C
:104A90000100206010BDA6F80801A4F136002847E7
:104AA000A6F80601A4F138002847A6F80401A4F1ED
:104AB0003A0028470922088400EB8000A03890FBC8
:104AC000F2F088837047A6F80001A4F13C00284763
:104AD000A6F8FE00A4F13E002847A6F8FC00A4F1C9
:104AE00040002847A6F8FA00A4F142002847A6F89B
:104AF000F800A4F144002847A6F8F600A4F1460007
:104B0000284796F83B0000287047A6F8F200A4F169
:104B100048002847A6F8F000A4F14A002847A6F864
:104B2000EE00A4F14C0028470522888300EBC0006A
:104B3000B0FBF2F0203008847047A6F8EA00A4F138
:104B40004E002847A6F8E800A4F150002847A6F830
:104B5000E600A4F152002847A6F8E200A4F15400B0
:104B60002847A6F8E000A4F1560028473146ADF8E2
:104B7000115003907047A6F8DE00A4F158002847B2
:104B8000A6F8DA00A4F15A002847A6F8D800A4F144
:104B90005C002847A6F8D600A4F15E0028472089CB
:104BA00040F2E73200BA010C91427047A6F8D200F9
:104BB000A4F160002847A6F8D000A4F162002847BD
:104BC000A6F8CE00A4F164002847A6F8CA00A4F114
:104BD00066002847A6F8C800A4F168002847A6F890
:104BE000C600A4F16A002847A6F8C200A4F16C0030
:104BF0002847A6F8C000A4F16E002847A6F8BE001A
:104C0000A4F170002847A6F8BA00A4F17200284762
:104C1000BDF804200A32ADF804209DF807200132C7
:104C20008DF807207047A6F8B800A4F17400284753
:104C3000A6F8B600A4F176002847A6F8B200A4F1C1
:104C400078002847A6F8A800A4F17A002847A6F81B
:104C5000A600A4F17C002847A6F8A400A4F17E00D9
:104C60002847A6F8A200A4F180002847A6F8A000D3
:104C7000A4F182002847A6F89E00A4F184002847EA
:104C8000A6F89C00A4F18600284705248B8303EB3B
:104C9000C303B3FBF4F320337047A6F89A00A4F1E2
:104CA00088002847A6F89800A4F18A002847A6F8AB
:104CB0009600A4F18C002847A6F89400A4F18E0079
:104CC0002847A6F89200A4F19000284786F84C00E7
:104CD000A4F19200284786F84B00A4F194002847DD
:104CE00086F84900A4F19600284786F84600A4F10A
:104CF0009A00284786F84500A4F19C00284709221D
:104D0000018401EB8101A03991FBF2F17047A0F819
:104D10009E50A0F82651A0F80051704786F8440034
:104D2000A4F19E00284786F84300A4F1A00028477C
:104D300086F84200A4F1A200284786F84100A4F1B9
:104D4000A4002847A6F88A00A4F1A600284786F800
:104D50004000A4F1A800284786F83600A4F1AC0072
:104D6000284786F82400A4F1AE00284786F82200E0
:104D7000A4F1B000284709240B8403EB8303A03B74
:104D800093FBF4F3704786F84800A4F19800284795
:104D90000220002196F8223085F848000120704753
:104DA00001EB81010922A03991FBF2F17047052244
:104DB000818301EBC101B1FBF2F120317047052382
:104DC000218902EBC20249BAB2FBF3F2704795F8AF
:104DD00041000128704795F850000028704790F86E
:104DE0004D104A1E022A704780F82320C28380F8A3
:104DF000891090F841100029704790F83820002160
:104E000080F85310012A7047002180F8231090F891
:104E10003B100329704790F88810032970472846F3
:104E2000042102F0F5BC01EBC101B1FBF0F120312E
:104E300070470221092280F8281040F20141C18404
:104E400000F12001022008F03FBFD0F804512847AC
:104E500080F88930828380F8224090F838207047AB
:104E600000204FF0012281F8570081F82300C88309
:104E700091F88900C1F8532070474FF00112426544
:104E80000122A0F85920002270472089C82200BAC8
:104E9000010CC82970470121A0F8591090F824107E
:104EA0007047010E87F8160187F81311010C000AEC
:104EB00087F8141187F8150170470020C88391F80E
:104EC00041000128704796F84100B6F88A10012881
:104ED00070472189C82309BA0A0CC82A704752F8BA
:104EE00021100988A5F88E10704795F84E00411ED4
:104EF000C9B204297047D0F804410222204700219A
:104F0000C18390F8411001297047A0F83E11A0F824
:104F10001811A0F8F210A0F8E210A0F8BA1070472B
:104F200090F8411001297047ADF826808DF8217066
:104F3000CDF8224008F07CB99DF807006060BCBD48
:104F4000012180F8481070470121A0F85410A0F802
:104F500059100021C183617A01297047218990F895
:104F6000412049BA012A704790F83B100029704748
:104F70000222D0F8047138470222D0F80461304789
:104F80000A2280F83B4000F13201022008F09CBE6A
:104F90009BF93700DBF8041008449BF93610401ADF
:104FA00070472189092209BA090C704780F88930B5
:104FB000A0F88A20704791B28283C90011FA82F169
:104FC000704796F84E0001380428704707F50175C0
:104FD00020461022294602F0F9BBD0F804412047B0
:104FE000338C092103EB83007047002081F82300F4
:104FF00091F822007047026842F001020260F0203E
:10500000162287F81701704794F84E0001380328DC
:1050100070479BF84E00013803287047B38B052179
:1050200003EBC3007047B0FBF1F0203070479BF8F2
:105030004D0001287047D0E91612013142F10002FB
:10504000C0E91612704790F84D10022970470168A8
:1050500041F008010160016841F00401016001684C
:1050600021F400710160016821F4806101608168B0
:1050700021F480718160816821F400718160016890
:1050800041F020010160016841F0400101600168C8
:1050900041F400510160704791F83B0003287047CC
:1050A0000A6842F001020A60B97CB1EB106F7047E8
:1050B0000027C6E95C0704F12200284700220A62A3
:1050C000CA614A610A61F265706070472846FFF75D
:1050D000A0BAC9B208F058B8022180F84810704749
:1050E000018C40F2713301F1320299427047BDF8F0
:1050F0000C209DF80B301A4482427047A6F86801D4
:1051000004F12000284740F00800F060F06840F00B
:105110000400F060F06820F40070F060F06820F4A3
:105120008060F060706920F480707061706920F4B4
:1051300000707061F06840F02000F060F06840F0AE
:105140004000F060F06840F40050F060704791B2A9
:105150000284890011FA82F1A0397047A6F866012D
:1051600004F11A002847A6F8640104F11800284742
:10517000A6F8620104F116002847A6F8600104F1C0
:1051800014002847A6F85E0104F112002847A6F88B
:105190005C0104F110002847A6F85A0104F10E0042
:1051A0002847A6F8580104F10C002847A6F8560134
:1051B00004F10A0028470121A0F85610A0F8591060
:1051C000002180F8231090F822107047A6F85401AF
:1051D00004F108002847A6F84401A4F10800284774
:1051E000A6F84201A4F10A002847A6F83E01A4F15E
:1051F0000C002847A6F83C01A4F10E002847A6F8A9
:105200003A01A4F110002847A6F83601A4F11200D3
:105210002847B9F84E10F0650131A9F84E107047D3
:10522000A6F83401A4F114002847A6F83201A4F12D
:10523000160028472DE9FC41FFF748FA2D4F786109
:105240007869F969FFF7F0F9F8612B4CF8692146A4
:10525000FFF7C0FA00B9FC61F86900210024FFF7EC
:10526000D5FA00B9FC61D7E9008678697C6A3969AA
:10527000FFF72CFAB86130467D69F969FFF72CFA1F
:105280000190009401980099FFF796FA08B90098E8
:1052900001900198009981F00041FFF7A9FA18B92F
:1052A000009880F00040019040462946FFF714FA2C
:1052B0000199FFF7B9F90446B8687D69B969FFF744
:1052C0000BFA2146FFF7B0F938623D61386AB96AD6
:1052D000FFF772FA08B9B86A3862386AB96A81F0B9
:1052E0000041FFF785FA08B900203862386ABDE846
:1052F000FC8100BF0423002000C82F477047000036
:105300002DE9F041451C04460220294608F0BEFC68
:1053100084F88100C0B2092841F0E28128785A2837
:1053200041F0DB81A078A52841F0D781A0790B3826
:10533000482801F2D281DFE810F04900BB029E024A
:105340007C023103D009D009D0099702C001D501F0
:1053500055022A025B0370016301900362026F022F
:1053600072030903F703EC01AE031001A9013E012A
:105370003702270131041A047D01F301CE02110224
:1053800077045C01890367040201EC02F600BB00AC
:1053900094014E02A703D009D0099304D009090152
:1053A000E502D009D009D0091D03D0097E041603F7
:1053B000E100D009D009D00972002D054F04A200E8
:1053C0004603CC038D000404E2034905DFF8946C26
:1053D000002086F84700FFF794FB41F07E81207A99
:1053E000657A0002FFF72EFA804628460F46FFF73F
:1053F0003AFAE04B0022FEF77EFF42463B46FEF7BC
:10540000D3FEFFF76AFA642898BF6420B08300EBEC
:10541000C0000521FFF707FE308401F05EB9DFF818
:105420008C0EFFF7A1FD41F05881FFF78DFD00F0D4
:10543000D687002941F05181FFF772FD01F06182AA
:10544000002941F04A81818B6422642988BF4A1E69
:1054500000F0B9BCDFF8540EFFF786FD41F03D8146
:10546000FFF7CBFC00F0CA87002A40F0C887FFF79F
:10547000EAFD1CBF012180F8381000F0C0BF607A3F
:10548000012800F0B984002841F02781DFF81C0EC4
:1054900090F83B10032900F0E687002941F01D81B8
:1054A000FFF789FE0A2940F2AD83053900F0AABF53
:1054B000DFF8F80DFFF758FD41F00F8190F841201B
:1054C000617A012A08D1227A41EA0221092201EBFC
:1054D0008101A03991FBF2F1027F90F83630511A28
:1054E000194449B26429A8BF642111F1640FD8BFDF
:1054F0006FF0630180F8361001F0EFB8DFF8AC6DA3
:10550000FFF7FFFA41F0E980607A002841F0448219
:10551000DFF89C5DE87F002801F03F80DFF8940D04
:10552000C08B01F041B8FFF73AFB38BF020CDFF83F
:105530007C0D012A98BF0122428601F0CEB8607A24
:10554000DFF8681D81F8460001F0C7B8607ADFF81F
:105550005C1D81F8480001F0C0B8DFF8500DFFF77E
:105560005AFC01F2BA80DFE811F00400520534055C
:105570004805FFF7AEFC38BF0B0C052B98BF052381
:10558000A0F8B63001F0A9B8DFF8200DFFF743FC12
:1055900001F2A380DFE811F00400830527057905F7
:1055A000FFF713FA38BF0B0C012B98BF0123A0F8AB
:1055B000C03001F092B8DFF8F40CFFF72CFC01F2D8
:1055C0008C80DFE811F00400870551057605FFF7B0
:1055D000C5FCA0F8BA1004D1FFF7E2FBA0F8BA109E
:1055E00089B2642900F269876421A0F8BA1001F039
:1055F00074B8607ADFF8B41C81F8420001F06DB82D
:10560000FFF7CDFA38BF020CDFF8A00C012A98BFD3
:105610000122A0F89C2001F060B8FFF736FC38BFEB
:10562000020CDFF8880C052A98BF0522A0F89A2002
:1056300001F053B8DFF8740CFFF7EDFB01F24D8079
:10564000DFE811F00400770559056305FFF7BDF9A0
:1056500038BF0B0C012B98BF0123A0F8C83001F014
:105660003CB82089DFF8441C002240F2E73300BA3E
:1056700081F85320020C9A4238BF030C002A08BF5D
:105680000123CB84A1F88A3001F027B8DFF81C0C85
:10569000FFF7C1FB01F22180DFE811F004007A0579
:1056A00041057005FFF791F938BF0B0C012B98BF2E
:1056B0000123A0F8B83001F010B8208900BA000C1E
:1056C000022800F07D84012800F07384002841F056
:1056D0000480DFF8D80B012180F8401080F84C10CE
:1056E00000F0FBBFDFF8C40B90F84110002900F078
:1056F0009483012940F0A483FFF753FCA0F8AA107B
:1057000001EB8101A03991FBF2F1A0F8921089B26E
:1057100098E3607ADFF8941B81F8880000F0DDBF21
:10572000DFF8880BFFF777FB00F2D787DFE811F08F
:10573000040055050B053A05FFF710FCA0F8CA1048
:1057400004D1FFF72DFBA0F8CA1089B2642900F23A
:10575000D4866421A0F8CA1000F0BFBFDFF84C0B5C
:10576000FFF759FB00F2B987DFE811F006004805A2
:10577000FE042D0500000440FFF727F938BF0B0C8D
:10578000012B98BF0123A0F8D03000F0A6BFFFF78F
:1057900006FA38BF020CDFF8140B012A98BF012269
:1057A000A0F8962000F099BFDFF8000BFFF733FB5D
:1057B00000F29387DFE811F0040040052C05360560
:1057C000FFF787FB38BF0B0C052B98BF0523A0F80C
:1057D000BE3000F082BF607ADFF8D01A81F849004D
:1057E00000F07BBFFFF751FB38BF020CDFF8BC0AAB
:1057F000052A98BF0522A0F8942000F06EBFFFF79D
:1058000044FB38BF020CDFF8A40A052A98BF052222
:10581000A0F8A02000F061BFFFF7C1F938BF020C6B
:10582000DFF8880A012A98BF0122A0F8A22000F020
:1058300054BFDFF8780A0022012180F8232090F875
:105840003B20A0F85610A0F85910032A00F0EF8270
:10585000002A40F04287617A052998BF0521C829AE
:1058600028BFC82100F0CEBD607ADFF8401A81F869
:105870004D0000F032BFDFF8340A0121A0F85410C7
:10588000A0F859100021C183FFF76EFB40F0258777
:10589000218909BA0A0CFFF743FB40F0808502EB2F
:1058A00082010923A03991FBF3F3114600F07EBD7C
:1058B000DFF8F809012190F83B2080F84710032A0F
:1058C00000F0DD82002A40F00887617A052998BF40
:1058D000052100F097BDDFF8D409FFF79CFA00F22C
:1058E000FC86DFE811F00400C704B304BD04FFF731
:1058F000F0FA38BF0B0C052B98BF0523A0F8CE306B
:1059000000F0EBBE607ADFF8A41981F84C0000F0DB
:10591000E4BE208900BA010CDFF8900990F841201C
:10592000C185002A00F0B182012A40F0D686D42930
:1059300028BFD421212998BF212101EB810109220F
:10594000A03989B2B1FBF2F100F060BDFFF79DFA1A
:1059500038BF020CDFF85409052A98BF0522A0F8C9
:10596000A62000F0BABE607ADFF8401981F84A003C
:1059700000F0B3BE617ADFF83409002980F84F10D7
:1059800000F08C82012940F0A886012180F84E1099
:10599000B0F8B810A0F88E1000F09FBEDFF80C0928
:1059A000FFF7E2FA40F09986FFF727FA00F030851A
:1059B000002A40F02E85FFF746FB1CBF012180F82E
:1059C000381000F026BDDFF8E408FFF7CDFA40F00C
:1059D0008486FFF712FA00F02185002A40F01F8527
:1059E000FFF731FB1CBF012180F8381000F017BD14
:1059F000DFF8B80890F84110002900F0548201291E
:105A000040F06F82FFF7CDFAA0F8AC1001EB8101F6
:105A1000A03991FBF2F1A0F8981089B263E2DFF8A7
:105A20008C0890F84110002900F04782012940F0CD
:105A30007582FFF7B6FAA0F8B01001EB8101A0392A
:105A400091FBF2F1A0F8A41089B269E2607ADFF864
:105A50005C1881F8430000F040BEDFF8500890F871
:105A60004110002900F03382012940F07482FFF7D1
:105A700098FAA0F8AE1001EB8101A03991FBF2F188
:105A8000A0F89E1089B268E2607ADFF8201881F8E9
:105A90004B0000F022BEDFF81408FFF7BCF900F25B
:105AA0001C86DFE811F004001A04F1030904FFF773
:105AB00055FAA0F8B21004D1FFF772F9A0F8B210AD
:105AC00089B2642900F239856421A0F8B21000F08F
:105AD00004BEDFF8D867FFF714F840F0FE85607A5F
:105AE000002840F07A87DFF8C85795F82100002891
:105AF00000F07885DFF8BC07408C00F07BBDDFF854
:105B0000AC07FFF731FA40F0E885FFF776F900F0CF
:105B10008C84002A40F08A84FFF795FA1CBF01218B
:105B200080F8381000F082BCFFF739F838BF020C5B
:105B3000DFF87807012A98BF0122A0F8A82000F01A
:105B4000CCBDDFF86867FEF7DCFF40F0C685607A01
:105B5000002840F06487DFF8585795F823000028A4
:105B600000F06685DFF84C07C08C00F069BDDFF8F7
:105B70003C07FFF750F900F2B085DFE811F00400B0
:105B8000F503BF03DA03FFF7A4F938BF0B0C052BAD
:105B900098BF0523A0F8C63000F09FBDDFF80C07C2
:105BA000FFF739F900F29985DFE811F00400E80306
:105BB000B203CD03FFF7D2F9A0F8C21004D1FFF76A
:105BC000EFF8A0F8C21089B2642900F2D6846421EB
:105BD000A0F8C21000F081BD607A012800F0D881E1
:105BE000002840F07A85DFF8C40690F83B100329BE
:105BF00000F04584002940F07085FFF7DCFA0529A4
:105C000000F262850521FDE3DFF8A426607ADFF863
:105C10009C1692F8263081F84400834200F05D859E
:105C2000002382F8260015E0607ADFF84C1E81F828
:105C3000410000F052BDDFF8442E607ADFF8381ED4
:105C400092F8273081F84500834200F04685002312
:105C500082F8270081F83B3081F8533000F03DBDD9
:105C6000617ADFF8140E002918BF012180F8511065
:105C700000F0338501263C211E230A25E94F4FF40D
:105C8000BE724FF0000E4FF0640C4FF4E17880F8D4
:105C90004660E54E80F822104FF43371438632237C
:105CA000C584A0F88A504FF480358283A0F89820EC
:105CB000A0F83621A0F81021A0F8EA20962280F85A
:105CC00041E080F836E080F824C080F84CE0A0F88D
:105CD000A480A0F80881A0F8CAC080F889E00184F7
:105CE0004FF00131C385D14B8564D14DC0F8A6700A
:105CF000D04FA0F8DA20A0F8B220C0F8AA604FF484
:105D0000AF76C0F84210CC49A0F89260CB4EC0F8F4
:105D1000BE30C0F8E630CA4BC0F89450C94DC0F848
:105D2000B670C0F8EE70C0F8C610C749C0F89A60E7
:105D3000C64EC0F80431C0F82A314FF4FA73C0F8E7
:105D4000AE504FF4C875C0F8CE10C0F8F610C0F8C9
:105D50001C11BF49A0F82E314FF48C73FEF7D7FF0A
:105D6000C0F8A060BB4EA0F8C230C0F83211BA49EA
:105D7000C0F8DE60B94EC0F842114FF48271C0F82D
:105D80000C61B74EFFF7C1F8C0F81461C0F83A6172
:105D900000F0A3BCDFF8E00CFFF7E6F840F09D84CC
:105DA000FFF7D2F800F04883002940F09684FFF70F
:105DB000B7F800F0B785002940F08F84818B4A1F27
:105DC0006A2938BF6422FFF7F6F846E3DFF8A86CCB
:105DD000FEF797FE40F08184607A002840F041860B
:105DE000DFF8985C95F82500002800F04784DFF87C
:105DF000900C408D00F04ABCDFF87C0C90F83B1012
:105E0000032900F03683002940F06784FFF7D3F9B7
:105E1000C32980F0CC800531F4E2B0F8AA20FEF767
:105E2000CEFFA0F892102032A0F8AA200AE0627AF1
:105E3000012A88BF1146C82928BFC82100F04BBCE1
:105E4000B0F89210652901D2642104E0B1F5FA7F1F
:105E500003D34FF4FA71A0F89210B0F8AA10D42925
:105E600004D8D421A0F8AA1000F037BCB1F5697F9E
:105E700024BF4FF46971A0F8AA1000F02EBC627A1A
:105E8000012A88BF114600F026BC002900F0BD821F
:105E9000642924BF6421C18500F01FBC002180F863
:105EA0004E1000F01ABCB0F8AC20FEF788FFA0F846
:105EB00098102032A0F8AC2015E0B0F8B020FEF722
:105EC0007EFFA0F8A4102032A0F8B02028E0B0F89F
:105ED000AE20FEF774FFA0F89E102032A0F8AE208E
:105EE0003BE0B0F89810652901D2642104E0B1F5D7
:105EF000FA7F03D34FF4FA71A0F89810B0F8AC1001
:105F0000D42903D8D421A0F8AC10E6E3B1F5697F19
:105F100024BF4FF46971A0F8AC10DEE3B0F8A41010
:105F2000652901D2642104E0B1F5FA7F03D34FF46F
:105F3000FA71A0F8A410B0F8B010D42903D8D42175
:105F4000A0F8B010C9E3B1F5697F24BF4FF46971BF
:105F5000A0F8B010C1E3B0F89E10652901D2642109
:105F600004E0B1F5FA7F03D34FF4FA71A0F89E1064
:105F7000B0F8AE10D42903D8D421A0F8AE10ACE309
:105F8000B1F5697F24BF4FF46971A0F8AE10A4E3A6
:105F9000DFF8E40A90F83B10032900F0778200292B
:105FA00040F09B83FFF707F9C829C0F08F83C82111
:105FB00028E2DFF8C40A002180F84C10012105E036
:105FC000DFF8B40A002180F84C10022180F840105C
:105FD00083E3FEF77EFF38BF0B0C052B98BF05232C
:105FE000A0F8043179E3FEF7F0FC38BF0B0C012B6D
:105FF00098BF0123A0F80E316FE3FEF76AFF38BFA8
:106000000B0C052B98BF0523A0F82A3165E3FEF79A
:1060100060FF38BF0B0C052B98BF0523A0F8DE30BE
:106020005BE300BF3C000A009602CC0214000300B0
:1060300014000A0028000A00140004001E000F00CB
:106040001E000400F0024A0314000500280014009A
:106050001E00060028000300280005002800080094
:1060600028000400002A0020FEF778FFA0F808119D
:1060700004D1FEF795FEA0F8081189B2642900F258
:106080000C826421A0F8081127E3FEF79EFC38BFBC
:106090000B0C012B98BF0123A0F834311DE3FEF750
:1060A00094FC38BF0B0C012B98BF0123A0F8E830FB
:1060B00013E3FEF753FFA0F82E1104D1FEF770FE94
:1060C000A0F82E1189B2642900F2EF816421A0F8B2
:1060D0002E1102E3FEF742FFA0F8E21004D1FEF712
:1060E0005FFEA0F8E21089B2642900F2EE8164211B
:1060F000A0F8E210F1E2FEF768FC38BF0B0C012BB0
:1061000098BF0123A0F81631E7E2FEF75EFC38BF26
:106110000B0C012B98BF0123A0F83C31DDE2FEF708
:1061200054FC38BF0B0C012B98BF0123A0F806319B
:10613000D3E2FEF74AFC38BF0B0C012B98BF0123BA
:10614000A0F8F030C9E2FEF709FFA0F8181104D159
:10615000FEF726FEA0F8181189B2642900F2BD816D
:106160006421A0F81811B8E2FEF72FFC38BF0B0C21
:10617000012B98BF0123A0F81E31AEE2FEF725FCEB
:1061800038BF0B0C012B98BF0123A0F82C31A4E2DF
:10619000FEF71BFC38BF0B0C012B98BF0123A0F8A6
:1061A000E0309AE2FEF7DAFEA0F83E1104D1FEF7E5
:1061B000F7FDA0F83E1189B2642900F296816421AE
:1061C000A0F83E1189E2FEF700FC38BF0B0C012B52
:1061D00098BF0123A0F844317FE2FEF7BFFEA0F88C
:1061E000F21004D1FEF7DCFDA0F8F21089B26429A8
:1061F00000F28B816421A0F8F2106EE2FEF7E5FB5D
:1062000038BF0B0C012B98BF0123A0F8F83064E2D3
:10621000FEF75FFE38BF0B0C052B98BF0523A0F8D7
:106220000C315AE2FEF755FE38BF0B0C052B98BF18
:106230000523A0F8323150E2FEF74BFE38BF0B0CBD
:10624000052B98BF0523A0F8E63046E2FEF741FE95
:1062500038BF0B0C052B98BF0523A0F81C313CE27E
:10626000FEF737FE38BF0B0C052B98BF0523A0F8AF
:10627000423132E2FEF72DFE38BF0B0C052B98BFE2
:106280000523A0F8F63028E2FEF768FEA0F800111A
:1062900004D1FEF785FDA0F8001189B2642900F24F
:1062A0003C816421A0F8001117E200BF002A002001
:1062B000A0000020A0010020FEF750FEA0F826114B
:1062C00004D1FEF76DFDA0F8261189B2642900F211
:1062D0002C816421A0F82611FFE1FEF73FFEA0F813
:1062E000DA1004D1FEF75CFDA0F8DA1089B2642957
:1062F00000F22B816421A0F8DA10EEE1FEF7E9FD4F
:1063000038BF0B0C052B98BF0523A0F81431E4E12E
:10631000FEF724FEA0F8101104D1FEF741FDA0F80D
:10632000101189B2642900F218816421A0F81011BB
:10633000D3E1FEF7CEFD38BF0B0C052B98BF05232C
:10634000A0F83A31C9E1FEF709FEA0F8361104D1F0
:10635000FEF726FDA0F8361189B2642900F2058106
:106360006421A0F83611B8E1FEF7B3FD38BF0B0C7D
:10637000052B98BF0523A0F8EE30AEE1FEF7EEFD49
:10638000A0F8EA1004D1FEF70BFDA0F8EA1089B2DC
:10639000642900F2FA806421A0F8EA109DE102EB82
:1063A000C2010523B1FBF3F1134620319AB20184F7
:1063B0008383652A01D2642204E0B2F5FA7F02D316
:1063C0004FF4FA72828389B2D42901D8D42148E0EB
:1063D000B1F5697F24BF4FF4697101847DE1FEF757
:1063E0009FFD00F09482002940F07781818B4FF46B
:1063F000FA72B1F5FA7F38BF4A1C2BE00185DFF84D
:10640000380C012180F8221067E10021C18564E188
:106410000185DFF8240C012181775EE10185DFF839
:10642000180C012180F8201057E10185DFF8080CD5
:10643000012180F8241050E1FEF772FD00F0828205
:10644000002940F04A81818B4A1DB1F5F77F88BF52
:106450004FF4FA7202EBC20182830522B1FBF2F122
:106460002031018439E1FEF716FD0A290CD90539DE
:1064700031E1FEF710FDC3290DD205312BE1FEF706
:106480000AFD052900F22481052124E1FEF703FD20
:10649000C829C0F01F81C8211DE1B1F5FA7F24BFD2
:1064A0004FF4FA71A0F8081117E1B1F5FA7F24BF93
:1064B0004FF4FA71A0F82E110FE1B1F5FA7F24BF65
:1064C0004FF4FA71A0F8BA1007E1B1F5FA7F24BFD2
:1064D0004FF4FA71A0F8E210FFE0B1F5FA7F24BFA3
:1064E0004FF4FA71A0F81811F7E0B1F5FA7F24BF64
:1064F0004FF4FA71A0F83E11EFE0B1F5FA7F24BF36
:106500004FF4FA71A0F8CA10E7E0B1F5FA7F24BFA2
:106510004FF4FA71A0F8F210DFE0B1F5FA7F24BF72
:106520004FF4FA71A0F80011D7E0B1F5FA7F24BF5B
:106530004FF4FA71A0F82611CFE0B1F5FA7F24BF2D
:106540004FF4FA71A0F8B210C7E0B1F5FA7F24BF9A
:106550004FF4FA71A0F8DA10BFE0B1F5FA7F24BF6A
:106560004FF4FA71A0F81011B7E0B1F5FA7F24BF2B
:106570004FF4FA71A0F83611AFE0B1F5FA7F24BFFD
:106580004FF4FA71A0F8C210A7E0B1F5FA7F24BF6A
:106590004FF4FA71A0F8EA109FE0DFF8281F0020FE
:1065A000A877C88B0130C88380B20A28C0F09580D4
:1065B000FEF7EEFBE877DFF80C0FA6F89430C18306
:1065C000FEF781FCA6F8961000F0CE81002840F07E
:1065D000DB81FEF723FDA6F89230FEF724FDA6F836
:1065E000AA00CAE1DFF8DC1E002085F82000488CF4
:1065F0000130488480B20A286FD3FEF7C9FB85F8C2
:106600002100DFF8C00EA6F89A304184FEF75BFC4B
:10661000A6F89C1000F0C981002840F0D681FEF752
:10662000FDFCA6F89830FEF7FEFCA6F8AC00C5E12C
:10663000DFF8901E002085F82200C88C0130C88445
:1066400080B20A2849D3FEF7A3FB85F82300DFF8C0
:10665000740EA6F8A030C184FEF735FCA6F8A2108F
:1066600000F0C581002840F0D281FEF7D7FCA6F8E3
:106670009E30FEF7D8FCA6F8AE00C1E1DFF8441E5C
:10668000002085F82400488D0130488580B20A2812
:1066900023D3FEF77DFB85F82500DFF8280EA6F84A
:1066A000A6304185FEF70FFCA6F8A81000F0C181C6
:1066B000002840F0CE81FEF7B1FCA6F8A430FEF72A
:1066C000B2FCA6F8B000BDE101399BE6013199E6C4
:1066D000013900E0013180F82410002084F88100A5
:1066E000DFF8A04DA07F012845D1E07F20B1DFF881
:1066F000D40D002181833EE0DFF8C81D888B013076
:10670000888380B2C92836D3DFF8740D00234FF098
:1067100001128B83A37790F83B1042650122A0F809
:10672000592041BB90F8411080F8892080F823302F
:10673000C38349B101290ED1B0F8AA10FEF7DFFAE0
:10674000A0F89210818306E0B0F89210FEF72FFBBC
:10675000A0F8AA10018490F894100222012380F876
:106760002210B0F89610A0F88A10C184C54845F2EE
:106770005401FEF76AFB94F8200001283BD194F8FD
:10678000210018B1BE480021018434E0BC49088CC6
:106790000130088480B2C9282DD3B748FEF76DFBBD
:1067A0000A8490F83B1084F8202021BB0221FEF7D8
:1067B0001BFB09D001290ED1B0F8AC10FEF79FFAEF
:1067C000A0F89810818306E0B0F89810FEF7EFFA71
:1067D000A0F8AC10018490F89A100222022380F8ED
:1067E0002210B0F89C10A0F88A10C184A54845F288
:1067F0005401FEF72AFB94F8220001283BD194F8BB
:10680000230018B19E480021818434E09C49888C83
:106810000130888480B2C9282DD39748FEF72DFB1C
:106820008A8490F83B1084F8222021BB0321FEF7D4
:10683000DBFA09D001290ED1B0F8AE10FEF75FFAED
:10684000A0F89E10818306E0B0F89E10FEF7AFFA24
:10685000A0F8AE10018490F8A0100222032380F863
:106860002210B0F8A210A0F88A10C184854845F221
:106870005401FEF7EAFA94F82400012817D194F89D
:10688000250020B17E4800210185BDE8F0817C49CA
:10689000088D0130088580B2C92808D37648FEF7F4
:1068A000ECFA0A8590F83B1084F8242009B1BDE881
:1068B000F0810421FEF798FA09D001290ED1B0F831
:1068C000B010FEF71CFAA0F8A410818306E0B0F81F
:1068D000A410FEF76CFAA0F8B010018490F8A6108E
:1068E0000222042380F82210B0F8A810A0F88A1021
:1068F000C184644845F25401D0F804C1BDE8F041B8
:106900006047018CD422D42988BF4A1E10E0018C34
:106910004FF46972B1F5697F38BF4A1C028402EBFB
:1069200082010AE0018CA1F12602FB2938BFD422A2
:1069300091B20284890011FA82F1A039092291FBF7
:10694000F2F10FE0018C40F27D3301F12602994211
:1069500088BF4FF4697202EB82010284A0390922D8
:10696000B1FBF2F18183B8E6FEF73AFBA6F8AA3054
:10697000A03890FBF1F0A6F89200424845F21501CC
:10698000FEF7F6FAB6F894303E4845F21601FEF7E7
:10699000F3FA0120E875607A01287FF49EAE37484B
:1069A0000021C1773648C18397E6FEF719FBA6F8A8
:1069B000AC30A03890FBF1F0A6F89800314845F2D1
:1069C0001801FEF7D5FAB6F89A302E4845F21901AB
:1069D000FEF7D2FA0120E875607A01287FF47DAED7
:1069E0002648002180F821102548418475E6FEF7ED
:1069F000F7FAA6F8AE30A03890FBF1F0A6F89E00AA
:106A0000204845F21B01FEF7B3FAB6F8A0301D4846
:106A100045F21C01FEF7B0FA0120E875607A012802
:106A20007FF45BAE1548002180F823101448C18420
:106A300053E6FEF7D5FAA6F8B030A03890FBF1F097
:106A4000A6F8A4000F4845F21E01FEF791FAB6F829
:106A5000A6300C4845F21F01FEF78EFA0120E875BA
:106A6000607A01287FF439AE0448002180F82510AF
:106A70000348418531E600BF002A0020A000002025
:106A8000A0010020802B00207047000070B5DFF8C7
:106A90009C45208B0138208300040AD14FF47A7082
:106AA000DFF890252083DFF88805416C51610021D3
:106AB0004164DFF88465DFF87C55707890BB2878F6
:106AC00001282FD10A2004F007FB800868601020FD
:106AD00004F002FBA6F84A00B6F84A00FDF7C3FE30
:106AE000C94ACA4BFDF707FCC94B0022FDF703FC5E
:106AF000C84AC94BFDF758FBC84AC94BFDF76DFCA6
:106B0000C84B0022FDF750FBFDF7E7FEA5F890000B
:106B1000013880B2312805D8686880087C289CBF7D
:106B20000120707095F83B00022815D1E08B0138E8
:106B3000E083000415D14FF47A70E083A88E013809
:106B4000A88600B2B0F1FF3F0BDC022086F84800B7
:106B5000002085F83B0004E04FF47A70E083688EF3
:106B6000A88695F84F0080B1012840F0C88131799E
:106B700095F8880099B1032800F25681DFE800F00B
:106B80000278375795F84E0019E04FF47A70608319
:106B900000203071A5F88E0085F84E00AFE101218C
:106BA0000328317100F24081DFE800F002652444DF
:106BB000FEF79BF903D20FF2B442FEF790F90328D7
:106BC00000F0DC80022800F0A180012840F0FD8068
:106BD000FEF701F940F02881FEF7F9F800F07A811C
:106BE000002840F02181A868B5F8B21006E195F8B8
:106BF0004E0006E0FEF779F903D20FF25042FEF79D
:106C00006EF9032864D0022853D0012840F08D800B
:106C1000FEF7E1F840F00881FEF7D9F800F03E8178
:106C2000002840F00181A868B5F80011E6E095F869
:106C30004E0006E0FEF759F903D20FF20042FEF7CC
:106C40004EF9032800F08D80022850D0012840F032
:106C5000A280FEF7C0F840F0E780FEF7B8F800F039
:106C60002D81002840F0E080A868B5F82611C5E025
:106C700095F84E0006E0FEF738F903D20FF2DC3249
:106C8000FEF72DF9032800F0948002285CD001283B
:106C900040F0A880FEF79FF840F0C680FEF797F816
:106CA00000F01C81002840F0BF80A868B5F8DA1019
:106CB000A4E0FEF790F840F0B780FEF788F800F007
:106CC000E180002840F0B080A868B5F8081195E090
:106CD000FEF781F840F0A880FEF779F800F0D68042
:106CE000002840F0A180A868B5F8101186E0FEF7F2
:106CF00072F840F09980FEF76AF800F0CB80002827
:106D000040F09280A868B5F82E1177E0FEF763F89E
:106D100040F08A80FEF75BF800F0C480002840F065
:106D20008380A868B5F8BA1068E004287CD1FEF723
:106D300052F879D1FEF74BF800F09480002873D117
:106D4000A868B5F8181159E0FEF745F86CD1FEF7C0
:106D50003EF800F0AB80002866D1A868B5F8E210D4
:106D60004CE0FEF738F85FD1FEF731F800F0A28072
:106D7000002859D1A868B5F836113FE0FEF72BF886
:106D800052D1FEF724F800F09D8000284CD1A8686D
:106D9000B5F8C21032E0042846D1FEF71CF843D102
:106DA000FEF715F862D000283ED1A868B5F83E116C
:106DB00024E0FEF710F837D1FEF709F800F08680DE
:106DC00090BBA868B5F8EA1018E004282CD1FEF7AB
:106DD00002F829D1FDF7FBFF4CD028BBA868B5F815
:106DE000CA100BE004281FD1FDF7F5FF1CD1FDF7F9
:106DF000EEFF43D0C0B9A868B5F8F2104A1F904220
:106E00007AD9053172E000BF52B81E85EB510A40B5
:106E10000000303F295C8FC2F528F4BF33E197FAB8
:106E20007953713F00002E40608B000467D14FF40E
:106E30007A706083B5F88E000138A5F88E0000B234
:106E4000B0F1FF3F5BDC95F84E100020307101314E
:106E500085F84E10C9B2052924BFA5F84E00A5F843
:106E60008E004CE0A868B5F81A113AE0A868B5F8A9
:106E7000401136E0A868B5F8CC1032E0A868B5F843
:106E8000F4102EE0A868B5F80A112AE0A868B5F851
:106E9000121126E0A868B5F8301122E0A868B5F80C
:106EA00002111EE0A868B5F8BC101AE0A868B5F891
:106EB000E41016E0A868B5F8381112E0A868B5F833
:106EC00028110EE0A868B5F8C4100AE0A868B5F863
:106ED000EC1006E0A868B5F8B41002E0A868B5F8B0
:106EE000DC10A1F10A02904206D90A31884203D28D
:106EF000608B0138608398E74FF47A70608395F86F
:106F0000530028B395F83900012805D1022086F8EE
:106F10004800002085F85300A08B0138A0830004AE
:106F20001DD1B5F88C000138A5F88C0000B2B0F185
:106F3000FF3F09DC002085F85300022086F8480056
:106F4000B5F88A00A5F88C004FF47A70A08306E0AB
:106F50004FF47A70A083B5F88A00A5F88C00474CEE
:106F60002068804794F82500012809D194F824006E
:106F700018B1013884F8240002E0022084F82500CA
:106F800094F8340010B1013884F8340094F84900C2
:106F9000012809D194F8480018B1013884F8480054
:106FA00002E0022084F8490094F8580010B101383A
:106FB00084F858003248417B012906D1017B11B188
:106FC0000139017301E002214173017F09B10139E7
:106FD000017790F83110012909D190F8301019B1DA
:106FE000013980F8301002E0022180F8311090F869
:106FF000401011B1013980F8401090F85510012966
:1070000009D190F8541019B1013980F8541002E0F8
:10701000022180F8551090F8641011B1013980F800
:1070200064100348816C0131816470BD0000002050
:10703000A0010020002A0020A00000202C2B00200E
:10704000342B00203C2B0020442B0020062B00205A
:107050000E2B0020162B00201E2B0020E02A0020E3
:10706000E82A0020F02A0020F82A0020B82A002070
:10707000C02A0020C82A0020D02A002010020020A8
:10708000700200201848C16941F08051C161174960
:107090000A7842F004020A70C16921F08051C1618E
:1070A000016841F00101016001688907FCD5416870
:1070B00021F003014160416811F00C0FFBD1016820
:1070C0000B4A114001600021416041F61071C1621C
:1070D0004FF4801101634FF41F01816005484FF0A8
:1070E00000610160704700BF001002405070004016
:1070F000FFFFF2FE08ED00E02DE9F84FC74F3868BA
:10710000C00700F03381DFF848693078012840F08B
:107110001881DFF8B096C24D99F80300AA460128FD
:1071200008D1DFF86403BF4D846829462046FDF787
:107130006DFB18B9DFF850032C468560B9F84E5046
:1071400042F6E060854209D3D6E95E010025A9F840
:107150004E50013041F10001C6E95E0196F8400051
:10716000022810D0012811D196F84C00002853D0E5
:10717000012840F06F8096F83B00022860D000287C
:1071800068D1B08B5FE0B18BA9F85010022840F0B5
:10719000D58096F85000002840F0D08096F84F0037
:1071A000002840D0012840F0C98096F84E0099F898
:1071B0000210814218BF89F8020096F85200002898
:1071C00000F0BC80DFF8C082B348B44A4FF0804181
:1071D000C8E90021C8F8080005F0FCFF96F88810FF
:1071E0007060032900F2E88096F93720104496F980
:1071F0003620851ADFE801F002D2BCC7FDF7E1FEB8
:1072000000F2DA80DFE810F005001F01100119011B
:10721000D500B6F8B24018E196F83B00022814D029
:10722000C0B9B08B14E005F0D5FF974900220A627F
:10723000CA614A610A6170609448F26588607CE0C6
:10724000F08DB18B0844323002E0B08BF18D0844F0
:10725000A9F8500096F8390068B196F84A1051B173
:10726000012808BF01295FD105F0B4FF8649FDF769
:1072700025FFCA6058E096F85200002854D0BB465B
:1072800005F0A8FF96F937107060B78B084496F99F
:107290003610A0EB010AB9F85000B9F84C100FFAFB
:1072A00080F8B94208D000F04FFB86F837007648E6
:1072B0000021C161A9F84C700FFA8AFA08F1640044
:1072C000504506DA681C5F46A9F84E000020F065BC
:1072D0002AE0A8F164005F46504505DD6D48F06581
:1072E000681CA9F84E001FE008F10500504504DBBA
:1072F000A8F10500504540F361800020A9F8520034
:1073000089F803004046FDF78FFA04465046FDF722
:107310008BFA01462046FDF78DFFFDF77AFF00212D
:10732000FDF774FA0028D1D096F83B00032805D168
:1073300005F050FF5449FDF7C1FECA6096F83A00C7
:1073400028B9F46D00212046FDF760FA08B9002441
:10735000F4652046FDF7ADFA78624FF08040016891
:1073600041F0010101606FF001003860BDE8F88F65
:10737000FDF727FE20D8DFE800F003454B3F1C0057
:10738000B6F8004161E0FDF71CFE15D8DFE800F01B
:10739000034352371100B6F8264156E0FDF711FEBF
:1073A0000AD8DFE800F003444D320600B6F8DA40B0
:1073B0004BE00020A6F84E00F06D58E0B9F85200FE
:1073C0000130A9F8520080B23C28FFF49BAF0120A5
:1073D0002F4989F803000020A9F852002046FDF744
:1073E00023F92A4D04462946FDF710FA00282648BD
:1073F00014BF8460856085E7B6F8184125E0B6F8CB
:107400003E4122E0B6F808411FE0B6F8F2401CE029
:10741000B6F8104119E0B6F82E4116E01000004011
:1074200000204B4700401C46B6F8C2400DE0B6F8BD
:10743000E2400AE0B6F8364107E0B6F8CA4004E098
:10744000B6F8EA4001E0B6F8BA40204600F07CFA0F
:1074500086F837002046FDF7F0F9044628B2FDF71C
:10746000E3F901462046FDF7E5FEFDF7D2FE0021D7
:107470000024FDF7CBF900B9F465C8F808A05DE772
:10748000002A0020A00000200423002000401C4609
:107490000000FAC4007F3B470080BB450000B443B6
:1074A00007484168890709D50168890706D5C64993
:1074B0004A6C01324A646FF002014160704700BFBC
:1074C0000C040040A0010020BCB5154C2068E06809
:1074D00080060DD5206880060AD52068606861683E
:1074E0006B4D05F12400FDF7F4FD4FF48270288602
:1074F000E068400610D5206840060DD5644D6FF059
:1075000040000DF10701206005F1340005F029FE6F
:1075100018B1002085F84100BCBDFDF70DBD00BFCE
:10752000004C0040BCB5154C2068E06880060ED5C4
:10753000206880060BD5206860686168544D05F1AD
:107540004800FDF7C6FD4FF48270A5F85400E068CE
:10755000400610D5206840060DD54D4D6FF0400017
:107560000DF10701206005F1580005F0FAFD18B192
:10757000002085F86500BCBDFDF7DEBC0050004072
:10758000BCB5144C2068E06880060BD520688006E6
:1075900008D56168264D05F11800FDF79AFD4FF4F6
:1075A0008270A884E068400610D5206840060DD59A
:1075B0001F4D6FF040000DF10701206005F128001C
:1075C00005F0CFFD18B1002085F83500BCBDFDF7F2
:1075D000B3BC00BF00380140BCB5144C2068E06863
:1075E00080060CD52068800609D56168104D05F12C
:1075F0003C00FDF76EFD4FF48270A5F84800E0688E
:10760000400610D5206840060DD5094D6FF04000AA
:107610000DF10701206005F14C0005F0A2FD18B145
:10762000002085F85900BCBDFDF786BC0044004031
:1076300010020020BCB5154D2868E86880060DD5FD
:10764000286880060AD528686868114C6868C1B245
:10765000204605F099FD4FF48270A081E86840064D
:107660000FD5286840060CD5094C6FF040000DF18D
:107670000701286004F1100005F073FD10B100202F
:107680006077BCBD9DF807006860BCBD0048004045
:1076900070020020FEE710B504464AF25A5024F862
:1076A000820F180AA071080A6171E37121462071E6
:1076B0008220E070D01C0822A0700220BDE810409B
:1076C00006F002BB0648BFF34F8F064A016801F47B
:1076D000E06111430160BFF34F8F00BFFDE700BFC2
:1076E0000CED00E00400FA0500EB400107221E3912
:1076F00002FA01F1044A136819431160916A21F0FA
:107700001F010843906270470C24014002484FF467
:1077100080510160704700BF140C014002484FF4D3
:1077200080510160704700BF100C0140B0B5C84CDB
:1077300094F8420001280FD1224D6879DFE800F06B
:10774000032D1A21130095F84800022829D001289A
:1077500014BF0020012025E0FFF7D8FF19480021C1
:1077600080F848101FE0FFF7D1FF0020687185F80E
:10777000480018E0FFF7D2FF1348FDF75CFC14390E
:1077800003E01148FDF757FC023972F100010AD3FA
:107790000021C0E91611042004E0FFF7BFFF032019
:1077A00000E00220687194F83A0050B10548017871
:1077B00001310170C9B2502903D3FDF78DFC0021BE
:1077C0000170B0BDA0000020A0010020F0B1E9B11F
:1077D000F0B5930801300D461C462CB150F8046BEF
:1077E000013C36BA40C5F8E712F003020CD0002481
:1077F00018250026A24205D0075D0134AF40083DA0
:107800003E43F7E741F82360BDE8F04070470000D1
:10781000034A19B108C801391360FAE710687047C4
:1078200000300240F0B532490A68C2F38103314AA0
:10783000022B08D0ABBB0B6D9B0532D5CB6A9B01ED
:1078400048BF2E4A2DE00B688C6A1B0C002C13D409
:107850000C680D68C5F34175C4F383440DB90F2C52
:1078600043D12D0101352C44DB0702D00B689B036B
:1078700000D5214A624314E08C6A8D6A8E6ADB0768
:107880001D4BC4F30314C5F3082506F0070603D007
:107890000F68BF0358BF134604FA06F26B43B3FBED
:1078A000F2F2026016A40B68C3F30313E35C184CF6
:1078B000DA4042600B68C3F30223E35C22FA03F36D
:1078C000C3600B68C3F3C223E35C0424DA40826024
:1078D0000B68096804EA9363C1F3813119440DA36D
:1078E000595CB2FBF1F10161F0BD0225BBE700BFBD
:1078F0000410024000127A0000093D00006CDC0216
:10790000000000000000000001020304060708094F
:10791000A0DE000802040608020C08107CB504462C
:1079200000204FF6FF75C6B26C2E09D8301903F04F
:10793000BFFBADF80600B01CBDF80610A942F2D19D
:10794000BDF806007CBD000082B0002165288DF8DE
:107950000710ADF804108DF8031073D33C4991F86B
:1079600022101F291BD3002182084A2A8DF80310F8
:1079700035D86422ADF804208DF8071036499DF8FB
:107980000720132A5BD84DF808EDFDF7B0FB5DF832
:1079900008EB54D27346FDF73BF99E46EFE74A1ECB
:1079A0000021132A4ED88DF8031081084A292ED8B9
:1079B0006421ADF8041000218DF8071025499DF8C9
:1079C0000720132A41D84DF808EDFDF790FB5DF82C
:1079D00008EB34D27346FDF71BF99E46EFE74FF4F0
:1079E0009671ADF8041014218DF807101A499DF80E
:1079F0000720272A23D84DF808EDFDF778FB5DF81E
:107A000008EB1CD27346FDF703F99E46EFE74FF4EF
:107A10009671ADF8041014218DF807100D499DF8EA
:107A20000720272A0BD84DF808EDFDF760FB5DF81D
:107A300008EB04D27346FDF7EBF89E46EFE79DF89E
:107A40000700095C48B202B070470021FAE700BFA6
:107A5000002A0020D1DE0008A8DE00082DE9F84F3A
:107A6000DFF8B4BA9BF80000012818BFBDE8F88F12
:107A7000DFF8A88A98F81D00092801F20B83DFE8D7
:107A800010F00A007201D700FC0033009901D00108
:107A90005101ED01900098F82800DFE810F009008E
:107AA000FC03D503DF039B0306041004F203210447
:107AB0009BF84D0098F82910814240F0AD859BF865
:107AC000540098F82B10814240F09D87002801F067
:107AD0008581BBF81E20BBF81C108A4201F07E8114
:107AE000ABF81E1000F047BE98F83800DFE810F041
:107AF0001000380518052805F2044C055E05300510
:107B00006D0502056605E304FA045405DC0420054E
:107B1000DFF8200D9BF840109BF8512003798B4231
:107B200040F03E8798F83A30934240F039879BF80E
:107B3000411042798A4241F040819BF8421082799B
:107B40008A4241F0AA819BF84310C2798A4241F0EF
:107B50004B839BF84A10027A8A4241F091839BF84A
:107B60004410427A8A4241F0BA839BF84510827AE7
:107B70008A4241F0B7839BF84610C27A8A4241F0AC
:107B8000B4839BF84810027B8A4241F0B1839BF892
:107B90004C10427B8A421ABF41730F24002401F02B
:107BA000A9BB9BF84D001A2840F0D18598F84300F6
:107BB0000024DFE810F00C00CA059E058905630566
:107BC000AD05CA05B405CA0593056F057B0598F890
:107BD000440098F845109BF84F40431CDFF8540CC4
:107BE0004A1C88F8443088F84520C17CA14240F006
:107BF0004A879BF84E40057DA54241F03081DFF871
:107C0000380CBBF98E40058FA54241F0DF82DBB214
:107C10000A2BC1F01B83DBF80820438E00210024CF
:107C20009A421CBF4286052488F8441000F08DBD9E
:107C300098F83300DFE810F00500AD019901A301C9
:107C40008F019BF84D0098F83410814240F05F831B
:107C50009BF8531098F83500884240F0E984DFF82B
:107C6000D80B0029028E01F08780BBF98C108A4264
:107C700000F0838389B2018650E398F836003028FB
:107C800001F27880DFE810F03100BC079B07A807FD
:107C90006607DF07F607B2070D087D0703085C07D4
:107CA0007A07EC075307A5074607D60700083908E7
:107CB000DC07E90728084A0891078707650839079C
:107CC00051085B081708CC071A0856073C0733070A
:107CD00036072607620832087007D90743081C07D1
:107CE000500721086C08300759079BF84D0098F899
:107CF00037209BF88810824241F0B780DFF8340BC0
:107D000082788A4241F067829BF84110C278002451
:107D10008A4201F05381C1700A2188F8374081708E
:107D200001F04CB99BF84D001A2800F0D3800228CE
:107D300041F03F8098F83D00012800F0558200286E
:107D400041F03780FDF724F9FCF777FDD049044670
:107D5000FCF76AFC9BF84C10012918BF2046FCF781
:107D60008FFD40BAC2E09BF84D001A2800F2D38084
:107D70000121C84A8140114200F0CD809BF83810A3
:107D8000002900F0C180012940F0C5809BF839101E
:107D900011B9012288F82D209BF83B20002A00F021
:107DA000B081022A00F0AD81032A40F0B4809BF834
:107DB0002410AEE098F83B100220DFE811F00F002D
:107DC000640921032C0300034203550337036A03AC
:107DD00016036003E0020B034C03C602DFF8540AEB
:107DE0009BF88920817B914240F0D785042900F2DD
:107DF000B482DFE811F005002C0902091709ED082B
:107E00009BF84110C27B8A4241F01D829BF85100D1
:107E100098F83C10814200F0A08288F83C0001F004
:107E200013BA98F818000124DFE810F00600EE00FD
:107E3000BD00C4000B010A019BF84040012C02D098
:107E4000022C06D11A24DFF8EC09FDF799F88BF81B
:107E50004D40DFF8E009FCF7ECFFB3E098F83E0096
:107E6000DFE810F0080090016D0177015F019901D2
:107E7000A801830198F842009BF83810441CDFF8F1
:107E8000B40988F84240027C8A4240F0A9839BF8FA
:107E90003B10427C8A4240F094859BF83A10827CE9
:107EA0008A4240F08D8798F83F0098F84010814250
:107EB00040F0F687DBF85C00FCF7E2FC40F257216B
:107EC000B0FBF1F098F84110884241F09081002415
:107ED00001F09AB998F83D00012800F0948100283B
:107EE00040F06787FDF754F800BA000CDFF844193A
:107EF0000E22A1F848003C31022005F0E5FE98F87A
:107F00003D00013000F056BF002188F82D109BF88D
:107F10002210CBF8181098F82C10DFE801F004D7E5
:107F2000BDC6ADE2EB0098F82E10814240F0FA8118
:107F30009BF83B00032800F06D85002840F0878700
:107F400098F83200012840F064870020042488F863
:107F5000320000F07DBFFDF76AF800F001820228D0
:107F600040F00B8245F21201FCE1FDF760F800F0F1
:107F7000FC81022840F0018245F21201F7E1FDF791
:107F800056F800F00682022840F00C8246F20311F7
:107F900001E2FDF74CF800F00782022840F0BE81B4
:107FA00046F2031102E2DFF894089BF8513045F2E3
:107FB0003C0105E0DFF8840898F8173045F24901E4
:107FC000FCF799FF012088F818009BF84D000E2857
:107FD00040D19BF83B00022804D09BF84C100129AB
:107FE00041F0538098F81910002941F04E8001218A
:107FF00088F81B00002088F819109BF84C108BF8AB
:108000003B0088F81A1033E09BF85100002800F07C
:10801000EB82DFF824089BF84D10428B142904BF33
:108020000132428392B2012A08D0142902D1B2F55A
:10803000C87FC7D300218BF8511041830220C2E7CB
:108040001A24DFF8F007FCF79BFF01208BF84D4066
:1080500088F8180098F81900012841F016800020CF
:1080600098F81B1088F8190098F81A008BF83B1044
:108070008BF84C0001F009B8DFF8C00745F20401A5
:1080800002220023FCF7A9FF052400F0E1BE00BF97
:10809000000048C206000004012800F0D382022834
:1080A00040F0EA8246F2F301CEE2022800F0D282EA
:1080B000012840F0CC86DFF88407BBF8183045F281
:1080C0000E01FCF77EFC062400F0C2BEDFF86C0750
:1080D00045F20401022201230224FCF7B6FE00F05F
:1080E000B7BE012800F0BF82022840F0C58246F2E8
:1080F000F301BAE2DFF84407BBF8183045F20C018F
:10810000AEE201297FF403AF9BF84A1001297FF406
:10811000FEAE98F82D1001297FF4F9AE9BF82510DA
:10812000F7E69BF83B000024002800F04084032879
:1081300000F03C84022839D1012400F038BCDFF87B
:10814000FC0645F20501022200230024FCF77DFE17
:108150002CE09BF83810DFF8E406D0F80441B1FABF
:1081600081F14B0945F202011DE0DBF85C00E549B5
:10817000FCF7E4FAFCF784FB0346DFF8C00645F29F
:108180000A010EE0DFF8B40645F2050102220123E0
:10819000D0F8044108E0DFF8A4069BF83A304FF429
:1081A000A041D0F804410222A047002488F83E40B4
:1081B00000F06BBFDBF85C00D249FCF7BFFAFCF7BC
:1081C0005FFB0346DFF8740645F20901FCF7F9FB93
:1081D0000724EBE7DFF8640645F2030102220023DF
:1081E000FCF7FBFE05240FE39BF8380020B10128C3
:1081F00040F0DF85DBF81800DFF8381681F857000B
:108200004A3100F0D2BD9BF84F00002800F0A28256
:10821000012840F0CE859BF88800032800F2C9852C
:10822000DFE810F004005F0645065206FCF7F1FE99
:1082300000F2BF85DFE810F0040049083408400868
:108240009BF8B64000F0ABBDFCF7F1FE00F08A826F
:10825000022840F09E8346F2C30185E29BF84D0060
:10826000022800F08A8201285AD1DFF8CC0545F2B5
:1082700007010222838DDFF8C405FCF7AEFE072458
:10828000C2E2FCF7E1FB00F07C82002840F0BB82F8
:108290009D4C9E4D77E2DFF8A40545F203010222D2
:1082A00001230224FCF7D1FDAEE2FCF7C0FE00F092
:1082B0007D82022840F06F8346F2C30178E29BF88A
:1082C0004D00022800F07D82012829D1DFF86C05DD
:1082D000BBF8083045F20701FCF773FB082493E272
:1082E0009BF84100002800F07582012840F08B8245
:1082F000DFF84805D0F80441DBF808008108E829D8
:1083000000F24083FCF7AFFA814A824B70E288F8B2
:1083100034009BF85300012400288DE102248DE1F4
:10832000002473E2411E012900F28F859BF83B1067
:10833000032900F08385002940F087850121ABF8EF
:10834000561008F1310100F07EBDDFF8F0049BF813
:10835000893045F25401FCF734FB002000F093BE55
:1083600045F20801BBF8263003E045F20801BBF8EE
:108370008C30DFF8C804FCF724FB00245EE1FCF736
:1083800063FB00F05683002840F05B83BBF8A43009
:1083900051E346F23301DFF8A40402224FF6FF73E3
:1083A000FCF71BFE042449E146F23301DFF88C049C
:1083B000022244F250730224FCF747FD3EE1DFF84D
:1083C0007C04BBF8963045F21701FCF7FAFA052059
:1083D00000F059BEDFF86404BBF8A63045F21F0177
:1083E000FCF7EFFA0D2000F04EBEDFF85004BBF8AA
:1083F000A03045F21C01FCF7E4FA0A2000F043BE6D
:108400009BF84100002800F01E83012840F02483DF
:108410000BF1AA0019E3DFF82404BBF8943045F20D
:108420001601FCF7CEFA042000F02DBEDFF80C0494
:10843000BBF89C3045F21A01FCF7C3FA082000F0A3
:1084400022BEFCF701FB00F00983002840F00E83F8
:10845000BBF8983004E3DFF8E403BBF8A83045F23A
:108460002001FCF7AEFA99E2DFF8D003BBF89A30AE
:1084700045F21901FCF7A5FA072000F004BEEF4809
:10848000BBF8A23045F21D01FCF79BFA0B2000F06F
:10849000FABD9BF84100002800F0EA82012840F074
:1084A000F0820BF1AE00E5E2E448BBF8323045F271
:1084B000340100F08DBCDF48002401210922A0F81E
:1084C0002F1080F8314000F12901022005F0FCFB5B
:1084D00000F081BCDFF8480E9BF8433045F23001D4
:1084E00000F076BCDFF8380E9BF8483045F23801D2
:1084F00000F06EBCDFF8280E9BF84A3045F24501CB
:1085000000F066BC00C015449999D93F9A99999991
:10851000E17A14AE47E1CA3F002A0020A000002003
:10852000DFF8FC0D9BF8413045F22E0100F050BC05
:10853000DFF8EC0D9BF84C3045F23E0100F048BCF2
:10854000DFF8DC0D9BF8423045F22F0100F040BC13
:10855000DFF8CC0D9BF8463045F2320100F038BC14
:108560009BF840009BF84C10012808BF012900F03F
:108570008D82012808BF002900F02584022840F0E0
:108580002984022300F020BCDFF8940D9BF84430CE
:1085900045F2310100F01CBCFCF756FA00F078827D
:1085A000002840F08382BBF82E3079E2DFF8700DAE
:1085B0009BF8453045F2440100F00ABCDFF8740D29
:1085C000FCF737FC0B2400F006BC9BF841000028A8
:1085D00000F06E82012840F0FD830BF1200069E27B
:1085E0000174032400F010BE98F81700012840F031
:1085F000EC81DFF8441D01204A8B531C002A9AB2FB
:108600004B8308BF0320C82AFFF4DDAC002088F8A4
:10861000170048830320D6E4411E012905D8002114
:1086200088F82B100121ABF8541088F82900EAE0F3
:10863000012488F83510002908BF032488F8334046
:1086400000F023BD46F26301DFF8D40C022243F6AA
:108650007F430FE0DFF8C80CBBF8183045F211017A
:10866000FCF749FCF3E346F26301DFF8B40C0222A5
:108670004FF6FF73FCF7B1FC0324E9E39BF84E00CF
:108680000138C0B2032860D80FF6984151F8200095
:10869000038853E0DFF8880C46F2930102224FF67C
:1086A000FF73FCF79AFC0B2088F843009BF84F00FF
:1086B000002800F09E81012846D1DFF8640CBBF849
:1086C0008E3045F241013DE0DFF8540C9BF84E300E
:1086D00045F24301FCF775F9042436E0DFF8400C5D
:1086E00046F29301022244F25073FCF776FC0B240D
:1086F0002BE0DFF82C0C9BF84F3045F24201FCF7E1
:1087000060F99BF84F000A24012808BF09241CE0E7
:10871000DFF80C0CBBF8083045F23F0112E0DBF843
:1087200008009BF82510BBF81820452898BF114673
:108730009BF83800012818BF11468BB2DFF8E00B18
:1087400045F24001FCF7D7FB002488F843400020A5
:1087500000F09EBCDBF804004728C0F017839BF8AC
:1087600025401CE346F20301DFF8B40B02224FF66A
:108770006043FCF732FC032446E0DFF8BC0B838D3A
:1087800021E02F4C2F4DDFF8B00B808DFCF76BF8FC
:1087900002460B4628462146FBF7ADFDFCF79DF847
:1087A0000346DFF87C0BD0F8044128E046F20301D1
:1087B000DFF86C0B02224FF6FF73FCF70EFC062469
:1087C00022E0BBF80830DFF8580B45F21001D0F872
:1087D000044116E0DFF8480BD0F80441DBF808004C
:1087E00081087C2900F2CE80FCF73DF8164A174B31
:1087F000FBF781FDFCF771F80346DFF8240B45F227
:108800000B010222A04700249BF84D001A2888F88B
:10881000284000F23A84012101FA00F00C49084294
:1088200000F033849BF84140A4B1012C18D10BF126
:10883000200011E000000020A0010020802B00207B
:1088400047E1CA3FE17A14AE9A9999999999D93F2B
:10885000060000040BF11C000088DFF8DC1A888594
:108860009BF93700DBF804A09BF936105044401AFE
:10887000FBF7E3FF9BF84C109BF84090064689F00D
:10888000010081F0010141EA0007E2493046FBF7AF
:10889000CBFE0546380618BF3546012C2FD0002CDC
:1088A00040F0F3839BF839009BF84A109BF8434053
:1088B00081F0010180F0010040EA01065046FBF71B
:1088C000BCFF002E18BF2846FBF7F3FFBBF8902033
:1088D000904288BF0246CBF80820B9F1010F08BFCB
:1088E000012C40F0D283BBF81C1001F1140082422D
:1088F00080F0CB83A1F11400824240D8C5E39BF8FD
:10890000390001280BD19BF84A00012807D10AEB56
:10891000CA000521FCF787FBFBF78FFF0AE0BE4981
:108920002846FBF7D9FEBD49FBF708FF4FF084410D
:10893000FBF77AFEBBF89010052201EBC101B1FBF9
:10894000F2F101F12004FBF7B4FF844288BF204616
:10895000CBF80800B9F1010F40F097839BF8431062
:10896000012940F09283BBF8201001F124029042CB
:1089700080F08B83A1F12402904240F28683CBF8F1
:10898000081082E3DFF8980945F20B010222C823A0
:1089900038E703243AE7062438E782730E2072E3AF
:1089A00088F83A200171012400F0A4BC0224DFF809
:1089B000700945F2010102222346FCF746FAFFF74F
:1089C000F4BB4174042400F01FBC9BF84D109BF8CD
:1089D0004000282908BF012800F044820122022813
:1089E0004FF0010008BF0520282918BF1046FFF7E7
:1089F000EABADFF82C0945F24101022200230024E3
:108A0000FCF723FAA1E6012488F82B00002808BF10
:108A10000424F9E698F83200002800F01C829BF844
:108A2000240098F83010814200F0118288F830005C
:108A300022E6BBF8B030DFF8E80845F21E01FBF78C
:108A4000C0FF0C201FE30BF192000388DFF8D00871
:108A500045F21501FBF7B5FF032014E3BBF8AC307A
:108A6000DFF8BC0845F21801FBF7ABFF06200AE36C
:108A70000BF19E000388DFF8A80845F21B01FBF705
:108A8000A0FF0920FFE2C47402245EE600239BE1FC
:108A9000BBF82E00052100EBC000FCF7C4FA83B23E
:108AA000DFF87C0845F23301FBF78BFF0E2492E1DF
:108AB0000BF11C000388DFF8680845F2350187E1F7
:108AC000FBF7C2FF00F01A82002840F07482BBF866
:108AD00036315FE2FBF7B8FF00F01382002840F068
:108AE0006A82BBF826313FE2BBF8423118E1BBF89D
:108AF0001C3115E1BBF81E3159E0BBF80631F7E037
:108B0000FBF7A2FF00F00082002840F05482BBF87F
:108B100018314BE2FBF798FF00F0F981002840F094
:108B20004A82BBF8E2303BE2BBF83A31C8E0BBF81E
:108B3000DE3010E1BBF81631C9E0BBF8443136E055
:108B4000DFF8DC07BBF8CE3045F22C01FBF739FF2C
:108B50000C2433E2FBF778FF00F0DC81002840F0C2
:108B6000E181BBF8BA30D7E1FBF76EFF00F0DC81A2
:108B7000002840F02082BBF82E3111E2BBF8D03043
:108B800015E0DFF89C07BBF8C83045F22A01FBF777
:108B900018FF0A2412E2FBF757FF00F0C8810028F3
:108BA00040F00982BBF80031DEE1BBF8F830DFF8B5
:108BB000700745F22D01FBF704FF0024FEE1DFF80A
:108BC0006007BBF8B63045F22301FBF7FAFE032439
:108BD000F4E1BBF8E0308BE0DFF84407BBF8B830D5
:108BE00045F22401FBF7EDFE0424E7E1FBF72CFF3F
:108BF00000F0A081002840F0A581BBF8C2309BE1C5
:108C0000FBF722FF00F0A081002840F0BC81BBF8F8
:108C1000B2309BE1000048C2000010410000A040BB
:108C2000FBF712FF00F09B81002840F0C481BBF8E5
:108C30001031AFE1BBF8E63083E0BBF8323180E0C1
:108C4000BBF8EE303CE0DFF8D806BBF8BE3045F2AA
:108C50002601FBF7B6FE0624B0E1BBF8F03036E0A3
:108C6000FBF7F2FE00F07E81002840F0A481BBF803
:108C7000DA3079E1DFF8A806BBF8C03045F2270109
:108C8000FBF79FFE072499E1BBF8E83041E0FBF7D2
:108C9000DBFE00F06E81002840F07381BBF8CA3023
:108CA00069E1DFF87C06BBF8C63045F22901FBF725
:108CB00088FE092482E1BBF80E312AE0BBF81431AA
:108CC000DFF85C0645F2290173E1BBF83C31DFF8BF
:108CD000500645F22A016CE1FBF7B6FE00F0558123
:108CE000002840F06881BBF8F2305FE1BBF82C311E
:108CF000DFF82C0645F224015BE1FBF7A5FE00F04E
:108D00004781002840F05781BBF8EA3042E1BBF8C8
:108D10003431DFF80C0645F227014AE1BBF8F630A2
:108D2000DFF8FC0545F22C0143E1FBF78DFE00F076
:108D30003581002840F03F81BBF8083130E1BBF8B5
:108D40000C31DFF8DC0545F2260132E1BBF82A31AF
:108D500001E0BBF80431DFF8C80545F2230128E142
:108D6000FBF772FE00F02081002840F02481BBF860
:108D70003E311BE104208BE1BBF826108A423FF410
:108D8000FCAABBF88C100186FFF70CBBDFF890053E
:108D900045F24001022200230024FCF756F8DFF8D8
:108DA000940500F14A0180F8574002200E2204F099
:108DB0008BFF002088F83D0067E14171022499E2B1
:108DC0008174052420E20123DFF8540545F21401E3
:108DD000FCF791F8002488F8384056E100287FF429
:108DE00012AD98F82A00DFF850150024421CDBF879
:108DF0000800CB8D88F82A2098423FF405ADD2B206
:108E00000A2AFFF401ADC8850020062488F82A004C
:108E1000FAE49BF8560098F83110814240F0D18076
:108E2000002800F0FD819BF822009BF8231081426E
:108E300000F0F6818BF82300FFF71EBC002188F8B4
:108E4000321008F1300100220A7088F82E00002448
:108E500088F82C4019E1012488F83240F8E70475BD
:108E6000032472E40420FFF7F3B8072808BF0029A1
:108E700000F0D481072808BF012900F0FF810728EE
:108E800008BF022900F0278200220024032908BF1E
:108E90002524072818BF14461EE28171032429E205
:108EA000022488F84000002818BF0124ACE1FCF738
:108EB000B0F83FF67EAFDFE810F00400F601EA01FB
:108EC000ED019BF804416AE7FCF7A3F83FF671AFA8
:108ED000DFE810F00400F501E301EF019BF82A41FF
:108EE0005DE7FCF796F83FF664AFDFE810F00400AA
:108EF000F101DF01EB019BF8DE4050E7BBF83831B0
:108F000048E0BBF828312FE0BBF81A314EE0BBF83F
:108F1000E43045E0BBF8BC30DFF8040445F225013D
:108F2000FBF74FFD052449E0BBF8303138E0BBF8D2
:108F3000023119E0BBF8C430DFF8E40345F2280140
:108F4000FBF73FFD082439E0BBF8B430DFF8D0036D
:108F500045F2220102220224FBF777FF2EE0BBF844
:108F6000123117E0BBF8DC30DFF8B40345F2220120
:108F70001FE0BBF8CC30DFF8A80345F22B01FBF76C
:108F800020FD0B241AE0022418E0BBF8F4300DE0B9
:108F9000BBF8EC30E24845F228010AE0BBF80A31A0
:108FA000DF4845F2250104E0BBF84031DC4845F2DA
:108FB0002B01FBF7A0FF98F83600441C88F83640D8
:108FC00063E0012488F83100002808BF04243FE74B
:108FD000BBF8A400BBF81C10814251D1BBF8B00013
:108FE000BBF8201081424BD19BF82200BBF8A610A1
:108FF000814245D1BBF8A8003DE0BBF89800BBF822
:109000001C1081423CD1BBF8AC00BBF8201081425F
:1090100036D19BF82200BBF89A10814230D1BBF8C0
:109020009C0028E0BBF89E00BBF81C10814227D1B1
:10903000BBF8AE00BBF82010814221D19BF8220082
:10904000BBF8A01081421BD1BBF8A20013E0BBF813
:109050009200BBF81C10814212D1BBF8AA00BBF8E9
:10906000201081420CD19BF82200BBF89410814261
:1090700006D1BBF89600BBF8261081423FF46DA9DB
:1090800000208BF8890088F83B0098F81D0001301B
:1090900088F81D0098F81C00002840F09180BBF86B
:1090A0001C0000EBC0010520B1FBF0F12031ABF852
:1090B0002010BBF82E10FBF7B6FEABF83010BBF853
:1090C0009210FBF7B0FEABF8AA10BBF89810FBF7B4
:1090D000AAFEABF8AC10BBF89E10FBF7A4FEABF8F1
:1090E000AE10BBF8A410FBF79EFEABF8B010BBF8B7
:1090F000B210FBF798FEABF8B410BBF8BA10FBF750
:1091000092FEABF8BC10BBF8C210FBF78CFEABF8BC
:10911000C410BBF8CA10FBF786FEABF8CC10BBF846
:10912000DA10FBF780FEABF8DC10BBF8E210FBF7BF
:109130007AFEABF8E410BBF8EA10FBF774FEABF86C
:10914000EC10BBF8F210FBF76EFEABF8F410BBF8B6
:109150000011FBF768FEABF80211BBF80811FBF732
:1091600062FEABF80A11BBF81011FBF75CFEABF81E
:109170001211BBF81811FBF756FEABF81A110021BB
:109180008BF88910012188F81C10BBF82611FBF719
:109190004AFEABF82811BBF82E11FBF744FEABF8E2
:1091A0003011BBF83611FBF73EFEABF83811BBF8B7
:1091B0003E1101EBC101B1FBF0F02030ABF84001F2
:1091C0005748D0F80811BDE8F84F0847A1B20B2462
:1091D0000187FFF7BABA817001EB410000248000DB
:1091E000042938BF441CE9E6C171042482E0E1B2DD
:1091F0000024102906D39BF84D1088F8424001291D
:1092000008BF062488F84100DBF814000021632819
:1092100088BF012188F83F10FEF7C8BF01245BE03A
:109220009BF8250098F82F1081422CD141499BF8DA
:10923000380000244A7882423FF40AAE4870002881
:1092400008BF032404E6C17301201CE7D2B2002446
:109250000A2AFFF47AAA00297FF477AADBF818100B
:10926000838E9BF82520994203D1C38E93423FF40D
:109270006CAAC28681860724FFF767BA0D242BE00B
:109280000172092436E088F82F00FFF7F5B99BF842
:10929000144184E59BF81C4181E59BF83A417EE549
:1092A0009BF8C6407BE59BF80C4178E59BF8EE40C7
:1092B00075E59BF8424172E59BF8CE406FE59BF85F
:1092C00032416CE59BF8F64069E59BF8BE4066E5E7
:1092D0009BF8E64063E5192488F837006EE6417292
:1092E000052407E08172062404E0C172072401E02E
:1092F00001730C249BF84D0098F8391081423FF41B
:109300006AAD0C2807D00E2803D0132808BF0A2402
:1093100002E0082400E00D2488F839005BE500BF76
:10932000802B0020B62A0020BE2A0020C62A00205A
:10933000CE2A002000000020A00100200649074896
:109340000A7822B94CF6CC42026001220A704AF631
:10935000AA210160704700BF312300200030004087
:1093600010B5214C226842F00102226001804FF4C6
:10937000801000F017F8FBF789BB00BF08480168B0
:10938000C9071CBF002070470168490744BF01207E
:1093900070470068C0064FF0020058BF03207047B6
:1093A0000C200240B0B50446FFF7E8FF0025013C61
:1093B00045F1000118B911B1FFF7E0FFF7E7B0BDC3
:1093C00010B5094C216841F00201216060602068FD
:1093D00040F0400020604FF08040FFF7E3FF20683E
:1093E00020F00200206010BD102002402DE9F04F57
:1093F0008FB0DFF8648A98F80600032801F23986F6
:10940000DFE810F0040038050C000A0598F8130096
:10941000002801F02780012001F020B8FB49DFF887
:109420003C4AFB4FDFF8385A881D894698F81210DD
:1094300011F0010608BFA7F1D20094F9361089B2E5
:10944000A84709F10800002E08BFA7F1D000E18D60
:10945000A84709F10A00002E08BFA7F1CE00618ECF
:10946000A84709F10C00002E08BFA7F1CC00B4F802
:109470008A10A84709F1D000002E08BFA7F1080004
:1094800094F84010A84709F10E00002E08BFA7F17C
:10949000CA0094F84110A84709F11000002E08BF37
:1094A000A7F1C80094F84210A84709F11200002E55
:1094B00008BFA7F1C60094F84310A84709F11400AB
:1094C000002E08BFA7F1C40094F84410A84709F182
:1094D0001600002E08BFA7F1C20094F84510A84757
:1094E00009F11800002E08BFA7F1C00094F846103B
:1094F000A84709F11A00002E08BFA7F1BE0094F892
:109500004810A84709F11C00002E08BFA7F1BC00B5
:1095100094F84910A84709F11E00002E08BFA7F1D2
:10952000BA0094F84B10A84709F12000002E08BF9C
:10953000A7F1B80094F84C10A84709F12200002EBA
:1095400008BFA7F1B600B4F89210A84709F12400AB
:10955000002E08BFA7F1B400B4F89410A84709F191
:109560002600002E08BFA7F1B200B4F89610A84755
:1095700009F12800002E08BFA7F1B000B4F8981038
:10958000A84709F12A00002E08BFA7F1AE00B4F8E1
:109590009A10A84709F12C00002E08BFA7F1AC00D3
:1095A000B4F89C10A84709F12E00002E08BFA7F1BF
:1095B000AA00B4F89E10A84709F13000002E08BF99
:1095C000A7F1A800B4F8A010A84709F13200002EB6
:1095D00008BFA7F1A600B4F8A210A84709F134000B
:1095E000002E08BFA7F1A400B4F8A410A84709F101
:1095F0003600002E08BFA7F1A200B4F8A610A847B5
:1096000009F13800002E08BFA7F1A000B4F8A81097
:10961000A84709F13A00002E08BFA7F19E00B4F850
:10962000B210A84709F13C00002E08BFA7F19C002A
:10963000B4F8B610A84709F13E00002E08BFA7F104
:109640009A00B4F8B810A84709F14000002E08BFEE
:10965000A7F19800B4F8BA10A84709F14200002E0B
:1096600008BFA7F19600B4F8BE10A84709F144005E
:10967000002E08BFA7F19400B4F8C010A84709F164
:109680004600002E08BFA7F19200B4F8C210A84708
:1096900009F14800002E08BFA7F19000B4F8C610E9
:1096A000A84709F14A00002E08BFA7F18E00B4F8C0
:1096B000C810A84709F14C00002E08BFA7F18C0084
:1096C000B4F8CA10A84709F14E00002E08BFA7F150
:1096D0008A00B4F8CE10A84709F15000002E08BF48
:1096E000A7F18800B4F8D010A84709F15200002E65
:1096F00008BFA7F18600B4F8D210A84709F15400BA
:10970000002E08BFA7F18400B4F8D610A84709F1CD
:109710005600002E08BFA7F18200B4F8D810A84761
:1097200009F15800002E08BFA7F18000B4F8DA1044
:10973000A84709F15A00002E08BFA7F17E00B4F82F
:10974000DE10A84709F15C00002E08BFA7F17C00DD
:10975000B4F8E010A84709F15E00002E08BFA7F199
:109760007A00B4F8E210A84709F16000002E08BFA3
:10977000A7F17800B4F8E610A84709F16200002EBE
:1097800008BFA7F17600B4F8E810A84709F1640013
:10979000002E08BFA7F17400B4F8EA10A84709F139
:1097A0006600002E08BFA7F17200B4F8EE10A847BB
:1097B00009F16800002E08BFA7F17000B4F8F0109E
:1097C000A84709F16A00002E08BFA7F16E00B4F89F
:1097D000F210A84709F16C00002E08BFA7F16C0039
:1097E000B4F8F610A84709F16E00002E08BFA7F1E3
:1097F0006A00B4F8F810A84709F17000002E08BFFD
:10980000A7F16800B4F8FA1000F004B800F40108F9
:10981000D8FC0108A84709F17200002E08BFA7F183
:109820006600B4F8FC10A84709F17400002E08BFC8
:10983000A7F16400B4F8FE10A84709F17600002EE5
:1098400008BFA7F16200B4F80011A84709F1780039
:10985000002E08BFA7F16000B4F80411A84709F171
:109860007A00002E08BFA7F15E00B4F80611A847E1
:1098700009F17C00002E08BFA7F15C00B4F80811C4
:10988000A84709F17E00002E08BFA7F15A00B4F8DE
:109890000C11A84709F18000002E08BFA7F158005D
:1098A000B4F80E11A84709F18200002E08BFA7F1F5
:1098B0005600B4F81011A84709F18400002E08BF23
:1098C000A7F15400B4F81411A84709F18600002E3E
:1098D00008BFA7F15200B4F81611A84709F1880093
:1098E000002E08BFA7F15000B4F81811A84709F1DD
:1098F0008A00002E08BFA7F14E00B4F81C11A8473B
:1099000009F18C00002E08BFA7F14C00B4F81E111D
:10991000A84709F18E00002E08BFA7F14A00B4F84D
:109920002011A84709F19000002E08BFA7F14800B8
:10993000B4F82211A84709F19200002E08BFA7F140
:109940004600B4F82411A84709F19400002E08BF7E
:10995000A7F14400B4F82611A84709F19600002E9B
:1099600008BFA7F14200B4F82A11A84709F19800EE
:10997000002E08BFA7F14000B4F82C11A84709F148
:109980009A00002E08BFA7F13E00B4F82E11A84798
:1099900009F19C00002E08BFA7F13C00B4F8321179
:1099A000A84709F19E00002E08BFA7F13A00B4F8BD
:1099B0003411A84709F1A000002E08BFA7F1380014
:1099C000B4F83611A84709F1A200002E08BFA7F18C
:1099D0003600B4F83A11A84709F1A400002E08BFD8
:1099E000A7F13400B4F83C11A84709F1A600002EF5
:1099F00008BFA7F13200B4F83E11A84709F1A8004A
:109A0000002E08BFA7F13000B4F84211A84709F1B1
:109A1000AA00002E08BFA7F12E00B4F84411A847F1
:109A200009F1AC00002E08BFA7F12C00B4F84611D4
:109A3000A84709F1AE00002E08BFA7F12A00B4F82C
:109A40004811A84709F1B000002E08BFA7F128006F
:109A5000B4F84A11A84709F1B200002E08BFA7F1D7
:109A60002600B4F84C11A84709F1B400002E08BF35
:109A7000A7F12400B4F84E11A84709F1B600002E52
:109A800008BFA7F12200B4F85011A84709F1B800A7
:109A9000002E08BFA7F12000B4F85211A84709F121
:109AA000BA00002E08BFA7F11E00B4F85411A84751
:109AB00009F1BC00002E08BFA7F11C00B4F8561134
:109AC000A84709F1BE00002E08BFA7F11A00B4F89C
:109AD0005811A84709F1C000002E08BFA7F11800CF
