:020000040800F2
:10400000B83000208541000805490008FD48000837
:1040100001490008F5480008897800080000000000
:10402000000000000000000000000000A16800087F
:10403000F948000800000000E5490008A5680008EC
:104040009F4100089F4100089F4100089F410008D0
:104050009F4100089F4100089F4100089F410008C0
:104060009F4100089F4100089F4100089F410008B0
:104070009F4100089F4100089F4100089F410008A0
:104080009F4100089F4100089F4100089F41000890
:104090009F4100089F4100089F4100089F41000880
:1040A0009F4100089F4100089F4100089F41000870
:1040B00041700008197500089F4100089F410008E1
:1040C0009F4100089F4100089F4100089F41000850
:1040D0009F410008997600083D770008E1770008C5
:1040E0009F4100089F4100089F4100080000000018
:1040F00000000000000000000000000000000000C0
:10410000000000009F4100089F41000800000000DF
:1041100049750008F175000800000000000000006B
:104120009F4100089F4100089F4100089F410008EF
:10413000000000000000000000000000000000007F
:104140000000000000000000000000009F41000887
:1041500000000000000000009F4100089F4100088F
:104160000000000000000000000000009F41000867
:10417000DFF80CD000F032F90048004705060108CE
:10418000B83000200648804706480047FEE7FEE7B3
:10419000FEE7FEE7FEE7FEE7FEE7FEE7FEE7FEE7F7
:1041A000996F0008714100082DE9FE4F804681EAB1
:1041B0000300C00F0C46009021F0004123F00045A1
:1041C000B8EB0200A94105D24046214690461C4664
:1041D0000B46024623F00040104347D0270DC7F39B
:1041E0000A00C3F30A510290401A019040286BDA8A
:1041F000C3F3130040F4801B0098924620B10023C3
:10420000D2EB030A63EB0B0B01985946C0F1400255
:10421000504600F0FBF806460D4650465946019AB6
:1042200000F013F910EB08006141002487EA1152F5
:1042300084EAE7731A4340D0009A62B3019A012AD4
:104240004FEA075215DC001B61EB02014FF0004200
:1042500002EA0752CDE90042001C41F580113246C6
:104260002B4600F013F903B0BDE8F08F404621461D
:10427000F9E7001B61EB0201001C41F580130018F7
:104280005B412018A2F5001747EB030140EAD57007
:10429000B6196D4111E06D084FEA360645EAC07562
:1042A0004FEA0752001B61EB0201001C41F580112F
:1042B00049084FEA30000019514132462B4603B0FD
:1042C000BDE8F04F00F0D3B8009801224000002371
:1042D000D0EB020263EBE073009821464FEAE074F2
:1042E000B8EB000061EB0401E9E783F000435BE712
:1042F00081F0004158E72DE9FE4F81EA030404F004
:10430000004421F0004100944FF0000B23F00043E3
:1043100050EA01045ED052EA03045BD0C3F30A54AE
:10432000C1F30A552C44A4F2F3340194A0FB0254C7
:10433000C1F3130141F48011C3F3130343F4801359
:1043400001FB024400FB034E840A970A44EA8154AD
:1043500047EA8357A4FB076802958D0A05FB07858A
:104360004FEA932C04FB0C542705029D4FEA065894
:1043700047EA1637B5EB08056EEB070C870E920E71
:1043800047EA811742EA8312A7FB0201B6EB0B0151
:1043900064EB00042B0D43EA0C335E1844EB1C5015
:1043A000DA465146E7FB0201C5F313044FEA0B332B
:1043B00043EA14534FEA0432019C43EA0603A4F192
:1043C0000C040294009CCDE900B400F05FF803B047
:1043D000BDE8F08F00200146F9E700001CB5094850
:1043E0000090094801900546009C06E0E06840F016
:1043F000010394E8070098471034AC42F6D3FFF766
:10440000BBFE0000DC4A0108FC4A0108202A04DB4C
:10441000203A00FA02F1002070479140C2F12003D7
:1044200020FA03F3194390407047202A04DB203A16
:1044300021FA02F00021704721FA02F3D040C2F1C4
:1044400020029140084319467047202A06DBCB170B
:10445000203A41FA02F043EAE07306E041FA02F33F
:10446000D040C2F12002914008431946704710B570
:10447000141E73F1000408DA401C41F10001921887
:104480005B411A4301D120F0010010BD2DE9F04D30
:1044900092469B4611B1B1FA81F202E0B0FA80F285
:1044A00020329046FFF7B2FF04460F4640EA0A006A
:1044B00041EA0B0153465A46084313D0114653EACA
:1044C000010019D0C8F140025046FFF7AEFF054683
:1044D0000E46504659464246FFF798FF084305D01E
:1044E000012004E020463946BDE8F08D0020054358
:1044F00046EAE0762C4337430A986305E40AA0EBCA
:1045000008000022FD0A44EA47540A3002D5002080
:104510000146E9E7010510196941DDE9084500197F
:104520006941BDE8F04DA2E7D2B201E000F8012BED
:10453000491EFBD270470022F6E710B513460A4623
:1045400004461946FFF7F0FF204610BDF0B480EA9C
:104550000102D40F4200B2EB410F02D202460846DC
:1045600011464A0042D0C30DDDB2C1F3C752AD1AA5
:10457000202D35DAC1F3160141F4000204B1524294
:10458000C5F1200602FA06F12A411044B3EBD05FD0
:1045900023D0C4B1012DA0EBC35009DCF0BC4FF017
:1045A000004202EAC352DBB200F5000000F074B929
:1045B000400000F1807000EBC350A0F1807040EA31
:1045C000D170490009E0490841EAC071A0EBC3502D
:1045D00000F50000400800EBC350F0BC00F053B9F8
:1045E0006142012202EB4101001BF6E7F0BC70477B
:1045F00081F00041AAE780F00040A7E780EA0102CD
:1046000010B502F00043400022D04A001FD0010E36
:1046100001EB1261C0F35600C2F3560240F40000F1
:1046200042F40002A0FB022000047F39140400D0F1
:10463000401C50EA124001D44000491EC2B20C0690
:1046400004EBD010401C4008802A02D003E0002078
:1046500010BD20F00100002900DA0020184310BD31
:10466000002801DBC0F10040002901DBC1F100415D
:10467000814201D80120704700207047002801DBEB
:10468000C0F10040002901DBC1F10041814201D2AB
:104690000120704700207047002801DBC0F1004076
:1046A000002901DBC1F10041814201D301207047A3
:1046B00000207047002801DBC0F10040002901DB29
:1046C000C1F10041814201D90120704700207047AB
:1046D00030B5041E71F1000404DB4FF00044404289
:1046E00064EB0101141E73F1000405DB1C464FF05E
:1046F0000043524263EB0403801A994101D2012026
:1047000030BD002030BDC10F80EAE0700844CA0708
:104710009623002100F0C0B896230022114600F035
:10472000BBB80EB5C10F80EAE0700844CA0700218B
:1047300040F233438DE80E000A460B46FFF7A6FE13
:1047400003B000BD0EB540F2334102910021CDE926
:1047500000110A460B46FFF799FE03B000BD00F0BA
:10476000004220F00040C10DC0F3160040F40000EC
:104770007F2901DA00207047962903DCC1F19601F8
:10478000C84001E096398840002AF4D04042704782
:1047900020F00040C10DC0F3160040F400007F2956
:1047A00001DA00207047962903DCC1F19601C84068
:1047B000704796398840704770B5C1F30A5201F0CE
:1047C00000450024C1F3130140F2FF3341F480118E
:1047D0009A4201DA002070BD40F233439A42A2F2BD
:1047E000334203DC5242FFF720FE00E090402C43AE
:1047F000F1D0404270BDC1F30A5210B5C1F31301AC
:1048000040F2FF3341F480119A4201DA002010BDDA
:1048100040F233439A42A2F2334203DC5242FFF7A2
:1048200004FE10BD904010BD00F0004230F000408A
:104830000AD0C10D01F56071C0F3160042EA0151C2
:10484000C20840071143704700200146704701F03D
:10485000004330B421F0004150EA010206D00A0DB5
:10486000A2F56072C1F31301002A02DC30BC002003
:104870007047440F44EAC104C100E01830BC00EBAB
:10488000C250AFF300800029A8BF7047401C490008
:1048900008BF20F00100704710B4B0FA80FC00FAA5
:1048A0000CF050EA010404BF10BC704749B1CCF1D0
:1048B000200421FA04F411FA0CF118BF012121435C
:1048C0000843A3EB0C01CB1D4FEA00614FEA102017
:1048D00042BF002010BC704700EBC35010440029B9
:1048E000A4BF10BC7047401C490008BF20F0010065
:1048F00010BC7047FEE7000070470000FEE70000B4
:10490000FEE7000070470000F0B583B0FFF770FECF
:1049100042F20026C2F2000670617169F069FFF789
:1049200015FEF0614CF60004F069C4F22F742146C4
:10493000FFF7A4FE002808BFF461F06900210024FD
:10494000FFF7B8FE002808BFF461D6E9004570699A
:10495000776A3169FFF74CFEB06170692146FFF755
:104960004DFEF169044608462946FFF747FE0290CE
:10497000019702980199FFF773FE002804BF019880
:1049800002900298019981F00041FFF785FE18B965
:10499000019880F00040029002982146FFF7D6FD72
:1049A000B269B168044675691046FFF727FE0146F3
:1049B0002046FFF7CBFD30623561306AB16AFFF700
:1049C0004FFE002804BFB06A3062306AB16A81F0DD
:1049D0000041FFF761FE002804BF00203062306A0A
:1049E00003B0F0BD704700002DE9F04381B042F6FE
:1049F0007042C2F20002517B022914D1461C578832
:104A0000002331461588BD4210D095680133EF5D13
:104A100001F8017B578895880137B7FBF5F404FB53
:104A200015775780EEE700F1810760E000215173B0
:104A30000746D9B2092907F8813F40F093803178C1
:104A40005A2940F054808178A52940F0508081791E
:104A50000B39482900F24B80DFE811F04C009C0331
:104A600073034D0330044900490049006B035602AB
:104A70006F021903E3024404F401E2018F042A03E4
:104A80003B036504FF0352059102B9047401390226
:104A9000AD01F5029001D005B30505029902B903F5
:104AA000C6023306DA01860423066401DE035301DD
:104AB000D70022021103B0044900490053064900FF
:104AC0006C01D5034900490049001A0449003C061D
:104AD0001104050149004900490087001E07FE0531
:104AE000B4003A04E704AA0065053505480700202C
:104AF000387037E042F63015C2F2000595F83B20D9
:104B00000121A5F85A10A5F85510002A4FF0000110
:104B1000E98385F84710EAD1017A447A0802FFF761
:104B200000FE804620460E46FFF70CFE0023C4F22E
:104B300004030022FFF7DFFB42463346FFF734FB56
:104B4000FFF73AFE43F23432642898BF642000EB4A
:104B5000C001C3F23332A1FB0212A88302F120008C
:104B60002884C4E701B0BDE8F08342F63011C2F2F8
:104B7000000191F83B20002AB9D10122A1F85A2066
:104B8000A1F855200022CA83407A012801F0388319
:104B90000028ACD191F84100012801F0EB840028F5
:104BA000A5D1888B6422642888BF421E00F098BE7D
:104BB00042F63010C2F2000090F83B10002996D166
:104BC00000F08ABC407A012800F0E58600288ED1EA
:104BD00042F63010C2F2000090F83B10032901F0B9
:104BE000038400297FF483AF0121A0F85A10A0F8B4
:104BF000571090F8221000220A2980F8232040F252
:104C00004B85053980F8221071E742F63011C2F267
:104C1000000191F83B20002A7FF469AF91F8413000
:104C2000427A012B0ED1007A42EA002000EB80008C
:104C300048F63962A038C3F6E30250FB02F0421096
:104C400002EBD072087F91F83630801A184440B2D7
:104C50006428A8BF642010F1640FD8BF6FF0630010
:104C600081F8360043E742F63014C2F2000494F8AB
:104C70003B1000297FF43BAF407A012801F0D0823D
:104C800000287FF434AF40F2A110C2F20000017896
:104C90000131CAB20A2A0170FFF429AF40F2A01113
:104CA000C2F200010A78002A7FF421AF00220270CC
:104CB0000120087042F6B020C2F20000022101700B
:104CC00094F8410094F82230B4F88A100128A4F82E
:104CD0009430A4F8961001F04785002841F06185D2
:104CE000A38B43F2343103EBC300C3F23331A0FB97
:104CF000010101F12000A4F89230A4F8AA0001F00B
:104D000044BD008940F2E73200BA010C914238BF3D
:104D1000020C42F63010C2F20000012A98BF0122B4
:104D20004286E4E6407A42F63011C2F2000181F890
:104D30004600DCE6407A42F63011C2F2000181F80A
:104D40004800D4E642F63011C2F2000191F8882002
:104D5000032A3FF6CCAEDFE812F0040088075D07B7
:104D60007A070089C82300BA020CC82A38BF030C8E
:104D7000052B98BF0523A1F8B630B8E642F63011EE
:104D8000C2F2000191F88820032A3FF6B0AEDFE8B6
:104D900012F00400A8074F079907008940F2E73393
:104DA00000BA020C9A4238BF030C012B98BF0123B2
:104DB000A1F8C0309BE642F63011C2F2000191F832
:104DC0008820032A3FF693AEDFE812F00400B9070B
:104DD0005D079A07008991F8412040BA012AA1F89D
:104DE000BA000ED100EB800048F63962A038C3F655
:104DF000E30250FB02F0421002EBD07290B2A1F835
:104E0000BA20642801F229836420A1F8BA006EE672
:104E1000407A42F63011C2F2000181F8420066E6A3
:104E2000008940F2E73200BA010C914238BF020C0F
:104E300042F63010C2F20000012A98BF0122A0F809
:104E40009C2054E60089C82200BA010CC82938BF4A
:104E5000020C42F63010C2F20000052A98BF05226B
:104E6000A0F89A2043E642F63011C2F2000191F810
:104E70008820032A3FF63BAEDFE812F00400AD07BE
:104E800080078F07008940F2E73300BA020C9A428C
:104E900038BF030C012B98BF0123A1F8C83026E6C8
:104EA000008940F2E73200BA010C914238BF020C8F
:104EB00042F630100029C2F200004FF0000108BF96
:104EC0000122A0F88A20C28480F854100FE642F62E
:104ED0003011C2F2000191F88820032A3FF607AE94
:104EE000DFE812F00400C5076A07B607008940F240
:104EF000E73300BA020C9A4238BF030C012B98BF6B
:104F00000123A1F8B830F2E5008900BA000C0228AC
:104F100000F07486012800F0638600287FF4E7AD76
:104F200042F63010C2F20000012180F84D1080F8E6
:104F300040100021A0F84F10D9E542F63011C2F21E
:104F4000000191F84120002A00F04385012A40F039
:104F50005E85008948F6396200BA000CA1F8AA0003
:104F600000EB8000A038C3F6E30250FB02F04210D1
:104F700002EBD07290B2A1F8922000F04ABD407AC4
:104F800042F63011C2F2000181F88800AFE542F626
:104F90003011C2F2000191F88820032A3FF6A7AD34
:104FA000DFE812F00400A20728077407008991F8CF
:104FB000412040BA012AA1F8CA000ED100EB8000BE
:104FC00048F63962A038C3F6E30250FB02F0421003
:104FD00002EBD07290B2A1F8CA20642801F261827B
:104FE0006420A1F8CA0082E542F63011C2F2000145
:104FF00091F88820032A3FF67AADDFE812F004002A
:1050000094071A076607008940F2E73300BA020CDA
:105010009A4238BF030C012B98BF0123A1F8D0306E
:1050200065E5008940F2E73200BA010C914238BFD1
:10503000020C42F63010C2F20000012A98BF012291
:10504000A0F8962053E542F63011C2F2000191F823
:105050008820032A3FF64BADDFE812F004009007EA
:10506000740782070089C82300BA020CC82A38BF17
:10507000030C052B98BF0523A1F8BE3037E5407A15
:1050800042F63011C2F2000181F849002FE5008993
:10509000C82200BA010CC82938BF020C42F63010F1
:1050A000C2F20000052A98BF0522A0F894201EE550
:1050B0000089C82200BA010CC82938BF020C42F688
:1050C0003010C2F20000052A98BF0522A0F8A020E7
:1050D0000DE5008940F2E73200BA010C914238BF79
:1050E000020C42F63010C2F20000012A98BF0122E1
:1050F000A0F8A220FBE442F63011C2F20001002326
:1051000081F8233091F83B300122032BA1F85A207B
:10511000A1F8572000F07084002B7FF4E8AC407AAF
:10512000052898BF0520C82828BFC82081F822007C
:10513000DDE4407A42F63011C2F2000181F84E00FF
:10514000D5E442F63011C2F2000191F83B30012261
:10515000A1F85A20A1F85520002B4FF00002CA8375
:105160007FF4C5AC008991F8412000BA012A4FEACA
:10517000104241F01F8002EB820048F63963A038EC
:10518000C3F6E30350FB03F35E10104606EBD37245
:1051900001F01AB842F63011C2F20001002381F882
:1051A000233091F83B300122032BA1F85A20A1F8BB
:1051B000572081F8472000F04984002B7FF497ACFA
:1051C000407A052898BF052081F822008FE442F636
:1051D0003011C2F2000191F88820032A3FF687AC13
:1051E000DFE812F00400F606DA06E8060089C823B4
:1051F00000BA020CC82A38BF030C052B98BF052340
:10520000A1F8CE3073E4407A42F63011C2F20001C8
:1052100081F84D00FFF76BBC008901BA42F63010EF
:10522000C2F2000090F84120090C002AC18500F06C
:105230001584012A7FF45BACD42928BFD42121290D
:1052400098BF212101EB8101A03989B24EF28F3242
:105250005143C90CC185FFF74ABC0089C82200BA76
:10526000010CC82938BF020C42F63010C2F200000F
:10527000052A98BF0522A0F8A620FFF738BC407A7F
:1052800042F63011C2F2000181F84A00FFF72FBC4C
:10529000417A42F63010C2F20000002980F8501026
:1052A00000F0E58301297FF422ACB0F8B810A0F833
:1052B0008E10012180F84F10FFF719BC42F6301014
:1052C000C2F2000090F83B1000297FF410AC03E11B
:1052D00042F63010C2F2000090F83B1000297FF433
:1052E00006ACF9E042F63011C2F2000191F841201B
:1052F000002A00F0C183012A40F0F783008948F6B4
:10530000396200BA000CA1F8AC0000EB8000A038B4
:10531000C3F6E30250FB02F0421002EBD07290B2EF
:10532000A1F89820E3E342F63011C2F2000191F8AF
:105330004120002A00F0B383012A40F0F583008960
:1053400048F6396200BA000CA1F8B00000EB80000A
:10535000A038C3F6E30250FB02F0421002EBD07219
:1053600090B2A1F8A420E1E3407A42F63011C2F2F3
:10537000000181F84300FFF7BABB42F63011C2F2D8
:10538000000191F84120002A00F09C83012A40F09E
:10539000EA83008948F6396200BA000CA1F8AE0031
:1053A00000EB8000A038C3F6E30250FB02F042108D
:1053B00002EBD07290B2A1F89E20D6E3407A42F67A
:1053C0003011C2F2000181F84C00FFF790BB42F6A9
:1053D0003011C2F2000191F88820032A3FF687AB12
:1053E000DFE812F00400420604062306008991F863
:1053F000412040BA012AA1F8B2000ED100EB800092
:1054000048F63962A038C3F6E30250FB02F04210BE
:1054100002EBD07290B2A1F8B220642801F265804C
:105420006420A1F8B200FFF762BB42F63014C2F26A
:10543000000494F83B1000297FF459AB407A01280E
:1054400000F0228700287FF452AB40F2A310C2F292
:10545000000001780131CAB20A2A0170FFF447AB9B
:1054600040F2A211C2F200010A78002A7FF43FAB99
:10547000002202700120087042F6B020C2F2000043
:105480000221017094F8410094F82230B4F88A1097
:105490000128A4F89A30A4F89C1001F08B81002810
:1054A00041F0A581A38B43F2343103EBC300C3F277
:1054B0003331A0FB010101F12000A4F89830A4F8D9
:1054C000AC0001F088B942F63010C2F2000090F84A
:1054D0003B1000297FF40BAB90F838100022012913
:1054E00080F8542000F0548200297FF400AB90F83B
:1054F0004E1002291CBF012180F83810FFF7F7BABF
:10550000008940F2E73200BA010C914238BF020C28
:1055100042F63010C2F20000012A98BF0122A0F822
:10552000A820FFF7E4BA42F63014C2F2000494F85F
:105530003B1000297FF4DBAA407A012800F0D586D1
:1055400000287FF4D4AA40F2A510C2F2000001782E
:105550000131CAB20A2A0170FFF4C9AA40F2A411AB
:10556000C2F200010A78002A7FF4C1AA0022027068
:105570000120087042F6B020C2F200000221017042
:1055800094F8410094F82230B4F88A100128A4F865
:10559000A030A4F8A21001F03381002841F04D8121
:1055A000A38B43F2343103EBC300C3F23331A0FBCE
:1055B000010101F12000A4F89E30A4F8AE0001F032
:1055C00030B942F63011C2F2000191F88820032A66
:1055D0003FF68DAADFE812F00400C10567059405C7
:1055E0000089C82300BA020CC82A38BF030C052B57
:1055F00098BF0523A1F8C630FFF779BA42F63011FB
:10560000C2F2000191F88820032A3FF670AADFE871
:1056100012F00400B20558058505008991F8412073
:1056200040BA012AA1F8C2000ED100EB800048F672
:105630003962A038C3F6E30250FB02F0421002EBDD
:10564000D07290B2A1F8C220642800F27287642060
:10565000A1F8C200FFF74BBA407A012800F0A282FD
:1056600000287FF444AA42F63010C2F2000090F8FD
:105670003B10032900F0CB8600297FF438AA0121D2
:10568000A0F85A10A0F8571090F82210002205290F
:1056900080F8232000F25F87052180F82210FFF7B1
:1056A00026BA40F2A811C2F20001407A0B7842F605
:1056B0003012C2F20002834282F844003FF417AA7B
:1056C00017E0407A42F63011C2F2000181F8410041
:1056D000FFF70DBA40F2A911C2F20001407A0B782F
:1056E00042F63012C2F20002834282F845003FF4D3
:1056F000FEA9002382F8543082F83B300870FFF78F
:10570000F6B9417A42F630100029C2F2000018BF03
:10571000012180F852103FF4EAA94FF48C714FF444
:1057200033720A264FF00135A0F8C210142102840A
:105730003C22C684C0F842500125A0F88A604FF48C
:10574000AF76C0F2040180F82220322280F8465061
:10575000A0F84C50A0F8926040F2962640F2F02556
:10576000C0F8C6101421C2851E22C0F2CC26C0F299
:105770004A352823C0F205014286C0F8AA601426E3
:10578000C0F8AE5028259622C0F20A03C0F8CE1009
:10579000C0F8F610C0F81C114FF4FA71C0F20A06F6
:1057A000C0F21405A0F8B220C0F8B630A0F8DA2094
:1057B0002822C0F8EE302823A0F82E111E214FF425
:1057C0008034C0F894601E26C0F8A0503C25C0F27A
:1057D0000302C0F20803C0F206018464C0F20F069F
:1057E000C0F21E051424C0F8DE201E22C0F80C31C1
:1057F0002823C0F8321128214FF4BE794FF0640EEF
:105800004FF0000CC0F89A604FF4C8764FF4E1787E
:10581000C0F8A6504FF48275C0F20304C0F204022F
:10582000C0F20403C0F20501A0F81C9080F824E047
:1058300080F836C080F841C0A0F89890A0F89E602B
:10584000A0F8A480A0F8BA50C0F8BE40A0F8CAE002
:10585000A0F8E250C0F8E640A0F8EA90A0F8F250B4
:10586000A0F80061C0F80421A0F80881A0F8109108
:10587000C0F81431A0F81851A0F82661C0F82A2108
:10588000A0F83691C0F83A31A0F83E51C0F8421164
:1058900080F889C0FFF72BB942F63011C2F200013F
:1058A00091F83B20002A7FF422A90122A1F85A2076
:1058B000A1F855200022CA83407A012800F04685CD
:1058C00000287FF414A991F84100012800F06386B4
:1058D00000287FF40CA9888B421F6A2838BF6422F5
:1058E00090B2C00010FA82F000F041BD42F63015CF
:1058F000C2F2000595F83B1000297FF4F8A8407A21
:10590000012800F0408500287FF4F1A840F2A7109C
:10591000C2F2000001780131CAB20A2A0170FFF414
:10592000E6A840F2A611C2F200010A78002A7FF42C
:10593000DEA8002202700120087042F6B020C2F2F8
:1059400000000221017095F8410095F82230B5F869
:105950008A1042F6B4240128C2F20004A5F8A63049
:10596000A5F8A81000F07287002840F08987AB8B5B
:1059700043F2343103EBC300C3F23331A0FB010126
:1059800001F12000A5F8A430A5F8B00000F06FBF29
:105990000285FFF7ACB842F63010C2F2000090F872
:1059A0003B10032900F02A8500297FF4A0A80121DB
:1059B000A0F85A10A0F8571090F822100022C3291E
:1059C00080F8232080F00781053180F82210FFF74E
:1059D0008EB8B1F8AA2043F23433008902EBC20238
:1059E000C3F23333A2FB032340BA03F12002A1F830
:1059F0009200A1F8AA200CE0407A012888BF024654
:105A0000C82A28BFC82281F82420FFF770B8B1F84F
:105A10009200652801D2642004E0B0F5FA7F03D338
:105A20004FF4FA70A1F89200B1F8AA00D42804D873
:105A3000D420A1F8AA00FFF75AB8B0F5697F24BFB7
:105A40004FF46970A1F8AA00FFF751B8407A012815
:105A500088BF024681F82420FFF749B8002900F0EA
:105A60000F84642924BF6421C185FFF740B8002159
:105A700080F84F10FFF73BB8B1F8AC2043F2343355
:105A8000008902EBC202C3F23333A2FB032340BA04
:105A900003F12002A1F89800A1F8AC2027E0B1F8AA
:105AA000B02043F23433008902EBC202C3F2333335
:105AB000A2FB032340BA03F12002A1F8A400A1F83D
:105AC000B02033E0B1F8AE2043F23433008902EB6A
:105AD000C202C3F23333A2FB032340BA03F1200214
:105AE000A1F89E00A1F8AE203FE0B1F8980065282B
:105AF00001D2642004E0B0F5FA7F03D34FF4FA70CA
:105B0000A1F89800B1F8AC00D42804D8D420A1F8AA
:105B1000AC00FEF7ECBFB0F5697F24BF4FF46970AD
:105B2000A1F8AC00FEF7E3BFB1F8A400652801D2EC
:105B3000642004E0B0F5FA7F03D34FF4FA70A1F8C3
:105B4000A400B1F8B000D42804D8D420A1F8B00043
:105B5000FEF7CDBFB0F5697F24BF4FF46970A1F89F
:105B6000B000FEF7C4BFB1F89E00652801D26420E2
:105B700004E0B0F5FA7F03D34FF4FA70A1F89E0069
:105B8000B1F8AE00D42804D8D420A1F8AE00FEF7B6
:105B9000AEBFB0F5697F24BF4FF46970A1F8AE00C5
:105BA000FEF7A5BF42F63010C2F2000090F83B109D
:105BB000032900F0368400297EF499AF0121A0F872
:105BC0005A10A0F8571090F822100022C82980F827
:105BD0002320C0F0C584C82180F82210FEF787BFBB
:105BE00042F63010C2F20000012180F8401000217E
:105BF00080F84D10A0F84F10FEF779BF42F6301034
:105C0000C2F20000022180F84010002180F84D10FF
:105C1000FEF76DBF0089C82300BA020CC82A38BF3E
:105C2000030C052B98BF0523A1F80431FEF75FBFD5
:105C3000008940F2E73300BA020C9A4238BF030CE5
:105C4000012B98BF0123A1F80E31FEF750BF008948
:105C5000C82300BA020CC82A38BF030C052B98BF12
:105C60000523A1F82A31FEF742BF0089C82300BAF4
:105C7000020CC82A38BF030C052B98BF0523A1F8D6
:105C8000DE30FEF734BF008991F8412040BA012A86
:105C9000A1F808010ED100EB800048F63962A03867
:105CA000C3F6E30250FB02F0421002EBD07290B256
:105CB000A1F80821642800F2BE836420A1F808013D
:105CC000FEF715BF008940F2E73300BA020C9A4292
:105CD00038BF030C012B98BF0123A1F83431FEF724
:105CE00006BF008940F2E73300BA020C9A4238BF7F
:105CF000030C012B98BF0123A1F8E830FEF7F7BE93
:105D0000008991F8412040BA012AA1F82E010ED154
:105D100000EB800048F63962A038C3F6E30250FB7E
:105D200002F0421002EBD07290B2A1F82E2164284A
:105D300000F28A836420A1F82E01FEF7D8BE008904
:105D400091F8412040BA012AA1F8E2000ED100EBFF
:105D5000800048F63962A038C3F6E30250FB02F037
:105D6000421002EBD07290B2A1F8E220642800F257
:105D70007D836420A1F8E200FEF7B9BE008940F2FD
:105D8000E73300BA020C9A4238BF030C012B98BFCC
:105D90000123A1F81631FEF7AABE008940F2E733CD
:105DA00000BA020C9A4238BF030C012B98BF0123A2
:105DB000A1F83C31FEF79BBE008940F2E73300BA00
:105DC000020C9A4238BF030C012B98BF0123A1F8A3
:105DD0000631FEF78CBE008940F2E73300BA020CB0
:105DE0009A4238BF030C012B98BF0123A1F8F03071
:105DF000FEF77DBE008991F8412040BA012AA1F842
:105E000018010ED100EB800048F63962A038C3F6C5
:105E1000E30250FB02F0421002EBD07290B2A1F804
:105E20001821642800F22B836420A1F81801FEF7E2
:105E30005EBE008940F2E73300BA020C9A4238BFD6
:105E4000030C012B98BF0123A1F81E31FEF74FBEB2
:105E5000008940F2E73300BA020C9A4238BF030CC3
:105E6000012B98BF0123A1F82C31FEF740BE008919
:105E700040F2E73300BA020C9A4238BF030C012B00
:105E800098BF0123A1F8E030FEF731BE008991F8F8
:105E9000412040BA012AA1F83E010ED100EB80005A
:105EA00048F63962A038C3F6E30250FB02F0421014
:105EB00002EBD07290B2A1F83E21642800F2E88291
:105EC0006420A1F83E01FEF712BE008940F2E733DC
:105ED00000BA020C9A4238BF030C012B98BF012371
:105EE000A1F84431FEF703BE008991F8412040BA81
:105EF000012AA1F8F2000ED100EB800048F63962C9
:105F0000A038C3F6E30250FB02F0421002EBD0725D
:105F100090B2A1F8F220642800F2CC826420A1F8AB
:105F2000F200FEF7E4BD008940F2E73300BA020C4C
:105F30009A4238BF030C012B98BF0123A1F8F83017
:105F4000FEF7D5BD0089C82300BA020CC82A38BFA5
:105F5000030C052B98BF0523A1F80C31FEF7C7BD34
:105F60000089C82300BA020CC82A38BF030C052BCD
:105F700098BF0523A1F83231FEF7B9BD0089C823C7
:105F800000BA020CC82A38BF030C052B98BF0523A2
:105F9000A1F8E630FEF7ABBD0089C82300BA020CB9
:105FA000C82A38BF030C052B98BF0523A1F81C3164
:105FB000FEF79DBD0089C82300BA020CC82A38BF6D
:105FC000030C052B98BF0523A1F84231FEF78FBDC6
:105FD0000089C82300BA020CC82A38BF030C052B5D
:105FE00098BF0523A1F8F630FEF781BD008991F82E
:105FF000412040BA012AA1F800010ED100EB800037
:1060000048F63962A038C3F6E30250FB02F04210B2
:1060100002EBD07290B2A1F80021642800F2538202
:106020006420A1F80001FEF762BD008991F84120CB
:1060300040BA012AA1F826010ED100EB800048F6F3
:106040003962A038C3F6E30250FB02F0421002EBC3
:10605000D07290B2A1F82621642800F23D8264201B
:10606000A1F82601FEF743BD008991F8412040BA0E
:10607000012AA1F8DA000ED100EB800048F639625F
:10608000A038C3F6E30250FB02F0421002EBD072DC
:1060900090B2A1F8DA20642800F230826420A1F8DE
:1060A000DA00FEF724BD0089C82300BA020CC82A12
:1060B00038BF030C052B98BF0523A1F81431FEF758
:1060C00016BD008991F8412040BA012AA1F81001BB
:1060D0000ED100EB800048F63962A038C3F6E30227
:1060E00050FB02F0421002EBD07290B2A1F81021E6
:1060F000642800F20C826420A1F81001FEF7F7BCBE
:106100000089C82300BA020CC82A38BF030C052B2B
:1061100098BF0523A1F83A31FEF7E9BC008991F850
:10612000412040BA012AA1F836010ED100EB8000CF
:1061300048F63962A038C3F6E30250FB02F0421081
:1061400002EBD07290B2A1F83621642800F2E88107
:106150006420A1F83601FEF7CABC0089C82300BA42
:10616000020CC82A38BF030C052B98BF0523A1F8E1
:10617000EE30FEF7BCBC008991F8412040BA012AFC
:10618000A1F8EA000ED100EB800048F63962A03891
:10619000C3F6E30250FB02F0421002EBD07290B261
:1061A000A1F8EA20642800F2CD816420A1F8EA0079
:1061B000FEF79DBC43F2343302EBC200C3F233332B
:1061C000A0FB030303F120008A8392B2652A0884AE
:1061D00001D2642204E0B2F5FA7F02D34FF4FA72DE
:1061E0008A8380B2D42803D8D4200884FEF77FBCE9
:1061F000B0F5697F24BF4FF469700884FEF777BC5F
:1062000091F84100012800F0BB8100287EF46FACBA
:10621000888B4FF4FA72B0F5FA7F38BF421CA4E0C5
:1062200040F2A015C2F200052878002840F009824B
:106230004FF00110C4F855000020E08384F82300DB
:1062400094F8410001210028A4F85A1084F889101C
:1062500000F0D081012840F0DD81B4F8AA0048F6B2
:106260003961208400EB8000A038C3F6E30150FBC5
:1062700001F0411001EBD070A083A4F89200C9E1B5
:106280000021C185FEF733BC40F2A215C2F2000521
:106290002878002840F002820120A4F85A004FF02C
:1062A0000110C4F855000020E08384F8230094F81E
:1062B00041000221002884F8891000F0C8810128DB
:1062C00040F0D581B4F8AC0048F63961208400EB89
:1062D0008000A038C3F6E30150FB01F0411001EB50
:1062E000D070A083A4F89800C1E140F2A415C2F2D6
:1062F00000052878002840F0FE810120A4F85A000B
:106300004FF00110C4F855000020E08384F823000A
:1063100094F841000321002884F8891000F0C4811A
:10632000012840F0D181B4F8AE0048F639612084EC
:1063300000EB8000A038C3F6E30150FB01F04110F0
:1063400001EBD070A083A4F89E00BDE191F841005C
:10635000012800F0388100287EF4C9AB888B421DEB
:10636000B0F5F77F88BF4FF4FA7202EBC20043F238
:106370003433C3F23333A0FB030303F120008A83D9
:106380000884FEF7B4BB40F2A614C2F200042078E1
:10639000002840F0E0810120A5F85A004FF00110DC
:1063A000C5F855000020E88385F8230095F84100E2
:1063B0000421002885F8891000F0A681012840F00A
:1063C000B381B5F8B00048F63961288400EB80004D
:1063D000A038C3F6E30150FB01F0411001EBD0708F
:1063E000A883A5F8A4009FE190F8241001220A29AF
:1063F000A0F85A208CBF05390521B7E090F8241089
:106400000122C329A0F85A2013D20531AEE090F83A
:10641000241001220529A0F85A208CBF013905213A
:10642000A4E090F824100122C829A0F85A20C0F056
:106430009C80C8219AE0B0F5FA7F24BF4FF4FA702F
:10644000A1F80801FEF753BBB0F5FA7F24BF4FF463
:10645000FA70A1F82E01FEF74ABBB0F5FA7F24BF0F
:106460004FF4FA70A1F8BA00FEF741BBB0F5FA7F1D
:1064700024BF4FF4FA70A1F8E200FEF738BBB0F584
:10648000FA7F24BF4FF4FA70A1F81801FEF72FBB72
:10649000B0F5FA7F24BF4FF4FA70A1F83E01FEF781
:1064A00026BBB0F5FA7F24BF4FF4FA70A1F8CA00FA
:1064B000FEF71DBBB0F5FA7F24BF4FF4FA70A1F8C8
:1064C000F200FEF714BBB0F5FA7F24BF4FF4FA7068
:1064D000A1F80001FEF70BBBB0F5FA7F24BF4FF423
:1064E000FA70A1F82601FEF702BBB0F5FA7F24BFCF
:1064F0004FF4FA70A1F8B200FEF7F9BAB0F5FA7FDE
:1065000024BF4FF4FA70A1F8DA00FEF7F0BAB0F544
:10651000FA7F24BF4FF4FA70A1F81001FEF7E7BA32
:10652000B0F5FA7F24BF4FF4FA70A1F83601FEF7F8
:10653000DEBAB0F5FA7F24BF4FF4FA70A1F8C200BA
:10654000FEF7D5BAB0F5FA7F24BF4FF4FA70A1F880
:10655000EA00FEF7CCBA013980F82210FEF7C7BA7C
:10656000013180F82210FEF7C2BA013180F8241000
:10657000FEF7BDBA088CD422D42888BF421E10E092
:10658000088C4FF46972B0F5697F38BF421C0A84E9
:1065900002EB82000AE0088CA0F12602FB2838BF3B
:1065A000D42290B2800010FA82F00A8448F6396250
:1065B000A038C3F6E30250FB02F0420802EBD070B1
:1065C0008883FEF794BA088C40F27D3300F12602EE
:1065D000984288BF4FF4697202EB820048F6396333
:1065E000A038C3F6E303A0FB030358080A8488839A
:1065F000FEF77DBAB4F8920043F2343200EBC001EA
:10660000C3F23332A1FB0212A08302F120002084E6
:10661000A4F8AA0094F89400B4F8961084F8220024
:1066200042F6B420C2F20000E184A4F88A100021EE
:10663000D0F8046184F8541045F254010222012379
:10664000B04740F2A1110020C2F2000158E0B4F8B6
:10665000980043F2343200EBC001C3F23332A1FBA5
:106660000212A08302F120002084A4F8AC0094F868
:106670009A00B4F89C1084F8220042F6B420C2F2CA
:106680000000E184A4F88A100021D0F8046184F8A5
:10669000541045F2540102220223B04740F2A311E4
:1066A0000020C2F200012BE0B4F89E0043F2343225
:1066B00000EBC001C3F23332A1FB0212A08302F14E
:1066C00020002084A4F8AE0094F8A000B4F8A21032
:1066D00084F8220042F6B420C2F20000E184A4F85B
:1066E0008A100021D0F8046184F8541045F2540156
:1066F00002220323B04740F2A5110020C2F200019C
:1067000028700870FEF7F3B9B5F8A40043F23432EC
:1067100000EBC001C3F23332A1FB0212A88302F1E5
:1067200020002884A5F8B00095F8A600B5F8A810B8
:1067300085F8220042F6B420C2F20000E984A5F8F0
:106740008A100021D0F8046185F8541045F25401F4
:1067500002220423B04740F2A7110020C2F2000138
:1067600020700870FEF7C3B9238C48F6396103EB3B
:106770008300A038C3F6E30150FB01F0410801EBB0
:10678000D070A4F8AA30A4F8920042F6B420C2F265
:106790000000D0F8046145F215010222B047B4F8B8
:1067A000943042F6B420C2F20000D0F8046145F201
:1067B00016016AE0238C48F6396103EB8300A038A8
:1067C000C3F6E30150FB01F0410801EBD070A4F8DF
:1067D000AC30A4F8980042F6B420C2F20000D0F821
:1067E000046145F218010222B047B4F89A3042F62B
:1067F000B420C2F20000D0F8046145F2190144E06F
:10680000238C48F6396103EB8300A038C3F6E3011B
:1068100050FB01F0410801EBD070A4F8AE30A4F8B1
:106820009E0042F6B420C2F20000D0F8046145F2A6
:106830001B010222B047B4F8A03042F6B420C2F2E5
:106840000000D0F8046145F21C011EE02B8C48F6D4
:10685000396103EB8300A038C3F6E30150FB01F07C
:10686000410801EBD070A5F8B030A5F8A400D4F829
:106870000461204645F21E010222B047B5F8A63059
:10688000D4F80461204645F21F010222B04742F6C7
:10689000D530C2F2000001210170FEF728B90000D6
:1068A00070470000B0B540F20200C2F2000001885B
:1068B00042F63014013901800904C2F200040AD101
:1068C00042F69841C2F200010A68626100220A6041
:1068D0004FF47A71018040F2AA15C2F200052878BF
:1068E000002869D12078012866D142F20040C4F224
:1068F0000100C1680A2241F00701C160416B62F3E7
:1069000004014163816841F4800181600168890765
:1069100009D4016889075CBF01685FEA817102D40C
:1069200001688907F2D5C16C1022C1F38D01616045
:10693000C16841F4E011C160416B62F3040141633D
:10694000816841F4800181600168890709D4016888
:1069500089075CBF01685FEA817102D40168890719
:10696000F2D5C06C40F2DC51C2F200010880088808
:10697000FDF7E8FE43F6E30244F63863CEF28E32CA
:10698000C3F6C873FDF7B7FC4EF636224AF6F55348
:10699000C1F63B32CCF27103FDF706FCFDF70CFFAC
:1069A000411E89B23129A4F8900005D8606880089A
:1069B0007C289CBF0120287094F83B00022840F2FC
:1069C0003000C2F2000018D1018801390A040180A8
:1069D00018D1A28E4FF47A710180501E01B2B1F12C
:1069E000FF3FA0860EDC002084F83B0042F6B0207A
:1069F000C2F200000221017004E0628E4FF47A714D
:106A00000180A28694F85000A0B1012840F0FC81DA
:106A100042F2FC10C2F20000027894F88810DAB159
:106A2000032900F28381DFE801F00295466D94F8B6
:106A30004F1027E042F2FC10C2F20000002101706A
:106A400040F21000C2F200004FF47A72028084F823
:106A50004F10A4F88E10D7E101220329027000F232
:106A60006581DFE801F0027A2B5294F84F104A1E3C
:106A7000D2B2042A06D20FF2105353F82220128801
:106A8000A4F88E20032900F0FA80022900F0BA80D1
:106A9000012940F02B8194F85110002940F04681E3
:106AA00094F84110012900F09181002940F03E81C5
:106AB000B4F8B22033E194F84F100CE094F84F1082
:106AC0004A1ED2B2042A06D20FF29C4353F8222067
:106AD0001288A4F88E20032974D0022962D00129DB
:106AE00040F0A08094F85110002940F01F8194F8E4
:106AF0004110012900F05581002940F01781B4F8B8
:106B000000210CE194F84F100CE094F84F104A1E4D
:106B1000D2B2042A06D20FF2404353F82220128840
:106B2000A4F88E20032900F09C8002295AD0012964
:106B300040F0B38094F85110002940F0F78094F8A9
:106B40004110012900F03981002940F0EF80B4F8AC
:106B50002621E4E094F84F100CE094F84F104A1E00
:106B6000D2B2042A06D20FF2104353F82220128820
:106B7000A4F88E20032900F0AE80022963D00129F9
:106B800040F0C18094F85110002940F0CF8094F873
:106B90004110012900F01D81002940F0C780B4F8A0
:106BA000DA20BCE094F85110002940F0BF8094F83E
:106BB0004110012900F0EC80002940F0B780B4F8C2
:106BC0000821ACE094F85110002940F0AF8094F80F
:106BD0004110012900F0DF80002940F0A780B4F8BF
:106BE00010219CE094F85110002940F09F8094F807
:106BF0004110012900F0D280002940F09780B4F8BC
:106C00002E218CE094F85110002940F08F8094F8E8
:106C10004110012900F0C880002940F08780B4F8B5
:106C2000BA207CE0042940F0818094F851100029BA
:106C30007CD194F84110012900F09E80002975D183
:106C4000B4F818216BE094F8511000296ED194F833
:106C50004110012900F0AB80002967D1B4F8E2208F
:106C60005DE094F85110002960D194F84110012999
:106C700000F0A080002959D1B4F836214FE094F8F3
:106C80005110002952D194F84110012900F0988048
:106C900000294BD1B4F8C22041E0042946D194F830
:106CA0005110002942D194F84110012967D0E9BB65
:106CB000B4F83E31A168A3F10A02914240F21002F9
:106CC000C2F2000203D90A339942C0F090804FF417
:106CD0007A70108098E094F8511039BB94F8411004
:106CE000012970D011BBB4F8EA2018E004291DD1A5
:106CF00094F85110D1B994F84110012942D0A9B9A2
:106D0000B4F8CA200BE0042910D194F8511069B9E5
:106D100094F84110012938D041B9B4F8F220A168A3
:106D2000A2F10A03994268D90A325AE040F21001EE
:106D3000C2F200010988090466D140F21001B4F8DA
:106D40008E30C2F200014FF47A720A80591E0AB2E4
:106D5000B2F1FF3FA4F88E1056DC94F84F200021CA
:106D60000170501CC2B2052A84F84F0024BFA4F859
:106D70008E10A4F84F1047E0B4F81A212BE0B4F8B5
:106D8000402128E0B4F8CC2025E0B4F8F42022E03B
:106D9000B4F80A211FE0B4F812211CE0B4F8302145
:106DA00019E0B4F8022116E0B4F8BC2013E0B4F8FE
:106DB000E42010E0B4F838210DE0B4F828210AE00E
:106DC000B4F8C42007E0B4F8EC2004E0B4F8B42030
:106DD00001E0B4F8DC20A168A2F1120399420CD9B9
:106DE0001232914209D240F21002C2F2000211881E
:106DF00001391180090407D19FE740F21000C2F267
:106E000000004FF47A71018094F85400002840F299
:106E10001200C2F200002BD094F83910012908D1D9
:106E2000002184F8541042F6B021C2F2000102227F
:106E30000A70018801390A04018020D1B4F88C104D
:106E400001390AB2B2F1FF3FA4F88C100CDCB4F89F
:106E50008A100222A4F88C10002184F8541042F603
:106E6000B021C2F200010A704FF47A71018006E08D
:106E7000B4F88A204FF47A710180A4F88C2042F68D
:106E80009C40C2F200000068804742F62840C2F2EF
:106E90000000417B012906D1017B002907BF0221A7
:106EA000417301390173017F00291CBF013901774A
:106EB00042F64C40C2F20000417B012906D1017B21
:106EC000002907BF0221417301390173017F0029A5
:106ED0001CBF0139017742F67040C2F20000417BCD
:106EE000012906D1017B002907BF02214173013925
:106EF0000173017F00291CBF0139017742F6E030A0
:106F0000C2F20000417B012906D1017B002907BFA5
:106F10000221417301390173017F00291CBF01392E
:106F2000017742F60440C2F20000417B012906D1FC
:106F3000017B002907BF0221417301390173017FE1
:106F400000291CBF0139017742F69440C2F20000CB
:106F5000016801310160B0BD5C2A0020642A002074
:106F60006C2A0020742A0020362A00203E2A0020A5
:106F7000462A00204E2A0020102A0020182A00202D
:106F8000202A0020282A0020E8290020F0290020BB
:106F9000F8290020002A002041F20000C4F202007B
:106FA000C16941F08051C16147F25001C4F2000152
:106FB0000A7842F004020A70C16921F08051C1616F
:106FC000016841F0010101600168890709D4016885
:106FD00089075CBF01685FEA817102D40168890793
:106FE000F2D5416821F00301416000BF416811F012
:106FF0000C0F0BD0416811F00C0F07D0416811F055
:107000000C0F03D0416811F00C0FEFD101684FF65F
:10701000FF72CFF6F262114001600021416041F63B
:107020001071C1624FF4801101634FF41F01816040
:107030004EF60850CEF200004FF00061016070473C
:107040002DE9F04F81B040F2100BC4F2000BDBF8D9
:107050000000C00700F0E88142F63017C2F20007D6
:107060003878012840F0C98140F2AC00C2F200003B
:10707000007842F200260128C2F2000617D1B46857
:107080004EF20005C4F2AB6520462946FDF712FB1F
:10709000002804BFB5602C46D6F804804FF080412C
:1070A00040464FF08045FDF705FB40B109E04EF248
:1070B00000040025C4F2AB64C4F2C005B460A84665
:1070C000756040F2B005C2F20005B5F800A042F6C6
:1070D000E06082450AD3D7E95E014FF0000A013033
:1070E00041F10001A5F800A0C7E95E0197F8400052
:1070F000022814D0012840F07D8197F84D00002827
:1071000066D0012840F0838097F83B00022800F009
:107110007180002840F07B80B88B323072E097F8A5
:107120005110B88B40F2B402C2F200020029108064
:1071300040F0608197F85000002850D0012840F0BE
:10714000598140F2B200C2F20000027897F84F1065
:107150008A4206D0017000203062F06170613061B7
:10716000F06097F85300002800F044810020C4F23A
:107170007A4049F69A114EF20008C3F61971C4F22A
:10718000AB6886E803010BF0D3F997F888107860B4
:10719000032900F27C8197F93720104497F93620B3
:1071A000A0EB0209DFE811F0040063014901560178
:1071B00097F84F000138042800F26981DFE810F0E9
:1071C00005008A017B0184016401B7F8B24083E1C4
:1071D00097F83B00022812D0C8B9B88B12E00BF028
:1071E000A7F9786000203062F06170613061F06072
:1071F000F865FFE0B88BF98D0844323002E0B88BB7
:10720000F98D084440F2B401C2F20001088097F8F9
:10721000390090B197F84A1079B1012808BF0129C7
:1072200040F0DA800BF084F978600020F865306275
:10723000F06170613061F060CEE097F85300002893
:1072400000F0CA800BF074F997F9371097F93620DF
:1072500078600844A0EB020940F2AA00C2F20000E4
:10726000018840F2B400C2F20000BD8B0088A94240
:1072700006B20ED000F040FD42F2002187F8370040
:107280000020C2F20001C86140F2AA00C2F2000070
:1072900005800FFA89F906F164014945A6F16400F9
:1072A00051DB48454FDC701D48456DDB701F48457C
:1072B0006ADC40F2AE00C2F20000018801318AB2FD
:1072C0003C2A01806BD30021018040F2AC010120F7
:1072D000C2F2000108700021CCF2FA41204600966B
:1072E000FDF734F94EF20001C4F2AB610446FDF73C
:1072F000B7F942F200250028C2F2000540461CBF43
:107300004EF20004C4F2AB64AC60FDF78DFA49F6AE
:107310009A1249F69913C9F69912CBF6B973FCF78C
:1073200043FF00224FF08043044688464FF0804AD6
:10733000FDF7CEF900287CD020464146FDF787FABC
:10734000009E68602BE049450BDA40F2B0010AF17B
:107350000100C2F2000142F200260880C2F20006DB
:1073600038E0484563DD47F60070C4F23B7040F2F8
:10737000B001F8650AF10100C2F2000142F20026F4
:107380000880C2F2000627E040F2AC010020C2F201
:107390000001087040F2AE01C2F2000108803046E0
:1073A000FDF7B1F904464846FDF7ADF90146204620
:1073B000FDF7AAFA40F2B002C2F200021188F865A5
:1073C0000131118042F200260021C2F20006FDF7D1
:1073D00071F908B90020F86597F83B00032809D136
:1073E0000BF0A6F878600020F8653062F0617061FB
:1073F0003061F06097F83A0028B9FC6D0021204612
:10740000FDF758F908B90024FC652046FDF7C0F9DE
:10741000CBF824004FF08040016841F00101016089
:107420006FF00100CBF8000001B0BDE8F08FF86DFF
:10743000C8E7009EC5F804A0B1E797F84F000138EF
:10744000042824D8DFE800F0032B31252000B7F80A
:10745000004141E097F84F000138042817D8DFE8D1
:1074600000F00327301B1300B7F8264134E097F8EB
:107470004F00013804280AD8DFE800F0032029145F
:107480000600B7F8DA4027E00020A7F84F00F86DB3
:1074900037E0B7F818411FE0B7F83E411CE0B7F8F5
:1074A000084119E0B7F8F24016E0B7F8104113E0D0
:1074B000B7F82E4110E0B7F8C2400DE0B7F8E2404F
:1074C0000AE0B7F8364107E0B7F8CA4004E0B7F879
:1074D000EA4001E0B7F8BA40204600F00DFC87F81A
:1074E00037002046FDF718F904460FFA89F0FDF73A
:1074F0000AF901462046FDF707FA2988F8650131A7
:10750000298000210024FDF7D5F8002808BFFC657C
:10751000C6F808806EE7000040F21040C4F2000098
:107520000168890744BF50F8041C5FEA817100D4E8
:10753000704742F69841C2F200010A6801320A60BF
:107540006FF002010160704710B544F60040C4F2CC
:1075500000000168C168890644BF01685FEA816173
:1075600007D4C168490644BF01685FEA416123D47A
:1075700010BD0168416842F6E031C2F20001D0F866
:1075800004C0B1F800E08A880EF10103B3FBF2F405
:1075900004FB12324B889A420AD08A6802F80EC065
:1075A0000A888B880132B2FBF3F404FB13220A80B1
:1075B0004FF482728A81D4E76FF04001016042F695
:1075C000E031C2F200010B8A4A8A934202D10020C4
:1075D000487710BD8B8A541CB4FBF3FCD1F818E03B
:1075E0000CFB13431EF802204B82426010BD0000CA
:1075F00010B545F20000C4F200000168C1688906B8
:1076000044BF01685FEA816107D4C168490644BF8D
:1076100001685FEA416123D410BD0168416842F608
:107620000441C2F20001D0F804C0B1F800E08A8839
:107630000EF10103B3FBF2F404FB12324B889A42C1
:107640000AD08A6802F80EC00A888B880132B2FB21
:10765000F3F404FB13220A804FF482728A81D4E788
:107660006FF04001016042F60441C2F200010B8A52
:107670004A8A934202D10020487710BD8B8A541C5D
:10768000B4FBF3FCD1F818E00CFB13431EF8022006
:107690004B82426010BD000010B543F60000C4F2FA
:1076A00001000168C168890644BF01685FEA816121
:1076B00007D4C168490644BF01685FEA416121D42B
:1076C00010BD42F62841C2F20001D0F804C0B1F862
:1076D00000E08A880EF10103B3FBF2F404FB1232DE
:1076E0004B889A420AD08A6802F80EC00A888B88B2
:1076F0000132B2FBF3F404FB13220A804FF48272CE
:107700008A81D6E76FF04001016042F62841C2F25B
:1077100000010B8A4A8A934202D10020487710BDAB
:107720008B8A541CB4FBF3FCD1F818E00CFB134318
:107730001EF802204B82426010BD000010B544F2DA
:107740000040C4F200000168C168890644BF0168B6
:107750005FEA816107D4C168490644BF01685FEAF6
:10776000416121D410BD42F64C41C2F20001D0F873
:1077700004C0B1F800E08A880EF10103B3FBF2F413
:1077800004FB12324B889A420AD08A6802F80EC073
:107790000A888B880132B2FBF3F404FB13220A80BF
:1077A0004FF482728A81D6E76FF04001016042F6A1
:1077B0004C41C2F200010B8A4A8A934202D1002056
:1077C000487710BD8B8A541CB4FBF3FCD1F818E049
:1077D0000CFB13431EF802204B82426010BD0000D8
:1077E00010B544F60000C4F200000168C1688906C3
:1077F00044BF01685FEA816107D4C168490644BF9C
:1078000001685FEA416123D410BD0168416842F616
:107810007041C2F20001D0F804C0B1F800E08A88DB
:107820000EF10103B3FBF2F404FB12324B889A42CF
:107830000AD08A6802F80EC00A888B880132B2FB2F
:10784000F3F404FB13220A804FF482728A81D4E796
:107850006FF04001016042F67041C2F200010B8AF4
:107860004A8A934202D10020487710BD8B8A541C6B
:10787000B4FBF3FCD1F818E00CFB13431EF8022014
:107880004B82426010BD0000FEE70000B0B54AF236
:107890005A5CA0F882C0033242F6704C80F8842013
:1078A0008222C2F2000C80F885200A0ABCF810E09F
:1078B00080F88620BCF814200EF10104B4FBF2F528
:1078C00080F8871005FB1241BCF812401A0AA14249
:1078D00080F8882080F8893000F0DF8090F88210EE
:1078E000DCF8182002F80E10BCF81010BCF81420B8
:1078F0000131B1FBF2F303FB12114B1CB3FBF2F5A8
:10790000ACF8101005FB1232BCF812309A4200F0AD
:10791000C48090F88320DCF818305A54BCF810105A
:10792000BCF814200131B1FBF2F303FB12114B1C24
:10793000B3FBF2F5ACF8101005FB1232BCF81230B4
:107940009A4200F0AA8090F88420DCF818305A544B
:10795000BCF81010BCF814200131B1FBF2F303FBAA
:1079600012114B1CB3FBF2F5ACF8101005FB1232F0
:10797000BCF812309A4200F0908090F88520DCF834
:1079800018305A54BCF81010BCF814200131B1FB67
:10799000F2F303FB12114B1CB3FBF2F5ACF8101021
:1079A00005FB1232BCF812309A4276D090F886204D
:1079B000DCF818305A54BCF81010BCF8142001310F
:1079C000B1FBF2F303FB12114B1CB3FBF2F5ACF865
:1079D000101005FB1232BCF812309A425DD090F8BC
:1079E0008720DCF818305A54BCF81010BCF814206A
:1079F0000131B1FBF2F303FB12114B1CB3FBF2F5A7
:107A0000ACF8101005FB1232BCF812309A4244D088
:107A100090F88820DCF818305A54BCF81010BCF8E4
:107A200014200131B1FBF2F303FB12114B1CB3FB29
:107A3000F2F5ACF8101005FB1232BCF812309A4285
:107A40002BD090F88900DCF818205054BCF81010A6
:107A5000BCF814000131B1FBF0F29CF81D3002FBC0
:107A60001012012BACF8102008BFB0BDBCF81210EA
:107A700092B2914201D1002009E04A1CB2FBF0F31E
:107A8000DCF8185003FB1022685CACF81220DCF81C
:107A90002010486001208CF81D00B0BD4EF60C503F
:107AA000BFF34F8FCEF200000168042201F4E061C1
:107AB000C0F2FA5211430160BFF34F8F00BF00BF05
:107AC00000BF00BFFAE7000040F61440C4F2010016
:107AD0004FF480510160704740F61040C4F201003D
:107AE0004FF4805101607047B0B542F63014C2F2D5
:107AF000000494F84200012816D140F2A805C2F211
:107B000000052878DFE800F0036639512F0042F6BF
:107B1000B020C2F200000078022860D0012814BF13
:107B200000200120287007E0FFF7CEFF42F6B020CA
:107B3000C2F200000021017094F83A0090B140F2C6
:107B4000DE50C2F2000001780131CAB2502A017041
:107B500038BFB0BD0021017042F6B020C2F2000073
:107B600002210170B0BDFFF7AFFF42F6B020C2F2B4
:107B70000000002101702970DEE7FFF7ADFF40F241
:107B8000A000C2F20000D0E90012013142F100026F
:107B9000B1F1140372F10003C0E90012CCD3042147
:107BA00029700021C0E90011C6E740F2A000C2F22E
:107BB0000000D0E90012013142F100028B1E72F187
:107BC0000003C0E90012B7D30021C0E9001104206E
:107BD0002870B1E7FFF780FF03202870ACE7022090
:107BE0002870A9E7F0B541F20401C4F202010A6865
:107BF000C2F3810341F20022022BC0F27A020CD0C0
:107C0000002B46D10B6D9B0543D5CB6A9B0144BF2E
:107C100046F60042C0F2DC223BE00B688C6A1F0C87
:107C2000002C1DD40C680B68C4F38344C3F3417368
:107C30001D016E1C0F2C354618BF0225002B18BFE6
:107C40003546FB0705EB040304D00F68BF0301D4DE
:107C50005A431EE040F60012C0F23D025A4318E0BB
:107C60008B6A8C6AC3F3031E8B6A40F6001CC0F259
:107C70003D0CC4F30824FD0703F0070303D00D688F
:107C8000AD0358BF94460CFB04F20EFA03F3B2FBAB
:107C9000F3F202600B6812A7C3F30313FB5C44F614
:107CA0008027DA4042600B68C0F60107C3F3022365
:107CB000FB5C22FA03F3C3600B68C3F3C223FB5CD3
:107CC0000427DA4082600B68096807EA9363C1F30E
:107CD0008131194406A3595CB2FBF1F10161F0BD99
:107CE000000000000000000001020304060708096C
:107CF00002040608020C081082B0002265288DF8E4
:107D00000720ADF804208DF80320C0F08C8042F6E7
:107D10003011C2F2000191F822101F2928D38208E5
:107D200000214A2A8DF8031050D86422ADF80420AF
:107D30008DF807109DF8071013296DD844F6882197
:107D4000C0F60101BDF804209DF803301A448242B8
:107D500066D2BDF804200A32ADF804209DF8072051
:107D600001328DF807209DF80720142AEAD357E046
:107D70000139132957D881084A298DF8032055D88D
:107D80006421ADF804108DF807209DF80710132921
:107D900049D844F6B121C0F6010100BFBDF8042066
:107DA0009DF803301A4482423AD2BDF804200A32C8
:107DB000ADF804209DF8072001328DF807209DF8CA
:107DC0000720142A4FF00002E8D32CE04FF49671FC
:107DD000ADF8041014218DF807109DF8071027291D
:107DE0001AD844F68821C0F6010100BFBDF804206E
:107DF0009DF803301A44824212D2BDF804200A32A0
:107E0000ADF804209DF8072001328DF807209DF879
:107E10000720282AEAD303E044F68821C0F60101AE
:107E20009DF807000A5C50B202B070474FF496719B
:107E3000ADF8041014218DF807109DF807102729BC
:107E40001AD844F6B121C0F6010100BFBDF80420E4
:107E50009DF803301A448242E2D2BDF804200A326F
:107E6000ADF804209DF8072001328DF807209DF819
:107E70000720282AEAD3D3E744F6B121C0F601014E
:107E8000CEE700002DE9F04F8DB042F6301BC2F274
:107E9000000B9BF8000001281CBF0DB0BDE8F08F5F
:107EA00040F2B709C2F2000999F8000042F6B42A7C
:107EB0000928C2F2000A02F23380DFE810F00A005B
:107EC000E30137017301540009025202B301470371
:107ED000DE0042F6CC39C2F2000999F80000DFE872
:107EE00010F009003A0609061406CC0544064F06B0
:107EF0002906610642F23E20C2F2000002789BF899
:107F00004E108A4241F0A78040F23900C2F20000D0
:107F100003789BF839108B4241F0ED8142F23F210A
:107F2000C2F200010A789BF85500824241F0528566
:107F3000002801F0E885BBF81E20BBF81C108A421F
:107F400001F0E18540F23A00C2F200000288013AF5
:107F50001304028041F0DD8108220280ABF81E107C
:107F6000032501F0D7B942F6D035C2F200052878D2
:107F7000DFE810F010007B075B076B0743078F07F4
:107F8000A4077307CE075307AC0731074B079707C2
:107F90002907630740F20E00C2F2000003789BF845
:107FA00040109BF852208B4242F2FA13C2F20003B7
:107FB00041F071811F78974241F06D8140F20D00D0
:107FC000C2F2000002789BF841108A4241F0D88446
:107FD00040F20B00C2F2000002789BF842108A4285
:107FE00041F0468540F20C00C2F2000002789BF896
:107FF00043108A4241F0A38640F20A00C2F2000018
:1080000002789BF84A108A4241F0F68640F2080056
:10801000C2F2000002789BF844108A4241F01C87AB
:1080200040F20900C2F2000002789BF845105B465E
:108030008A4241F01B8740F20600C2F2000002783B
:1080400093F846108A4241F0148742F2FB10C2F2C4
:108050000000027893F84C108A4241F00D8740F2FC
:108060000700C2F20000027893F84D108A421ABF4E
:1080700001700126002601F001BF9BF84E001A286E
:1080800041F0888042F6C535C2F200052878002408
:10809000DFE810F00C007F0850083A08120860086A
:1080A0007F0868087F08450820082B0842F237211E
:1080B000C2F200010A7842F2362040F23207C2F2E0
:1080C00000000132C2F2000703780A7039789BF889
:1080D00050600133B142037041F03C8240F23307FB
:1080E000C2F200073C789BF84F60B44241F0AF8485
:1080F00042F23227C2F200073C88BBF98E60B442DC
:1081000041F01486DBB20A2BC1F0578642F23022CE
:10811000C2F200021788DBF8083000210024BB42BD
:108120001CBF13800524017001F033B842F6CD3531
:10813000C2F200052878DFE810F005008A02650227
:108140007F025A0242F24420C2F2000002789BF8F9
:108150004E108A4240F0418542F24520C2F20000B2
:1081600002789BF83B108A4240F07A8742F2432023
:10817000C2F2000002789BF854108A4241F08E81CE
:1081800042F24620C2F200000288002901F0658414
:10819000BBF98C108A4200F07E8789B201800224EC
:1081A00000F085BF42F6C636C2F2000630783028AD
:1081B00001F2CC83DFE810F03100E80AC00AD00AEF
:1081C000700A110B2E0BDB0A490B990A3C0B650A4E
:1081D0008A0A210B520ACB0A400A020B370B7E0B8C
:1081E0000C0B1C0B690B930BB10AA40AB50B2E0ADE
:1081F0009B0BA80B540BF50A590B570A330A1A0AA2
:108200001F0A080AB00B760B7D0A070B8B0BFB09C4
:108210004D0A610BBD0B150A5C0A04F08FFE054682
:1082200001F079BD9BF84E0042F6C7361A28C2F21B
:10823000000600F0B381022841F09C8330780128C9
:1082400000F02684002841F09583DBF804009BF9B8
:1082500037109BF936200844801AFCF75DFA00219C
:108260009BF84D40CCF248210546FCF76FF9012CF4
:1082700018BF2846FCF773FA40F21401C2F200015D
:1082800040BAA0E19BF84E001A2800F23F8301217A
:1082900006228140C0F20042114200F037839BF871
:1082A0003810002900F09881012940F02F839BF8B5
:1082B000391029B942F6CE32C2F2000201231370FE
:1082C0009BF83B20032A40F008839BF824101BE313
:1082D00042F6C435C2F2000529780220DFE811F029
:1082E0000F00F00C10051D05EC04370550052B059B
:1082F000680504055C05C804F8044405A30440F2BD
:108300000400C2F2000002789BF889108A4240F013
:10831000BE87501E032801F2B884DFE810F0040085
:108320009E0C610C850CBBF81C00BBF892108842B7
:1083300041F0AD84BBF82000BBF8AA10884241F0A0
:10834000A6849BF82200BBF89410814241F09F84E0
:10835000BBF82600BBF89610884241F0988401F0E3
:1083600094BC42F6D435C2F2000529780120DFE83A
:1083700011F00600B60179018101D501D4019BF805
:108380004000012803D0022841F0F0861A2042F66E
:108390007041C2F200010B8A8A8A5F1CB7FBF2F6B9
:1083A00006FB12774E8A40F28802C2F20002B74200
:1083B000507201F0D98617788E69F7540B8A8F8A2C
:1083C0000133B3FBF7F606FB17335E1CB6FBF7F47D
:1083D0000B8204FB17674E8AB74201F0C5865778B7
:1083E0008E69F7540B8A8F8A0133B3FBF7F606FBCD
:1083F00017335E1CB6FBF7F40B8204FB17674E8A3B
:10840000B74201F0B18697788E69F7540B8A8F8A4C
:108410000133B3FBF7F606FB17335E1CB6FBF7F42C
:108420000B8204FB17674E8AB74201F09D86D7780E
:108430008E69F7540B8A8F8A0133B3FBF7F606FB7C
:1084400017335E1CB6FBF7F40B8204FB17674E8AEA
:10845000B74201F0898617798E69F7540B8A8F8AA3
:108460000133B3FBF7F606FB17335E1CB6FBF7F4DC
:108470000B8204FB17674E8AB74201F07586577965
:108480008E69F7540B8A8F8A0133B3FBF7F606FB2C
:1084900017335E1CB6FBF7F40B8204FB17674E8A9A
:1084A000B74201F0618697798E69F7540B8A8F8AFB
:1084B0000133B3FBF7F606FB17335E1CB6FBF7F48C
:1084C0000B8204FB17674E8AB74201F04D86D779BD
:1084D0008E69F7540B8A8F8A0133B3FBF7F606FBDC
:1084E00017335E1CB6FBF7F40B8204FB17674E8A4A
:1084F000B74201F03986177A8E69F7540B8A8F8A52
:108500000133B3FBF7F606FB17335E1CB6FBF7F43B
:108510000B8204FB17674E8AB74201F02586527A18
:108520008F69FA540B8A8A8A0133B3FBF2F74E7FC4
:1085300007FB1237012E0F8201F016864B8ABFB25D
:10854000BB4241F00586002201F00ABE42F6C83661
:10855000C2F200063078DFE810F008006D024C022D
:1085600057023D0275028102620242F23D29C2F2C7
:10857000000999F800009BF84D20471CDBF8040027
:108580009BF93710012A89F8007040F0CC849BF9E0
:1085900036200844801A323800F0C9BC30780128EF
:1085A00000F08582002841F0E581DBF804009BF9AA
:1085B00037109BF936200844801A40F2140100BAA3
:1085C000C2F20001000C888102200E220CF034F966
:1085D0003078013001F0CFB99BF822100022CBF89F
:1085E000181042F6CE31C2F200010A708EE19BF8FB
:1085F0004E00012800F02383022840F04C8545F20C
:1086000012011EE39BF84E00022800F0208301288F
:1086100040F041859BF83B00DAF8047102280CBF5A
:10862000BBF83430BBF88C3042F6B420C2F2000004
:1086300045F2080100F02DBD9BF84E00012800F026
:108640002583022840F0678346F2031120E39BF85C
:108650004E00012800F02583022840F06A8346F28C
:10866000031120E3DAF804719BF85230504645F2CA
:108670003C0109E042F6D530C2F20000DAF804719C
:108680000378504645F249010222B84701219BF880
:108690004E0029700E2841F027849BF83B009BF880
:1086A0004D10022818BF012941F0358442F6D1321D
:1086B000C2F200021378002B41F02D8401231370C5
:1086C00042F6D232C2F20002117042F6D331C2F247
:1086D0000001087000208BF83B0001F01ABC9BF8E9
:1086E0005200002800F0998442F24E209BF84E1070
:1086F000C2F200000288142904BF0132028092B243
:10870000012A08D0142902D1B2F5C87FBED30021B6
:1087100001808BF852100221B9E71A2042F670410D
:10872000C2F200010B8A8A8A5F1CB7FBF2F606FBD5
:1087300012774E8A40F28802C2F20002B7425072AB
:1087400001F0CE8317788E69F7540B8A8F8A013334
:10875000B3FBF7F606FB17335E1CB6FBF7F40B8290
:1087600004FB17674E8AB74201F0BA8357788E69C7
:10877000F7540B8A8F8A0133B3FBF7F606FB1733E6
:108780005E1CB6FBF7F40B8204FB17674E8AB742F8
:1087900001F0A68397788E69F7540B8A8F8A01338C
:1087A000B3FBF7F606FB17335E1CB6FBF7F40B8240
:1087B00004FB17674E8AB74201F09283D7788E691F
:1087C000F7540B8A8F8A0133B3FBF7F606FB173396
:1087D0005E1CB6FBF7F40B8204FB17674E8AB742A8
:1087E00001F07E8317798E69F7540B8A8F8A0133E3
:1087F000B3FBF7F606FB17335E1CB6FBF7F40B82F0
:1088000004FB17674E8AB74201F06A8357798E6975
:10881000F7540B8A8F8A0133B3FBF7F606FB173345
:108820005E1CB6FBF7F40B8204FB17674E8AB74257
:1088300001F0568397798E69F7540B8A8F8A01333A
:10884000B3FBF7F606FB17335E1CB6FBF7F40B829F
:1088500004FB17674E8AB74201F04283D7798E69CD
:10886000F7540B8A8F8A0133B3FBF7F606FB1733F5
:108870005E1CB6FBF7F40B8204FB17674E8AB74207
:1088800001F02E83177A8E69F7540B8A8F8A013391
:10889000B3FBF7F606FB17335E1CB6FBF7F40B824F
:1088A00004FB17674E8AB74201F01A83527A8F6928
:1088B000FA540B8A8A8A0133B3FBF2F74E7F07FB27
:1088C0001237012E0F8201F00B834B8ABFB2BB42DD
:1088D00041F0FA82002201F0FFBA12F0FD0F15D12B
:1088E00001290FD19BF84A1001290BD142F6CE3154
:1088F000C2F200010978012904D19BF85710002920
:1089000001F019829BF82210CBF8181042F6CF35EF
:10891000C2F200052978DFE801F004442A33204C34
:10892000550042F24A21C2F200010A78824240F028
:1089300065819BF83B10032900F0B685002940F0C3
:10894000AA8342F24821C2F200010A78012A41F0CA
:108950004780002008700424A9E3DAF80471504627
:1089600045F2040102220023B84705249FE30128B1
:1089700000F07F83022840F0998346F2F3017AE306
:10898000022800F07F83012840F08583DAF8047123
:10899000BBF81830504645F20E010222B8470624B3
:1089A00085E3DAF80471504645F2040102220123FE
:1089B0007FE1012800F07183022840F0778346F2BE
:1089C000F3016CE3DAF80471BBF81830504645F255
:1089D0000C015EE39BF83B000025002800F0618459
:1089E000032800F05D84022841F09581012500F004
:1089F00058BCDAF80471504645F205010222002302
:108A00000025B84701F087B99BF83800DAF80471FF
:108A1000B0FA80F04309504645F2020119E042F2F3
:108A20001C30C2F20000DAF804710378504645F2B7
:108A30000A010EE0DAF80471504645F205010222FF
:108A4000012307E0DAF804719BF83A3050464FF4FE
:108A5000A0410222B847002501F05DB942F21C3066
:108A6000C2F20000DAF804710378504645F20901B9
:108A70000222B847072501F04EB9DAF804715046D2
:108A800045F2030102220023B847052500F042BC4D
:108A90009BF8380020B1012840F06C87DBF8180003
:108AA00040F22201C2F20001487300F05FBF9BF860
:108AB0005000002800F07183012840F05B879BF88C
:108AC0008800032800F25687DFE810F004000E0843
:108AD000F007FF079BF84F000138032800F24A8790
:108AE000DFE810F00400AE099909A5099BF8B6402B
:108AF00000F037BF9BF84E00012800F05683022893
:108B000040F0BF8346F2C30151E39BF84E000228B8
:108B100000F0568301286ED142F6CA30C2F200003E
:108B2000DAF804710388504645F207010222B8477B
:108B30000725EFE39BF84100012800F04983002856
:108B400040F0E78349F6991549F69A16C3F6D975A8
:108B5000C9F6991644E3DAF80471504645F2030168
:108B6000022201230225B847D4E39BF84E000128D6
:108B700000F04A83022840F0878346F2C30145E3B0
:108B80009BF84E00022800F04A83012833D1DAF81E
:108B90000471BBF80830504645F207010222B8477D
:108BA0000825B7E39BF84100002800F04283012824
:108BB00040F0AF83DBF80800DAF804418108E829C7
:108BC00000F25583FBF7BEFD47F6E1224EF2471354
:108BD000CAF61462C3F6CA733CE39BF854309BF8A0
:108BE0003B200124002B08BF03240127022A08BFD1
:108BF0003C4601705BE2D04600258EE3421E012A0E
:108C000000F21E879BF83B20032A00F00D87002A04
:108C100040F016870122ABF8572042F24B22C2F2F5
:108C2000000200F00BBF9BF88930DAF8047150465F
:108C300045F254010222B847002001F041B845F244
:108C40000801DAF80471BBF82630504621E29BF89F
:108C50003B00DAF8047102280CBFBBF83430BBF8D3
:108C60008C3042F6B420C2F2000045F2120110E24C
:108C70009BF84100012800F03784002840F04B8425
:108C8000DAF80471BBF8A43000F032BC46F23301CC
:108C9000DAF80471504602224FF6FF73B8470424F5
:108CA00005E246F23301DAF804715046022244F23A
:108CB00050730224B847FAE1DAF80471BBF8963031
:108CC000504645F217010222B847052000F0F8BFD0
:108CD000DAF80471BBF8A630504645F21F010222B3
:108CE000B8470D2000F0ECBFDAF80471BBF8A030F3
:108CF000504645F21C010222B8470A2000F0E0BFAE
:108D00009BF84100002800F0FA83012840F01C8401
:108D10000BF1AA00F5E30424C9E1DAF80471BBF809
:108D20009430504645F216010222B847042000F064
:108D3000C7BF0224BBE1DAF80471BBF89C3050468F
:108D400045F21A010222B847082000F0B9BF9BF88B
:108D50004100012800F0E183002840F0F783DAF8B1
:108D60000471BBF89830DCE3DAF80471BBF8A83082
:108D7000504645F220010222B8470E2000F0A0BF65
:108D8000DAF80471BBF89A30504645F21901022214
:108D9000B847072000F094BFDAF80471BBF8A2309E
:108DA000504645F21D010222B8470B2000F088BF53
:108DB0009BF84100002800F0BB83012840F0C883E5
:108DC0000BF1AE00B6E3DAF80471BBF8323050466E
:108DD00045F23401E1E342F25020C2F2000040F2D9
:108DE00040010078C2F200010026887102200922A9
:108DF000A1F807600BF020FDD2E3DAF804719BF8CC
:108E00004330504645F23001C7E3DAF804719BF86D
:108E10004C30504645F23801BFE3DAF804719BF854
:108E20004A30504645F24501B7E3DAF804719BF841
:108E30004130504645F22E01AFE3DAF804719BF859
:108E40004D30504645F23E01A7E3DAF804719BF835
:108E50004230504645F22F019FE3DAF804719BF847
:108E60004630504645F2320197E39BF840009BF8AC
:108E70004D10012808BF012900F06F83012808BFA9
:108E8000002900F09D85022840F0A285022300F011
:108E900098BDDAF804719BF84430504645F2310130
:108EA0007BE39BF84100012800F05983002840F043
:108EB0007C83DAF80471BBF82E305FE3DAF80471D2
:108EC0009BF84530504645F2440166E342F6DC30FB
:108ED000C2F20000007840F2930142F6DA32002834
:108EE00018BF0420C2F20001C2F200021278087218
:108EF00042F6D830C2F20000002A18BF04220078DF
:108F0000CA718871022009220BF096FC0B2647E3F8
:108F10009BF84100002800F03883012840F03F838F
:108F20000BF1200033E39BF936200844801A9BF8AC
:108F30004010012913D19BF83B10032909D09BF85D
:108F40003910002900F01F859BF84A10002900F015
:108F50001A85002042F21C31C2F20001087040F272
:108F60003700C2F2000002789BF8381042F2392430
:108F7000D0468A42C2F200044BD140F23800C2F21D
:108F8000000002789BF83B108A4240F0938140F247
:108F90003600C2F2000002789BF83A108A4240F094
:108FA0000C8542F23A20C2F20000027821788A420F
:108FB00040F06A8542F23B2042F21C31C2F20000CE
:108FC000C2F2000102780B789A4240F0BB8642F26E
:108FD0003C2AC2F2000ADBF85C009AF80050FBF76A
:108FE000BEFB46F669514843000E85424FF000052E
:108FF00000F04F85F9B21029C0F04B859BF84E1058
:1090000089F80050012940F044858AF8000000F0FA
:10901000A8BE0170032500F03CBD42F6D530C2F277
:1090200000000178012940F0488142F24E22C2F24C
:10903000000211884B1C9FB200294FF0010108BFAC
:109040000321C82F1380FFF422AB0021118001708F
:109050000321FFF71CBB4A1E012A40F2508157E151
:109060000324022908BF0124002918BF012101702F
:109070001DE046F26301DAF804715046022243F61D
:109080007F4312E0DAF80471BBF81830504645F21D
:1090900011010222B847002409E046F26301DAF820
:1090A0000471504602224FF6FF73B847032499F823
:1090B00000002C7000F031BF9BF84F000138C0B2A7
:1090C000032866D80FF6F05151F82000DAF8047141
:1090D000038858E0DAF80471504646F29301022200
:1090E0004FF6FF73B8470B2028709BF850000028FC
:1090F00000F0F78001284BD1DAF80471BBF88E300C
:10910000504645F2410141E0DAF804719BF84F30D6
:10911000504645F243010222B847042439E0DAF808
:109120000471504646F29301022244F25073B8474C
:109130000B242EE0DAF804719BF85030504645F2CB
:1091400042010222B8479BF850000A24012808BFB8
:1091500009241EE0DAF80471BBF80830504645F2E5
:109160003F0113E0DBF808109BF838009BF825302E
:10917000DAF80471BBF81820452998BF1346012876
:1091800018BF13469BB2504645F240010222B84731
:1091900000242C70002000F0C1BEDBF8040047283A
:1091A000C0F0D6839BF82540DBE346F20301DAF8F2
:1091B0000471504602224FF66043B8470325A9E0E8
:1091C00042F6CA30C2F20000DAF8047103882AE0DD
:1091D0004EF2471547F6E126C3F6CA75CAF614667D
:1091E00042F6CA30C2F200000088DAF80441FBF708
:1091F000A9FA02460B4630462946FBF77CF8FBF7F6
:10920000DBFA034650462EE046F20301DAF8047119
:10921000504602224FF6FF73B84706257AE0DAF887
:109220000471BBF80830504645F210010222B847DD
:109230006FE0DBF80800DAF8044181087C2916D8D1
:10924000FBF780FA49F69A1249F69913C9F6991272
:10925000C3F6D973FBF74FF8FBF7AEFA034642F6B5
:10926000B420C2F2000045F20B01022207E042F6F0
:10927000B420C2F2000045F20B010222C823A0472D
:1092800047E0D046032548E0D046062545E001707A
:109290000E2000F0FFBC01701A70012600F0EFBD37
:1092A0000225DAF80471504645F2010102222B46EC
:1092B000FFF7D0BB01700425EBE39BF84E009BF851
:1092C0004010282808BF012900F0C58302294FF06B
:1092D000010108BF05210122282818BF1146FFF708
:1092E000D6B9DAF80471504645F241010222002352
:1092F0000024B8474DE7013A012A09D841B90122B3
:10930000ABF8552042F23F22C2F200020023137054
:10931000017000259BF84E00D0461A2889F80050AD
:109320005FD8012101FA00F00621C0F20041084295
:1093300057D09BF8417027B1012F0AD10BF12000C3
:1093400001E00BF11C00008842F6CA31C2F20001B4
:109350000880DBF804509BF937009BF9361028444D
:10936000401AFBF7D9F906469BF84D009BF8409050
:1093700080F0010089F0010140EA01040021CCF2F3
:1093800048213046FBF7E2F8210618BF3046012F8E
:1093900030D037BB9BF839109BF84A209BF83B40F4
:1093A0009BF843A081F0010182F0010206462846A5
:1093B00041EA0207FBF7B0F9032C08BF3046002F43
:1093C00018BF3046FBF7E4F9BBF89020904288BF05
:1093D0000246B9F1010FCBF8082008BFBAF1010F1E
:1093E0004FD040F2B709C2F2000999F80000C24616
:1093F00000F093BD9BF83910012911D19BF84A1058
:1094000001290DD14CF6CD4105EBC500CCF6CC4180
:10941000A0FB0101202000EB9100FBF77DF909E0A2
:1094200046F26761C3F6E671FBF7E8F84FF0844156
:10943000FBF78CF8FBF7ACF9BBF8901043F2343231
:1094400001EBC101C3F23332A1FB021202F1200190
:10945000814288BF0846B9F1010FCBF80800C0D19E
:109460009BF843100129BCD1BBF8201001F1240264
:109470009042B6D2A1F124029042B2D9CBF80810A2
:10948000AFE7BBF81C1001F114008242A9D2A1F190
:109490001400824288BFCBF80810A2E701240029FB
:1094A00008BF0324017002E642F24820C2F2000025
:1094B0000178002900F0C78242F24920C2F2000080
:1094C00002789BF824108A423FF4E5AD40F23E0258
:1094D000C2F200021388013B1F0413807FF4DBAD4E
:1094E000082313800170E1E5DAF80471BBF8B030AD
:1094F000504645F21E010222B8470C20E0E30BF172
:109500009200DAF804710388504645F215010222F0
:10951000B8470320D4E30C20D2E3DAF80471BBF897
:10952000AC30504645F218010222B8470620C7E386
:109530000BF19E00DAF804710388504645F21B01D6
:109540000222B8470920BBE30320B9E30620B7E3B2
:109550000920B5E33E7002241BE6002331E2BBF88C
:109560002E0043F2343100EBC000C3F23331A0FBD4
:109570000101DAF8047101F1200083B2504645F28E
:1095800033010222B8470E260AE00BF11C00DAF87C
:1095900004710388504645F235010222B84700267F
:1095A00099F800002E7000F0B8BC0E26F8E79BF882
:1095B0004100012800F0C682002840F0AA83DAF8B2
:1095C0000471BBF836318FE39BF84100012800F0AD
:1095D000BE82002840F09D83DAF80471BBF8263182
:1095E000FAE2DAF80471BBF842317CE1DAF804718E
:1095F000BBF81C3177E1DAF80471BBF81E31504634
:1096000045F22D010222B8479BF85250002D18BF99
:10961000252580E3DAF80471BBF8063146E19BF8B2
:109620004100012800F09882002840F07283DAF8A7
:109630000471BBF8183167E39BF84100012800F082
:109640009082002840F06583DAF80471BBF8E230BC
:1096500052E3DAF80471BBF83A310AE1DAF804713E
:10966000BBF8DE3061E1DAF80471BBF8163108E1CD
:10967000DAF80471BBF84431504645F22D01FFF78A
:10968000E8B9DAF80471BBF8CE30504645F22C0147
:109690000222B8470C253EE39BF84100012800F068
:1096A0006582002840F08D82DAF80471BBF8BA3088
:1096B00060E29BF84100012800F06382002840F03E
:1096C0002883DAF80471BBF82E3115E3DAF8047157
:1096D000BBF8D030504645F22D010222B8479BF826
:1096E0005250002D18BF0D2515E3DAF80471BBF8B0
:1096F000C830504645F22A010222B8470A250AE33B
:109700009BF84100012800F04182002840F00183CD
:10971000DAF80471BBF800315EE2DAF80471BBF8E4
:10972000F830504645F22D010222B8479BF85250BE
:10973000002D18BF1925EEE2DAF80471BBF8B63037
:10974000504645F223010222B8470325E3E2DAF846
:109750000471BBF8E030A9E0DAF80471BBF8B83066
:10976000504645F224010222B8470425D3E29BF873
:109770004100012800F00F82002840F0A682DAF8AC
:109780000471BBF8C2300AE29BF84100012800F0E6
:109790000D82002840F09B82DAF80471BBF8B230E9
:1097A00008E29BF84100012800F00D82002840F0FB
:1097B000B082DAF80471BBF8103195E2DAF804717E
:1097C000BBF8E630A4E0DAF80471BBF832319FE070
:1097D000DAF80471BBF8EE304BE0DAF80471BBF84C
:1097E000BE30504645F226010222B847062592E2D5
:1097F000DAF80471BBF8F03043E09BF8410001282F
:1098000000F0E681002840F08482DAF80471BBF8A9
:10981000DA30E1E1DAF80471BBF8C030504645F2C5
:109820002701FFF725B9DAF80471BBF8E83052E0F8
:109830009BF84100012800F0EC81002840F04982AB
:10984000DAF80471BBF8CA30E7E1DAF80471BBF862
:10985000C630504645F229010222B84709255AE28E
:10986000DAF80471BBF80E3135E0DAF80471BBF8B0
:109870001431504645F2290149E2DAF80471BBF887
:109880003C31504645F22A0141E29BF84100012853
:1098900000F02182002840F03C82DAF80471BBF825
:1098A000F23031E2DAF80471BBF82C31504645F25F
:1098B00024012CE29BF84100012800F011820028CD
:1098C00040F02782DAF80471BBF8EA300CE2DAF8EB
:1098D0000471BBF83431504645F2270117E2DAF83B
:1098E0000471BBF8F630504645F22C010FE29BF8AC
:1098F0004100012800F0FC81002840F00A82DAF8DB
:109900000471BBF80831F7E1DAF80471BBF80C31E7
:10991000504645F22601FAE1DAF80471BBF82A3123
:1099200003E0DAF80471BBF80431504645F2230134
:10993000EDE19BF84100012800F0E281002840F0B1
:10994000E881DAF80471BBF83E31DDE10420E5E29C
:10995000DAF80471504645F2400102220023002447
:10996000B84740F22201C2F200014C7302200E22DD
:109970000AF062FF002099F800103070481CCDE218
:10998000017002267BE2BBF81C2001B202F16403E5
:109990008B42A2F164036EDB8B426CDC831A914232
:1099A000B8BF131A42F21C30C2F200009142037099
:1099B0007FF4D5AA0120FFF7CDBA0170052568E034
:1099C0000123DAF80471504645F214010222B84727
:1099D0000F26E5E50125002808BF0425087099E455
:1099E00042F24B21C2F200010B789BF857209342C0
:1099F00040F09581002A00F0B6819BF822209BF868
:109A00002330934200F0AF8140F23E00C2F20000EA
:109A1000018801390B0401807FF43DAB08210180EE
:109A20008BF82320FFF742BB42F24822C2F2000229
:109A30000023137042F24922C2F200020023137085
:109A40000870FFF728BB01240470FFF730BB3E709D
:109A50000324FFF79EBB042045E2BBF826108A4290
:109A60003FF419ABBBF88C1004240180FFF71FBB37
:109A70000170032603E264209142CCBF00208B4298
:109A80003FF768AAFFF76BBA0225002918BF012526
:109A90000170DBF81400002140F2B709632888BF89
:109AA00001212170C246C2F2000934E19BF84F0047
:109AB000013803283FF65EAFDFE810F00400B00184
:109AC000A401A7019BF804414BE79BF84F00013824
:109AD00003283FF64FAFDFE810F00400AD019B0113
