:020000040800F2
:104000008030002085410008554A0008514A0008C8
:10401000534A00084D4A000891770008000000004C
:10402000000000000000000000000000F96A000825
:104030004F4A000800000000C1540008FD6A000853
:104040009F4100089F4100089F4100089F410008D0
:104050009F4100089F4100089F4100089F410008C0
:104060009F4100089F4100089F4100089F410008B0
:104070009F4100089F4100089F4100089F410008A0
:104080009F4100089F4100089F4100089F41000890
:104090009F4100089F4100089F4100089F41000880
:1040A0009F4100089F4100089F4100089F41000870
:1040B0005D710008A57500089F4100089F41000838
:1040C0009F4100089F4100089F4100089F41000850
:1040D0009F41000881760008D97600082D770008F6
:1040E0009F4100089F4100089F4100080000000018
:1040F00000000000000000000000000000000000C0
:10410000000000009F4100089F41000800000000DF
:10411000C9750008257600080000000000000000B6
:104120009F4100089F4100089F4100089F410008EF
:10413000000000000000000000000000000000007F
:104140000000000000000000000000009F41000887
:1041500000000000000000009F4100089F4100088F
:104160000000000000000000000000009F41000867
:10417000DFF80CD000F0A0F90048004735C3000874
:10418000803000200648804706480047FEE7FEE7EB
:10419000FEE7FEE7FEE7FEE7FEE7FEE7FEE7FEE7F7
:1041A000E9700008714100082DE9FE4F804681EA60
:1041B0000300C00F0C46009021F0004123F00045A1
:1041C000B8EB0200A94105D24046214690461C4664
:1041D0000B46024623F00040104347D0270DC7F39B
:1041E0000A00C3F30A510290401A019040286BDA8A
:1041F000C3F3130040F4801B0098924620B10023C3
:10420000D2EB030A63EB0B0B01985946C0F1400255
:10421000504600F069F906460D4650465946019A47
:1042200000F081F910EB08006141002487EA115287
:1042300084EAE7731A4340D0009A62B3019A012AD4
:104240004FEA075215DC001B61EB02014FF0004200
:1042500002EA0752CDE90042001C41F580113246C6
:104260002B4600F081F903B0BDE8F08F40462146AF
:10427000F9E7001B61EB0201001C41F580130018F7
:104280005B412018A2F5001747EB030140EAD57007
:10429000B6196D4111E06D084FEA360645EAC07562
:1042A0004FEA0752001B61EB0201001C41F580112F
:1042B00049084FEA30000019514132462B4603B0FD
:1042C000BDE8F04F00F041B9009801224000002302
:1042D000D0EB020263EBE073009821464FEAE074F2
:1042E000B8EB000061EB0401E9E783F000435BE712
:1042F00081F0004158E72DE9FE4F81EA030404F004
:10430000004421F0004100944FF0000B23F00043E3
:1043100050EA01045ED052EA03045BD0C3F30A54AE
:10432000C1F30A552C44A4F2F3340194A0FB0254C7
:10433000C1F3130141F48011C3F3130343F4801359
:1043400001FB024400FB034E840A970A44EA8154AD
:1043500047EA8357A4FB076802958D0A05FB07858A
:104360004FEA932C04FB0C542705029D4FEA065894
:1043700047EA1637B5EB08056EEB070C870E920E71
:1043800047EA811742EA8312A7FB0201B6EB0B0151
:1043900064EB00042B0D43EA0C335E1844EB1C5015
:1043A000DA465146E7FB0201C5F313044FEA0B332B
:1043B00043EA14534FEA0432019C43EA0603A4F192
:1043C0000C040294009CCDE900B400F0CDF803B0D9
:1043D000BDE8F08F00200146F9E72DE9F04D81EAB4
:1043E000030404F0004B21F0004514464FF0000A8E
:1043F00023F0004150EA050220D054EA01021DD00A
:10440000C5F30A570246C5F31303C1F31300C1F302
:104410000A5640F4801543F48013A7EB0608101BDE
:10442000D64608F2FD3873EB050002D308F1010807
:1044300001E092185B41B8F1000F03DA0020014659
:10444000BDE8F08D00204FF48011064684460EE052
:10445000171B73EB050705D3121B63EB050306431C
:104460004CEA010C49084FEA300092185B4150EACF
:104470000107EDD152EA030012D082EA040083EA78
:104480000501084305D0101BAB4106D201220023D1
:1044900006E000224FF0004302E06FF001025310EB
:1044A0001AEB06004CEB085110EB0A0041EB0B0134
:1044B000BDE8F04D00F049B81CB509480090094826
:1044C00001900546009C06E0E06840F0010394E896
:1044D000070098471034AC42F6D3FFF74DFE0000BA
:1044E000BCE20008DCE20008202A04DB203A00FAE3
:1044F00002F1002070479140C2F1200320FA03F33B
:10450000194390407047202A04DB203A21FA02F038
:104510000021704721FA02F3D040C2F120029140FD
:10452000084319467047202A06DBCB17203A41FA88
:1045300002F043EAE07306E041FA02F3D040C2F130
:104540002002914008431946704710B5141E73F1BC
:10455000000408DA401C41F1000192185B411A4343
:1045600001D120F0010010BD2DE9F04D92469B468F
:1045700011B1B1FA81F202E0B0FA80F22032904635
:10458000FFF7B2FF04460F4640EA0A0041EA0B017A
:1045900053465A46084313D0114653EA010019D036
:1045A000C8F140025046FFF7AEFF05460E465046A2
:1045B00059464246FFF798FF084305D0012004E022
:1045C00020463946BDE8F08D0020054346EAE076F6
:1045D0002C4337430A986305E40AA0EB0800002245
:1045E000FD0A44EA47540A3002D500200146E9E7B3
:1045F000010510196941DDE9084500196941BDE867
:10460000F04DA2E7D2B201E000F8012B491EFBD227
:1046100070470022F6E710B513460A4604461946CD
:10462000FFF7F0FF204610BDF0B480EA0102D40F7E
:104630004200B2EB410F02D20246084611464A0040
:1046400042D0C30DDDB2C1F3C752AD1A202D35DA09
:10465000C1F3160141F4000204B15242C5F1200633
:1046600002FA06F12A411044B3EBD05F23D0C4B163
:10467000012DA0EBC35009DCF0BC4FF0004202EA70
:10468000C352DBB200F5000000F0B2B9400000F107
:10469000807000EBC350A0F1807040EAD1704900F7
:1046A00009E0490841EAC071A0EBC35000F50000E1
:1046B000400800EBC350F0BC00F091B96142012208
:1046C00002EB4101001BF6E7F0BC704781F00041AE
:1046D000AAE780F00040A7E780EA010210B502F0E7
:1046E0000043400022D04A001FD0010E01EB1261AE
:1046F000C0F35600C2F3560240F4000042F4000238
:10470000A0FB022000047F39140400D0401C50EAB2
:10471000124001D44000491EC2B20C0604EBD01076
:10472000401C4008802A02D003E0002010BD20F089
:104730000100002900DA0020184310BD30B480EADF
:10474000010202F0004530F0004221F0004013D099
:1047500090B1C30DD40DC2F31601C0F31600E41AD4
:1047600041F4000140F400027D34914201D3641C05
:1047700000E04900002C02DA30BC002070474FF402
:1047800000000023914201D3891A034340084FEAF5
:104790004101F7D151B1914202D14FF0004105E002
:1047A00002D24FF0010101E06FF0010103EBC450B0
:1047B000284430BC00F013B9002801DBC0F10040F0
:1047C000002901DBC1F10041814201D8012070477D
:1047D00000207047002801DBC0F10040002901DB08
:1047E000C1F10041814201D2012070470020704791
:1047F000002801DBC0F10040002901DBC1F10041CC
:10480000814201D30120704700207047002801DB5E
:10481000C0F10040002901DBC1F10041814201D912
:10482000012070470020704730B5041E71F100046C
:1048300004DB4FF00044404264EB0101141E73F1AD
:10484000000405DB1C464FF00043524263EB0403B7
:10485000801A994101D2012030BD002030BDC10F26
:1048600080EAE0700844CA079623002100F0C0B82F
:1048700096230022114600F0BBB80EB5C10F80EAA6
:10488000E0700844CA07002140F233438DE80E006F
:104890000A460B46FFF768FE03B000BD0EB540F2B6
:1048A000334102910021CDE900110A460B46FFF782
:1048B0005BFE03B000BD00F0004220F00040C10DDF
:1048C000C0F3160040F400007F2901DA0020704791
:1048D000962903DCC1F19601C84001E09639884071
:1048E000002AF4D04042704720F00040C10DC0F3D0
:1048F000160040F400007F2901DA00207047962955
:1049000003DCC1F19601C840704796398840704772
:1049100070B5C1F30A5201F000450024C1F3130140
:1049200040F2FF3341F480119A4201DA002070BD59
:1049300040F233439A42A2F2334203DC5242FFF781
:10494000E2FD00E090402C43F1D0404270BDC1F345
:104950000A5210B5C1F3130140F2FF3341F4801144
:104960009A4201DA002010BD40F233439A42A2F28B
:10497000334203DC5242FFF7C6FD10BD904010BD2C
:1049800000F0004230F000400AD0C10D01F5607126
:10499000C0F3160042EA0151C208400711437047B4
:1049A00000200146704701F0004330B421F000417F
:1049B00050EA010206D00A0DA2F56072C1F313019C
:1049C000002A02DC30BC00207047440F44EAC104D6
:1049D000C100E01830BC00EBC250AFF300800029EA
:1049E000A8BF7047401C490008BF20F00100704775
:1049F00010B4B0FA80FC00FA0CF050EA010404BFD5
:104A000010BC704749B1CCF1200421FA04F411FA2A
:104A10000CF118BF012121430843A3EB0C01CB1D6E
:104A20004FEA00614FEA102042BF002010BC7047DF
:104A300000EBC35010440029A4BF10BC7047401CB9
:104A4000490008BF20F0010010BC7047FEE7704726
:104A5000FEE7FEE770470222D0F804412047218993
:104A600040F2E73309BA0A0C9A42704740F0080056
:104A7000F060F06840F00400F060F06820F400702E
:104A8000F060F06820F48060F060706920F480705D
:104A90007061706920F400707061F06840F020006F
:104AA000F060F06840F04000F060F06840F40050C2
:104AB000F0607047A6F83C01A4F10E002847A6F864
:104AC0003A01A4F110002847A6F83601A4F112001B
:104AD0002847A6F83401A4F114002847A6F83201AB
:104AE000A4F116002847A6F82E01A4F118002847C3
:104AF000A6F82C01A4F11A002847A6F82A01A4F16F
:104B00001C002847A6F82601A4F11E002847A6F895
:104B10002401A4F12000284780F82310C18390F8D5
:104B2000411000297047214609F0B0BAA6F82201C9
:104B3000A4F122002847A6F82001A4F12400284768
:104B4000A6F81E01A4F126002847A6F81C01A4F12E
:104B500028002847A6F81801A4F12A002847A6F83B
:104B60001601A4F12C002847A6F81401A4F12E0088
:104B70002847A6F81001A4F130002847206820F04B
:104B80000100206010BD0121A0F85610A0F85910B6
:104B9000002180F8231090F83B1003297047A6F8F5
:104BA0000E01A4F132002847A6F80C01A4F134004C
:104BB0002847A6F80801A4F136002847A6F8060100
:104BC000A4F138002847A6F80401A4F13A002847C8
:104BD000A6F80001A4F13C002847A6F8FE00A4F1C5
:104BE0003E002847A6F8FC00A4F140002847A6F89C
:104BF000FA00A4F142002847A6F8F800A4F1440006
:104C000028470121A0F85610A0F85910002180F87B
:104C1000231090F822107047A6F8F600A4F1460081
:104C20002847A6F8F200A4F148002847A6F8F000AB
:104C3000A4F14A002847A6F8EE00A4F14C0028474A
:104C4000A6F8EA00A4F14E002847A6F8E800A4F16F
:104C500050002847A6F8E600A4F152002847314644
:104C6000ADF8115003907047A6F8E200A4F154008B
:104C70002847A6F8E000A4F1560028470121A0F833
:104C80005410A0F859100021C18390F84110012957
:104C90007047A6F8DE00A4F158002847A6F8DA000D
:104CA000A4F15A0028470120A1F8590091F83B00CF
:104CB0000328704701204FF00008002B81F85400B2
:104CC0007047A6F8D800A4F15C002847A6F8D600E3
:104CD000A4F15E002847A6F8D200A4F1600028479E
:104CE000A6F8D000A4F162002847A6F8CE00A4F1EF
:104CF00064002847A6F8CA00A4F16600284785F892
:104D00008900002085F82300E88395F841000028F9
:104D10007047A6F8C800A4F16800284791F846201B
:104D20000020A5F81500002A7047A6F8C600A4F1D7
:104D30006A002847A6F8C200A4F16C002847A6F82C
:104D4000C000A4F16E002847A6F8BE00A4F17000D0
:104D50002847A6F8BA00A4F172002847A6F8B800C0
:104D6000A4F174002847A6F8B600A4F176002847FD
:104D7000A6F8B200A4F17800284706F1320102201B
:104D80000A2286F83B4009F081B9A6F8A800A4F1F0
:104D90007A002847A6F8A600A4F17C002847A6F8C8
:104DA000A400A4F17E002847A6F8A200A4F1800088
:104DB0002847A6F8A000A4F182002847A6F89E0084
:104DC000A4F184002847A6F89C00A4F18600284797
:104DD000A6F89A00A4F188002847A6F89800A4F144
:104DE0008A002847A6F89600A4F18C0028479BF873
:104DF000410001287047A6F89400A4F18E002847CE
:104E0000A6F89200A4F19000284786F84B00A4F180
:104E10009400284786F84900A4F19600284786F8B0
:104E20004800A4F19800284786F84600A4F19A00AB
:104E3000284786F84500A4F19C00284786F84400DE
:104E4000A4F19E00284786F84300A4F1A00028475B
:104E500086F84200A4F1A200284795F841000128F5
:104E6000704786F84100A4F1A4002847A6F88A00FC
:104E7000A4F1A600284786F84000A4F1A80028471E
:104E800086F83600A4F1AC00284786F82400A4F187
:104E9000AE00284786F82200A4F1B000284705F1AB
:104EA0002400C9B208F064BB86F84C00A4F192005B
:104EB00028470922088400EB8000A03890FBF2F01C
:104EC0008883704701EB81010922A03991FBF2F13F
:104ED00070470522888300EBC000B0FBF2F0203061
:104EE00008847047022095F82230B5F88A1086F8B9
:104EF0004C0001207047208940F2E73200BA010CD3
:104F000091427047BDF804200A32ADF804209DF8A4
:104F1000072001328DF8072070470521A88300EB98
:104F2000C000B0FBF1F0203070470921288400EB6D
:104F30008000A03890FBF1F0704705248B8303EBD1
:104F4000C303B3FBF4F32033704709240B8403EB52
:104F50008303A03B93FBF4F370470523218902EB05
:104F6000C20249BAB2FBF3F27047D0F804512847A5
:104F700001EBC101B1FBF0F12031704795F8500011
:104F8000002870474FF0011068650120A5F859000E
:104F9000704790F88810032970472846042102F0D2
:104FA000B5BC0221092280F8281040F20141C184D9
:104FB00000F12001022009F069B8B0F8A410052220
:104FC000818301EBC101B1FBF2F12031A0F8B010F7
:104FD00001847047B0F898100522818301EBC1016C
:104FE000B1FBF2F12031A0F8AC1001847047B0F8A9
:104FF00092100522818301EBC101B1FBF2F1203156
:10500000A0F8AA1001847047B0F89E100522818391
:1050100001EBC101B1FBF2F12031A0F8AE10018427
:105020007047B0F8B0100922018401EB8101A0396A
:1050300091FBF2F1A0F8A410818370474FF00111A9
:105040000124416590F83B10A0F8594000297047B1
:10505000B0F8AC100922018401EB8101A03991FB69
:10506000F2F1A0F8981081837047B0F8AA100922D5
:10507000018401EB8101A03991FBF2F1A0F89210BB
:1050800081837047B0F8AE100922018401EB8101E1
:10509000A03991FBF2F1A0F89E10818370470020A7
:1050A0004FF0012281F8570081F82300C88391F85E
:1050B0008900C1F8532070472089C82200BA010C2A
:1050C000C8297047010E87F8160187F81311010CE3
:1050D000000A87F8141187F8150170470121A0F81C
:1050E000591090F8241070470020C88391F84100AF
:1050F0000128704752F821100988A5F88E107047D2
:1051000095F84E00411EC9B2042970472189C82371
:1051100009BA0A0CC82A7047D0F804410222204775
:1051200000210222012380F8531090F8941080F897
:105130002210B0F89610704700210222042380F854
:10514000531090F8A61080F82210B0F8A8107047FD
:1051500000210222032380F8531090F8A01080F859
:105160002210B0F8A210704700210222022380F81A
:10517000531090F89A1080F82210B0F89C107047E5
:1051800090F84110012970470A2280F83B4000F155
:105190003201022008F07ABFADF826808DF8217028
:1051A000CDF8224008F034BA0121A0F85410A0F83C
:1051B00059100021C183617A01297047012180F8CB
:1051C0004C107047218990F8412049BA012A704754
:1051D00000228A664A66CA658A65CBF85C20CBF8ED
:1051E000040070470222D0F804713847AB8B0521C8
:1051F00003EBC30070479BF93700DBF80410084449
:105200009BF93610401A70472189092209BA090C06
:10521000704791B28283C90011FA82F1704707F595
:10522000017520461022294602F04EBB002081F86D
:10523000230091F822007047002045F25401022219
:1052400070472B8C092103EB83007047D0F8044191
:10525000204794F84E000138032870479BF84E0011
:105260000138032870479BF84E0001380428704726
:10527000026842F001020260F020162287F817014E
:1052800070479BF84D0001287047D0E91212013198
:1052900042F10002C0E9121270479DF807006060F9
:1052A000BCBDBAF85210CBF85C000131AAF852101C
:1052B00070470A6842F001020A60B97CB1EB106FD6
:1052C00070470027C6E95C0704F12200284780F8F0
:1052D0008910002180F82310C18390F84110002923
:1052E00070472846FFF795B9022180F84C107047A7
:1052F000018C40F2713301F1320299427047BDF8DE
:105300000C209DF80B301A448242704791B20284FF
:10531000890011FA82F1A039704790F83B100029FA
:105320007047A6F8680104F120002847A6F8660136
:1053300004F11A002847A6F8640104F11800284770
:10534000A6F8620104F116002847016841F008013F
:105350000160016841F004010160016821F40071FD
:105360000160016821F480610160816821F480712D
:105370008160816821F400718160016841F0200141
:105380000160016841F040010160016841F4005191
:1053900001607047A6F8600104F114002847A6F8E0
:1053A0005E0104F112002847A6F85C0104F1100028
:1053B0002847A6F85A0104F10E002847A6F858011C
:1053C00004F10C002847A6F8560104F10A0028470A
:1053D000A6F8540104F108002847A6F84401A4F1F6
:1053E00008002847A6F84201A4F10A002847A6F8B9
:1053F0003E01A4F10C0028472DE9FC41FFF766F9B6
:105400002D4FF865F86D796EFFF70EF978662B4C25
:10541000786E2146FFF7DEF900B97C66786E0021D0
:105420000024FFF7F3F900B97C66D7E91286F86D1E
:10543000FC6EB96DFFF74AF938663046FD6D796E3E
:10544000FFF74AF90190009401980099FFF7B4F929
:1054500008B9009801900198009981F00041FFF788
:10546000C7F918B9009880F00040019040462946DD
:10547000FFF732F90199FFF7D7F80446386DFD6D53
:10548000396EFFF729F92146FFF7CEF8B866BD65FA
:10549000B86E396FFFF790F908B9386FB866B86E13
:1054A000396F81F00041FFF7A3F908B90020B86611
:1054B000B86EBDE8FC8100BF8402002000C82F4701
:1054C000704700002DE9F041451C044602202946A2
:1054D00008F0C0FD84F88100C0B2092841F0FD81C8
:1054E00028785A2841F0F681A078A52841F0F28169
:1054F000A0790B38482801F2ED81DFE810F02B028B
:10550000B402800263024900EB09EB09EB091702C0
:10551000DF01AC034A013D01F1031E025602C30341
:10552000D502B60492015504E4008B010801F40190
:10553000F1001505FE045701AA019D02C801750579
:105540002601DA036E05D600CE02C100A6006E0168
:105550000B022F049A05DD00C702EB09EB09E902F3
:10556000EB099305E202EB09EB09EB09AD00EB094E
:105570006300AF053305EB09EB09EB098C008F03E2
:10558000620473004900C30449007B044900B60566
:10559000DFF8C007FFF7C1FE41F09C8190F838208A
:1055A000002180F85310012A00F09A85002A41F06A
:1055B000918190F84D1002291CBF012180F838100C
:1055C00001F088B9DFF89027607ADFF8881792F841
:1055D000293081F84500834201F07C81002382F864
:1055E00029005CE0607A012800F07C85002841F009
:1055F0007181DFF8900E90F83B10032901F0C5800F
:10560000002941F06781FFF7FCFA0A2940F2EF8395
:10561000053901F057B9DFF86C0EFFF77EFE41F057
:105620005981FFF7C1FD01F02580002941F0528129
:10563000FFF7A6FD01F05381002941F04B81818BDA
:105640006422642988BF4A1E01E3607ADFF8341EB1
:1056500081F8460001F03EB9617ADFF8280E002992
:1056600080F84F1000F04F85012941F0338101216E
:1056700080F84E10B0F8B810A0F88E1001F02AB9DA
:10568000DFF8042E607ADFF8FC1D92F8283081F8EC
:105690004400834201F01E81002382F8280081F833
:1056A0003B3081F8533001F015B9607ADFF8D41D32
:1056B00081F8420001F00EB9607ADFF8C81D81F868
:1056C000490001F007B9FFF716FC38BF020CDFF8FC
:1056D000B40D012A98BF0122A0F8A82001F0FAB861
:1056E000DFF8A00DFFF755FC01F2F480DFE811F0C0
:1056F00004001006E105FC05FFF7B1F938BF0B0CFB
:10570000012B98BF0123A0F8B83001F0E3B8DFF80F
:10571000740DFFF73EFC01F2DD80DFE811F00400BC
:105720001E06D4050306FFF74DFDA0F8B21004D104
:10573000FFF7C8FBA0F8B21089B2642901F24F80CC
:105740006421A0F8B21001F0C5B8DFF8380DFFF7FA
:1057500020FC01F2BF80DFE811F004001B06D10538
:10576000F605FFF7D3FC38BF0B0C052B98BF0523BC
:10577000A0F8CE3001F0AEB8FFF7BDFB38BF020C89
:10578000DFF8000D012A98BF0122A0F8962001F051
:10579000A1B8FFF791FC38BF020CDFF8E80C052A2E
:1057A00098BF0522A0F8942001F094B8DFF8D40C3B
:1057B000FFF7EFFB01F28E80DFE811F00400FE0539
:1057C000E005F405FFF74BF938BF0B0C012B98BF30
:1057D0000123A0F8C03001F07DB8208900BA010C87
:1057E000DFF8A00C90F84120C185002A00F08F84DA
:1057F000012A41F06F80D42928BFD421212998BFE4
:10580000212101EB81010922A03989B2B1FBF2F11A
:1058100000F040BF607ADFF86C1C81F8880001F06E
:1058200059B8DFF8600C90F84110002900F0778437
:10583000012940F07E84FFF7E7FCA0F8B01001EBEF
:105840008101A03991FBF2F1A0F8A41089B200F017
:1058500072BCDFF8300CFFF79CFB01F23B80DFE805
:1058600011F00400EB05B505D005FFF7ABFCA0F87F
:10587000C21004D1FFF726FBA0F8C21089B2642938
:1058800000F2CD876421A0F8C21001F023B8DFF840
:10589000F40BFFF77EFB01F21D80DFE811F004003E
:1058A000DE05A805C305FFF7DAF838BF0B0C012B9E
:1058B00098BF0123A0F8C83001F00CB8208900BAC5
:1058C000000C022800F0EC84012800F0E28400289B
:1058D00041F00080DFF8AC0B012180F8401080F827
:1058E0004C1000F0F7BFDFF89C0BFFF752FB00F203
:1058F000F187DFE811F00400D505BC05CB05FFF703
:1059000005FC38BF0B0C052B98BF0523A0F8B6305B
:1059100000F0E0BFFFF7EFFA38BF020CDFF8640BCE
:10592000012A98BF0122428600F0D4BF607ADFF8D6
:10593000541B81F84D0000F0CDBFFFF7BDFB38BF11
:10594000020CDFF8400B052A98BF0522A0F89A2028
:1059500000F0C0BFDFF82C6B002086F8470096F8F7
:105960003B00002840F0B687207A657A0002FEF7F7
:1059700084FF804628460F46FEF790FFE44B002246
:10598000FEF7B9FC42463B46FEF70EFCFEF7C0FFB1
:10599000642898BF6420B08300EBC0000521B0FBF1
:1059A000F1F02030308400F095BFFFF7A4FA38BF43
:1059B000020CDFF8D00A012A98BF0122A0F89C202F
:1059C00000F088BFDFF8BC0A0022012180F8232004
:1059D00090F83B20A0F85610A0F85910032A00F0C8
:1059E000C583002A40F07687617A052998BF052192
:1059F000C82928BFC82180F8221000F06BBFDFF84B
:105A0000840A0121A0F85410A0F859100021C18384
:105A1000FFF783FC40F05E87218909BA0A0CFFF783
:105A2000AFFB40F0078602EB82010923A03991FB0E
:105A3000F3F3114600F005BEDFF8480AFFF7A9FAB4
:105A400000F24887DFE811F004004A0536054005FA
:105A5000FFF75CFB38BF0B0C052B98BF0523A0F8A4
:105A6000C63000F037BFDFF81C0A012190F83B2058
:105A700080F84710032A00F08183002A40F02A872B
:105A8000617A052998BF052100F01CBF607ADFF814
:105A9000F41981F84B0000F01DBF607ADFF8E419BB
:105AA00081F8430000F016BFFFF706FB38BF020C79
:105AB000DFF8D009052A98BF0522A0F8A02000F041
:105AC00009BF607ADFF8BC1981F84C0000F002BF12
:105AD000617ADFF8B009002918BF012180F8511060
:105AE00000F0F88601263C211E230A25894F4FF439
:105AF000BE724FF0000E4FF0640C4FF4E17880F866
:105B00004660854E80F822104FF43371438632236D
:105B1000C584A0F88A504FF480358283A0F898207D
:105B2000A0F83621A0F81021A0F8EA20962280F8EB
:105B300041E080F836E080F824C080F84CE0A0F81E
:105B4000A480A0F80881A0F8CAC080F889E0018488
:105B50004FF00131C385714B8564714DC0F8A6705B
:105B6000704FA0F8DA20A0F8B220C0F8AA604FF475
:105B7000AF76C0F842106C49A0F892606B4EC0F846
:105B8000BE30C0F8E6306A4BC0F89450694DC0F89A
:105B9000B670C0F8EE70C0F8C6106749C0F89A60D9
:105BA000664EC0F80431C0F82A314FF4FA73C0F8D9
:105BB000AE504FF4C875C0F8CE10C0F8F610C0F85B
:105BC0001C115F49A0F82E314FF48C73A0F89E5041
:105BD000A0F82651A0F80051C0F8A060594EA0F8D6
:105BE000C230C0F832115849C0F8DE60574EC0F8D4
:105BF00042114FF48271C0F80C61554EA0F83E116D
:105C0000A0F81811A0F8F210A0F8E210A0F8BA104D
:105C1000C0F81461C0F83A6100F05CBEDFF86408B7
:105C2000FFF77BFB40F05686FFF7BEFA00F03485A5
:105C3000002940F04F86FFF7A3FA00F061860029A3
:105C400040F04886818B4A1F6A2938BF6422FFF7DB
:105C5000E0FA00F032BDDFF82C0890F8411000297E
:105C600000F09182012940F0AC82FFF7CDFAA0F854
:105C7000AA1001EB8101A03991FBF2F1A0F892107A
:105C800089B2A0E2DFF8640E90F84110002900F01C
:105C90008482012940F0B282FFF7B6FAA0F8AE1074
:105CA00001EB8101A03991FBF2F1A0F89E1089B2BD
:105CB000A6E2DFF8380EFFF76CF900F20B86DFE89A
:105CC00011F004002B0417042104FEF7C8FE38BFAE
:105CD0000B0C012B98BF0123A0F8D03000F0FABDC7
:105CE000DFF8080E90F84110002900F060820129C9
:105CF00040F0B282FFF788FAA0F8AC1001EB810106
:105D0000A03991FBF2F1A0F8981089B2A6E200BF89
:105D1000000004403C001E009602CC021400030068
:105D200014000A0028000A00140004001E000F00DE
:105D30001E000400F0024A031400050028001400AD
:105D40001E000600280003002800050028000800A7
:105D500028000400F0290020A0000020DFF88C0DAE
:105D6000FFF7DBFA40F0B68590F84120617A012A0E
:105D700008D1227A41EA0221092201EB8101A039EE
:105D800091FBF2F1027F90F83630511A194449B272
:105D90006429A8BF642111F1640FD8BF6FF06301BB
:105DA00080F8361000F096BDFFF786F938BF020C78
:105DB000DFF8380D052A98BF0522A0F8A62000F0CC
:105DC00089BD607A012800F03682002840F0828583
:105DD000DFF8180D90F83B10032900F0E284002949
:105DE00040F07885FEF70DFF052900F26885052152
:105DF00000F068BDDFF8F45C95F83B00002840F047
:105E00006985607A012800F05E84002840F0628590
:105E1000DFF8DC6C96F82600013086F82600C0B268
:105E20000A28C0F0578596F82200002840F05285D5
:105E3000FFF758F886F822000020A5F8A030A5F852
:105E4000A21086F82600FFF708F800F0F385002876
:105E500040F00086FFF7CAF9A5F89E30B0FBF1F0DC
:105E60002030A5F8AE0000F0EEBDFFF744F838BFD3
:105E7000020CDFF8780C012A98BF0122A0F8A220BA
:105E800000F028BDDFF8645C95F83B00002840F086
:105E90002185607A012800F02F84002840F01A85BF
:105EA000DFF84C6C96F82500013086F82500C0B26A
:105EB0000A28C0F00F8596F82100002840F00A85D6
:105EC000FFF710F886F821000020A5F89A30A5F811
:105ED0009C1086F82500FEF7C0FF00F0BF85002863
:105EE00040F0CC85FFF782F9A5F89830B0FBF1F0CF
:105EF0002030A5F8AC0000F0BABDDFF8F00BFFF7DA
:105F000048F800F2E784DFE811F0040047031103CA
:105F10002C03FFF7FBF838BF0B0C052B98BF0523AC
:105F2000A0F8BE3000F0D6BCDFF8C00BFFF731F8A8
:105F300000F2D084DFE811F004003A0304031F03E9
:105F4000FFF740F9A0F8BA1004D1FEF7BBFFA0F8A4
:105F5000BA1089B2642900F282846421A0F8BA10D0
:105F600000F0B8BCDFF8845B95F83B00002840F0F7
:105F7000B184607A012800F0D883002840F0AA8418
:105F8000DFF86C6B96F82400013086F82400C0B26C
:105F90000A28C0F09F8496F82000002840F09A84D8
:105FA000FEF7A0FF86F820000020A5F89430A5F8A1
:105FB000961086F82400FEF750FF00F06385002855
:105FC00040F07085FFF712F9A5F89230B0FBF1F0C0
:105FD0002030A5F8AA0000F05EBD607ADFF80C1B47
:105FE00081F8410000F076BCDFF8000BFEF7D1FF2E
:105FF00000F27084DFE811F004000D03EB02FC02F4
:10600000FFF7E0F8A0F8CA1004D1FEF75BFFA0F894
:10601000CA1089B2642900F242846421A0F8CA102F
:1060200000F058BC607ADFF8C41A81F8480000F02C
:1060300051BC2089DFF8B41A002240F2E73300BADD
:1060400081F85320020C9A4238BF030C002A08BF83
:106050000123CB84A1F88A3000F03CBC607ADFF8E1
:106060008C1A81F84A0000F035BCDFF8805A95F8A8
:106070003B00002840F02E84607A012800F06D83F8
:10608000002840F02784DFF8686A96F8270001307E
:1060900086F82700C0B20A28C0F01C8496F82300B6
:1060A000002840F01784FEF71DFF86F8230000202B
:1060B000A5F8A630A5F8A81086F82700FEF7CDFEB3
:1060C00000F0FA84002840F00785FFF78FF8A5F864
:1060D000A430B0FBF1F02030A5F8B00000F0F5BC22
:1060E0000185F7E3DFF8B00F90F83B10032900F0CB
:1060F0005283002940F0EE83FEF783FDC32980F030
:10610000A9800531DEE3002180F84E10E2E300298A
:1061100000F0BF82642924BF6421C185DAE3B0F8AE
:10612000B020FEF71AFFA0F8A4102032A0F8B0208B
:1061300001E0B0F8A410652901D2642104E0B1F5B2
:10614000FA7F03D34FF4FA71A0F8A410B0F8B0109E
:10615000D42903D8D421A0F8B010BBE3B1F5697FEE
:1061600024BF4FF46971A0F8B010B3E3627A012A3A
:1061700088BF1146C82928BFC821A9E3627A012A2D
:1061800088BF1146A4E3B0F8AA20FEF7E6FEA0F807
:1061900092102032A0F8AA2015E0B0F8AE20FEF749
:1061A000DCFEA0F89E102032A0F8AE2028E0B0F867
:1061B000AC20FEF7D2FEA0F898102032A0F8AC2058
:1061C0004CE0B0F89210652901D2642104E0B1F5E9
:1061D000FA7F03D34FF4FA71A0F89210B0F8AA1026
:1061E000D42903D8D421A0F8AA1073E3B1F5697FAC
:1061F00024BF4FF46971A0F8AA106BE3B0F89E10A9
:10620000652901D2642104E0B1F5FA7F03D34FF48C
:10621000FA71A0F89E10B0F8AE10D42903D8D4219A
:10622000A0F8AE1056E3B1F5697F24BF4FF4697151
:10623000A0F8AE104EE3DFF8600E90F83B10032993
:1062400000F0B682002940F04583FEF7DAFCC82949
:10625000C0F03783C82135E3B0F89810652901D222
:10626000642104E0B1F5FA7F03D34FF4FA71A0F88A
:106270009810B0F8AC10D42903D8D421A0F8AC10F1
:1062800028E3B1F5697F24BF4FF46971A0F8AC1021
:1062900020E3DFF8040E002180F84C10012105E016
:1062A000DFF8F40D002180F84C10022180F8401036
:1062B00010E3FEF7D4FB38BF0B0C012B98BF012372
:1062C000A0F8063106E3FEF77DFFA0F8001104D127
:1062D000FEF7F8FDA0F8001189B2642900F26F8280
:1062E0006421A0F80011F5E2FEF7B9FB38BF0B0CF2
:1062F000012B98BF0123A0F82C31EBE2FEF706FF3B
:1063000038BF0B0C052B98BF0523A0F81C31E1E228
:10631000FEF7A5FB38BF0B0C012B98BF0123A0F89B
:10632000E030D7E2FEF74EFFA0F8261104D1FEF7C9
:10633000C9FDA0F8261189B2642900F248826421BF
:10634000A0F82611C6E2FEF7E1FE38BF0B0C052BC4
:1063500098BF0523A0F84231BCE2FEF733FFA0F856
:10636000DA1004D1FEF7AEFDA0F8DA1089B2642984
:1063700000F23D826421A0F8DA10ABE2FEF76FFB79
:1063800038BF0B0C012B98BF0123A0F80E31A1E2FE
:10639000FEF7BCFE38BF0B0C052B98BF0523A0F8F9
:1063A000F63097E2FEF75BFB38BF0B0C012B98BF72
:1063B0000123A0F834318DE2FEF751FB38BF0B0CFE
:1063C000012B98BF0123A0F8E83083E2FEF7FAFE24
:1063D000A0F8101104D1FEF775FDA0F8101189B2D4
:1063E000642900F20C826421A0F8101172E2FEF719
:1063F00036FB38BF0B0C012B98BF0123A0F81631D8
:1064000068E2FEF7DFFEA0F8361104D1FEF75AFD70
:10641000A0F8361189B2642900F2F9816421A0F84C
:10642000361157E2FEF71BFB38BF0B0C012B98BF50
:106430000123A0F83C314DE2FEF7C4FEA0F8EA10BB
:1064400004D1FEF73FFDA0F8EA1089B2642900F2FA
:10645000EE816421A0F8EA103CE2FEF700FB38BFB1
:106460000B0C012B98BF0123A0F8F03032E2FEF7AD
:106470004DFE38BF0B0C052B98BF0523A0F8043147
:1064800028E200BFF0290020A0000020FEF73EFE19
:1064900038BF0B0C052B98BF0523A0F82A3119E251
:1064A000FEF734FE38BF0B0C052B98BF0523A0F870
:1064B000DE300FE2FEF72AFE38BF0B0C052B98BF2B
:1064C0000523A0F8143105E2FEF720FE38BF0B0CBF
:1064D000052B98BF0523A0F83A31FBE1FEF716FE25
:1064E00038BF0B0C052B98BF0523A0F8EE30F1E167
:1064F000FEF7B5FA38BF0B0C012B98BF0123A0F8AB
:106500001E31E7E1FEF7ABFA38BF0B0C012B98BF49
:106510000123A0F84431DDE1FEF7A1FA38BF0B0CEE
:10652000012B98BF0123A0F8F830D3E1FEF7EEFD70
:1065300038BF0B0C052B98BF0523A0F80C31C9E11F
:10654000FEF740FEA0F8081104D1FEF7BBFCA0F84E
:10655000081189B2642900F272816421A0F808113F
:10656000B8E1FEF7D3FD38BF0B0C052B98BF052310
:10657000A0F83231AEE1FEF725FEA0F82E1104D1CD
:10658000FEF7A0FCA0F82E1189B2642900F25F8109
:106590006421A0F82E119DE1FEF7B8FD38BF0B0C69
:1065A000052B98BF0523A0F8E63093E1FEF70AFE1D
:1065B000A0F8E21004D1FEF785FCA0F8E21089B241
:1065C000642900F254816421A0F8E21082E1FEF710
:1065D000F9FDA0F8181104D1FEF774FCA0F8181109
:1065E00089B2642900F24B816421A0F8181171E18D
:1065F000FEF7E8FDA0F83E1104D1FEF763FCA0F819
:106600003E1189B2642900F242816421A0F83E1152
:1066100060E1FEF7D7FDA0F8F21004D1FEF752FCBE
:10662000A0F8F21089B2642900F241816421A0F837
:10663000F2104FE102EBC2010523B1FBF3F1134667
:1066400020319AB201848383652A01D2642204E056
:10665000B2F5FA7F02D34FF4FA72828389B2D42959
:1066600001D8D4212DE0B1F5697F24BF4FF46971C1
:1066700001842FE1FEF784FD00F03781002940F00E
:106680002981818B4FF4FA72B1F5FA7F38BF4A1C29
:1066900010E00021C1851DE1FEF772FD00F0408190
:1066A000002940F01781818B4A1DB1F5F77F88BF23
:1066B0004FF4FA7202EBC20182830522B1FBF2F1C0
:1066C0002031018406E1DFF8C06E96F82200002830
:1066D00040F05081FEF756FC0320FEF710FB00F05F
:1066E0003181012840F03581B5F8AE00FEF71DFC80
:1066F000A5F89E00A8832CE1DFF88C6E96F82100A7
:10670000002840F05581FEF73DFC0220FEF7F7FA25
:1067100000F03681012840F03A81B5F8AC00FEF770
:1067200004FCA5F89800A88331E1DFF85C6E96F8C8
:106730002000002840F05A81FEF724FCFEF7DFFA23
:1067400000F03C81012840F04081B5F8AA00FEF736
:10675000ECFBA5F89200A88337E1E54E96F82300FC
:10676000002840F06181FEF70DFC0420FEF7C7FA17
:1067700000F04281012840F04681B5F8B000FEF7F4
:10678000D4FBA5F8A400A8833DE1FEF7A7FC0A29E5
:106790000CD905399CE0FEF7A1FCC3290DD20531C7
:1067A00096E0FEF79BFC052900F28F8005218FE023
:1067B000FEF794FCC829C0F08A80C82188E0B1F5B2
:1067C000FA7F24BF4FF4FA71A0F8001182E0B1F50E
:1067D000FA7F24BF4FF4FA71A0F826117AE0B1F5E0
:1067E000FA7F24BF4FF4FA71A0F8B21072E0B1F54D
:1067F000FA7F24BF4FF4FA71A0F8DA106AE0B1F51D
:10680000FA7F24BF4FF4FA71A0F8101162E0B1F5DD
:10681000FA7F24BF4FF4FA71A0F836115AE0B1F5AF
:10682000FA7F24BF4FF4FA71A0F8C21052E0B1F51C
:10683000FA7F24BF4FF4FA71A0F8EA104AE0B1F5EC
:10684000FA7F24BF4FF4FA71A0F8081142E0B1F5C5
:10685000FA7F24BF4FF4FA71A0F82E113AE0B1F597
:10686000FA7F24BF4FF4FA71A0F8BA1032E0B1F504
:10687000FA7F24BF4FF4FA71A0F8E2102AE0B1F5D4
:10688000FA7F24BF4FF4FA71A0F8181122E0B1F595
:10689000FA7F24BF4FF4FA71A0F83E111AE0B1F567
:1068A000FA7F24BF4FF4FA71A0F8CA1012E0B1F5D4
:1068B000FA7F24BF4FF4FA71A0F8F2100AE0013910
:1068C00000E0013180F8221004E0013900E00131DC
:1068D00080F82410002084F88100BDE8F081018C4C
:1068E000D422D42988BF4A1E10E0018C4FF469726B
:1068F000B1F5697F38BF4A1C028402EB82010AE0CD
:10690000018CA1F12602FB2938BFD42291B2028466
:10691000890011FA82F1A039092291FBF2F10FE00E
:10692000018C40F27D3301F12602994288BF4FF479
:10693000697202EB82010284A0390922B1FBF2F1F3
:106940008183C7E7B5F89E00FEF7E7FAA5F8AE0029
:106950002884FEF771FC032385F8530095F8A00006
:1069600085F82200B5F8A200A5F88A00E8846148FD
:10697000FEF7FBFA002086F8260086F82200A9E739
:10698000B5F89800FEF7C9FAA5F8AC002884FEF720
:1069900053FC022385F8530095F89A0085F82200ED
:1069A000B5F89C00A5F88A00E8845248FEF7DDFAA5
:1069B000002086F8250086F821008BE7B5F89200C4
:1069C000FEF7ABFAA5F8AA002884FEF735FC0123F0
:1069D00085F8530095F8940085F82200B5F89600E4
:1069E000A5F88A00E8844348FEF7BFFA002086F83D
:1069F000240086F820006DE7B5F8A400FEF78DFAB4
:106A0000A5F8B0002884FEF717FC042385F853008E
:106A100095F8A60085F82200B5F8A800A5F88A0028
:106A2000E8843448FEF7A1FA002086F8270086F8AB
:106A300023004FE7FEF705FCA5F8AE30A03890FB29
:106A4000F1F0A5F89E002B4845F21B01FEF7CAFBAA
:106A5000B5F8A030274845F21C0126E0FEF7F1FB0F
:106A6000A5F8AC30A03890FBF1F0A5F898002148CB
:106A700045F21801FEF7B6FBB5F89A301D4845F20D
:106A8000190112E0FEF7DDFBA5F8AA30A03890FB53
:106A9000F1F0A5F89200174845F21501FEF7A2FBA8
:106AA000B5F89430134845F21601D0F8045102228B
:106AB000A847012070760DE7FEF7C3FBA5F8B030BC
:106AC000A03890FBF1F0A5F8A4000A4845F21E0199
:106AD000FEF788FBB5F8A630064845F21F010222F2
:106AE000FEF743FA01207076F4E600BFF02900209B
:106AF000A0000020702B00207047000070B5DFF868
:106B00009045208B0138208300040AD14FF47A701D
:106B1000DFF884252083DFF87C05816B516100213B
:106B20008163DFF87865DFF87055707890BB28785E
:106B300001282FD10A2004F0CBFB800868601020C8
:106B400004F0C6FBA6F84E00B6F84E00FDF7A6FE10
:106B5000C94ACA4BFDF7CFFBC94B0022FDF7CBFB5F
:106B6000C84AC94BFDF720FBC84AC94BFDF735FCA5
:106B7000C84B0022FDF718FBFDF7CAFEA5F89000F0
:106B8000013880B2312805D8686880087C289CBF0D
:106B90000120707095F83B00022815D1E08B013878
:106BA000E083000415D14FF47A70E083A88E013899
:106BB000A88600B2B0F1FF3F0BDC022086F84C0043
:106BC000002085F83B0004E04FF47A70E083688E83
:106BD000A88695F84F0080B1012840F0C88131792E
:106BE00095F8880099B1032800F25681DFE800F09B
:106BF0000278375795F84E0019E04FF47A706083A9
:106C000000203071A5F88E0085F84E00AFE101211B
:106C10000328317100F24081DFE800F0026524446E
:106C2000FEF76EFA03D20FF2A842FEF763FA0328CA
:106C300000F0DC80022800F0A180012840F0FD80F7
:106C4000FEF79CF940F02881FEF707F900F07A8101
:106C5000002840F02181A868B5F8B21006E195F847
:106C60004E0006E0FEF74CFA03D20FF24442FEF764
:106C700041FA032864D0022853D0012840F08D80C7
:106C8000FEF77CF940F00881FEF7E7F800F03E815E
:106C9000002840F00181A868B5F80011E6E095F8F9
:106CA0004E0006E0FEF72CFA03D20FF2F432FEF7A4
:106CB00021FA032800F08D80022850D0012840F0EE
:106CC000A280FEF75BF940F0E780FEF7C6F800F01F
:106CD0002D81002840F0E080A868B5F82611C5E0B5
:106CE00095F84E0006E0FEF70BFA03D20FF2D03211
:106CF000FEF700FA032800F0948002285CD00128F7
:106D000040F0A880FEF73AF940F0C680FEF7A5F8FB
:106D100000F01C81002840F0BF80A868B5F8DA10A8
:106D2000A4E0FEF72BF940F0B780FEF796F800F0EC
:106D3000E180002840F0B080A868B5F8081195E01F
:106D4000FEF71CF940F0A880FEF787F800F0D68027
:106D5000002840F0A180A868B5F8101186E0FEF781
:106D60000DF940F09980FEF778F800F0CB8000280C
:106D700040F09280A868B5F82E1177E0FEF7FEF893
:106D800040F08A80FEF769F800F0C480002840F0E7
:106D90008380A868B5F8BA1068E004287CD1FEF7B3
:106DA000EDF879D1FEF759F800F09480002873D1FE
:106DB000A868B5F8181159E0FEF7E0F86CD1FEF7B5
:106DC0004CF800F0AB80002866D1A868B5F8E21056
:106DD0004CE0FEF7D3F85FD1FEF73FF800F0A28059
:106DE000002859D1A868B5F836113FE0FEF7C6F87B
:106DF00052D1FEF732F800F09D8000284CD1A868EF
:106E0000B5F8C21032E0042846D1FEF7B7F843D1F6
:106E1000FEF723F862D000283ED1A868B5F83E11ED
:106E200024E0FEF7ABF837D1FEF717F800F08680C4
:106E300090BBA868B5F8EA1018E004282CD1FEF73A
:106E40009DF829D1FEF709F84CD028BBA868B5F801
:106E5000CA100BE004281FD1FEF790F81CD1FDF7F3
:106E6000FCFF43D0C0B9A868B5F8F210A1F10A023E
:106E7000904279D90A3171E052B81E85EB510A402F
:106E80000000303F295C8FC2F528F4BF33E197FA48
:106E90007953713F00002E40608B000467D14FF49E
:106EA0007A706083B5F88E000138A5F88E0000B2C4
:106EB000B0F1FF3F5BDC95F84E10002030710131DE
:106EC00085F84E10C9B2052924BFA5F84E00A5F8D3
:106ED0008E004CE0A868B5F81A113AE0A868B5F839
:106EE000401136E0A868B5F8CC1032E0A868B5F8D3
:106EF000F4102EE0A868B5F80A112AE0A868B5F8E1
:106F0000121126E0A868B5F8301122E0A868B5F89B
:106F100002111EE0A868B5F8BC101AE0A868B5F820
:106F2000E41016E0A868B5F8381112E0A868B5F8C2
:106F300028110EE0A868B5F8C4100AE0A868B5F8F2
:106F4000EC1006E0A868B5F8B41002E0A868B5F83F
:106F5000DC10A1F11202904206D91231884203D20C
:106F6000608B0138608398E74FF47A70608395F8FE
:106F7000530028B395F83900012805D1022086F87E
:106F80004C00002085F85300A08B0138A08300043A
:106F90001DD1B5F88C000138A5F88C0000B2B0F115
:106FA000FF3F09DC002085F85300022086F84C00E2
:106FB000B5F88A00A5F88C004FF47A70A08306E03B
:106FC0004FF47A70A083B5F88A00A5F88C00314C94
:106FD000206E80474248417B012906D1017B11B1D7
:106FE0000139017301E002214173017F09B10139C7
:106FF000017790F83110012909D190F8301019B1BA
:10700000013980F8301002E0022180F8311090F848
:10701000401011B1013980F8401090F85510012945
:1070200009D190F8541019B1013980F8541002E0D8
:10703000022180F8551090F8641011B1013980F8E0
:1070400064102848417B012906D1017B11B1013927
:10705000017301E002214173017F09B10139017718
:1070600090F83110012909D190F8301019B1013987
:1070700080F8301002E0022180F8311090F84010C2
:1070800011B1013980F84010E06B0130E06370BD50
:1070900000000020A0010020F0290020A000002016
:1070A0001C2B0020242B00202C2B0020342B002014
:1070B000F62A0020FE2A0020062B00200E2B00209E
:1070C000D02A0020D82A0020E02A0020E82A002028
:1070D000A82A0020B02A0020B82A0020C02A0020B8
:1070E00018020020840200201848C16941F0805134
:1070F000C16117490A7842F004020A70C16921F09F
:107100008051C161016841F0010101600168890796
:10711000FCD5416821F003014160416811F00C0F7A
:10712000FBD101680B4A114001600021416041F62A
:107130001071C1624FF4801101634FF41F0181602F
:1071400005484FF000610160704700BF0010024029
:1071500050700040FFFFF2FE08ED00E02DE9F84F0F
:10716000C44F3868C00700F05C81DFF8E0B99BF8D5
:107170000000012840F03E81DFF844A79AF80300A0
:10718000012814D1DFF8F464BB4D346D2946204644
:10719000FDF73CFB08B92C463565F56C4FF0804196
:1071A0004FF080462846FDF731FB30B109E0DFF8AB
:1071B000CC04B24C4FF081460465DFF8C00435467C
:1071C000C664BAF8526042F6E060864209D3DBE951
:1071D0005E010026AAF85260013041F10001CBE9BE
:1071E0005E019BF84000022813D0012815D19BF8BE
:1071F0004C00002861D0012840F082809BF83B00C1
:10720000022800F06F80002840F07A80BBF81C0054
:107210006DE0BBF81C10AAF85410022840F0E7807B
:107220009BF85000002840F0E2809BF84F000028B7
:107230004BD0012840F0DB809BF84E009AF80210FA
:10724000814209D0DFF8341400228A664A66CA6592
:107250008A658AF802004A659BF85200002800F00F
:10726000C680DFF8188486488649874AC8E9122113
:10727000C8F8500006F0A2F99BF88810CBF804007B
:10728000032900F2F4809BF9372010449BF9362043
:10729000851ADFE811F00400DE00C800D300FDF716
:1072A000E2FF00F2E480DFE810F005004A013B0154
:1072B0004401DF00BBF8B24043E19BF83B000228E9
:1072C00017D0E8B9BBF81C0018E006F077F9EB49D5
:1072D00000228A664A66CA658A65CBF80400CBF844
:1072E0005C2083E0BBF82E00BBF81C100844323051
:1072F00004E0BBF81C00BBF82E100844AAF85400A8
:107300009BF8390068B19BF84A1051B1012808BFB9
:10731000012962D106F052F9D849FDF759FF4A65B3
:107320005BE09BF85200002857D006F047F99BF924
:107330003710CBF80400BBF81C7008449BF93610DA
:10734000A0EB0109BAF85400BAF850100FFA80F80F
:10735000B94208D000F076FB8BF83700C74800210F
:107360004166AAF850700FFA89F908F1640048459F
:1073700007DA844F701CAAF852000020CBF85C009A
:107380002BE0A8F164007F4F484506DD8448CBF828
:107390005C00701CAAF852001FE008F10500484587
:1073A00004DBA8F10500484540F370800020AAF8EE
:1073B00056008AF803004046FDF751FA0446484655
:1073C000FDF74DFA01462046FEF716F8FDF769FF76
:1073D0000021FDF71BFA0028CFD09BF83B000328C3
:1073E00005D106F0EBF8A549FDF7F2FE4A659BF8DA
:1073F0003A0030B9DBF85C4000212046FDF706FA80
:1074000010B90024CBF85C402046FDF76DFA786295
:107410004FF08040016841F0010101606FF0010010
:107420003860BDE8F88FFDF71EFF20D8DFE800F0D8
:10743000036C72661C00BBF8004182E0FDF713FF8D
:1074400015D8DFE800F0036A735E1100BBF826412F
:1074500077E0FDF708FF0AD8DFE800F003656E5912
:107460000600BBF8DA406CE00020ABF84E00DBF819
:107470005C0078E01000004000401C4600204B47B4
:1074800000E0AB469A99193F00007A44BAF85600DA
:107490000130AAF8560080B23C28FFF48CAF0120DE
:1074A0003C498AF803000020AAF856002046FDF760
:1074B000BBF837490446FDF77FF9704E002828468F
:1074C0001CBF44F20004C4F21C643465FDF758FA92
:1074D000314A324BFCF768FE00224FF080430446ED
:1074E0000D464FF08047FDF79FF9002846D0204613
:1074F0002946FDF758FA234FF0645CE7BBF81841C2
:107500001FE0BBF83E411CE0BBF8084119E0BBF8A6
:10751000F24016E0BBF8104113E0BBF82E4110E03A
:10752000BBF8C2400DE0BBF8E2400AE0BBF83641D0
:1075300007E0BBF8CA4004E0BBF8EA4001E0BBF852
:10754000BA40204600F07EFA8BF837002046FDF75F
:107550008FF9044628B2FDF782F901462046FDF76F
:107560004BFFFDF79EFE00210024FDF74FF908B9FF
:10757000CBF85C400548C8F8500038E7F764014F85
:1075800019E700BF10000040A000002000204B477A
:1075900000401C460000FAC49A9999999999B9BF7C
:1075A000007F3B4707484168890709D5016889077B
:1075B00006D5C4498A6B01328A636FF002014160CB
:1075C000704700BF0C040040BCB5154D2868E86842
:1075D00080060DD5286880060AD528686868274C7B
:1075E0006868C1B2204605F0C3FF4FF48270A081E5
:1075F000E86840060FD5286840060CD51F4C6FF090
:1076000040000DF10701286004F1100005F09DFF16
:1076100010B100206077BCBD9DF807006860BCBD5C
:10762000004C0040BCB5144C2068E06880060BD5C7
:107630002068800608D52068606861680F4DFDF7F6
:107640002EFC4FF482702886E068400610D5206832
:1076500040060DD5094D6FF040000DF10701206087
:1076600005F1340005F071FF18B1002085F84100E4
:10767000BCBDFDF712BE00BF0050004084020020D8
:10768000BCB5144D2868E86880060BD528688006CC
:1076900008D568683D4CC1B2204605F069FF4FF43B
:1076A0008270A081E86840060FD5286840060CD596
:1076B000364C6FF040000DF10701286004F1100016
:1076C00005F043FF10B100206077BCBD9DF80700B6
:1076D0006860BCBD00380140BCB5134C2068E06850
:1076E000800609D52068800606D56168274DFDF71C
:1076F000D6FB4FF482702886E068400610D52068DB
:1077000040060DD5214D6FF040000DF107012060BE
:1077100005F1340005F019FF18B1002085F841008B
:10772000BCBDFDF7BABD00BF00440040BCB5164C5F
:107730002068E06880060FD5206880060CD5206898
:1077400060686168114D05F14800C9B205F010FF8D
:107750004FF48270A5F85400E068400610D5206808
:1077600040060DD5094D6FF040000DF10701206076
:1077700005F1580005F0E9FE18B1002085F8650014
:10778000BCBDFDF78ABD00BF0048004018020020C4
:10779000FEE710B504464AF25A5024F8820F180A40
:1077A000A071080A6171E371214620718220E070A6
:1077B000D01C0822A0700220BDE8104006F066BC74
:1077C0000648BFF34F8F064A016801F4E061114398
:1077D0000160BFF34F8F00BFFDE700BF0CED00E07D
:1077E0000400FA0500EB400107221E3902FA01F1FC
:1077F000044A136819431160916A21F01F0108437C
:10780000906270470C24014002484FF4805101609F
:10781000704700BF140C014002484FF480510160D2
:10782000704700BF100C0140B0B5C84C94F842003E
:1078300001280FD1224D6879DFE800F0032D1A21CD
:10784000130095F84C00022829D0012814BF00200D
:10785000012025E0FFF7D8FF1948002180F84C10DF
:107860001FE0FFF7D1FF0020687185F84C0018E099
:10787000FFF7D2FF1348FDF708FD143903E0114864
:10788000FDF703FD023972F100010AD30021C0E9BE
:107890001211042004E0FFF7BFFF032000E00220E4
:1078A000687194F83A0050B10548017801310170CF
:1078B000C9B2502903D3FDF717FD00210170B0BDF7
:1078C000A0000020A0010020F0B1E9B1F0B59308BC
:1078D00001300D461C462CB150F8046B013C36BA01
:1078E00040C5F8E712F003020CD00024182500264A
:1078F000A24205D0075D0134AF40083D3E43F7E7A3
:1079000041F82360BDE8F04070470000034A19B118
:1079100008C801391360FAE7106870470030024068
:10792000F0B532490A68C2F38103314A022B08D00C
:10793000ABBB0B6D9B0532D5CB6A9B0148BF2E4A72
:107940002DE00B688C6A1B0C002C13D40C680D689E
:10795000C5F34175C4F383440DB90F2C43D12D01F8
:1079600001352C44DB0702D00B689B0300D5214A6C
:10797000624314E08C6A8D6A8E6ADB071D4BC4F388
:107980000314C5F3082506F0070603D00F68BF03EC
:1079900058BF134604FA06F26B43B3FBF2F20260DF
:1079A00016A40B68C3F30313E35C184CDA4042607F
:1079B0000B68C3F30223E35C22FA03F3C3600B6892
:1079C000C3F3C223E35C0424DA4082600B680968D5
:1079D00004EA9363C1F3813119440DA3595CB2FBEE
:1079E000F1F10161F0BD0225BBE700BF04100240C8
:1079F00000127A0000093D00006CDC02000000006B
:107A000000000000010203040607080960E2000804
:107A100002040608020C08107CB5044600204FF64C
:107A2000FF75C6B26C2E09D8301903F03DFCADF8D5
:107A30000600B01CBDF80610A942F2D1BDF8060040
:107A40007CBD000082B0002165288DF80710ADF8DC
:107A500004108DF8031073D33C4991F822101F29AC
:107A60001BD3002182084A2A8DF8031035D86422DE
:107A7000ADF804208DF8071036499DF80720132A29
:107A80005BD84DF808EDFDF73AFC5DF808EB54D2F1
:107A90007346FDF737FA9E46EFE74A1E0021132A88
:107AA0004ED88DF8031081084A292ED86421ADF8EC
:107AB000041000218DF8071025499DF80720132A8E
:107AC00041D84DF808EDFDF71AFC5DF808EB34D20B
:107AD0007346FDF717FA9E46EFE74FF49671ADF83F
:107AE000041014218DF807101A499DF80720272A41
:107AF00023D84DF808EDFDF702FC5DF808EB1CD229
:107B00007346FDF7FFF99E46EFE74FF49671ADF827
:107B1000041014218DF807100D499DF80720272A1D
:107B20000BD84DF808EDFDF7EAFB5DF808EB04D241
:107B30007346FDF7E7F99E46EFE79DF80700095CFD
:107B400048B202B070470021FAE700BFF0290020D8
:107B500091E2000868E200082DE9F84FDFF848BC20
:107B60009BF80000012818BFBDE8F88FDFF83C8CB7
:107B700098F81F00092801F26383DFE810F00A007B
:107B80007C01D700FD003300A301DA015B01F7019E
:107B9000900098F82A00DFE810F009002E0407048E
:107BA0001104CD0338044204240453049BF84D000F
:107BB00098F82B10814240F0C6859BF8540098F845
:107BC0002D10814240F0C687002801F0D681BBF815
:107BD0001E20BBF81C108A4201F0CF81ABF81E10AA
:107BE00000F06FBE98F83A00DFE810F01000510581
:107BF000350543052005650577054A0586052E05EB
:107C00007F05110527056D050A053C05DFF8100DF8
:107C10009BF840109BF8512043798B4240F06787D6
:107C200098F83C30934240F062879BF8411082798B
:107C30008A4241F091819BF84210C2798A4241F018
:107C4000F7819BF84310027A8A4241F0AB839BF89C
:107C50004A10427A8A4241F0EA839BF84410827AC1
:107C60008A4241F02D849BF84510C27A8A4241F045
:107C700030849BF84610027B8A4241F02D849BF8A9
:107C80004810427B8A4241F02A849BF84C10827B48
:107C90008A421ABF81730F24002401F022BC9BF892
:107CA0004D001A2840F0F98598F847000024DFE8D5
:107CB00010F00C00F205C605B1058B05D505F205DF
:107CC000DC05F205BB059705A30598F8480098F870
:107CD00049109BF84F40431CDFF8440C4A1C88F8BD
:107CE000483088F84920017DA14240F073879BF815
:107CF0004E40457DA54241F08181DFF8280CBBF95B
:107D00008E40858DA54241F03783DBB20A2BC1F04E
:107D10007483DBF80820C38C002100249A421CBF26
:107D2000C284052488F8481000F0B5BD98F83500E5
:107D3000DFE810F00500E601D201DC01C8019BF884
:107D40004D0098F83610814240F091839BF8531013
:107D500098F83700884240F00285DFF8C80B002908
:107D6000828C01F0D880BBF98C108A4200F0B58378
:107D700089B2818400F082BB98F83800302801F283
:107D8000C880DFE810F031001208F107FE07A107F4
:107D90002F08460808085D08CF0753089707C10752
:107DA0003C088707FB077A072608500889082C0833
:107DB000390878089A08E307D907B5086D07A108BC
:107DC000AB0867081C086A088A0770075C075F072A
:107DD0004F07B2088208AB072908930845078407B4
:107DE0007108BC0859078D079BF84D0098F8393089
:107DF0009BF851109BF88820834208BF002901F0AE
:107E00000481072808BF002A01F0DD82072808BF87
:107E1000012A01F00A83072808BF022A01F04983DA
:107E200000230024032A08BF2524072818BF1C4666
:107E300001F040BB9BF84D001A2800F00281022897
:107E400041F0868098F83F00012800F07D820028EC
:107E500041F07E80FDF7CFF9FCF70AFDC6490446E4
:107E6000FCF7E2FB9BF84C10012918BF2046FCF7F9
:107E700022FD40BAF1E09BF84D001A2800F2028181
:107E80000121BE4A8140114200F0FC809BF838106D
:107E9000002900F0F080012940F0F4809BF83910AF
:107EA00011B9012288F82F209BF83B20002A00F00E
:107EB000DF81022A00F0DC81032A40F0E3809BF896
:107EC0002410DDE098F83D100220DFE811F00F00EB
:107ED000B20949035403280368037A035E038E033F
:107EE0003E038403080333037203EE02DFF8300A13
:107EF0009BF88920C17B914240F0F685042900F26D
:107F0000DC82DFE811F005007A09500965093B09B8
:107F10009BF84110027C8A4241F06C829BF8510030
:107F200098F83E10814200F0C88288F83E0001F0C7
:107F300062BA98F81A000124DFE810F00600220166
:107F4000EC00F3003F013E019BF84040012C02D0C1
:107F5000022C06D11A24DFF8C809FDF715F98BF8B1
:107F60004D40DFF8BC09FDF71CF8E2E098F840004E
:107F7000DFE810F00800BE01A101AB019301C701C9
:107F8000D601B70198F84500441C9BF8400088F8DA
:107F90004540012823D19BF83B0003281CD09BF8C7
:107FA00039309BF93700DBF804109BF9362013B108
:107FB0009BF84A3083B90844831ABBF81C2019B2D5
:107FC00002F16400884204DBA2F16400884241F3BC
:107FD000E181914241F35D80002088F84100DFF8A3
:107FE00040099BF83810427C8A4240F090839BF80D
:107FF0003B10827C8A4240F08B859BF83A10C27C11
:108000008A4240F0AC8798F8420098F843108142C9
:1080100041F0118098F8410098F84610814241F0F3
:10802000C481DBF85C00FCF746FC40F25721B0FB52
:10803000F1F098F84410884241F0FC81002401F0EE
:1080400006BA98F83F00012800F08D81002840F022
:108050007F87FDF7D0F800BA000CDFF8C4180E22B5
:10806000A1F848003C31022006F010F898F83F00D3
:10807000013000F06EBF002188F82F109BF822100D
:10808000CBF8181098F82E10DFE801F004D7BDC621
:10809000B2E2EB0098F83010814240F0F3819BF897
:1080A0003B00032800F05D85002840F09F8798F88A
:1080B0003400012840F07C870020042488F8340034
:1080C00000F095BFFDF7DDF800F0FA81022840F0DE
:1080D000048245F21201F5E1FDF7D3F800F0F581D5
:1080E000022840F0FA8145F21201F0E1FDF7C9F8EB
:1080F00000F0FF81022840F0058246F20311FAE108
:10810000FDF7BFF800F00082022840F0B78146F288
:108110000311FBE1DFF810089BF8513045F23C01F8
:1081200005E0DFF8040898F8193045F24901FCF73A
:10813000F3FF012088F81A009BF84D000E2845D166
:108140009BF83B00022804D09BF84C10012941F019
:10815000728098F81B10002941F06D80012188F889
:108160001D00002088F81B109BF84C108BF83B007A
:1081700088F81C1038E000BF000048C20600000468
:108180009BF85100002800F0C682DFF898079BF8A2
:108190004D10C28B142904BF0132C28392B2012A4E
:1081A00008D0142902D1B2F5C87FC2D300218BF8C0
:1081B0005110C1830220BDE71A24DFF86407FCF7E1
:1081C000E3FF01208BF84D4088F81A0098F81B0057
:1081D000012841F03080002098F81D1088F81B001D
:1081E00098F81C008BF83B108BF84C0001F023B87A
:1081F000DFF8340745F2040102220023FDF726F8D8
:10820000052400F0F4BE012800F0B382022840F0FB
:10821000D88246F2F301AEE2022800F0B2820128D1
:1082200040F0E486DFF80007BBF8183045F20E0195
:10823000FCF711FC062400F0DABEDFF8EC0645F28C
:108240000401022201230224FCF78FFE00F0CFBEBE
:10825000012800F0AD82022840F0B38246F2F3011B
:10826000A8E2DFF8C406BBF8183045F20C018EE234
:1082700001297FF403AF9BF84A1001297FF4FEAE79
:1082800098F82F1001297FF4F9AE9BF856100029B9
:108290007FF4F4AE9BF82510F2E69BF83B00002437
:1082A000002800F02B84032800F02784022833D113
:1082B000012400F023BCDFF8700645F2050102221C
:1082C00000230024FCF751FE26E09BF83810DFF86D
:1082D0005806D0F80441B1FA81F14B0945F2020188
:1082E00017E0DFF8440698F8413045F20A010EE045
:1082F000DFF8340645F2050102220123D0F80441DB
:1083000008E0DFF824069BF83A304FF4A041D0F89B
:1083100004410222A047002488F8404000F08BBFAF
:10832000DFF8040698F8413045F20901FCF793FBA9
:108330000724F1E7DFF8F00545F2030102220023EC
:10834000FCF784FF05240FE39BF8380020B10128D7
:1083500040F0FE85DBF81800DFF8C41581F85700FF
:108360004A3100F0F1BD9BF84F00002800F09882E0
:10837000012840F0ED859BF88800032800F2E8858D
:10838000DFE810F004007A0660066D06FCF766FF71
:1083900000F2DE85DFE810F00400870872087E082E
:1083A0009BF8B64000F0CABDFCF76BFF00F080827E
:1083B000022840F0958346F2C3017BE29BF84D0012
:1083C000022800F0808201285AD1DFF8580545F2D2
:1083D00007010222038CDFF85005FCF737FF072462
:1083E000C2E2FCF704FD00F07282002840F0BB827C
:1083F000E94CEA4D6DE2DFF8300545F20301022257
:1084000001230224FCF7B1FDAEE2FCF73AFF00F0D5
:108410007382022840F0668346F2C3016EE29BF845
:108420004D00022800F07382012829D1DFF8F804FA
:10843000BBF8083045F20701FCF70DFB082493E276
:108440009BF84100002800F07582012840F08B82E3
:10845000DFF8D404D0F80441DBF808008108E829EB
:1084600000F23783FCF71AFACD4ACE4B70E288F857
:1084700036009BF853000124002874E1022474E1C3
:10848000002473E2411E012900F2AE859BF83B10E7
:10849000032900F0A285002940F0A6850121ABF850
:1084A000561008F1330100F09DBDDFF87C049BF805
:1084B000893045F25401FCF7CEFA002000F0B9BE35
:1084C00045F20801BBF8263003E045F20801BBF88D
:1084D0008C30DFF85404FCF7BEFA002445E1FCF7C9
:1084E00086FC00F04D83002840F05283BBF8A43096
:1084F00048E346F23301DFF8300402224FF6FF73FF
:10850000FCF7A4FE042430E146F23301DFF818043E
:10851000022244F250730224FCF727FD25E1DFF824
:108520000804BBF8963045F21701FCF794FA0520D1
:1085300000F07FBEDFF8F003BBF8A63045F21F0164
:10854000FCF789FA0D2000F074BEDFF8DC03BBF8FD
:10855000A03045F21C01FCF77EFA0A2000F069BE4B
:108560009BF84100002800F01583012840F01B8390
:108570000BF1AA0010E3EC48BBF8943045F2160169
:10858000FCF769FA042000F054BEE748BBF89C30C1
:1085900045F21A01FCF75FFA082000F04ABEFCF72A
:1085A00026FC00F00283002840F00783BBF89830D7
:1085B000FDE2DD48BBF8A83045F22001FCF74BFA9C
:1085C00093E2D948BBF89A3045F21901FCF743FA17
:1085D000072000F02EBED448BBF8A23045F21D01A2
:1085E000FCF739FA0B2000F024BE9BF8410000286C
:1085F00000F0E582012840F0EB820BF1AE00E0E2F2
:10860000C948BBF8323045F2340100F0B0BCC44870
:10861000002401210922A0F82F1080F8314000F138
:108620002901022005F032FD00F0A4BCBE489BF8F1
:10863000433045F2300100F09ABCBB489BF848300B
:1086400045F2380100F093BCB7489BF84A3045F238
:10865000450100F08CBCB4489BF8413045F22E0136
:1086600000F085BCB0489BF84C3045F23E0100F06C
:108670007EBCAD489BF8423045F22F0100F077BC3C
:10868000A9489BF8463045F2320100F070BC9BF8D7
:1086900040009BF84C10012808BF012900F09D8282
:1086A000012808BF002900F05D84022840F06184A1
:1086B000022300F058BCDFF8580E9BF8443045F216
:1086C000310100F054BCFCF792FB00F088820028D6
:1086D00040F09482BBF82E308AE2DFF8340E9BF82B
:1086E000453045F2440100F042BCDFF8380EFCF79B
:1086F00058FC0B2400F03EBC9BF84100002800F021
:108700007F82012840F035840BF120007AE2417429
:10871000032400F09CBE98F81900012840F0FC8169
:10872000DFF8041E0120CA8B531C002A9AB2CB83A7
:1087300008BF0320C82AFFF4FDAC002088F8190008
:10874000C8830320F6E4411E012905D8002188F8DA
:108750002D100121ABF8541088F82B0003E10124FF
:1087600088F83710002908BF032488F8354000F046
:1087700062BD46F26301DFF8980D022243F67F43A3
:108780001DE0DFF88C0DBBF8183045F21101FCF745
:10879000C3FC00F02BBC00BF9999D93F9A999999D5
:1087A000E17A14AE47E1CA3FF0290020A000002082
:1087B00046F26301DFF8580D02224FF6FF73FCF713
:1087C00045FD032400F013BC9BF84E000138C0B2F5
:1087D000032860D80FF63C5151F82000038853E07D
:1087E000DFF82C0D46F2930102224FF6FF73FCF7DF
:1087F0002DFD0B2088F847009BF84F00002800F063
:108800009F81012846D1DFF8080DBBF88E3045F274
:1088100041013DE0DFF8F80C9BF84E3045F2430192
:10882000FCF719F9042436E0DFF8E40C46F2930172
:10883000022244F25073FCF709FD0B242BE0DFF811
:10884000D00C9BF84F3045F24201FCF704F99BF83D
:108850004F000A24012808BF09241CE0DFF8B00CEF
:10886000BBF8083045F23F0112E0DBF808009BF846
:108870002510BBF81820452898BF11469BF83800F2
:10888000012818BF11468BB2DFF8840C45F2400175
:10889000FCF742FC002488F84740002000F0CEBCE2
:1088A000DBF804004728C0F040839BF8254045E3EF
:1088B00046F20301DFF8580C02224FF66043FCF742
:1088C000C5FC032450E0DFF8600C038C21E0174C5A
:1088D000174DDFF8540C008CFBF7E0FF02460B4607
:1088E00028462146FBF707FDFCF712F80346DFF8A0
:1088F000200CD0F8044132E046F20301DFF8100CFE
:1089000002224FF6FF73FCF7A1FC06242CE0BBF813
:108910000830DFF8FC0B45F21001D0F8044120E0EC
:1089200000000020A0010020702B002047E1CA3F7A
:10893000E17A14AEDFF8D80BD0F80441DBF8080078
:1089400081087C2900F2C580FBF7A8FFE84AE94BC3
:10895000FBF7D1FCFBF7DCFF0346DFF8B40B45F275
:108960000B010222A04700249BF84D001A2888F82A
:108970002A4000F26084012101FA00F0DE49084239
:1089800000F059849BF8414024B1012C08D10BF12F
:10899000200001E00BF11C000088DFF88C1B08842C
:1089A0009BF93700DBF804A09BF936105044401ABD
:1089B000FBF75EFF9BF84C109BF84090064689F051
:1089C000010081F0010141EA0007CC493046FBF784
:1089D0002BFE0546380618BF3546012C35D0002C35
:1089E00040F029849BF839609BF83B709BF843402A
:1089F0009BF84A805046FBF73BFF032F88F00101AC
:108A000008BF284686F00102DFF8008B114318BF2B
:108A10002846FBF769FFBBF89020904288BF0246CA
:108A2000CBF80820B9F1010F08BF012C40F00384F6
:108A3000BBF81C1001F11400824280F0FC83A1F10C
:108A40001400824242D800F0F6BB9BF8390001289E
:108A50000CD19BF84A00012808D10AEBCA00052175
:108A6000B0FBF1F02030FBF703FF0AE0A4492846F1
:108A7000FBF732FEA349FBF761FE4FF08441FBF7A1
:108A8000D3FDBBF89010052201EBC101B1FBF2F15F
:108A900001F12004FBF728FF844288BF2046CBF871
:108AA0000800B9F1010F40F0C6839BF8431001297B
:108AB00040F0C183BBF8201001F12402904280F005
:108AC000BA83A1F12402904240F2B583CBF808109A
:108AD000B1E3DFF83C0A45F20B010222C82341E76B
:108AE000032443E7062441E7C2730E20A1E388F87C
:108AF0003C204171012400F0F4BC0224DFF8100A8C
:108B000045F2010102222346FCF72FFAFFF703BCCE
:108B10008174042400F09BBC9BF84D109BF840002E
:108B2000282908BF012800F06D82012202284FF099
:108B3000010008BF0520282918BF1046FFF7FABA20
:108B4000DFF8CC0945F24101022200230024FCF7A2
:108B50000CFAA0E6012488F82D00002808BF0424A0
:108B600002E798F83400002800F044829BF82400C3
:108B700098F83210814200F0398288F8320020E6FD
:108B8000BBF8B030DFF8880945F21E01FBF763FF40
:108B90000C204EE30BF192000388DFF8740945F2D4
:108BA0001501FBF758FF032043E3BBF8AC30DFF8B7
:108BB000600945F21801FBF74EFF062039E30BF17F
:108BC0009E000388DFF8480945F21B01FBF743FFCD
:108BD00009202EE3047502245DE60023C3E1BBF8FF
:108BE0002E00052100EBC000B0FBF1F0203083B275
:108BF000DFF81C0945F23301FBF72DFF0E24B9E124
:108C00000BF11C000388DFF8080945F23501AEE1DD
:108C1000FCF7EDF800F04582002840F0A282BBF896
:108C200036318AE2FCF7E3F800F03E82002840F09B
:108C30009882BBF826316AE2BBF842313FE1BBF8CB
:108C40001C313CE1DFF8C808BBF81E3145F22D01AC
:108C5000FBF701FF9BF85140002C18BF252483E24D
:108C6000BBF8063113E1FCF7C2F800F020820028BF
:108C700040F07782BBF818316DE2FCF7B8F800F0ED
:108C80001982002840F06D82BBF8E2305CE2BBF84C
:108C90003A31E4E0BBF8DE302CE1BBF81631E5E018
:108CA000DFF86C08BBF8443145F22D01FBF7D3FE29
:108CB000002459E2DFF85808BBF8CE3045F22C0109
:108CC000FBF7C9FE0C244FE2FCF791F800F0F581A8
:108CD000002840F0FA81BBF8BA30F0E1FCF787F8E1
:108CE00000F0F581002840F03C82BBF82E312BE2E9
:108CF0009A9999999999D93F06000004000048C2B1
:108D0000000010410000A040DFF80408BBF8D0309C
:108D100045F22D01FBF79FFE9BF85140002C18BF38
:108D20000D2421E2DFF8E807BBF8C83045F22A013C
:108D3000FBF791FE0A2417E2FCF759F800F0CA810C
:108D4000002840F00E82BBF80031E0E1DFF8C007F8
:108D5000BBF8F83045F22D01FBF77DFE9BF8514042
:108D6000002C18BF1924FFE1DFF8A407BBF8B630C8
:108D700045F22301FBF76FFE0324F5E1BBF8E03079
:108D800085E0DFF88C07BBF8B83045F22401FBF72B
:108D900062FE0424E8E1FCF72AF800F09E81002836
:108DA00040F0A381BBF8C23099E1FCF720F800F055
:108DB0009E81002840F0BA81BBF8B23099E1FCF7FF
:108DC00016F800F09F81002840F0CB81BBF81031ED
:108DD000B3E1BBF8E63083E0BBF8323180E0BBF8AA
:108DE000EE303CE0DFF82807BBF8BE3045F2260144
:108DF000FBF731FE0624B7E1BBF8F03036E0FBF7B5
:108E0000F6FF00F08281002840F0AB81BBF8DA3039
:108E10007DE1DFF8FC06BBF8C03045F22701FBF727
:108E20001AFE0724A0E1BBF8E83041E0FBF7DFFFC2
:108E300000F07281002840F07781BBF8CA306DE104
:108E4000DFF8CC06BBF8C63045F22901FBF703FE7C
:108E5000092489E1BBF80E312AE0BBF81431DFF8B0
:108E6000B00645F229017AE1BBF83C31DFF8A006F3
:108E700045F22A0173E1FBF7BAFF00F0598100289F
:108E800040F06F81BBF8F23065E1BBF82C31DFF8C0
:108E9000800645F2240162E1FBF7A9FF00F04B8157
:108EA000002840F05E81BBF8EA3046E1BBF834317F
:108EB000DFF85C0645F2270151E1BBF8F630DFF838
:108EC000500645F22C014AE1FBF791FF00F03A8190
:108ED000002840F04681BBF8083135E1BBF80C3181
:108EE000DFF82C0645F2260139E1BBF82A3101E012
:108EF000BBF80431DFF8180645F223012FE1FBF738
:108F000076FF00F02681002840F02B81BBF83E312F
:108F100021E1042092E1BBF826108A423FF4DDAA49
:108F2000BBF88C108184FFF7EDBADFF8E40545F259
:108F30004001022200230024FCF717F8DFF8E405C3
:108F400000F14A0180F8574002200E2205F09EF8F9
:108F5000002088F83F006EE181710224C1E2C174F3
:108F6000052474E20123DFF8A80545F21401FCF79B
:108F7000D3F8002488F83A405DE100287FF4F3AC90
:108F800098F82C00DFF8A0150024421CDBF808003C
:108F90004B8C88F82C2098423FF4E6ACD2B20A2AD7
:108FA000FFF4E2AC48840020062488F82C00DBE4BF
:108FB0009BF8560098F83310814240F0D880002882
:108FC00000F003829BF822009BF82310814200F0FE
:108FD000FC818BF82300FFF7F4BB002188F83410E4
:108FE00008F1320100220A7088F83000002488F865
:108FF0002E4020E1012488F83440F8E7447503242A
:10900000FFF749BC0420FFF7DFB8DFF81805C17887
:10901000914240F0B6819BF84110027900248A42C7
:1090200000F0A28001710A2188F83940C1709BE0EC
:10903000C171032455E2022488F84300002818BFB8
:10904000012404E2FCF70AF93FF682AFDFE810F0F2
:10905000040019020D0210029BF804416EE7FCF7B0
:10906000FDF83FF675AFDFE810F0040018020602C5
:1090700012029BF82A4161E7FCF7F0F83FF668AF6F
:10908000DFE810F00400140202020E029BF8DE403A
:1090900054E7A2F1640088427EF7A1AF6420FEF796
:1090A0009CBFBBF8383148E0BBF828312FE0BBF853
:1090B0001A3150E0BBF8E43046E0BBF8BC30DFF8D2
:1090C000500445F22501FBF7C6FC05244CE0BBF833
:1090D000303139E0BBF8023119E0BBF8C430DFF8B9
:1090E000300445F22801FBF7B6FC08243CE0BBF84D
:1090F000B430DFF81C0445F2220102220224FBF7FF
:1091000034FF31E0BBF8123117E0BBF8DC30DFF898
:10911000000445F2220122E0BBF8CC30DFF8F00376
:1091200045F22B01FBF797FC0B241DE002241BE00A
:10913000BBF8F4300FE0BBF8EC30DFF8D40345F2B5
:1091400028010CE0BBF80A31DFF8C40345F2250121
:1091500005E0BBF84031DFF8B80345F22B01FBF71F
:10916000DBFF98F83800441C88F8384063E001249D
:1091700088F83300002808BF042438E7BBF8A400AF
:10918000BBF81C10814251D1BBF8B000BBF82010D5
:1091900081424BD19BF82200BBF8A610814245D1F9
:1091A000BBF8A8003DE0BBF89800BBF81C1081425A
:1091B0003CD1BBF8AC00BBF82010814236D19BF803
:1091C0002200BBF89A10814230D1BBF89C0028E005
:1091D000BBF89E00BBF81C10814227D1BBF8AE0043
:1091E000BBF82010814221D19BF82200BBF8A010CF
:1091F00081421BD1BBF8A20013E0BBF89200BBF880
:109200001C10814212D1BBF8AA00BBF82010814289
:109210000CD19BF82200BBF89410814206D1BBF818
:109220009600BBF8261081423FF447A900208BF836
:10923000890088F83D0098F81F00013088F81F0069
:1092400098F81E00002840F09180BBF81C0000EB4D
:10925000C0010520B1FBF0F12031ABF82010BBF8C4
:109260002E10FBF785FEABF83010BBF89210FBF721
:109270007FFEABF8AA10BBF89810FBF779FEABF8AD
:10928000AC10BBF89E10FBF773FEABF8AE10BBF84A
:10929000A410FBF76DFEABF8B010BBF8B210FBF7F3
:1092A00067FEABF8B410BBF8BA10FBF761FEABF881
:1092B000BC10BBF8C210FBF75BFEABF8C410BBF8E8
:1092C000CA10FBF755FEABF8CC10BBF8DA10FBF771
:1092D0004FFEABF8DC10BBF8E210FBF749FEABF831
:1092E000E410BBF8EA10FBF743FEABF8EC10BBF858
:1092F000F210FBF73DFEABF8F410BBF80011FBF7E2
:1093000037FEABF80211BBF80811FBF731FEABF8E2
:109310000A11BBF81011FBF72BFEABF81211BBF8CA
:109320001811FBF725FEABF81A1100218BF88910F4
:10933000012188F81E10BBF82611FBF719FEABF8C7
:109340002811BBF82E11FBF713FEABF83011BBF858
:109350003611FBF70DFEABF83811BBF83E1101EBEF
:10936000C101B1FBF0F02030ABF840016848D0F803
:109370000811BDE8F84F0847A1B20B248185FFF71B
:109380008ABAC27002EB420000248000042A38BF6F
:10939000441CE9E6981A9142B8BFD01A08BF0120D0
:1093A000FEF71BBE017204249BE0E1B200241029E9
:1093B00006D39BF84D1088F84540012908BF0624C4
:1093C00088F8460043E0012474E09BF8250098F8F3
:1093D0003110814245D153489BF8381042788A4277
:1093E00071D19BF8391082788A423FF4FFAD8170C9
:1093F000FFF7E7B9017401201BE7D2B200240A2A63
:10940000FFF449AA00297FF446AADBF81810038D5F
:109410009BF82520994203D1438D93423FF43BAA08
:10942000428501850724FFF736BA0D2442E04172D8
:10943000092456E0E1B20024102906D39BF84D1010
:1094400088F84540012908BF062488F84400DBF865
:1094500014000021632888BF012188F84210FEF71C
:109460005BBF88F83100FFF7ACB99BF8144165E5A4
:109470009BF81C4162E59BF83A415FE59BF8C640CA
:109480005CE59BF80C4159E59BF8EE4056E59BF8EE
:10949000424153E59BF8CE4050E59BF832414DE503
:1094A0009BF8F6404AE59BF8BE4047E59BF8E6404E
:1094B00044E5192488F83900002918BF012453E62F
:1094C000817205240DE000244170002908BF0324A7
:1094D0008DE5C172062404E00173072401E04173A5
:1094E0000C249BF84D0098F83B1081423FF442ADAC
:1094F0000C2807D00E2803D0132808BF0A2402E046
:10950000082400E00D2488F83B0033E5A00000208B
:10951000702B0020A62A0020AE2A0020B62A0020A8
:10952000BE2A002000000020A001002006490748B4
:109530000A7822B94CF6CC42026001220A704AF63F
:10954000AA210160704700BF2123002000300040A5
:1095500010B5214C226842F00102226001804FF4D4
:10956000801000F017F8FBF709BB00BF084801683E
:10957000C9071CBF002070470168490744BF01208C
:1095800070470068C0064FF0020058BF03207047C4
:109590000C200240B0B50446FFF7E8FF0025013C6F
:1095A00045F1000118B911B1FFF7E0FFF7E7B0BDD1
:1095B00010B5094C216841F002012160606020680B
:1095C00040F0400020604FF08040FFF7E3FF20684C
:1095D00020F00200206010BD102002402DE9F04F65
:1095E0008FB0DFF8608A98F80600032801F23D8604
:1095F000DFE810F0040036050C00080598F81300A9
:10960000002801F02280012001F01BB8FB49DFF89F
:10961000384AFB4FDFF8345A881D894698F81210F3
:1096200011F0010608BFA7F1D20094F9361089B2F3
:10963000A84709F10800002E08BFA7F1D000E18D6E
:10964000A84709F10A00002E08BFA7F1CE00618EDD
:10965000A84709F10C00002E08BFA7F1CC00B4F810
:109660008A10A84709F1D000002E08BFA7F1080012
:1096700094F84010A84709F10E00002E08BFA7F18A
:10968000CA0094F84110A84709F11000002E08BF45
:10969000A7F1C80094F84210A84709F11200002E63
:1096A00008BFA7F1C60094F84310A84709F11400B9
:1096B000002E08BFA7F1C40094F84410A84709F190
:1096C0001600002E08BFA7F1C20094F84510A84765
:1096D00009F11800002E08BFA7F1C00094F8461049
:1096E000A84709F11A00002E08BFA7F1BE0094F8A0
:1096F0004810A84709F11C00002E08BFA7F1BC00C4
:1097000094F84910A84709F11E00002E08BFA7F1E0
:10971000BA0094F84B10A84709F12000002E08BFAA
:10972000A7F1B80094F84C10A84709F12200002EC8
:1097300008BFA7F1B600B4F89210A84709F12400B9
:10974000002E08BFA7F1B400B4F89410A84709F19F
:109750002600002E08BFA7F1B200B4F89610A84763
:1097600009F12800002E08BFA7F1B000B4F8981046
:10977000A84709F12A00002E08BFA7F1AE00B4F8EF
:109780009A10A84709F12C00002E08BFA7F1AC00E1
:10979000B4F89C10A84709F12E00002E08BFA7F1CD
:1097A000AA00B4F89E10A84709F13000002E08BFA7
:1097B000A7F1A800B4F8A010A84709F13200002EC4
:1097C00008BFA7F1A600B4F8A210A84709F1340019
:1097D000002E08BFA7F1A400B4F8A410A84709F10F
:1097E0003600002E08BFA7F1A200B4F8A610A847C3
:1097F00009F13800002E08BFA7F1A000B4F8A810A6
:10980000A84709F13A00002E08BFA7F19E00B4F85E
:10981000B210A84709F13C00002E08BFA7F19C0038
:10982000B4F8B610A84709F13E00002E08BFA7F112
:109830009A00B4F8B810A84709F14000002E08BFFC
:10984000A7F19800B4F8BA10A84709F14200002E19
:1098500008BFA7F19600B4F8BE10A84709F144006C
:10986000002E08BFA7F19400B4F8C010A84709F172
:109870004600002E08BFA7F19200B4F8C210A84716
:1098800009F14800002E08BFA7F19000B4F8C610F7
:10989000A84709F14A00002E08BFA7F18E00B4F8CE
:1098A000C810A84709F14C00002E08BFA7F18C0092
:1098B000B4F8CA10A84709F14E00002E08BFA7F15E
:1098C0008A00B4F8CE10A84709F15000002E08BF56
:1098D000A7F18800B4F8D010A84709F15200002E73
:1098E00008BFA7F18600B4F8D210A84709F15400C8
:1098F000002E08BFA7F18400B4F8D610A84709F1DC
:109900005600002E08BFA7F18200B4F8D810A8476F
:1099100009F15800002E08BFA7F18000B4F8DA1052
:10992000A84709F15A00002E08BFA7F17E00B4F83D
:10993000DE10A84709F15C00002E08BFA7F17C00EB
:10994000B4F8E010A84709F15E00002E08BFA7F1A7
:109950007A00B4F8E210A84709F16000002E08BFB1
:10996000A7F17800B4F8E610A84709F16200002ECC
:1099700008BFA7F17600B4F8E810A84709F1640021
:10998000002E08BFA7F17400B4F8EA10A84709F147
:109990006600002E08BFA7F17200B4F8EE10A847C9
:1099A00009F16800002E08BFA7F17000B4F8F010AC
:1099B000A84709F16A00002E08BFA7F16E00B4F8AD
:1099C000F210A84709F16C00002E08BFA7F16C0047
:1099D000B4F8F610A84709F16E00002E08BFA7F1F1
:1099E0006A00B4F8F810A84709F17000002E08BF0B
:1099F000A7F16800B4F8FA1000F004B800F4010808
:109A0000D8FC0108A84709F17200002E08BFA7F191
:109A10006600B4F8FC10A84709F17400002E08BFD6
:109A2000A7F16400B4F8FE10A84709F17600002EF3
:109A300008BFA7F16200B4F80011A84709F1780047
:109A4000002E08BFA7F16000B4F80411A84709F17F
:109A50007A00002E08BFA7F15E00B4F80611A847EF
:109A600009F17C00002E08BFA7F15C00B4F80811D2
:109A7000A84709F17E00002E08BFA7F15A00B4F8EC
:109A80000C11A84709F18000002E08BFA7F158006B
:109A9000B4F80E11A84709F18200002E08BFA7F103
:109AA0005600B4F81011A84709F18400002E08BF31
:109AB000A7F15400B4F81411A84709F18600002E4C
:109AC00008BFA7F15200B4F81611A84709F18800A1
:109AD000002E08BFA7F15000B4F81811A84709F1EB
