:020000040800F2
:10000000A812002039020008F5030008ED030008DB
:10001000F1030008E5030008E50700080000000000
:10002000000000000000000000000000C5040008FF
:10003000E903000800000000C1040008C90400082A
:10004000530200085302000853020008530200083C
:10005000530200085302000853020008530200082C
:10006000530200085302000853020008530200081C
:10007000530200085302000853020008530200080C
:1000800053020008530200085302000853020008FC
:1000900053020008530200085302000853020008EC
:1000A00053020008530200085302000853020008DC
:1000B00053020008530200085302000853020008CC
:1000C00053020008530200085302000853020008BC
:1000D00053020008A5050008530200085302000857
:1000E00053020008530200085302000800000000F9
:1000F0000000000000000000000000000000000000
:100100000000000053020008530200080000000035
:100110005302000853020008000000000000000025
:10012000530200085302000853020008530200085B
:1001300000000000000000000000000000000000BF
:100140000000000000000000000000005302000852
:1001500000000000000000005302000853020008E5
:100160000000000000000000000000005302000832
:1001700000F002F800F050F814A696E8000CB24423
:10018000B344DA4501D100F047F8BAE80F000FA6F2
:1001900096E83000A5EB040504EB0607AAEB07047C
:1001A000A7F101074FEA15154FEA3414A4F1010431
:1001B000AC4201D300F030F813F0010F18BFFB1A66
:1001C00043F0010300F001F8DBE718479823000033
:1001D000B8230000103A24BF78C878C1FAD8520773
:1001E00024BF30C830C144BF04680C6070470000B1
:1001F000704700000023002400250026103A28BF85
:1002000078C1FBD8520728BF30C148BF0B60704788
:100210001FB51FBD10B510BD00F031F81146FFF736
:10022000F7FF01F00BFB00F04FF803B4FFF7F2FF0C
:1002300003BC00F057F80000094880470948004710
:10024000FEE7FEE7FEE7FEE7FEE7FEE7FEE7FEE786
:10025000FEE7FEE704480549054A064B70470000E3
:10026000D104000871010008A80C0020A812002089
:10027000A80E0020A80E00207047704770477546F2
:1002800000F02CF8AE4605006946534620F0070002
:10029000854618B020B5FFF7DDFFBDE820404FF0E0
:1002A00000064FF000074FF000084FF0000BAC467F
:1002B000ACE8C009ACE8C009ACE8C009ACE8C009CA
:1002C00021F007018D46704710B50446AFF300805A
:1002D0002046BDE81040FFF7A8BF00000048704767
:1002E0000800002001491820ABBEFEE726000200EE
:1002F000704753EA020C00F069802DE9F04B4FF093
:100300000006002B1FBFB3FA83F503FA05F424FAA5
:1003100005F65E4012BF1643B2FA82F502FA05F402
:10032000C5F120051EBF22FA05FC44EA0C04203565
:1003300056EA044C4FEA144418BF641C4FF00008FE
:100340004FF00009904271EB030C39D3002919BF1B
:10035000B1FA81F701FA07F6B0FA80F700FA07F66A
:10036000C7F120071EBF20FA07FC46EA0C0620371B
:10037000B6FBF4FCA7EB0507103F07F01F0BCBF112
:1003800020062CFA06F60CFA0BFB44BFB3460026F7
:10039000202FA4BF5E464FF0000B5BEA060C08BF9F
:1003A0004FF0010B19EB0B0948EB0608ABFB027C85
:1003B00006FB02CC0BFB03CCC01B71EB0C01C1E7AD
:1003C0000B46024641464846BDE8F08B13B508434C
:1003D00018BF4FF0FF300146AFF30080BDE81C406E
:1003E00070470000FFE7FEE770470000FFE7FEE709
:1003F000FFE7FEE77047000086B0059004910020FB
:100400000390059800F0070002900298C0F10700E1
:10041000052802D3FFE7042003E00298C0F107009B
:10042000FFE7019002980430062802D8FFE7002079
:1004300002E002980338FFE7009004980199012236
:1004400002FA01F10139084000998840039B02FA41
:1004500001F101391940084306B0704786B0059094
:1004600004910392059800F0070002900298C0F1F1
:100470000700052802D3FFE7042003E00298C0F13B
:100480000700FFE7019002980430062802D8FFE732
:10049000002002E002980338FFE7009004980199D9
:1004A000012202FA01F10139084000998840039BBA
:1004B00002FA01F101391940084306B07047000003
:1004C000704700007047000080B501F0C5FF80BD97
:1004D00041F21C00C4F20200016841F08051016049
:1004E00047F25001C4F200010A7842F004020A7097
:1004F000016821F08051016041F20000C4F2020065
:10050000016841F001010160FFE741F20000C4F21F
:1005100002000068C0F34000012801D0FFE7F4E7C3
:1005200041F20400C4F20200016821F003010160FD
:10053000FFE741F20400C4F202000068800880076F
:1005400008B1FFE7F5E741F20000C4F202000168DC
:100550004FF6FF72CFF6F2621140016041F20400E3
:10056000C4F202000021016041F22C00C4F202003A
:1005700041F61071016041F23000C4F202004FF404
:100580008011016041F20800C4F202004FF41F0123
:1005900001604EF60850CEF200004FF0006101609D
:1005A0007047000010B582B001F02EFD002800F069
:1005B0001781FFE701F0F6FB40F26A01C2F2000189
:1005C0000880087840F26801C2F200010A8840F60B
:1005D0008003C2F20003985408880130088008881C
:1005E00016286FD1FFE740F68004C2F200042046CF
:1005F000102100F063FA042000F044FB019000F0A9
:1006000067FB607C9DF8071088425AD1FFE740F6EF
:100610008000C2F20000807C9DF80610884250D114
:10062000FFE740F68000C2F20000C07C9DF8051094
:10063000884246D1FFE740F68000C2F20000007D0C
:100640009DF8041088423CD1FFE740F68000C2F2DA
:1006500000004078012812D1FFE740F68000C2F286
:100660000000807801280AD1FFE740F68000C2F23E
:100670000000007918B9FFE701F094FA1AE040F69B
:100680008000C2F200004078022812D1FFE740F655
:100690008000C2F20000807801280AD1FFE740F60E
:1006A0008000C2F20000007918B9FFE701F024FBD6
:1006B000FFE7FFE740F26800C2F20000002101807E
:1006C000FFE7FFE740F26800C2F20000008840F256
:1006D0000C41884240F08380FFE740F26800C2F29C
:1006E00000000021018040F68000C2F20000007886
:1006F000D12870D1FFE740F68000C2F2000090F8E8
:100700000B04F02867D1FFE740F68004C2F2000432
:10071000204640F2064100F0D1F94FF4817000F01C
:10072000B1FA009000F0D4FA94F807049DF8031091
:1007300088424CD1FFE740F68000C2F2000090F8FA
:1007400008049DF80210884241D1FFE740F680007E
:10075000C2F2000090F809049DF80110884236D1D9
:10076000FFE740F68000C2F2000090F80A049DF80E
:10077000001088422BD1FFE700F014FA40F2000489
:10078000C2F20004206800F037FE206800F58060A7
:10079000206001F0B1FA40F68000C2F200008078DB
:1007A000042813D1FFE744F20700C0F600000078E8
:1007B0004FF00061B1EB006F07D1FFE740F26C0032
:1007C000C2F2000001210170FFE7FFE702E001F043
:1007D0003DFAFFE702E001F039FAFFE7FFE7FFE744
:1007E00002B010BDFFE7FEE781B08DF803009DF970
:1007F000030000280FD4FFE79DF9030000F01F015C
:10080000012202FA01F140094EF28022CEF20002EA
:1008100042F82010FFE701B07047000081B08DF86A
:1008200003009DF90300002813D4FFE79DF903009E
:1008300000F01F01012202FA01F140094EF280127C
:10084000CEF2000242F82010BFF34F8FBFF36F8F3C
:10085000FFE701B07047000081B08DF803009DF9FB
:10086000030000280FD4FFE79DF9030000F01F01EB
:10087000012202FA01F140094EF20012CEF200020A
:1008800042F82010FFE701B0704700004EF60C5010
:10089000CEF200000068C0F3022070474EF60C5004
:1008A000CEF200000068C0F30220704782B08DF8DD
:1008B000070000919DF9070000280AD4FFE700987F
:1008C00000019DF907104EF20042CEF2000288545A
:1008D0000BE0009800019DF8071001F00F014EF6A3
:1008E0001452CEF200028854FFE702B070470000B5
:1008F00082B08DF8070000919DF9070000280AD406
:10090000FFE7009800019DF907104EF20042CEF279
:10091000000288540BE0009800019DF8071001F0D8
:100920000F014EF61452CEF200028854FFE702B0D7
:100930007047000083B00290029800F0070000901A
:100940004EF60C50CEF200000168019101994FF66D
:10095000FF02114001910199009A41EA022100220F
:10096000C0F2FA52114301910199016003B070473E
:1009700070B582B044F20000C0F60000009000980C
:10098000006800F16040B0F5004F00F29580FFE78D
:100990000124C0F21C042046002100F023FC0E2597
:1009A000C0F218052846002100F01CFC0226C0F207
:1009B00018063046002100F015FC0620C0F2140095
:1009C000002100F00FFC4FF4A010002100F00AFC01
:1009D0004FF4C010002100F005FC3046002100F06B
:1009E00001FC0320C0F21800002100F0FBFB0420F2
:1009F000C0F21800002100F0F5FB0520C0F218003D
:100A0000002100F0EFFB0720C0F21800002100F0E9
:100A1000E9FB0920C0F21800002100F0E3FB0C20E4
:100A2000C0F21800002100F0DDFB2846002100F094
:100A3000D9FB4FF4E010002100F0D4FB2046002148
:100A400000F0D0FB1120C0F21C00002100F0CAFB16
:100A50001220C0F21C00002100F0C4FB1320C0F2E1
:100A60001C00002100F0BEFB252000F037FF1D20F8
:100A700000F034FF262000F031FF282000F02EFF88
:100A80002620FFF7B1FE2820FFF7AEFE2520FFF756
:100A9000ABFE1D20FFF7A8FE0098406840F27001F1
:100AA000C2F200010860009800680190019880F38C
:100AB000088808688047FFE702B070BD8BB00990D6
:100AC00040F27840C2F200000890012007900691A1
:100AD000099818B1FFE7089818B9FFE700200A90B5
:100AE0005EE007980699884203D9FFE700200A9044
:100AF00056E006980799401A013005900998079921
:100B000008440490002002900390FFE703980599A1
:100B1000B0EB910F11D2FFE70498006800BA089972
:100B2000029A531C029341F8220004980430049066
:100B3000FFE7039801300390E8E79DF81400800771
:100B400058B3FFE700200190059901F003018DF8EB
:100B500003108DF80200FFE79DF802009DF80310D6
:100B6000884212DAFFE704989DF80210405C1822D0
:100B7000A2EBC1018840019908430190FFE79DF86D
:100B8000020001308DF80200E6E701980899029A08
:100B9000531C029341F82200FFE702980A90FFE7F6
:100BA0000BB070478AB040F27400C2F200000990A6
:100BB00040F68000C2F200000890072007904FF432
:100BC000806006900898079908440590FFE7002088
:100BD0009DF81410890729B1FFE70698002818BF6F
:100BE0000120FFE7C00760B1FFE70598411C0591B0
:100BF000007809994A1C09920870069801380690F5
:100C0000E5E70698042825D3FFE7069880080490B6
:100C1000099803900598029000200190FFE7019841
:100C2000049988420DD2FFE70298011D02910068E5
:100C300003990A1D03920860FFE7019801300190B3
:100C4000EDE70398099002980590069800F00300DC
:100C50000690FFE700200090FFE700980699884281
:100C60000DD2FFE70598411C0591007809994A1CAF
:100C700009920870FFE7009801300090EDE70AB094
:100C80007047000083B040F27841C2F20001029147
:100C90000190002000900090FFE7009801998842A1
:100CA0000ED2FFE70298009950F8210043F20001AC
:100CB000C4F202010860FFE7009801300090ECE701
:100CC00043F20000C4F20200006803B07047000065
:100CD00043F20800C4F20200016841F00101016022
:100CE0007047000081B04FF0FF300090009843F251
:100CF0001001C4F20201086001B0704781B0002009
:100D00008DF803009DF8030043F20801C4F20201CC
:100D10000A6800F0030022F0180242EAC0000860EE
:100D200001B0704781B041F6B750C0F2C1400090A9
:100D3000009843F21401C4F20201086001B0704748
:100D400081B000208DF803009DF8030043F20801F4
:100D5000C4F202010A6800F0030022F0600242EAD5
:100D60004010086001B0704781B000208DF803008A
:100D70009DF8030043F20801C4F202010A6800F082
:100D8000010022F0800242EAC010086001B0704702
:100D900081B000208DF803009DF8030041F20401AA
:100DA000C4F202010A6800F00F0022F0F00242EAE9
:100DB0000010086001B0704781B004208DF8030076
:100DC0009DF8030041F20401C4F202010A6800F038
:100DD000070022F4E06242EA0020086001B0704798
:100DE00081B004208DF803009DF8030041F2040156
:100DF000C4F202010A6800F0070022F4605242EADD
:100E0000C020086001B0704781B08DF803009DF8E4
:100E10000300012809D1FFE741F25400C4F20200A7
:100E2000016841F03001016008E041F25400C4F271
:100E30000200016821F030010160FFE701B0704756
:100E400081B08DF8030001208DF802009DF80300A9
:100E5000042843D8DFE800F0030E1D2C37009DF86E
:100E6000020041F20001C4F202010A6860F30002CC
:100E70000A6034E09DF8020041F20001C4F2020170
:100E80000A6800F0010022F4803242EA0040086063
:100E900025E09DF8020041F20001C4F202010A6857
:100EA00000F0010022F0807242EA0060086016E063
:100EB0009DF8020041F22001C4F202010A6860F3C9
:100EC00000020A600BE09DF8020041F22401C4F226
:100ED00002010A6860F300020A6000E0FFE701B067
:100EE0007047000080B58CB00B9000200A900990EC
:100EF000089007900690059004900390029000F0EF
:100F000073FA8DF807009DF8070030B1FFE701285C
:100F100024D0FFE7022828D0C1E041F25400C4F2F7
:100F200002000068400AC00780B1FFE741F23000CC
:100F3000C4F202000068400EC00738B1FFE70B980A
:100F400046F60041C0F2DC21016006E00B9841F258
:100F50000021C0F27A010160FFE7A7E00B9841F29F
:100F60000021C0F27A010160A0E041F20400C4F265
:100F700002000068C0F30040089041F22C00C4F267
:100F8000020000680021B1EBD07F47D1FFE741F2BA
:100F90000400C4F202000168C1F383410A910068B1
:100FA000C0F341700990099820B9FFE70A980F280B
:100FB00007D1FFE709980A9901EB001001300A9068
:100FC00003E00A9802300A90FFE7089848B9FFE763
:100FD0000A9840F60011C0F23D0148430B990860A1
:100FE0001BE041F20400C4F202000068400CC0079C
:100FF00048B1FFE70A9840F60011C0F23D014843AE
:101000000B99086008E00A9841F20021C0F27A01C9
:1010100048430B990860FFE7FFE73FE041F22C00EF
:10102000C4F202000168C1F3031104910168C1F325
:1010300008210391006800F007000290089830B979
:10104000FFE740F60010C0F23D00059015E041F2C8
:101050000400C4F202000068400CC00730B1FFE792
:1010600040F60010C0F23D00059005E041F200207E
:10107000C0F27A000590FFE7FFE705980399A0FB0F
:101080000101DDF810C0029B01229A400CFB02F224
:101090000023FFF72EF90B990860FFE706E00B9895
:1010A00041F20021C0F27A010160FFE741F2040041
:1010B000C4F202000168C1F303110791079942F2DB
:1010C0004252C0F60002515C06910B990A68069BD9
:1010D000DA404A600168C1F302210791079942F2A0
:1010E000525CC0F6000C1CF8011006910B994B687D
:1010F000069A23FA02F2CA600168C1F3C22107917D
:1011000007991CF8011006910B994A68069BDA4072
:101110008A600168C1F30071079107990068C0F304
:10112000813040EA81000790079842F25A51C0F698
:101130000001085C06900B988168069AB1FBF2F1F9
:1011400001610CB080BD000082B0019000208DF8DC
:101150000300BDF8060041F20001C4F2020140584C
:10116000019901F01F01C840C00720B9FFE7002026
:101170008DF8030003E001208DF80300FFE79DF8E0
:10118000030002B07047000080B582B000200190DB
:101190008DF80300FFE71120FFF7D6FF002101289B
:1011A00007D0FFE701980021B0F5405F38BF01216B
:1011B000FFE7C80720B1FFE7019801300190EAE797
:1011C0001120FFF7C1FF012804D0FFE700208DF8B0
:1011D000030003E001208DF80300FFE79DF8030002
:1011E00002B080BD82B001908DF803109DF803001D
:1011F00001280FD1FFE7019800F01F01012202FA38
:1012000001F1000C41F20002C4F2020283581943BA
:1012100081500FE0019800F01F01012202FA01F154
:10122000000C41F20002C4F20202835823EA0101D9
:101230008150FFE702B0704782B001208DF80700AF
:101240004B21ADF80410ADF8020002208DF801002A
:101250009DF8070088B9FFE741F20400C4F20200DC
:10126000016821F48031016041F23000C4F20200D3
:10127000016841F0007101601FE041F20400C4F216
:101280000200016841F4803101609DF807000128E7
:1012900009D1FFE741F20400C4F20200016821F421
:1012A0000031016008E041F20400C4F2020001686C
:1012B00041F400310160FFE7FFE7BDF8040041F2AF
:1012C0002C01C4F202010A686FF35F206FF3102251
:1012D00042EA00200860BDF802000A6800F00F0032
:1012E00022F0F00242EA001008609DF801000A684E
:1012F00060F302020A60086840F00040086002B033
:101300007047000041F20000C4F20200016841F0A1
:1013100001010160FFE741F20000C4F20200006831
:10132000C0F34000012801D0FFE7F4E741F20400D8
:10133000C4F20200016821F003010160FFE741F2FD
:101340000400C4F2020000688008800708B1FFE7CB
:10135000F5E741F20000C4F2020001684FF6FF72A7
:10136000CFF6F2621140016041F20400C4F20200C3
:101370000021016041F22C00C4F2020041F610711C
:10138000016041F23000C4F202004FF480110160AC
:1013900041F20800C4F202004FF41F0101607047DF
:1013A00081B002208DF803009DF8030041F2040192
:1013B000C4F202010A6860F301020A6000BF00BFC4
:1013C00000BF00BF00BF00BF00BF00BF00BF00BF25
:1013D00000BF00BF00BF00BF00BF00BF00BF00BF15
:1013E00000BF00BF01B0704741F20400C4F2020028
:1013F0000068C0F38100704780B584B0039040F26C
:101400007400C2F20000029000F0E6F8039800F0C9
:10141000BFF84FF2E070C1F6FF700068FF2806D8F1
:10142000FFE7039800F5806000F0B2F8FFE70020C6
:10143000ADF80600FFE7BDF80600B0F5006F19DA59
:10144000FFE70298BDF8061042185278405C40EA67
:101450000220ADF804000398BDF8041000F00EF867
:10146000039802300390FFE7BDF806000230ADF8A4
:101470000600E0E700F022F804B080BD10B582B0AD
:101480000190ADF8021003208DF8010042F2100423
:10149000C4F20204206840F001002060BDF80200A0
:1014A000019908804FF4801000F046F88DF8010093
:1014B000206820F00100206002B010BD42F2100050
:1014C000C4F20200016841F0800101607047000031
:1014D00081B003208DF8030042F20C00C4F2020038
:1014E0000068C00720B1FFE700208DF803001FE06F
:1014F00042F20C00C4F2020000688008C00720B16C
:10150000FFE701208DF8030011E042F20C00C4F265
:10151000020000680009C00720B1FFE702208DF833
:10152000030003E003208DF80300FFE7FFE7FFE778
:101530009DF8030001B0704780B582B00190032090
:101540008DF80300FFF7C4FF8DF80300FFE79DF857
:101550000310002029B9FFE70198002818BF0120D7
:10156000FFE7C00740B1FFE7FFF7B2FF8DF80300C8
:10157000019801380190EAE7019820B9FFE70420BB
:101580008DF80300FFE79DF8030002B080BD000066
:1015900010B582B0019003208DF8030042F21004D0
:1015A000C4F20204206840F002002060019842F278
:1015B0001401C4F202010860206840F0400020607D
:1015C0004FF08040FFF7B8FF8DF80300206820F04F
:1015D0000200206002B010BD42F20400C4F202001A
:1015E00040F22311C4F26751016048F6AB11CCF60A
:1015F000EF5101607047000081B043F60000C0F673
:101600000000006844F63831C4F25411884204D115
:10161000FFE701208DF8030003E000208DF80300B0
:10162000FFE79DF8030001B07047000081B0009013
:1016300000984FF6FF7101600098002181710098B9
:10164000017100980421417100980121C17101B01C
:101650007047000084B00390029102980068ADF8D2
:10166000000002988079032804D1FFE70020ADF83C
:1016700002002FE002988079E0B9FFE702984079F4
:1016800000F00F00ADF8020002984079182805D14B
:10169000FFE7BDF80000039908610AE0029840796D
:1016A000282805D1FFE7BDF8000003994861FFE74E
:1016B000FFE70EE0029801798279C07902F0080212
:1016C00001F00401114400F003000844ADF80200E9
:1016D000FFE7FFE79DF8000048B3FFE70020019017
:1016E000FFE70198072821D8FFE70198BDF800100F
:1016F00021FA00F0C007A0B1FFE7019880000F2198
:1017000001FA00F003990A6822EA00000860BDF8B7
:10171000020001998900884003990A681043086013
:10172000FFE7FFE7019801300190DAE7FFE7BDF836
:101730000000B0F5807F2DDBFFE79DF80100ADF8DC
:10174000000000200190FFE70198072821D8FFE75B
:101750000198BDF8001021FA00F0C007A0B1FFE722
:10176000019880000F2101FA00F003994A6822EAEB
:1017700000004860BDF80200019989008840039983
:101780004A6810434860FFE7FFE701980130019085
:10179000DAE7FFE704B0704785B040F20230C3F2E9
:1017A0001000049001208DF80F009DF81300002117
:1017B000C4F2010108430290BDF812008DF8030045
:1017C0000498000A8DF8020004988DF801009DF835
:1017D00002009DF803100844C0F120004FF0FF31D3
:1017E00001FA00F0019001989DF802109DF8032085
:1017F0001144C1F12001C840019001989DF80310E7
:10180000C840019001989DF803108840019001980C
:1018100002990A6822EA000008609DF80F0050B1A2
:10182000FFE79DF801009DF80310884002990A68BF
:1018300010430860FFE705B07047000080B582B034
:101840000020019000F0B8FD00F084FD00F0E6FCFF
:1018500000F034FD00F00CFE00F0E4FC00F032FE7D
:1018600000F0CEFCFFF7C8FE78B9FFE744F20700AE
:10187000C0F6000000784FF00061B1EB006F03D1BB
:10188000FFE7FFF775F8FFE7FFE7FFF7B5FE18B1D1
:10189000FFE700F031FAFFE7FFE740F26C00C2F229
:1018A00000000078012817D1FFE740F26C00C2F277
:1018B00000000021017044F20700C0F6000000782B
:1018C0004FF00061B1EB006F05D1FFE7FFF71AFDA4
:1018D000FFF74EF8FFE7FFE7DFE7000080B582B0D3
:1018E0008DF807009DF90700FEF798FF02B080BD54
:1018F00080B584B025208DF80F0000200290019063
:101900000090FEF7CBFF0299019AFEF7A7FD009029
:101910009DF90F000099FEF7EBFF9DF90F00FEF710
:101920009BFF04B080BD000080B582B003208DF81D
:1019300007009DF80700FEF7FDFF02B080BD000024
:1019400080B58AB000200990089007900690059015
:101950000490039002900190FFF746FD8DF803007C
:101960009DF8030030B1FFE701282AD0FFE70228E5
:1019700031D0D6E041F25400C4F202000068400ABF
:10198000C00798B1FFE741F23000C4F202000068DE
:10199000400EC00750B1FFE740F20400C2F2000061
:1019A00046F60041C0F2DC21016009E040F204008B
:1019B000C2F2000041F20021C0F27A010160FFE7AB
:1019C000B9E040F20400C2F2000041F20021C0F28E
:1019D0007A010160AFE041F20400C4F20200006845
:1019E000C0F30040079041F22C00C4F202000068EE
:1019F0000021B1EBD07F50D1FFE741F20400C4F2E7
:101A000002000168C1F3834109910068C0F341708D
:101A10000890089820B9FFE709980F2807D1FFE739
:101A20000898099901EB00100130099003E009982A
:101A300002300990FFE7079860B9FFE7099840F680
:101A40000011C0F23D01484340F20401C2F200011E
:101A5000086021E041F20400C4F202000068400C7A
:101A6000C00760B1FFE7099840F60011C0F23D01E0
:101A7000484340F20401C2F2000108600BE00998FB
:101A800041F20021C0F27A01484340F20401C2F25F
:101A900000010860FFE7FFE742E041F22C00C4F2DA
:101AA00002000168C1F3031103910168C1F3082129
:101AB0000291006800F007000190079830B9FFE735
:101AC00040F60010C0F23D00049015E041F2040021
:101AD000C4F202000068400CC00730B1FFE740F6D6
:101AE0000010C0F23D00049005E041F20020C0F279
:101AF0007A000490FFE7FFE704980299A0FB010138
:101B0000DDF80CC0019B01229A400CFB02F200237D
:101B1000FEF7EFFB40F20401C2F200010860FFE7AC
:101B200009E040F20400C2F2000041F20021C0F2DC
:101B30007A010160FFE741F20400C4F2020000688C
:101B4000C0F303100690069842F24251C0F600011D
:101B5000085C059040F20400C2F200000168059A9A
:101B6000D14001600AB080BD81B004208DF803002F
:101B70009DF80300042809D1FFE74EF21000CEF2D1
:101B80000000016841F00401016008E04EF210001D
:101B9000CEF20000016821F004010160FFE701B00E
:101BA00070470000B0B582B00025019540F68C4426
:101BB000C2F20004D120207001206070A070E0709B
:101BC000207165710A20A071E57125726572A57298
:101BD000E57225736573A573E5732574204610219E
:101BE000FEF76CFF0420FFF74DF80190FFF770F847
:101BF0009DF807006074BDF80600A0740198000A03
:101C0000E07401982075F02060758DF80350FFE7AF
:101C10009DF80300152816DCFFE79DF8030040F649
:101C20008C41C2F20001085C00F0C8F8FFE700F048
:101C3000EBF808B9FFE7FAE7FFE79DF8030001308A
:101C40008DF80300E4E702B0B0BD0000B0B582B08B
:101C50000025019540F68C44C2F20004D12020708A
:101C600002206070A0700120E070207165710A2070
:101C7000A0711820E07125726572A572E572257356
:101C80006573A573E573257420461021FEF716FFD2
:101C90000420FEF7F7FF0190FFF71AF89DF8070000
:101CA0006074BDF80600A0740198000AE074019801
:101CB0002075F02060758DF80350FFE79DF8030054
:101CC000152816DCFFE79DF8030040F68C41C2F2B0
:101CD0000001085C00F072F8FFE700F095F808B921
:101CE000FFE7FAE7FFE79DF8030001308DF80300F6
:101CF000E4E702B0B0BD0000B0B582B000250195A8
:101D000040F68C44C2F20004D120207002206070A2
:101D1000A0700120E070207165710A20A0711D2063
:101D2000E07125726572A572E57225736573A573FE
:101D3000E573257420461021FEF7C0FE0420FEF74F
:101D4000A1FF0190FEF7C4FF9DF807006074BDF885
:101D50000600A0740198000AE07401982075F02034
:101D600060758DF80350FFE79DF80300152816DC19
:101D7000FFE79DF8030040F68C41C2F20001085CC9
:101D800000F01CF8FFE700F03FF808B9FFE7FAE7BA
:101D9000FFE79DF8030001308DF80300E4E702B08F
:101DA000B0BD000081B043F60000C4F20100009015
:101DB0000098406880B201B07047000082B043F6DE
:101DC0000001C4F201010191ADF80200BDF802006A
:101DD0006FF35F200199486002B0704782B043F60C
:101DE0000000C4F20100019001208DF803009DF86D
:101DF00003000199CA6800F0010022F4005242EA8F
:101E00004030C86002B0704783B043F60000C4F2AF
:101E1000010001904020009001980068009908425C
:101E200004D0FFE701208DF80B0003E000208DF8BF
:101E30000B00FFE79DF80B0003B0704782B043F63C
:101E40000000C4F20100019000208DF803009DF80D
:101E5000030058B9FFE70198416921F4807141619D
:101E60000198416921F40071416132E09DF803005D
:101E700001280BD1FFE70198416941F4807141616C
:101E80000198416921F40071416121E09DF803004E
:101E900002280BD1FFE70198416921F4807141616B
:101EA0000198416941F40071416110E09DF803001F
:101EB00003280BD1FFE70198416941F4807141612A
:101EC0000198416941F400714161FFE7FFE7FFE7D5
:101ED000FFE702B07047000010B58AB043F6000477
:101EE000C4F2010409944FF4E130089000208DF809
:101EF0001F008DF81E0002A8FEF7F4FF0998A0420B
:101F000003D1FFE70498019002E005980190FFE7F4
:101F1000019800EB800040000899B0FBF1F00090C0
:101F200000984CF6CD41CCF6CC41A0FB0112D10873
:101F300001EB8101A0EB410004280AD8FFE70098DB
:101F40004CF6CD41CCF6CC41A0FB0101C808009075
:101F50000BE000984CF6CD41CCF6CC41A0FB010142
:101F6000012000EBD1000090FFE7BDF800000999C7
:101F70008A684FF6FF739A43104488609DF81F00EB
:101F80000999CA6800F0010022F4805242EA003048
:101F9000C8609DF81E0009990A6900F0030022F448
:101FA000405242EA003008610AB010BD83B043F6E7
:101FB0000000C4F2010002900520C0F20C00019064
:101FC00001208DF803009DF8030001280CD1FFE7E4
:101FD000019800F01F01012202FA01F1029A000C9F
:101FE0001358194311500CE0019800F01F01012211
:101FF00002FA01F1029A000C135823EA0101115070
:10200000FFE703B07047000084B043F60000C4F25D
:10201000010002902020019000208DF8030001981B
:1020200001285FD0FFE7022855D0FFE7042852D0EF
:10203000FFE7082837D0FFE7102845D0FFE7202822
:102040002AD0FFE7402820D0FFE7802816D0FFE7FE
:10205000B0F5807F0BD0FFE7B0F5007F49D1FFE7F7
:1020600002984069C0F380208DF8030045E0029893
:102070000069C0F380108DF803003EE00298C0684C
:10208000C0F3C0108DF8030037E00298C068C0F3B9
:1020900080108DF8030030E00298C068C0F3401053
:1020A0008DF8030029E00298C06841090120C907A2
:1020B00029B9FFE70298406900F00100FFE700F04E
:1020C00001008DF8030018E00298C068C0F300100A
:1020D0008DF8030011E00298406900F001008DF8CE
:1020E00003000AE00298C068C0F300208DF80300E6
:1020F00003E000208DF80300FFE79DF803000128AE
:1021000004D0FFE700208DF80F000DE00298006872
:102110000199084204D0FFE701208DF80F0003E089
:1021200000208DF80F00FFE79DF80F0004B0704706
:1021300082B043F60000C4F20100019000208DF847
:1021400003009DF8030058B9FFE70198C16821F426
:102150000071C1600198C16821F48061C16021E013
:102160009DF8030001280BD1FFE70198C16821F415
:102170000071C1600198C16841F48061C16010E0E4
:102180009DF8030002280BD1FFE70198C16841F4D4
:102190000071C1600198C16841F48061C160FFE7CE
:1021A000FFE7FFE702B0704782B043F60000C4F2D9
:1021B0000100019001208DF803009DF803000199B2
:1021C000CA6800F0010022F0040242EA8000C86000
:1021D00002B0704782B043F60000C4F201000190E3
:1021E00001208DF803009DF803000199CA6800F0F2
:1021F000010022F0080242EAC000C86002B0704745
:1022000080B5FEF76FFDFEF779FDFEF78BFDFEF75B
:1022100097FDFEF7A9FDFEF75BFD80BD80B5FFF7DA
:10222000BBFA80BDF0B583B001AC2046FFF7FEF9E4
:1022300003258DF80A504FF6FF77019704268DF895
:10224000096041F20000C4F201002146FFF702FAE2
:102250008DF80A5049F6FF1001908DF8096040F69C
:102260000000C4F201002146FFF7F4F98DF80A508E
:10227000F02001908DF8096041F60040C4F20100A1
:102280002146FFF7E7F98DF80A5001978DF80960AC
:1022900040F60040C4F201002146FFF7DBF98DF85B
:1022A0000A5001968DF8096041F20040C4F2010025
:1022B0002146FFF7CFF903B0F0BD000080B5FFF76E
:1022C00033FBFEF7E3FA0021FEF796F801466FF0C4
:1022D0000B00FEF7EBFAFEF7D9FA0021FEF78CF8B7
:1022E00001466FF00A00FEF7E1FAFEF7CFFA00218F
:1022F000FEF782F801466FF00900FEF7D7FAFEF705
:10230000C5FA0021FEF778F801466FF00400FEF7E9
:10231000CDFAFEF7BBFA0021FEF76EF801466FF02A
:102320000300FEF7C3FAFEF7B1FA0021FEF764F8E6
:1023300001466FF00100FEF7B9FAFEF7A7FA0F2188
:10234000FEF75AF801464FF0FF30FEF7AFFAFFF7FD
:10235000CFFA80BD80B50620C0F214000121FEF73F
:1023600041FF4FF4C0100121FEF73CFF0220C0F2F4
:1023700018000121FEF736FF0320C0F218000121EA
:10238000FEF730FF0420C0F218000121FEF72AFFFB
:102390000520C0F218000121FEF724FF0720C0F23B
:1023A00018000121FEF71EFF0E20C0F218000121C7
:1023B000FEF718FF80BD000080B5FEF7A3FF42F2D4
:1023C0000000C4F20200142101600420FEF738FD71
:1023D000FFE70120C0F22400FEF7B6FE012801D07D
:1023E000FFE7F6E70120FEF72BFDFFE7FEF7CCFE47
:1023F00008B9FFE7FAE70020FEF722FDFFE701201A
:10240000FEF7A2FE012801D0FFE7F8E7FEF714FF70
:102410000220FEF715FDFFE71920FEF795FE0128C3
:1024200001D0FFE7F8E7FEF7B3FCFEF7D9FCFEF7B3
:10243000C3FC0120FEF7E8FCFEF7B2FFFFE7FEF762
:10244000D3FF022801D0FFE7F9E70020FEF7DCFC0C
:10245000FFF776FA80BD000080B500F001F880BD7E
:1024600040F27440C2F2000001680131016070471F
:1024700010B586B00024009401A8FEF733FD029841
:102480000090FFF771FB009844F6D351C1F262014E
:10249000A0FB01014FF0FF3000EB91104EF2140150
:1024A000CEF2000108604EF21800CEF20000046087
:1024B0004EF21000CEF20000016841F0030101600D
:1024C00006B010BD2DE9F04182B06C462046FFF702
:1024D000ADF84FF002088DF8078000278DF80470E2
:1024E00008208DF806004FF40070009004268DF847
:1024F000056040F60005C4F2010528462146FFF7B5
:10250000A9F88DF807808DF804708DF806704FF4E7
:10251000806000908DF8056028462146FFF79AF804
:10252000FFF7DAFCFFF756FEFFF73EFEFFF700FE6F
:10253000FFF784FCFFF73AFDFFF750FC02B0BDE85F
:10254000F081000000000000000001020304060703
:102550000809000000000102030402040608020C3E
:102560000810000088250008000000200800000076
:10257000D40100089025000808000020A0120000E7
:10258000F4010008000000000040000800127A007A
:04000005080001717D
:00000001FF
